{
  "_format": "hh-sol-artifact-1",
  "contractName": "ERC721ConsecutiveMock",
  "sourceName": "contracts/mocks/ERC721ConsecutiveMock.sol",
  "abi": [
    {
      "inputs": [
        {
          "internalType": "string",
          "name": "name",
          "type": "string"
        },
        {
          "internalType": "string",
          "name": "symbol",
          "type": "string"
        },
        {
          "internalType": "address[]",
          "name": "delegates",
          "type": "address[]"
        },
        {
          "internalType": "address[]",
          "name": "receivers",
          "type": "address[]"
        },
        {
          "internalType": "uint96[]",
          "name": "amounts",
          "type": "uint96[]"
        }
      ],
      "stateMutability": "nonpayable",
      "type": "constructor"
    },
    {
      "anonymous": false,
      "inputs": [
        {
          "indexed": true,
          "internalType": "address",
          "name": "owner",
          "type": "address"
        },
        {
          "indexed": true,
          "internalType": "address",
          "name": "approved",
          "type": "address"
        },
        {
          "indexed": true,
          "internalType": "uint256",
          "name": "tokenId",
          "type": "uint256"
        }
      ],
      "name": "Approval",
      "type": "event"
    },
    {
      "anonymous": false,
      "inputs": [
        {
          "indexed": true,
          "internalType": "address",
          "name": "owner",
          "type": "address"
        },
        {
          "indexed": true,
          "internalType": "address",
          "name": "operator",
          "type": "address"
        },
        {
          "indexed": false,
          "internalType": "bool",
          "name": "approved",
          "type": "bool"
        }
      ],
      "name": "ApprovalForAll",
      "type": "event"
    },
    {
      "anonymous": false,
      "inputs": [
        {
          "indexed": true,
          "internalType": "uint256",
          "name": "fromTokenId",
          "type": "uint256"
        },
        {
          "indexed": false,
          "internalType": "uint256",
          "name": "toTokenId",
          "type": "uint256"
        },
        {
          "indexed": true,
          "internalType": "address",
          "name": "fromAddress",
          "type": "address"
        },
        {
          "indexed": true,
          "internalType": "address",
          "name": "toAddress",
          "type": "address"
        }
      ],
      "name": "ConsecutiveTransfer",
      "type": "event"
    },
    {
      "anonymous": false,
      "inputs": [
        {
          "indexed": true,
          "internalType": "address",
          "name": "delegator",
          "type": "address"
        },
        {
          "indexed": true,
          "internalType": "address",
          "name": "fromDelegate",
          "type": "address"
        },
        {
          "indexed": true,
          "internalType": "address",
          "name": "toDelegate",
          "type": "address"
        }
      ],
      "name": "DelegateChanged",
      "type": "event"
    },
    {
      "anonymous": false,
      "inputs": [
        {
          "indexed": true,
          "internalType": "address",
          "name": "delegate",
          "type": "address"
        },
        {
          "indexed": false,
          "internalType": "uint256",
          "name": "previousBalance",
          "type": "uint256"
        },
        {
          "indexed": false,
          "internalType": "uint256",
          "name": "newBalance",
          "type": "uint256"
        }
      ],
      "name": "DelegateVotesChanged",
      "type": "event"
    },
    {
      "anonymous": false,
      "inputs": [
        {
          "indexed": false,
          "internalType": "address",
          "name": "account",
          "type": "address"
        }
      ],
      "name": "Paused",
      "type": "event"
    },
    {
      "anonymous": false,
      "inputs": [
        {
          "indexed": true,
          "internalType": "address",
          "name": "from",
          "type": "address"
        },
        {
          "indexed": true,
          "internalType": "address",
          "name": "to",
          "type": "address"
        },
        {
          "indexed": true,
          "internalType": "uint256",
          "name": "tokenId",
          "type": "uint256"
        }
      ],
      "name": "Transfer",
      "type": "event"
    },
    {
      "anonymous": false,
      "inputs": [
        {
          "indexed": false,
          "internalType": "address",
          "name": "account",
          "type": "address"
        }
      ],
      "name": "Unpaused",
      "type": "event"
    },
    {
      "inputs": [],
      "name": "DOMAIN_SEPARATOR",
      "outputs": [
        {
          "internalType": "bytes32",
          "name": "",
          "type": "bytes32"
        }
      ],
      "stateMutability": "view",
      "type": "function"
    },
    {
      "inputs": [
        {
          "internalType": "address",
          "name": "to",
          "type": "address"
        },
        {
          "internalType": "uint256",
          "name": "tokenId",
          "type": "uint256"
        }
      ],
      "name": "approve",
      "outputs": [],
      "stateMutability": "nonpayable",
      "type": "function"
    },
    {
      "inputs": [
        {
          "internalType": "address",
          "name": "owner",
          "type": "address"
        }
      ],
      "name": "balanceOf",
      "outputs": [
        {
          "internalType": "uint256",
          "name": "",
          "type": "uint256"
        }
      ],
      "stateMutability": "view",
      "type": "function"
    },
    {
      "inputs": [
        {
          "internalType": "uint256",
          "name": "tokenId",
          "type": "uint256"
        }
      ],
      "name": "burn",
      "outputs": [],
      "stateMutability": "nonpayable",
      "type": "function"
    },
    {
      "inputs": [
        {
          "internalType": "address",
          "name": "delegatee",
          "type": "address"
        }
      ],
      "name": "delegate",
      "outputs": [],
      "stateMutability": "nonpayable",
      "type": "function"
    },
    {
      "inputs": [
        {
          "internalType": "address",
          "name": "delegatee",
          "type": "address"
        },
        {
          "internalType": "uint256",
          "name": "nonce",
          "type": "uint256"
        },
        {
          "internalType": "uint256",
          "name": "expiry",
          "type": "uint256"
        },
        {
          "internalType": "uint8",
          "name": "v",
          "type": "uint8"
        },
        {
          "internalType": "bytes32",
          "name": "r",
          "type": "bytes32"
        },
        {
          "internalType": "bytes32",
          "name": "s",
          "type": "bytes32"
        }
      ],
      "name": "delegateBySig",
      "outputs": [],
      "stateMutability": "nonpayable",
      "type": "function"
    },
    {
      "inputs": [
        {
          "internalType": "address",
          "name": "account",
          "type": "address"
        }
      ],
      "name": "delegates",
      "outputs": [
        {
          "internalType": "address",
          "name": "",
          "type": "address"
        }
      ],
      "stateMutability": "view",
      "type": "function"
    },
    {
      "inputs": [
        {
          "internalType": "uint256",
          "name": "tokenId",
          "type": "uint256"
        }
      ],
      "name": "exists",
      "outputs": [
        {
          "internalType": "bool",
          "name": "",
          "type": "bool"
        }
      ],
      "stateMutability": "view",
      "type": "function"
    },
    {
      "inputs": [
        {
          "internalType": "uint256",
          "name": "tokenId",
          "type": "uint256"
        }
      ],
      "name": "getApproved",
      "outputs": [
        {
          "internalType": "address",
          "name": "",
          "type": "address"
        }
      ],
      "stateMutability": "view",
      "type": "function"
    },
    {
      "inputs": [
        {
          "internalType": "uint256",
          "name": "blockNumber",
          "type": "uint256"
        }
      ],
      "name": "getPastTotalSupply",
      "outputs": [
        {
          "internalType": "uint256",
          "name": "",
          "type": "uint256"
        }
      ],
      "stateMutability": "view",
      "type": "function"
    },
    {
      "inputs": [
        {
          "internalType": "address",
          "name": "account",
          "type": "address"
        },
        {
          "internalType": "uint256",
          "name": "blockNumber",
          "type": "uint256"
        }
      ],
      "name": "getPastVotes",
      "outputs": [
        {
          "internalType": "uint256",
          "name": "",
          "type": "uint256"
        }
      ],
      "stateMutability": "view",
      "type": "function"
    },
    {
      "inputs": [
        {
          "internalType": "address",
          "name": "account",
          "type": "address"
        }
      ],
      "name": "getVotes",
      "outputs": [
        {
          "internalType": "uint256",
          "name": "",
          "type": "uint256"
        }
      ],
      "stateMutability": "view",
      "type": "function"
    },
    {
      "inputs": [
        {
          "internalType": "address",
          "name": "owner",
          "type": "address"
        },
        {
          "internalType": "address",
          "name": "operator",
          "type": "address"
        }
      ],
      "name": "isApprovedForAll",
      "outputs": [
        {
          "internalType": "bool",
          "name": "",
          "type": "bool"
        }
      ],
      "stateMutability": "view",
      "type": "function"
    },
    {
      "inputs": [
        {
          "internalType": "address",
          "name": "to",
          "type": "address"
        },
        {
          "internalType": "uint256",
          "name": "tokenId",
          "type": "uint256"
        }
      ],
      "name": "mint",
      "outputs": [],
      "stateMutability": "nonpayable",
      "type": "function"
    },
    {
      "inputs": [
        {
          "internalType": "address",
          "name": "to",
          "type": "address"
        },
        {
          "internalType": "uint96",
          "name": "amount",
          "type": "uint96"
        }
      ],
      "name": "mintConsecutive",
      "outputs": [],
      "stateMutability": "nonpayable",
      "type": "function"
    },
    {
      "inputs": [],
      "name": "name",
      "outputs": [
        {
          "internalType": "string",
          "name": "",
          "type": "string"
        }
      ],
      "stateMutability": "view",
      "type": "function"
    },
    {
      "inputs": [
        {
          "internalType": "address",
          "name": "owner",
          "type": "address"
        }
      ],
      "name": "nonces",
      "outputs": [
        {
          "internalType": "uint256",
          "name": "",
          "type": "uint256"
        }
      ],
      "stateMutability": "view",
      "type": "function"
    },
    {
      "inputs": [
        {
          "internalType": "uint256",
          "name": "tokenId",
          "type": "uint256"
        }
      ],
      "name": "ownerOf",
      "outputs": [
        {
          "internalType": "address",
          "name": "",
          "type": "address"
        }
      ],
      "stateMutability": "view",
      "type": "function"
    },
    {
      "inputs": [],
      "name": "pause",
      "outputs": [],
      "stateMutability": "nonpayable",
      "type": "function"
    },
    {
      "inputs": [],
      "name": "paused",
      "outputs": [
        {
          "internalType": "bool",
          "name": "",
          "type": "bool"
        }
      ],
      "stateMutability": "view",
      "type": "function"
    },
    {
      "inputs": [
        {
          "internalType": "address",
          "name": "to",
          "type": "address"
        },
        {
          "internalType": "uint256",
          "name": "tokenId",
          "type": "uint256"
        }
      ],
      "name": "safeMint",
      "outputs": [],
      "stateMutability": "nonpayable",
      "type": "function"
    },
    {
      "inputs": [
        {
          "internalType": "address",
          "name": "from",
          "type": "address"
        },
        {
          "internalType": "address",
          "name": "to",
          "type": "address"
        },
        {
          "internalType": "uint256",
          "name": "tokenId",
          "type": "uint256"
        }
      ],
      "name": "safeTransferFrom",
      "outputs": [],
      "stateMutability": "nonpayable",
      "type": "function"
    },
    {
      "inputs": [
        {
          "internalType": "address",
          "name": "from",
          "type": "address"
        },
        {
          "internalType": "address",
          "name": "to",
          "type": "address"
        },
        {
          "internalType": "uint256",
          "name": "tokenId",
          "type": "uint256"
        },
        {
          "internalType": "bytes",
          "name": "data",
          "type": "bytes"
        }
      ],
      "name": "safeTransferFrom",
      "outputs": [],
      "stateMutability": "nonpayable",
      "type": "function"
    },
    {
      "inputs": [
        {
          "internalType": "address",
          "name": "operator",
          "type": "address"
        },
        {
          "internalType": "bool",
          "name": "approved",
          "type": "bool"
        }
      ],
      "name": "setApprovalForAll",
      "outputs": [],
      "stateMutability": "nonpayable",
      "type": "function"
    },
    {
      "inputs": [
        {
          "internalType": "bytes4",
          "name": "interfaceId",
          "type": "bytes4"
        }
      ],
      "name": "supportsInterface",
      "outputs": [
        {
          "internalType": "bool",
          "name": "",
          "type": "bool"
        }
      ],
      "stateMutability": "view",
      "type": "function"
    },
    {
      "inputs": [],
      "name": "symbol",
      "outputs": [
        {
          "internalType": "string",
          "name": "",
          "type": "string"
        }
      ],
      "stateMutability": "view",
      "type": "function"
    },
    {
      "inputs": [
        {
          "internalType": "uint256",
          "name": "tokenId",
          "type": "uint256"
        }
      ],
      "name": "tokenURI",
      "outputs": [
        {
          "internalType": "string",
          "name": "",
          "type": "string"
        }
      ],
      "stateMutability": "view",
      "type": "function"
    },
    {
      "inputs": [
        {
          "internalType": "address",
          "name": "from",
          "type": "address"
        },
        {
          "internalType": "address",
          "name": "to",
          "type": "address"
        },
        {
          "internalType": "uint256",
          "name": "tokenId",
          "type": "uint256"
        }
      ],
      "name": "transferFrom",
      "outputs": [],
      "stateMutability": "nonpayable",
      "type": "function"
    },
    {
      "inputs": [],
      "name": "unpause",
      "outputs": [],
      "stateMutability": "nonpayable",
      "type": "function"
    }
  ],
  "bytecode": "0x6101406040523480156200001257600080fd5b50604051620082ea380380620082ea833981810160405281019062000038919062001c41565b846040518060400160405280600181526020017f31000000000000000000000000000000000000000000000000000000000000008152508686816000908162000082919062001faf565b50806001908162000094919062001faf565b5050506000600860006101000a81548160ff02191690831515021790555060008280519060200120905060008280519060200120905060007f8b73c3c69bb8fe3d512ecc4cf759cc79239f7b179b0ffacaa9a75d522b39400f90508260e081815250508161010081815250504660a081815250506200011b8184846200024c60201b60201c565b608081815250503073ffffffffffffffffffffffffffffffffffffffff1660c08173ffffffffffffffffffffffffffffffffffffffff1681525050806101208181525050505050505060005b8351811015620001d157620001bd8482815181106200018b576200018a62002096565b5b6020026020010151858381518110620001a957620001a862002096565b5b60200260200101516200028860201b60201c565b80620001c990620020f4565b905062000167565b5060005b825181101562000240576200022b838281518110620001f957620001f862002096565b5b602002602001015183838151811062000217576200021662002096565b5b6020026020010151620003b460201b60201c565b50806200023890620020f4565b9050620001d5565b5050505050506200280d565b60008383834630604051602001620002699594939291906200217e565b6040516020818303038152906040528051906020012090509392505050565b60006200029b836200062560201b60201c565b905081600960008573ffffffffffffffffffffffffffffffffffffffff1673ffffffffffffffffffffffffffffffffffffffff16815260200190815260200160002060006101000a81548173ffffffffffffffffffffffffffffffffffffffff021916908373ffffffffffffffffffffffffffffffffffffffff1602179055508173ffffffffffffffffffffffffffffffffffffffff168173ffffffffffffffffffffffffffffffffffffffff168473ffffffffffffffffffffffffffffffffffffffff167f3134e8a2e6d97e929a7e54011ea5485d7d196dd5f0ba4d4ef95803e8e3fc257f60405160405180910390a4620003af8183620003a3866200068e60201b60201c565b620006a860201b60201c565b505050565b600080620003c7620008dd60201b60201c565b90506000836bffffffffffffffffffffffff1611156200061b57620003f7306200092360201b6200103a1760201c565b156200043a576040517f08c379a0000000000000000000000000000000000000000000000000000000008152600401620004319062002262565b60405180910390fd5b600073ffffffffffffffffffffffffffffffffffffffff168473ffffffffffffffffffffffffffffffffffffffff1603620004ac576040517f08c379a0000000000000000000000000000000000000000000000000000000008152600401620004a390620022fa565b60405180910390fd5b620004bc6200094660201b60201c565b6bffffffffffffffffffffffff16836bffffffffffffffffffffffff1611156200051d576040517f08c379a0000000000000000000000000000000000000000000000000000000008152600401620005149062002392565b60405180910390fd5b62000540600085836bffffffffffffffffffffffff16866200095060201b60201c565b600060018483620005529190620023b4565b6200055e9190620023fb565b90506200057d818660066200096f60201b6200105d179092919060201c565b50508473ffffffffffffffffffffffffffffffffffffffff16600073ffffffffffffffffffffffffffffffffffffffff16836bffffffffffffffffffffffff167fdeaa91b6123d068f5821d0fb0678463d1a8a6079fe8af5de3ce5e896dcf9133d84604051620005ee91906200247b565b60405180910390a462000619600086846bffffffffffffffffffffffff16876200099460201b60201c565b505b8091505092915050565b6000600960008373ffffffffffffffffffffffffffffffffffffffff1673ffffffffffffffffffffffffffffffffffffffff16815260200190815260200160002060009054906101000a900473ffffffffffffffffffffffffffffffffffffffff169050919050565b6000620006a182620009b360201b60201c565b9050919050565b8173ffffffffffffffffffffffffffffffffffffffff168373ffffffffffffffffffffffffffffffffffffffff1614158015620006e55750600081115b15620008d857600073ffffffffffffffffffffffffffffffffffffffff168373ffffffffffffffffffffffffffffffffffffffff1614620007e1576000806200078862000a6d60201b6200107a1784600a60008973ffffffffffffffffffffffffffffffffffffffff1673ffffffffffffffffffffffffffffffffffffffff16815260200190815260200160002062000a8560201b62001090179092919060201c565b915091508473ffffffffffffffffffffffffffffffffffffffff167fdec2bacdd2f05b59de34da9b523dff8be42e5e38e818c82fdb0bae774387a7248383604051620007d692919062002498565b60405180910390a250505b600073ffffffffffffffffffffffffffffffffffffffff168273ffffffffffffffffffffffffffffffffffffffff1614620008d7576000806200087e62000adf60201b620010dc1784600a60008873ffffffffffffffffffffffffffffffffffffffff1673ffffffffffffffffffffffffffffffffffffffff16815260200190815260200160002062000a8560201b62001090179092919060201c565b915091508373ffffffffffffffffffffffffffffffffffffffff167fdec2bacdd2f05b59de34da9b523dff8be42e5e38e818c82fdb0bae774387a7248383604051620008cc92919062002498565b60405180910390a250505b5b505050565b6000806000620008f9600662000af760201b620010f21760201c565b5091509150816200090c5760006200091c565b6001816200091b9190620023b4565b5b9250505090565b6000808273ffffffffffffffffffffffffffffffffffffffff163b119050919050565b6000611388905090565b620009698484848462000c0460201b620011f31760201c565b50505050565b6000806200098885600001858562000c7660201b60201c565b91509150935093915050565b620009ad848484846200102760201b6200124d1760201c565b50505050565b60008073ffffffffffffffffffffffffffffffffffffffff168273ffffffffffffffffffffffffffffffffffffffff160362000a26576040517f08c379a000000000000000000000000000000000000000000000000000000000815260040162000a1d906200253b565b60405180910390fd5b600360008373ffffffffffffffffffffffffffffffffffffffff1673ffffffffffffffffffffffffffffffffffffffff168152602001908152602001600020549050919050565b6000818362000a7d91906200255d565b905092915050565b60008062000ad38562000ac762000aa2886200106760201b60201c565b7bffffffffffffffffffffffffffffffffffffffffffffffffffffffff16868860201c565b620010dd60201b60201c565b91509150935093915050565b6000818362000aef919062002598565b905092915050565b600080600080846000018054905090506000810362000b225760008060009350935093505062000bfd565b600062000b478660000160018462000b3b91906200255d565b6200116d60201b60201c565b6040518060400160405290816000820160009054906101000a90046bffffffffffffffffffffffff166bffffffffffffffffffffffff166bffffffffffffffffffffffff16815260200160008201600c9054906101000a900473ffffffffffffffffffffffffffffffffffffffff1673ffffffffffffffffffffffffffffffffffffffff1673ffffffffffffffffffffffffffffffffffffffff1681525050905060018160000151826020015194509450945050505b9193909250565b62000c1d848484846200118260201b620012781760201c565b62000c2d620012c060201b60201c565b1562000c70576040517f08c379a000000000000000000000000000000000000000000000000000000000815260040162000c679062002649565b60405180910390fd5b50505050565b600080600085805490509050600081111562000f3757600062000cae8760018462000ca291906200255d565b6200116d60201b60201c565b6040518060400160405290816000820160009054906101000a90046bffffffffffffffffffffffff166bffffffffffffffffffffffff166bffffffffffffffffffffffff16815260200160008201600c9054906101000a900473ffffffffffffffffffffffffffffffffffffffff1673ffffffffffffffffffffffffffffffffffffffff1673ffffffffffffffffffffffffffffffffffffffff16815250509050856bffffffffffffffffffffffff1681600001516bffffffffffffffffffffffff16111562000db5576040517f08c379a000000000000000000000000000000000000000000000000000000000815260040162000dac90620026bb565b60405180910390fd5b856bffffffffffffffffffffffff1681600001516bffffffffffffffffffffffff160362000e45578462000dfe8860018562000df291906200255d565b6200116d60201b60201c565b600001600c6101000a81548173ffffffffffffffffffffffffffffffffffffffff021916908373ffffffffffffffffffffffffffffffffffffffff16021790555062000f25565b866040518060400160405280886bffffffffffffffffffffffff1681526020018773ffffffffffffffffffffffffffffffffffffffff168152509080600181540180825580915050600190039060005260206000200160009091909190915060008201518160000160006101000a8154816bffffffffffffffffffffffff02191690836bffffffffffffffffffffffff160217905550602082015181600001600c6101000a81548173ffffffffffffffffffffffffffffffffffffffff021916908373ffffffffffffffffffffffffffffffffffffffff16021790555050505b8060200151859350935050506200101f565b856040518060400160405280876bffffffffffffffffffffffff1681526020018673ffffffffffffffffffffffffffffffffffffffff168152509080600181540180825580915050600190039060005260206000200160009091909190915060008201518160000160006101000a8154816bffffffffffffffffffffffff02191690836bffffffffffffffffffffffff160217905550602082015181600001600c6101000a81548173ffffffffffffffffffffffffffffffffffffffff021916908373ffffffffffffffffffffffffffffffffffffffff160217905550505060008492509250505b935093915050565b620010488484836bffffffffffffffffffffffff16620012d760201b60201c565b6200106184848484620013cf60201b620013b01760201c565b50505050565b6000808260000180549050905060008114620010d257620010a0836000016001836200109491906200255d565b620013d560201b60201c565b60000160049054906101000a90047bffffffffffffffffffffffffffffffffffffffffffffffffffffffff16620010d5565b60005b915050919050565b6000806200112084600001620010fe43620013ea60201b620013b61760201c565b62001114866200144060201b620014091760201c565b620014ae60201b60201c565b817bffffffffffffffffffffffffffffffffffffffffffffffffffffffff169150807bffffffffffffffffffffffffffffffffffffffffffffffffffffffff169050915091509250929050565b60008260005281602060002001905092915050565b600073ffffffffffffffffffffffffffffffffffffffff168473ffffffffffffffffffffffffffffffffffffffff16146200121e57806bffffffffffffffffffffffff16600360008673ffffffffffffffffffffffffffffffffffffffff1673ffffffffffffffffffffffffffffffffffffffff16815260200190815260200160002060008282546200121691906200255d565b925050819055505b600073ffffffffffffffffffffffffffffffffffffffff168373ffffffffffffffffffffffffffffffffffffffff1614620012ba57806bffffffffffffffffffffffff16600360008573ffffffffffffffffffffffffffffffffffffffff1673ffffffffffffffffffffffffffffffffffffffff1681526020019081526020016000206000828254620012b2919062002598565b925050819055505b50505050565b6000600860009054906101000a900460ff16905090565b600073ffffffffffffffffffffffffffffffffffffffff168373ffffffffffffffffffffffffffffffffffffffff160362001337576200133462000adf60201b620010dc1782600b62000a8560201b62001090179092919060201c565b50505b600073ffffffffffffffffffffffffffffffffffffffff168273ffffffffffffffffffffffffffffffffffffffff160362001397576200139462000a6d60201b6200107a1782600b62000a8560201b62001090179092919060201c565b50505b620013ca620013ac846200062560201b60201c565b620013bd846200062560201b60201c565b83620006a860201b60201c565b505050565b50505050565b60008260005281602060002001905092915050565b600063ffffffff801682111562001438576040517f08c379a00000000000000000000000000000000000000000000000000000000081526004016200142f9062002753565b60405180910390fd5b819050919050565b60007bffffffffffffffffffffffffffffffffffffffffffffffffffffffff8016821115620014a6576040517f08c379a00000000000000000000000000000000000000000000000000000000081526004016200149d90620027eb565b60405180910390fd5b819050919050565b60008060008580549050905060008111156200175f576000620014e687600184620014da91906200255d565b620013d560201b60201c565b6040518060400160405290816000820160009054906101000a900463ffffffff1663ffffffff1663ffffffff1681526020016000820160049054906101000a90047bffffffffffffffffffffffffffffffffffffffffffffffffffffffff167bffffffffffffffffffffffffffffffffffffffffffffffffffffffff167bffffffffffffffffffffffffffffffffffffffffffffffffffffffff168152505090508563ffffffff16816000015163ffffffff161115620015dd576040517f08c379a0000000000000000000000000000000000000000000000000000000008152600401620015d490620026bb565b60405180910390fd5b8563ffffffff16816000015163ffffffff16036200166d578462001616886001856200160a91906200255d565b620013d560201b60201c565b60000160046101000a8154817bffffffffffffffffffffffffffffffffffffffffffffffffffffffff02191690837bffffffffffffffffffffffffffffffffffffffffffffffffffffffff1602179055506200174d565b8660405180604001604052808863ffffffff168152602001877bffffffffffffffffffffffffffffffffffffffffffffffffffffffff168152509080600181540180825580915050600190039060005260206000200160009091909190915060008201518160000160006101000a81548163ffffffff021916908363ffffffff16021790555060208201518160000160046101000a8154817bffffffffffffffffffffffffffffffffffffffffffffffffffffffff02191690837bffffffffffffffffffffffffffffffffffffffffffffffffffffffff16021790555050505b80602001518593509350505062001847565b8560405180604001604052808763ffffffff168152602001867bffffffffffffffffffffffffffffffffffffffffffffffffffffffff168152509080600181540180825580915050600190039060005260206000200160009091909190915060008201518160000160006101000a81548163ffffffff021916908363ffffffff16021790555060208201518160000160046101000a8154817bffffffffffffffffffffffffffffffffffffffffffffffffffffffff02191690837bffffffffffffffffffffffffffffffffffffffffffffffffffffffff160217905550505060008492509250505b935093915050565b6000604051905090565b600080fd5b600080fd5b600080fd5b600080fd5b6000601f19601f8301169050919050565b7f4e487b7100000000000000000000000000000000000000000000000000000000600052604160045260246000fd5b620018b8826200186d565b810181811067ffffffffffffffff82111715620018da57620018d96200187e565b5b80604052505050565b6000620018ef6200184f565b9050620018fd8282620018ad565b919050565b600067ffffffffffffffff82111562001920576200191f6200187e565b5b6200192b826200186d565b9050602081019050919050565b60005b83811015620019585780820151818401526020810190506200193b565b60008484015250505050565b60006200197b620019758462001902565b620018e3565b9050828152602081018484840111156200199a576200199962001868565b5b620019a784828562001938565b509392505050565b600082601f830112620019c757620019c662001863565b5b8151620019d984826020860162001964565b91505092915050565b600067ffffffffffffffff82111562001a0057620019ff6200187e565b5b602082029050602081019050919050565b600080fd5b600073ffffffffffffffffffffffffffffffffffffffff82169050919050565b600062001a438262001a16565b9050919050565b62001a558162001a36565b811462001a6157600080fd5b50565b60008151905062001a758162001a4a565b92915050565b600062001a9262001a8c84620019e2565b620018e3565b9050808382526020820190506020840283018581111562001ab85762001ab762001a11565b5b835b8181101562001ae5578062001ad0888262001a64565b84526020840193505060208101905062001aba565b5050509392505050565b600082601f83011262001b075762001b0662001863565b5b815162001b1984826020860162001a7b565b91505092915050565b600067ffffffffffffffff82111562001b405762001b3f6200187e565b5b602082029050602081019050919050565b60006bffffffffffffffffffffffff82169050919050565b62001b748162001b51565b811462001b8057600080fd5b50565b60008151905062001b948162001b69565b92915050565b600062001bb162001bab8462001b22565b620018e3565b9050808382526020820190506020840283018581111562001bd75762001bd662001a11565b5b835b8181101562001c04578062001bef888262001b83565b84526020840193505060208101905062001bd9565b5050509392505050565b600082601f83011262001c265762001c2562001863565b5b815162001c3884826020860162001b9a565b91505092915050565b600080600080600060a0868803121562001c605762001c5f62001859565b5b600086015167ffffffffffffffff81111562001c815762001c806200185e565b5b62001c8f88828901620019af565b955050602086015167ffffffffffffffff81111562001cb35762001cb26200185e565b5b62001cc188828901620019af565b945050604086015167ffffffffffffffff81111562001ce55762001ce46200185e565b5b62001cf38882890162001aef565b935050606086015167ffffffffffffffff81111562001d175762001d166200185e565b5b62001d258882890162001aef565b925050608086015167ffffffffffffffff81111562001d495762001d486200185e565b5b62001d578882890162001c0e565b9150509295509295909350565b600081519050919050565b7f4e487b7100000000000000000000000000000000000000000000000000000000600052602260045260246000fd5b6000600282049050600182168062001db757607f821691505b60208210810362001dcd5762001dcc62001d6f565b5b50919050565b60008190508160005260206000209050919050565b60006020601f8301049050919050565b600082821b905092915050565b60006008830262001e377fffffffffffffffffffffffffffffffffffffffffffffffffffffffffffffffff8262001df8565b62001e43868362001df8565b95508019841693508086168417925050509392505050565b6000819050919050565b6000819050919050565b600062001e9062001e8a62001e848462001e5b565b62001e65565b62001e5b565b9050919050565b6000819050919050565b62001eac8362001e6f565b62001ec462001ebb8262001e97565b84845462001e05565b825550505050565b600090565b62001edb62001ecc565b62001ee881848462001ea1565b505050565b5b8181101562001f105762001f0460008262001ed1565b60018101905062001eee565b5050565b601f82111562001f5f5762001f298162001dd3565b62001f348462001de8565b8101602085101562001f44578190505b62001f5c62001f538562001de8565b83018262001eed565b50505b505050565b600082821c905092915050565b600062001f846000198460080262001f64565b1980831691505092915050565b600062001f9f838362001f71565b9150826002028217905092915050565b62001fba8262001d64565b67ffffffffffffffff81111562001fd65762001fd56200187e565b5b62001fe2825462001d9e565b62001fef82828562001f14565b600060209050601f83116001811462002027576000841562002012578287015190505b6200201e858262001f91565b8655506200208e565b601f198416620020378662001dd3565b60005b8281101562002061578489015182556001820191506020850194506020810190506200203a565b868310156200208157848901516200207d601f89168262001f71565b8355505b6001600288020188555050505b505050505050565b7f4e487b7100000000000000000000000000000000000000000000000000000000600052603260045260246000fd5b7f4e487b7100000000000000000000000000000000000000000000000000000000600052601160045260246000fd5b6000620021018262001e5b565b91507fffffffffffffffffffffffffffffffffffffffffffffffffffffffffffffffff8203620021365762002135620020c5565b5b600182019050919050565b6000819050919050565b620021568162002141565b82525050565b620021678162001e5b565b82525050565b620021788162001a36565b82525050565b600060a0820190506200219560008301886200214b565b620021a460208301876200214b565b620021b360408301866200214b565b620021c260608301856200215c565b620021d160808301846200216d565b9695505050505050565b600082825260208201905092915050565b7f455243373231436f6e73656375746976653a206261746368206d696e74696e6760008201527f207265737472696374656420746f20636f6e7374727563746f72000000000000602082015250565b60006200224a603a83620021db565b91506200225782620021ec565b604082019050919050565b600060208201905081810360008301526200227d816200223b565b9050919050565b7f455243373231436f6e73656375746976653a206d696e7420746f20746865207a60008201527f65726f2061646472657373000000000000000000000000000000000000000000602082015250565b6000620022e2602b83620021db565b9150620022ef8262002284565b604082019050919050565b600060208201905081810360008301526200231581620022d3565b9050919050565b7f455243373231436f6e73656375746976653a20626174636820746f6f206c617260008201527f6765000000000000000000000000000000000000000000000000000000000000602082015250565b60006200237a602283620021db565b915062002387826200231c565b604082019050919050565b60006020820190508181036000830152620023ad816200236b565b9050919050565b6000620023c18262001b51565b9150620023ce8362001b51565b925082820190506bffffffffffffffffffffffff811115620023f557620023f4620020c5565b5b92915050565b6000620024088262001b51565b9150620024158362001b51565b925082820390506bffffffffffffffffffffffff8111156200243c576200243b620020c5565b5b92915050565b6000620024636200245d620024578462001b51565b62001e65565b62001e5b565b9050919050565b620024758162002442565b82525050565b60006020820190506200249260008301846200246a565b92915050565b6000604082019050620024af60008301856200215c565b620024be60208301846200215c565b9392505050565b7f4552433732313a2061646472657373207a65726f206973206e6f74206120766160008201527f6c6964206f776e65720000000000000000000000000000000000000000000000602082015250565b600062002523602983620021db565b91506200253082620024c5565b604082019050919050565b60006020820190508181036000830152620025568162002514565b9050919050565b60006200256a8262001e5b565b9150620025778362001e5b565b9250828203905081811115620025925762002591620020c5565b5b92915050565b6000620025a58262001e5b565b9150620025b28362001e5b565b9250828201905080821115620025cd57620025cc620020c5565b5b92915050565b7f4552433732315061757361626c653a20746f6b656e207472616e73666572207760008201527f68696c6520706175736564000000000000000000000000000000000000000000602082015250565b600062002631602b83620021db565b91506200263e82620025d3565b604082019050919050565b60006020820190508181036000830152620026648162002622565b9050919050565b7f436865636b706f696e743a20696e76616c6964206b6579000000000000000000600082015250565b6000620026a3601783620021db565b9150620026b0826200266b565b602082019050919050565b60006020820190508181036000830152620026d68162002694565b9050919050565b7f53616665436173743a2076616c756520646f65736e27742066697420696e203360008201527f3220626974730000000000000000000000000000000000000000000000000000602082015250565b60006200273b602683620021db565b91506200274882620026dd565b604082019050919050565b600060208201905081810360008301526200276e816200272c565b9050919050565b7f53616665436173743a2076616c756520646f65736e27742066697420696e203260008201527f3234206269747300000000000000000000000000000000000000000000000000602082015250565b6000620027d3602783620021db565b9150620027e08262002775565b604082019050919050565b600060208201905081810360008301526200280681620027c4565b9050919050565b60805160a05160c05160e0516101005161012051615a8d6200285d6000396000611a2201526000611a6401526000611a4301526000611978015260006119ce015260006119f70152615a8d6000f3fe608060405234801561001057600080fd5b50600436106101cf5760003560e01c80635c975abb1161010457806395d89b41116100a2578063b88d4fde11610071578063b88d4fde1461053c578063c3cda52014610558578063c87b56dd14610574578063e985e9c5146105a4576101cf565b806395d89b41146104b65780639ab24eb0146104d4578063a144819414610504578063a22cb46514610520576101cf565b806370a08231116100de57806370a082311461041c5780637ecebe001461044c5780638456cb591461047c5780638e539e8c14610486576101cf565b80635c975abb146103b25780635e391453146103d05780636352211e146103ec576101cf565b80633f4ba83a1161017157806342966c681161014b57806342966c681461031a5780634f558e7914610336578063587cde1e146103665780635c19a95c14610396576101cf565b80633f4ba83a146102d857806340c10f19146102e257806342842e0e146102fe576101cf565b8063095ea7b3116101ad578063095ea7b31461025257806323b872dd1461026e5780633644e5151461028a5780633a46b1a8146102a8576101cf565b806301ffc9a7146101d457806306fdde0314610204578063081812fc14610222575b600080fd5b6101ee60048036038101906101e99190613ffd565b6105d4565b6040516101fb9190614045565b60405180910390f35b61020c6106b6565b60405161021991906140f0565b60405180910390f35b61023c60048036038101906102379190614148565b610748565b60405161024991906141b6565b60405180910390f35b61026c600480360381019061026791906141fd565b61078e565b005b6102886004803603810190610283919061423d565b6108a5565b005b610292610905565b60405161029f91906142a9565b60405180910390f35b6102c260048036038101906102bd91906141fd565b610914565b6040516102cf91906142d3565b60405180910390f35b6102e061096f565b005b6102fc60048036038101906102f791906141fd565b610979565b005b6103186004803603810190610313919061423d565b610987565b005b610334600480360381019061032f9190614148565b6109a7565b005b610350600480360381019061034b9190614148565b610a03565b60405161035d9190614045565b60405180910390f35b610380600480360381019061037b91906142ee565b610a15565b60405161038d91906141b6565b60405180910390f35b6103b060048036038101906103ab91906142ee565b610a7e565b005b6103ba610a98565b6040516103c79190614045565b60405180910390f35b6103ea60048036038101906103e5919061435f565b610aaf565b005b61040660048036038101906104019190614148565b610abe565b60405161041391906141b6565b60405180910390f35b610436600480360381019061043191906142ee565b610b44565b60405161044391906142d3565b60405180910390f35b610466600480360381019061046191906142ee565b610bfb565b60405161047391906142d3565b60405180910390f35b610484610c4b565b005b6104a0600480360381019061049b9190614148565b610c55565b6040516104ad91906142d3565b60405180910390f35b6104be610cb4565b6040516104cb91906140f0565b60405180910390f35b6104ee60048036038101906104e991906142ee565b610d46565b6040516104fb91906142d3565b60405180910390f35b61051e600480360381019061051991906141fd565b610db4565b005b61053a600480360381019061053591906143cb565b610dc2565b005b61055660048036038101906105519190614540565b610dd8565b005b610572600480360381019061056d9190614628565b610e3a565b005b61058e60048036038101906105899190614148565b610f3e565b60405161059b91906140f0565b60405180910390f35b6105be60048036038101906105b991906146b5565b610fa6565b6040516105cb9190614045565b60405180910390f35b60007f80ac58cd000000000000000000000000000000000000000000000000000000007bffffffffffffffffffffffffffffffffffffffffffffffffffffffff1916827bffffffffffffffffffffffffffffffffffffffffffffffffffffffff1916148061069f57507f5b5e139f000000000000000000000000000000000000000000000000000000007bffffffffffffffffffffffffffffffffffffffffffffffffffffffff1916827bffffffffffffffffffffffffffffffffffffffffffffffffffffffff1916145b806106af57506106ae82611474565b5b9050919050565b6060600080546106c590614724565b80601f01602080910402602001604051908101604052809291908181526020018280546106f190614724565b801561073e5780601f106107135761010080835404028352916020019161073e565b820191906000526020600020905b81548152906001019060200180831161072157829003601f168201915b5050505050905090565b6000610753826114de565b6004600083815260200190815260200160002060009054906101000a900473ffffffffffffffffffffffffffffffffffffffff169050919050565b600061079982610abe565b90508073ffffffffffffffffffffffffffffffffffffffff168373ffffffffffffffffffffffffffffffffffffffff1603610809576040517f08c379a0000000000000000000000000000000000000000000000000000000008152600401610800906147c7565b60405180910390fd5b8073ffffffffffffffffffffffffffffffffffffffff16610828611529565b73ffffffffffffffffffffffffffffffffffffffff161480610857575061085681610851611529565b610fa6565b5b610896576040517f08c379a000000000000000000000000000000000000000000000000000000000815260040161088d90614859565b60405180910390fd5b6108a08383611531565b505050565b6108b66108b0611529565b826115ea565b6108f5576040517f08c379a00000000000000000000000000000000000000000000000000000000081526004016108ec906148eb565b60405180910390fd5b61090083838361167f565b505050565b600061090f611974565b905090565b600061096782600a60008673ffffffffffffffffffffffffffffffffffffffff1673ffffffffffffffffffffffffffffffffffffffff168152602001908152602001600020611a8e90919063ffffffff16565b905092915050565b610977611bf3565b565b6109838282611c56565b5050565b6109a283838360405180602001604052806000815250610dd8565b505050565b6109b86109b2611529565b826115ea565b6109f7576040517f08c379a00000000000000000000000000000000000000000000000000000000081526004016109ee906148eb565b60405180910390fd5b610a0081611c64565b50565b6000610a0e82611dae565b9050919050565b6000600960008373ffffffffffffffffffffffffffffffffffffffff1673ffffffffffffffffffffffffffffffffffffffff16815260200190815260200160002060009054906101000a900473ffffffffffffffffffffffffffffffffffffffff169050919050565b6000610a88611529565b9050610a948183611def565b5050565b6000600860009054906101000a900460ff16905090565b610ab98282611f03565b505050565b600080610aca83612130565b9050600073ffffffffffffffffffffffffffffffffffffffff168173ffffffffffffffffffffffffffffffffffffffff1603610b3b576040517f08c379a0000000000000000000000000000000000000000000000000000000008152600401610b3290614957565b60405180910390fd5b80915050919050565b60008073ffffffffffffffffffffffffffffffffffffffff168273ffffffffffffffffffffffffffffffffffffffff1603610bb4576040517f08c379a0000000000000000000000000000000000000000000000000000000008152600401610bab906149e9565b60405180910390fd5b600360008373ffffffffffffffffffffffffffffffffffffffff1673ffffffffffffffffffffffffffffffffffffffff168152602001908152602001600020549050919050565b6000610c44600c60008473ffffffffffffffffffffffffffffffffffffffff1673ffffffffffffffffffffffffffffffffffffffff168152602001908152602001600020612142565b9050919050565b610c53612150565b565b6000438210610c99576040517f08c379a0000000000000000000000000000000000000000000000000000000008152600401610c9090614a55565b60405180910390fd5b610cad82600b611a8e90919063ffffffff16565b9050919050565b606060018054610cc390614724565b80601f0160208091040260200160405190810160405280929190818152602001828054610cef90614724565b8015610d3c5780601f10610d1157610100808354040283529160200191610d3c565b820191906000526020600020905b815481529060010190602001808311610d1f57829003601f168201915b5050505050905090565b6000610d8f600a60008473ffffffffffffffffffffffffffffffffffffffff1673ffffffffffffffffffffffffffffffffffffffff1681526020019081526020016000206121b3565b7bffffffffffffffffffffffffffffffffffffffffffffffffffffffff169050919050565b610dbe828261221d565b5050565b610dd4610dcd611529565b838361223b565b5050565b610de9610de3611529565b836115ea565b610e28576040517f08c379a0000000000000000000000000000000000000000000000000000000008152600401610e1f906148eb565b60405180910390fd5b610e34848484846123a7565b50505050565b83421115610e7d576040517f08c379a0000000000000000000000000000000000000000000000000000000008152600401610e7490614ac1565b60405180910390fd5b6000610edf610ed77fe48329057bfd03d55e49b547132e39cffd9c1820ad7b9d4c5307691425d15adf898989604051602001610ebc9493929190614ae1565b60405160208183030381529060405280519060200120612403565b85858561241d565b9050610eea81612448565b8614610f2b576040517f08c379a0000000000000000000000000000000000000000000000000000000008152600401610f2290614b72565b60405180910390fd5b610f358188611def565b50505050505050565b6060610f49826114de565b6000610f536124a6565b90506000815111610f735760405180602001604052806000815250610f9e565b80610f7d846124bd565b604051602001610f8e929190614bce565b6040516020818303038152906040525b915050919050565b6000600560008473ffffffffffffffffffffffffffffffffffffffff1673ffffffffffffffffffffffffffffffffffffffff16815260200190815260200160002060008373ffffffffffffffffffffffffffffffffffffffff1673ffffffffffffffffffffffffffffffffffffffff16815260200190815260200160002060009054906101000a900460ff16905092915050565b6000808273ffffffffffffffffffffffffffffffffffffffff163b119050919050565b60008061106e85600001858561258b565b91509150935093915050565b600081836110889190614c21565b905092915050565b6000806110d0856110cb6110a3886121b3565b7bffffffffffffffffffffffffffffffffffffffffffffffffffffffff16868863ffffffff16565b612921565b91509150935093915050565b600081836110ea9190614c55565b905092915050565b600080600080846000018054905090506000810361111b576000806000935093509350506111ec565b6000611136866000016001846111319190614c21565b61298f565b6040518060400160405290816000820160009054906101000a90046bffffffffffffffffffffffff166bffffffffffffffffffffffff166bffffffffffffffffffffffff16815260200160008201600c9054906101000a900473ffffffffffffffffffffffffffffffffffffffff1673ffffffffffffffffffffffffffffffffffffffff1673ffffffffffffffffffffffffffffffffffffffff1681525050905060018160000151826020015194509450945050505b9193909250565b6111ff84848484611278565b611207610a98565b15611247576040517f08c379a000000000000000000000000000000000000000000000000000000000815260040161123e90614cfb565b60405180910390fd5b50505050565b6112668484836bffffffffffffffffffffffff166129a4565b611272848484846113b0565b50505050565b600073ffffffffffffffffffffffffffffffffffffffff168473ffffffffffffffffffffffffffffffffffffffff161461131157806bffffffffffffffffffffffff16600360008673ffffffffffffffffffffffffffffffffffffffff1673ffffffffffffffffffffffffffffffffffffffff16815260200190815260200160002060008282546113099190614c21565b925050819055505b600073ffffffffffffffffffffffffffffffffffffffff168373ffffffffffffffffffffffffffffffffffffffff16146113aa57806bffffffffffffffffffffffff16600360008573ffffffffffffffffffffffffffffffffffffffff1673ffffffffffffffffffffffffffffffffffffffff16815260200190815260200160002060008282546113a29190614c55565b925050819055505b50505050565b50505050565b600063ffffffff8016821115611401576040517f08c379a00000000000000000000000000000000000000000000000000000000081526004016113f890614d8d565b60405180910390fd5b819050919050565b60007bffffffffffffffffffffffffffffffffffffffffffffffffffffffff801682111561146c576040517f08c379a000000000000000000000000000000000000000000000000000000000815260040161146390614e1f565b60405180910390fd5b819050919050565b60007f01ffc9a7000000000000000000000000000000000000000000000000000000007bffffffffffffffffffffffffffffffffffffffffffffffffffffffff1916827bffffffffffffffffffffffffffffffffffffffffffffffffffffffff1916149050919050565b6114e781611dae565b611526576040517f08c379a000000000000000000000000000000000000000000000000000000000815260040161151d90614957565b60405180910390fd5b50565b600033905090565b816004600083815260200190815260200160002060006101000a81548173ffffffffffffffffffffffffffffffffffffffff021916908373ffffffffffffffffffffffffffffffffffffffff160217905550808273ffffffffffffffffffffffffffffffffffffffff166115a483610abe565b73ffffffffffffffffffffffffffffffffffffffff167f8c5be1e5ebec7d5bd14f71427d1e84f3dd0314c0f7b2291e5b200ac8c7c3b92560405160405180910390a45050565b6000806115f683610abe565b90508073ffffffffffffffffffffffffffffffffffffffff168473ffffffffffffffffffffffffffffffffffffffff16148061163857506116378185610fa6565b5b8061167657508373ffffffffffffffffffffffffffffffffffffffff1661165e84610748565b73ffffffffffffffffffffffffffffffffffffffff16145b91505092915050565b8273ffffffffffffffffffffffffffffffffffffffff1661169f82610abe565b73ffffffffffffffffffffffffffffffffffffffff16146116f5576040517f08c379a00000000000000000000000000000000000000000000000000000000081526004016116ec90614eb1565b60405180910390fd5b600073ffffffffffffffffffffffffffffffffffffffff168273ffffffffffffffffffffffffffffffffffffffff1603611764576040517f08c379a000000000000000000000000000000000000000000000000000000000815260040161175b90614f43565b60405180910390fd5b61176f838383612a62565b8273ffffffffffffffffffffffffffffffffffffffff1661178f82610abe565b73ffffffffffffffffffffffffffffffffffffffff16146117e5576040517f08c379a00000000000000000000000000000000000000000000000000000000081526004016117dc90614eb1565b60405180910390fd5b6004600082815260200190815260200160002060006101000a81549073ffffffffffffffffffffffffffffffffffffffff02191690556001600360008573ffffffffffffffffffffffffffffffffffffffff1673ffffffffffffffffffffffffffffffffffffffff168152602001908152602001600020600082825403925050819055506001600360008473ffffffffffffffffffffffffffffffffffffffff1673ffffffffffffffffffffffffffffffffffffffff16815260200190815260200160002060008282540192505081905550816002600083815260200190815260200160002060006101000a81548173ffffffffffffffffffffffffffffffffffffffff021916908373ffffffffffffffffffffffffffffffffffffffff160217905550808273ffffffffffffffffffffffffffffffffffffffff168473ffffffffffffffffffffffffffffffffffffffff167fddf252ad1be2c89b69c2b068fc378daa952ba7f163c4a11628f55a4df523b3ef60405160405180910390a461196f838383612a72565b505050565b60007f000000000000000000000000000000000000000000000000000000000000000073ffffffffffffffffffffffffffffffffffffffff163073ffffffffffffffffffffffffffffffffffffffff161480156119f057507f000000000000000000000000000000000000000000000000000000000000000046145b15611a1d577f00000000000000000000000000000000000000000000000000000000000000009050611a8b565b611a887f00000000000000000000000000000000000000000000000000000000000000007f00000000000000000000000000000000000000000000000000000000000000007f0000000000000000000000000000000000000000000000000000000000000000612a82565b90505b90565b6000438210611ad2576040517f08c379a0000000000000000000000000000000000000000000000000000000008152600401611ac990614faf565b60405180910390fd5b6000611add836113b6565b90506000846000018054905090506000808290506005831115611b60576000611b0584612abc565b84611b109190614c21565b9050611b1f8860000182612bb5565b60000160009054906101000a900463ffffffff1663ffffffff168563ffffffff161015611b4e57809150611b5e565b600181611b5b9190614c55565b92505b505b6000611b7188600001868585612bca565b905060008114611bc557611b9488600001600183611b8f9190614c21565b612bb5565b60000160049054906101000a90047bffffffffffffffffffffffffffffffffffffffffffffffffffffffff16611bc8565b60005b7bffffffffffffffffffffffffffffffffffffffffffffffffffffffff169550505050505092915050565b611bfb612c3d565b6000600860006101000a81548160ff0219169083151502179055507f5db9ee0a495bf2e6ff9c91a7834c1ba4fdd244a5e8aa4e537bd38aeae4b073aa611c3f611529565b604051611c4c91906141b6565b60405180910390a1565b611c608282612c86565b5050565b6000611c6f82610abe565b9050611c7d81600084612a62565b611c8682610abe565b90506004600083815260200190815260200160002060006101000a81549073ffffffffffffffffffffffffffffffffffffffff02191690556001600360008373ffffffffffffffffffffffffffffffffffffffff1673ffffffffffffffffffffffffffffffffffffffff168152602001908152602001600020600082825403925050819055506002600083815260200190815260200160002060006101000a81549073ffffffffffffffffffffffffffffffffffffffff021916905581600073ffffffffffffffffffffffffffffffffffffffff168273ffffffffffffffffffffffffffffffffffffffff167fddf252ad1be2c89b69c2b068fc378daa952ba7f163c4a11628f55a4df523b3ef60405160405180910390a4611daa81600084612a72565b5050565b60008073ffffffffffffffffffffffffffffffffffffffff16611dd083612130565b73ffffffffffffffffffffffffffffffffffffffff1614159050919050565b6000611dfa83610a15565b905081600960008573ffffffffffffffffffffffffffffffffffffffff1673ffffffffffffffffffffffffffffffffffffffff16815260200190815260200160002060006101000a81548173ffffffffffffffffffffffffffffffffffffffff021916908373ffffffffffffffffffffffffffffffffffffffff1602179055508173ffffffffffffffffffffffffffffffffffffffff168173ffffffffffffffffffffffffffffffffffffffff168473ffffffffffffffffffffffffffffffffffffffff167f3134e8a2e6d97e929a7e54011ea5485d7d196dd5f0ba4d4ef95803e8e3fc257f60405160405180910390a4611efe8183611ef986612cdc565b612cee565b505050565b600080611f0e612efb565b90506000836bffffffffffffffffffffffff16111561212657611f303061103a565b15611f70576040517f08c379a0000000000000000000000000000000000000000000000000000000008152600401611f6790615041565b60405180910390fd5b600073ffffffffffffffffffffffffffffffffffffffff168473ffffffffffffffffffffffffffffffffffffffff1603611fdf576040517f08c379a0000000000000000000000000000000000000000000000000000000008152600401611fd6906150d3565b60405180910390fd5b611fe7612f30565b6bffffffffffffffffffffffff16836bffffffffffffffffffffffff161115612045576040517f08c379a000000000000000000000000000000000000000000000000000000000815260040161203c90615165565b60405180910390fd5b612060600085836bffffffffffffffffffffffff1686612f3a565b6000600184836120709190615185565b61207a91906151c5565b90506120928186600661105d9092919063ffffffff16565b50508473ffffffffffffffffffffffffffffffffffffffff16600073ffffffffffffffffffffffffffffffffffffffff16836bffffffffffffffffffffffff167fdeaa91b6123d068f5821d0fb0678463d1a8a6079fe8af5de3ce5e896dcf9133d846040516121019190615240565b60405180910390a4612124600086846bffffffffffffffffffffffff1687612f4c565b505b8091505092915050565b600061213b82612f5e565b9050919050565b600081600001549050919050565b612158613000565b6001600860006101000a81548160ff0219169083151502179055507f62e78cea01bee320cd4e420270b5ea74000d11b0c9f74754ebdbfc544b05a25861219c611529565b6040516121a991906141b6565b60405180910390a1565b6000808260000180549050905060008114612212576121e1836000016001836121dc9190614c21565b612bb5565b60000160049054906101000a90047bffffffffffffffffffffffffffffffffffffffffffffffffffffffff16612215565b60005b915050919050565b61223782826040518060200160405280600081525061304a565b5050565b8173ffffffffffffffffffffffffffffffffffffffff168373ffffffffffffffffffffffffffffffffffffffff16036122a9576040517f08c379a00000000000000000000000000000000000000000000000000000000081526004016122a0906152a7565b60405180910390fd5b80600560008573ffffffffffffffffffffffffffffffffffffffff1673ffffffffffffffffffffffffffffffffffffffff16815260200190815260200160002060008473ffffffffffffffffffffffffffffffffffffffff1673ffffffffffffffffffffffffffffffffffffffff16815260200190815260200160002060006101000a81548160ff0219169083151502179055508173ffffffffffffffffffffffffffffffffffffffff168373ffffffffffffffffffffffffffffffffffffffff167f17307eab39ab6107e8899845ad3d59bd9653f200f220920489ca2b5937696c318360405161239a9190614045565b60405180910390a3505050565b6123b284848461167f565b6123be848484846130a5565b6123fd576040517f08c379a00000000000000000000000000000000000000000000000000000000081526004016123f490615339565b60405180910390fd5b50505050565b6000612416612410611974565b8361322c565b9050919050565b600080600061242e8787878761325f565b9150915061243b81613341565b8192505050949350505050565b600080600c60008473ffffffffffffffffffffffffffffffffffffffff1673ffffffffffffffffffffffffffffffffffffffff168152602001908152602001600020905061249581612142565b91506124a0816134a7565b50919050565b606060405180602001604052806000815250905090565b6060600060016124cc846134bd565b01905060008167ffffffffffffffff8111156124eb576124ea614415565b5b6040519080825280601f01601f19166020018201604052801561251d5781602001600182028036833780820191505090505b509050600082602001820190505b600115612580578080600190039150507f3031323334353637383961626364656600000000000000000000000000000000600a86061a8153600a858161257457612573615359565b5b0494506000850361252b575b819350505050919050565b60008060008580549050905060008111156128315760006125b8876001846125b39190614c21565b61298f565b6040518060400160405290816000820160009054906101000a90046bffffffffffffffffffffffff166bffffffffffffffffffffffff166bffffffffffffffffffffffff16815260200160008201600c9054906101000a900473ffffffffffffffffffffffffffffffffffffffff1673ffffffffffffffffffffffffffffffffffffffff1673ffffffffffffffffffffffffffffffffffffffff16815250509050856bffffffffffffffffffffffff1681600001516bffffffffffffffffffffffff1611156126bc576040517f08c379a00000000000000000000000000000000000000000000000000000000081526004016126b3906153d4565b60405180910390fd5b856bffffffffffffffffffffffff1681600001516bffffffffffffffffffffffff160361274057846126fa886001856126f59190614c21565b61298f565b600001600c6101000a81548173ffffffffffffffffffffffffffffffffffffffff021916908373ffffffffffffffffffffffffffffffffffffffff160217905550612820565b866040518060400160405280886bffffffffffffffffffffffff1681526020018773ffffffffffffffffffffffffffffffffffffffff168152509080600181540180825580915050600190039060005260206000200160009091909190915060008201518160000160006101000a8154816bffffffffffffffffffffffff02191690836bffffffffffffffffffffffff160217905550602082015181600001600c6101000a81548173ffffffffffffffffffffffffffffffffffffffff021916908373ffffffffffffffffffffffffffffffffffffffff16021790555050505b806020015185935093505050612919565b856040518060400160405280876bffffffffffffffffffffffff1681526020018673ffffffffffffffffffffffffffffffffffffffff168152509080600181540180825580915050600190039060005260206000200160009091909190915060008201518160000160006101000a8154816bffffffffffffffffffffffff02191690836bffffffffffffffffffffffff160217905550602082015181600001600c6101000a81548173ffffffffffffffffffffffffffffffffffffffff021916908373ffffffffffffffffffffffffffffffffffffffff160217905550505060008492509250505b935093915050565b60008061294284600001612934436113b6565b61293d86611409565b613610565b817bffffffffffffffffffffffffffffffffffffffffffffffffffffffff169150807bffffffffffffffffffffffffffffffffffffffffffffffffffffffff169050915091509250929050565b60008260005281602060002001905092915050565b600073ffffffffffffffffffffffffffffffffffffffff168373ffffffffffffffffffffffffffffffffffffffff16036129f3576129f06110dc82600b6110909092919063ffffffff16565b50505b600073ffffffffffffffffffffffffffffffffffffffff168273ffffffffffffffffffffffffffffffffffffffff1603612a4257612a3f61107a82600b6110909092919063ffffffff16565b50505b612a5d612a4e84610a15565b612a5784610a15565b83612cee565b505050565b612a6d838383613996565b505050565b612a7d8383836139ee565b505050565b60008383834630604051602001612a9d9594939291906153f4565b6040516020818303038152906040528051906020012090509392505050565b6000808203612ace5760009050612bb0565b60006001612adb84613a0a565b901c6001901b90506001818481612af557612af4615359565b5b048201901c90506001818481612b0e57612b0d615359565b5b048201901c90506001818481612b2757612b26615359565b5b048201901c90506001818481612b4057612b3f615359565b5b048201901c90506001818481612b5957612b58615359565b5b048201901c90506001818481612b7257612b71615359565b5b048201901c90506001818481612b8b57612b8a615359565b5b048201901c9050612bac81828581612ba657612ba5615359565b5b04613aeb565b9150505b919050565b60008260005281602060002001905092915050565b60005b81831015612c32576000612be18484613b04565b90508463ffffffff16612bf48783612bb5565b60000160009054906101000a900463ffffffff1663ffffffff161115612c1c57809250612c2c565b600181612c299190614c55565b93505b50612bcd565b819050949350505050565b612c45610a98565b612c84576040517f08c379a0000000000000000000000000000000000000000000000000000000008152600401612c7b90615493565b60405180910390fd5b565b612c8f3061103a565b612cce576040517f08c379a0000000000000000000000000000000000000000000000000000000008152600401612cc590615525565b60405180910390fd5b612cd88282613b2a565b5050565b6000612ce782610b44565b9050919050565b8173ffffffffffffffffffffffffffffffffffffffff168373ffffffffffffffffffffffffffffffffffffffff1614158015612d2a5750600081115b15612ef657600073ffffffffffffffffffffffffffffffffffffffff168373ffffffffffffffffffffffffffffffffffffffff1614612e1257600080612dbb61107a84600a60008973ffffffffffffffffffffffffffffffffffffffff1673ffffffffffffffffffffffffffffffffffffffff1681526020019081526020016000206110909092919063ffffffff16565b915091508473ffffffffffffffffffffffffffffffffffffffff167fdec2bacdd2f05b59de34da9b523dff8be42e5e38e818c82fdb0bae774387a7248383604051612e07929190615545565b60405180910390a250505b600073ffffffffffffffffffffffffffffffffffffffff168273ffffffffffffffffffffffffffffffffffffffff1614612ef557600080612e9e6110dc84600a60008873ffffffffffffffffffffffffffffffffffffffff1673ffffffffffffffffffffffffffffffffffffffff1681526020019081526020016000206110909092919063ffffffff16565b915091508373ffffffffffffffffffffffffffffffffffffffff167fdec2bacdd2f05b59de34da9b523dff8be42e5e38e818c82fdb0bae774387a7248383604051612eea929190615545565b60405180910390a250505b5b505050565b6000806000612f0a60066110f2565b509150915081612f1b576000612f29565b600181612f289190615185565b5b9250505090565b6000611388905090565b612f46848484846111f3565b50505050565b612f588484848461124d565b50505050565b600080612f6a83613d43565b9050600073ffffffffffffffffffffffffffffffffffffffff168173ffffffffffffffffffffffffffffffffffffffff16141580612fb557506bffffffffffffffffffffffff801683115b15612fc35780915050612ffb565b612fd7836007613d8090919063ffffffff16565b612ff457612fef836006613dbc90919063ffffffff16565b612ff7565b60005b9150505b919050565b613008610a98565b15613048576040517f08c379a000000000000000000000000000000000000000000000000000000000815260040161303f906155ba565b60405180910390fd5b565b6130548383611c56565b61306160008484846130a5565b6130a0576040517f08c379a000000000000000000000000000000000000000000000000000000000815260040161309790615339565b60405180910390fd5b505050565b60006130c68473ffffffffffffffffffffffffffffffffffffffff1661103a565b1561321f578373ffffffffffffffffffffffffffffffffffffffff1663150b7a026130ef611529565b8786866040518563ffffffff1660e01b8152600401613111949392919061562f565b6020604051808303816000875af192505050801561314d57506040513d601f19601f8201168201806040525081019061314a9190615690565b60015b6131cf573d806000811461317d576040519150601f19603f3d011682016040523d82523d6000602084013e613182565b606091505b5060008151036131c7576040517f08c379a00000000000000000000000000000000000000000000000000000000081526004016131be90615339565b60405180910390fd5b805181602001fd5b63150b7a0260e01b7bffffffffffffffffffffffffffffffffffffffffffffffffffffffff1916817bffffffffffffffffffffffffffffffffffffffffffffffffffffffff191614915050613224565b600190505b949350505050565b6000828260405160200161324192919061572a565b60405160208183030381529060405280519060200120905092915050565b6000807f7fffffffffffffffffffffffffffffff5d576e7357a4501ddfe92f46681b20a08360001c111561329a576000600391509150613338565b6000600187878787604051600081526020016040526040516132bf9493929190615770565b6020604051602081039080840390855afa1580156132e1573d6000803e3d6000fd5b505050602060405103519050600073ffffffffffffffffffffffffffffffffffffffff168173ffffffffffffffffffffffffffffffffffffffff160361332f57600060019250925050613338565b80600092509250505b94509492505050565b60006004811115613355576133546157b5565b5b816004811115613368576133676157b5565b5b03156134a45760016004811115613382576133816157b5565b5b816004811115613395576133946157b5565b5b036133d5576040517f08c379a00000000000000000000000000000000000000000000000000000000081526004016133cc90615830565b60405180910390fd5b600260048111156133e9576133e86157b5565b5b8160048111156133fc576133fb6157b5565b5b0361343c576040517f08c379a00000000000000000000000000000000000000000000000000000000081526004016134339061589c565b60405180910390fd5b600360048111156134505761344f6157b5565b5b816004811115613463576134626157b5565b5b036134a3576040517f08c379a000000000000000000000000000000000000000000000000000000000815260040161349a9061592e565b60405180910390fd5b5b50565b6001816000016000828254019250508190555050565b600080600090507a184f03e93ff9f4daa797ed6e38ed64bf6a1f010000000000000000831061351b577a184f03e93ff9f4daa797ed6e38ed64bf6a1f010000000000000000838161351157613510615359565b5b0492506040810190505b6d04ee2d6d415b85acef81000000008310613558576d04ee2d6d415b85acef8100000000838161354e5761354d615359565b5b0492506020810190505b662386f26fc10000831061358757662386f26fc10000838161357d5761357c615359565b5b0492506010810190505b6305f5e10083106135b0576305f5e10083816135a6576135a5615359565b5b0492506008810190505b61271083106135d55761271083816135cb576135ca615359565b5b0492506004810190505b606483106135f857606483816135ee576135ed615359565b5b0492506002810190505b600a8310613607576001810190505b80915050919050565b60008060008580549050905060008111156138a657600061363d876001846136389190614c21565b612bb5565b6040518060400160405290816000820160009054906101000a900463ffffffff1663ffffffff1663ffffffff1681526020016000820160049054906101000a90047bffffffffffffffffffffffffffffffffffffffffffffffffffffffff167bffffffffffffffffffffffffffffffffffffffffffffffffffffffff167bffffffffffffffffffffffffffffffffffffffffffffffffffffffff168152505090508563ffffffff16816000015163ffffffff161115613731576040517f08c379a0000000000000000000000000000000000000000000000000000000008152600401613728906153d4565b60405180910390fd5b8563ffffffff16816000015163ffffffff16036137b5578461375f8860018561375a9190614c21565b612bb5565b60000160046101000a8154817bffffffffffffffffffffffffffffffffffffffffffffffffffffffff02191690837bffffffffffffffffffffffffffffffffffffffffffffffffffffffff160217905550613895565b8660405180604001604052808863ffffffff168152602001877bffffffffffffffffffffffffffffffffffffffffffffffffffffffff168152509080600181540180825580915050600190039060005260206000200160009091909190915060008201518160000160006101000a81548163ffffffff021916908363ffffffff16021790555060208201518160000160046101000a8154817bffffffffffffffffffffffffffffffffffffffffffffffffffffffff02191690837bffffffffffffffffffffffffffffffffffffffffffffffffffffffff16021790555050505b80602001518593509350505061398e565b8560405180604001604052808763ffffffff168152602001867bffffffffffffffffffffffffffffffffffffffffffffffffffffffff168152509080600181540180825580915050600190039060005260206000200160009091909190915060008201518160000160006101000a81548163ffffffff021916908363ffffffff16021790555060208201518160000160046101000a8154817bffffffffffffffffffffffffffffffffffffffffffffffffffffffff02191690837bffffffffffffffffffffffffffffffffffffffffffffffffffffffff160217905550505060008492509250505b935093915050565b6139a1838383613e27565b6139a9610a98565b156139e9576040517f08c379a00000000000000000000000000000000000000000000000000000000081526004016139e090614cfb565b60405180910390fd5b505050565b6139fa838360016129a4565b613a05838383613e2c565b505050565b600080600090506000608084901c1115613a2c57608083901c92506080810190505b6000604084901c1115613a4757604083901c92506040810190505b6000602084901c1115613a6257602083901c92506020810190505b6000601084901c1115613a7d57601083901c92506010810190505b6000600884901c1115613a9857600883901c92506008810190505b6000600484901c1115613ab357600483901c92506004810190505b6000600284901c1115613ace57600283901c92506002810190505b6000600184901c1115613ae2576001810190505b80915050919050565b6000818310613afa5781613afc565b825b905092915050565b60006002828418613b15919061594e565b828416613b229190614c55565b905092915050565b600073ffffffffffffffffffffffffffffffffffffffff168273ffffffffffffffffffffffffffffffffffffffff1603613b99576040517f08c379a0000000000000000000000000000000000000000000000000000000008152600401613b90906159cb565b60405180910390fd5b613ba281611dae565b15613be2576040517f08c379a0000000000000000000000000000000000000000000000000000000008152600401613bd990615a37565b60405180910390fd5b613bee60008383612a62565b613bf781611dae565b15613c37576040517f08c379a0000000000000000000000000000000000000000000000000000000008152600401613c2e90615a37565b60405180910390fd5b6001600360008473ffffffffffffffffffffffffffffffffffffffff1673ffffffffffffffffffffffffffffffffffffffff16815260200190815260200160002060008282540192505081905550816002600083815260200190815260200160002060006101000a81548173ffffffffffffffffffffffffffffffffffffffff021916908373ffffffffffffffffffffffffffffffffffffffff160217905550808273ffffffffffffffffffffffffffffffffffffffff16600073ffffffffffffffffffffffffffffffffffffffff167fddf252ad1be2c89b69c2b068fc378daa952ba7f163c4a11628f55a4df523b3ef60405160405180910390a4613d3f60008383612a72565b5050565b60006002600083815260200190815260200160002060009054906101000a900473ffffffffffffffffffffffffffffffffffffffff169050919050565b600080600883901c9050600060ff84166001901b9050600081866000016000858152602001908152602001600020541614159250505092915050565b600080836000018054905090506000613ddb8560000185600085613ec3565b9050818114613e1a57613df1856000018261298f565b600001600c9054906101000a900473ffffffffffffffffffffffffffffffffffffffff16613e1d565b60005b9250505092915050565b505050565b600073ffffffffffffffffffffffffffffffffffffffff168273ffffffffffffffffffffffffffffffffffffffff16148015613e7c5750613e6b612efb565b6bffffffffffffffffffffffff1681105b8015613e995750613e97816007613d8090919063ffffffff16565b155b15613eb357613eb2816007613f4e90919063ffffffff16565b5b613ebe838383613f8c565b505050565b60005b81831015613f43576000613eda8484613b04565b9050846bffffffffffffffffffffffff16613ef5878361298f565b60000160009054906101000a90046bffffffffffffffffffffffff166bffffffffffffffffffffffff161015613f3957600181613f329190614c55565b9350613f3d565b8092505b50613ec6565b819050949350505050565b6000600882901c9050600060ff83166001901b9050808460000160008481526020019081526020016000206000828254179250508190555050505050565b505050565b6000604051905090565b600080fd5b600080fd5b60007fffffffff0000000000000000000000000000000000000000000000000000000082169050919050565b613fda81613fa5565b8114613fe557600080fd5b50565b600081359050613ff781613fd1565b92915050565b60006020828403121561401357614012613f9b565b5b600061402184828501613fe8565b91505092915050565b60008115159050919050565b61403f8161402a565b82525050565b600060208201905061405a6000830184614036565b92915050565b600081519050919050565b600082825260208201905092915050565b60005b8381101561409a57808201518184015260208101905061407f565b60008484015250505050565b6000601f19601f8301169050919050565b60006140c282614060565b6140cc818561406b565b93506140dc81856020860161407c565b6140e5816140a6565b840191505092915050565b6000602082019050818103600083015261410a81846140b7565b905092915050565b6000819050919050565b61412581614112565b811461413057600080fd5b50565b6000813590506141428161411c565b92915050565b60006020828403121561415e5761415d613f9b565b5b600061416c84828501614133565b91505092915050565b600073ffffffffffffffffffffffffffffffffffffffff82169050919050565b60006141a082614175565b9050919050565b6141b081614195565b82525050565b60006020820190506141cb60008301846141a7565b92915050565b6141da81614195565b81146141e557600080fd5b50565b6000813590506141f7816141d1565b92915050565b6000806040838503121561421457614213613f9b565b5b6000614222858286016141e8565b925050602061423385828601614133565b9150509250929050565b60008060006060848603121561425657614255613f9b565b5b6000614264868287016141e8565b9350506020614275868287016141e8565b925050604061428686828701614133565b9150509250925092565b6000819050919050565b6142a381614290565b82525050565b60006020820190506142be600083018461429a565b92915050565b6142cd81614112565b82525050565b60006020820190506142e860008301846142c4565b92915050565b60006020828403121561430457614303613f9b565b5b6000614312848285016141e8565b91505092915050565b60006bffffffffffffffffffffffff82169050919050565b61433c8161431b565b811461434757600080fd5b50565b60008135905061435981614333565b92915050565b6000806040838503121561437657614375613f9b565b5b6000614384858286016141e8565b92505060206143958582860161434a565b9150509250929050565b6143a88161402a565b81146143b357600080fd5b50565b6000813590506143c58161439f565b92915050565b600080604083850312156143e2576143e1613f9b565b5b60006143f0858286016141e8565b9250506020614401858286016143b6565b9150509250929050565b600080fd5b600080fd5b7f4e487b7100000000000000000000000000000000000000000000000000000000600052604160045260246000fd5b61444d826140a6565b810181811067ffffffffffffffff8211171561446c5761446b614415565b5b80604052505050565b600061447f613f91565b905061448b8282614444565b919050565b600067ffffffffffffffff8211156144ab576144aa614415565b5b6144b4826140a6565b9050602081019050919050565b82818337600083830152505050565b60006144e36144de84614490565b614475565b9050828152602081018484840111156144ff576144fe614410565b5b61450a8482856144c1565b509392505050565b600082601f8301126145275761452661440b565b5b81356145378482602086016144d0565b91505092915050565b6000806000806080858703121561455a57614559613f9b565b5b6000614568878288016141e8565b9450506020614579878288016141e8565b935050604061458a87828801614133565b925050606085013567ffffffffffffffff8111156145ab576145aa613fa0565b5b6145b787828801614512565b91505092959194509250565b600060ff82169050919050565b6145d9816145c3565b81146145e457600080fd5b50565b6000813590506145f6816145d0565b92915050565b61460581614290565b811461461057600080fd5b50565b600081359050614622816145fc565b92915050565b60008060008060008060c0878903121561464557614644613f9b565b5b600061465389828a016141e8565b965050602061466489828a01614133565b955050604061467589828a01614133565b945050606061468689828a016145e7565b935050608061469789828a01614613565b92505060a06146a889828a01614613565b9150509295509295509295565b600080604083850312156146cc576146cb613f9b565b5b60006146da858286016141e8565b92505060206146eb858286016141e8565b9150509250929050565b7f4e487b7100000000000000000000000000000000000000000000000000000000600052602260045260246000fd5b6000600282049050600182168061473c57607f821691505b60208210810361474f5761474e6146f5565b5b50919050565b7f4552433732313a20617070726f76616c20746f2063757272656e74206f776e6560008201527f7200000000000000000000000000000000000000000000000000000000000000602082015250565b60006147b160218361406b565b91506147bc82614755565b604082019050919050565b600060208201905081810360008301526147e0816147a4565b9050919050565b7f4552433732313a20617070726f76652063616c6c6572206973206e6f7420746f60008201527f6b656e206f776e6572206f7220617070726f76656420666f7220616c6c000000602082015250565b6000614843603d8361406b565b915061484e826147e7565b604082019050919050565b6000602082019050818103600083015261487281614836565b9050919050565b7f4552433732313a2063616c6c6572206973206e6f7420746f6b656e206f776e6560008201527f72206f7220617070726f76656400000000000000000000000000000000000000602082015250565b60006148d5602d8361406b565b91506148e082614879565b604082019050919050565b60006020820190508181036000830152614904816148c8565b9050919050565b7f4552433732313a20696e76616c696420746f6b656e2049440000000000000000600082015250565b600061494160188361406b565b915061494c8261490b565b602082019050919050565b6000602082019050818103600083015261497081614934565b9050919050565b7f4552433732313a2061646472657373207a65726f206973206e6f74206120766160008201527f6c6964206f776e65720000000000000000000000000000000000000000000000602082015250565b60006149d360298361406b565b91506149de82614977565b604082019050919050565b60006020820190508181036000830152614a02816149c6565b9050919050565b7f566f7465733a20626c6f636b206e6f7420796574206d696e6564000000000000600082015250565b6000614a3f601a8361406b565b9150614a4a82614a09565b602082019050919050565b60006020820190508181036000830152614a6e81614a32565b9050919050565b7f566f7465733a207369676e617475726520657870697265640000000000000000600082015250565b6000614aab60188361406b565b9150614ab682614a75565b602082019050919050565b60006020820190508181036000830152614ada81614a9e565b9050919050565b6000608082019050614af6600083018761429a565b614b0360208301866141a7565b614b1060408301856142c4565b614b1d60608301846142c4565b95945050505050565b7f566f7465733a20696e76616c6964206e6f6e6365000000000000000000000000600082015250565b6000614b5c60148361406b565b9150614b6782614b26565b602082019050919050565b60006020820190508181036000830152614b8b81614b4f565b9050919050565b600081905092915050565b6000614ba882614060565b614bb28185614b92565b9350614bc281856020860161407c565b80840191505092915050565b6000614bda8285614b9d565b9150614be68284614b9d565b91508190509392505050565b7f4e487b7100000000000000000000000000000000000000000000000000000000600052601160045260246000fd5b6000614c2c82614112565b9150614c3783614112565b9250828203905081811115614c4f57614c4e614bf2565b5b92915050565b6000614c6082614112565b9150614c6b83614112565b9250828201905080821115614c8357614c82614bf2565b5b92915050565b7f4552433732315061757361626c653a20746f6b656e207472616e73666572207760008201527f68696c6520706175736564000000000000000000000000000000000000000000602082015250565b6000614ce5602b8361406b565b9150614cf082614c89565b604082019050919050565b60006020820190508181036000830152614d1481614cd8565b9050919050565b7f53616665436173743a2076616c756520646f65736e27742066697420696e203360008201527f3220626974730000000000000000000000000000000000000000000000000000602082015250565b6000614d7760268361406b565b9150614d8282614d1b565b604082019050919050565b60006020820190508181036000830152614da681614d6a565b9050919050565b7f53616665436173743a2076616c756520646f65736e27742066697420696e203260008201527f3234206269747300000000000000000000000000000000000000000000000000602082015250565b6000614e0960278361406b565b9150614e1482614dad565b604082019050919050565b60006020820190508181036000830152614e3881614dfc565b9050919050565b7f4552433732313a207472616e736665722066726f6d20696e636f72726563742060008201527f6f776e6572000000000000000000000000000000000000000000000000000000602082015250565b6000614e9b60258361406b565b9150614ea682614e3f565b604082019050919050565b60006020820190508181036000830152614eca81614e8e565b9050919050565b7f4552433732313a207472616e7366657220746f20746865207a65726f2061646460008201527f7265737300000000000000000000000000000000000000000000000000000000602082015250565b6000614f2d60248361406b565b9150614f3882614ed1565b604082019050919050565b60006020820190508181036000830152614f5c81614f20565b9050919050565b7f436865636b706f696e74733a20626c6f636b206e6f7420796574206d696e6564600082015250565b6000614f9960208361406b565b9150614fa482614f63565b602082019050919050565b60006020820190508181036000830152614fc881614f8c565b9050919050565b7f455243373231436f6e73656375746976653a206261746368206d696e74696e6760008201527f207265737472696374656420746f20636f6e7374727563746f72000000000000602082015250565b600061502b603a8361406b565b915061503682614fcf565b604082019050919050565b6000602082019050818103600083015261505a8161501e565b9050919050565b7f455243373231436f6e73656375746976653a206d696e7420746f20746865207a60008201527f65726f2061646472657373000000000000000000000000000000000000000000602082015250565b60006150bd602b8361406b565b91506150c882615061565b604082019050919050565b600060208201905081810360008301526150ec816150b0565b9050919050565b7f455243373231436f6e73656375746976653a20626174636820746f6f206c617260008201527f6765000000000000000000000000000000000000000000000000000000000000602082015250565b600061514f60228361406b565b915061515a826150f3565b604082019050919050565b6000602082019050818103600083015261517e81615142565b9050919050565b60006151908261431b565b915061519b8361431b565b925082820190506bffffffffffffffffffffffff8111156151bf576151be614bf2565b5b92915050565b60006151d08261431b565b91506151db8361431b565b925082820390506bffffffffffffffffffffffff8111156151ff576151fe614bf2565b5b92915050565b6000819050919050565b600061522a6152256152208461431b565b615205565b614112565b9050919050565b61523a8161520f565b82525050565b60006020820190506152556000830184615231565b92915050565b7f4552433732313a20617070726f766520746f2063616c6c657200000000000000600082015250565b600061529160198361406b565b915061529c8261525b565b602082019050919050565b600060208201905081810360008301526152c081615284565b9050919050565b7f4552433732313a207472616e7366657220746f206e6f6e20455243373231526560008201527f63656976657220696d706c656d656e7465720000000000000000000000000000602082015250565b600061532360328361406b565b915061532e826152c7565b604082019050919050565b6000602082019050818103600083015261535281615316565b9050919050565b7f4e487b7100000000000000000000000000000000000000000000000000000000600052601260045260246000fd5b7f436865636b706f696e743a20696e76616c6964206b6579000000000000000000600082015250565b60006153be60178361406b565b91506153c982615388565b602082019050919050565b600060208201905081810360008301526153ed816153b1565b9050919050565b600060a082019050615409600083018861429a565b615416602083018761429a565b615423604083018661429a565b61543060608301856142c4565b61543d60808301846141a7565b9695505050505050565b7f5061757361626c653a206e6f7420706175736564000000000000000000000000600082015250565b600061547d60148361406b565b915061548882615447565b602082019050919050565b600060208201905081810360008301526154ac81615470565b9050919050565b7f455243373231436f6e73656375746976653a2063616e2774206d696e7420647560008201527f72696e6720636f6e737472756374696f6e000000000000000000000000000000602082015250565b600061550f60318361406b565b915061551a826154b3565b604082019050919050565b6000602082019050818103600083015261553e81615502565b9050919050565b600060408201905061555a60008301856142c4565b61556760208301846142c4565b9392505050565b7f5061757361626c653a2070617573656400000000000000000000000000000000600082015250565b60006155a460108361406b565b91506155af8261556e565b602082019050919050565b600060208201905081810360008301526155d381615597565b9050919050565b600081519050919050565b600082825260208201905092915050565b6000615601826155da565b61560b81856155e5565b935061561b81856020860161407c565b615624816140a6565b840191505092915050565b600060808201905061564460008301876141a7565b61565160208301866141a7565b61565e60408301856142c4565b818103606083015261567081846155f6565b905095945050505050565b60008151905061568a81613fd1565b92915050565b6000602082840312156156a6576156a5613f9b565b5b60006156b48482850161567b565b91505092915050565b7f1901000000000000000000000000000000000000000000000000000000000000600082015250565b60006156f3600283614b92565b91506156fe826156bd565b600282019050919050565b6000819050919050565b61572461571f82614290565b615709565b82525050565b6000615735826156e6565b91506157418285615713565b6020820191506157518284615713565b6020820191508190509392505050565b61576a816145c3565b82525050565b6000608082019050615785600083018761429a565b6157926020830186615761565b61579f604083018561429a565b6157ac606083018461429a565b95945050505050565b7f4e487b7100000000000000000000000000000000000000000000000000000000600052602160045260246000fd5b7f45434453413a20696e76616c6964207369676e61747572650000000000000000600082015250565b600061581a60188361406b565b9150615825826157e4565b602082019050919050565b600060208201905081810360008301526158498161580d565b9050919050565b7f45434453413a20696e76616c6964207369676e6174757265206c656e67746800600082015250565b6000615886601f8361406b565b915061589182615850565b602082019050919050565b600060208201905081810360008301526158b581615879565b9050919050565b7f45434453413a20696e76616c6964207369676e6174757265202773272076616c60008201527f7565000000000000000000000000000000000000000000000000000000000000602082015250565b600061591860228361406b565b9150615923826158bc565b604082019050919050565b600060208201905081810360008301526159478161590b565b9050919050565b600061595982614112565b915061596483614112565b92508261597457615973615359565b5b828204905092915050565b7f4552433732313a206d696e7420746f20746865207a65726f2061646472657373600082015250565b60006159b560208361406b565b91506159c08261597f565b602082019050919050565b600060208201905081810360008301526159e4816159a8565b9050919050565b7f4552433732313a20746f6b656e20616c7265616479206d696e74656400000000600082015250565b6000615a21601c8361406b565b9150615a2c826159eb565b602082019050919050565b60006020820190508181036000830152615a5081615a14565b905091905056fea264697066735822122094e795f661edd59179cca80b706bbbc60ce04194c09d79b035b0332eb37172e664736f6c63430008110033",
  "linkReferences": {},
  "deployedLinkReferences": {}
}