{
  "_format": "hh-sol-artifact-1",
  "contractName": "ReentrancyMock",
  "sourceName": "contracts/mocks/ReentrancyMock.sol",
  "abi": [
    {
      "inputs": [],
      "stateMutability": "nonpayable",
      "type": "constructor"
    },
    {
      "inputs": [],
      "name": "callback",
      "outputs": [],
      "stateMutability": "nonpayable",
      "type": "function"
    },
    {
      "inputs": [
        {
          "internalType": "contract ReentrancyAttack",
          "name": "attacker",
          "type": "address"
        }
      ],
      "name": "countAndCall",
      "outputs": [],
      "stateMutability": "nonpayable",
      "type": "function"
    },
    {
      "inputs": [
        {
          "internalType": "uint256",
          "name": "n",
          "type": "uint256"
        }
      ],
      "name": "countLocalRecursive",
      "outputs": [],
      "stateMutability": "nonpayable",
      "type": "function"
    },
    {
      "inputs": [
        {
          "internalType": "uint256",
          "name": "n",
          "type": "uint256"
        }
      ],
      "name": "countThisRecursive",
      "outputs": [],
      "stateMutability": "nonpayable",
      "type": "function"
    },
    {
      "inputs": [],
      "name": "counter",
      "outputs": [
        {
          "internalType": "uint256",
          "name": "",
          "type": "uint256"
        }
      ],
      "stateMutability": "view",
      "type": "function"
    }
  ],
  "bytecode": "0x608060405234801561001057600080fd5b5060016000819055506000600181905550610781806100306000396000f3fe608060405234801561001057600080fd5b50600436106100575760003560e01c8063083b27321461005c57806361bc221a146100665780638c5344fa1461008457806396ffa690146100a0578063b672ad8b146100bc575b600080fd5b6100646100d8565b005b61006e6100f2565b60405161007b91906103d7565b60405180910390f35b61009e60048036038101906100999190610423565b6100f8565b005b6100ba60048036038101906100b59190610423565b610264565b005b6100d660048036038101906100d191906104c0565b61029e565b005b6100e061034a565b6100e8610399565b6100f06103b4565b565b60015481565b61010061034a565b600081111561025957610111610399565b60003073ffffffffffffffffffffffffffffffffffffffff16600183610137919061051c565b60405160240161014791906103d7565b6040516020818303038152906040527f8c5344fa000000000000000000000000000000000000000000000000000000007bffffffffffffffffffffffffffffffffffffffffffffffffffffffff19166020820180517bffffffffffffffffffffffffffffffffffffffffffffffffffffffff83818316178352505050506040516101d191906105c1565b6000604051808303816000865af19150503d806000811461020e576040519150601f19603f3d011682016040523d82523d6000602084013e610213565b606091505b5050905080610257576040517f08c379a000000000000000000000000000000000000000000000000000000000815260040161024e90610635565b60405180910390fd5b505b6102616103b4565b50565b61026c61034a565b60008111156102935761027d610399565b61029260018261028d919061051c565b610264565b5b61029b6103b4565b50565b6102a661034a565b6102ae610399565b60007f083b2732f78169bfaad6b407fa338cc97d697ed69d3915a18239cc111d51a40290508173ffffffffffffffffffffffffffffffffffffffff16630a2df1ed826040518263ffffffff1660e01b815260040161030c9190610690565b600060405180830381600087803b15801561032657600080fd5b505af115801561033a573d6000803e3d6000fd5b50505050506103476103b4565b50565b60026000540361038f576040517f08c379a0000000000000000000000000000000000000000000000000000000008152600401610386906106f7565b60405180910390fd5b6002600081905550565b60018060008282546103ab9190610717565b92505081905550565b6001600081905550565b6000819050919050565b6103d1816103be565b82525050565b60006020820190506103ec60008301846103c8565b92915050565b600080fd5b610400816103be565b811461040b57600080fd5b50565b60008135905061041d816103f7565b92915050565b600060208284031215610439576104386103f2565b5b60006104478482850161040e565b91505092915050565b600073ffffffffffffffffffffffffffffffffffffffff82169050919050565b600061047b82610450565b9050919050565b600061048d82610470565b9050919050565b61049d81610482565b81146104a857600080fd5b50565b6000813590506104ba81610494565b92915050565b6000602082840312156104d6576104d56103f2565b5b60006104e4848285016104ab565b91505092915050565b7f4e487b7100000000000000000000000000000000000000000000000000000000600052601160045260246000fd5b6000610527826103be565b9150610532836103be565b925082820390508181111561054a576105496104ed565b5b92915050565b600081519050919050565b600081905092915050565b60005b83811015610584578082015181840152602081019050610569565b60008484015250505050565b600061059b82610550565b6105a5818561055b565b93506105b5818560208601610566565b80840191505092915050565b60006105cd8284610590565b915081905092915050565b600082825260208201905092915050565b7f5265656e7472616e63794d6f636b3a206661696c65642063616c6c0000000000600082015250565b600061061f601b836105d8565b915061062a826105e9565b602082019050919050565b6000602082019050818103600083015261064e81610612565b9050919050565b60007fffffffff0000000000000000000000000000000000000000000000000000000082169050919050565b61068a81610655565b82525050565b60006020820190506106a56000830184610681565b92915050565b7f5265656e7472616e637947756172643a207265656e7472616e742063616c6c00600082015250565b60006106e1601f836105d8565b91506106ec826106ab565b602082019050919050565b60006020820190508181036000830152610710816106d4565b9050919050565b6000610722826103be565b915061072d836103be565b9250828201905080821115610745576107446104ed565b5b9291505056fea26469706673582212200eef5d3411eea71b59e7c5235f0d55c6bc3f29e113295259ae578575738c462464736f6c63430008110033",
  "linkReferences": {},
  "deployedLinkReferences": {}
}