{
  "_format": "hh-sol-artifact-1",
  "contractName": "GovernorTimelockControlMock",
  "sourceName": "contracts/mocks/GovernorTimelockControlMock.sol",
  "abi": [
    {
      "inputs": [
        {
          "internalType": "string",
          "name": "name_",
          "type": "string"
        },
        {
          "internalType": "contract IVotes",
          "name": "token_",
          "type": "address"
        },
        {
          "internalType": "uint256",
          "name": "votingDelay_",
          "type": "uint256"
        },
        {
          "internalType": "uint256",
          "name": "votingPeriod_",
          "type": "uint256"
        },
        {
          "internalType": "contract TimelockController",
          "name": "timelock_",
          "type": "address"
        },
        {
          "internalType": "uint256",
          "name": "quorumNumerator_",
          "type": "uint256"
        }
      ],
      "stateMutability": "nonpayable",
      "type": "constructor"
    },
    {
      "inputs": [],
      "name": "Empty",
      "type": "error"
    },
    {
      "anonymous": false,
      "inputs": [
        {
          "indexed": false,
          "internalType": "uint256",
          "name": "proposalId",
          "type": "uint256"
        }
      ],
      "name": "ProposalCanceled",
      "type": "event"
    },
    {
      "anonymous": false,
      "inputs": [
        {
          "indexed": false,
          "internalType": "uint256",
          "name": "proposalId",
          "type": "uint256"
        },
        {
          "indexed": false,
          "internalType": "address",
          "name": "proposer",
          "type": "address"
        },
        {
          "indexed": false,
          "internalType": "address[]",
          "name": "targets",
          "type": "address[]"
        },
        {
          "indexed": false,
          "internalType": "uint256[]",
          "name": "values",
          "type": "uint256[]"
        },
        {
          "indexed": false,
          "internalType": "string[]",
          "name": "signatures",
          "type": "string[]"
        },
        {
          "indexed": false,
          "internalType": "bytes[]",
          "name": "calldatas",
          "type": "bytes[]"
        },
        {
          "indexed": false,
          "internalType": "uint256",
          "name": "startBlock",
          "type": "uint256"
        },
        {
          "indexed": false,
          "internalType": "uint256",
          "name": "endBlock",
          "type": "uint256"
        },
        {
          "indexed": false,
          "internalType": "string",
          "name": "description",
          "type": "string"
        }
      ],
      "name": "ProposalCreated",
      "type": "event"
    },
    {
      "anonymous": false,
      "inputs": [
        {
          "indexed": false,
          "internalType": "uint256",
          "name": "proposalId",
          "type": "uint256"
        }
      ],
      "name": "ProposalExecuted",
      "type": "event"
    },
    {
      "anonymous": false,
      "inputs": [
        {
          "indexed": false,
          "internalType": "uint256",
          "name": "proposalId",
          "type": "uint256"
        },
        {
          "indexed": false,
          "internalType": "uint256",
          "name": "eta",
          "type": "uint256"
        }
      ],
      "name": "ProposalQueued",
      "type": "event"
    },
    {
      "anonymous": false,
      "inputs": [
        {
          "indexed": false,
          "internalType": "uint256",
          "name": "oldProposalThreshold",
          "type": "uint256"
        },
        {
          "indexed": false,
          "internalType": "uint256",
          "name": "newProposalThreshold",
          "type": "uint256"
        }
      ],
      "name": "ProposalThresholdSet",
      "type": "event"
    },
    {
      "anonymous": false,
      "inputs": [
        {
          "indexed": false,
          "internalType": "uint256",
          "name": "oldQuorumNumerator",
          "type": "uint256"
        },
        {
          "indexed": false,
          "internalType": "uint256",
          "name": "newQuorumNumerator",
          "type": "uint256"
        }
      ],
      "name": "QuorumNumeratorUpdated",
      "type": "event"
    },
    {
      "anonymous": false,
      "inputs": [
        {
          "indexed": false,
          "internalType": "address",
          "name": "oldTimelock",
          "type": "address"
        },
        {
          "indexed": false,
          "internalType": "address",
          "name": "newTimelock",
          "type": "address"
        }
      ],
      "name": "TimelockChange",
      "type": "event"
    },
    {
      "anonymous": false,
      "inputs": [
        {
          "indexed": true,
          "internalType": "address",
          "name": "voter",
          "type": "address"
        },
        {
          "indexed": false,
          "internalType": "uint256",
          "name": "proposalId",
          "type": "uint256"
        },
        {
          "indexed": false,
          "internalType": "uint8",
          "name": "support",
          "type": "uint8"
        },
        {
          "indexed": false,
          "internalType": "uint256",
          "name": "weight",
          "type": "uint256"
        },
        {
          "indexed": false,
          "internalType": "string",
          "name": "reason",
          "type": "string"
        }
      ],
      "name": "VoteCast",
      "type": "event"
    },
    {
      "anonymous": false,
      "inputs": [
        {
          "indexed": true,
          "internalType": "address",
          "name": "voter",
          "type": "address"
        },
        {
          "indexed": false,
          "internalType": "uint256",
          "name": "proposalId",
          "type": "uint256"
        },
        {
          "indexed": false,
          "internalType": "uint8",
          "name": "support",
          "type": "uint8"
        },
        {
          "indexed": false,
          "internalType": "uint256",
          "name": "weight",
          "type": "uint256"
        },
        {
          "indexed": false,
          "internalType": "string",
          "name": "reason",
          "type": "string"
        },
        {
          "indexed": false,
          "internalType": "bytes",
          "name": "params",
          "type": "bytes"
        }
      ],
      "name": "VoteCastWithParams",
      "type": "event"
    },
    {
      "anonymous": false,
      "inputs": [
        {
          "indexed": false,
          "internalType": "uint256",
          "name": "oldVotingDelay",
          "type": "uint256"
        },
        {
          "indexed": false,
          "internalType": "uint256",
          "name": "newVotingDelay",
          "type": "uint256"
        }
      ],
      "name": "VotingDelaySet",
      "type": "event"
    },
    {
      "anonymous": false,
      "inputs": [
        {
          "indexed": false,
          "internalType": "uint256",
          "name": "oldVotingPeriod",
          "type": "uint256"
        },
        {
          "indexed": false,
          "internalType": "uint256",
          "name": "newVotingPeriod",
          "type": "uint256"
        }
      ],
      "name": "VotingPeriodSet",
      "type": "event"
    },
    {
      "inputs": [],
      "name": "BALLOT_TYPEHASH",
      "outputs": [
        {
          "internalType": "bytes32",
          "name": "",
          "type": "bytes32"
        }
      ],
      "stateMutability": "view",
      "type": "function"
    },
    {
      "inputs": [],
      "name": "COUNTING_MODE",
      "outputs": [
        {
          "internalType": "string",
          "name": "",
          "type": "string"
        }
      ],
      "stateMutability": "pure",
      "type": "function"
    },
    {
      "inputs": [],
      "name": "EXTENDED_BALLOT_TYPEHASH",
      "outputs": [
        {
          "internalType": "bytes32",
          "name": "",
          "type": "bytes32"
        }
      ],
      "stateMutability": "view",
      "type": "function"
    },
    {
      "inputs": [
        {
          "internalType": "address[]",
          "name": "targets",
          "type": "address[]"
        },
        {
          "internalType": "uint256[]",
          "name": "values",
          "type": "uint256[]"
        },
        {
          "internalType": "bytes[]",
          "name": "calldatas",
          "type": "bytes[]"
        },
        {
          "internalType": "bytes32",
          "name": "descriptionHash",
          "type": "bytes32"
        }
      ],
      "name": "cancel",
      "outputs": [
        {
          "internalType": "uint256",
          "name": "proposalId",
          "type": "uint256"
        }
      ],
      "stateMutability": "nonpayable",
      "type": "function"
    },
    {
      "inputs": [
        {
          "internalType": "uint256",
          "name": "proposalId",
          "type": "uint256"
        },
        {
          "internalType": "uint8",
          "name": "support",
          "type": "uint8"
        }
      ],
      "name": "castVote",
      "outputs": [
        {
          "internalType": "uint256",
          "name": "",
          "type": "uint256"
        }
      ],
      "stateMutability": "nonpayable",
      "type": "function"
    },
    {
      "inputs": [
        {
          "internalType": "uint256",
          "name": "proposalId",
          "type": "uint256"
        },
        {
          "internalType": "uint8",
          "name": "support",
          "type": "uint8"
        },
        {
          "internalType": "uint8",
          "name": "v",
          "type": "uint8"
        },
        {
          "internalType": "bytes32",
          "name": "r",
          "type": "bytes32"
        },
        {
          "internalType": "bytes32",
          "name": "s",
          "type": "bytes32"
        }
      ],
      "name": "castVoteBySig",
      "outputs": [
        {
          "internalType": "uint256",
          "name": "",
          "type": "uint256"
        }
      ],
      "stateMutability": "nonpayable",
      "type": "function"
    },
    {
      "inputs": [
        {
          "internalType": "uint256",
          "name": "proposalId",
          "type": "uint256"
        },
        {
          "internalType": "uint8",
          "name": "support",
          "type": "uint8"
        },
        {
          "internalType": "string",
          "name": "reason",
          "type": "string"
        }
      ],
      "name": "castVoteWithReason",
      "outputs": [
        {
          "internalType": "uint256",
          "name": "",
          "type": "uint256"
        }
      ],
      "stateMutability": "nonpayable",
      "type": "function"
    },
    {
      "inputs": [
        {
          "internalType": "uint256",
          "name": "proposalId",
          "type": "uint256"
        },
        {
          "internalType": "uint8",
          "name": "support",
          "type": "uint8"
        },
        {
          "internalType": "string",
          "name": "reason",
          "type": "string"
        },
        {
          "internalType": "bytes",
          "name": "params",
          "type": "bytes"
        }
      ],
      "name": "castVoteWithReasonAndParams",
      "outputs": [
        {
          "internalType": "uint256",
          "name": "",
          "type": "uint256"
        }
      ],
      "stateMutability": "nonpayable",
      "type": "function"
    },
    {
      "inputs": [
        {
          "internalType": "uint256",
          "name": "proposalId",
          "type": "uint256"
        },
        {
          "internalType": "uint8",
          "name": "support",
          "type": "uint8"
        },
        {
          "internalType": "string",
          "name": "reason",
          "type": "string"
        },
        {
          "internalType": "bytes",
          "name": "params",
          "type": "bytes"
        },
        {
          "internalType": "uint8",
          "name": "v",
          "type": "uint8"
        },
        {
          "internalType": "bytes32",
          "name": "r",
          "type": "bytes32"
        },
        {
          "internalType": "bytes32",
          "name": "s",
          "type": "bytes32"
        }
      ],
      "name": "castVoteWithReasonAndParamsBySig",
      "outputs": [
        {
          "internalType": "uint256",
          "name": "",
          "type": "uint256"
        }
      ],
      "stateMutability": "nonpayable",
      "type": "function"
    },
    {
      "inputs": [
        {
          "internalType": "address[]",
          "name": "targets",
          "type": "address[]"
        },
        {
          "internalType": "uint256[]",
          "name": "values",
          "type": "uint256[]"
        },
        {
          "internalType": "bytes[]",
          "name": "calldatas",
          "type": "bytes[]"
        },
        {
          "internalType": "bytes32",
          "name": "descriptionHash",
          "type": "bytes32"
        }
      ],
      "name": "execute",
      "outputs": [
        {
          "internalType": "uint256",
          "name": "",
          "type": "uint256"
        }
      ],
      "stateMutability": "payable",
      "type": "function"
    },
    {
      "inputs": [
        {
          "internalType": "address",
          "name": "account",
          "type": "address"
        },
        {
          "internalType": "uint256",
          "name": "blockNumber",
          "type": "uint256"
        }
      ],
      "name": "getVotes",
      "outputs": [
        {
          "internalType": "uint256",
          "name": "",
          "type": "uint256"
        }
      ],
      "stateMutability": "view",
      "type": "function"
    },
    {
      "inputs": [
        {
          "internalType": "address",
          "name": "account",
          "type": "address"
        },
        {
          "internalType": "uint256",
          "name": "blockNumber",
          "type": "uint256"
        },
        {
          "internalType": "bytes",
          "name": "params",
          "type": "bytes"
        }
      ],
      "name": "getVotesWithParams",
      "outputs": [
        {
          "internalType": "uint256",
          "name": "",
          "type": "uint256"
        }
      ],
      "stateMutability": "view",
      "type": "function"
    },
    {
      "inputs": [
        {
          "internalType": "uint256",
          "name": "proposalId",
          "type": "uint256"
        },
        {
          "internalType": "address",
          "name": "account",
          "type": "address"
        }
      ],
      "name": "hasVoted",
      "outputs": [
        {
          "internalType": "bool",
          "name": "",
          "type": "bool"
        }
      ],
      "stateMutability": "view",
      "type": "function"
    },
    {
      "inputs": [
        {
          "internalType": "address[]",
          "name": "targets",
          "type": "address[]"
        },
        {
          "internalType": "uint256[]",
          "name": "values",
          "type": "uint256[]"
        },
        {
          "internalType": "bytes[]",
          "name": "calldatas",
          "type": "bytes[]"
        },
        {
          "internalType": "bytes32",
          "name": "descriptionHash",
          "type": "bytes32"
        }
      ],
      "name": "hashProposal",
      "outputs": [
        {
          "internalType": "uint256",
          "name": "",
          "type": "uint256"
        }
      ],
      "stateMutability": "pure",
      "type": "function"
    },
    {
      "inputs": [],
      "name": "name",
      "outputs": [
        {
          "internalType": "string",
          "name": "",
          "type": "string"
        }
      ],
      "stateMutability": "view",
      "type": "function"
    },
    {
      "inputs": [],
      "name": "nonGovernanceFunction",
      "outputs": [],
      "stateMutability": "nonpayable",
      "type": "function"
    },
    {
      "inputs": [
        {
          "internalType": "address",
          "name": "",
          "type": "address"
        },
        {
          "internalType": "address",
          "name": "",
          "type": "address"
        },
        {
          "internalType": "uint256[]",
          "name": "",
          "type": "uint256[]"
        },
        {
          "internalType": "uint256[]",
          "name": "",
          "type": "uint256[]"
        },
        {
          "internalType": "bytes",
          "name": "",
          "type": "bytes"
        }
      ],
      "name": "onERC1155BatchReceived",
      "outputs": [
        {
          "internalType": "bytes4",
          "name": "",
          "type": "bytes4"
        }
      ],
      "stateMutability": "nonpayable",
      "type": "function"
    },
    {
      "inputs": [
        {
          "internalType": "address",
          "name": "",
          "type": "address"
        },
        {
          "internalType": "address",
          "name": "",
          "type": "address"
        },
        {
          "internalType": "uint256",
          "name": "",
          "type": "uint256"
        },
        {
          "internalType": "uint256",
          "name": "",
          "type": "uint256"
        },
        {
          "internalType": "bytes",
          "name": "",
          "type": "bytes"
        }
      ],
      "name": "onERC1155Received",
      "outputs": [
        {
          "internalType": "bytes4",
          "name": "",
          "type": "bytes4"
        }
      ],
      "stateMutability": "nonpayable",
      "type": "function"
    },
    {
      "inputs": [
        {
          "internalType": "address",
          "name": "",
          "type": "address"
        },
        {
          "internalType": "address",
          "name": "",
          "type": "address"
        },
        {
          "internalType": "uint256",
          "name": "",
          "type": "uint256"
        },
        {
          "internalType": "bytes",
          "name": "",
          "type": "bytes"
        }
      ],
      "name": "onERC721Received",
      "outputs": [
        {
          "internalType": "bytes4",
          "name": "",
          "type": "bytes4"
        }
      ],
      "stateMutability": "nonpayable",
      "type": "function"
    },
    {
      "inputs": [
        {
          "internalType": "uint256",
          "name": "proposalId",
          "type": "uint256"
        }
      ],
      "name": "proposalDeadline",
      "outputs": [
        {
          "internalType": "uint256",
          "name": "",
          "type": "uint256"
        }
      ],
      "stateMutability": "view",
      "type": "function"
    },
    {
      "inputs": [
        {
          "internalType": "uint256",
          "name": "proposalId",
          "type": "uint256"
        }
      ],
      "name": "proposalEta",
      "outputs": [
        {
          "internalType": "uint256",
          "name": "",
          "type": "uint256"
        }
      ],
      "stateMutability": "view",
      "type": "function"
    },
    {
      "inputs": [
        {
          "internalType": "uint256",
          "name": "proposalId",
          "type": "uint256"
        }
      ],
      "name": "proposalSnapshot",
      "outputs": [
        {
          "internalType": "uint256",
          "name": "",
          "type": "uint256"
        }
      ],
      "stateMutability": "view",
      "type": "function"
    },
    {
      "inputs": [],
      "name": "proposalThreshold",
      "outputs": [
        {
          "internalType": "uint256",
          "name": "",
          "type": "uint256"
        }
      ],
      "stateMutability": "view",
      "type": "function"
    },
    {
      "inputs": [
        {
          "internalType": "uint256",
          "name": "proposalId",
          "type": "uint256"
        }
      ],
      "name": "proposalVotes",
      "outputs": [
        {
          "internalType": "uint256",
          "name": "againstVotes",
          "type": "uint256"
        },
        {
          "internalType": "uint256",
          "name": "forVotes",
          "type": "uint256"
        },
        {
          "internalType": "uint256",
          "name": "abstainVotes",
          "type": "uint256"
        }
      ],
      "stateMutability": "view",
      "type": "function"
    },
    {
      "inputs": [
        {
          "internalType": "address[]",
          "name": "targets",
          "type": "address[]"
        },
        {
          "internalType": "uint256[]",
          "name": "values",
          "type": "uint256[]"
        },
        {
          "internalType": "bytes[]",
          "name": "calldatas",
          "type": "bytes[]"
        },
        {
          "internalType": "string",
          "name": "description",
          "type": "string"
        }
      ],
      "name": "propose",
      "outputs": [
        {
          "internalType": "uint256",
          "name": "",
          "type": "uint256"
        }
      ],
      "stateMutability": "nonpayable",
      "type": "function"
    },
    {
      "inputs": [
        {
          "internalType": "address[]",
          "name": "targets",
          "type": "address[]"
        },
        {
          "internalType": "uint256[]",
          "name": "values",
          "type": "uint256[]"
        },
        {
          "internalType": "bytes[]",
          "name": "calldatas",
          "type": "bytes[]"
        },
        {
          "internalType": "bytes32",
          "name": "descriptionHash",
          "type": "bytes32"
        }
      ],
      "name": "queue",
      "outputs": [
        {
          "internalType": "uint256",
          "name": "",
          "type": "uint256"
        }
      ],
      "stateMutability": "nonpayable",
      "type": "function"
    },
    {
      "inputs": [
        {
          "internalType": "uint256",
          "name": "blockNumber",
          "type": "uint256"
        }
      ],
      "name": "quorum",
      "outputs": [
        {
          "internalType": "uint256",
          "name": "",
          "type": "uint256"
        }
      ],
      "stateMutability": "view",
      "type": "function"
    },
    {
      "inputs": [],
      "name": "quorumDenominator",
      "outputs": [
        {
          "internalType": "uint256",
          "name": "",
          "type": "uint256"
        }
      ],
      "stateMutability": "view",
      "type": "function"
    },
    {
      "inputs": [
        {
          "internalType": "uint256",
          "name": "blockNumber",
          "type": "uint256"
        }
      ],
      "name": "quorumNumerator",
      "outputs": [
        {
          "internalType": "uint256",
          "name": "",
          "type": "uint256"
        }
      ],
      "stateMutability": "view",
      "type": "function"
    },
    {
      "inputs": [],
      "name": "quorumNumerator",
      "outputs": [
        {
          "internalType": "uint256",
          "name": "",
          "type": "uint256"
        }
      ],
      "stateMutability": "view",
      "type": "function"
    },
    {
      "inputs": [
        {
          "internalType": "address",
          "name": "target",
          "type": "address"
        },
        {
          "internalType": "uint256",
          "name": "value",
          "type": "uint256"
        },
        {
          "internalType": "bytes",
          "name": "data",
          "type": "bytes"
        }
      ],
      "name": "relay",
      "outputs": [],
      "stateMutability": "payable",
      "type": "function"
    },
    {
      "inputs": [
        {
          "internalType": "uint256",
          "name": "newProposalThreshold",
          "type": "uint256"
        }
      ],
      "name": "setProposalThreshold",
      "outputs": [],
      "stateMutability": "nonpayable",
      "type": "function"
    },
    {
      "inputs": [
        {
          "internalType": "uint256",
          "name": "newVotingDelay",
          "type": "uint256"
        }
      ],
      "name": "setVotingDelay",
      "outputs": [],
      "stateMutability": "nonpayable",
      "type": "function"
    },
    {
      "inputs": [
        {
          "internalType": "uint256",
          "name": "newVotingPeriod",
          "type": "uint256"
        }
      ],
      "name": "setVotingPeriod",
      "outputs": [],
      "stateMutability": "nonpayable",
      "type": "function"
    },
    {
      "inputs": [
        {
          "internalType": "uint256",
          "name": "proposalId",
          "type": "uint256"
        }
      ],
      "name": "state",
      "outputs": [
        {
          "internalType": "enum IGovernor.ProposalState",
          "name": "",
          "type": "uint8"
        }
      ],
      "stateMutability": "view",
      "type": "function"
    },
    {
      "inputs": [
        {
          "internalType": "bytes4",
          "name": "interfaceId",
          "type": "bytes4"
        }
      ],
      "name": "supportsInterface",
      "outputs": [
        {
          "internalType": "bool",
          "name": "",
          "type": "bool"
        }
      ],
      "stateMutability": "view",
      "type": "function"
    },
    {
      "inputs": [],
      "name": "timelock",
      "outputs": [
        {
          "internalType": "address",
          "name": "",
          "type": "address"
        }
      ],
      "stateMutability": "view",
      "type": "function"
    },
    {
      "inputs": [],
      "name": "token",
      "outputs": [
        {
          "internalType": "contract IVotes",
          "name": "",
          "type": "address"
        }
      ],
      "stateMutability": "view",
      "type": "function"
    },
    {
      "inputs": [
        {
          "internalType": "uint256",
          "name": "newQuorumNumerator",
          "type": "uint256"
        }
      ],
      "name": "updateQuorumNumerator",
      "outputs": [],
      "stateMutability": "nonpayable",
      "type": "function"
    },
    {
      "inputs": [
        {
          "internalType": "contract TimelockController",
          "name": "newTimelock",
          "type": "address"
        }
      ],
      "name": "updateTimelock",
      "outputs": [],
      "stateMutability": "nonpayable",
      "type": "function"
    },
    {
      "inputs": [],
      "name": "version",
      "outputs": [
        {
          "internalType": "string",
          "name": "",
          "type": "string"
        }
      ],
      "stateMutability": "view",
      "type": "function"
    },
    {
      "inputs": [],
      "name": "votingDelay",
      "outputs": [
        {
          "internalType": "uint256",
          "name": "",
          "type": "uint256"
        }
      ],
      "stateMutability": "view",
      "type": "function"
    },
    {
      "inputs": [],
      "name": "votingPeriod",
      "outputs": [
        {
          "internalType": "uint256",
          "name": "",
          "type": "uint256"
        }
      ],
      "stateMutability": "view",
      "type": "function"
    },
    {
      "stateMutability": "payable",
      "type": "receive"
    }
  ],
  "bytecode": "0x6101606040523480156200001257600080fd5b50604051620083ad380380620083ad833981810160405281019062000038919062000e45565b808583868660008b8062000051620001b260201b60201c565b60008280519060200120905060008280519060200120905060007f8b73c3c69bb8fe3d512ecc4cf759cc79239f7b179b0ffacaa9a75d522b39400f90508260e081815250508161010081815250504660a08181525050620000ba818484620001ef60201b60201c565b608081815250503073ffffffffffffffffffffffffffffffffffffffff1660c08173ffffffffffffffffffffffffffffffffffffffff16815250508061012081815250505050505050806000908162000114919062001141565b505062000127836200022b60201b60201c565b62000138826200027260201b60201c565b6200014981620002ff60201b60201c565b5050506200015d816200034660201b60201c565b508073ffffffffffffffffffffffffffffffffffffffff166101408173ffffffffffffffffffffffffffffffffffffffff168152505050620001a581620003e760201b60201c565b505050505050506200168f565b60606040518060400160405280600181526020017f3100000000000000000000000000000000000000000000000000000000000000815250905090565b600083838346306040516020016200020c95949392919062001265565b6040516020818303038152906040528051906020012090509392505050565b7fc565b045403dc03c2eea82b81a0465edad9e2e7fc4d97e11421c209da93d7a936004548260405162000260929190620012c2565b60405180910390a18060048190555050565b60008111620002b8576040517f08c379a0000000000000000000000000000000000000000000000000000000008152600401620002af9062001376565b60405180910390fd5b7f7e3f7f0708a84de9203036abaa450dccc85ad5ff52f78c170f3edb55cf5e882860055482604051620002ed929190620012c2565b60405180910390a18060058190555050565b7fccb45da8d5717e6c4544694297c4ba5cf151d455c9bb0ed4fc7a38411bc054616006548260405162000334929190620012c2565b60405180910390a18060068190555050565b7f08f74ea46ef7894f65eabfb5e6e695de773a000b47c529ab559178069b226401600760009054906101000a900473ffffffffffffffffffffffffffffffffffffffff16826040516200039b92919062001398565b60405180910390a180600760006101000a81548173ffffffffffffffffffffffffffffffffffffffff021916908373ffffffffffffffffffffffffffffffffffffffff16021790555050565b620003f7620005c660201b60201c565b8111156200043c576040517f08c379a0000000000000000000000000000000000000000000000000000000008152600401620004339062001461565b60405180910390fd5b60006200044e620005cf60201b60201c565b9050600081141580156200046a57506000600a60000180549050145b156200056a57600a6000016040518060400160405280600063ffffffff168152602001620004a3846200062560201b620021f01760201c565b7bffffffffffffffffffffffffffffffffffffffffffffffffffffffff168152509080600181540180825580915050600190039060005260206000200160009091909190915060008201518160000160006101000a81548163ffffffff021916908363ffffffff16021790555060208201518160000160046101000a8154817bffffffffffffffffffffffffffffffffffffffffffffffffffffffff02191690837bffffffffffffffffffffffffffffffffffffffffffffffffffffffff16021790555050505b6200058582600a6200069360201b6200225b1790919060201c565b50507f0553476bf02ef2726e8ce5ced78d63e26e602e4a2257b1f559418e24b46339978183604051620005ba929190620012c2565b60405180910390a15050565b60006064905090565b600080600a60000180549050146200061c57620005f8600a6200072360201b620022c91760201c565b7bffffffffffffffffffffffffffffffffffffffffffffffffffffffff1662000620565b6009545b905090565b60007bffffffffffffffffffffffffffffffffffffffffffffffffffffffff80168211156200068b576040517f08c379a00000000000000000000000000000000000000000000000000000000081526004016200068290620014f9565b60405180910390fd5b819050919050565b600080620006d684600001620006b4436200079960201b620023331760201c565b620006ca866200062560201b620021f01760201c565b620007ef60201b60201c565b817bffffffffffffffffffffffffffffffffffffffffffffffffffffffff169150807bffffffffffffffffffffffffffffffffffffffffffffffffffffffff169050915091509250929050565b60008082600001805490509050600081146200078e576200075c836000016001836200075091906200154a565b62000b9060201b60201c565b60000160049054906101000a90047bffffffffffffffffffffffffffffffffffffffffffffffffffffffff1662000791565b60005b915050919050565b600063ffffffff8016821115620007e7576040517f08c379a0000000000000000000000000000000000000000000000000000000008152600401620007de90620015fb565b60405180910390fd5b819050919050565b600080600085805490509050600081111562000aa057600062000827876001846200081b91906200154a565b62000b9060201b60201c565b6040518060400160405290816000820160009054906101000a900463ffffffff1663ffffffff1663ffffffff1681526020016000820160049054906101000a90047bffffffffffffffffffffffffffffffffffffffffffffffffffffffff167bffffffffffffffffffffffffffffffffffffffffffffffffffffffff167bffffffffffffffffffffffffffffffffffffffffffffffffffffffff168152505090508563ffffffff16816000015163ffffffff1611156200091e576040517f08c379a000000000000000000000000000000000000000000000000000000000815260040162000915906200166d565b60405180910390fd5b8563ffffffff16816000015163ffffffff1603620009ae578462000957886001856200094b91906200154a565b62000b9060201b60201c565b60000160046101000a8154817bffffffffffffffffffffffffffffffffffffffffffffffffffffffff02191690837bffffffffffffffffffffffffffffffffffffffffffffffffffffffff16021790555062000a8e565b8660405180604001604052808863ffffffff168152602001877bffffffffffffffffffffffffffffffffffffffffffffffffffffffff168152509080600181540180825580915050600190039060005260206000200160009091909190915060008201518160000160006101000a81548163ffffffff021916908363ffffffff16021790555060208201518160000160046101000a8154817bffffffffffffffffffffffffffffffffffffffffffffffffffffffff02191690837bffffffffffffffffffffffffffffffffffffffffffffffffffffffff16021790555050505b80602001518593509350505062000b88565b8560405180604001604052808763ffffffff168152602001867bffffffffffffffffffffffffffffffffffffffffffffffffffffffff168152509080600181540180825580915050600190039060005260206000200160009091909190915060008201518160000160006101000a81548163ffffffff021916908363ffffffff16021790555060208201518160000160046101000a8154817bffffffffffffffffffffffffffffffffffffffffffffffffffffffff02191690837bffffffffffffffffffffffffffffffffffffffffffffffffffffffff160217905550505060008492509250505b935093915050565b60008260005281602060002001905092915050565b6000604051905090565b600080fd5b600080fd5b600080fd5b600080fd5b6000601f19601f8301169050919050565b7f4e487b7100000000000000000000000000000000000000000000000000000000600052604160045260246000fd5b62000c0e8262000bc3565b810181811067ffffffffffffffff8211171562000c305762000c2f62000bd4565b5b80604052505050565b600062000c4562000ba5565b905062000c53828262000c03565b919050565b600067ffffffffffffffff82111562000c765762000c7562000bd4565b5b62000c818262000bc3565b9050602081019050919050565b60005b8381101562000cae57808201518184015260208101905062000c91565b60008484015250505050565b600062000cd162000ccb8462000c58565b62000c39565b90508281526020810184848401111562000cf05762000cef62000bbe565b5b62000cfd84828562000c8e565b509392505050565b600082601f83011262000d1d5762000d1c62000bb9565b5b815162000d2f84826020860162000cba565b91505092915050565b600073ffffffffffffffffffffffffffffffffffffffff82169050919050565b600062000d658262000d38565b9050919050565b600062000d798262000d58565b9050919050565b62000d8b8162000d6c565b811462000d9757600080fd5b50565b60008151905062000dab8162000d80565b92915050565b6000819050919050565b62000dc68162000db1565b811462000dd257600080fd5b50565b60008151905062000de68162000dbb565b92915050565b600062000df98262000d38565b9050919050565b600062000e0d8262000dec565b9050919050565b62000e1f8162000e00565b811462000e2b57600080fd5b50565b60008151905062000e3f8162000e14565b92915050565b60008060008060008060c0878903121562000e655762000e6462000baf565b5b600087015167ffffffffffffffff81111562000e865762000e8562000bb4565b5b62000e9489828a0162000d05565b965050602062000ea789828a0162000d9a565b955050604062000eba89828a0162000dd5565b945050606062000ecd89828a0162000dd5565b935050608062000ee089828a0162000e2e565b92505060a062000ef389828a0162000dd5565b9150509295509295509295565b600081519050919050565b7f4e487b7100000000000000000000000000000000000000000000000000000000600052602260045260246000fd5b6000600282049050600182168062000f5357607f821691505b60208210810362000f695762000f6862000f0b565b5b50919050565b60008190508160005260206000209050919050565b60006020601f8301049050919050565b600082821b905092915050565b60006008830262000fd37fffffffffffffffffffffffffffffffffffffffffffffffffffffffffffffffff8262000f94565b62000fdf868362000f94565b95508019841693508086168417925050509392505050565b6000819050919050565b6000620010226200101c620010168462000db1565b62000ff7565b62000db1565b9050919050565b6000819050919050565b6200103e8362001001565b620010566200104d8262001029565b84845462000fa1565b825550505050565b600090565b6200106d6200105e565b6200107a81848462001033565b505050565b5b81811015620010a2576200109660008262001063565b60018101905062001080565b5050565b601f821115620010f157620010bb8162000f6f565b620010c68462000f84565b81016020851015620010d6578190505b620010ee620010e58562000f84565b8301826200107f565b50505b505050565b600082821c905092915050565b60006200111660001984600802620010f6565b1980831691505092915050565b600062001131838362001103565b9150826002028217905092915050565b6200114c8262000f00565b67ffffffffffffffff81111562001168576200116762000bd4565b5b62001174825462000f3a565b62001181828285620010a6565b600060209050601f831160018114620011b95760008415620011a4578287015190505b620011b0858262001123565b86555062001220565b601f198416620011c98662000f6f565b60005b82811015620011f357848901518255600182019150602085019450602081019050620011cc565b868310156200121357848901516200120f601f89168262001103565b8355505b6001600288020188555050505b505050505050565b6000819050919050565b6200123d8162001228565b82525050565b6200124e8162000db1565b82525050565b6200125f8162000d58565b82525050565b600060a0820190506200127c600083018862001232565b6200128b602083018762001232565b6200129a604083018662001232565b620012a9606083018562001243565b620012b8608083018462001254565b9695505050505050565b6000604082019050620012d9600083018562001243565b620012e8602083018462001243565b9392505050565b600082825260208201905092915050565b7f476f7665726e6f7253657474696e67733a20766f74696e6720706572696f642060008201527f746f6f206c6f7700000000000000000000000000000000000000000000000000602082015250565b60006200135e602783620012ef565b91506200136b8262001300565b604082019050919050565b6000602082019050818103600083015262001391816200134f565b9050919050565b6000604082019050620013af600083018562001254565b620013be602083018462001254565b9392505050565b7f476f7665726e6f72566f74657351756f72756d4672616374696f6e3a2071756f60008201527f72756d4e756d657261746f72206f7665722071756f72756d44656e6f6d696e6160208201527f746f720000000000000000000000000000000000000000000000000000000000604082015250565b600062001449604383620012ef565b91506200145682620013c5565b606082019050919050565b600060208201905081810360008301526200147c816200143a565b9050919050565b7f53616665436173743a2076616c756520646f65736e27742066697420696e203260008201527f3234206269747300000000000000000000000000000000000000000000000000602082015250565b6000620014e1602783620012ef565b9150620014ee8262001483565b604082019050919050565b600060208201905081810360008301526200151481620014d2565b9050919050565b7f4e487b7100000000000000000000000000000000000000000000000000000000600052601160045260246000fd5b6000620015578262000db1565b9150620015648362000db1565b92508282039050818111156200157f576200157e6200151b565b5b92915050565b7f53616665436173743a2076616c756520646f65736e27742066697420696e203360008201527f3220626974730000000000000000000000000000000000000000000000000000602082015250565b6000620015e3602683620012ef565b9150620015f08262001585565b604082019050919050565b600060208201905081810360008301526200161681620015d4565b9050919050565b7f436865636b706f696e743a20696e76616c6964206b6579000000000000000000600082015250565b600062001655601783620012ef565b915062001662826200161d565b602082019050919050565b60006020820190508181036000830152620016888162001646565b9050919050565b60805160a05160c05160e051610100516101205161014051616cb5620016f8600039600081816121ce01528181612e13015261307a015260006136db0152600061371d015260006136fc0152600061363101526000613687015260006136b00152616cb56000f3fe6080604052600436106102605760003560e01c806370b0f66011610144578063c28bc2fa116100b6578063ea0217cf1161007a578063ea0217cf14610a28578063eb9019d414610a51578063ece40cc114610a8e578063f23a6e6114610ab7578063f8ce560a14610af4578063fc0c546a14610b31576102a6565b8063c28bc2fa1461094e578063c59057e41461096a578063d33219b4146109a7578063dd4e2ba5146109d2578063deaaa7cc146109fd576102a6565b8063a7713a7011610108578063a7713a7014610818578063a890c91014610843578063ab58fb8e1461086c578063b58131b0146108a9578063bc197c81146108d4578063c01f9e3714610911576102a6565b806370b0f6601461070d5780637b3c71d3146107365780637d5e81e21461077357806397c3d334146107b05780639a802a6d146107db576102a6565b80633932abb1116101dd578063452115d6116101a1578063452115d6146105af578063544ffc9c146105ec57806354fd4d501461062b57806356781388146106565780635f398a141461069357806360c4247f146106d0576102a6565b80633932abb1146104b65780633bccf4fd146104e15780633e4f49e61461051e578063417491db1461055b5780634385963214610572576102a6565b8063150b7a0211610224578063150b7a02146103a4578063160cbed7146103e15780632656227d1461041e5780632d63f6931461044e5780632fe3e2611461048b576102a6565b806301ffc9a7146102ab57806302a251a3146102e8578063034201811461031357806306f3f9e61461035057806306fdde0314610379576102a6565b366102a6573073ffffffffffffffffffffffffffffffffffffffff16610284610b5c565b73ffffffffffffffffffffffffffffffffffffffff16146102a457600080fd5b005b600080fd5b3480156102b757600080fd5b506102d260048036038101906102cd9190614360565b610b6b565b6040516102df91906143a8565b60405180910390f35b3480156102f457600080fd5b506102fd610b7d565b60405161030a91906143dc565b60405180910390f35b34801561031f57600080fd5b5061033a60048036038101906103359190614638565b610b87565b60405161034791906143dc565b60405180910390f35b34801561035c57600080fd5b5061037760048036038101906103729190614716565b610c6c565b005b34801561038557600080fd5b5061038e610d63565b60405161039b91906147c2565b60405180910390f35b3480156103b057600080fd5b506103cb60048036038101906103c69190614842565b610df5565b6040516103d891906148d4565b60405180910390f35b3480156103ed57600080fd5b5061040860048036038101906104039190614b56565b610e09565b60405161041591906143dc565b60405180910390f35b61043860048036038101906104339190614b56565b6110c3565b60405161044591906143dc565b60405180910390f35b34801561045a57600080fd5b5061047560048036038101906104709190614716565b611210565b60405161048291906143dc565b60405180910390f35b34801561049757600080fd5b506104a061127e565b6040516104ad9190614c20565b60405180910390f35b3480156104c257600080fd5b506104cb6112a2565b6040516104d891906143dc565b60405180910390f35b3480156104ed57600080fd5b5061050860048036038101906105039190614c3b565b6112ac565b60405161051591906143dc565b60405180910390f35b34801561052a57600080fd5b5061054560048036038101906105409190614716565b611336565b6040516105529190614d2d565b60405180910390f35b34801561056757600080fd5b50610570611348565b005b34801561057e57600080fd5b5061059960048036038101906105949190614d48565b61134a565b6040516105a691906143a8565b60405180910390f35b3480156105bb57600080fd5b506105d660048036038101906105d19190614b56565b6113b5565b6040516105e391906143dc565b60405180910390f35b3480156105f857600080fd5b50610613600480360381019061060e9190614716565b6113cd565b60405161062293929190614d88565b60405180910390f35b34801561063757600080fd5b50610640611405565b60405161064d91906147c2565b60405180910390f35b34801561066257600080fd5b5061067d60048036038101906106789190614dbf565b611442565b60405161068a91906143dc565b60405180910390f35b34801561069f57600080fd5b506106ba60048036038101906106b59190614dff565b611473565b6040516106c791906143dc565b60405180910390f35b3480156106dc57600080fd5b506106f760048036038101906106f29190614716565b6114dd565b60405161070491906143dc565b60405180910390f35b34801561071957600080fd5b50610734600480360381019061072f9190614716565b611629565b005b34801561074257600080fd5b5061075d60048036038101906107589190614ea3565b611720565b60405161076a91906143dc565b60405180910390f35b34801561077f57600080fd5b5061079a60048036038101906107959190614fb8565b611788565b6040516107a791906143dc565b60405180910390f35b3480156107bc57600080fd5b506107c5611a8f565b6040516107d291906143dc565b60405180910390f35b3480156107e757600080fd5b5061080260048036038101906107fd919061508f565b611a98565b60405161080f91906143dc565b60405180910390f35b34801561082457600080fd5b5061082d611aae565b60405161083a91906143dc565b60405180910390f35b34801561084f57600080fd5b5061086a6004803603810190610865919061514e565b611af5565b005b34801561087857600080fd5b50610893600480360381019061088e9190614716565b611bec565b6040516108a091906143dc565b60405180910390f35b3480156108b557600080fd5b506108be611cb9565b6040516108cb91906143dc565b60405180910390f35b3480156108e057600080fd5b506108fb60048036038101906108f6919061517b565b611cc8565b60405161090891906148d4565b60405180910390f35b34801561091d57600080fd5b5061093860048036038101906109339190614716565b611cdd565b60405161094591906143dc565b60405180910390f35b610968600480360381019061096391906152a0565b611d4b565b005b34801561097657600080fd5b50610991600480360381019061098c9190614b56565b611ed4565b60405161099e91906143dc565b60405180910390f35b3480156109b357600080fd5b506109bc611f10565b6040516109c99190615323565b60405180910390f35b3480156109de57600080fd5b506109e7611f3a565b6040516109f491906147c2565b60405180910390f35b348015610a0957600080fd5b50610a12611f77565b604051610a1f9190614c20565b60405180910390f35b348015610a3457600080fd5b50610a4f6004803603810190610a4a9190614716565b611f9b565b005b348015610a5d57600080fd5b50610a786004803603810190610a73919061533e565b612092565b604051610a8591906143dc565b60405180910390f35b348015610a9a57600080fd5b50610ab56004803603810190610ab09190614716565b6120ae565b005b348015610ac357600080fd5b50610ade6004803603810190610ad9919061537e565b6121a5565b604051610aeb91906148d4565b60405180910390f35b348015610b0057600080fd5b50610b1b6004803603810190610b169190614716565b6121ba565b604051610b2891906143dc565b60405180910390f35b348015610b3d57600080fd5b50610b466121cc565b604051610b539190615474565b60405180910390f35b6000610b66612386565b905090565b6000610b76826123b0565b9050919050565b6000600554905090565b600080610c0a610c027fb3b3f3b703cd84ce352197dcff232b1b5d3cfb2025ce47cf04742d0651f1af888c8c8c8c604051610bc39291906154bf565b60405180910390208b80519060200120604051602001610be79594939291906154e7565b6040516020818303038152906040528051906020012061242a565b868686612444565b9050610c5d8a828b8b8b8080601f016020809104026020016040519081016040528093929190818152602001838380828437600081840152601f19601f820116905080830192505050505050508a61246f565b91505098975050505050505050565b610c74610b5c565b73ffffffffffffffffffffffffffffffffffffffff16610c9261262b565b73ffffffffffffffffffffffffffffffffffffffff1614610ce8576040517f08c379a0000000000000000000000000000000000000000000000000000000008152600401610cdf90615586565b60405180910390fd5b3073ffffffffffffffffffffffffffffffffffffffff16610d07610b5c565b73ffffffffffffffffffffffffffffffffffffffff1614610d57576000610d2c612633565b604051610d3a9291906154bf565b604051809103902090505b80610d506002612640565b03610d4557505b610d608161271c565b50565b606060008054610d72906155d5565b80601f0160208091040260200160405190810160405280929190818152602001828054610d9e906155d5565b8015610deb5780601f10610dc057610100808354040283529160200191610deb565b820191906000526020600020905b815481529060010190602001808311610dce57829003601f168201915b5050505050905090565b600063150b7a0260e01b9050949350505050565b600080610e1886868686611ed4565b905060046007811115610e2e57610e2d614cb6565b5b610e3782611336565b6007811115610e4957610e48614cb6565b5b14610e89576040517f08c379a0000000000000000000000000000000000000000000000000000000008152600401610e8090615678565b60405180910390fd5b6000600760009054906101000a900473ffffffffffffffffffffffffffffffffffffffff1673ffffffffffffffffffffffffffffffffffffffff1663f27a0c926040518163ffffffff1660e01b8152600401602060405180830381865afa158015610ef8573d6000803e3d6000fd5b505050506040513d601f19601f82011682018060405250810190610f1c91906156ad565b9050600760009054906101000a900473ffffffffffffffffffffffffffffffffffffffff1673ffffffffffffffffffffffffffffffffffffffff1663b1c5f4278888886000896040518663ffffffff1660e01b8152600401610f829594939291906159b5565b602060405180830381865afa158015610f9f573d6000803e3d6000fd5b505050506040513d601f19601f82011682018060405250810190610fc39190615a32565b6008600084815260200190815260200160002081905550600760009054906101000a900473ffffffffffffffffffffffffffffffffffffffff1673ffffffffffffffffffffffffffffffffffffffff16638f2a0bb0888888600089876040518763ffffffff1660e01b815260040161104096959493929190615a5f565b600060405180830381600087803b15801561105a57600080fd5b505af115801561106e573d6000803e3d6000fd5b505050507f9a2e42fd6722813d69113e7d0079d3d940171428df7373df9c7f7617cfda28928282426110a09190615b04565b6040516110ae929190615b38565b60405180910390a18192505050949350505050565b6000806110d286868686611ed4565b905060006110df82611336565b9050600460078111156110f5576110f4614cb6565b5b81600781111561110857611107614cb6565b5b148061113857506005600781111561112357611122614cb6565b5b81600781111561113657611135614cb6565b5b145b611177576040517f08c379a000000000000000000000000000000000000000000000000000000000815260040161116e90615678565b60405180910390fd5b600180600084815260200190815260200160002060020160006101000a81548160ff0219169083151502179055507f712ae1383f79ac853f8d882153778e0260ef8f03b504e2866e0593e04d2b291f826040516111d491906143dc565b60405180910390a16111e982888888886128d0565b6111f682888888886129b3565b61120382888888886129c7565b8192505050949350505050565b600061126d600160008481526020019081526020016000206000016040518060200160405290816000820160009054906101000a900467ffffffffffffffff1667ffffffffffffffff1667ffffffffffffffff1681525050612a22565b67ffffffffffffffff169050919050565b7fb3b3f3b703cd84ce352197dcff232b1b5d3cfb2025ce47cf04742d0651f1af8881565b6000600454905090565b60008061130d6113057f150214d74d59b7d1e90c73fc22ef3d991dd0a76b046543d4d80ab92d2a50328f89896040516020016112ea93929190615b61565b6040516020818303038152906040528051906020012061242a565b868686612444565b905061132a87828860405180602001604052806000815250612a30565b91505095945050505050565b600061134182612a50565b9050919050565b565b6000600b600084815260200190815260200160002060030160008373ffffffffffffffffffffffffffffffffffffffff1673ffffffffffffffffffffffffffffffffffffffff16815260200190815260200160002060009054906101000a900460ff16905092915050565b60006113c385858585612c23565b9050949350505050565b600080600080600b60008681526020019081526020016000209050806000015481600101548260020154935093509350509193909250565b60606040518060400160405280600181526020017f3100000000000000000000000000000000000000000000000000000000000000815250905090565b60008061144d61262b565b905061146a84828560405180602001604052806000815250612a30565b91505092915050565b60008061147e61262b565b90506114d187828888888080601f016020809104026020016040519081016040528093929190818152602001838380828437600081840152601f19601f820116905080830192505050505050508761246f565b91505095945050505050565b600080600a600001805490509050600081036114fe57600954915050611624565b6000600a6000016001836115129190615b98565b8154811061152357611522615bcc565b5b906000526020600020016040518060400160405290816000820160009054906101000a900463ffffffff1663ffffffff1663ffffffff1681526020016000820160049054906101000a90047bffffffffffffffffffffffffffffffffffffffffffffffffffffffff167bffffffffffffffffffffffffffffffffffffffffffffffffffffffff167bffffffffffffffffffffffffffffffffffffffffffffffffffffffff1681525050905083816000015163ffffffff161161160b5780602001517bffffffffffffffffffffffffffffffffffffffffffffffffffffffff1692505050611624565b61161f84600a612c3b90919063ffffffff16565b925050505b919050565b611631610b5c565b73ffffffffffffffffffffffffffffffffffffffff1661164f61262b565b73ffffffffffffffffffffffffffffffffffffffff16146116a5576040517f08c379a000000000000000000000000000000000000000000000000000000000815260040161169c90615586565b60405180910390fd5b3073ffffffffffffffffffffffffffffffffffffffff166116c4610b5c565b73ffffffffffffffffffffffffffffffffffffffff16146117145760006116e9612633565b6040516116f79291906154bf565b604051809103902090505b8061170d6002612640565b0361170257505b61171d81612d2a565b50565b60008061172b61262b565b905061177d86828787878080601f016020809104026020016040519081016040528093929190818152602001838380828437600081840152601f19601f82011690508083019250505050505050612a30565b915050949350505050565b6000611792611cb9565b6117af61179d61262b565b6001436117aa9190615b98565b612092565b10156117f0576040517f08c379a00000000000000000000000000000000000000000000000000000000081526004016117e790615c6d565b60405180910390fd5b60006118058686868680519060200120611ed4565b9050845186511461184b576040517f08c379a000000000000000000000000000000000000000000000000000000000815260040161184290615cff565b60405180910390fd5b835186511461188f576040517f08c379a000000000000000000000000000000000000000000000000000000000815260040161188690615cff565b60405180910390fd5b60008651116118d3576040517f08c379a00000000000000000000000000000000000000000000000000000000081526004016118ca90615d6b565b60405180910390fd5b6000600160008381526020019081526020016000209050611933816000016040518060200160405290816000820160009054906101000a900467ffffffffffffffff1667ffffffffffffffff1667ffffffffffffffff1681525050612d6f565b611972576040517f08c379a000000000000000000000000000000000000000000000000000000000815260040161196990615dfd565b60405180910390fd5b600061198461197f6112a2565b612d89565b61198d43612d89565b6119979190615e31565b905060006119ab6119a6610b7d565b612d89565b826119b69190615e31565b90506119ce8284600001612de090919063ffffffff16565b6119e48184600101612de090919063ffffffff16565b7f7d84a6263ae0d98d3329bd7b46bb4e8d6f98cd35a7adb45c274c8b7fd5ebd5e084611a0e61262b565b8b8b8d5167ffffffffffffffff811115611a2b57611a2a6144d7565b5b604051908082528060200260200182016040528015611a5e57816020015b6060815260200190600190039081611a495790505b508c88888e604051611a7899989796959493929190615faa565b60405180910390a183945050505050949350505050565b60006064905090565b6000611aa5848484612e0f565b90509392505050565b600080600a6000018054905014611aec57611ac9600a6122c9565b7bffffffffffffffffffffffffffffffffffffffffffffffffffffffff16611af0565b6009545b905090565b611afd610b5c565b73ffffffffffffffffffffffffffffffffffffffff16611b1b61262b565b73ffffffffffffffffffffffffffffffffffffffff1614611b71576040517f08c379a0000000000000000000000000000000000000000000000000000000008152600401611b6890615586565b60405180910390fd5b3073ffffffffffffffffffffffffffffffffffffffff16611b90610b5c565b73ffffffffffffffffffffffffffffffffffffffff1614611be0576000611bb5612633565b604051611bc39291906154bf565b604051809103902090505b80611bd96002612640565b03611bce57505b611be981612eb6565b50565b600080600760009054906101000a900473ffffffffffffffffffffffffffffffffffffffff1673ffffffffffffffffffffffffffffffffffffffff1663d45c443560086000868152602001908152602001600020546040518263ffffffff1660e01b8152600401611c5d9190614c20565b602060405180830381865afa158015611c7a573d6000803e3d6000fd5b505050506040513d601f19601f82011682018060405250810190611c9e91906156ad565b905060018114611cae5780611cb1565b60005b915050919050565b6000611cc3612f55565b905090565b600063bc197c8160e01b905095945050505050565b6000611d3a600160008481526020019081526020016000206001016040518060200160405290816000820160009054906101000a900467ffffffffffffffff1667ffffffffffffffff1667ffffffffffffffff1681525050612a22565b67ffffffffffffffff169050919050565b611d53610b5c565b73ffffffffffffffffffffffffffffffffffffffff16611d7161262b565b73ffffffffffffffffffffffffffffffffffffffff1614611dc7576040517f08c379a0000000000000000000000000000000000000000000000000000000008152600401611dbe90615586565b60405180910390fd5b3073ffffffffffffffffffffffffffffffffffffffff16611de6610b5c565b73ffffffffffffffffffffffffffffffffffffffff1614611e36576000611e0b612633565b604051611e199291906154bf565b604051809103902090505b80611e2f6002612640565b03611e2457505b6000808573ffffffffffffffffffffffffffffffffffffffff16858585604051611e619291906154bf565b60006040518083038185875af1925050503d8060008114611e9e576040519150601f19603f3d011682016040523d82523d6000602084013e611ea3565b606091505b5091509150611ecb8282604051806060016040528060288152602001616c5860289139612f5f565b50505050505050565b600084848484604051602001611eed949392919061605a565b6040516020818303038152906040528051906020012060001c9050949350505050565b6000600760009054906101000a900473ffffffffffffffffffffffffffffffffffffffff16905090565b60606040518060400160405280602081526020017f737570706f72743d627261766f2671756f72756d3d666f722c6162737461696e815250905090565b7f150214d74d59b7d1e90c73fc22ef3d991dd0a76b046543d4d80ab92d2a50328f81565b611fa3610b5c565b73ffffffffffffffffffffffffffffffffffffffff16611fc161262b565b73ffffffffffffffffffffffffffffffffffffffff1614612017576040517f08c379a000000000000000000000000000000000000000000000000000000000815260040161200e90615586565b60405180910390fd5b3073ffffffffffffffffffffffffffffffffffffffff16612036610b5c565b73ffffffffffffffffffffffffffffffffffffffff161461208657600061205b612633565b6040516120699291906154bf565b604051809103902090505b8061207f6002612640565b0361207457505b61208f81612f81565b50565b60006120a683836120a1613009565b612e0f565b905092915050565b6120b6610b5c565b73ffffffffffffffffffffffffffffffffffffffff166120d461262b565b73ffffffffffffffffffffffffffffffffffffffff161461212a576040517f08c379a000000000000000000000000000000000000000000000000000000000815260040161212190615586565b60405180910390fd5b3073ffffffffffffffffffffffffffffffffffffffff16612149610b5c565b73ffffffffffffffffffffffffffffffffffffffff161461219957600061216e612633565b60405161217c9291906154bf565b604051809103902090505b806121926002612640565b0361218757505b6121a281613020565b50565b600063f23a6e6160e01b905095945050505050565b60006121c582613065565b9050919050565b7f000000000000000000000000000000000000000000000000000000000000000081565b60007bffffffffffffffffffffffffffffffffffffffffffffffffffffffff8016821115612253576040517f08c379a000000000000000000000000000000000000000000000000000000000815260040161224a90616126565b60405180910390fd5b819050919050565b60008061227c8460000161226e43612333565b612277866121f0565b61312d565b817bffffffffffffffffffffffffffffffffffffffffffffffffffffffff169150807bffffffffffffffffffffffffffffffffffffffffffffffffffffffff169050915091509250929050565b6000808260000180549050905060008114612328576122f7836000016001836122f29190615b98565b6134b3565b60000160049054906101000a90047bffffffffffffffffffffffffffffffffffffffffffffffffffffffff1661232b565b60005b915050919050565b600063ffffffff801682111561237e576040517f08c379a0000000000000000000000000000000000000000000000000000000008152600401612375906161b8565b60405180910390fd5b819050919050565b6000600760009054906101000a900473ffffffffffffffffffffffffffffffffffffffff16905090565b60007f6e665ced000000000000000000000000000000000000000000000000000000007bffffffffffffffffffffffffffffffffffffffffffffffffffffffff1916827bffffffffffffffffffffffffffffffffffffffffffffffffffffffff191614806124235750612422826134c8565b5b9050919050565b600061243d61243761362d565b83613747565b9050919050565b60008060006124558787878761377a565b915091506124628161385c565b8192505050949350505050565b6000806001600088815260200190815260200160002090506001600781111561249b5761249a614cb6565b5b6124a488611336565b60078111156124b6576124b5614cb6565b5b146124f6576040517f08c379a00000000000000000000000000000000000000000000000000000000081526004016124ed9061624a565b60405180910390fd5b600061255587612545846000016040518060200160405290816000820160009054906101000a900467ffffffffffffffff1667ffffffffffffffff1667ffffffffffffffff1681525050612a22565b67ffffffffffffffff1686612e0f565b905061256488888884886139c2565b60008451036125c6578673ffffffffffffffffffffffffffffffffffffffff167fb8e138887d0aa13bab447e82de9d5c1777041ecd21ca36ba824ff1e6c07ddda4898884896040516125b9949392919061626a565b60405180910390a261261d565b8673ffffffffffffffffffffffffffffffffffffffff167fe2babfbac5889a709b63bb7f598b324e08bc5a4fb9ec647fb3cbc9ec07eb87128988848989604051612614959493929190616300565b60405180910390a25b809250505095945050505050565b600033905090565b3660008036915091509091565b600061264b82613bc6565b15612682576040517f3db2a12a00000000000000000000000000000000000000000000000000000000815260040160405180910390fd5b60008260000160009054906101000a9004600f0b905082600101600082600f0b600f0b815260200190815260200160002054915082600101600082600f0b600f0b815260200190815260200160002060009055600181018360000160006101000a8154816fffffffffffffffffffffffffffffffff0219169083600f0b6fffffffffffffffffffffffffffffffff16021790555050919050565b612724611a8f565b811115612766576040517f08c379a000000000000000000000000000000000000000000000000000000000815260040161275d906163f9565b60405180910390fd5b6000612770611aae565b90506000811415801561278b57506000600a60000180549050145b1561287d57600a6000016040518060400160405280600063ffffffff1681526020016127b6846121f0565b7bffffffffffffffffffffffffffffffffffffffffffffffffffffffff168152509080600181540180825580915050600190039060005260206000200160009091909190915060008201518160000160006101000a81548163ffffffff021916908363ffffffff16021790555060208201518160000160046101000a8154817bffffffffffffffffffffffffffffffffffffffffffffffffffffffff02191690837bffffffffffffffffffffffffffffffffffffffffffffffffffffffff16021790555050505b61289182600a61225b90919063ffffffff16565b50507f0553476bf02ef2726e8ce5ced78d63e26e602e4a2257b1f559418e24b463399781836040516128c4929190615b38565b60405180910390a15050565b3073ffffffffffffffffffffffffffffffffffffffff166128ef610b5c565b73ffffffffffffffffffffffffffffffffffffffff16146129ac5760005b84518110156129aa573073ffffffffffffffffffffffffffffffffffffffff168582815181106129405761293f615bcc565b5b602002602001015173ffffffffffffffffffffffffffffffffffffffff16036129995761299883828151811061297957612978615bcc565b5b6020026020010151805190602001206002613bfb90919063ffffffff16565b5b806129a390616419565b905061290d565b505b5050505050565b6129c08585858585613c77565b5050505050565b3073ffffffffffffffffffffffffffffffffffffffff166129e6610b5c565b73ffffffffffffffffffffffffffffffffffffffff1614612a1b57612a0b6002613bc6565b612a1a57612a196002613d15565b5b5b5050505050565b600081600001519050919050565b6000612a4685858585612a41613009565b61246f565b9050949350505050565b600080612a5c83613d96565b905060046007811115612a7257612a71614cb6565b5b816007811115612a8557612a84614cb6565b5b14612a935780915050612c1e565b6000600860008581526020019081526020016000205490506000801b8103612abf578192505050612c1e565b600760009054906101000a900473ffffffffffffffffffffffffffffffffffffffff1673ffffffffffffffffffffffffffffffffffffffff16632ab0f529826040518263ffffffff1660e01b8152600401612b1a9190614c20565b602060405180830381865afa158015612b37573d6000803e3d6000fd5b505050506040513d601f19601f82011682018060405250810190612b5b919061648d565b15612b6b57600792505050612c1e565b600760009054906101000a900473ffffffffffffffffffffffffffffffffffffffff1673ffffffffffffffffffffffffffffffffffffffff1663584b153e826040518263ffffffff1660e01b8152600401612bc69190614c20565b602060405180830381865afa158015612be3573d6000803e3d6000fd5b505050506040513d601f19601f82011682018060405250810190612c07919061648d565b15612c1757600592505050612c1e565b6002925050505b919050565b6000612c3185858585613eaa565b9050949350505050565b6000438210612c7f576040517f08c379a0000000000000000000000000000000000000000000000000000000008152600401612c7690616506565b60405180910390fd5b6000612c8a83612333565b90506000846000018054905090506000612caa8660000184600085613f9c565b905060008114612cfe57612ccd86600001600183612cc89190615b98565b6134b3565b60000160049054906101000a90047bffffffffffffffffffffffffffffffffffffffffffffffffffffffff16612d01565b60005b7bffffffffffffffffffffffffffffffffffffffffffffffffffffffff16935050505092915050565b7fc565b045403dc03c2eea82b81a0465edad9e2e7fc4d97e11421c209da93d7a9360045482604051612d5d929190615b38565b60405180910390a18060048190555050565b600080826000015167ffffffffffffffff16149050919050565b600067ffffffffffffffff8016821115612dd8576040517f08c379a0000000000000000000000000000000000000000000000000000000008152600401612dcf90616598565b60405180910390fd5b819050919050565b808260000160006101000a81548167ffffffffffffffff021916908367ffffffffffffffff1602179055505050565b60007f000000000000000000000000000000000000000000000000000000000000000073ffffffffffffffffffffffffffffffffffffffff16633a46b1a885856040518363ffffffff1660e01b8152600401612e6c9291906165b8565b602060405180830381865afa158015612e89573d6000803e3d6000fd5b505050506040513d601f19601f82011682018060405250810190612ead91906156ad565b90509392505050565b7f08f74ea46ef7894f65eabfb5e6e695de773a000b47c529ab559178069b226401600760009054906101000a900473ffffffffffffffffffffffffffffffffffffffff1682604051612f099291906165e1565b60405180910390a180600760006101000a81548173ffffffffffffffffffffffffffffffffffffffff021916908373ffffffffffffffffffffffffffffffffffffffff16021790555050565b6000600654905090565b60608315612f6f57829050612f7a565b612f79838361400f565b5b9392505050565b60008111612fc4576040517f08c379a0000000000000000000000000000000000000000000000000000000008152600401612fbb9061667c565b60405180910390fd5b7f7e3f7f0708a84de9203036abaa450dccc85ad5ff52f78c170f3edb55cf5e882860055482604051612ff7929190615b38565b60405180910390a18060058190555050565b606060405180602001604052806000815250905090565b7fccb45da8d5717e6c4544694297c4ba5cf151d455c9bb0ed4fc7a38411bc0546160065482604051613053929190615b38565b60405180910390a18060068190555050565b600061306f611a8f565b613078836114dd565b7f000000000000000000000000000000000000000000000000000000000000000073ffffffffffffffffffffffffffffffffffffffff16638e539e8c856040518263ffffffff1660e01b81526004016130d191906143dc565b602060405180830381865afa1580156130ee573d6000803e3d6000fd5b505050506040513d601f19601f8201168201806040525081019061311291906156ad565b61311c919061669c565b613126919061670d565b9050919050565b60008060008580549050905060008111156133c357600061315a876001846131559190615b98565b6134b3565b6040518060400160405290816000820160009054906101000a900463ffffffff1663ffffffff1663ffffffff1681526020016000820160049054906101000a90047bffffffffffffffffffffffffffffffffffffffffffffffffffffffff167bffffffffffffffffffffffffffffffffffffffffffffffffffffffff167bffffffffffffffffffffffffffffffffffffffffffffffffffffffff168152505090508563ffffffff16816000015163ffffffff16111561324e576040517f08c379a00000000000000000000000000000000000000000000000000000000081526004016132459061678a565b60405180910390fd5b8563ffffffff16816000015163ffffffff16036132d2578461327c886001856132779190615b98565b6134b3565b60000160046101000a8154817bffffffffffffffffffffffffffffffffffffffffffffffffffffffff02191690837bffffffffffffffffffffffffffffffffffffffffffffffffffffffff1602179055506133b2565b8660405180604001604052808863ffffffff168152602001877bffffffffffffffffffffffffffffffffffffffffffffffffffffffff168152509080600181540180825580915050600190039060005260206000200160009091909190915060008201518160000160006101000a81548163ffffffff021916908363ffffffff16021790555060208201518160000160046101000a8154817bffffffffffffffffffffffffffffffffffffffffffffffffffffffff02191690837bffffffffffffffffffffffffffffffffffffffffffffffffffffffff16021790555050505b8060200151859350935050506134ab565b8560405180604001604052808763ffffffff168152602001867bffffffffffffffffffffffffffffffffffffffffffffffffffffffff168152509080600181540180825580915050600190039060005260206000200160009091909190915060008201518160000160006101000a81548163ffffffff021916908363ffffffff16021790555060208201518160000160046101000a8154817bffffffffffffffffffffffffffffffffffffffffffffffffffffffff02191690837bffffffffffffffffffffffffffffffffffffffffffffffffffffffff160217905550505060008492509250505b935093915050565b60008260005281602060002001905092915050565b6000639a802a6d60e01b630342018160e01b635f398a1460e01b7f79dd796f000000000000000000000000000000000000000000000000000000001818187bffffffffffffffffffffffffffffffffffffffffffffffffffffffff1916827bffffffffffffffffffffffffffffffffffffffffffffffffffffffff191614806135ae57507f79dd796f000000000000000000000000000000000000000000000000000000007bffffffffffffffffffffffffffffffffffffffffffffffffffffffff1916827bffffffffffffffffffffffffffffffffffffffffffffffffffffffff1916145b8061361657507f4e2312e0000000000000000000000000000000000000000000000000000000007bffffffffffffffffffffffffffffffffffffffffffffffffffffffff1916827bffffffffffffffffffffffffffffffffffffffffffffffffffffffff1916145b8061362657506136258261405f565b5b9050919050565b60007f000000000000000000000000000000000000000000000000000000000000000073ffffffffffffffffffffffffffffffffffffffff163073ffffffffffffffffffffffffffffffffffffffff161480156136a957507f000000000000000000000000000000000000000000000000000000000000000046145b156136d6577f00000000000000000000000000000000000000000000000000000000000000009050613744565b6137417f00000000000000000000000000000000000000000000000000000000000000007f00000000000000000000000000000000000000000000000000000000000000007f00000000000000000000000000000000000000000000000000000000000000006140c9565b90505b90565b6000828260405160200161375c929190616822565b60405160208183030381529060405280519060200120905092915050565b6000807f7fffffffffffffffffffffffffffffff5d576e7357a4501ddfe92f46681b20a08360001c11156137b5576000600391509150613853565b6000600187878787604051600081526020016040526040516137da9493929190616859565b6020604051602081039080840390855afa1580156137fc573d6000803e3d6000fd5b505050602060405103519050600073ffffffffffffffffffffffffffffffffffffffff168173ffffffffffffffffffffffffffffffffffffffff160361384a57600060019250925050613853565b80600092509250505b94509492505050565b600060048111156138705761386f614cb6565b5b81600481111561388357613882614cb6565b5b03156139bf576001600481111561389d5761389c614cb6565b5b8160048111156138b0576138af614cb6565b5b036138f0576040517f08c379a00000000000000000000000000000000000000000000000000000000081526004016138e7906168ea565b60405180910390fd5b6002600481111561390457613903614cb6565b5b81600481111561391757613916614cb6565b5b03613957576040517f08c379a000000000000000000000000000000000000000000000000000000000815260040161394e90616956565b60405180910390fd5b6003600481111561396b5761396a614cb6565b5b81600481111561397e5761397d614cb6565b5b036139be576040517f08c379a00000000000000000000000000000000000000000000000000000000081526004016139b5906169e8565b60405180910390fd5b5b50565b6000600b600087815260200190815260200160002090508060030160008673ffffffffffffffffffffffffffffffffffffffff1673ffffffffffffffffffffffffffffffffffffffff16815260200190815260200160002060009054906101000a900460ff1615613a68576040517f08c379a0000000000000000000000000000000000000000000000000000000008152600401613a5f90616a7a565b60405180910390fd5b60018160030160008773ffffffffffffffffffffffffffffffffffffffff1673ffffffffffffffffffffffffffffffffffffffff16815260200190815260200160002060006101000a81548160ff02191690831515021790555060006002811115613ad657613ad5614cb6565b5b60ff168460ff1603613b025782816000016000828254613af69190615b04565b92505081905550613bbe565b60016002811115613b1657613b15614cb6565b5b60ff168460ff1603613b425782816001016000828254613b369190615b04565b92505081905550613bbd565b600280811115613b5557613b54614cb6565b5b60ff168460ff1603613b815782816002016000828254613b759190615b04565b92505081905550613bbc565b6040517f08c379a0000000000000000000000000000000000000000000000000000000008152600401613bb390616b0c565b60405180910390fd5b5b5b505050505050565b60008160000160009054906101000a9004600f0b600f0b8260000160109054906101000a9004600f0b600f0b13159050919050565b60008260000160109054906101000a9004600f0b90508183600101600083600f0b600f0b815260200190815260200160002081905550600181018360000160106101000a8154816fffffffffffffffffffffffffffffffff0219169083600f0b6fffffffffffffffffffffffffffffffff160217905550505050565b600760009054906101000a900473ffffffffffffffffffffffffffffffffffffffff1673ffffffffffffffffffffffffffffffffffffffff1663e38335e5348686866000876040518763ffffffff1660e01b8152600401613cdc9594939291906159b5565b6000604051808303818588803b158015613cf557600080fd5b505af1158015613d09573d6000803e3d6000fd5b50505050505050505050565b60008160000160006101000a8154816fffffffffffffffffffffffffffffffff0219169083600f0b6fffffffffffffffffffffffffffffffff16021790555060008160000160106101000a8154816fffffffffffffffffffffffffffffffff0219169083600f0b6fffffffffffffffffffffffffffffffff16021790555050565b6000806001600084815260200190815260200160002090508060020160009054906101000a900460ff1615613dcf576007915050613ea5565b8060020160019054906101000a900460ff1615613df0576002915050613ea5565b6000613dfb84611210565b905060008103613e40576040517f08c379a0000000000000000000000000000000000000000000000000000000008152600401613e3790616b78565b60405180910390fd5b438110613e5257600092505050613ea5565b6000613e5d85611cdd565b9050438110613e725760019350505050613ea5565b613e7b85614103565b8015613e8c5750613e8b8561414a565b5b15613e9d5760049350505050613ea5565b600393505050505b919050565b600080613eb986868686614175565b90506000801b600860008381526020019081526020016000205414613f9057600760009054906101000a900473ffffffffffffffffffffffffffffffffffffffff1673ffffffffffffffffffffffffffffffffffffffff1663c4d252f560086000848152602001908152602001600020546040518263ffffffff1660e01b8152600401613f469190614c20565b600060405180830381600087803b158015613f6057600080fd5b505af1158015613f74573d6000803e3d6000fd5b5050505060086000828152602001908152602001600020600090555b80915050949350505050565b60005b81831015614004576000613fb384846142ce565b90508463ffffffff16613fc687836134b3565b60000160009054906101000a900463ffffffff1663ffffffff161115613fee57809250613ffe565b600181613ffb9190615b04565b93505b50613f9f565b819050949350505050565b6000825111156140225781518083602001fd5b806040517f08c379a000000000000000000000000000000000000000000000000000000000815260040161405691906147c2565b60405180910390fd5b60007f01ffc9a7000000000000000000000000000000000000000000000000000000007bffffffffffffffffffffffffffffffffffffffffffffffffffffffff1916827bffffffffffffffffffffffffffffffffffffffffffffffffffffffff1916149050919050565b600083838346306040516020016140e4959493929190616b98565b6040516020818303038152906040528051906020012090509392505050565b600080600b600084815260200190815260200160002090508060020154816001015461412f9190615b04565b61414061413b85611210565b6121ba565b1115915050919050565b600080600b600084815260200190815260200160002090508060000154816001015411915050919050565b60008061418486868686611ed4565b9050600061419182611336565b9050600260078111156141a7576141a6614cb6565b5b8160078111156141ba576141b9614cb6565b5b141580156141ed5750600660078111156141d7576141d6614cb6565b5b8160078111156141ea576141e9614cb6565b5b14155b801561421d575060078081111561420757614206614cb6565b5b81600781111561421a57614219614cb6565b5b14155b61425c576040517f08c379a000000000000000000000000000000000000000000000000000000000815260040161425390616c37565b60405180910390fd5b600180600084815260200190815260200160002060020160016101000a81548160ff0219169083151502179055507f789cf55be980739dad1d0699b93b58e806b51c9d96619bfa8fe0a28abaa7b30c826040516142b991906143dc565b60405180910390a18192505050949350505050565b600060028284186142df919061670d565b8284166142ec9190615b04565b905092915050565b6000604051905090565b600080fd5b600080fd5b60007fffffffff0000000000000000000000000000000000000000000000000000000082169050919050565b61433d81614308565b811461434857600080fd5b50565b60008135905061435a81614334565b92915050565b600060208284031215614376576143756142fe565b5b60006143848482850161434b565b91505092915050565b60008115159050919050565b6143a28161438d565b82525050565b60006020820190506143bd6000830184614399565b92915050565b6000819050919050565b6143d6816143c3565b82525050565b60006020820190506143f160008301846143cd565b92915050565b614400816143c3565b811461440b57600080fd5b50565b60008135905061441d816143f7565b92915050565b600060ff82169050919050565b61443981614423565b811461444457600080fd5b50565b60008135905061445681614430565b92915050565b600080fd5b600080fd5b600080fd5b60008083601f8401126144815761448061445c565b5b8235905067ffffffffffffffff81111561449e5761449d614461565b5b6020830191508360018202830111156144ba576144b9614466565b5b9250929050565b600080fd5b6000601f19601f8301169050919050565b7f4e487b7100000000000000000000000000000000000000000000000000000000600052604160045260246000fd5b61450f826144c6565b810181811067ffffffffffffffff8211171561452e5761452d6144d7565b5b80604052505050565b60006145416142f4565b905061454d8282614506565b919050565b600067ffffffffffffffff82111561456d5761456c6144d7565b5b614576826144c6565b9050602081019050919050565b82818337600083830152505050565b60006145a56145a084614552565b614537565b9050828152602081018484840111156145c1576145c06144c1565b5b6145cc848285614583565b509392505050565b600082601f8301126145e9576145e861445c565b5b81356145f9848260208601614592565b91505092915050565b6000819050919050565b61461581614602565b811461462057600080fd5b50565b6000813590506146328161460c565b92915050565b60008060008060008060008060e0898b031215614658576146576142fe565b5b60006146668b828c0161440e565b98505060206146778b828c01614447565b975050604089013567ffffffffffffffff81111561469857614697614303565b5b6146a48b828c0161446b565b9650965050606089013567ffffffffffffffff8111156146c7576146c6614303565b5b6146d38b828c016145d4565b94505060806146e48b828c01614447565b93505060a06146f58b828c01614623565b92505060c06147068b828c01614623565b9150509295985092959890939650565b60006020828403121561472c5761472b6142fe565b5b600061473a8482850161440e565b91505092915050565b600081519050919050565b600082825260208201905092915050565b60005b8381101561477d578082015181840152602081019050614762565b60008484015250505050565b600061479482614743565b61479e818561474e565b93506147ae81856020860161475f565b6147b7816144c6565b840191505092915050565b600060208201905081810360008301526147dc8184614789565b905092915050565b600073ffffffffffffffffffffffffffffffffffffffff82169050919050565b600061480f826147e4565b9050919050565b61481f81614804565b811461482a57600080fd5b50565b60008135905061483c81614816565b92915050565b6000806000806080858703121561485c5761485b6142fe565b5b600061486a8782880161482d565b945050602061487b8782880161482d565b935050604061488c8782880161440e565b925050606085013567ffffffffffffffff8111156148ad576148ac614303565b5b6148b9878288016145d4565b91505092959194509250565b6148ce81614308565b82525050565b60006020820190506148e960008301846148c5565b92915050565b600067ffffffffffffffff82111561490a576149096144d7565b5b602082029050602081019050919050565b600061492e614929846148ef565b614537565b9050808382526020820190506020840283018581111561495157614950614466565b5b835b8181101561497a5780614966888261482d565b845260208401935050602081019050614953565b5050509392505050565b600082601f8301126149995761499861445c565b5b81356149a984826020860161491b565b91505092915050565b600067ffffffffffffffff8211156149cd576149cc6144d7565b5b602082029050602081019050919050565b60006149f16149ec846149b2565b614537565b90508083825260208201905060208402830185811115614a1457614a13614466565b5b835b81811015614a3d5780614a29888261440e565b845260208401935050602081019050614a16565b5050509392505050565b600082601f830112614a5c57614a5b61445c565b5b8135614a6c8482602086016149de565b91505092915050565b600067ffffffffffffffff821115614a9057614a8f6144d7565b5b602082029050602081019050919050565b6000614ab4614aaf84614a75565b614537565b90508083825260208201905060208402830185811115614ad757614ad6614466565b5b835b81811015614b1e57803567ffffffffffffffff811115614afc57614afb61445c565b5b808601614b0989826145d4565b85526020850194505050602081019050614ad9565b5050509392505050565b600082601f830112614b3d57614b3c61445c565b5b8135614b4d848260208601614aa1565b91505092915050565b60008060008060808587031215614b7057614b6f6142fe565b5b600085013567ffffffffffffffff811115614b8e57614b8d614303565b5b614b9a87828801614984565b945050602085013567ffffffffffffffff811115614bbb57614bba614303565b5b614bc787828801614a47565b935050604085013567ffffffffffffffff811115614be857614be7614303565b5b614bf487828801614b28565b9250506060614c0587828801614623565b91505092959194509250565b614c1a81614602565b82525050565b6000602082019050614c356000830184614c11565b92915050565b600080600080600060a08688031215614c5757614c566142fe565b5b6000614c658882890161440e565b9550506020614c7688828901614447565b9450506040614c8788828901614447565b9350506060614c9888828901614623565b9250506080614ca988828901614623565b9150509295509295909350565b7f4e487b7100000000000000000000000000000000000000000000000000000000600052602160045260246000fd5b60088110614cf657614cf5614cb6565b5b50565b6000819050614d0782614ce5565b919050565b6000614d1782614cf9565b9050919050565b614d2781614d0c565b82525050565b6000602082019050614d426000830184614d1e565b92915050565b60008060408385031215614d5f57614d5e6142fe565b5b6000614d6d8582860161440e565b9250506020614d7e8582860161482d565b9150509250929050565b6000606082019050614d9d60008301866143cd565b614daa60208301856143cd565b614db760408301846143cd565b949350505050565b60008060408385031215614dd657614dd56142fe565b5b6000614de48582860161440e565b9250506020614df585828601614447565b9150509250929050565b600080600080600060808688031215614e1b57614e1a6142fe565b5b6000614e298882890161440e565b9550506020614e3a88828901614447565b945050604086013567ffffffffffffffff811115614e5b57614e5a614303565b5b614e678882890161446b565b9350935050606086013567ffffffffffffffff811115614e8a57614e89614303565b5b614e96888289016145d4565b9150509295509295909350565b60008060008060608587031215614ebd57614ebc6142fe565b5b6000614ecb8782880161440e565b9450506020614edc87828801614447565b935050604085013567ffffffffffffffff811115614efd57614efc614303565b5b614f098782880161446b565b925092505092959194509250565b600067ffffffffffffffff821115614f3257614f316144d7565b5b614f3b826144c6565b9050602081019050919050565b6000614f5b614f5684614f17565b614537565b905082815260208101848484011115614f7757614f766144c1565b5b614f82848285614583565b509392505050565b600082601f830112614f9f57614f9e61445c565b5b8135614faf848260208601614f48565b91505092915050565b60008060008060808587031215614fd257614fd16142fe565b5b600085013567ffffffffffffffff811115614ff057614fef614303565b5b614ffc87828801614984565b945050602085013567ffffffffffffffff81111561501d5761501c614303565b5b61502987828801614a47565b935050604085013567ffffffffffffffff81111561504a57615049614303565b5b61505687828801614b28565b925050606085013567ffffffffffffffff81111561507757615076614303565b5b61508387828801614f8a565b91505092959194509250565b6000806000606084860312156150a8576150a76142fe565b5b60006150b68682870161482d565b93505060206150c78682870161440e565b925050604084013567ffffffffffffffff8111156150e8576150e7614303565b5b6150f4868287016145d4565b9150509250925092565b6000615109826147e4565b9050919050565b600061511b826150fe565b9050919050565b61512b81615110565b811461513657600080fd5b50565b60008135905061514881615122565b92915050565b600060208284031215615164576151636142fe565b5b600061517284828501615139565b91505092915050565b600080600080600060a08688031215615197576151966142fe565b5b60006151a58882890161482d565b95505060206151b68882890161482d565b945050604086013567ffffffffffffffff8111156151d7576151d6614303565b5b6151e388828901614a47565b935050606086013567ffffffffffffffff81111561520457615203614303565b5b61521088828901614a47565b925050608086013567ffffffffffffffff81111561523157615230614303565b5b61523d888289016145d4565b9150509295509295909350565b60008083601f8401126152605761525f61445c565b5b8235905067ffffffffffffffff81111561527d5761527c614461565b5b60208301915083600182028301111561529957615298614466565b5b9250929050565b600080600080606085870312156152ba576152b96142fe565b5b60006152c88782880161482d565b94505060206152d98782880161440e565b935050604085013567ffffffffffffffff8111156152fa576152f9614303565b5b6153068782880161524a565b925092505092959194509250565b61531d81614804565b82525050565b60006020820190506153386000830184615314565b92915050565b60008060408385031215615355576153546142fe565b5b60006153638582860161482d565b92505060206153748582860161440e565b9150509250929050565b600080600080600060a0868803121561539a576153996142fe565b5b60006153a88882890161482d565b95505060206153b98882890161482d565b94505060406153ca8882890161440e565b93505060606153db8882890161440e565b925050608086013567ffffffffffffffff8111156153fc576153fb614303565b5b615408888289016145d4565b9150509295509295909350565b6000819050919050565b600061543a615435615430846147e4565b615415565b6147e4565b9050919050565b600061544c8261541f565b9050919050565b600061545e82615441565b9050919050565b61546e81615453565b82525050565b60006020820190506154896000830184615465565b92915050565b600081905092915050565b60006154a6838561548f565b93506154b3838584614583565b82840190509392505050565b60006154cc82848661549a565b91508190509392505050565b6154e181614423565b82525050565b600060a0820190506154fc6000830188614c11565b61550960208301876143cd565b61551660408301866154d8565b6155236060830185614c11565b6155306080830184614c11565b9695505050505050565b7f476f7665726e6f723a206f6e6c79476f7665726e616e63650000000000000000600082015250565b600061557060188361474e565b915061557b8261553a565b602082019050919050565b6000602082019050818103600083015261559f81615563565b9050919050565b7f4e487b7100000000000000000000000000000000000000000000000000000000600052602260045260246000fd5b600060028204905060018216806155ed57607f821691505b602082108103615600576155ff6155a6565b5b50919050565b7f476f7665726e6f723a2070726f706f73616c206e6f742073756363657373667560008201527f6c00000000000000000000000000000000000000000000000000000000000000602082015250565b600061566260218361474e565b915061566d82615606565b604082019050919050565b6000602082019050818103600083015261569181615655565b9050919050565b6000815190506156a7816143f7565b92915050565b6000602082840312156156c3576156c26142fe565b5b60006156d184828501615698565b91505092915050565b600081519050919050565b600082825260208201905092915050565b6000819050602082019050919050565b61570f81614804565b82525050565b60006157218383615706565b60208301905092915050565b6000602082019050919050565b6000615745826156da565b61574f81856156e5565b935061575a836156f6565b8060005b8381101561578b5781516157728882615715565b975061577d8361572d565b92505060018101905061575e565b5085935050505092915050565b600081519050919050565b600082825260208201905092915050565b6000819050602082019050919050565b6157cd816143c3565b82525050565b60006157df83836157c4565b60208301905092915050565b6000602082019050919050565b600061580382615798565b61580d81856157a3565b9350615818836157b4565b8060005b8381101561584957815161583088826157d3565b975061583b836157eb565b92505060018101905061581c565b5085935050505092915050565b600081519050919050565b600082825260208201905092915050565b6000819050602082019050919050565b600081519050919050565b600082825260208201905092915050565b60006158a982615882565b6158b3818561588d565b93506158c381856020860161475f565b6158cc816144c6565b840191505092915050565b60006158e3838361589e565b905092915050565b6000602082019050919050565b600061590382615856565b61590d8185615861565b93508360208202850161591f85615872565b8060005b8581101561595b578484038952815161593c85826158d7565b9450615947836158eb565b925060208a01995050600181019050615923565b50829750879550505050505092915050565b6000819050919050565b60008160001b9050919050565b600061599f61599a6159958461596d565b615977565b614602565b9050919050565b6159af81615984565b82525050565b600060a08201905081810360008301526159cf818861573a565b905081810360208301526159e381876157f8565b905081810360408301526159f781866158f8565b9050615a0660608301856159a6565b615a136080830184614c11565b9695505050505050565b600081519050615a2c8161460c565b92915050565b600060208284031215615a4857615a476142fe565b5b6000615a5684828501615a1d565b91505092915050565b600060c0820190508181036000830152615a79818961573a565b90508181036020830152615a8d81886157f8565b90508181036040830152615aa181876158f8565b9050615ab060608301866159a6565b615abd6080830185614c11565b615aca60a08301846143cd565b979650505050505050565b7f4e487b7100000000000000000000000000000000000000000000000000000000600052601160045260246000fd5b6000615b0f826143c3565b9150615b1a836143c3565b9250828201905080821115615b3257615b31615ad5565b5b92915050565b6000604082019050615b4d60008301856143cd565b615b5a60208301846143cd565b9392505050565b6000606082019050615b766000830186614c11565b615b8360208301856143cd565b615b9060408301846154d8565b949350505050565b6000615ba3826143c3565b9150615bae836143c3565b9250828203905081811115615bc657615bc5615ad5565b5b92915050565b7f4e487b7100000000000000000000000000000000000000000000000000000000600052603260045260246000fd5b7f476f7665726e6f723a2070726f706f73657220766f7465732062656c6f77207060008201527f726f706f73616c207468726573686f6c64000000000000000000000000000000602082015250565b6000615c5760318361474e565b9150615c6282615bfb565b604082019050919050565b60006020820190508181036000830152615c8681615c4a565b9050919050565b7f476f7665726e6f723a20696e76616c69642070726f706f73616c206c656e677460008201527f6800000000000000000000000000000000000000000000000000000000000000602082015250565b6000615ce960218361474e565b9150615cf482615c8d565b604082019050919050565b60006020820190508181036000830152615d1881615cdc565b9050919050565b7f476f7665726e6f723a20656d7074792070726f706f73616c0000000000000000600082015250565b6000615d5560188361474e565b9150615d6082615d1f565b602082019050919050565b60006020820190508181036000830152615d8481615d48565b9050919050565b7f476f7665726e6f723a2070726f706f73616c20616c726561647920657869737460008201527f7300000000000000000000000000000000000000000000000000000000000000602082015250565b6000615de760218361474e565b9150615df282615d8b565b604082019050919050565b60006020820190508181036000830152615e1681615dda565b9050919050565b600067ffffffffffffffff82169050919050565b6000615e3c82615e1d565b9150615e4783615e1d565b9250828201905067ffffffffffffffff811115615e6757615e66615ad5565b5b92915050565b600081519050919050565b600082825260208201905092915050565b6000819050602082019050919050565b600082825260208201905092915050565b6000615eb582614743565b615ebf8185615e99565b9350615ecf81856020860161475f565b615ed8816144c6565b840191505092915050565b6000615eef8383615eaa565b905092915050565b6000602082019050919050565b6000615f0f82615e6d565b615f198185615e78565b935083602082028501615f2b85615e89565b8060005b85811015615f675784840389528151615f488582615ee3565b9450615f5383615ef7565b925060208a01995050600181019050615f2f565b50829750879550505050505092915050565b6000615f94615f8f615f8a84615e1d565b615415565b6143c3565b9050919050565b615fa481615f79565b82525050565b600061012082019050615fc0600083018c6143cd565b615fcd602083018b615314565b8181036040830152615fdf818a61573a565b90508181036060830152615ff381896157f8565b905081810360808301526160078188615f04565b905081810360a083015261601b81876158f8565b905061602a60c0830186615f9b565b61603760e0830185615f9b565b81810361010083015261604a8184614789565b90509a9950505050505050505050565b60006080820190508181036000830152616074818761573a565b9050818103602083015261608881866157f8565b9050818103604083015261609c81856158f8565b90506160ab6060830184614c11565b95945050505050565b7f53616665436173743a2076616c756520646f65736e27742066697420696e203260008201527f3234206269747300000000000000000000000000000000000000000000000000602082015250565b600061611060278361474e565b915061611b826160b4565b604082019050919050565b6000602082019050818103600083015261613f81616103565b9050919050565b7f53616665436173743a2076616c756520646f65736e27742066697420696e203360008201527f3220626974730000000000000000000000000000000000000000000000000000602082015250565b60006161a260268361474e565b91506161ad82616146565b604082019050919050565b600060208201905081810360008301526161d181616195565b9050919050565b7f476f7665726e6f723a20766f7465206e6f742063757272656e746c792061637460008201527f6976650000000000000000000000000000000000000000000000000000000000602082015250565b600061623460238361474e565b915061623f826161d8565b604082019050919050565b6000602082019050818103600083015261626381616227565b9050919050565b600060808201905061627f60008301876143cd565b61628c60208301866154d8565b61629960408301856143cd565b81810360608301526162ab8184614789565b905095945050505050565b600082825260208201905092915050565b60006162d282615882565b6162dc81856162b6565b93506162ec81856020860161475f565b6162f5816144c6565b840191505092915050565b600060a08201905061631560008301886143cd565b61632260208301876154d8565b61632f60408301866143cd565b81810360608301526163418185614789565b9050818103608083015261635581846162c7565b90509695505050505050565b7f476f7665726e6f72566f74657351756f72756d4672616374696f6e3a2071756f60008201527f72756d4e756d657261746f72206f7665722071756f72756d44656e6f6d696e6160208201527f746f720000000000000000000000000000000000000000000000000000000000604082015250565b60006163e360438361474e565b91506163ee82616361565b606082019050919050565b60006020820190508181036000830152616412816163d6565b9050919050565b6000616424826143c3565b91507fffffffffffffffffffffffffffffffffffffffffffffffffffffffffffffffff820361645657616455615ad5565b5b600182019050919050565b61646a8161438d565b811461647557600080fd5b50565b60008151905061648781616461565b92915050565b6000602082840312156164a3576164a26142fe565b5b60006164b184828501616478565b91505092915050565b7f436865636b706f696e74733a20626c6f636b206e6f7420796574206d696e6564600082015250565b60006164f060208361474e565b91506164fb826164ba565b602082019050919050565b6000602082019050818103600083015261651f816164e3565b9050919050565b7f53616665436173743a2076616c756520646f65736e27742066697420696e203660008201527f3420626974730000000000000000000000000000000000000000000000000000602082015250565b600061658260268361474e565b915061658d82616526565b604082019050919050565b600060208201905081810360008301526165b181616575565b9050919050565b60006040820190506165cd6000830185615314565b6165da60208301846143cd565b9392505050565b60006040820190506165f66000830185615314565b6166036020830184615314565b9392505050565b7f476f7665726e6f7253657474696e67733a20766f74696e6720706572696f642060008201527f746f6f206c6f7700000000000000000000000000000000000000000000000000602082015250565b600061666660278361474e565b91506166718261660a565b604082019050919050565b6000602082019050818103600083015261669581616659565b9050919050565b60006166a7826143c3565b91506166b2836143c3565b92508282026166c0816143c3565b915082820484148315176166d7576166d6615ad5565b5b5092915050565b7f4e487b7100000000000000000000000000000000000000000000000000000000600052601260045260246000fd5b6000616718826143c3565b9150616723836143c3565b925082616733576167326166de565b5b828204905092915050565b7f436865636b706f696e743a20696e76616c6964206b6579000000000000000000600082015250565b600061677460178361474e565b915061677f8261673e565b602082019050919050565b600060208201905081810360008301526167a381616767565b9050919050565b600081905092915050565b7f1901000000000000000000000000000000000000000000000000000000000000600082015250565b60006167eb6002836167aa565b91506167f6826167b5565b600282019050919050565b6000819050919050565b61681c61681782614602565b616801565b82525050565b600061682d826167de565b9150616839828561680b565b602082019150616849828461680b565b6020820191508190509392505050565b600060808201905061686e6000830187614c11565b61687b60208301866154d8565b6168886040830185614c11565b6168956060830184614c11565b95945050505050565b7f45434453413a20696e76616c6964207369676e61747572650000000000000000600082015250565b60006168d460188361474e565b91506168df8261689e565b602082019050919050565b60006020820190508181036000830152616903816168c7565b9050919050565b7f45434453413a20696e76616c6964207369676e6174757265206c656e67746800600082015250565b6000616940601f8361474e565b915061694b8261690a565b602082019050919050565b6000602082019050818103600083015261696f81616933565b9050919050565b7f45434453413a20696e76616c6964207369676e6174757265202773272076616c60008201527f7565000000000000000000000000000000000000000000000000000000000000602082015250565b60006169d260228361474e565b91506169dd82616976565b604082019050919050565b60006020820190508181036000830152616a01816169c5565b9050919050565b7f476f7665726e6f72566f74696e6753696d706c653a20766f746520616c72656160008201527f6479206361737400000000000000000000000000000000000000000000000000602082015250565b6000616a6460278361474e565b9150616a6f82616a08565b604082019050919050565b60006020820190508181036000830152616a9381616a57565b9050919050565b7f476f7665726e6f72566f74696e6753696d706c653a20696e76616c696420766160008201527f6c756520666f7220656e756d20566f7465547970650000000000000000000000602082015250565b6000616af660358361474e565b9150616b0182616a9a565b604082019050919050565b60006020820190508181036000830152616b2581616ae9565b9050919050565b7f476f7665726e6f723a20756e6b6e6f776e2070726f706f73616c206964000000600082015250565b6000616b62601d8361474e565b9150616b6d82616b2c565b602082019050919050565b60006020820190508181036000830152616b9181616b55565b9050919050565b600060a082019050616bad6000830188614c11565b616bba6020830187614c11565b616bc76040830186614c11565b616bd460608301856143cd565b616be16080830184615314565b9695505050505050565b7f476f7665726e6f723a2070726f706f73616c206e6f7420616374697665000000600082015250565b6000616c21601d8361474e565b9150616c2c82616beb565b602082019050919050565b60006020820190508181036000830152616c5081616c14565b905091905056fe476f7665726e6f723a2072656c617920726576657274656420776974686f7574206d657373616765a2646970667358221220303f0e7ce922ca5ff4a8580af0cb3d294243bbff9322ba56c4bc6c24e0fcdaf264736f6c63430008110033",
  "linkReferences": {},
  "deployedLinkReferences": {}
}