{
  "_format": "hh-sol-artifact-1",
  "contractName": "ERC1155SupplyMock",
  "sourceName": "contracts/mocks/ERC1155SupplyMock.sol",
  "abi": [
    {
      "inputs": [
        {
          "internalType": "string",
          "name": "uri",
          "type": "string"
        }
      ],
      "stateMutability": "nonpayable",
      "type": "constructor"
    },
    {
      "anonymous": false,
      "inputs": [
        {
          "indexed": true,
          "internalType": "address",
          "name": "account",
          "type": "address"
        },
        {
          "indexed": true,
          "internalType": "address",
          "name": "operator",
          "type": "address"
        },
        {
          "indexed": false,
          "internalType": "bool",
          "name": "approved",
          "type": "bool"
        }
      ],
      "name": "ApprovalForAll",
      "type": "event"
    },
    {
      "anonymous": false,
      "inputs": [
        {
          "indexed": true,
          "internalType": "address",
          "name": "operator",
          "type": "address"
        },
        {
          "indexed": true,
          "internalType": "address",
          "name": "from",
          "type": "address"
        },
        {
          "indexed": true,
          "internalType": "address",
          "name": "to",
          "type": "address"
        },
        {
          "indexed": false,
          "internalType": "uint256[]",
          "name": "ids",
          "type": "uint256[]"
        },
        {
          "indexed": false,
          "internalType": "uint256[]",
          "name": "values",
          "type": "uint256[]"
        }
      ],
      "name": "TransferBatch",
      "type": "event"
    },
    {
      "anonymous": false,
      "inputs": [
        {
          "indexed": true,
          "internalType": "address",
          "name": "operator",
          "type": "address"
        },
        {
          "indexed": true,
          "internalType": "address",
          "name": "from",
          "type": "address"
        },
        {
          "indexed": true,
          "internalType": "address",
          "name": "to",
          "type": "address"
        },
        {
          "indexed": false,
          "internalType": "uint256",
          "name": "id",
          "type": "uint256"
        },
        {
          "indexed": false,
          "internalType": "uint256",
          "name": "value",
          "type": "uint256"
        }
      ],
      "name": "TransferSingle",
      "type": "event"
    },
    {
      "anonymous": false,
      "inputs": [
        {
          "indexed": false,
          "internalType": "string",
          "name": "value",
          "type": "string"
        },
        {
          "indexed": true,
          "internalType": "uint256",
          "name": "id",
          "type": "uint256"
        }
      ],
      "name": "URI",
      "type": "event"
    },
    {
      "inputs": [
        {
          "internalType": "address",
          "name": "account",
          "type": "address"
        },
        {
          "internalType": "uint256",
          "name": "id",
          "type": "uint256"
        }
      ],
      "name": "balanceOf",
      "outputs": [
        {
          "internalType": "uint256",
          "name": "",
          "type": "uint256"
        }
      ],
      "stateMutability": "view",
      "type": "function"
    },
    {
      "inputs": [
        {
          "internalType": "address[]",
          "name": "accounts",
          "type": "address[]"
        },
        {
          "internalType": "uint256[]",
          "name": "ids",
          "type": "uint256[]"
        }
      ],
      "name": "balanceOfBatch",
      "outputs": [
        {
          "internalType": "uint256[]",
          "name": "",
          "type": "uint256[]"
        }
      ],
      "stateMutability": "view",
      "type": "function"
    },
    {
      "inputs": [
        {
          "internalType": "address",
          "name": "owner",
          "type": "address"
        },
        {
          "internalType": "uint256",
          "name": "id",
          "type": "uint256"
        },
        {
          "internalType": "uint256",
          "name": "value",
          "type": "uint256"
        }
      ],
      "name": "burn",
      "outputs": [],
      "stateMutability": "nonpayable",
      "type": "function"
    },
    {
      "inputs": [
        {
          "internalType": "address",
          "name": "owner",
          "type": "address"
        },
        {
          "internalType": "uint256[]",
          "name": "ids",
          "type": "uint256[]"
        },
        {
          "internalType": "uint256[]",
          "name": "values",
          "type": "uint256[]"
        }
      ],
      "name": "burnBatch",
      "outputs": [],
      "stateMutability": "nonpayable",
      "type": "function"
    },
    {
      "inputs": [
        {
          "internalType": "uint256",
          "name": "id",
          "type": "uint256"
        }
      ],
      "name": "exists",
      "outputs": [
        {
          "internalType": "bool",
          "name": "",
          "type": "bool"
        }
      ],
      "stateMutability": "view",
      "type": "function"
    },
    {
      "inputs": [
        {
          "internalType": "address",
          "name": "account",
          "type": "address"
        },
        {
          "internalType": "address",
          "name": "operator",
          "type": "address"
        }
      ],
      "name": "isApprovedForAll",
      "outputs": [
        {
          "internalType": "bool",
          "name": "",
          "type": "bool"
        }
      ],
      "stateMutability": "view",
      "type": "function"
    },
    {
      "inputs": [
        {
          "internalType": "address",
          "name": "to",
          "type": "address"
        },
        {
          "internalType": "uint256",
          "name": "id",
          "type": "uint256"
        },
        {
          "internalType": "uint256",
          "name": "value",
          "type": "uint256"
        },
        {
          "internalType": "bytes",
          "name": "data",
          "type": "bytes"
        }
      ],
      "name": "mint",
      "outputs": [],
      "stateMutability": "nonpayable",
      "type": "function"
    },
    {
      "inputs": [
        {
          "internalType": "address",
          "name": "to",
          "type": "address"
        },
        {
          "internalType": "uint256[]",
          "name": "ids",
          "type": "uint256[]"
        },
        {
          "internalType": "uint256[]",
          "name": "values",
          "type": "uint256[]"
        },
        {
          "internalType": "bytes",
          "name": "data",
          "type": "bytes"
        }
      ],
      "name": "mintBatch",
      "outputs": [],
      "stateMutability": "nonpayable",
      "type": "function"
    },
    {
      "inputs": [
        {
          "internalType": "address",
          "name": "from",
          "type": "address"
        },
        {
          "internalType": "address",
          "name": "to",
          "type": "address"
        },
        {
          "internalType": "uint256[]",
          "name": "ids",
          "type": "uint256[]"
        },
        {
          "internalType": "uint256[]",
          "name": "amounts",
          "type": "uint256[]"
        },
        {
          "internalType": "bytes",
          "name": "data",
          "type": "bytes"
        }
      ],
      "name": "safeBatchTransferFrom",
      "outputs": [],
      "stateMutability": "nonpayable",
      "type": "function"
    },
    {
      "inputs": [
        {
          "internalType": "address",
          "name": "from",
          "type": "address"
        },
        {
          "internalType": "address",
          "name": "to",
          "type": "address"
        },
        {
          "internalType": "uint256",
          "name": "id",
          "type": "uint256"
        },
        {
          "internalType": "uint256",
          "name": "amount",
          "type": "uint256"
        },
        {
          "internalType": "bytes",
          "name": "data",
          "type": "bytes"
        }
      ],
      "name": "safeTransferFrom",
      "outputs": [],
      "stateMutability": "nonpayable",
      "type": "function"
    },
    {
      "inputs": [
        {
          "internalType": "address",
          "name": "operator",
          "type": "address"
        },
        {
          "internalType": "bool",
          "name": "approved",
          "type": "bool"
        }
      ],
      "name": "setApprovalForAll",
      "outputs": [],
      "stateMutability": "nonpayable",
      "type": "function"
    },
    {
      "inputs": [
        {
          "internalType": "string",
          "name": "newuri",
          "type": "string"
        }
      ],
      "name": "setURI",
      "outputs": [],
      "stateMutability": "nonpayable",
      "type": "function"
    },
    {
      "inputs": [
        {
          "internalType": "bytes4",
          "name": "interfaceId",
          "type": "bytes4"
        }
      ],
      "name": "supportsInterface",
      "outputs": [
        {
          "internalType": "bool",
          "name": "",
          "type": "bool"
        }
      ],
      "stateMutability": "view",
      "type": "function"
    },
    {
      "inputs": [
        {
          "internalType": "uint256",
          "name": "id",
          "type": "uint256"
        }
      ],
      "name": "totalSupply",
      "outputs": [
        {
          "internalType": "uint256",
          "name": "",
          "type": "uint256"
        }
      ],
      "stateMutability": "view",
      "type": "function"
    },
    {
      "inputs": [
        {
          "internalType": "uint256",
          "name": "",
          "type": "uint256"
        }
      ],
      "name": "uri",
      "outputs": [
        {
          "internalType": "string",
          "name": "",
          "type": "string"
        }
      ],
      "stateMutability": "view",
      "type": "function"
    }
  ],
  "bytecode": "0x60806040523480156200001157600080fd5b5060405162003f1438038062003f148339818101604052810190620000379190620001fb565b80806200004a816200005360201b60201c565b5050506200057e565b806002908162000064919062000497565b5050565b6000604051905090565b600080fd5b600080fd5b600080fd5b600080fd5b6000601f19601f8301169050919050565b7f4e487b7100000000000000000000000000000000000000000000000000000000600052604160045260246000fd5b620000d18262000086565b810181811067ffffffffffffffff82111715620000f357620000f262000097565b5b80604052505050565b60006200010862000068565b9050620001168282620000c6565b919050565b600067ffffffffffffffff82111562000139576200013862000097565b5b620001448262000086565b9050602081019050919050565b60005b838110156200017157808201518184015260208101905062000154565b60008484015250505050565b6000620001946200018e846200011b565b620000fc565b905082815260208101848484011115620001b357620001b262000081565b5b620001c084828562000151565b509392505050565b600082601f830112620001e057620001df6200007c565b5b8151620001f28482602086016200017d565b91505092915050565b60006020828403121562000214576200021362000072565b5b600082015167ffffffffffffffff81111562000235576200023462000077565b5b6200024384828501620001c8565b91505092915050565b600081519050919050565b7f4e487b7100000000000000000000000000000000000000000000000000000000600052602260045260246000fd5b600060028204905060018216806200029f57607f821691505b602082108103620002b557620002b462000257565b5b50919050565b60008190508160005260206000209050919050565b60006020601f8301049050919050565b600082821b905092915050565b6000600883026200031f7fffffffffffffffffffffffffffffffffffffffffffffffffffffffffffffffff82620002e0565b6200032b8683620002e0565b95508019841693508086168417925050509392505050565b6000819050919050565b6000819050919050565b600062000378620003726200036c8462000343565b6200034d565b62000343565b9050919050565b6000819050919050565b620003948362000357565b620003ac620003a3826200037f565b848454620002ed565b825550505050565b600090565b620003c3620003b4565b620003d081848462000389565b505050565b5b81811015620003f857620003ec600082620003b9565b600181019050620003d6565b5050565b601f82111562000447576200041181620002bb565b6200041c84620002d0565b810160208510156200042c578190505b620004446200043b85620002d0565b830182620003d5565b50505b505050565b600082821c905092915050565b60006200046c600019846008026200044c565b1980831691505092915050565b600062000487838362000459565b9150826002028217905092915050565b620004a2826200024c565b67ffffffffffffffff811115620004be57620004bd62000097565b5b620004ca825462000286565b620004d7828285620003fc565b600060209050601f8311600181146200050f5760008415620004fa578287015190505b62000506858262000479565b86555062000576565b601f1984166200051f86620002bb565b60005b82811015620005495784890151825560018201915060208501945060208101905062000522565b8683101562000569578489015162000565601f89168262000459565b8355505b6001600288020188555050505b505050505050565b613986806200058e6000396000f3fe608060405234801561001057600080fd5b50600436106100f45760003560e01c80634f558e7911610097578063bd85b03911610066578063bd85b03914610291578063e985e9c5146102c1578063f242432a146102f1578063f5298aca1461030d576100f4565b80634f558e791461020d5780636b20c4541461023d578063731133e914610259578063a22cb46514610275576100f4565b80630e89341c116100d35780630e89341c146101755780631f7fdffa146101a55780632eb2c2d6146101c15780634e1273f4146101dd576100f4565b8062fdd58e146100f957806301ffc9a71461012957806302fe530514610159575b600080fd5b610113600480360381019061010e9190612073565b610329565b60405161012091906120c2565b60405180910390f35b610143600480360381019061013e9190612135565b6103f1565b604051610150919061217d565b60405180910390f35b610173600480360381019061016e91906122de565b6104d3565b005b61018f600480360381019061018a9190612327565b6104df565b60405161019c91906123d3565b60405180910390f35b6101bf60048036038101906101ba919061255e565b610573565b005b6101db60048036038101906101d69190612619565b610585565b005b6101f760048036038101906101f291906127ab565b610626565b60405161020491906128e1565b60405180910390f35b61022760048036038101906102229190612327565b61073f565b604051610234919061217d565b60405180910390f35b61025760048036038101906102529190612903565b610753565b005b610273600480360381019061026e919061298e565b610763565b005b61028f600480360381019061028a9190612a3d565b610775565b005b6102ab60048036038101906102a69190612327565b61078b565b6040516102b891906120c2565b60405180910390f35b6102db60048036038101906102d69190612a7d565b6107a8565b6040516102e8919061217d565b60405180910390f35b61030b60048036038101906103069190612abd565b61083c565b005b61032760048036038101906103229190612b54565b6108dd565b005b60008073ffffffffffffffffffffffffffffffffffffffff168373ffffffffffffffffffffffffffffffffffffffff1603610399576040517f08c379a000000000000000000000000000000000000000000000000000000000815260040161039090612c19565b60405180910390fd5b60008083815260200190815260200160002060008473ffffffffffffffffffffffffffffffffffffffff1673ffffffffffffffffffffffffffffffffffffffff16815260200190815260200160002054905092915050565b60007fd9b67a26000000000000000000000000000000000000000000000000000000007bffffffffffffffffffffffffffffffffffffffffffffffffffffffff1916827bffffffffffffffffffffffffffffffffffffffffffffffffffffffff191614806104bc57507f0e89341c000000000000000000000000000000000000000000000000000000007bffffffffffffffffffffffffffffffffffffffffffffffffffffffff1916827bffffffffffffffffffffffffffffffffffffffffffffffffffffffff1916145b806104cc57506104cb826108ed565b5b9050919050565b6104dc81610957565b50565b6060600280546104ee90612c68565b80601f016020809104026020016040519081016040528092919081815260200182805461051a90612c68565b80156105675780601f1061053c57610100808354040283529160200191610567565b820191906000526020600020905b81548152906001019060200180831161054a57829003601f168201915b50505050509050919050565b61057f8484848461096a565b50505050565b61058d610b96565b73ffffffffffffffffffffffffffffffffffffffff168573ffffffffffffffffffffffffffffffffffffffff1614806105d357506105d2856105cd610b96565b6107a8565b5b610612576040517f08c379a000000000000000000000000000000000000000000000000000000000815260040161060990612d0b565b60405180910390fd5b61061f8585858585610b9e565b5050505050565b6060815183511461066c576040517f08c379a000000000000000000000000000000000000000000000000000000000815260040161066390612d9d565b60405180910390fd5b6000835167ffffffffffffffff811115610689576106886121b3565b5b6040519080825280602002602001820160405280156106b75781602001602082028036833780820191505090505b50905060005b8451811015610734576107048582815181106106dc576106db612dbd565b5b60200260200101518583815181106106f7576106f6612dbd565b5b6020026020010151610329565b82828151811061071757610716612dbd565b5b6020026020010181815250508061072d90612e1b565b90506106bd565b508091505092915050565b60008061074b8361078b565b119050919050565b61075e838383610ebf565b505050565b61076f8484848461118d565b50505050565b610787610780610b96565b838361133d565b5050565b600060036000838152602001908152602001600020549050919050565b6000600160008473ffffffffffffffffffffffffffffffffffffffff1673ffffffffffffffffffffffffffffffffffffffff16815260200190815260200160002060008373ffffffffffffffffffffffffffffffffffffffff1673ffffffffffffffffffffffffffffffffffffffff16815260200190815260200160002060009054906101000a900460ff16905092915050565b610844610b96565b73ffffffffffffffffffffffffffffffffffffffff168573ffffffffffffffffffffffffffffffffffffffff16148061088a575061088985610884610b96565b6107a8565b5b6108c9576040517f08c379a00000000000000000000000000000000000000000000000000000000081526004016108c090612d0b565b60405180910390fd5b6108d685858585856114a9565b5050505050565b6108e8838383611744565b505050565b60007f01ffc9a7000000000000000000000000000000000000000000000000000000007bffffffffffffffffffffffffffffffffffffffffffffffffffffffff1916827bffffffffffffffffffffffffffffffffffffffffffffffffffffffff1916149050919050565b8060029081610966919061300f565b5050565b600073ffffffffffffffffffffffffffffffffffffffff168473ffffffffffffffffffffffffffffffffffffffff16036109d9576040517f08c379a00000000000000000000000000000000000000000000000000000000081526004016109d090613153565b60405180910390fd5b8151835114610a1d576040517f08c379a0000000000000000000000000000000000000000000000000000000008152600401610a14906131e5565b60405180910390fd5b6000610a27610b96565b9050610a388160008787878761198a565b60005b8451811015610af157838181518110610a5757610a56612dbd565b5b6020026020010151600080878481518110610a7557610a74612dbd565b5b6020026020010151815260200190815260200160002060008873ffffffffffffffffffffffffffffffffffffffff1673ffffffffffffffffffffffffffffffffffffffff1681526020019081526020016000206000828254610ad79190613205565b925050819055508080610ae990612e1b565b915050610a3b565b508473ffffffffffffffffffffffffffffffffffffffff16600073ffffffffffffffffffffffffffffffffffffffff168273ffffffffffffffffffffffffffffffffffffffff167f4a39dc06d4c0dbc64b70af90fd698a233a518aa5d07e595d983b8c0526c8f7fb8787604051610b69929190613239565b60405180910390a4610b80816000878787876119a0565b610b8f816000878787876119a8565b5050505050565b600033905090565b8151835114610be2576040517f08c379a0000000000000000000000000000000000000000000000000000000008152600401610bd9906131e5565b60405180910390fd5b600073ffffffffffffffffffffffffffffffffffffffff168473ffffffffffffffffffffffffffffffffffffffff1603610c51576040517f08c379a0000000000000000000000000000000000000000000000000000000008152600401610c48906132e2565b60405180910390fd5b6000610c5b610b96565b9050610c6b81878787878761198a565b60005b8451811015610e1c576000858281518110610c8c57610c8b612dbd565b5b602002602001015190506000858381518110610cab57610caa612dbd565b5b60200260200101519050600080600084815260200190815260200160002060008b73ffffffffffffffffffffffffffffffffffffffff1673ffffffffffffffffffffffffffffffffffffffff16815260200190815260200160002054905081811015610d4c576040517f08c379a0000000000000000000000000000000000000000000000000000000008152600401610d4390613374565b60405180910390fd5b81810360008085815260200190815260200160002060008c73ffffffffffffffffffffffffffffffffffffffff1673ffffffffffffffffffffffffffffffffffffffff168152602001908152602001600020819055508160008085815260200190815260200160002060008b73ffffffffffffffffffffffffffffffffffffffff1673ffffffffffffffffffffffffffffffffffffffff1681526020019081526020016000206000828254610e019190613205565b9250508190555050505080610e1590612e1b565b9050610c6e565b508473ffffffffffffffffffffffffffffffffffffffff168673ffffffffffffffffffffffffffffffffffffffff168273ffffffffffffffffffffffffffffffffffffffff167f4a39dc06d4c0dbc64b70af90fd698a233a518aa5d07e595d983b8c0526c8f7fb8787604051610e93929190613239565b60405180910390a4610ea98187878787876119a0565b610eb78187878787876119a8565b505050505050565b600073ffffffffffffffffffffffffffffffffffffffff168373ffffffffffffffffffffffffffffffffffffffff1603610f2e576040517f08c379a0000000000000000000000000000000000000000000000000000000008152600401610f2590613406565b60405180910390fd5b8051825114610f72576040517f08c379a0000000000000000000000000000000000000000000000000000000008152600401610f69906131e5565b60405180910390fd5b6000610f7c610b96565b9050610f9c8185600086866040518060200160405280600081525061198a565b60005b83518110156110e9576000848281518110610fbd57610fbc612dbd565b5b602002602001015190506000848381518110610fdc57610fdb612dbd565b5b60200260200101519050600080600084815260200190815260200160002060008973ffffffffffffffffffffffffffffffffffffffff1673ffffffffffffffffffffffffffffffffffffffff1681526020019081526020016000205490508181101561107d576040517f08c379a000000000000000000000000000000000000000000000000000000000815260040161107490613498565b60405180910390fd5b81810360008085815260200190815260200160002060008a73ffffffffffffffffffffffffffffffffffffffff1673ffffffffffffffffffffffffffffffffffffffff1681526020019081526020016000208190555050505080806110e190612e1b565b915050610f9f565b50600073ffffffffffffffffffffffffffffffffffffffff168473ffffffffffffffffffffffffffffffffffffffff168273ffffffffffffffffffffffffffffffffffffffff167f4a39dc06d4c0dbc64b70af90fd698a233a518aa5d07e595d983b8c0526c8f7fb8686604051611161929190613239565b60405180910390a4611187818560008686604051806020016040528060008152506119a0565b50505050565b600073ffffffffffffffffffffffffffffffffffffffff168473ffffffffffffffffffffffffffffffffffffffff16036111fc576040517f08c379a00000000000000000000000000000000000000000000000000000000081526004016111f390613153565b60405180910390fd5b6000611206610b96565b9050600061121385611b7f565b9050600061122085611b7f565b90506112318360008985858961198a565b8460008088815260200190815260200160002060008973ffffffffffffffffffffffffffffffffffffffff1673ffffffffffffffffffffffffffffffffffffffff16815260200190815260200160002060008282546112909190613205565b925050819055508673ffffffffffffffffffffffffffffffffffffffff16600073ffffffffffffffffffffffffffffffffffffffff168473ffffffffffffffffffffffffffffffffffffffff167fc3d58168c5ae7397731d063d5bbf3d657854427343f4c083240f7aacaa2d0f62898960405161130e9291906134b8565b60405180910390a4611325836000898585896119a0565b61133483600089898989611bf9565b50505050505050565b8173ffffffffffffffffffffffffffffffffffffffff168373ffffffffffffffffffffffffffffffffffffffff16036113ab576040517f08c379a00000000000000000000000000000000000000000000000000000000081526004016113a290613553565b60405180910390fd5b80600160008573ffffffffffffffffffffffffffffffffffffffff1673ffffffffffffffffffffffffffffffffffffffff16815260200190815260200160002060008473ffffffffffffffffffffffffffffffffffffffff1673ffffffffffffffffffffffffffffffffffffffff16815260200190815260200160002060006101000a81548160ff0219169083151502179055508173ffffffffffffffffffffffffffffffffffffffff168373ffffffffffffffffffffffffffffffffffffffff167f17307eab39ab6107e8899845ad3d59bd9653f200f220920489ca2b5937696c318360405161149c919061217d565b60405180910390a3505050565b600073ffffffffffffffffffffffffffffffffffffffff168473ffffffffffffffffffffffffffffffffffffffff1603611518576040517f08c379a000000000000000000000000000000000000000000000000000000000815260040161150f906132e2565b60405180910390fd5b6000611522610b96565b9050600061152f85611b7f565b9050600061153c85611b7f565b905061154c83898985858961198a565b600080600088815260200190815260200160002060008a73ffffffffffffffffffffffffffffffffffffffff1673ffffffffffffffffffffffffffffffffffffffff168152602001908152602001600020549050858110156115e3576040517f08c379a00000000000000000000000000000000000000000000000000000000081526004016115da90613374565b60405180910390fd5b85810360008089815260200190815260200160002060008b73ffffffffffffffffffffffffffffffffffffffff1673ffffffffffffffffffffffffffffffffffffffff168152602001908152602001600020819055508560008089815260200190815260200160002060008a73ffffffffffffffffffffffffffffffffffffffff1673ffffffffffffffffffffffffffffffffffffffff16815260200190815260200160002060008282546116989190613205565b925050819055508773ffffffffffffffffffffffffffffffffffffffff168973ffffffffffffffffffffffffffffffffffffffff168573ffffffffffffffffffffffffffffffffffffffff167fc3d58168c5ae7397731d063d5bbf3d657854427343f4c083240f7aacaa2d0f628a8a6040516117159291906134b8565b60405180910390a461172b848a8a86868a6119a0565b611739848a8a8a8a8a611bf9565b505050505050505050565b600073ffffffffffffffffffffffffffffffffffffffff168373ffffffffffffffffffffffffffffffffffffffff16036117b3576040517f08c379a00000000000000000000000000000000000000000000000000000000081526004016117aa90613406565b60405180910390fd5b60006117bd610b96565b905060006117ca84611b7f565b905060006117d784611b7f565b90506117f78387600085856040518060200160405280600081525061198a565b600080600087815260200190815260200160002060008873ffffffffffffffffffffffffffffffffffffffff1673ffffffffffffffffffffffffffffffffffffffff1681526020019081526020016000205490508481101561188e576040517f08c379a000000000000000000000000000000000000000000000000000000000815260040161188590613498565b60405180910390fd5b84810360008088815260200190815260200160002060008973ffffffffffffffffffffffffffffffffffffffff1673ffffffffffffffffffffffffffffffffffffffff16815260200190815260200160002081905550600073ffffffffffffffffffffffffffffffffffffffff168773ffffffffffffffffffffffffffffffffffffffff168573ffffffffffffffffffffffffffffffffffffffff167fc3d58168c5ae7397731d063d5bbf3d657854427343f4c083240f7aacaa2d0f62898960405161195b9291906134b8565b60405180910390a4611981848860008686604051806020016040528060008152506119a0565b50505050505050565b611998868686868686611dd0565b505050505050565b505050505050565b6119c78473ffffffffffffffffffffffffffffffffffffffff16611fa0565b15611b77578373ffffffffffffffffffffffffffffffffffffffff1663bc197c8187878686866040518663ffffffff1660e01b8152600401611a0d9594939291906135d7565b6020604051808303816000875af1925050508015611a4957506040513d601f19601f82011682018060405250810190611a469190613654565b60015b611aee57611a5561368e565b806308c379a003611ab15750611a696136b0565b80611a745750611ab3565b806040517f08c379a0000000000000000000000000000000000000000000000000000000008152600401611aa891906123d3565b60405180910390fd5b505b6040517f08c379a0000000000000000000000000000000000000000000000000000000008152600401611ae5906137b2565b60405180910390fd5b63bc197c8160e01b7bffffffffffffffffffffffffffffffffffffffffffffffffffffffff1916817bffffffffffffffffffffffffffffffffffffffffffffffffffffffff191614611b75576040517f08c379a0000000000000000000000000000000000000000000000000000000008152600401611b6c90613844565b60405180910390fd5b505b505050505050565b60606000600167ffffffffffffffff811115611b9e57611b9d6121b3565b5b604051908082528060200260200182016040528015611bcc5781602001602082028036833780820191505090505b5090508281600081518110611be457611be3612dbd565b5b60200260200101818152505080915050919050565b611c188473ffffffffffffffffffffffffffffffffffffffff16611fa0565b15611dc8578373ffffffffffffffffffffffffffffffffffffffff1663f23a6e6187878686866040518663ffffffff1660e01b8152600401611c5e959493929190613864565b6020604051808303816000875af1925050508015611c9a57506040513d601f19601f82011682018060405250810190611c979190613654565b60015b611d3f57611ca661368e565b806308c379a003611d025750611cba6136b0565b80611cc55750611d04565b806040517f08c379a0000000000000000000000000000000000000000000000000000000008152600401611cf991906123d3565b60405180910390fd5b505b6040517f08c379a0000000000000000000000000000000000000000000000000000000008152600401611d36906137b2565b60405180910390fd5b63f23a6e6160e01b7bffffffffffffffffffffffffffffffffffffffffffffffffffffffff1916817bffffffffffffffffffffffffffffffffffffffffffffffffffffffff191614611dc6576040517f08c379a0000000000000000000000000000000000000000000000000000000008152600401611dbd90613844565b60405180910390fd5b505b505050505050565b611dde868686868686611fc3565b600073ffffffffffffffffffffffffffffffffffffffff168573ffffffffffffffffffffffffffffffffffffffff1603611e8f5760005b8351811015611e8d57828181518110611e3157611e30612dbd565b5b602002602001015160036000868481518110611e5057611e4f612dbd565b5b602002602001015181526020019081526020016000206000828254611e759190613205565b9250508190555080611e8690612e1b565b9050611e15565b505b600073ffffffffffffffffffffffffffffffffffffffff168473ffffffffffffffffffffffffffffffffffffffff1603611f985760005b8351811015611f96576000848281518110611ee457611ee3612dbd565b5b602002602001015190506000848381518110611f0357611f02612dbd565b5b6020026020010151905060006003600084815260200190815260200160002054905081811015611f68576040517f08c379a0000000000000000000000000000000000000000000000000000000008152600401611f5f90613930565b60405180910390fd5b818103600360008581526020019081526020016000208190555050505080611f8f90612e1b565b9050611ec6565b505b505050505050565b6000808273ffffffffffffffffffffffffffffffffffffffff163b119050919050565b505050505050565b6000604051905090565b600080fd5b600080fd5b600073ffffffffffffffffffffffffffffffffffffffff82169050919050565b600061200a82611fdf565b9050919050565b61201a81611fff565b811461202557600080fd5b50565b60008135905061203781612011565b92915050565b6000819050919050565b6120508161203d565b811461205b57600080fd5b50565b60008135905061206d81612047565b92915050565b6000806040838503121561208a57612089611fd5565b5b600061209885828601612028565b92505060206120a98582860161205e565b9150509250929050565b6120bc8161203d565b82525050565b60006020820190506120d760008301846120b3565b92915050565b60007fffffffff0000000000000000000000000000000000000000000000000000000082169050919050565b612112816120dd565b811461211d57600080fd5b50565b60008135905061212f81612109565b92915050565b60006020828403121561214b5761214a611fd5565b5b600061215984828501612120565b91505092915050565b60008115159050919050565b61217781612162565b82525050565b6000602082019050612192600083018461216e565b92915050565b600080fd5b600080fd5b6000601f19601f8301169050919050565b7f4e487b7100000000000000000000000000000000000000000000000000000000600052604160045260246000fd5b6121eb826121a2565b810181811067ffffffffffffffff8211171561220a576122096121b3565b5b80604052505050565b600061221d611fcb565b905061222982826121e2565b919050565b600067ffffffffffffffff821115612249576122486121b3565b5b612252826121a2565b9050602081019050919050565b82818337600083830152505050565b600061228161227c8461222e565b612213565b90508281526020810184848401111561229d5761229c61219d565b5b6122a884828561225f565b509392505050565b600082601f8301126122c5576122c4612198565b5b81356122d584826020860161226e565b91505092915050565b6000602082840312156122f4576122f3611fd5565b5b600082013567ffffffffffffffff81111561231257612311611fda565b5b61231e848285016122b0565b91505092915050565b60006020828403121561233d5761233c611fd5565b5b600061234b8482850161205e565b91505092915050565b600081519050919050565b600082825260208201905092915050565b60005b8381101561238e578082015181840152602081019050612373565b60008484015250505050565b60006123a582612354565b6123af818561235f565b93506123bf818560208601612370565b6123c8816121a2565b840191505092915050565b600060208201905081810360008301526123ed818461239a565b905092915050565b600067ffffffffffffffff8211156124105761240f6121b3565b5b602082029050602081019050919050565b600080fd5b6000612439612434846123f5565b612213565b9050808382526020820190506020840283018581111561245c5761245b612421565b5b835b818110156124855780612471888261205e565b84526020840193505060208101905061245e565b5050509392505050565b600082601f8301126124a4576124a3612198565b5b81356124b4848260208601612426565b91505092915050565b600067ffffffffffffffff8211156124d8576124d76121b3565b5b6124e1826121a2565b9050602081019050919050565b60006125016124fc846124bd565b612213565b90508281526020810184848401111561251d5761251c61219d565b5b61252884828561225f565b509392505050565b600082601f83011261254557612544612198565b5b81356125558482602086016124ee565b91505092915050565b6000806000806080858703121561257857612577611fd5565b5b600061258687828801612028565b945050602085013567ffffffffffffffff8111156125a7576125a6611fda565b5b6125b38782880161248f565b935050604085013567ffffffffffffffff8111156125d4576125d3611fda565b5b6125e08782880161248f565b925050606085013567ffffffffffffffff81111561260157612600611fda565b5b61260d87828801612530565b91505092959194509250565b600080600080600060a0868803121561263557612634611fd5565b5b600061264388828901612028565b955050602061265488828901612028565b945050604086013567ffffffffffffffff81111561267557612674611fda565b5b6126818882890161248f565b935050606086013567ffffffffffffffff8111156126a2576126a1611fda565b5b6126ae8882890161248f565b925050608086013567ffffffffffffffff8111156126cf576126ce611fda565b5b6126db88828901612530565b9150509295509295909350565b600067ffffffffffffffff821115612703576127026121b3565b5b602082029050602081019050919050565b6000612727612722846126e8565b612213565b9050808382526020820190506020840283018581111561274a57612749612421565b5b835b81811015612773578061275f8882612028565b84526020840193505060208101905061274c565b5050509392505050565b600082601f83011261279257612791612198565b5b81356127a2848260208601612714565b91505092915050565b600080604083850312156127c2576127c1611fd5565b5b600083013567ffffffffffffffff8111156127e0576127df611fda565b5b6127ec8582860161277d565b925050602083013567ffffffffffffffff81111561280d5761280c611fda565b5b6128198582860161248f565b9150509250929050565b600081519050919050565b600082825260208201905092915050565b6000819050602082019050919050565b6128588161203d565b82525050565b600061286a838361284f565b60208301905092915050565b6000602082019050919050565b600061288e82612823565b612898818561282e565b93506128a38361283f565b8060005b838110156128d45781516128bb888261285e565b97506128c683612876565b9250506001810190506128a7565b5085935050505092915050565b600060208201905081810360008301526128fb8184612883565b905092915050565b60008060006060848603121561291c5761291b611fd5565b5b600061292a86828701612028565b935050602084013567ffffffffffffffff81111561294b5761294a611fda565b5b6129578682870161248f565b925050604084013567ffffffffffffffff81111561297857612977611fda565b5b6129848682870161248f565b9150509250925092565b600080600080608085870312156129a8576129a7611fd5565b5b60006129b687828801612028565b94505060206129c78782880161205e565b93505060406129d88782880161205e565b925050606085013567ffffffffffffffff8111156129f9576129f8611fda565b5b612a0587828801612530565b91505092959194509250565b612a1a81612162565b8114612a2557600080fd5b50565b600081359050612a3781612a11565b92915050565b60008060408385031215612a5457612a53611fd5565b5b6000612a6285828601612028565b9250506020612a7385828601612a28565b9150509250929050565b60008060408385031215612a9457612a93611fd5565b5b6000612aa285828601612028565b9250506020612ab385828601612028565b9150509250929050565b600080600080600060a08688031215612ad957612ad8611fd5565b5b6000612ae788828901612028565b9550506020612af888828901612028565b9450506040612b098882890161205e565b9350506060612b1a8882890161205e565b925050608086013567ffffffffffffffff811115612b3b57612b3a611fda565b5b612b4788828901612530565b9150509295509295909350565b600080600060608486031215612b6d57612b6c611fd5565b5b6000612b7b86828701612028565b9350506020612b8c8682870161205e565b9250506040612b9d8682870161205e565b9150509250925092565b7f455243313135353a2061646472657373207a65726f206973206e6f742061207660008201527f616c6964206f776e657200000000000000000000000000000000000000000000602082015250565b6000612c03602a8361235f565b9150612c0e82612ba7565b604082019050919050565b60006020820190508181036000830152612c3281612bf6565b9050919050565b7f4e487b7100000000000000000000000000000000000000000000000000000000600052602260045260246000fd5b60006002820490506001821680612c8057607f821691505b602082108103612c9357612c92612c39565b5b50919050565b7f455243313135353a2063616c6c6572206973206e6f7420746f6b656e206f776e60008201527f6572206f7220617070726f766564000000000000000000000000000000000000602082015250565b6000612cf5602e8361235f565b9150612d0082612c99565b604082019050919050565b60006020820190508181036000830152612d2481612ce8565b9050919050565b7f455243313135353a206163636f756e747320616e6420696473206c656e67746860008201527f206d69736d617463680000000000000000000000000000000000000000000000602082015250565b6000612d8760298361235f565b9150612d9282612d2b565b604082019050919050565b60006020820190508181036000830152612db681612d7a565b9050919050565b7f4e487b7100000000000000000000000000000000000000000000000000000000600052603260045260246000fd5b7f4e487b7100000000000000000000000000000000000000000000000000000000600052601160045260246000fd5b6000612e268261203d565b91507fffffffffffffffffffffffffffffffffffffffffffffffffffffffffffffffff8203612e5857612e57612dec565b5b600182019050919050565b60008190508160005260206000209050919050565b60006020601f8301049050919050565b600082821b905092915050565b600060088302612ec57fffffffffffffffffffffffffffffffffffffffffffffffffffffffffffffffff82612e88565b612ecf8683612e88565b95508019841693508086168417925050509392505050565b6000819050919050565b6000612f0c612f07612f028461203d565b612ee7565b61203d565b9050919050565b6000819050919050565b612f2683612ef1565b612f3a612f3282612f13565b848454612e95565b825550505050565b600090565b612f4f612f42565b612f5a818484612f1d565b505050565b5b81811015612f7e57612f73600082612f47565b600181019050612f60565b5050565b601f821115612fc357612f9481612e63565b612f9d84612e78565b81016020851015612fac578190505b612fc0612fb885612e78565b830182612f5f565b50505b505050565b600082821c905092915050565b6000612fe660001984600802612fc8565b1980831691505092915050565b6000612fff8383612fd5565b9150826002028217905092915050565b61301882612354565b67ffffffffffffffff811115613031576130306121b3565b5b61303b8254612c68565b613046828285612f82565b600060209050601f8311600181146130795760008415613067578287015190505b6130718582612ff3565b8655506130d9565b601f19841661308786612e63565b60005b828110156130af5784890151825560018201915060208501945060208101905061308a565b868310156130cc57848901516130c8601f891682612fd5565b8355505b6001600288020188555050505b505050505050565b7f455243313135353a206d696e7420746f20746865207a65726f2061646472657360008201527f7300000000000000000000000000000000000000000000000000000000000000602082015250565b600061313d60218361235f565b9150613148826130e1565b604082019050919050565b6000602082019050818103600083015261316c81613130565b9050919050565b7f455243313135353a2069647320616e6420616d6f756e7473206c656e6774682060008201527f6d69736d61746368000000000000000000000000000000000000000000000000602082015250565b60006131cf60288361235f565b91506131da82613173565b604082019050919050565b600060208201905081810360008301526131fe816131c2565b9050919050565b60006132108261203d565b915061321b8361203d565b925082820190508082111561323357613232612dec565b5b92915050565b600060408201905081810360008301526132538185612883565b905081810360208301526132678184612883565b90509392505050565b7f455243313135353a207472616e7366657220746f20746865207a65726f20616460008201527f6472657373000000000000000000000000000000000000000000000000000000602082015250565b60006132cc60258361235f565b91506132d782613270565b604082019050919050565b600060208201905081810360008301526132fb816132bf565b9050919050565b7f455243313135353a20696e73756666696369656e742062616c616e636520666f60008201527f72207472616e7366657200000000000000000000000000000000000000000000602082015250565b600061335e602a8361235f565b915061336982613302565b604082019050919050565b6000602082019050818103600083015261338d81613351565b9050919050565b7f455243313135353a206275726e2066726f6d20746865207a65726f206164647260008201527f6573730000000000000000000000000000000000000000000000000000000000602082015250565b60006133f060238361235f565b91506133fb82613394565b604082019050919050565b6000602082019050818103600083015261341f816133e3565b9050919050565b7f455243313135353a206275726e20616d6f756e7420657863656564732062616c60008201527f616e636500000000000000000000000000000000000000000000000000000000602082015250565b600061348260248361235f565b915061348d82613426565b604082019050919050565b600060208201905081810360008301526134b181613475565b9050919050565b60006040820190506134cd60008301856120b3565b6134da60208301846120b3565b9392505050565b7f455243313135353a2073657474696e6720617070726f76616c2073746174757360008201527f20666f722073656c660000000000000000000000000000000000000000000000602082015250565b600061353d60298361235f565b9150613548826134e1565b604082019050919050565b6000602082019050818103600083015261356c81613530565b9050919050565b61357c81611fff565b82525050565b600081519050919050565b600082825260208201905092915050565b60006135a982613582565b6135b3818561358d565b93506135c3818560208601612370565b6135cc816121a2565b840191505092915050565b600060a0820190506135ec6000830188613573565b6135f96020830187613573565b818103604083015261360b8186612883565b9050818103606083015261361f8185612883565b90508181036080830152613633818461359e565b90509695505050505050565b60008151905061364e81612109565b92915050565b60006020828403121561366a57613669611fd5565b5b60006136788482850161363f565b91505092915050565b60008160e01c9050919050565b600060033d11156136ad5760046000803e6136aa600051613681565b90505b90565b600060443d1061373d576136c2611fcb565b60043d036004823e80513d602482011167ffffffffffffffff821117156136ea57505061373d565b808201805167ffffffffffffffff811115613708575050505061373d565b80602083010160043d03850181111561372557505050505061373d565b613734826020018501866121e2565b82955050505050505b90565b7f455243313135353a207472616e7366657220746f206e6f6e2d4552433131353560008201527f526563656976657220696d706c656d656e746572000000000000000000000000602082015250565b600061379c60348361235f565b91506137a782613740565b604082019050919050565b600060208201905081810360008301526137cb8161378f565b9050919050565b7f455243313135353a204552433131353552656365697665722072656a6563746560008201527f6420746f6b656e73000000000000000000000000000000000000000000000000602082015250565b600061382e60288361235f565b9150613839826137d2565b604082019050919050565b6000602082019050818103600083015261385d81613821565b9050919050565b600060a0820190506138796000830188613573565b6138866020830187613573565b61389360408301866120b3565b6138a060608301856120b3565b81810360808301526138b2818461359e565b90509695505050505050565b7f455243313135353a206275726e20616d6f756e74206578636565647320746f7460008201527f616c537570706c79000000000000000000000000000000000000000000000000602082015250565b600061391a60288361235f565b9150613925826138be565b604082019050919050565b600060208201905081810360008301526139498161390d565b905091905056fea264697066735822122040e8cc6e13b40b7add05304824c61cbde43eb8749fb85d4b5e99891601bc55fb64736f6c63430008110033",
  "linkReferences": {},
  "deployedLinkReferences": {}
}