{
  "_format": "hh-sol-artifact-1",
  "contractName": "AddressImpl",
  "sourceName": "contracts/mocks/AddressImpl.sol",
  "abi": [
    {
      "anonymous": false,
      "inputs": [
        {
          "indexed": false,
          "internalType": "string",
          "name": "data",
          "type": "string"
        }
      ],
      "name": "CallReturnValue",
      "type": "event"
    },
    {
      "inputs": [
        {
          "internalType": "address",
          "name": "target",
          "type": "address"
        },
        {
          "internalType": "bytes",
          "name": "data",
          "type": "bytes"
        }
      ],
      "name": "functionCall",
      "outputs": [],
      "stateMutability": "nonpayable",
      "type": "function"
    },
    {
      "inputs": [
        {
          "internalType": "address",
          "name": "target",
          "type": "address"
        },
        {
          "internalType": "bytes",
          "name": "data",
          "type": "bytes"
        },
        {
          "internalType": "uint256",
          "name": "value",
          "type": "uint256"
        }
      ],
      "name": "functionCallWithValue",
      "outputs": [],
      "stateMutability": "payable",
      "type": "function"
    },
    {
      "inputs": [
        {
          "internalType": "address",
          "name": "target",
          "type": "address"
        },
        {
          "internalType": "bytes",
          "name": "data",
          "type": "bytes"
        }
      ],
      "name": "functionDelegateCall",
      "outputs": [],
      "stateMutability": "nonpayable",
      "type": "function"
    },
    {
      "inputs": [
        {
          "internalType": "address",
          "name": "target",
          "type": "address"
        },
        {
          "internalType": "bytes",
          "name": "data",
          "type": "bytes"
        }
      ],
      "name": "functionStaticCall",
      "outputs": [],
      "stateMutability": "nonpayable",
      "type": "function"
    },
    {
      "inputs": [
        {
          "internalType": "address",
          "name": "account",
          "type": "address"
        }
      ],
      "name": "isContract",
      "outputs": [
        {
          "internalType": "bool",
          "name": "",
          "type": "bool"
        }
      ],
      "stateMutability": "view",
      "type": "function"
    },
    {
      "inputs": [
        {
          "internalType": "address payable",
          "name": "receiver",
          "type": "address"
        },
        {
          "internalType": "uint256",
          "name": "amount",
          "type": "uint256"
        }
      ],
      "name": "sendValue",
      "outputs": [],
      "stateMutability": "nonpayable",
      "type": "function"
    },
    {
      "inputs": [],
      "name": "sharedAnswer",
      "outputs": [
        {
          "internalType": "string",
          "name": "",
          "type": "string"
        }
      ],
      "stateMutability": "view",
      "type": "function"
    },
    {
      "stateMutability": "payable",
      "type": "receive"
    }
  ],
  "bytecode": "0x608060405234801561001057600080fd5b506111e8806100206000396000f3fe6080604052600436106100745760003560e01c8063a0b5ffb01161004e578063a0b5ffb014610102578063c21d36f31461012b578063ee33b7e214610154578063fc40cf731461017d5761007b565b8063162790551461008057806324a084df146100bd5780632a011594146100e65761007b565b3661007b57005b600080fd5b34801561008c57600080fd5b506100a760048036038101906100a291906109dc565b6101a8565b6040516100b49190610a24565b60405180910390f35b3480156100c957600080fd5b506100e460048036038101906100df9190610ab3565b6101ba565b005b61010060048036038101906100fb9190610b58565b6101c8565b005b34801561010e57600080fd5b5061012960048036038101906101249190610bcc565b61026c565b005b34801561013757600080fd5b50610152600480360381019061014d9190610bcc565b61030e565b005b34801561016057600080fd5b5061017b60048036038101906101769190610bcc565b6103b0565b005b34801561018957600080fd5b50610192610452565b60405161019f9190610cbc565b60405180910390f35b60006101b3826104e0565b9050919050565b6101c48282610503565b5050565b60006102198585858080601f016020809104026020016040519081016040528093929190818152602001838380828437600081840152601f19601f82011690508083019250505050505050846105f7565b90507fe518073da644d0626295bee74d5d5c51447a33857c62913bb30f35e2fba3db7c818060200190518101906102509190610dff565b60405161025d9190610cbc565b60405180910390a15050505050565b60006102bc8484848080601f016020809104026020016040519081016040528093929190818152602001838380828437600081840152601f19601f82011690508083019250505050505050610626565b90507fe518073da644d0626295bee74d5d5c51447a33857c62913bb30f35e2fba3db7c818060200190518101906102f39190610dff565b6040516103009190610cbc565b60405180910390a150505050565b600061035e8484848080601f016020809104026020016040519081016040528093929190818152602001838380828437600081840152601f19601f82011690508083019250505050505050610672565b90507fe518073da644d0626295bee74d5d5c51447a33857c62913bb30f35e2fba3db7c818060200190518101906103959190610dff565b6040516103a29190610cbc565b60405180910390a150505050565b60006104008484848080601f016020809104026020016040519081016040528093929190818152602001838380828437600081840152601f19601f8201169050808301925050505050505061069f565b90507fe518073da644d0626295bee74d5d5c51447a33857c62913bb30f35e2fba3db7c818060200190518101906104379190610dff565b6040516104449190610cbc565b60405180910390a150505050565b6000805461045f90610e77565b80601f016020809104026020016040519081016040528092919081815260200182805461048b90610e77565b80156104d85780601f106104ad576101008083540402835291602001916104d8565b820191906000526020600020905b8154815290600101906020018083116104bb57829003601f168201915b505050505081565b6000808273ffffffffffffffffffffffffffffffffffffffff163b119050919050565b80471015610546576040517f08c379a000000000000000000000000000000000000000000000000000000000815260040161053d90610ef4565b60405180910390fd5b60008273ffffffffffffffffffffffffffffffffffffffff168260405161056c90610f45565b60006040518083038185875af1925050503d80600081146105a9576040519150601f19603f3d011682016040523d82523d6000602084013e6105ae565b606091505b50509050806105f2576040517f08c379a00000000000000000000000000000000000000000000000000000000081526004016105e990610fcc565b60405180910390fd5b505050565b606061061d84848460405180606001604052806029815260200161113e602991396106cc565b90509392505050565b606061066a838360006040518060400160405280601e81526020017f416464726573733a206c6f772d6c6576656c2063616c6c206661696c656400008152506106cc565b905092915050565b6060610697838360405180606001604052806025815260200161116760259139610799565b905092915050565b60606106c4838360405180606001604052806027815260200161118c6027913961081f565b905092915050565b606082471015610711576040517f08c379a00000000000000000000000000000000000000000000000000000000081526004016107089061105e565b60405180910390fd5b6000808673ffffffffffffffffffffffffffffffffffffffff16858760405161073a91906110ba565b60006040518083038185875af1925050503d8060008114610777576040519150601f19603f3d011682016040523d82523d6000602084013e61077c565b606091505b509150915061078d878383876108a5565b92505050949350505050565b60606000808573ffffffffffffffffffffffffffffffffffffffff16856040516107c391906110ba565b600060405180830381855afa9150503d80600081146107fe576040519150601f19603f3d011682016040523d82523d6000602084013e610803565b606091505b5091509150610814868383876108a5565b925050509392505050565b60606000808573ffffffffffffffffffffffffffffffffffffffff168560405161084991906110ba565b600060405180830381855af49150503d8060008114610884576040519150601f19603f3d011682016040523d82523d6000602084013e610889565b606091505b509150915061089a868383876108a5565b925050509392505050565b606083156109075760008351036108ff576108bf856104e0565b6108fe576040517f08c379a00000000000000000000000000000000000000000000000000000000081526004016108f59061111d565b60405180910390fd5b5b829050610912565b610911838361091a565b5b949350505050565b60008251111561092d5781518083602001fd5b806040517f08c379a00000000000000000000000000000000000000000000000000000000081526004016109619190610cbc565b60405180910390fd5b6000604051905090565b600080fd5b600080fd5b600073ffffffffffffffffffffffffffffffffffffffff82169050919050565b60006109a98261097e565b9050919050565b6109b98161099e565b81146109c457600080fd5b50565b6000813590506109d6816109b0565b92915050565b6000602082840312156109f2576109f1610974565b5b6000610a00848285016109c7565b91505092915050565b60008115159050919050565b610a1e81610a09565b82525050565b6000602082019050610a396000830184610a15565b92915050565b6000610a4a8261097e565b9050919050565b610a5a81610a3f565b8114610a6557600080fd5b50565b600081359050610a7781610a51565b92915050565b6000819050919050565b610a9081610a7d565b8114610a9b57600080fd5b50565b600081359050610aad81610a87565b92915050565b60008060408385031215610aca57610ac9610974565b5b6000610ad885828601610a68565b9250506020610ae985828601610a9e565b9150509250929050565b600080fd5b600080fd5b600080fd5b60008083601f840112610b1857610b17610af3565b5b8235905067ffffffffffffffff811115610b3557610b34610af8565b5b602083019150836001820283011115610b5157610b50610afd565b5b9250929050565b60008060008060608587031215610b7257610b71610974565b5b6000610b80878288016109c7565b945050602085013567ffffffffffffffff811115610ba157610ba0610979565b5b610bad87828801610b02565b93509350506040610bc087828801610a9e565b91505092959194509250565b600080600060408486031215610be557610be4610974565b5b6000610bf3868287016109c7565b935050602084013567ffffffffffffffff811115610c1457610c13610979565b5b610c2086828701610b02565b92509250509250925092565b600081519050919050565b600082825260208201905092915050565b60005b83811015610c66578082015181840152602081019050610c4b565b60008484015250505050565b6000601f19601f8301169050919050565b6000610c8e82610c2c565b610c988185610c37565b9350610ca8818560208601610c48565b610cb181610c72565b840191505092915050565b60006020820190508181036000830152610cd68184610c83565b905092915050565b600080fd5b7f4e487b7100000000000000000000000000000000000000000000000000000000600052604160045260246000fd5b610d1b82610c72565b810181811067ffffffffffffffff82111715610d3a57610d39610ce3565b5b80604052505050565b6000610d4d61096a565b9050610d598282610d12565b919050565b600067ffffffffffffffff821115610d7957610d78610ce3565b5b610d8282610c72565b9050602081019050919050565b6000610da2610d9d84610d5e565b610d43565b905082815260208101848484011115610dbe57610dbd610cde565b5b610dc9848285610c48565b509392505050565b600082601f830112610de657610de5610af3565b5b8151610df6848260208601610d8f565b91505092915050565b600060208284031215610e1557610e14610974565b5b600082015167ffffffffffffffff811115610e3357610e32610979565b5b610e3f84828501610dd1565b91505092915050565b7f4e487b7100000000000000000000000000000000000000000000000000000000600052602260045260246000fd5b60006002820490506001821680610e8f57607f821691505b602082108103610ea257610ea1610e48565b5b50919050565b7f416464726573733a20696e73756666696369656e742062616c616e6365000000600082015250565b6000610ede601d83610c37565b9150610ee982610ea8565b602082019050919050565b60006020820190508181036000830152610f0d81610ed1565b9050919050565b600081905092915050565b50565b6000610f2f600083610f14565b9150610f3a82610f1f565b600082019050919050565b6000610f5082610f22565b9150819050919050565b7f416464726573733a20756e61626c6520746f2073656e642076616c75652c207260008201527f6563697069656e74206d61792068617665207265766572746564000000000000602082015250565b6000610fb6603a83610c37565b9150610fc182610f5a565b604082019050919050565b60006020820190508181036000830152610fe581610fa9565b9050919050565b7f416464726573733a20696e73756666696369656e742062616c616e636520666f60008201527f722063616c6c0000000000000000000000000000000000000000000000000000602082015250565b6000611048602683610c37565b915061105382610fec565b604082019050919050565b600060208201905081810360008301526110778161103b565b9050919050565b600081519050919050565b60006110948261107e565b61109e8185610f14565b93506110ae818560208601610c48565b80840191505092915050565b60006110c68284611089565b915081905092915050565b7f416464726573733a2063616c6c20746f206e6f6e2d636f6e7472616374000000600082015250565b6000611107601d83610c37565b9150611112826110d1565b602082019050919050565b60006020820190508181036000830152611136816110fa565b905091905056fe416464726573733a206c6f772d6c6576656c2063616c6c20776974682076616c7565206661696c6564416464726573733a206c6f772d6c6576656c207374617469632063616c6c206661696c6564416464726573733a206c6f772d6c6576656c2064656c65676174652063616c6c206661696c6564a2646970667358221220247716f6928ae0b734a44490d4633e7f74666c5110dac3462afc6f884d17434f64736f6c63430008110033",
  "linkReferences": {},
  "deployedLinkReferences": {}
}