{
  "_format": "hh-sol-artifact-1",
  "contractName": "MyGovernor",
  "sourceName": "contracts/mocks/wizard/MyGovernor3.sol",
  "abi": [
    {
      "inputs": [
        {
          "internalType": "contract IVotes",
          "name": "_token",
          "type": "address"
        },
        {
          "internalType": "contract TimelockController",
          "name": "_timelock",
          "type": "address"
        }
      ],
      "stateMutability": "nonpayable",
      "type": "constructor"
    },
    {
      "inputs": [],
      "name": "Empty",
      "type": "error"
    },
    {
      "anonymous": false,
      "inputs": [
        {
          "indexed": false,
          "internalType": "uint256",
          "name": "proposalId",
          "type": "uint256"
        }
      ],
      "name": "ProposalCanceled",
      "type": "event"
    },
    {
      "anonymous": false,
      "inputs": [
        {
          "indexed": false,
          "internalType": "uint256",
          "name": "proposalId",
          "type": "uint256"
        },
        {
          "indexed": false,
          "internalType": "address",
          "name": "proposer",
          "type": "address"
        },
        {
          "indexed": false,
          "internalType": "address[]",
          "name": "targets",
          "type": "address[]"
        },
        {
          "indexed": false,
          "internalType": "uint256[]",
          "name": "values",
          "type": "uint256[]"
        },
        {
          "indexed": false,
          "internalType": "string[]",
          "name": "signatures",
          "type": "string[]"
        },
        {
          "indexed": false,
          "internalType": "bytes[]",
          "name": "calldatas",
          "type": "bytes[]"
        },
        {
          "indexed": false,
          "internalType": "uint256",
          "name": "startBlock",
          "type": "uint256"
        },
        {
          "indexed": false,
          "internalType": "uint256",
          "name": "endBlock",
          "type": "uint256"
        },
        {
          "indexed": false,
          "internalType": "string",
          "name": "description",
          "type": "string"
        }
      ],
      "name": "ProposalCreated",
      "type": "event"
    },
    {
      "anonymous": false,
      "inputs": [
        {
          "indexed": false,
          "internalType": "uint256",
          "name": "proposalId",
          "type": "uint256"
        }
      ],
      "name": "ProposalExecuted",
      "type": "event"
    },
    {
      "anonymous": false,
      "inputs": [
        {
          "indexed": false,
          "internalType": "uint256",
          "name": "proposalId",
          "type": "uint256"
        },
        {
          "indexed": false,
          "internalType": "uint256",
          "name": "eta",
          "type": "uint256"
        }
      ],
      "name": "ProposalQueued",
      "type": "event"
    },
    {
      "anonymous": false,
      "inputs": [
        {
          "indexed": false,
          "internalType": "uint256",
          "name": "oldQuorumNumerator",
          "type": "uint256"
        },
        {
          "indexed": false,
          "internalType": "uint256",
          "name": "newQuorumNumerator",
          "type": "uint256"
        }
      ],
      "name": "QuorumNumeratorUpdated",
      "type": "event"
    },
    {
      "anonymous": false,
      "inputs": [
        {
          "indexed": false,
          "internalType": "address",
          "name": "oldTimelock",
          "type": "address"
        },
        {
          "indexed": false,
          "internalType": "address",
          "name": "newTimelock",
          "type": "address"
        }
      ],
      "name": "TimelockChange",
      "type": "event"
    },
    {
      "anonymous": false,
      "inputs": [
        {
          "indexed": true,
          "internalType": "address",
          "name": "voter",
          "type": "address"
        },
        {
          "indexed": false,
          "internalType": "uint256",
          "name": "proposalId",
          "type": "uint256"
        },
        {
          "indexed": false,
          "internalType": "uint8",
          "name": "support",
          "type": "uint8"
        },
        {
          "indexed": false,
          "internalType": "uint256",
          "name": "weight",
          "type": "uint256"
        },
        {
          "indexed": false,
          "internalType": "string",
          "name": "reason",
          "type": "string"
        }
      ],
      "name": "VoteCast",
      "type": "event"
    },
    {
      "anonymous": false,
      "inputs": [
        {
          "indexed": true,
          "internalType": "address",
          "name": "voter",
          "type": "address"
        },
        {
          "indexed": false,
          "internalType": "uint256",
          "name": "proposalId",
          "type": "uint256"
        },
        {
          "indexed": false,
          "internalType": "uint8",
          "name": "support",
          "type": "uint8"
        },
        {
          "indexed": false,
          "internalType": "uint256",
          "name": "weight",
          "type": "uint256"
        },
        {
          "indexed": false,
          "internalType": "string",
          "name": "reason",
          "type": "string"
        },
        {
          "indexed": false,
          "internalType": "bytes",
          "name": "params",
          "type": "bytes"
        }
      ],
      "name": "VoteCastWithParams",
      "type": "event"
    },
    {
      "inputs": [],
      "name": "BALLOT_TYPEHASH",
      "outputs": [
        {
          "internalType": "bytes32",
          "name": "",
          "type": "bytes32"
        }
      ],
      "stateMutability": "view",
      "type": "function"
    },
    {
      "inputs": [],
      "name": "COUNTING_MODE",
      "outputs": [
        {
          "internalType": "string",
          "name": "",
          "type": "string"
        }
      ],
      "stateMutability": "pure",
      "type": "function"
    },
    {
      "inputs": [],
      "name": "EXTENDED_BALLOT_TYPEHASH",
      "outputs": [
        {
          "internalType": "bytes32",
          "name": "",
          "type": "bytes32"
        }
      ],
      "stateMutability": "view",
      "type": "function"
    },
    {
      "inputs": [
        {
          "internalType": "uint256",
          "name": "proposalId",
          "type": "uint256"
        }
      ],
      "name": "cancel",
      "outputs": [],
      "stateMutability": "nonpayable",
      "type": "function"
    },
    {
      "inputs": [
        {
          "internalType": "uint256",
          "name": "proposalId",
          "type": "uint256"
        },
        {
          "internalType": "uint8",
          "name": "support",
          "type": "uint8"
        }
      ],
      "name": "castVote",
      "outputs": [
        {
          "internalType": "uint256",
          "name": "",
          "type": "uint256"
        }
      ],
      "stateMutability": "nonpayable",
      "type": "function"
    },
    {
      "inputs": [
        {
          "internalType": "uint256",
          "name": "proposalId",
          "type": "uint256"
        },
        {
          "internalType": "uint8",
          "name": "support",
          "type": "uint8"
        },
        {
          "internalType": "uint8",
          "name": "v",
          "type": "uint8"
        },
        {
          "internalType": "bytes32",
          "name": "r",
          "type": "bytes32"
        },
        {
          "internalType": "bytes32",
          "name": "s",
          "type": "bytes32"
        }
      ],
      "name": "castVoteBySig",
      "outputs": [
        {
          "internalType": "uint256",
          "name": "",
          "type": "uint256"
        }
      ],
      "stateMutability": "nonpayable",
      "type": "function"
    },
    {
      "inputs": [
        {
          "internalType": "uint256",
          "name": "proposalId",
          "type": "uint256"
        },
        {
          "internalType": "uint8",
          "name": "support",
          "type": "uint8"
        },
        {
          "internalType": "string",
          "name": "reason",
          "type": "string"
        }
      ],
      "name": "castVoteWithReason",
      "outputs": [
        {
          "internalType": "uint256",
          "name": "",
          "type": "uint256"
        }
      ],
      "stateMutability": "nonpayable",
      "type": "function"
    },
    {
      "inputs": [
        {
          "internalType": "uint256",
          "name": "proposalId",
          "type": "uint256"
        },
        {
          "internalType": "uint8",
          "name": "support",
          "type": "uint8"
        },
        {
          "internalType": "string",
          "name": "reason",
          "type": "string"
        },
        {
          "internalType": "bytes",
          "name": "params",
          "type": "bytes"
        }
      ],
      "name": "castVoteWithReasonAndParams",
      "outputs": [
        {
          "internalType": "uint256",
          "name": "",
          "type": "uint256"
        }
      ],
      "stateMutability": "nonpayable",
      "type": "function"
    },
    {
      "inputs": [
        {
          "internalType": "uint256",
          "name": "proposalId",
          "type": "uint256"
        },
        {
          "internalType": "uint8",
          "name": "support",
          "type": "uint8"
        },
        {
          "internalType": "string",
          "name": "reason",
          "type": "string"
        },
        {
          "internalType": "bytes",
          "name": "params",
          "type": "bytes"
        },
        {
          "internalType": "uint8",
          "name": "v",
          "type": "uint8"
        },
        {
          "internalType": "bytes32",
          "name": "r",
          "type": "bytes32"
        },
        {
          "internalType": "bytes32",
          "name": "s",
          "type": "bytes32"
        }
      ],
      "name": "castVoteWithReasonAndParamsBySig",
      "outputs": [
        {
          "internalType": "uint256",
          "name": "",
          "type": "uint256"
        }
      ],
      "stateMutability": "nonpayable",
      "type": "function"
    },
    {
      "inputs": [
        {
          "internalType": "address[]",
          "name": "targets",
          "type": "address[]"
        },
        {
          "internalType": "uint256[]",
          "name": "values",
          "type": "uint256[]"
        },
        {
          "internalType": "bytes[]",
          "name": "calldatas",
          "type": "bytes[]"
        },
        {
          "internalType": "bytes32",
          "name": "descriptionHash",
          "type": "bytes32"
        }
      ],
      "name": "execute",
      "outputs": [
        {
          "internalType": "uint256",
          "name": "",
          "type": "uint256"
        }
      ],
      "stateMutability": "payable",
      "type": "function"
    },
    {
      "inputs": [
        {
          "internalType": "uint256",
          "name": "proposalId",
          "type": "uint256"
        }
      ],
      "name": "execute",
      "outputs": [],
      "stateMutability": "payable",
      "type": "function"
    },
    {
      "inputs": [
        {
          "internalType": "uint256",
          "name": "proposalId",
          "type": "uint256"
        }
      ],
      "name": "getActions",
      "outputs": [
        {
          "internalType": "address[]",
          "name": "targets",
          "type": "address[]"
        },
        {
          "internalType": "uint256[]",
          "name": "values",
          "type": "uint256[]"
        },
        {
          "internalType": "string[]",
          "name": "signatures",
          "type": "string[]"
        },
        {
          "internalType": "bytes[]",
          "name": "calldatas",
          "type": "bytes[]"
        }
      ],
      "stateMutability": "view",
      "type": "function"
    },
    {
      "inputs": [
        {
          "internalType": "uint256",
          "name": "proposalId",
          "type": "uint256"
        },
        {
          "internalType": "address",
          "name": "voter",
          "type": "address"
        }
      ],
      "name": "getReceipt",
      "outputs": [
        {
          "components": [
            {
              "internalType": "bool",
              "name": "hasVoted",
              "type": "bool"
            },
            {
              "internalType": "uint8",
              "name": "support",
              "type": "uint8"
            },
            {
              "internalType": "uint96",
              "name": "votes",
              "type": "uint96"
            }
          ],
          "internalType": "struct IGovernorCompatibilityBravo.Receipt",
          "name": "",
          "type": "tuple"
        }
      ],
      "stateMutability": "view",
      "type": "function"
    },
    {
      "inputs": [
        {
          "internalType": "address",
          "name": "account",
          "type": "address"
        },
        {
          "internalType": "uint256",
          "name": "blockNumber",
          "type": "uint256"
        }
      ],
      "name": "getVotes",
      "outputs": [
        {
          "internalType": "uint256",
          "name": "",
          "type": "uint256"
        }
      ],
      "stateMutability": "view",
      "type": "function"
    },
    {
      "inputs": [
        {
          "internalType": "address",
          "name": "account",
          "type": "address"
        },
        {
          "internalType": "uint256",
          "name": "blockNumber",
          "type": "uint256"
        },
        {
          "internalType": "bytes",
          "name": "params",
          "type": "bytes"
        }
      ],
      "name": "getVotesWithParams",
      "outputs": [
        {
          "internalType": "uint256",
          "name": "",
          "type": "uint256"
        }
      ],
      "stateMutability": "view",
      "type": "function"
    },
    {
      "inputs": [
        {
          "internalType": "uint256",
          "name": "proposalId",
          "type": "uint256"
        },
        {
          "internalType": "address",
          "name": "account",
          "type": "address"
        }
      ],
      "name": "hasVoted",
      "outputs": [
        {
          "internalType": "bool",
          "name": "",
          "type": "bool"
        }
      ],
      "stateMutability": "view",
      "type": "function"
    },
    {
      "inputs": [
        {
          "internalType": "address[]",
          "name": "targets",
          "type": "address[]"
        },
        {
          "internalType": "uint256[]",
          "name": "values",
          "type": "uint256[]"
        },
        {
          "internalType": "bytes[]",
          "name": "calldatas",
          "type": "bytes[]"
        },
        {
          "internalType": "bytes32",
          "name": "descriptionHash",
          "type": "bytes32"
        }
      ],
      "name": "hashProposal",
      "outputs": [
        {
          "internalType": "uint256",
          "name": "",
          "type": "uint256"
        }
      ],
      "stateMutability": "pure",
      "type": "function"
    },
    {
      "inputs": [],
      "name": "name",
      "outputs": [
        {
          "internalType": "string",
          "name": "",
          "type": "string"
        }
      ],
      "stateMutability": "view",
      "type": "function"
    },
    {
      "inputs": [
        {
          "internalType": "address",
          "name": "",
          "type": "address"
        },
        {
          "internalType": "address",
          "name": "",
          "type": "address"
        },
        {
          "internalType": "uint256[]",
          "name": "",
          "type": "uint256[]"
        },
        {
          "internalType": "uint256[]",
          "name": "",
          "type": "uint256[]"
        },
        {
          "internalType": "bytes",
          "name": "",
          "type": "bytes"
        }
      ],
      "name": "onERC1155BatchReceived",
      "outputs": [
        {
          "internalType": "bytes4",
          "name": "",
          "type": "bytes4"
        }
      ],
      "stateMutability": "nonpayable",
      "type": "function"
    },
    {
      "inputs": [
        {
          "internalType": "address",
          "name": "",
          "type": "address"
        },
        {
          "internalType": "address",
          "name": "",
          "type": "address"
        },
        {
          "internalType": "uint256",
          "name": "",
          "type": "uint256"
        },
        {
          "internalType": "uint256",
          "name": "",
          "type": "uint256"
        },
        {
          "internalType": "bytes",
          "name": "",
          "type": "bytes"
        }
      ],
      "name": "onERC1155Received",
      "outputs": [
        {
          "internalType": "bytes4",
          "name": "",
          "type": "bytes4"
        }
      ],
      "stateMutability": "nonpayable",
      "type": "function"
    },
    {
      "inputs": [
        {
          "internalType": "address",
          "name": "",
          "type": "address"
        },
        {
          "internalType": "address",
          "name": "",
          "type": "address"
        },
        {
          "internalType": "uint256",
          "name": "",
          "type": "uint256"
        },
        {
          "internalType": "bytes",
          "name": "",
          "type": "bytes"
        }
      ],
      "name": "onERC721Received",
      "outputs": [
        {
          "internalType": "bytes4",
          "name": "",
          "type": "bytes4"
        }
      ],
      "stateMutability": "nonpayable",
      "type": "function"
    },
    {
      "inputs": [
        {
          "internalType": "uint256",
          "name": "proposalId",
          "type": "uint256"
        }
      ],
      "name": "proposalDeadline",
      "outputs": [
        {
          "internalType": "uint256",
          "name": "",
          "type": "uint256"
        }
      ],
      "stateMutability": "view",
      "type": "function"
    },
    {
      "inputs": [
        {
          "internalType": "uint256",
          "name": "proposalId",
          "type": "uint256"
        }
      ],
      "name": "proposalEta",
      "outputs": [
        {
          "internalType": "uint256",
          "name": "",
          "type": "uint256"
        }
      ],
      "stateMutability": "view",
      "type": "function"
    },
    {
      "inputs": [
        {
          "internalType": "uint256",
          "name": "proposalId",
          "type": "uint256"
        }
      ],
      "name": "proposalSnapshot",
      "outputs": [
        {
          "internalType": "uint256",
          "name": "",
          "type": "uint256"
        }
      ],
      "stateMutability": "view",
      "type": "function"
    },
    {
      "inputs": [],
      "name": "proposalThreshold",
      "outputs": [
        {
          "internalType": "uint256",
          "name": "",
          "type": "uint256"
        }
      ],
      "stateMutability": "pure",
      "type": "function"
    },
    {
      "inputs": [
        {
          "internalType": "uint256",
          "name": "proposalId",
          "type": "uint256"
        }
      ],
      "name": "proposals",
      "outputs": [
        {
          "internalType": "uint256",
          "name": "id",
          "type": "uint256"
        },
        {
          "internalType": "address",
          "name": "proposer",
          "type": "address"
        },
        {
          "internalType": "uint256",
          "name": "eta",
          "type": "uint256"
        },
        {
          "internalType": "uint256",
          "name": "startBlock",
          "type": "uint256"
        },
        {
          "internalType": "uint256",
          "name": "endBlock",
          "type": "uint256"
        },
        {
          "internalType": "uint256",
          "name": "forVotes",
          "type": "uint256"
        },
        {
          "internalType": "uint256",
          "name": "againstVotes",
          "type": "uint256"
        },
        {
          "internalType": "uint256",
          "name": "abstainVotes",
          "type": "uint256"
        },
        {
          "internalType": "bool",
          "name": "canceled",
          "type": "bool"
        },
        {
          "internalType": "bool",
          "name": "executed",
          "type": "bool"
        }
      ],
      "stateMutability": "view",
      "type": "function"
    },
    {
      "inputs": [
        {
          "internalType": "address[]",
          "name": "targets",
          "type": "address[]"
        },
        {
          "internalType": "uint256[]",
          "name": "values",
          "type": "uint256[]"
        },
        {
          "internalType": "bytes[]",
          "name": "calldatas",
          "type": "bytes[]"
        },
        {
          "internalType": "string",
          "name": "description",
          "type": "string"
        }
      ],
      "name": "propose",
      "outputs": [
        {
          "internalType": "uint256",
          "name": "",
          "type": "uint256"
        }
      ],
      "stateMutability": "nonpayable",
      "type": "function"
    },
    {
      "inputs": [
        {
          "internalType": "address[]",
          "name": "targets",
          "type": "address[]"
        },
        {
          "internalType": "uint256[]",
          "name": "values",
          "type": "uint256[]"
        },
        {
          "internalType": "string[]",
          "name": "signatures",
          "type": "string[]"
        },
        {
          "internalType": "bytes[]",
          "name": "calldatas",
          "type": "bytes[]"
        },
        {
          "internalType": "string",
          "name": "description",
          "type": "string"
        }
      ],
      "name": "propose",
      "outputs": [
        {
          "internalType": "uint256",
          "name": "",
          "type": "uint256"
        }
      ],
      "stateMutability": "nonpayable",
      "type": "function"
    },
    {
      "inputs": [
        {
          "internalType": "address[]",
          "name": "targets",
          "type": "address[]"
        },
        {
          "internalType": "uint256[]",
          "name": "values",
          "type": "uint256[]"
        },
        {
          "internalType": "bytes[]",
          "name": "calldatas",
          "type": "bytes[]"
        },
        {
          "internalType": "bytes32",
          "name": "descriptionHash",
          "type": "bytes32"
        }
      ],
      "name": "queue",
      "outputs": [
        {
          "internalType": "uint256",
          "name": "",
          "type": "uint256"
        }
      ],
      "stateMutability": "nonpayable",
      "type": "function"
    },
    {
      "inputs": [
        {
          "internalType": "uint256",
          "name": "proposalId",
          "type": "uint256"
        }
      ],
      "name": "queue",
      "outputs": [],
      "stateMutability": "nonpayable",
      "type": "function"
    },
    {
      "inputs": [
        {
          "internalType": "uint256",
          "name": "blockNumber",
          "type": "uint256"
        }
      ],
      "name": "quorum",
      "outputs": [
        {
          "internalType": "uint256",
          "name": "",
          "type": "uint256"
        }
      ],
      "stateMutability": "view",
      "type": "function"
    },
    {
      "inputs": [],
      "name": "quorumDenominator",
      "outputs": [
        {
          "internalType": "uint256",
          "name": "",
          "type": "uint256"
        }
      ],
      "stateMutability": "view",
      "type": "function"
    },
    {
      "inputs": [
        {
          "internalType": "uint256",
          "name": "blockNumber",
          "type": "uint256"
        }
      ],
      "name": "quorumNumerator",
      "outputs": [
        {
          "internalType": "uint256",
          "name": "",
          "type": "uint256"
        }
      ],
      "stateMutability": "view",
      "type": "function"
    },
    {
      "inputs": [],
      "name": "quorumNumerator",
      "outputs": [
        {
          "internalType": "uint256",
          "name": "",
          "type": "uint256"
        }
      ],
      "stateMutability": "view",
      "type": "function"
    },
    {
      "inputs": [],
      "name": "quorumVotes",
      "outputs": [
        {
          "internalType": "uint256",
          "name": "",
          "type": "uint256"
        }
      ],
      "stateMutability": "view",
      "type": "function"
    },
    {
      "inputs": [
        {
          "internalType": "address",
          "name": "target",
          "type": "address"
        },
        {
          "internalType": "uint256",
          "name": "value",
          "type": "uint256"
        },
        {
          "internalType": "bytes",
          "name": "data",
          "type": "bytes"
        }
      ],
      "name": "relay",
      "outputs": [],
      "stateMutability": "payable",
      "type": "function"
    },
    {
      "inputs": [
        {
          "internalType": "uint256",
          "name": "proposalId",
          "type": "uint256"
        }
      ],
      "name": "state",
      "outputs": [
        {
          "internalType": "enum IGovernor.ProposalState",
          "name": "",
          "type": "uint8"
        }
      ],
      "stateMutability": "view",
      "type": "function"
    },
    {
      "inputs": [
        {
          "internalType": "bytes4",
          "name": "interfaceId",
          "type": "bytes4"
        }
      ],
      "name": "supportsInterface",
      "outputs": [
        {
          "internalType": "bool",
          "name": "",
          "type": "bool"
        }
      ],
      "stateMutability": "view",
      "type": "function"
    },
    {
      "inputs": [],
      "name": "timelock",
      "outputs": [
        {
          "internalType": "address",
          "name": "",
          "type": "address"
        }
      ],
      "stateMutability": "view",
      "type": "function"
    },
    {
      "inputs": [],
      "name": "token",
      "outputs": [
        {
          "internalType": "contract IVotes",
          "name": "",
          "type": "address"
        }
      ],
      "stateMutability": "view",
      "type": "function"
    },
    {
      "inputs": [
        {
          "internalType": "uint256",
          "name": "newQuorumNumerator",
          "type": "uint256"
        }
      ],
      "name": "updateQuorumNumerator",
      "outputs": [],
      "stateMutability": "nonpayable",
      "type": "function"
    },
    {
      "inputs": [
        {
          "internalType": "contract TimelockController",
          "name": "newTimelock",
          "type": "address"
        }
      ],
      "name": "updateTimelock",
      "outputs": [],
      "stateMutability": "nonpayable",
      "type": "function"
    },
    {
      "inputs": [],
      "name": "version",
      "outputs": [
        {
          "internalType": "string",
          "name": "",
          "type": "string"
        }
      ],
      "stateMutability": "view",
      "type": "function"
    },
    {
      "inputs": [],
      "name": "votingDelay",
      "outputs": [
        {
          "internalType": "uint256",
          "name": "",
          "type": "uint256"
        }
      ],
      "stateMutability": "pure",
      "type": "function"
    },
    {
      "inputs": [],
      "name": "votingPeriod",
      "outputs": [
        {
          "internalType": "uint256",
          "name": "",
          "type": "uint256"
        }
      ],
      "stateMutability": "pure",
      "type": "function"
    },
    {
      "stateMutability": "payable",
      "type": "receive"
    }
  ],
  "bytecode": "0x6101606040523480156200001257600080fd5b506040516200980f3803806200980f833981810160405281019062000038919062000b59565b600482826040518060400160405280600a81526020017f4d79476f7665726e6f72000000000000000000000000000000000000000000008152508062000083620001aa60201b60201c565b60008280519060200120905060008280519060200120905060007f8b73c3c69bb8fe3d512ecc4cf759cc79239f7b179b0ffacaa9a75d522b39400f90508260e081815250508161010081815250504660a08181525050620000ec818484620001e760201b60201c565b608081815250503073ffffffffffffffffffffffffffffffffffffffff1660c08173ffffffffffffffffffffffffffffffffffffffff16815250508061012081815250505050505050806000908162000146919062000e1a565b505062000159816200022360201b60201c565b508073ffffffffffffffffffffffffffffffffffffffff166101408173ffffffffffffffffffffffffffffffffffffffff168152505050620001a181620002c460201b60201c565b505050620012d0565b60606040518060400160405280600181526020017f3100000000000000000000000000000000000000000000000000000000000000815250905090565b600083838346306040516020016200020495949392919062000f3e565b6040516020818303038152906040528051906020012090509392505050565b7f08f74ea46ef7894f65eabfb5e6e695de773a000b47c529ab559178069b226401600460009054906101000a900473ffffffffffffffffffffffffffffffffffffffff16826040516200027892919062000f9b565b60405180910390a180600460006101000a81548173ffffffffffffffffffffffffffffffffffffffff021916908373ffffffffffffffffffffffffffffffffffffffff16021790555050565b620002d4620004a360201b60201c565b81111562000319576040517f08c379a0000000000000000000000000000000000000000000000000000000008152600401620003109062001075565b60405180910390fd5b60006200032b620004ac60201b60201c565b9050600081141580156200034757506000600860000180549050145b15620004475760086000016040518060400160405280600063ffffffff16815260200162000380846200050260201b62002a5a1760201c565b7bffffffffffffffffffffffffffffffffffffffffffffffffffffffff168152509080600181540180825580915050600190039060005260206000200160009091909190915060008201518160000160006101000a81548163ffffffff021916908363ffffffff16021790555060208201518160000160046101000a8154817bffffffffffffffffffffffffffffffffffffffffffffffffffffffff02191690837bffffffffffffffffffffffffffffffffffffffffffffffffffffffff16021790555050505b620004628260086200057060201b62002ac51790919060201c565b50507f0553476bf02ef2726e8ce5ced78d63e26e602e4a2257b1f559418e24b463399781836040516200049792919062001097565b60405180910390a15050565b60006064905090565b60008060086000018054905014620004f957620004d560086200060060201b62002b331760201c565b7bffffffffffffffffffffffffffffffffffffffffffffffffffffffff16620004fd565b6007545b905090565b60007bffffffffffffffffffffffffffffffffffffffffffffffffffffffff801682111562000568576040517f08c379a00000000000000000000000000000000000000000000000000000000081526004016200055f906200113a565b60405180910390fd5b819050919050565b600080620005b38460000162000591436200067660201b62002b9d1760201c565b620005a7866200050260201b62002a5a1760201c565b620006cc60201b60201c565b817bffffffffffffffffffffffffffffffffffffffffffffffffffffffff169150807bffffffffffffffffffffffffffffffffffffffffffffffffffffffff169050915091509250929050565b60008082600001805490509050600081146200066b5762000639836000016001836200062d91906200118b565b62000a6d60201b60201c565b60000160049054906101000a90047bffffffffffffffffffffffffffffffffffffffffffffffffffffffff166200066e565b60005b915050919050565b600063ffffffff8016821115620006c4576040517f08c379a0000000000000000000000000000000000000000000000000000000008152600401620006bb906200123c565b60405180910390fd5b819050919050565b60008060008580549050905060008111156200097d5760006200070487600184620006f891906200118b565b62000a6d60201b60201c565b6040518060400160405290816000820160009054906101000a900463ffffffff1663ffffffff1663ffffffff1681526020016000820160049054906101000a90047bffffffffffffffffffffffffffffffffffffffffffffffffffffffff167bffffffffffffffffffffffffffffffffffffffffffffffffffffffff167bffffffffffffffffffffffffffffffffffffffffffffffffffffffff168152505090508563ffffffff16816000015163ffffffff161115620007fb576040517f08c379a0000000000000000000000000000000000000000000000000000000008152600401620007f290620012ae565b60405180910390fd5b8563ffffffff16816000015163ffffffff16036200088b578462000834886001856200082891906200118b565b62000a6d60201b60201c565b60000160046101000a8154817bffffffffffffffffffffffffffffffffffffffffffffffffffffffff02191690837bffffffffffffffffffffffffffffffffffffffffffffffffffffffff1602179055506200096b565b8660405180604001604052808863ffffffff168152602001877bffffffffffffffffffffffffffffffffffffffffffffffffffffffff168152509080600181540180825580915050600190039060005260206000200160009091909190915060008201518160000160006101000a81548163ffffffff021916908363ffffffff16021790555060208201518160000160046101000a8154817bffffffffffffffffffffffffffffffffffffffffffffffffffffffff02191690837bffffffffffffffffffffffffffffffffffffffffffffffffffffffff16021790555050505b80602001518593509350505062000a65565b8560405180604001604052808763ffffffff168152602001867bffffffffffffffffffffffffffffffffffffffffffffffffffffffff168152509080600181540180825580915050600190039060005260206000200160009091909190915060008201518160000160006101000a81548163ffffffff021916908363ffffffff16021790555060208201518160000160046101000a8154817bffffffffffffffffffffffffffffffffffffffffffffffffffffffff02191690837bffffffffffffffffffffffffffffffffffffffffffffffffffffffff160217905550505060008492509250505b935093915050565b60008260005281602060002001905092915050565b600080fd5b600073ffffffffffffffffffffffffffffffffffffffff82169050919050565b600062000ab48262000a87565b9050919050565b600062000ac88262000aa7565b9050919050565b62000ada8162000abb565b811462000ae657600080fd5b50565b60008151905062000afa8162000acf565b92915050565b600062000b0d8262000a87565b9050919050565b600062000b218262000b00565b9050919050565b62000b338162000b14565b811462000b3f57600080fd5b50565b60008151905062000b538162000b28565b92915050565b6000806040838503121562000b735762000b7262000a82565b5b600062000b838582860162000ae9565b925050602062000b968582860162000b42565b9150509250929050565b600081519050919050565b7f4e487b7100000000000000000000000000000000000000000000000000000000600052604160045260246000fd5b7f4e487b7100000000000000000000000000000000000000000000000000000000600052602260045260246000fd5b6000600282049050600182168062000c2257607f821691505b60208210810362000c385762000c3762000bda565b5b50919050565b60008190508160005260206000209050919050565b60006020601f8301049050919050565b600082821b905092915050565b60006008830262000ca27fffffffffffffffffffffffffffffffffffffffffffffffffffffffffffffffff8262000c63565b62000cae868362000c63565b95508019841693508086168417925050509392505050565b6000819050919050565b6000819050919050565b600062000cfb62000cf562000cef8462000cc6565b62000cd0565b62000cc6565b9050919050565b6000819050919050565b62000d178362000cda565b62000d2f62000d268262000d02565b84845462000c70565b825550505050565b600090565b62000d4662000d37565b62000d5381848462000d0c565b505050565b5b8181101562000d7b5762000d6f60008262000d3c565b60018101905062000d59565b5050565b601f82111562000dca5762000d948162000c3e565b62000d9f8462000c53565b8101602085101562000daf578190505b62000dc762000dbe8562000c53565b83018262000d58565b50505b505050565b600082821c905092915050565b600062000def6000198460080262000dcf565b1980831691505092915050565b600062000e0a838362000ddc565b9150826002028217905092915050565b62000e258262000ba0565b67ffffffffffffffff81111562000e415762000e4062000bab565b5b62000e4d825462000c09565b62000e5a82828562000d7f565b600060209050601f83116001811462000e92576000841562000e7d578287015190505b62000e89858262000dfc565b86555062000ef9565b601f19841662000ea28662000c3e565b60005b8281101562000ecc5784890151825560018201915060208501945060208101905062000ea5565b8683101562000eec578489015162000ee8601f89168262000ddc565b8355505b6001600288020188555050505b505050505050565b6000819050919050565b62000f168162000f01565b82525050565b62000f278162000cc6565b82525050565b62000f388162000aa7565b82525050565b600060a08201905062000f55600083018862000f0b565b62000f64602083018762000f0b565b62000f73604083018662000f0b565b62000f82606083018562000f1c565b62000f91608083018462000f2d565b9695505050505050565b600060408201905062000fb2600083018562000f2d565b62000fc1602083018462000f2d565b9392505050565b600082825260208201905092915050565b7f476f7665726e6f72566f74657351756f72756d4672616374696f6e3a2071756f60008201527f72756d4e756d657261746f72206f7665722071756f72756d44656e6f6d696e6160208201527f746f720000000000000000000000000000000000000000000000000000000000604082015250565b60006200105d60438362000fc8565b91506200106a8262000fd9565b606082019050919050565b6000602082019050818103600083015262001090816200104e565b9050919050565b6000604082019050620010ae600083018562000f1c565b620010bd602083018462000f1c565b9392505050565b7f53616665436173743a2076616c756520646f65736e27742066697420696e203260008201527f3234206269747300000000000000000000000000000000000000000000000000602082015250565b60006200112260278362000fc8565b91506200112f82620010c4565b604082019050919050565b60006020820190508181036000830152620011558162001113565b9050919050565b7f4e487b7100000000000000000000000000000000000000000000000000000000600052601160045260246000fd5b6000620011988262000cc6565b9150620011a58362000cc6565b9250828203905081811115620011c057620011bf6200115c565b5b92915050565b7f53616665436173743a2076616c756520646f65736e27742066697420696e203360008201527f3220626974730000000000000000000000000000000000000000000000000000602082015250565b60006200122460268362000fc8565b91506200123182620011c6565b604082019050919050565b60006020820190508181036000830152620012578162001215565b9050919050565b7f436865636b706f696e743a20696e76616c6964206b6579000000000000000000600082015250565b60006200129660178362000fc8565b9150620012a3826200125e565b602082019050919050565b60006020820190508181036000830152620012c98162001287565b9050919050565b60805160a05160c05160e0516101005161012051610140516184d662001339600039600081816127830152818161374f01526139e501526000614046015260006140880152600061406701526000613f9c01526000613ff20152600061401b01526184d66000f3fe6080604052600436106102765760003560e01c80637b3c71d31161014f578063c59057e4116100c1578063e23a9a521161007a578063e23a9a5214610ac2578063eb9019d414610aff578063f23a6e6114610b3c578063f8ce560a14610b79578063fc0c546a14610bb6578063fe0d94c114610be1576102bc565b8063c59057e41461099e578063d33219b4146109db578063da95691a14610a06578063dd4e2ba514610a43578063ddf0b00914610a6e578063deaaa7cc14610a97576102bc565b8063a890c91011610113578063a890c91014610877578063ab58fb8e146108a0578063b58131b0146108dd578063bc197c8114610908578063c01f9e3714610945578063c28bc2fa14610982576102bc565b80637b3c71d31461076a5780637d5e81e2146107a757806397c3d334146107e45780639a802a6d1461080f578063a7713a701461084c576102bc565b80632fe3e261116101e857806340e58ee5116101ac57806340e58ee514610622578063438596321461064b57806354fd4d501461068857806356781388146106b35780635f398a14146106f057806360c4247f1461072d576102bc565b80632fe3e26114610512578063328dd9821461053d5780633932abb11461057d5780633bccf4fd146105a85780633e4f49e6146105e5576102bc565b806306fdde031161023a57806306fdde03146103d5578063150b7a0214610400578063160cbed71461043d57806324bc1a641461047a5780632656227d146104a55780632d63f693146104d5576102bc565b8063013cf08b146102c157806301ffc9a71461030757806302a251a314610344578063034201811461036f57806306f3f9e6146103ac576102bc565b366102bc573073ffffffffffffffffffffffffffffffffffffffff1661029a610bfd565b73ffffffffffffffffffffffffffffffffffffffff16146102ba57600080fd5b005b600080fd5b3480156102cd57600080fd5b506102e860048036038101906102e39190615362565b610c0c565b6040516102fe9a999897969594939291906153fa565b60405180910390f35b34801561031357600080fd5b5061032e600480360381019061032991906154ee565b610d01565b60405161033b919061551b565b60405180910390f35b34801561035057600080fd5b50610359610d13565b6040516103669190615536565b60405180910390f35b34801561037b57600080fd5b5061039660048036038101906103919190615766565b610d1d565b6040516103a39190615536565b60405180910390f35b3480156103b857600080fd5b506103d360048036038101906103ce9190615362565b610e02565b005b3480156103e157600080fd5b506103ea610ef9565b6040516103f791906158c3565b60405180910390f35b34801561040c57600080fd5b5061042760048036038101906104229190615911565b610f8b565b60405161043491906159a3565b60405180910390f35b34801561044957600080fd5b50610464600480360381019061045f9190615c25565b610f9f565b6040516104719190615536565b60405180910390f35b34801561048657600080fd5b5061048f611259565b60405161049c9190615536565b60405180910390f35b6104bf60048036038101906104ba9190615c25565b611275565b6040516104cc9190615536565b60405180910390f35b3480156104e157600080fd5b506104fc60048036038101906104f79190615362565b6113c2565b6040516105099190615536565b60405180910390f35b34801561051e57600080fd5b50610527611430565b6040516105349190615cef565b60405180910390f35b34801561054957600080fd5b50610564600480360381019061055f9190615362565b611454565b60405161057494939291906160a9565b60405180910390f35b34801561058957600080fd5b50610592611711565b60405161059f9190615536565b60405180910390f35b3480156105b457600080fd5b506105cf60048036038101906105ca919061610a565b61171a565b6040516105dc9190615536565b60405180910390f35b3480156105f157600080fd5b5061060c60048036038101906106079190615362565b6117a4565b60405161061991906161fc565b60405180910390f35b34801561062e57600080fd5b5061064960048036038101906106449190615362565b6117b6565b005b34801561065757600080fd5b50610672600480360381019061066d9190616217565b611b4e565b60405161067f919061551b565b60405180910390f35b34801561069457600080fd5b5061069d611bbc565b6040516106aa91906158c3565b60405180910390f35b3480156106bf57600080fd5b506106da60048036038101906106d59190616257565b611bf9565b6040516106e79190615536565b60405180910390f35b3480156106fc57600080fd5b5061071760048036038101906107129190616297565b611c2a565b6040516107249190615536565b60405180910390f35b34801561073957600080fd5b50610754600480360381019061074f9190615362565b611c94565b6040516107619190615536565b60405180910390f35b34801561077657600080fd5b50610791600480360381019061078c919061633b565b611de0565b60405161079e9190615536565b60405180910390f35b3480156107b357600080fd5b506107ce60048036038101906107c99190616450565b611e48565b6040516107db9190615536565b60405180910390f35b3480156107f057600080fd5b506107f9611e60565b6040516108069190615536565b60405180910390f35b34801561081b57600080fd5b5061083660048036038101906108319190616527565b611e69565b6040516108439190615536565b60405180910390f35b34801561085857600080fd5b50610861611e7f565b60405161086e9190615536565b60405180910390f35b34801561088357600080fd5b5061089e600480360381019061089991906165e6565b611ec6565b005b3480156108ac57600080fd5b506108c760048036038101906108c29190615362565b611fbd565b6040516108d49190615536565b60405180910390f35b3480156108e957600080fd5b506108f261208a565b6040516108ff9190615536565b60405180910390f35b34801561091457600080fd5b5061092f600480360381019061092a9190616613565b61209b565b60405161093c91906159a3565b60405180910390f35b34801561095157600080fd5b5061096c60048036038101906109679190615362565b6120b0565b6040516109799190615536565b60405180910390f35b61099c60048036038101906109979190616738565b61211e565b005b3480156109aa57600080fd5b506109c560048036038101906109c09190615c25565b6122a7565b6040516109d29190615536565b60405180910390f35b3480156109e757600080fd5b506109f06122e3565b6040516109fd91906167ac565b60405180910390f35b348015610a1257600080fd5b50610a2d6004803603810190610a2891906168a8565b61230d565b604051610a3a9190615536565b60405180910390f35b348015610a4f57600080fd5b50610a58612344565b604051610a6591906158c3565b60405180910390f35b348015610a7a57600080fd5b50610a956004803603810190610a909190615362565b612381565b005b348015610aa357600080fd5b50610aac612636565b604051610ab99190615cef565b60405180910390f35b348015610ace57600080fd5b50610ae96004803603810190610ae49190616217565b61265a565b604051610af69190616a36565b60405180910390f35b348015610b0b57600080fd5b50610b266004803603810190610b219190616a51565b61273e565b604051610b339190615536565b60405180910390f35b348015610b4857600080fd5b50610b636004803603810190610b5e9190616a91565b61275a565b604051610b7091906159a3565b60405180910390f35b348015610b8557600080fd5b50610ba06004803603810190610b9b9190615362565b61276f565b604051610bad9190615536565b60405180910390f35b348015610bc257600080fd5b50610bcb612781565b604051610bd89190616b87565b60405180910390f35b610bfb6004803603810190610bf69190615362565b6127a5565b005b6000610c07612bf0565b905090565b6000806000806000806000806000808a9950610c278b611fbd565b9750610c328b6113c2565b9650610c3d8b6120b0565b95506000600660008d815260200190815260200160002090508060000160009054906101000a900473ffffffffffffffffffffffffffffffffffffffff1699508060050154955080600601549450806007015493506000610c9d8d6117a4565b905060026007811115610cb357610cb2616185565b5b816007811115610cc657610cc5616185565b5b149350600780811115610cdc57610cdb616185565b5b816007811115610cef57610cee616185565b5b14925050509193959799509193959799565b6000610d0c82612c1a565b9050919050565b600061b2fa905090565b600080610da0610d987fb3b3f3b703cd84ce352197dcff232b1b5d3cfb2025ce47cf04742d0651f1af888c8c8c8c604051610d59929190616bd2565b60405180910390208b80519060200120604051602001610d7d959493929190616bfa565b60405160208183030381529060405280519060200120612c94565b868686612cae565b9050610df38a828b8b8b8080601f016020809104026020016040519081016040528093929190818152602001838380828437600081840152601f19601f820116905080830192505050505050508a612cd9565b91505098975050505050505050565b610e0a610bfd565b73ffffffffffffffffffffffffffffffffffffffff16610e28612e95565b73ffffffffffffffffffffffffffffffffffffffff1614610e7e576040517f08c379a0000000000000000000000000000000000000000000000000000000008152600401610e7590616c99565b60405180910390fd5b3073ffffffffffffffffffffffffffffffffffffffff16610e9d610bfd565b73ffffffffffffffffffffffffffffffffffffffff1614610eed576000610ec2612e9d565b604051610ed0929190616bd2565b604051809103902090505b80610ee66002612eaa565b03610edb57505b610ef681612f86565b50565b606060008054610f0890616ce8565b80601f0160208091040260200160405190810160405280929190818152602001828054610f3490616ce8565b8015610f815780601f10610f5657610100808354040283529160200191610f81565b820191906000526020600020905b815481529060010190602001808311610f6457829003601f168201915b5050505050905090565b600063150b7a0260e01b9050949350505050565b600080610fae868686866122a7565b905060046007811115610fc457610fc3616185565b5b610fcd826117a4565b6007811115610fdf57610fde616185565b5b1461101f576040517f08c379a000000000000000000000000000000000000000000000000000000000815260040161101690616d8b565b60405180910390fd5b6000600460009054906101000a900473ffffffffffffffffffffffffffffffffffffffff1673ffffffffffffffffffffffffffffffffffffffff1663f27a0c926040518163ffffffff1660e01b8152600401602060405180830381865afa15801561108e573d6000803e3d6000fd5b505050506040513d601f19601f820116820180604052508101906110b29190616dc0565b9050600460009054906101000a900473ffffffffffffffffffffffffffffffffffffffff1673ffffffffffffffffffffffffffffffffffffffff1663b1c5f4278888886000896040518663ffffffff1660e01b8152600401611118959493929190616e35565b602060405180830381865afa158015611135573d6000803e3d6000fd5b505050506040513d601f19601f820116820180604052508101906111599190616eb2565b6005600084815260200190815260200160002081905550600460009054906101000a900473ffffffffffffffffffffffffffffffffffffffff1673ffffffffffffffffffffffffffffffffffffffff16638f2a0bb0888888600089876040518763ffffffff1660e01b81526004016111d696959493929190616edf565b600060405180830381600087803b1580156111f057600080fd5b505af1158015611204573d6000803e3d6000fd5b505050507f9a2e42fd6722813d69113e7d0079d3d940171428df7373df9c7f7617cfda28928282426112369190616f84565b604051611244929190616fb8565b60405180910390a18192505050949350505050565b600061127060014361126b9190616fe1565b61276f565b905090565b600080611284868686866122a7565b90506000611291826117a4565b9050600460078111156112a7576112a6616185565b5b8160078111156112ba576112b9616185565b5b14806112ea5750600560078111156112d5576112d4616185565b5b8160078111156112e8576112e7616185565b5b145b611329576040517f08c379a000000000000000000000000000000000000000000000000000000000815260040161132090616d8b565b60405180910390fd5b600180600084815260200190815260200160002060020160006101000a81548160ff0219169083151502179055507f712ae1383f79ac853f8d882153778e0260ef8f03b504e2866e0593e04d2b291f826040516113869190615536565b60405180910390a161139b828888888861313a565b6113a8828888888861321d565b6113b58288888888613231565b8192505050949350505050565b600061141f600160008481526020019081526020016000206000016040518060200160405290816000820160009054906101000a900467ffffffffffffffff1667ffffffffffffffff1667ffffffffffffffff168152505061328c565b67ffffffffffffffff169050919050565b7fb3b3f3b703cd84ce352197dcff232b1b5d3cfb2025ce47cf04742d0651f1af8881565b6060806060806000600660008781526020019081526020016000209050806001018160020182600301836004018380548060200260200160405190810160405280929190818152602001828054801561150257602002820191906000526020600020905b8160009054906101000a900473ffffffffffffffffffffffffffffffffffffffff1673ffffffffffffffffffffffffffffffffffffffff16815260200190600101908083116114b8575b505050505093508280548060200260200160405190810160405280929190818152602001828054801561155457602002820191906000526020600020905b815481526020019060010190808311611540575b5050505050925081805480602002602001604051908101604052809291908181526020016000905b8282101561162857838290600052602060002001805461159b90616ce8565b80601f01602080910402602001604051908101604052809291908181526020018280546115c790616ce8565b80156116145780601f106115e957610100808354040283529160200191611614565b820191906000526020600020905b8154815290600101906020018083116115f757829003601f168201915b50505050508152602001906001019061157c565b50505050915080805480602002602001604051908101604052809291908181526020016000905b828210156116fb57838290600052602060002001805461166e90616ce8565b80601f016020809104026020016040519081016040528092919081815260200182805461169a90616ce8565b80156116e75780601f106116bc576101008083540402835291602001916116e7565b820191906000526020600020905b8154815290600101906020018083116116ca57829003601f168201915b50505050508152602001906001019061164f565b5050505090509450945094509450509193509193565b60006001905090565b60008061177b6117737f150214d74d59b7d1e90c73fc22ef3d991dd0a76b046543d4d80ab92d2a50328f898960405160200161175893929190617015565b60405160208183030381529060405280519060200120612c94565b868686612cae565b90506117988782886040518060200160405280600081525061329a565b91505095945050505050565b60006117af826132ba565b9050919050565b60006006600083815260200190815260200160002090508060000160009054906101000a900473ffffffffffffffffffffffffffffffffffffffff1673ffffffffffffffffffffffffffffffffffffffff16611810612e95565b73ffffffffffffffffffffffffffffffffffffffff161480611871575061183561208a565b61186f8260000160009054906101000a900473ffffffffffffffffffffffffffffffffffffffff1660014361186a9190616fe1565b61273e565b105b6118b0576040517f08c379a00000000000000000000000000000000000000000000000000000000081526004016118a7906170be565b60405180910390fd5b611b498160010180548060200260200160405190810160405280929190818152602001828054801561193757602002820191906000526020600020905b8160009054906101000a900473ffffffffffffffffffffffffffffffffffffffff1673ffffffffffffffffffffffffffffffffffffffff16815260200190600101908083116118ed575b50505050508260020180548060200260200160405190810160405280929190818152602001828054801561198a57602002820191906000526020600020905b815481526020019060010190808311611976575b5050505050611b3f84600301805480602002602001604051908101604052809291908181526020016000905b82821015611a625783829060005260206000200180546119d590616ce8565b80601f0160208091040260200160405190810160405280929190818152602001828054611a0190616ce8565b8015611a4e5780601f10611a2357610100808354040283529160200191611a4e565b820191906000526020600020905b815481529060010190602001808311611a3157829003601f168201915b5050505050815260200190600101906119b6565b5050505085600401805480602002602001604051908101604052809291908181526020016000905b82821015611b36578382906000526020600020018054611aa990616ce8565b80601f0160208091040260200160405190810160405280929190818152602001828054611ad590616ce8565b8015611b225780601f10611af757610100808354040283529160200191611b22565b820191906000526020600020905b815481529060010190602001808311611b0557829003601f168201915b505050505081526020019060010190611a8a565b5050505061348d565b84600901546135c9565b505050565b60006006600084815260200190815260200160002060080160008373ffffffffffffffffffffffffffffffffffffffff1673ffffffffffffffffffffffffffffffffffffffff16815260200190815260200160002060000160009054906101000a900460ff16905092915050565b60606040518060400160405280600181526020017f3100000000000000000000000000000000000000000000000000000000000000815250905090565b600080611c04612e95565b9050611c218482856040518060200160405280600081525061329a565b91505092915050565b600080611c35612e95565b9050611c8887828888888080601f016020809104026020016040519081016040528093929190818152602001838380828437600081840152601f19601f8201169050808301925050505050505087612cd9565b91505095945050505050565b600080600860000180549050905060008103611cb557600754915050611ddb565b60006008600001600183611cc99190616fe1565b81548110611cda57611cd96170de565b5b906000526020600020016040518060400160405290816000820160009054906101000a900463ffffffff1663ffffffff1663ffffffff1681526020016000820160049054906101000a90047bffffffffffffffffffffffffffffffffffffffffffffffffffffffff167bffffffffffffffffffffffffffffffffffffffffffffffffffffffff167bffffffffffffffffffffffffffffffffffffffffffffffffffffffff1681525050905083816000015163ffffffff1611611dc25780602001517bffffffffffffffffffffffffffffffffffffffffffffffffffffffff1692505050611ddb565b611dd68460086135e190919063ffffffff16565b925050505b919050565b600080611deb612e95565b9050611e3d86828787878080601f016020809104026020016040519081016040528093929190818152602001838380828437600081840152601f19601f8201169050808301925050505050505061329a565b915050949350505050565b6000611e56858585856136d0565b9050949350505050565b60006064905090565b6000611e7684848461374b565b90509392505050565b60008060086000018054905014611ebd57611e9a6008612b33565b7bffffffffffffffffffffffffffffffffffffffffffffffffffffffff16611ec1565b6007545b905090565b611ece610bfd565b73ffffffffffffffffffffffffffffffffffffffff16611eec612e95565b73ffffffffffffffffffffffffffffffffffffffff1614611f42576040517f08c379a0000000000000000000000000000000000000000000000000000000008152600401611f3990616c99565b60405180910390fd5b3073ffffffffffffffffffffffffffffffffffffffff16611f61610bfd565b73ffffffffffffffffffffffffffffffffffffffff1614611fb1576000611f86612e9d565b604051611f94929190616bd2565b604051809103902090505b80611faa6002612eaa565b03611f9f57505b611fba816137f2565b50565b600080600460009054906101000a900473ffffffffffffffffffffffffffffffffffffffff1673ffffffffffffffffffffffffffffffffffffffff1663d45c443560056000868152602001908152602001600020546040518263ffffffff1660e01b815260040161202e9190615cef565b602060405180830381865afa15801561204b573d6000803e3d6000fd5b505050506040513d601f19601f8201168201806040525081019061206f9190616dc0565b90506001811461207f5780612082565b60005b915050919050565b6000683635c9adc5dea00000905090565b600063bc197c8160e01b905095945050505050565b600061210d600160008481526020019081526020016000206001016040518060200160405290816000820160009054906101000a900467ffffffffffffffff1667ffffffffffffffff1667ffffffffffffffff168152505061328c565b67ffffffffffffffff169050919050565b612126610bfd565b73ffffffffffffffffffffffffffffffffffffffff16612144612e95565b73ffffffffffffffffffffffffffffffffffffffff161461219a576040517f08c379a000000000000000000000000000000000000000000000000000000000815260040161219190616c99565b60405180910390fd5b3073ffffffffffffffffffffffffffffffffffffffff166121b9610bfd565b73ffffffffffffffffffffffffffffffffffffffff16146122095760006121de612e9d565b6040516121ec929190616bd2565b604051809103902090505b806122026002612eaa565b036121f757505b6000808573ffffffffffffffffffffffffffffffffffffffff16858585604051612234929190616bd2565b60006040518083038185875af1925050503d8060008114612271576040519150601f19603f3d011682016040523d82523d6000602084013e612276565b606091505b509150915061229e828260405180606001604052806028815260200161847960289139613891565b50505050505050565b6000848484846040516020016122c0949392919061710d565b6040516020818303038152906040528051906020012060001c9050949350505050565b6000600460009054906101000a900473ffffffffffffffffffffffffffffffffffffffff16905090565b600061232461231a612e95565b87878787876138b3565b6123398686612333878761348d565b85611e48565b905095945050505050565b60606040518060400160405280601a81526020017f737570706f72743d627261766f2671756f72756d3d627261766f000000000000815250905090565b60006006600083815260200190815260200160002090506126318160010180548060200260200160405190810160405280929190818152602001828054801561241f57602002820191906000526020600020905b8160009054906101000a900473ffffffffffffffffffffffffffffffffffffffff1673ffffffffffffffffffffffffffffffffffffffff16815260200190600101908083116123d5575b50505050508260020180548060200260200160405190810160405280929190818152602001828054801561247257602002820191906000526020600020905b81548152602001906001019080831161245e575b505050505061262784600301805480602002602001604051908101604052809291908181526020016000905b8282101561254a5783829060005260206000200180546124bd90616ce8565b80601f01602080910402602001604051908101604052809291908181526020018280546124e990616ce8565b80156125365780601f1061250b57610100808354040283529160200191612536565b820191906000526020600020905b81548152906001019060200180831161251957829003601f168201915b50505050508152602001906001019061249e565b5050505085600401805480602002602001604051908101604052809291908181526020016000905b8282101561261e57838290600052602060002001805461259190616ce8565b80601f01602080910402602001604051908101604052809291908181526020018280546125bd90616ce8565b801561260a5780601f106125df5761010080835404028352916020019161260a565b820191906000526020600020905b8154815290600101906020018083116125ed57829003601f168201915b505050505081526020019060010190612572565b5050505061348d565b8460090154610f9f565b505050565b7f150214d74d59b7d1e90c73fc22ef3d991dd0a76b046543d4d80ab92d2a50328f81565b612662615076565b6006600084815260200190815260200160002060080160008373ffffffffffffffffffffffffffffffffffffffff1673ffffffffffffffffffffffffffffffffffffffff1681526020019081526020016000206040518060600160405290816000820160009054906101000a900460ff161515151581526020016000820160019054906101000a900460ff1660ff1660ff1681526020016000820160029054906101000a90046bffffffffffffffffffffffff166bffffffffffffffffffffffff166bffffffffffffffffffffffff1681525050905092915050565b6000612752838361274d6139b9565b61374b565b905092915050565b600063f23a6e6160e01b905095945050505050565b600061277a826139d0565b9050919050565b7f000000000000000000000000000000000000000000000000000000000000000081565b6000600660008381526020019081526020016000209050612a558160010180548060200260200160405190810160405280929190818152602001828054801561284357602002820191906000526020600020905b8160009054906101000a900473ffffffffffffffffffffffffffffffffffffffff1673ffffffffffffffffffffffffffffffffffffffff16815260200190600101908083116127f9575b50505050508260020180548060200260200160405190810160405280929190818152602001828054801561289657602002820191906000526020600020905b815481526020019060010190808311612882575b5050505050612a4b84600301805480602002602001604051908101604052809291908181526020016000905b8282101561296e5783829060005260206000200180546128e190616ce8565b80601f016020809104026020016040519081016040528092919081815260200182805461290d90616ce8565b801561295a5780601f1061292f5761010080835404028352916020019161295a565b820191906000526020600020905b81548152906001019060200180831161293d57829003601f168201915b5050505050815260200190600101906128c2565b5050505085600401805480602002602001604051908101604052809291908181526020016000905b82821015612a425783829060005260206000200180546129b590616ce8565b80601f01602080910402602001604051908101604052809291908181526020018280546129e190616ce8565b8015612a2e5780601f10612a0357610100808354040283529160200191612a2e565b820191906000526020600020905b815481529060010190602001808311612a1157829003601f168201915b505050505081526020019060010190612996565b5050505061348d565b8460090154611275565b505050565b60007bffffffffffffffffffffffffffffffffffffffffffffffffffffffff8016821115612abd576040517f08c379a0000000000000000000000000000000000000000000000000000000008152600401612ab4906171d9565b60405180910390fd5b819050919050565b600080612ae684600001612ad843612b9d565b612ae186612a5a565b613a98565b817bffffffffffffffffffffffffffffffffffffffffffffffffffffffff169150807bffffffffffffffffffffffffffffffffffffffffffffffffffffffff169050915091509250929050565b6000808260000180549050905060008114612b9257612b6183600001600183612b5c9190616fe1565b613e1e565b60000160049054906101000a90047bffffffffffffffffffffffffffffffffffffffffffffffffffffffff16612b95565b60005b915050919050565b600063ffffffff8016821115612be8576040517f08c379a0000000000000000000000000000000000000000000000000000000008152600401612bdf9061726b565b60405180910390fd5b819050919050565b6000600460009054906101000a900473ffffffffffffffffffffffffffffffffffffffff16905090565b60007f6e665ced000000000000000000000000000000000000000000000000000000007bffffffffffffffffffffffffffffffffffffffffffffffffffffffff1916827bffffffffffffffffffffffffffffffffffffffffffffffffffffffff19161480612c8d5750612c8c82613e33565b5b9050919050565b6000612ca7612ca1613f98565b836140b2565b9050919050565b6000806000612cbf878787876140e5565b91509150612ccc816141c7565b8192505050949350505050565b60008060016000888152602001908152602001600020905060016007811115612d0557612d04616185565b5b612d0e886117a4565b6007811115612d2057612d1f616185565b5b14612d60576040517f08c379a0000000000000000000000000000000000000000000000000000000008152600401612d57906172fd565b60405180910390fd5b6000612dbf87612daf846000016040518060200160405290816000820160009054906101000a900467ffffffffffffffff1667ffffffffffffffff1667ffffffffffffffff168152505061328c565b67ffffffffffffffff168661374b565b9050612dce888888848861432d565b6000845103612e30578673ffffffffffffffffffffffffffffffffffffffff167fb8e138887d0aa13bab447e82de9d5c1777041ecd21ca36ba824ff1e6c07ddda489888489604051612e23949392919061731d565b60405180910390a2612e87565b8673ffffffffffffffffffffffffffffffffffffffff167fe2babfbac5889a709b63bb7f598b324e08bc5a4fb9ec647fb3cbc9ec07eb87128988848989604051612e7e9594939291906173b3565b60405180910390a25b809250505095945050505050565b600033905090565b3660008036915091509091565b6000612eb582614555565b15612eec576040517f3db2a12a00000000000000000000000000000000000000000000000000000000815260040160405180910390fd5b60008260000160009054906101000a9004600f0b905082600101600082600f0b600f0b815260200190815260200160002054915082600101600082600f0b600f0b815260200190815260200160002060009055600181018360000160006101000a8154816fffffffffffffffffffffffffffffffff0219169083600f0b6fffffffffffffffffffffffffffffffff16021790555050919050565b612f8e611e60565b811115612fd0576040517f08c379a0000000000000000000000000000000000000000000000000000000008152600401612fc7906174ac565b60405180910390fd5b6000612fda611e7f565b905060008114158015612ff557506000600860000180549050145b156130e75760086000016040518060400160405280600063ffffffff16815260200161302084612a5a565b7bffffffffffffffffffffffffffffffffffffffffffffffffffffffff168152509080600181540180825580915050600190039060005260206000200160009091909190915060008201518160000160006101000a81548163ffffffff021916908363ffffffff16021790555060208201518160000160046101000a8154817bffffffffffffffffffffffffffffffffffffffffffffffffffffffff02191690837bffffffffffffffffffffffffffffffffffffffffffffffffffffffff16021790555050505b6130fb826008612ac590919063ffffffff16565b50507f0553476bf02ef2726e8ce5ced78d63e26e602e4a2257b1f559418e24b4633997818360405161312e929190616fb8565b60405180910390a15050565b3073ffffffffffffffffffffffffffffffffffffffff16613159610bfd565b73ffffffffffffffffffffffffffffffffffffffff16146132165760005b8451811015613214573073ffffffffffffffffffffffffffffffffffffffff168582815181106131aa576131a96170de565b5b602002602001015173ffffffffffffffffffffffffffffffffffffffff1603613203576132028382815181106131e3576131e26170de565b5b602002602001015180519060200120600261458a90919063ffffffff16565b5b8061320d906174cc565b9050613177565b505b5050505050565b61322a8585858585614606565b5050505050565b3073ffffffffffffffffffffffffffffffffffffffff16613250610bfd565b73ffffffffffffffffffffffffffffffffffffffff1614613285576132756002614555565b6132845761328360026146a4565b5b5b5050505050565b600081600001519050919050565b60006132b0858585856132ab6139b9565b612cd9565b9050949350505050565b6000806132c683614725565b9050600460078111156132dc576132db616185565b5b8160078111156132ef576132ee616185565b5b146132fd5780915050613488565b6000600560008581526020019081526020016000205490506000801b8103613329578192505050613488565b600460009054906101000a900473ffffffffffffffffffffffffffffffffffffffff1673ffffffffffffffffffffffffffffffffffffffff16632ab0f529826040518263ffffffff1660e01b81526004016133849190615cef565b602060405180830381865afa1580156133a1573d6000803e3d6000fd5b505050506040513d601f19601f820116820180604052508101906133c59190617540565b156133d557600792505050613488565b600460009054906101000a900473ffffffffffffffffffffffffffffffffffffffff1673ffffffffffffffffffffffffffffffffffffffff1663584b153e826040518263ffffffff1660e01b81526004016134309190615cef565b602060405180830381865afa15801561344d573d6000803e3d6000fd5b505050506040513d601f19601f820116820180604052508101906134719190617540565b1561348157600592505050613488565b6002925050505b919050565b60606000825167ffffffffffffffff8111156134ac576134ab615605565b5b6040519080825280602002602001820160405280156134df57816020015b60608152602001906001900390816134ca5790505b50905060005b84518110156135be576000858281518110613503576135026170de565b5b6020026020010151511461357357848181518110613524576135236170de565b5b602002602001015180519060200120848281518110613546576135456170de565b5b602002602001015160405160200161355f9291906175bf565b60405160208183030381529060405261358f565b838181518110613586576135856170de565b5b60200260200101515b8282815181106135a2576135a16170de565b5b6020026020010181905250806135b7906174cc565b90506134e5565b508091505092915050565b60006135d785858585614839565b9050949350505050565b6000438210613625576040517f08c379a000000000000000000000000000000000000000000000000000000000815260040161361c90617633565b60405180910390fd5b600061363083612b9d565b90506000846000018054905090506000613650866000018460008561492b565b9050600081146136a4576136738660000160018361366e9190616fe1565b613e1e565b60000160049054906101000a90047bffffffffffffffffffffffffffffffffffffffffffffffffffffffff166136a7565b60005b7bffffffffffffffffffffffffffffffffffffffffffffffffffffffff16935050505092915050565b60006137356136dd612e95565b8686865167ffffffffffffffff8111156136fa576136f9615605565b5b60405190808252806020026020018201604052801561372d57816020015b60608152602001906001900390816137185790505b5087876138b3565b6137418585858561499e565b9050949350505050565b60007f000000000000000000000000000000000000000000000000000000000000000073ffffffffffffffffffffffffffffffffffffffff16633a46b1a885856040518363ffffffff1660e01b81526004016137a8929190617653565b602060405180830381865afa1580156137c5573d6000803e3d6000fd5b505050506040513d601f19601f820116820180604052508101906137e99190616dc0565b90509392505050565b7f08f74ea46ef7894f65eabfb5e6e695de773a000b47c529ab559178069b226401600460009054906101000a900473ffffffffffffffffffffffffffffffffffffffff168260405161384592919061767c565b60405180910390a180600460006101000a81548173ffffffffffffffffffffffffffffffffffffffff021916908373ffffffffffffffffffffffffffffffffffffffff16021790555050565b606083156138a1578290506138ac565b6138ab8383614ca5565b5b9392505050565b60008180519060200120905060006138d687876138d0888861348d565b856122a7565b905060006006600083815260200190815260200160002090506000801b8160090154036139ae57888160000160006101000a81548173ffffffffffffffffffffffffffffffffffffffff021916908373ffffffffffffffffffffffffffffffffffffffff160217905550878160010190805190602001906139589291906150aa565b5086816002019080519060200190613971929190615134565b508581600301908051906020019061398a929190615181565b50848160040190805190602001906139a39291906151da565b508281600901819055505b505050505050505050565b606060405180602001604052806000815250905090565b60006139da611e60565b6139e383611c94565b7f000000000000000000000000000000000000000000000000000000000000000073ffffffffffffffffffffffffffffffffffffffff16638e539e8c856040518263ffffffff1660e01b8152600401613a3c9190615536565b602060405180830381865afa158015613a59573d6000803e3d6000fd5b505050506040513d601f19601f82011682018060405250810190613a7d9190616dc0565b613a8791906176a5565b613a919190617716565b9050919050565b6000806000858054905090506000811115613d2e576000613ac587600184613ac09190616fe1565b613e1e565b6040518060400160405290816000820160009054906101000a900463ffffffff1663ffffffff1663ffffffff1681526020016000820160049054906101000a90047bffffffffffffffffffffffffffffffffffffffffffffffffffffffff167bffffffffffffffffffffffffffffffffffffffffffffffffffffffff167bffffffffffffffffffffffffffffffffffffffffffffffffffffffff168152505090508563ffffffff16816000015163ffffffff161115613bb9576040517f08c379a0000000000000000000000000000000000000000000000000000000008152600401613bb090617793565b60405180910390fd5b8563ffffffff16816000015163ffffffff1603613c3d5784613be788600185613be29190616fe1565b613e1e565b60000160046101000a8154817bffffffffffffffffffffffffffffffffffffffffffffffffffffffff02191690837bffffffffffffffffffffffffffffffffffffffffffffffffffffffff160217905550613d1d565b8660405180604001604052808863ffffffff168152602001877bffffffffffffffffffffffffffffffffffffffffffffffffffffffff168152509080600181540180825580915050600190039060005260206000200160009091909190915060008201518160000160006101000a81548163ffffffff021916908363ffffffff16021790555060208201518160000160046101000a8154817bffffffffffffffffffffffffffffffffffffffffffffffffffffffff02191690837bffffffffffffffffffffffffffffffffffffffffffffffffffffffff16021790555050505b806020015185935093505050613e16565b8560405180604001604052808763ffffffff168152602001867bffffffffffffffffffffffffffffffffffffffffffffffffffffffff168152509080600181540180825580915050600190039060005260206000200160009091909190915060008201518160000160006101000a81548163ffffffff021916908363ffffffff16021790555060208201518160000160046101000a8154817bffffffffffffffffffffffffffffffffffffffffffffffffffffffff02191690837bffffffffffffffffffffffffffffffffffffffffffffffffffffffff160217905550505060008492509250505b935093915050565b60008260005281602060002001905092915050565b6000639a802a6d60e01b630342018160e01b635f398a1460e01b7f79dd796f000000000000000000000000000000000000000000000000000000001818187bffffffffffffffffffffffffffffffffffffffffffffffffffffffff1916827bffffffffffffffffffffffffffffffffffffffffffffffffffffffff19161480613f1957507f79dd796f000000000000000000000000000000000000000000000000000000007bffffffffffffffffffffffffffffffffffffffffffffffffffffffff1916827bffffffffffffffffffffffffffffffffffffffffffffffffffffffff1916145b80613f8157507f4e2312e0000000000000000000000000000000000000000000000000000000007bffffffffffffffffffffffffffffffffffffffffffffffffffffffff1916827bffffffffffffffffffffffffffffffffffffffffffffffffffffffff1916145b80613f915750613f9082614cf5565b5b9050919050565b60007f000000000000000000000000000000000000000000000000000000000000000073ffffffffffffffffffffffffffffffffffffffff163073ffffffffffffffffffffffffffffffffffffffff1614801561401457507f000000000000000000000000000000000000000000000000000000000000000046145b15614041577f000000000000000000000000000000000000000000000000000000000000000090506140af565b6140ac7f00000000000000000000000000000000000000000000000000000000000000007f00000000000000000000000000000000000000000000000000000000000000007f0000000000000000000000000000000000000000000000000000000000000000614d5f565b90505b90565b600082826040516020016140c792919061782b565b60405160208183030381529060405280519060200120905092915050565b6000807f7fffffffffffffffffffffffffffffff5d576e7357a4501ddfe92f46681b20a08360001c11156141205760006003915091506141be565b6000600187878787604051600081526020016040526040516141459493929190617862565b6020604051602081039080840390855afa158015614167573d6000803e3d6000fd5b505050602060405103519050600073ffffffffffffffffffffffffffffffffffffffff168173ffffffffffffffffffffffffffffffffffffffff16036141b5576000600192509250506141be565b80600092509250505b94509492505050565b600060048111156141db576141da616185565b5b8160048111156141ee576141ed616185565b5b031561432a576001600481111561420857614207616185565b5b81600481111561421b5761421a616185565b5b0361425b576040517f08c379a0000000000000000000000000000000000000000000000000000000008152600401614252906178f3565b60405180910390fd5b6002600481111561426f5761426e616185565b5b81600481111561428257614281616185565b5b036142c2576040517f08c379a00000000000000000000000000000000000000000000000000000000081526004016142b99061795f565b60405180910390fd5b600360048111156142d6576142d5616185565b5b8160048111156142e9576142e8616185565b5b03614329576040517f08c379a0000000000000000000000000000000000000000000000000000000008152600401614320906179f1565b60405180910390fd5b5b50565b600060066000878152602001908152602001600020905060008160080160008773ffffffffffffffffffffffffffffffffffffffff1673ffffffffffffffffffffffffffffffffffffffff16815260200190815260200160002090508060000160009054906101000a900460ff16156143db576040517f08c379a00000000000000000000000000000000000000000000000000000000081526004016143d290617a83565b60405180910390fd5b60018160000160006101000a81548160ff021916908315150217905550848160000160016101000a81548160ff021916908360ff16021790555061441e84614d99565b8160000160026101000a8154816bffffffffffffffffffffffff02191690836bffffffffffffffffffffffff1602179055506000600281111561446457614463616185565b5b60ff168560ff160361449057838260060160008282546144849190616f84565b9250508190555061454c565b600160028111156144a4576144a3616185565b5b60ff168560ff16036144d057838260050160008282546144c49190616f84565b9250508190555061454b565b6002808111156144e3576144e2616185565b5b60ff168560ff160361450f57838260070160008282546145039190616f84565b9250508190555061454a565b6040517f08c379a000000000000000000000000000000000000000000000000000000000815260040161454190617b15565b60405180910390fd5b5b5b50505050505050565b60008160000160009054906101000a9004600f0b600f0b8260000160109054906101000a9004600f0b600f0b13159050919050565b60008260000160109054906101000a9004600f0b90508183600101600083600f0b600f0b815260200190815260200160002081905550600181018360000160106101000a8154816fffffffffffffffffffffffffffffffff0219169083600f0b6fffffffffffffffffffffffffffffffff160217905550505050565b600460009054906101000a900473ffffffffffffffffffffffffffffffffffffffff1673ffffffffffffffffffffffffffffffffffffffff1663e38335e5348686866000876040518763ffffffff1660e01b815260040161466b959493929190616e35565b6000604051808303818588803b15801561468457600080fd5b505af1158015614698573d6000803e3d6000fd5b50505050505050505050565b60008160000160006101000a8154816fffffffffffffffffffffffffffffffff0219169083600f0b6fffffffffffffffffffffffffffffffff16021790555060008160000160106101000a8154816fffffffffffffffffffffffffffffffff0219169083600f0b6fffffffffffffffffffffffffffffffff16021790555050565b6000806001600084815260200190815260200160002090508060020160009054906101000a900460ff161561475e576007915050614834565b8060020160019054906101000a900460ff161561477f576002915050614834565b600061478a846113c2565b9050600081036147cf576040517f08c379a00000000000000000000000000000000000000000000000000000000081526004016147c690617b81565b60405180910390fd5b4381106147e157600092505050614834565b60006147ec856120b0565b90504381106148015760019350505050614834565b61480a85614df4565b801561481b575061481a85614e2c565b5b1561482c5760049350505050614834565b600393505050505b919050565b60008061484886868686614e57565b90506000801b60056000838152602001908152602001600020541461491f57600460009054906101000a900473ffffffffffffffffffffffffffffffffffffffff1673ffffffffffffffffffffffffffffffffffffffff1663c4d252f560056000848152602001908152602001600020546040518263ffffffff1660e01b81526004016148d59190615cef565b600060405180830381600087803b1580156148ef57600080fd5b505af1158015614903573d6000803e3d6000fd5b5050505060056000828152602001908152602001600020600090555b80915050949350505050565b60005b818310156149935760006149428484614fb0565b90508463ffffffff166149558783613e1e565b60000160009054906101000a900463ffffffff1663ffffffff16111561497d5780925061498d565b60018161498a9190616f84565b93505b5061492e565b819050949350505050565b60006149a861208a565b6149c56149b3612e95565b6001436149c09190616fe1565b61273e565b1015614a06576040517f08c379a00000000000000000000000000000000000000000000000000000000081526004016149fd90617c13565b60405180910390fd5b6000614a1b86868686805190602001206122a7565b90508451865114614a61576040517f08c379a0000000000000000000000000000000000000000000000000000000008152600401614a5890617ca5565b60405180910390fd5b8351865114614aa5576040517f08c379a0000000000000000000000000000000000000000000000000000000008152600401614a9c90617ca5565b60405180910390fd5b6000865111614ae9576040517f08c379a0000000000000000000000000000000000000000000000000000000008152600401614ae090617d11565b60405180910390fd5b6000600160008381526020019081526020016000209050614b49816000016040518060200160405290816000820160009054906101000a900467ffffffffffffffff1667ffffffffffffffff1667ffffffffffffffff1681525050614fd6565b614b88576040517f08c379a0000000000000000000000000000000000000000000000000000000008152600401614b7f90617da3565b60405180910390fd5b6000614b9a614b95611711565b614ff0565b614ba343614ff0565b614bad9190617dd7565b90506000614bc1614bbc610d13565b614ff0565b82614bcc9190617dd7565b9050614be4828460000161504790919063ffffffff16565b614bfa818460010161504790919063ffffffff16565b7f7d84a6263ae0d98d3329bd7b46bb4e8d6f98cd35a7adb45c274c8b7fd5ebd5e084614c24612e95565b8b8b8d5167ffffffffffffffff811115614c4157614c40615605565b5b604051908082528060200260200182016040528015614c7457816020015b6060815260200190600190039081614c5f5790505b508c88888e604051614c8e99989796959493929190617e44565b60405180910390a183945050505050949350505050565b600082511115614cb85781518083602001fd5b806040517f08c379a0000000000000000000000000000000000000000000000000000000008152600401614cec91906158c3565b60405180910390fd5b60007f01ffc9a7000000000000000000000000000000000000000000000000000000007bffffffffffffffffffffffffffffffffffffffffffffffffffffffff1916827bffffffffffffffffffffffffffffffffffffffffffffffffffffffff1916149050919050565b60008383834630604051602001614d7a959493929190617ef4565b6040516020818303038152906040528051906020012090509392505050565b60006bffffffffffffffffffffffff8016821115614dec576040517f08c379a0000000000000000000000000000000000000000000000000000000008152600401614de390617fb9565b60405180910390fd5b819050919050565b6000806006600084815260200190815260200160002090508060050154614e22614e1d856113c2565b61276f565b1115915050919050565b6000806006600084815260200190815260200160002090508060060154816005015411915050919050565b600080614e66868686866122a7565b90506000614e73826117a4565b905060026007811115614e8957614e88616185565b5b816007811115614e9c57614e9b616185565b5b14158015614ecf575060066007811115614eb957614eb8616185565b5b816007811115614ecc57614ecb616185565b5b14155b8015614eff5750600780811115614ee957614ee8616185565b5b816007811115614efc57614efb616185565b5b14155b614f3e576040517f08c379a0000000000000000000000000000000000000000000000000000000008152600401614f3590618025565b60405180910390fd5b600180600084815260200190815260200160002060020160016101000a81548160ff0219169083151502179055507f789cf55be980739dad1d0699b93b58e806b51c9d96619bfa8fe0a28abaa7b30c82604051614f9b9190615536565b60405180910390a18192505050949350505050565b60006002828418614fc19190617716565b828416614fce9190616f84565b905092915050565b600080826000015167ffffffffffffffff16149050919050565b600067ffffffffffffffff801682111561503f576040517f08c379a0000000000000000000000000000000000000000000000000000000008152600401615036906180b7565b60405180910390fd5b819050919050565b808260000160006101000a81548167ffffffffffffffff021916908367ffffffffffffffff1602179055505050565b6040518060600160405280600015158152602001600060ff16815260200160006bffffffffffffffffffffffff1681525090565b828054828255906000526020600020908101928215615123579160200282015b828111156151225782518260006101000a81548173ffffffffffffffffffffffffffffffffffffffff021916908373ffffffffffffffffffffffffffffffffffffffff160217905550916020019190600101906150ca565b5b5090506151309190615233565b5090565b828054828255906000526020600020908101928215615170579160200282015b8281111561516f578251825591602001919060010190615154565b5b50905061517d9190615233565b5090565b8280548282559060005260206000209081019282156151c9579160200282015b828111156151c85782518290816151b89190618279565b50916020019190600101906151a1565b5b5090506151d69190615250565b5090565b828054828255906000526020600020908101928215615222579160200282015b8281111561522157825182908161521191906183a6565b50916020019190600101906151fa565b5b50905061522f9190615274565b5090565b5b8082111561524c576000816000905550600101615234565b5090565b5b8082111561527057600081816152679190615298565b50600101615251565b5090565b5b80821115615294576000818161528b91906152d8565b50600101615275565b5090565b5080546152a490616ce8565b6000825580601f106152b657506152d5565b601f0160209004906000526020600020908101906152d49190615233565b5b50565b5080546152e490616ce8565b6000825580601f106152f65750615315565b601f0160209004906000526020600020908101906153149190615233565b5b50565b6000604051905090565b600080fd5b600080fd5b6000819050919050565b61533f8161532c565b811461534a57600080fd5b50565b60008135905061535c81615336565b92915050565b60006020828403121561537857615377615322565b5b60006153868482850161534d565b91505092915050565b6153988161532c565b82525050565b600073ffffffffffffffffffffffffffffffffffffffff82169050919050565b60006153c98261539e565b9050919050565b6153d9816153be565b82525050565b60008115159050919050565b6153f4816153df565b82525050565b600061014082019050615410600083018d61538f565b61541d602083018c6153d0565b61542a604083018b61538f565b615437606083018a61538f565b615444608083018961538f565b61545160a083018861538f565b61545e60c083018761538f565b61546b60e083018661538f565b6154796101008301856153eb565b6154876101208301846153eb565b9b9a5050505050505050505050565b60007fffffffff0000000000000000000000000000000000000000000000000000000082169050919050565b6154cb81615496565b81146154d657600080fd5b50565b6000813590506154e8816154c2565b92915050565b60006020828403121561550457615503615322565b5b6000615512848285016154d9565b91505092915050565b600060208201905061553060008301846153eb565b92915050565b600060208201905061554b600083018461538f565b92915050565b600060ff82169050919050565b61556781615551565b811461557257600080fd5b50565b6000813590506155848161555e565b92915050565b600080fd5b600080fd5b600080fd5b60008083601f8401126155af576155ae61558a565b5b8235905067ffffffffffffffff8111156155cc576155cb61558f565b5b6020830191508360018202830111156155e8576155e7615594565b5b9250929050565b600080fd5b6000601f19601f8301169050919050565b7f4e487b7100000000000000000000000000000000000000000000000000000000600052604160045260246000fd5b61563d826155f4565b810181811067ffffffffffffffff8211171561565c5761565b615605565b5b80604052505050565b600061566f615318565b905061567b8282615634565b919050565b600067ffffffffffffffff82111561569b5761569a615605565b5b6156a4826155f4565b9050602081019050919050565b82818337600083830152505050565b60006156d36156ce84615680565b615665565b9050828152602081018484840111156156ef576156ee6155ef565b5b6156fa8482856156b1565b509392505050565b600082601f8301126157175761571661558a565b5b81356157278482602086016156c0565b91505092915050565b6000819050919050565b61574381615730565b811461574e57600080fd5b50565b6000813590506157608161573a565b92915050565b60008060008060008060008060e0898b03121561578657615785615322565b5b60006157948b828c0161534d565b98505060206157a58b828c01615575565b975050604089013567ffffffffffffffff8111156157c6576157c5615327565b5b6157d28b828c01615599565b9650965050606089013567ffffffffffffffff8111156157f5576157f4615327565b5b6158018b828c01615702565b94505060806158128b828c01615575565b93505060a06158238b828c01615751565b92505060c06158348b828c01615751565b9150509295985092959890939650565b600081519050919050565b600082825260208201905092915050565b60005b8381101561587e578082015181840152602081019050615863565b60008484015250505050565b600061589582615844565b61589f818561584f565b93506158af818560208601615860565b6158b8816155f4565b840191505092915050565b600060208201905081810360008301526158dd818461588a565b905092915050565b6158ee816153be565b81146158f957600080fd5b50565b60008135905061590b816158e5565b92915050565b6000806000806080858703121561592b5761592a615322565b5b6000615939878288016158fc565b945050602061594a878288016158fc565b935050604061595b8782880161534d565b925050606085013567ffffffffffffffff81111561597c5761597b615327565b5b61598887828801615702565b91505092959194509250565b61599d81615496565b82525050565b60006020820190506159b86000830184615994565b92915050565b600067ffffffffffffffff8211156159d9576159d8615605565b5b602082029050602081019050919050565b60006159fd6159f8846159be565b615665565b90508083825260208201905060208402830185811115615a2057615a1f615594565b5b835b81811015615a495780615a3588826158fc565b845260208401935050602081019050615a22565b5050509392505050565b600082601f830112615a6857615a6761558a565b5b8135615a788482602086016159ea565b91505092915050565b600067ffffffffffffffff821115615a9c57615a9b615605565b5b602082029050602081019050919050565b6000615ac0615abb84615a81565b615665565b90508083825260208201905060208402830185811115615ae357615ae2615594565b5b835b81811015615b0c5780615af8888261534d565b845260208401935050602081019050615ae5565b5050509392505050565b600082601f830112615b2b57615b2a61558a565b5b8135615b3b848260208601615aad565b91505092915050565b600067ffffffffffffffff821115615b5f57615b5e615605565b5b602082029050602081019050919050565b6000615b83615b7e84615b44565b615665565b90508083825260208201905060208402830185811115615ba657615ba5615594565b5b835b81811015615bed57803567ffffffffffffffff811115615bcb57615bca61558a565b5b808601615bd88982615702565b85526020850194505050602081019050615ba8565b5050509392505050565b600082601f830112615c0c57615c0b61558a565b5b8135615c1c848260208601615b70565b91505092915050565b60008060008060808587031215615c3f57615c3e615322565b5b600085013567ffffffffffffffff811115615c5d57615c5c615327565b5b615c6987828801615a53565b945050602085013567ffffffffffffffff811115615c8a57615c89615327565b5b615c9687828801615b16565b935050604085013567ffffffffffffffff811115615cb757615cb6615327565b5b615cc387828801615bf7565b9250506060615cd487828801615751565b91505092959194509250565b615ce981615730565b82525050565b6000602082019050615d046000830184615ce0565b92915050565b600081519050919050565b600082825260208201905092915050565b6000819050602082019050919050565b615d3f816153be565b82525050565b6000615d518383615d36565b60208301905092915050565b6000602082019050919050565b6000615d7582615d0a565b615d7f8185615d15565b9350615d8a83615d26565b8060005b83811015615dbb578151615da28882615d45565b9750615dad83615d5d565b925050600181019050615d8e565b5085935050505092915050565b600081519050919050565b600082825260208201905092915050565b6000819050602082019050919050565b615dfd8161532c565b82525050565b6000615e0f8383615df4565b60208301905092915050565b6000602082019050919050565b6000615e3382615dc8565b615e3d8185615dd3565b9350615e4883615de4565b8060005b83811015615e79578151615e608882615e03565b9750615e6b83615e1b565b925050600181019050615e4c565b5085935050505092915050565b600081519050919050565b600082825260208201905092915050565b6000819050602082019050919050565b600082825260208201905092915050565b6000615ece82615844565b615ed88185615eb2565b9350615ee8818560208601615860565b615ef1816155f4565b840191505092915050565b6000615f088383615ec3565b905092915050565b6000602082019050919050565b6000615f2882615e86565b615f328185615e91565b935083602082028501615f4485615ea2565b8060005b85811015615f805784840389528151615f618582615efc565b9450615f6c83615f10565b925060208a01995050600181019050615f48565b50829750879550505050505092915050565b600081519050919050565b600082825260208201905092915050565b6000819050602082019050919050565b600081519050919050565b600082825260208201905092915050565b6000615fe582615fbe565b615fef8185615fc9565b9350615fff818560208601615860565b616008816155f4565b840191505092915050565b600061601f8383615fda565b905092915050565b6000602082019050919050565b600061603f82615f92565b6160498185615f9d565b93508360208202850161605b85615fae565b8060005b8581101561609757848403895281516160788582616013565b945061608383616027565b925060208a0199505060018101905061605f565b50829750879550505050505092915050565b600060808201905081810360008301526160c38187615d6a565b905081810360208301526160d78186615e28565b905081810360408301526160eb8185615f1d565b905081810360608301526160ff8184616034565b905095945050505050565b600080600080600060a0868803121561612657616125615322565b5b60006161348882890161534d565b955050602061614588828901615575565b945050604061615688828901615575565b935050606061616788828901615751565b925050608061617888828901615751565b9150509295509295909350565b7f4e487b7100000000000000000000000000000000000000000000000000000000600052602160045260246000fd5b600881106161c5576161c4616185565b5b50565b60008190506161d6826161b4565b919050565b60006161e6826161c8565b9050919050565b6161f6816161db565b82525050565b600060208201905061621160008301846161ed565b92915050565b6000806040838503121561622e5761622d615322565b5b600061623c8582860161534d565b925050602061624d858286016158fc565b9150509250929050565b6000806040838503121561626e5761626d615322565b5b600061627c8582860161534d565b925050602061628d85828601615575565b9150509250929050565b6000806000806000608086880312156162b3576162b2615322565b5b60006162c18882890161534d565b95505060206162d288828901615575565b945050604086013567ffffffffffffffff8111156162f3576162f2615327565b5b6162ff88828901615599565b9350935050606086013567ffffffffffffffff81111561632257616321615327565b5b61632e88828901615702565b9150509295509295909350565b6000806000806060858703121561635557616354615322565b5b60006163638782880161534d565b945050602061637487828801615575565b935050604085013567ffffffffffffffff81111561639557616394615327565b5b6163a187828801615599565b925092505092959194509250565b600067ffffffffffffffff8211156163ca576163c9615605565b5b6163d3826155f4565b9050602081019050919050565b60006163f36163ee846163af565b615665565b90508281526020810184848401111561640f5761640e6155ef565b5b61641a8482856156b1565b509392505050565b600082601f8301126164375761643661558a565b5b81356164478482602086016163e0565b91505092915050565b6000806000806080858703121561646a57616469615322565b5b600085013567ffffffffffffffff81111561648857616487615327565b5b61649487828801615a53565b945050602085013567ffffffffffffffff8111156164b5576164b4615327565b5b6164c187828801615b16565b935050604085013567ffffffffffffffff8111156164e2576164e1615327565b5b6164ee87828801615bf7565b925050606085013567ffffffffffffffff81111561650f5761650e615327565b5b61651b87828801616422565b91505092959194509250565b6000806000606084860312156165405761653f615322565b5b600061654e868287016158fc565b935050602061655f8682870161534d565b925050604084013567ffffffffffffffff8111156165805761657f615327565b5b61658c86828701615702565b9150509250925092565b60006165a18261539e565b9050919050565b60006165b382616596565b9050919050565b6165c3816165a8565b81146165ce57600080fd5b50565b6000813590506165e0816165ba565b92915050565b6000602082840312156165fc576165fb615322565b5b600061660a848285016165d1565b91505092915050565b600080600080600060a0868803121561662f5761662e615322565b5b600061663d888289016158fc565b955050602061664e888289016158fc565b945050604086013567ffffffffffffffff81111561666f5761666e615327565b5b61667b88828901615b16565b935050606086013567ffffffffffffffff81111561669c5761669b615327565b5b6166a888828901615b16565b925050608086013567ffffffffffffffff8111156166c9576166c8615327565b5b6166d588828901615702565b9150509295509295909350565b60008083601f8401126166f8576166f761558a565b5b8235905067ffffffffffffffff8111156167155761671461558f565b5b60208301915083600182028301111561673157616730615594565b5b9250929050565b6000806000806060858703121561675257616751615322565b5b6000616760878288016158fc565b94505060206167718782880161534d565b935050604085013567ffffffffffffffff81111561679257616791615327565b5b61679e878288016166e2565b925092505092959194509250565b60006020820190506167c160008301846153d0565b92915050565b600067ffffffffffffffff8211156167e2576167e1615605565b5b602082029050602081019050919050565b6000616806616801846167c7565b615665565b9050808382526020820190506020840283018581111561682957616828615594565b5b835b8181101561687057803567ffffffffffffffff81111561684e5761684d61558a565b5b80860161685b8982616422565b8552602085019450505060208101905061682b565b5050509392505050565b600082601f83011261688f5761688e61558a565b5b813561689f8482602086016167f3565b91505092915050565b600080600080600060a086880312156168c4576168c3615322565b5b600086013567ffffffffffffffff8111156168e2576168e1615327565b5b6168ee88828901615a53565b955050602086013567ffffffffffffffff81111561690f5761690e615327565b5b61691b88828901615b16565b945050604086013567ffffffffffffffff81111561693c5761693b615327565b5b6169488882890161687a565b935050606086013567ffffffffffffffff81111561696957616968615327565b5b61697588828901615bf7565b925050608086013567ffffffffffffffff81111561699657616995615327565b5b6169a288828901616422565b9150509295509295909350565b6169b8816153df565b82525050565b6169c781615551565b82525050565b60006bffffffffffffffffffffffff82169050919050565b6169ee816169cd565b82525050565b606082016000820151616a0a60008501826169af565b506020820151616a1d60208501826169be565b506040820151616a3060408501826169e5565b50505050565b6000606082019050616a4b60008301846169f4565b92915050565b60008060408385031215616a6857616a67615322565b5b6000616a76858286016158fc565b9250506020616a878582860161534d565b9150509250929050565b600080600080600060a08688031215616aad57616aac615322565b5b6000616abb888289016158fc565b9550506020616acc888289016158fc565b9450506040616add8882890161534d565b9350506060616aee8882890161534d565b925050608086013567ffffffffffffffff811115616b0f57616b0e615327565b5b616b1b88828901615702565b9150509295509295909350565b6000819050919050565b6000616b4d616b48616b438461539e565b616b28565b61539e565b9050919050565b6000616b5f82616b32565b9050919050565b6000616b7182616b54565b9050919050565b616b8181616b66565b82525050565b6000602082019050616b9c6000830184616b78565b92915050565b600081905092915050565b6000616bb98385616ba2565b9350616bc68385846156b1565b82840190509392505050565b6000616bdf828486616bad565b91508190509392505050565b616bf481615551565b82525050565b600060a082019050616c0f6000830188615ce0565b616c1c602083018761538f565b616c296040830186616beb565b616c366060830185615ce0565b616c436080830184615ce0565b9695505050505050565b7f476f7665726e6f723a206f6e6c79476f7665726e616e63650000000000000000600082015250565b6000616c8360188361584f565b9150616c8e82616c4d565b602082019050919050565b60006020820190508181036000830152616cb281616c76565b9050919050565b7f4e487b7100000000000000000000000000000000000000000000000000000000600052602260045260246000fd5b60006002820490506001821680616d0057607f821691505b602082108103616d1357616d12616cb9565b5b50919050565b7f476f7665726e6f723a2070726f706f73616c206e6f742073756363657373667560008201527f6c00000000000000000000000000000000000000000000000000000000000000602082015250565b6000616d7560218361584f565b9150616d8082616d19565b604082019050919050565b60006020820190508181036000830152616da481616d68565b9050919050565b600081519050616dba81615336565b92915050565b600060208284031215616dd657616dd5615322565b5b6000616de484828501616dab565b91505092915050565b6000819050919050565b60008160001b9050919050565b6000616e1f616e1a616e1584616ded565b616df7565b615730565b9050919050565b616e2f81616e04565b82525050565b600060a0820190508181036000830152616e4f8188615d6a565b90508181036020830152616e638187615e28565b90508181036040830152616e778186616034565b9050616e866060830185616e26565b616e936080830184615ce0565b9695505050505050565b600081519050616eac8161573a565b92915050565b600060208284031215616ec857616ec7615322565b5b6000616ed684828501616e9d565b91505092915050565b600060c0820190508181036000830152616ef98189615d6a565b90508181036020830152616f0d8188615e28565b90508181036040830152616f218187616034565b9050616f306060830186616e26565b616f3d6080830185615ce0565b616f4a60a083018461538f565b979650505050505050565b7f4e487b7100000000000000000000000000000000000000000000000000000000600052601160045260246000fd5b6000616f8f8261532c565b9150616f9a8361532c565b9250828201905080821115616fb257616fb1616f55565b5b92915050565b6000604082019050616fcd600083018561538f565b616fda602083018461538f565b9392505050565b6000616fec8261532c565b9150616ff78361532c565b925082820390508181111561700f5761700e616f55565b5b92915050565b600060608201905061702a6000830186615ce0565b617037602083018561538f565b6170446040830184616beb565b949350505050565b7f476f7665726e6f72427261766f3a2070726f706f7365722061626f766520746860008201527f726573686f6c6400000000000000000000000000000000000000000000000000602082015250565b60006170a860278361584f565b91506170b38261704c565b604082019050919050565b600060208201905081810360008301526170d78161709b565b9050919050565b7f4e487b7100000000000000000000000000000000000000000000000000000000600052603260045260246000fd5b600060808201905081810360008301526171278187615d6a565b9050818103602083015261713b8186615e28565b9050818103604083015261714f8185616034565b905061715e6060830184615ce0565b95945050505050565b7f53616665436173743a2076616c756520646f65736e27742066697420696e203260008201527f3234206269747300000000000000000000000000000000000000000000000000602082015250565b60006171c360278361584f565b91506171ce82617167565b604082019050919050565b600060208201905081810360008301526171f2816171b6565b9050919050565b7f53616665436173743a2076616c756520646f65736e27742066697420696e203360008201527f3220626974730000000000000000000000000000000000000000000000000000602082015250565b600061725560268361584f565b9150617260826171f9565b604082019050919050565b6000602082019050818103600083015261728481617248565b9050919050565b7f476f7665726e6f723a20766f7465206e6f742063757272656e746c792061637460008201527f6976650000000000000000000000000000000000000000000000000000000000602082015250565b60006172e760238361584f565b91506172f28261728b565b604082019050919050565b60006020820190508181036000830152617316816172da565b9050919050565b6000608082019050617332600083018761538f565b61733f6020830186616beb565b61734c604083018561538f565b818103606083015261735e818461588a565b905095945050505050565b600082825260208201905092915050565b600061738582615fbe565b61738f8185617369565b935061739f818560208601615860565b6173a8816155f4565b840191505092915050565b600060a0820190506173c8600083018861538f565b6173d56020830187616beb565b6173e2604083018661538f565b81810360608301526173f4818561588a565b90508181036080830152617408818461737a565b90509695505050505050565b7f476f7665726e6f72566f74657351756f72756d4672616374696f6e3a2071756f60008201527f72756d4e756d657261746f72206f7665722071756f72756d44656e6f6d696e6160208201527f746f720000000000000000000000000000000000000000000000000000000000604082015250565b600061749660438361584f565b91506174a182617414565b606082019050919050565b600060208201905081810360008301526174c581617489565b9050919050565b60006174d78261532c565b91507fffffffffffffffffffffffffffffffffffffffffffffffffffffffffffffffff820361750957617508616f55565b5b600182019050919050565b61751d816153df565b811461752857600080fd5b50565b60008151905061753a81617514565b92915050565b60006020828403121561755657617555615322565b5b60006175648482850161752b565b91505092915050565b6000819050919050565b61758861758382615496565b61756d565b82525050565b600061759982615fbe565b6175a38185616ba2565b93506175b3818560208601615860565b80840191505092915050565b60006175cb8285617577565b6004820191506175db828461758e565b91508190509392505050565b7f436865636b706f696e74733a20626c6f636b206e6f7420796574206d696e6564600082015250565b600061761d60208361584f565b9150617628826175e7565b602082019050919050565b6000602082019050818103600083015261764c81617610565b9050919050565b600060408201905061766860008301856153d0565b617675602083018461538f565b9392505050565b600060408201905061769160008301856153d0565b61769e60208301846153d0565b9392505050565b60006176b08261532c565b91506176bb8361532c565b92508282026176c98161532c565b915082820484148315176176e0576176df616f55565b5b5092915050565b7f4e487b7100000000000000000000000000000000000000000000000000000000600052601260045260246000fd5b60006177218261532c565b915061772c8361532c565b92508261773c5761773b6176e7565b5b828204905092915050565b7f436865636b706f696e743a20696e76616c6964206b6579000000000000000000600082015250565b600061777d60178361584f565b915061778882617747565b602082019050919050565b600060208201905081810360008301526177ac81617770565b9050919050565b600081905092915050565b7f1901000000000000000000000000000000000000000000000000000000000000600082015250565b60006177f46002836177b3565b91506177ff826177be565b600282019050919050565b6000819050919050565b61782561782082615730565b61780a565b82525050565b6000617836826177e7565b91506178428285617814565b6020820191506178528284617814565b6020820191508190509392505050565b60006080820190506178776000830187615ce0565b6178846020830186616beb565b6178916040830185615ce0565b61789e6060830184615ce0565b95945050505050565b7f45434453413a20696e76616c6964207369676e61747572650000000000000000600082015250565b60006178dd60188361584f565b91506178e8826178a7565b602082019050919050565b6000602082019050818103600083015261790c816178d0565b9050919050565b7f45434453413a20696e76616c6964207369676e6174757265206c656e67746800600082015250565b6000617949601f8361584f565b915061795482617913565b602082019050919050565b600060208201905081810360008301526179788161793c565b9050919050565b7f45434453413a20696e76616c6964207369676e6174757265202773272076616c60008201527f7565000000000000000000000000000000000000000000000000000000000000602082015250565b60006179db60228361584f565b91506179e68261797f565b604082019050919050565b60006020820190508181036000830152617a0a816179ce565b9050919050565b7f476f7665726e6f72436f6d7061746962696c697479427261766f3a20766f746560008201527f20616c7265616479206361737400000000000000000000000000000000000000602082015250565b6000617a6d602d8361584f565b9150617a7882617a11565b604082019050919050565b60006020820190508181036000830152617a9c81617a60565b9050919050565b7f476f7665726e6f72436f6d7061746962696c697479427261766f3a20696e766160008201527f6c696420766f7465207479706500000000000000000000000000000000000000602082015250565b6000617aff602d8361584f565b9150617b0a82617aa3565b604082019050919050565b60006020820190508181036000830152617b2e81617af2565b9050919050565b7f476f7665726e6f723a20756e6b6e6f776e2070726f706f73616c206964000000600082015250565b6000617b6b601d8361584f565b9150617b7682617b35565b602082019050919050565b60006020820190508181036000830152617b9a81617b5e565b9050919050565b7f476f7665726e6f723a2070726f706f73657220766f7465732062656c6f77207060008201527f726f706f73616c207468726573686f6c64000000000000000000000000000000602082015250565b6000617bfd60318361584f565b9150617c0882617ba1565b604082019050919050565b60006020820190508181036000830152617c2c81617bf0565b9050919050565b7f476f7665726e6f723a20696e76616c69642070726f706f73616c206c656e677460008201527f6800000000000000000000000000000000000000000000000000000000000000602082015250565b6000617c8f60218361584f565b9150617c9a82617c33565b604082019050919050565b60006020820190508181036000830152617cbe81617c82565b9050919050565b7f476f7665726e6f723a20656d7074792070726f706f73616c0000000000000000600082015250565b6000617cfb60188361584f565b9150617d0682617cc5565b602082019050919050565b60006020820190508181036000830152617d2a81617cee565b9050919050565b7f476f7665726e6f723a2070726f706f73616c20616c726561647920657869737460008201527f7300000000000000000000000000000000000000000000000000000000000000602082015250565b6000617d8d60218361584f565b9150617d9882617d31565b604082019050919050565b60006020820190508181036000830152617dbc81617d80565b9050919050565b600067ffffffffffffffff82169050919050565b6000617de282617dc3565b9150617ded83617dc3565b9250828201905067ffffffffffffffff811115617e0d57617e0c616f55565b5b92915050565b6000617e2e617e29617e2484617dc3565b616b28565b61532c565b9050919050565b617e3e81617e13565b82525050565b600061012082019050617e5a600083018c61538f565b617e67602083018b6153d0565b8181036040830152617e79818a615d6a565b90508181036060830152617e8d8189615e28565b90508181036080830152617ea18188615f1d565b905081810360a0830152617eb58187616034565b9050617ec460c0830186617e35565b617ed160e0830185617e35565b818103610100830152617ee4818461588a565b90509a9950505050505050505050565b600060a082019050617f096000830188615ce0565b617f166020830187615ce0565b617f236040830186615ce0565b617f30606083018561538f565b617f3d60808301846153d0565b9695505050505050565b7f53616665436173743a2076616c756520646f65736e27742066697420696e203960008201527f3620626974730000000000000000000000000000000000000000000000000000602082015250565b6000617fa360268361584f565b9150617fae82617f47565b604082019050919050565b60006020820190508181036000830152617fd281617f96565b9050919050565b7f476f7665726e6f723a2070726f706f73616c206e6f7420616374697665000000600082015250565b600061800f601d8361584f565b915061801a82617fd9565b602082019050919050565b6000602082019050818103600083015261803e81618002565b9050919050565b7f53616665436173743a2076616c756520646f65736e27742066697420696e203660008201527f3420626974730000000000000000000000000000000000000000000000000000602082015250565b60006180a160268361584f565b91506180ac82618045565b604082019050919050565b600060208201905081810360008301526180d081618094565b9050919050565b60008190508160005260206000209050919050565b60006020601f8301049050919050565b600082821b905092915050565b6000600883026181397fffffffffffffffffffffffffffffffffffffffffffffffffffffffffffffffff826180fc565b61814386836180fc565b95508019841693508086168417925050509392505050565b600061817661817161816c8461532c565b616b28565b61532c565b9050919050565b6000819050919050565b6181908361815b565b6181a461819c8261817d565b848454618109565b825550505050565b600090565b6181b96181ac565b6181c4818484618187565b505050565b5b818110156181e8576181dd6000826181b1565b6001810190506181ca565b5050565b601f82111561822d576181fe816180d7565b618207846180ec565b81016020851015618216578190505b61822a618222856180ec565b8301826181c9565b50505b505050565b600082821c905092915050565b600061825060001984600802618232565b1980831691505092915050565b6000618269838361823f565b9150826002028217905092915050565b61828282615844565b67ffffffffffffffff81111561829b5761829a615605565b5b6182a58254616ce8565b6182b08282856181ec565b600060209050601f8311600181146182e357600084156182d1578287015190505b6182db858261825d565b865550618343565b601f1984166182f1866180d7565b60005b82811015618319578489015182556001820191506020850194506020810190506182f4565b868310156183365784890151618332601f89168261823f565b8355505b6001600288020188555050505b505050505050565b60008190508160005260206000209050919050565b601f8211156183a1576183728161834b565b61837b846180ec565b8101602085101561838a578190505b61839e618396856180ec565b8301826181c9565b50505b505050565b6183af82615fbe565b67ffffffffffffffff8111156183c8576183c7615605565b5b6183d28254616ce8565b6183dd828285618360565b600060209050601f83116001811461841057600084156183fe578287015190505b618408858261825d565b865550618470565b601f19841661841e8661834b565b60005b8281101561844657848901518255600182019150602085019450602081019050618421565b86831015618463578489015161845f601f89168261823f565b8355505b6001600288020188555050505b50505050505056fe476f7665726e6f723a2072656c617920726576657274656420776974686f7574206d657373616765a26469706673582212203171755e8ef6b4e4d1636b58c678787cc404f3ded55ff8aec7e5594cd587dd2d64736f6c63430008110033",
  "linkReferences": {},
  "deployedLinkReferences": {}
}