{
  "_format": "hh-sol-artifact-1",
  "contractName": "ERC20PermitNoRevertMock",
  "sourceName": "contracts/mocks/SafeERC20Helper.sol",
  "abi": [
    {
      "anonymous": false,
      "inputs": [
        {
          "indexed": true,
          "internalType": "address",
          "name": "owner",
          "type": "address"
        },
        {
          "indexed": true,
          "internalType": "address",
          "name": "spender",
          "type": "address"
        },
        {
          "indexed": false,
          "internalType": "uint256",
          "name": "value",
          "type": "uint256"
        }
      ],
      "name": "Approval",
      "type": "event"
    },
    {
      "anonymous": false,
      "inputs": [
        {
          "indexed": true,
          "internalType": "address",
          "name": "from",
          "type": "address"
        },
        {
          "indexed": true,
          "internalType": "address",
          "name": "to",
          "type": "address"
        },
        {
          "indexed": false,
          "internalType": "uint256",
          "name": "value",
          "type": "uint256"
        }
      ],
      "name": "Transfer",
      "type": "event"
    },
    {
      "inputs": [],
      "name": "DOMAIN_SEPARATOR",
      "outputs": [
        {
          "internalType": "bytes32",
          "name": "",
          "type": "bytes32"
        }
      ],
      "stateMutability": "view",
      "type": "function"
    },
    {
      "inputs": [
        {
          "internalType": "address",
          "name": "owner",
          "type": "address"
        },
        {
          "internalType": "address",
          "name": "spender",
          "type": "address"
        }
      ],
      "name": "allowance",
      "outputs": [
        {
          "internalType": "uint256",
          "name": "",
          "type": "uint256"
        }
      ],
      "stateMutability": "view",
      "type": "function"
    },
    {
      "inputs": [
        {
          "internalType": "address",
          "name": "spender",
          "type": "address"
        },
        {
          "internalType": "uint256",
          "name": "amount",
          "type": "uint256"
        }
      ],
      "name": "approve",
      "outputs": [
        {
          "internalType": "bool",
          "name": "",
          "type": "bool"
        }
      ],
      "stateMutability": "nonpayable",
      "type": "function"
    },
    {
      "inputs": [
        {
          "internalType": "address",
          "name": "account",
          "type": "address"
        }
      ],
      "name": "balanceOf",
      "outputs": [
        {
          "internalType": "uint256",
          "name": "",
          "type": "uint256"
        }
      ],
      "stateMutability": "view",
      "type": "function"
    },
    {
      "inputs": [],
      "name": "decimals",
      "outputs": [
        {
          "internalType": "uint8",
          "name": "",
          "type": "uint8"
        }
      ],
      "stateMutability": "view",
      "type": "function"
    },
    {
      "inputs": [
        {
          "internalType": "address",
          "name": "spender",
          "type": "address"
        },
        {
          "internalType": "uint256",
          "name": "subtractedValue",
          "type": "uint256"
        }
      ],
      "name": "decreaseAllowance",
      "outputs": [
        {
          "internalType": "bool",
          "name": "",
          "type": "bool"
        }
      ],
      "stateMutability": "nonpayable",
      "type": "function"
    },
    {
      "inputs": [],
      "name": "getChainId",
      "outputs": [
        {
          "internalType": "uint256",
          "name": "",
          "type": "uint256"
        }
      ],
      "stateMutability": "view",
      "type": "function"
    },
    {
      "inputs": [
        {
          "internalType": "address",
          "name": "spender",
          "type": "address"
        },
        {
          "internalType": "uint256",
          "name": "addedValue",
          "type": "uint256"
        }
      ],
      "name": "increaseAllowance",
      "outputs": [
        {
          "internalType": "bool",
          "name": "",
          "type": "bool"
        }
      ],
      "stateMutability": "nonpayable",
      "type": "function"
    },
    {
      "inputs": [],
      "name": "name",
      "outputs": [
        {
          "internalType": "string",
          "name": "",
          "type": "string"
        }
      ],
      "stateMutability": "view",
      "type": "function"
    },
    {
      "inputs": [
        {
          "internalType": "address",
          "name": "owner",
          "type": "address"
        }
      ],
      "name": "nonces",
      "outputs": [
        {
          "internalType": "uint256",
          "name": "",
          "type": "uint256"
        }
      ],
      "stateMutability": "view",
      "type": "function"
    },
    {
      "inputs": [
        {
          "internalType": "address",
          "name": "owner",
          "type": "address"
        },
        {
          "internalType": "address",
          "name": "spender",
          "type": "address"
        },
        {
          "internalType": "uint256",
          "name": "value",
          "type": "uint256"
        },
        {
          "internalType": "uint256",
          "name": "deadline",
          "type": "uint256"
        },
        {
          "internalType": "uint8",
          "name": "v",
          "type": "uint8"
        },
        {
          "internalType": "bytes32",
          "name": "r",
          "type": "bytes32"
        },
        {
          "internalType": "bytes32",
          "name": "s",
          "type": "bytes32"
        }
      ],
      "name": "permit",
      "outputs": [],
      "stateMutability": "nonpayable",
      "type": "function"
    },
    {
      "inputs": [
        {
          "internalType": "address",
          "name": "owner",
          "type": "address"
        },
        {
          "internalType": "address",
          "name": "spender",
          "type": "address"
        },
        {
          "internalType": "uint256",
          "name": "value",
          "type": "uint256"
        },
        {
          "internalType": "uint256",
          "name": "deadline",
          "type": "uint256"
        },
        {
          "internalType": "uint8",
          "name": "v",
          "type": "uint8"
        },
        {
          "internalType": "bytes32",
          "name": "r",
          "type": "bytes32"
        },
        {
          "internalType": "bytes32",
          "name": "s",
          "type": "bytes32"
        }
      ],
      "name": "permitThatMayRevert",
      "outputs": [],
      "stateMutability": "nonpayable",
      "type": "function"
    },
    {
      "inputs": [],
      "name": "symbol",
      "outputs": [
        {
          "internalType": "string",
          "name": "",
          "type": "string"
        }
      ],
      "stateMutability": "view",
      "type": "function"
    },
    {
      "inputs": [],
      "name": "totalSupply",
      "outputs": [
        {
          "internalType": "uint256",
          "name": "",
          "type": "uint256"
        }
      ],
      "stateMutability": "view",
      "type": "function"
    },
    {
      "inputs": [
        {
          "internalType": "address",
          "name": "to",
          "type": "address"
        },
        {
          "internalType": "uint256",
          "name": "amount",
          "type": "uint256"
        }
      ],
      "name": "transfer",
      "outputs": [
        {
          "internalType": "bool",
          "name": "",
          "type": "bool"
        }
      ],
      "stateMutability": "nonpayable",
      "type": "function"
    },
    {
      "inputs": [
        {
          "internalType": "address",
          "name": "from",
          "type": "address"
        },
        {
          "internalType": "address",
          "name": "to",
          "type": "address"
        },
        {
          "internalType": "uint256",
          "name": "amount",
          "type": "uint256"
        }
      ],
      "name": "transferFrom",
      "outputs": [
        {
          "internalType": "bool",
          "name": "",
          "type": "bool"
        }
      ],
      "stateMutability": "nonpayable",
      "type": "function"
    }
  ],
  "bytecode": "0x6101406040523480156200001257600080fd5b506040518060400160405280601781526020017f45524332305065726d69744e6f5265766572744d6f636b000000000000000000815250806040518060400160405280600181526020017f31000000000000000000000000000000000000000000000000000000000000008152506040518060400160405280601781526020017f45524332305065726d69744e6f5265766572744d6f636b0000000000000000008152506040518060400160405280601781526020017f45524332305065726d69744e6f5265766572744d6f636b0000000000000000008152508160039081620000fd919062000481565b5080600490816200010f919062000481565b50505060008280519060200120905060008280519060200120905060007f8b73c3c69bb8fe3d512ecc4cf759cc79239f7b179b0ffacaa9a75d522b39400f90508260e081815250508161010081815250504660a081815250506200017b818484620001cb60201b60201c565b608081815250503073ffffffffffffffffffffffffffffffffffffffff1660c08173ffffffffffffffffffffffffffffffffffffffff168152505080610120818152505050505050505062000636565b60008383834630604051602001620001e8959493929190620005d9565b6040516020818303038152906040528051906020012090509392505050565b600081519050919050565b7f4e487b7100000000000000000000000000000000000000000000000000000000600052604160045260246000fd5b7f4e487b7100000000000000000000000000000000000000000000000000000000600052602260045260246000fd5b600060028204905060018216806200028957607f821691505b6020821081036200029f576200029e62000241565b5b50919050565b60008190508160005260206000209050919050565b60006020601f8301049050919050565b600082821b905092915050565b600060088302620003097fffffffffffffffffffffffffffffffffffffffffffffffffffffffffffffffff82620002ca565b620003158683620002ca565b95508019841693508086168417925050509392505050565b6000819050919050565b6000819050919050565b6000620003626200035c62000356846200032d565b62000337565b6200032d565b9050919050565b6000819050919050565b6200037e8362000341565b620003966200038d8262000369565b848454620002d7565b825550505050565b600090565b620003ad6200039e565b620003ba81848462000373565b505050565b5b81811015620003e257620003d6600082620003a3565b600181019050620003c0565b5050565b601f8211156200043157620003fb81620002a5565b6200040684620002ba565b8101602085101562000416578190505b6200042e6200042585620002ba565b830182620003bf565b50505b505050565b600082821c905092915050565b6000620004566000198460080262000436565b1980831691505092915050565b600062000471838362000443565b9150826002028217905092915050565b6200048c8262000207565b67ffffffffffffffff811115620004a857620004a762000212565b5b620004b4825462000270565b620004c1828285620003e6565b600060209050601f831160018114620004f95760008415620004e4578287015190505b620004f0858262000463565b86555062000560565b601f1984166200050986620002a5565b60005b8281101562000533578489015182556001820191506020850194506020810190506200050c565b868310156200055357848901516200054f601f89168262000443565b8355505b6001600288020188555050505b505050505050565b6000819050919050565b6200057d8162000568565b82525050565b6200058e816200032d565b82525050565b600073ffffffffffffffffffffffffffffffffffffffff82169050919050565b6000620005c18262000594565b9050919050565b620005d381620005b4565b82525050565b600060a082019050620005f0600083018862000572565b620005ff602083018762000572565b6200060e604083018662000572565b6200061d606083018562000583565b6200062c6080830184620005c8565b9695505050505050565b60805160a05160c05160e0516101005161012051611fc0620006866000396000610d1401526000610d5601526000610d3501526000610c6a01526000610cc001526000610ce90152611fc06000f3fe608060405234801561001057600080fd5b50600436106101005760003560e01c806370a0823111610097578063a457c2d711610066578063a457c2d7146102c5578063a9059cbb146102f5578063d505accf14610325578063dd62ed3e1461034157610100565b806370a082311461022b5780637ecebe001461025b57806395d89b411461028b57806396a9fc31146102a957610100565b8063313ce567116100d3578063313ce567146101a15780633408e470146101bf5780633644e515146101dd57806339509351146101fb57610100565b806306fdde0314610105578063095ea7b31461012357806318160ddd1461015357806323b872dd14610171575b600080fd5b61010d610371565b60405161011a91906112d8565b60405180910390f35b61013d60048036038101906101389190611393565b610403565b60405161014a91906113ee565b60405180910390f35b61015b610426565b6040516101689190611418565b60405180910390f35b61018b60048036038101906101869190611433565b610430565b60405161019891906113ee565b60405180910390f35b6101a961045f565b6040516101b691906114a2565b60405180910390f35b6101c7610468565b6040516101d49190611418565b60405180910390f35b6101e5610470565b6040516101f291906114d6565b60405180910390f35b61021560048036038101906102109190611393565b61047f565b60405161022291906113ee565b60405180910390f35b610245600480360381019061024091906114f1565b6104b6565b6040516102529190611418565b60405180910390f35b610275600480360381019061027091906114f1565b6104fe565b6040516102829190611418565b60405180910390f35b61029361054e565b6040516102a091906112d8565b60405180910390f35b6102c360048036038101906102be9190611576565b6105e0565b005b6102df60048036038101906102da9190611393565b6105f8565b6040516102ec91906113ee565b60405180910390f35b61030f600480360381019061030a9190611393565b61066f565b60405161031c91906113ee565b60405180910390f35b61033f600480360381019061033a9190611576565b610692565b005b61035b60048036038101906103569190611618565b61070c565b6040516103689190611418565b60405180910390f35b60606003805461038090611687565b80601f01602080910402602001604051908101604052809291908181526020018280546103ac90611687565b80156103f95780601f106103ce576101008083540402835291602001916103f9565b820191906000526020600020905b8154815290600101906020018083116103dc57829003601f168201915b5050505050905090565b60008061040e610793565b905061041b81858561079b565b600191505092915050565b6000600254905090565b60008061043b610793565b9050610448858285610964565b6104538585856109f0565b60019150509392505050565b60006012905090565b600046905090565b600061047a610c66565b905090565b60008061048a610793565b90506104ab81858561049c858961070c565b6104a691906116e7565b61079b565b600191505092915050565b60008060008373ffffffffffffffffffffffffffffffffffffffff1673ffffffffffffffffffffffffffffffffffffffff168152602001908152602001600020549050919050565b6000610547600560008473ffffffffffffffffffffffffffffffffffffffff1673ffffffffffffffffffffffffffffffffffffffff168152602001908152602001600020610d80565b9050919050565b60606004805461055d90611687565b80601f016020809104026020016040519081016040528092919081815260200182805461058990611687565b80156105d65780601f106105ab576101008083540402835291602001916105d6565b820191906000526020600020905b8154815290600101906020018083116105b957829003601f168201915b5050505050905090565b6105ef87878787878787610d8e565b50505050505050565b600080610603610793565b90506000610611828661070c565b905083811015610656576040517f08c379a000000000000000000000000000000000000000000000000000000000815260040161064d9061178d565b60405180910390fd5b610663828686840361079b565b60019250505092915050565b60008061067a610793565b90506106878185856109f0565b600191505092915050565b3073ffffffffffffffffffffffffffffffffffffffff166396a9fc31888888888888886040518863ffffffff1660e01b81526004016106d797969594939291906117bc565b600060405180830381600087803b1580156106f157600080fd5b505af1925050508015610702575060015b5050505050505050565b6000600160008473ffffffffffffffffffffffffffffffffffffffff1673ffffffffffffffffffffffffffffffffffffffff16815260200190815260200160002060008373ffffffffffffffffffffffffffffffffffffffff1673ffffffffffffffffffffffffffffffffffffffff16815260200190815260200160002054905092915050565b600033905090565b600073ffffffffffffffffffffffffffffffffffffffff168373ffffffffffffffffffffffffffffffffffffffff160361080a576040517f08c379a00000000000000000000000000000000000000000000000000000000081526004016108019061189d565b60405180910390fd5b600073ffffffffffffffffffffffffffffffffffffffff168273ffffffffffffffffffffffffffffffffffffffff1603610879576040517f08c379a00000000000000000000000000000000000000000000000000000000081526004016108709061192f565b60405180910390fd5b80600160008573ffffffffffffffffffffffffffffffffffffffff1673ffffffffffffffffffffffffffffffffffffffff16815260200190815260200160002060008473ffffffffffffffffffffffffffffffffffffffff1673ffffffffffffffffffffffffffffffffffffffff168152602001908152602001600020819055508173ffffffffffffffffffffffffffffffffffffffff168373ffffffffffffffffffffffffffffffffffffffff167f8c5be1e5ebec7d5bd14f71427d1e84f3dd0314c0f7b2291e5b200ac8c7c3b925836040516109579190611418565b60405180910390a3505050565b6000610970848461070c565b90507fffffffffffffffffffffffffffffffffffffffffffffffffffffffffffffffff81146109ea57818110156109dc576040517f08c379a00000000000000000000000000000000000000000000000000000000081526004016109d39061199b565b60405180910390fd5b6109e9848484840361079b565b5b50505050565b600073ffffffffffffffffffffffffffffffffffffffff168373ffffffffffffffffffffffffffffffffffffffff1603610a5f576040517f08c379a0000000000000000000000000000000000000000000000000000000008152600401610a5690611a2d565b60405180910390fd5b600073ffffffffffffffffffffffffffffffffffffffff168273ffffffffffffffffffffffffffffffffffffffff1603610ace576040517f08c379a0000000000000000000000000000000000000000000000000000000008152600401610ac590611abf565b60405180910390fd5b610ad9838383610ed0565b60008060008573ffffffffffffffffffffffffffffffffffffffff1673ffffffffffffffffffffffffffffffffffffffff16815260200190815260200160002054905081811015610b5f576040517f08c379a0000000000000000000000000000000000000000000000000000000008152600401610b5690611b51565b60405180910390fd5b8181036000808673ffffffffffffffffffffffffffffffffffffffff1673ffffffffffffffffffffffffffffffffffffffff16815260200190815260200160002081905550816000808573ffffffffffffffffffffffffffffffffffffffff1673ffffffffffffffffffffffffffffffffffffffff168152602001908152602001600020600082825401925050819055508273ffffffffffffffffffffffffffffffffffffffff168473ffffffffffffffffffffffffffffffffffffffff167fddf252ad1be2c89b69c2b068fc378daa952ba7f163c4a11628f55a4df523b3ef84604051610c4d9190611418565b60405180910390a3610c60848484610ed5565b50505050565b60007f000000000000000000000000000000000000000000000000000000000000000073ffffffffffffffffffffffffffffffffffffffff163073ffffffffffffffffffffffffffffffffffffffff16148015610ce257507f000000000000000000000000000000000000000000000000000000000000000046145b15610d0f577f00000000000000000000000000000000000000000000000000000000000000009050610d7d565b610d7a7f00000000000000000000000000000000000000000000000000000000000000007f00000000000000000000000000000000000000000000000000000000000000007f0000000000000000000000000000000000000000000000000000000000000000610eda565b90505b90565b600081600001549050919050565b83421115610dd1576040517f08c379a0000000000000000000000000000000000000000000000000000000008152600401610dc890611bbd565b60405180910390fd5b60007f6e71edae12b1b97f4d1f60370fef10105fa2faae0126114a169c64845d6126c9888888610e008c610f14565b89604051602001610e1696959493929190611bdd565b6040516020818303038152906040528051906020012090506000610e3982610f72565b90506000610e4982878787610f8c565b90508973ffffffffffffffffffffffffffffffffffffffff168173ffffffffffffffffffffffffffffffffffffffff1614610eb9576040517f08c379a0000000000000000000000000000000000000000000000000000000008152600401610eb090611c8a565b60405180910390fd5b610ec48a8a8a61079b565b50505050505050505050565b505050565b505050565b60008383834630604051602001610ef5959493929190611caa565b6040516020818303038152906040528051906020012090509392505050565b600080600560008473ffffffffffffffffffffffffffffffffffffffff1673ffffffffffffffffffffffffffffffffffffffff1681526020019081526020016000209050610f6181610d80565b9150610f6c81610fb7565b50919050565b6000610f85610f7f610c66565b83610fcd565b9050919050565b6000806000610f9d87878787611000565b91509150610faa816110e2565b8192505050949350505050565b6001816000016000828254019250508190555050565b60008282604051602001610fe2929190611d75565b60405160208183030381529060405280519060200120905092915050565b6000807f7fffffffffffffffffffffffffffffff5d576e7357a4501ddfe92f46681b20a08360001c111561103b5760006003915091506110d9565b6000600187878787604051600081526020016040526040516110609493929190611dac565b6020604051602081039080840390855afa158015611082573d6000803e3d6000fd5b505050602060405103519050600073ffffffffffffffffffffffffffffffffffffffff168173ffffffffffffffffffffffffffffffffffffffff16036110d0576000600192509250506110d9565b80600092509250505b94509492505050565b600060048111156110f6576110f5611df1565b5b81600481111561110957611108611df1565b5b0315611245576001600481111561112357611122611df1565b5b81600481111561113657611135611df1565b5b03611176576040517f08c379a000000000000000000000000000000000000000000000000000000000815260040161116d90611e6c565b60405180910390fd5b6002600481111561118a57611189611df1565b5b81600481111561119d5761119c611df1565b5b036111dd576040517f08c379a00000000000000000000000000000000000000000000000000000000081526004016111d490611ed8565b60405180910390fd5b600360048111156111f1576111f0611df1565b5b81600481111561120457611203611df1565b5b03611244576040517f08c379a000000000000000000000000000000000000000000000000000000000815260040161123b90611f6a565b60405180910390fd5b5b50565b600081519050919050565b600082825260208201905092915050565b60005b83811015611282578082015181840152602081019050611267565b60008484015250505050565b6000601f19601f8301169050919050565b60006112aa82611248565b6112b48185611253565b93506112c4818560208601611264565b6112cd8161128e565b840191505092915050565b600060208201905081810360008301526112f2818461129f565b905092915050565b600080fd5b600073ffffffffffffffffffffffffffffffffffffffff82169050919050565b600061132a826112ff565b9050919050565b61133a8161131f565b811461134557600080fd5b50565b60008135905061135781611331565b92915050565b6000819050919050565b6113708161135d565b811461137b57600080fd5b50565b60008135905061138d81611367565b92915050565b600080604083850312156113aa576113a96112fa565b5b60006113b885828601611348565b92505060206113c98582860161137e565b9150509250929050565b60008115159050919050565b6113e8816113d3565b82525050565b600060208201905061140360008301846113df565b92915050565b6114128161135d565b82525050565b600060208201905061142d6000830184611409565b92915050565b60008060006060848603121561144c5761144b6112fa565b5b600061145a86828701611348565b935050602061146b86828701611348565b925050604061147c8682870161137e565b9150509250925092565b600060ff82169050919050565b61149c81611486565b82525050565b60006020820190506114b76000830184611493565b92915050565b6000819050919050565b6114d0816114bd565b82525050565b60006020820190506114eb60008301846114c7565b92915050565b600060208284031215611507576115066112fa565b5b600061151584828501611348565b91505092915050565b61152781611486565b811461153257600080fd5b50565b6000813590506115448161151e565b92915050565b611553816114bd565b811461155e57600080fd5b50565b6000813590506115708161154a565b92915050565b600080600080600080600060e0888a031215611595576115946112fa565b5b60006115a38a828b01611348565b97505060206115b48a828b01611348565b96505060406115c58a828b0161137e565b95505060606115d68a828b0161137e565b94505060806115e78a828b01611535565b93505060a06115f88a828b01611561565b92505060c06116098a828b01611561565b91505092959891949750929550565b6000806040838503121561162f5761162e6112fa565b5b600061163d85828601611348565b925050602061164e85828601611348565b9150509250929050565b7f4e487b7100000000000000000000000000000000000000000000000000000000600052602260045260246000fd5b6000600282049050600182168061169f57607f821691505b6020821081036116b2576116b1611658565b5b50919050565b7f4e487b7100000000000000000000000000000000000000000000000000000000600052601160045260246000fd5b60006116f28261135d565b91506116fd8361135d565b9250828201905080821115611715576117146116b8565b5b92915050565b7f45524332303a2064656372656173656420616c6c6f77616e63652062656c6f7760008201527f207a65726f000000000000000000000000000000000000000000000000000000602082015250565b6000611777602583611253565b91506117828261171b565b604082019050919050565b600060208201905081810360008301526117a68161176a565b9050919050565b6117b68161131f565b82525050565b600060e0820190506117d1600083018a6117ad565b6117de60208301896117ad565b6117eb6040830188611409565b6117f86060830187611409565b6118056080830186611493565b61181260a08301856114c7565b61181f60c08301846114c7565b98975050505050505050565b7f45524332303a20617070726f76652066726f6d20746865207a65726f2061646460008201527f7265737300000000000000000000000000000000000000000000000000000000602082015250565b6000611887602483611253565b91506118928261182b565b604082019050919050565b600060208201905081810360008301526118b68161187a565b9050919050565b7f45524332303a20617070726f766520746f20746865207a65726f20616464726560008201527f7373000000000000000000000000000000000000000000000000000000000000602082015250565b6000611919602283611253565b9150611924826118bd565b604082019050919050565b600060208201905081810360008301526119488161190c565b9050919050565b7f45524332303a20696e73756666696369656e7420616c6c6f77616e6365000000600082015250565b6000611985601d83611253565b91506119908261194f565b602082019050919050565b600060208201905081810360008301526119b481611978565b9050919050565b7f45524332303a207472616e736665722066726f6d20746865207a65726f20616460008201527f6472657373000000000000000000000000000000000000000000000000000000602082015250565b6000611a17602583611253565b9150611a22826119bb565b604082019050919050565b60006020820190508181036000830152611a4681611a0a565b9050919050565b7f45524332303a207472616e7366657220746f20746865207a65726f206164647260008201527f6573730000000000000000000000000000000000000000000000000000000000602082015250565b6000611aa9602383611253565b9150611ab482611a4d565b604082019050919050565b60006020820190508181036000830152611ad881611a9c565b9050919050565b7f45524332303a207472616e7366657220616d6f756e742065786365656473206260008201527f616c616e63650000000000000000000000000000000000000000000000000000602082015250565b6000611b3b602683611253565b9150611b4682611adf565b604082019050919050565b60006020820190508181036000830152611b6a81611b2e565b9050919050565b7f45524332305065726d69743a206578706972656420646561646c696e65000000600082015250565b6000611ba7601d83611253565b9150611bb282611b71565b602082019050919050565b60006020820190508181036000830152611bd681611b9a565b9050919050565b600060c082019050611bf260008301896114c7565b611bff60208301886117ad565b611c0c60408301876117ad565b611c196060830186611409565b611c266080830185611409565b611c3360a0830184611409565b979650505050505050565b7f45524332305065726d69743a20696e76616c6964207369676e61747572650000600082015250565b6000611c74601e83611253565b9150611c7f82611c3e565b602082019050919050565b60006020820190508181036000830152611ca381611c67565b9050919050565b600060a082019050611cbf60008301886114c7565b611ccc60208301876114c7565b611cd960408301866114c7565b611ce66060830185611409565b611cf360808301846117ad565b9695505050505050565b600081905092915050565b7f1901000000000000000000000000000000000000000000000000000000000000600082015250565b6000611d3e600283611cfd565b9150611d4982611d08565b600282019050919050565b6000819050919050565b611d6f611d6a826114bd565b611d54565b82525050565b6000611d8082611d31565b9150611d8c8285611d5e565b602082019150611d9c8284611d5e565b6020820191508190509392505050565b6000608082019050611dc160008301876114c7565b611dce6020830186611493565b611ddb60408301856114c7565b611de860608301846114c7565b95945050505050565b7f4e487b7100000000000000000000000000000000000000000000000000000000600052602160045260246000fd5b7f45434453413a20696e76616c6964207369676e61747572650000000000000000600082015250565b6000611e56601883611253565b9150611e6182611e20565b602082019050919050565b60006020820190508181036000830152611e8581611e49565b9050919050565b7f45434453413a20696e76616c6964207369676e6174757265206c656e67746800600082015250565b6000611ec2601f83611253565b9150611ecd82611e8c565b602082019050919050565b60006020820190508181036000830152611ef181611eb5565b9050919050565b7f45434453413a20696e76616c6964207369676e6174757265202773272076616c60008201527f7565000000000000000000000000000000000000000000000000000000000000602082015250565b6000611f54602283611253565b9150611f5f82611ef8565b604082019050919050565b60006020820190508181036000830152611f8381611f47565b905091905056fea26469706673582212202862703185c9d7d5eb266a76d7c5fa3ac2cdef5e44030494e9472b3e1bd9886b64736f6c63430008110033",
  "linkReferences": {},
  "deployedLinkReferences": {}
}