{
  "_format": "hh-sol-artifact-1",
  "contractName": "ERC1155BurnableMock",
  "sourceName": "contracts/mocks/ERC1155BurnableMock.sol",
  "abi": [
    {
      "inputs": [
        {
          "internalType": "string",
          "name": "uri",
          "type": "string"
        }
      ],
      "stateMutability": "nonpayable",
      "type": "constructor"
    },
    {
      "anonymous": false,
      "inputs": [
        {
          "indexed": true,
          "internalType": "address",
          "name": "account",
          "type": "address"
        },
        {
          "indexed": true,
          "internalType": "address",
          "name": "operator",
          "type": "address"
        },
        {
          "indexed": false,
          "internalType": "bool",
          "name": "approved",
          "type": "bool"
        }
      ],
      "name": "ApprovalForAll",
      "type": "event"
    },
    {
      "anonymous": false,
      "inputs": [
        {
          "indexed": true,
          "internalType": "address",
          "name": "operator",
          "type": "address"
        },
        {
          "indexed": true,
          "internalType": "address",
          "name": "from",
          "type": "address"
        },
        {
          "indexed": true,
          "internalType": "address",
          "name": "to",
          "type": "address"
        },
        {
          "indexed": false,
          "internalType": "uint256[]",
          "name": "ids",
          "type": "uint256[]"
        },
        {
          "indexed": false,
          "internalType": "uint256[]",
          "name": "values",
          "type": "uint256[]"
        }
      ],
      "name": "TransferBatch",
      "type": "event"
    },
    {
      "anonymous": false,
      "inputs": [
        {
          "indexed": true,
          "internalType": "address",
          "name": "operator",
          "type": "address"
        },
        {
          "indexed": true,
          "internalType": "address",
          "name": "from",
          "type": "address"
        },
        {
          "indexed": true,
          "internalType": "address",
          "name": "to",
          "type": "address"
        },
        {
          "indexed": false,
          "internalType": "uint256",
          "name": "id",
          "type": "uint256"
        },
        {
          "indexed": false,
          "internalType": "uint256",
          "name": "value",
          "type": "uint256"
        }
      ],
      "name": "TransferSingle",
      "type": "event"
    },
    {
      "anonymous": false,
      "inputs": [
        {
          "indexed": false,
          "internalType": "string",
          "name": "value",
          "type": "string"
        },
        {
          "indexed": true,
          "internalType": "uint256",
          "name": "id",
          "type": "uint256"
        }
      ],
      "name": "URI",
      "type": "event"
    },
    {
      "inputs": [
        {
          "internalType": "address",
          "name": "account",
          "type": "address"
        },
        {
          "internalType": "uint256",
          "name": "id",
          "type": "uint256"
        }
      ],
      "name": "balanceOf",
      "outputs": [
        {
          "internalType": "uint256",
          "name": "",
          "type": "uint256"
        }
      ],
      "stateMutability": "view",
      "type": "function"
    },
    {
      "inputs": [
        {
          "internalType": "address[]",
          "name": "accounts",
          "type": "address[]"
        },
        {
          "internalType": "uint256[]",
          "name": "ids",
          "type": "uint256[]"
        }
      ],
      "name": "balanceOfBatch",
      "outputs": [
        {
          "internalType": "uint256[]",
          "name": "",
          "type": "uint256[]"
        }
      ],
      "stateMutability": "view",
      "type": "function"
    },
    {
      "inputs": [
        {
          "internalType": "address",
          "name": "account",
          "type": "address"
        },
        {
          "internalType": "uint256",
          "name": "id",
          "type": "uint256"
        },
        {
          "internalType": "uint256",
          "name": "value",
          "type": "uint256"
        }
      ],
      "name": "burn",
      "outputs": [],
      "stateMutability": "nonpayable",
      "type": "function"
    },
    {
      "inputs": [
        {
          "internalType": "address",
          "name": "account",
          "type": "address"
        },
        {
          "internalType": "uint256[]",
          "name": "ids",
          "type": "uint256[]"
        },
        {
          "internalType": "uint256[]",
          "name": "values",
          "type": "uint256[]"
        }
      ],
      "name": "burnBatch",
      "outputs": [],
      "stateMutability": "nonpayable",
      "type": "function"
    },
    {
      "inputs": [
        {
          "internalType": "address",
          "name": "account",
          "type": "address"
        },
        {
          "internalType": "address",
          "name": "operator",
          "type": "address"
        }
      ],
      "name": "isApprovedForAll",
      "outputs": [
        {
          "internalType": "bool",
          "name": "",
          "type": "bool"
        }
      ],
      "stateMutability": "view",
      "type": "function"
    },
    {
      "inputs": [
        {
          "internalType": "address",
          "name": "to",
          "type": "address"
        },
        {
          "internalType": "uint256",
          "name": "id",
          "type": "uint256"
        },
        {
          "internalType": "uint256",
          "name": "value",
          "type": "uint256"
        },
        {
          "internalType": "bytes",
          "name": "data",
          "type": "bytes"
        }
      ],
      "name": "mint",
      "outputs": [],
      "stateMutability": "nonpayable",
      "type": "function"
    },
    {
      "inputs": [
        {
          "internalType": "address",
          "name": "from",
          "type": "address"
        },
        {
          "internalType": "address",
          "name": "to",
          "type": "address"
        },
        {
          "internalType": "uint256[]",
          "name": "ids",
          "type": "uint256[]"
        },
        {
          "internalType": "uint256[]",
          "name": "amounts",
          "type": "uint256[]"
        },
        {
          "internalType": "bytes",
          "name": "data",
          "type": "bytes"
        }
      ],
      "name": "safeBatchTransferFrom",
      "outputs": [],
      "stateMutability": "nonpayable",
      "type": "function"
    },
    {
      "inputs": [
        {
          "internalType": "address",
          "name": "from",
          "type": "address"
        },
        {
          "internalType": "address",
          "name": "to",
          "type": "address"
        },
        {
          "internalType": "uint256",
          "name": "id",
          "type": "uint256"
        },
        {
          "internalType": "uint256",
          "name": "amount",
          "type": "uint256"
        },
        {
          "internalType": "bytes",
          "name": "data",
          "type": "bytes"
        }
      ],
      "name": "safeTransferFrom",
      "outputs": [],
      "stateMutability": "nonpayable",
      "type": "function"
    },
    {
      "inputs": [
        {
          "internalType": "address",
          "name": "operator",
          "type": "address"
        },
        {
          "internalType": "bool",
          "name": "approved",
          "type": "bool"
        }
      ],
      "name": "setApprovalForAll",
      "outputs": [],
      "stateMutability": "nonpayable",
      "type": "function"
    },
    {
      "inputs": [
        {
          "internalType": "bytes4",
          "name": "interfaceId",
          "type": "bytes4"
        }
      ],
      "name": "supportsInterface",
      "outputs": [
        {
          "internalType": "bool",
          "name": "",
          "type": "bool"
        }
      ],
      "stateMutability": "view",
      "type": "function"
    },
    {
      "inputs": [
        {
          "internalType": "uint256",
          "name": "",
          "type": "uint256"
        }
      ],
      "name": "uri",
      "outputs": [
        {
          "internalType": "string",
          "name": "",
          "type": "string"
        }
      ],
      "stateMutability": "view",
      "type": "function"
    }
  ],
  "bytecode": "0x60806040523480156200001157600080fd5b506040516200361f3803806200361f8339818101604052810190620000379190620001f9565b8062000049816200005160201b60201c565b50506200057c565b806002908162000062919062000495565b5050565b6000604051905090565b600080fd5b600080fd5b600080fd5b600080fd5b6000601f19601f8301169050919050565b7f4e487b7100000000000000000000000000000000000000000000000000000000600052604160045260246000fd5b620000cf8262000084565b810181811067ffffffffffffffff82111715620000f157620000f062000095565b5b80604052505050565b60006200010662000066565b9050620001148282620000c4565b919050565b600067ffffffffffffffff82111562000137576200013662000095565b5b620001428262000084565b9050602081019050919050565b60005b838110156200016f57808201518184015260208101905062000152565b60008484015250505050565b6000620001926200018c8462000119565b620000fa565b905082815260208101848484011115620001b157620001b06200007f565b5b620001be8482856200014f565b509392505050565b600082601f830112620001de57620001dd6200007a565b5b8151620001f08482602086016200017b565b91505092915050565b60006020828403121562000212576200021162000070565b5b600082015167ffffffffffffffff81111562000233576200023262000075565b5b6200024184828501620001c6565b91505092915050565b600081519050919050565b7f4e487b7100000000000000000000000000000000000000000000000000000000600052602260045260246000fd5b600060028204905060018216806200029d57607f821691505b602082108103620002b357620002b262000255565b5b50919050565b60008190508160005260206000209050919050565b60006020601f8301049050919050565b600082821b905092915050565b6000600883026200031d7fffffffffffffffffffffffffffffffffffffffffffffffffffffffffffffffff82620002de565b620003298683620002de565b95508019841693508086168417925050509392505050565b6000819050919050565b6000819050919050565b600062000376620003706200036a8462000341565b6200034b565b62000341565b9050919050565b6000819050919050565b620003928362000355565b620003aa620003a1826200037d565b848454620002eb565b825550505050565b600090565b620003c1620003b2565b620003ce81848462000387565b505050565b5b81811015620003f657620003ea600082620003b7565b600181019050620003d4565b5050565b601f82111562000445576200040f81620002b9565b6200041a84620002ce565b810160208510156200042a578190505b620004426200043985620002ce565b830182620003d3565b50505b505050565b600082821c905092915050565b60006200046a600019846008026200044a565b1980831691505092915050565b600062000485838362000457565b9150826002028217905092915050565b620004a0826200024a565b67ffffffffffffffff811115620004bc57620004bb62000095565b5b620004c8825462000284565b620004d5828285620003fa565b600060209050601f8311600181146200050d5760008415620004f8578287015190505b62000504858262000477565b86555062000574565b601f1984166200051d86620002b9565b60005b82811015620005475784890151825560018201915060208501945060208101905062000520565b8683101562000567578489015162000563601f89168262000457565b8355505b6001600288020188555050505b505050505050565b613093806200058c6000396000f3fe608060405234801561001057600080fd5b50600436106100a85760003560e01c80636b20c454116100715780636b20c45414610189578063731133e9146101a5578063a22cb465146101c1578063e985e9c5146101dd578063f242432a1461020d578063f5298aca14610229576100a8565b8062fdd58e146100ad57806301ffc9a7146100dd5780630e89341c1461010d5780632eb2c2d61461013d5780634e1273f414610159575b600080fd5b6100c760048036038101906100c29190611c35565b610245565b6040516100d49190611c84565b60405180910390f35b6100f760048036038101906100f29190611cf7565b61030d565b6040516101049190611d3f565b60405180910390f35b61012760048036038101906101229190611d5a565b6103ef565b6040516101349190611e17565b60405180910390f35b61015760048036038101906101529190612036565b610483565b005b610173600480360381019061016e91906121c8565b610524565b60405161018091906122fe565b60405180910390f35b6101a3600480360381019061019e9190612320565b61063d565b005b6101bf60048036038101906101ba91906123ab565b6106da565b005b6101db60048036038101906101d6919061245a565b6106ec565b005b6101f760048036038101906101f2919061249a565b610702565b6040516102049190611d3f565b60405180910390f35b610227600480360381019061022291906124da565b610796565b005b610243600480360381019061023e9190612571565b610837565b005b60008073ffffffffffffffffffffffffffffffffffffffff168373ffffffffffffffffffffffffffffffffffffffff16036102b5576040517f08c379a00000000000000000000000000000000000000000000000000000000081526004016102ac90612636565b60405180910390fd5b60008083815260200190815260200160002060008473ffffffffffffffffffffffffffffffffffffffff1673ffffffffffffffffffffffffffffffffffffffff16815260200190815260200160002054905092915050565b60007fd9b67a26000000000000000000000000000000000000000000000000000000007bffffffffffffffffffffffffffffffffffffffffffffffffffffffff1916827bffffffffffffffffffffffffffffffffffffffffffffffffffffffff191614806103d857507f0e89341c000000000000000000000000000000000000000000000000000000007bffffffffffffffffffffffffffffffffffffffffffffffffffffffff1916827bffffffffffffffffffffffffffffffffffffffffffffffffffffffff1916145b806103e857506103e7826108d4565b5b9050919050565b6060600280546103fe90612685565b80601f016020809104026020016040519081016040528092919081815260200182805461042a90612685565b80156104775780601f1061044c57610100808354040283529160200191610477565b820191906000526020600020905b81548152906001019060200180831161045a57829003601f168201915b50505050509050919050565b61048b61093e565b73ffffffffffffffffffffffffffffffffffffffff168573ffffffffffffffffffffffffffffffffffffffff1614806104d157506104d0856104cb61093e565b610702565b5b610510576040517f08c379a000000000000000000000000000000000000000000000000000000000815260040161050790612728565b60405180910390fd5b61051d8585858585610946565b5050505050565b6060815183511461056a576040517f08c379a0000000000000000000000000000000000000000000000000000000008152600401610561906127ba565b60405180910390fd5b6000835167ffffffffffffffff81111561058757610586611e3e565b5b6040519080825280602002602001820160405280156105b55781602001602082028036833780820191505090505b50905060005b8451811015610632576106028582815181106105da576105d96127da565b5b60200260200101518583815181106105f5576105f46127da565b5b6020026020010151610245565b828281518110610615576106146127da565b5b6020026020010181815250508061062b90612838565b90506105bb565b508091505092915050565b61064561093e565b73ffffffffffffffffffffffffffffffffffffffff168373ffffffffffffffffffffffffffffffffffffffff16148061068b575061068a8361068561093e565b610702565b5b6106ca576040517f08c379a00000000000000000000000000000000000000000000000000000000081526004016106c190612728565b60405180910390fd5b6106d5838383610c67565b505050565b6106e684848484610f35565b50505050565b6106fe6106f761093e565b83836110e5565b5050565b6000600160008473ffffffffffffffffffffffffffffffffffffffff1673ffffffffffffffffffffffffffffffffffffffff16815260200190815260200160002060008373ffffffffffffffffffffffffffffffffffffffff1673ffffffffffffffffffffffffffffffffffffffff16815260200190815260200160002060009054906101000a900460ff16905092915050565b61079e61093e565b73ffffffffffffffffffffffffffffffffffffffff168573ffffffffffffffffffffffffffffffffffffffff1614806107e457506107e3856107de61093e565b610702565b5b610823576040517f08c379a000000000000000000000000000000000000000000000000000000000815260040161081a90612728565b60405180910390fd5b6108308585858585611251565b5050505050565b61083f61093e565b73ffffffffffffffffffffffffffffffffffffffff168373ffffffffffffffffffffffffffffffffffffffff16148061088557506108848361087f61093e565b610702565b5b6108c4576040517f08c379a00000000000000000000000000000000000000000000000000000000081526004016108bb90612728565b60405180910390fd5b6108cf8383836114ec565b505050565b60007f01ffc9a7000000000000000000000000000000000000000000000000000000007bffffffffffffffffffffffffffffffffffffffffffffffffffffffff1916827bffffffffffffffffffffffffffffffffffffffffffffffffffffffff1916149050919050565b600033905090565b815183511461098a576040517f08c379a0000000000000000000000000000000000000000000000000000000008152600401610981906128f2565b60405180910390fd5b600073ffffffffffffffffffffffffffffffffffffffff168473ffffffffffffffffffffffffffffffffffffffff16036109f9576040517f08c379a00000000000000000000000000000000000000000000000000000000081526004016109f090612984565b60405180910390fd5b6000610a0361093e565b9050610a13818787878787611732565b60005b8451811015610bc4576000858281518110610a3457610a336127da565b5b602002602001015190506000858381518110610a5357610a526127da565b5b60200260200101519050600080600084815260200190815260200160002060008b73ffffffffffffffffffffffffffffffffffffffff1673ffffffffffffffffffffffffffffffffffffffff16815260200190815260200160002054905081811015610af4576040517f08c379a0000000000000000000000000000000000000000000000000000000008152600401610aeb90612a16565b60405180910390fd5b81810360008085815260200190815260200160002060008c73ffffffffffffffffffffffffffffffffffffffff1673ffffffffffffffffffffffffffffffffffffffff168152602001908152602001600020819055508160008085815260200190815260200160002060008b73ffffffffffffffffffffffffffffffffffffffff1673ffffffffffffffffffffffffffffffffffffffff1681526020019081526020016000206000828254610ba99190612a36565b9250508190555050505080610bbd90612838565b9050610a16565b508473ffffffffffffffffffffffffffffffffffffffff168673ffffffffffffffffffffffffffffffffffffffff168273ffffffffffffffffffffffffffffffffffffffff167f4a39dc06d4c0dbc64b70af90fd698a233a518aa5d07e595d983b8c0526c8f7fb8787604051610c3b929190612a6a565b60405180910390a4610c5181878787878761173a565b610c5f818787878787611742565b505050505050565b600073ffffffffffffffffffffffffffffffffffffffff168373ffffffffffffffffffffffffffffffffffffffff1603610cd6576040517f08c379a0000000000000000000000000000000000000000000000000000000008152600401610ccd90612b13565b60405180910390fd5b8051825114610d1a576040517f08c379a0000000000000000000000000000000000000000000000000000000008152600401610d11906128f2565b60405180910390fd5b6000610d2461093e565b9050610d4481856000868660405180602001604052806000815250611732565b60005b8351811015610e91576000848281518110610d6557610d646127da565b5b602002602001015190506000848381518110610d8457610d836127da565b5b60200260200101519050600080600084815260200190815260200160002060008973ffffffffffffffffffffffffffffffffffffffff1673ffffffffffffffffffffffffffffffffffffffff16815260200190815260200160002054905081811015610e25576040517f08c379a0000000000000000000000000000000000000000000000000000000008152600401610e1c90612ba5565b60405180910390fd5b81810360008085815260200190815260200160002060008a73ffffffffffffffffffffffffffffffffffffffff1673ffffffffffffffffffffffffffffffffffffffff168152602001908152602001600020819055505050508080610e8990612838565b915050610d47565b50600073ffffffffffffffffffffffffffffffffffffffff168473ffffffffffffffffffffffffffffffffffffffff168273ffffffffffffffffffffffffffffffffffffffff167f4a39dc06d4c0dbc64b70af90fd698a233a518aa5d07e595d983b8c0526c8f7fb8686604051610f09929190612a6a565b60405180910390a4610f2f8185600086866040518060200160405280600081525061173a565b50505050565b600073ffffffffffffffffffffffffffffffffffffffff168473ffffffffffffffffffffffffffffffffffffffff1603610fa4576040517f08c379a0000000000000000000000000000000000000000000000000000000008152600401610f9b90612c37565b60405180910390fd5b6000610fae61093e565b90506000610fbb85611919565b90506000610fc885611919565b9050610fd983600089858589611732565b8460008088815260200190815260200160002060008973ffffffffffffffffffffffffffffffffffffffff1673ffffffffffffffffffffffffffffffffffffffff16815260200190815260200160002060008282546110389190612a36565b925050819055508673ffffffffffffffffffffffffffffffffffffffff16600073ffffffffffffffffffffffffffffffffffffffff168473ffffffffffffffffffffffffffffffffffffffff167fc3d58168c5ae7397731d063d5bbf3d657854427343f4c083240f7aacaa2d0f6289896040516110b6929190612c57565b60405180910390a46110cd8360008985858961173a565b6110dc83600089898989611993565b50505050505050565b8173ffffffffffffffffffffffffffffffffffffffff168373ffffffffffffffffffffffffffffffffffffffff1603611153576040517f08c379a000000000000000000000000000000000000000000000000000000000815260040161114a90612cf2565b60405180910390fd5b80600160008573ffffffffffffffffffffffffffffffffffffffff1673ffffffffffffffffffffffffffffffffffffffff16815260200190815260200160002060008473ffffffffffffffffffffffffffffffffffffffff1673ffffffffffffffffffffffffffffffffffffffff16815260200190815260200160002060006101000a81548160ff0219169083151502179055508173ffffffffffffffffffffffffffffffffffffffff168373ffffffffffffffffffffffffffffffffffffffff167f17307eab39ab6107e8899845ad3d59bd9653f200f220920489ca2b5937696c31836040516112449190611d3f565b60405180910390a3505050565b600073ffffffffffffffffffffffffffffffffffffffff168473ffffffffffffffffffffffffffffffffffffffff16036112c0576040517f08c379a00000000000000000000000000000000000000000000000000000000081526004016112b790612984565b60405180910390fd5b60006112ca61093e565b905060006112d785611919565b905060006112e485611919565b90506112f4838989858589611732565b600080600088815260200190815260200160002060008a73ffffffffffffffffffffffffffffffffffffffff1673ffffffffffffffffffffffffffffffffffffffff1681526020019081526020016000205490508581101561138b576040517f08c379a000000000000000000000000000000000000000000000000000000000815260040161138290612a16565b60405180910390fd5b85810360008089815260200190815260200160002060008b73ffffffffffffffffffffffffffffffffffffffff1673ffffffffffffffffffffffffffffffffffffffff168152602001908152602001600020819055508560008089815260200190815260200160002060008a73ffffffffffffffffffffffffffffffffffffffff1673ffffffffffffffffffffffffffffffffffffffff16815260200190815260200160002060008282546114409190612a36565b925050819055508773ffffffffffffffffffffffffffffffffffffffff168973ffffffffffffffffffffffffffffffffffffffff168573ffffffffffffffffffffffffffffffffffffffff167fc3d58168c5ae7397731d063d5bbf3d657854427343f4c083240f7aacaa2d0f628a8a6040516114bd929190612c57565b60405180910390a46114d3848a8a86868a61173a565b6114e1848a8a8a8a8a611993565b505050505050505050565b600073ffffffffffffffffffffffffffffffffffffffff168373ffffffffffffffffffffffffffffffffffffffff160361155b576040517f08c379a000000000000000000000000000000000000000000000000000000000815260040161155290612b13565b60405180910390fd5b600061156561093e565b9050600061157284611919565b9050600061157f84611919565b905061159f83876000858560405180602001604052806000815250611732565b600080600087815260200190815260200160002060008873ffffffffffffffffffffffffffffffffffffffff1673ffffffffffffffffffffffffffffffffffffffff16815260200190815260200160002054905084811015611636576040517f08c379a000000000000000000000000000000000000000000000000000000000815260040161162d90612ba5565b60405180910390fd5b84810360008088815260200190815260200160002060008973ffffffffffffffffffffffffffffffffffffffff1673ffffffffffffffffffffffffffffffffffffffff16815260200190815260200160002081905550600073ffffffffffffffffffffffffffffffffffffffff168773ffffffffffffffffffffffffffffffffffffffff168573ffffffffffffffffffffffffffffffffffffffff167fc3d58168c5ae7397731d063d5bbf3d657854427343f4c083240f7aacaa2d0f628989604051611703929190612c57565b60405180910390a46117298488600086866040518060200160405280600081525061173a565b50505050505050565b505050505050565b505050505050565b6117618473ffffffffffffffffffffffffffffffffffffffff16611b6a565b15611911578373ffffffffffffffffffffffffffffffffffffffff1663bc197c8187878686866040518663ffffffff1660e01b81526004016117a7959493929190612d76565b6020604051808303816000875af19250505080156117e357506040513d601f19601f820116820180604052508101906117e09190612df3565b60015b611888576117ef612e2d565b806308c379a00361184b5750611803612e4f565b8061180e575061184d565b806040517f08c379a00000000000000000000000000000000000000000000000000000000081526004016118429190611e17565b60405180910390fd5b505b6040517f08c379a000000000000000000000000000000000000000000000000000000000815260040161187f90612f51565b60405180910390fd5b63bc197c8160e01b7bffffffffffffffffffffffffffffffffffffffffffffffffffffffff1916817bffffffffffffffffffffffffffffffffffffffffffffffffffffffff19161461190f576040517f08c379a000000000000000000000000000000000000000000000000000000000815260040161190690612fe3565b60405180910390fd5b505b505050505050565b60606000600167ffffffffffffffff81111561193857611937611e3e565b5b6040519080825280602002602001820160405280156119665781602001602082028036833780820191505090505b509050828160008151811061197e5761197d6127da565b5b60200260200101818152505080915050919050565b6119b28473ffffffffffffffffffffffffffffffffffffffff16611b6a565b15611b62578373ffffffffffffffffffffffffffffffffffffffff1663f23a6e6187878686866040518663ffffffff1660e01b81526004016119f8959493929190613003565b6020604051808303816000875af1925050508015611a3457506040513d601f19601f82011682018060405250810190611a319190612df3565b60015b611ad957611a40612e2d565b806308c379a003611a9c5750611a54612e4f565b80611a5f5750611a9e565b806040517f08c379a0000000000000000000000000000000000000000000000000000000008152600401611a939190611e17565b60405180910390fd5b505b6040517f08c379a0000000000000000000000000000000000000000000000000000000008152600401611ad090612f51565b60405180910390fd5b63f23a6e6160e01b7bffffffffffffffffffffffffffffffffffffffffffffffffffffffff1916817bffffffffffffffffffffffffffffffffffffffffffffffffffffffff191614611b60576040517f08c379a0000000000000000000000000000000000000000000000000000000008152600401611b5790612fe3565b60405180910390fd5b505b505050505050565b6000808273ffffffffffffffffffffffffffffffffffffffff163b119050919050565b6000604051905090565b600080fd5b600080fd5b600073ffffffffffffffffffffffffffffffffffffffff82169050919050565b6000611bcc82611ba1565b9050919050565b611bdc81611bc1565b8114611be757600080fd5b50565b600081359050611bf981611bd3565b92915050565b6000819050919050565b611c1281611bff565b8114611c1d57600080fd5b50565b600081359050611c2f81611c09565b92915050565b60008060408385031215611c4c57611c4b611b97565b5b6000611c5a85828601611bea565b9250506020611c6b85828601611c20565b9150509250929050565b611c7e81611bff565b82525050565b6000602082019050611c996000830184611c75565b92915050565b60007fffffffff0000000000000000000000000000000000000000000000000000000082169050919050565b611cd481611c9f565b8114611cdf57600080fd5b50565b600081359050611cf181611ccb565b92915050565b600060208284031215611d0d57611d0c611b97565b5b6000611d1b84828501611ce2565b91505092915050565b60008115159050919050565b611d3981611d24565b82525050565b6000602082019050611d546000830184611d30565b92915050565b600060208284031215611d7057611d6f611b97565b5b6000611d7e84828501611c20565b91505092915050565b600081519050919050565b600082825260208201905092915050565b60005b83811015611dc1578082015181840152602081019050611da6565b60008484015250505050565b6000601f19601f8301169050919050565b6000611de982611d87565b611df38185611d92565b9350611e03818560208601611da3565b611e0c81611dcd565b840191505092915050565b60006020820190508181036000830152611e318184611dde565b905092915050565b600080fd5b7f4e487b7100000000000000000000000000000000000000000000000000000000600052604160045260246000fd5b611e7682611dcd565b810181811067ffffffffffffffff82111715611e9557611e94611e3e565b5b80604052505050565b6000611ea8611b8d565b9050611eb48282611e6d565b919050565b600067ffffffffffffffff821115611ed457611ed3611e3e565b5b602082029050602081019050919050565b600080fd5b6000611efd611ef884611eb9565b611e9e565b90508083825260208201905060208402830185811115611f2057611f1f611ee5565b5b835b81811015611f495780611f358882611c20565b845260208401935050602081019050611f22565b5050509392505050565b600082601f830112611f6857611f67611e39565b5b8135611f78848260208601611eea565b91505092915050565b600080fd5b600067ffffffffffffffff821115611fa157611fa0611e3e565b5b611faa82611dcd565b9050602081019050919050565b82818337600083830152505050565b6000611fd9611fd484611f86565b611e9e565b905082815260208101848484011115611ff557611ff4611f81565b5b612000848285611fb7565b509392505050565b600082601f83011261201d5761201c611e39565b5b813561202d848260208601611fc6565b91505092915050565b600080600080600060a0868803121561205257612051611b97565b5b600061206088828901611bea565b955050602061207188828901611bea565b945050604086013567ffffffffffffffff81111561209257612091611b9c565b5b61209e88828901611f53565b935050606086013567ffffffffffffffff8111156120bf576120be611b9c565b5b6120cb88828901611f53565b925050608086013567ffffffffffffffff8111156120ec576120eb611b9c565b5b6120f888828901612008565b9150509295509295909350565b600067ffffffffffffffff8211156121205761211f611e3e565b5b602082029050602081019050919050565b600061214461213f84612105565b611e9e565b9050808382526020820190506020840283018581111561216757612166611ee5565b5b835b81811015612190578061217c8882611bea565b845260208401935050602081019050612169565b5050509392505050565b600082601f8301126121af576121ae611e39565b5b81356121bf848260208601612131565b91505092915050565b600080604083850312156121df576121de611b97565b5b600083013567ffffffffffffffff8111156121fd576121fc611b9c565b5b6122098582860161219a565b925050602083013567ffffffffffffffff81111561222a57612229611b9c565b5b61223685828601611f53565b9150509250929050565b600081519050919050565b600082825260208201905092915050565b6000819050602082019050919050565b61227581611bff565b82525050565b6000612287838361226c565b60208301905092915050565b6000602082019050919050565b60006122ab82612240565b6122b5818561224b565b93506122c08361225c565b8060005b838110156122f15781516122d8888261227b565b97506122e383612293565b9250506001810190506122c4565b5085935050505092915050565b6000602082019050818103600083015261231881846122a0565b905092915050565b60008060006060848603121561233957612338611b97565b5b600061234786828701611bea565b935050602084013567ffffffffffffffff81111561236857612367611b9c565b5b61237486828701611f53565b925050604084013567ffffffffffffffff81111561239557612394611b9c565b5b6123a186828701611f53565b9150509250925092565b600080600080608085870312156123c5576123c4611b97565b5b60006123d387828801611bea565b94505060206123e487828801611c20565b93505060406123f587828801611c20565b925050606085013567ffffffffffffffff81111561241657612415611b9c565b5b61242287828801612008565b91505092959194509250565b61243781611d24565b811461244257600080fd5b50565b6000813590506124548161242e565b92915050565b6000806040838503121561247157612470611b97565b5b600061247f85828601611bea565b925050602061249085828601612445565b9150509250929050565b600080604083850312156124b1576124b0611b97565b5b60006124bf85828601611bea565b92505060206124d085828601611bea565b9150509250929050565b600080600080600060a086880312156124f6576124f5611b97565b5b600061250488828901611bea565b955050602061251588828901611bea565b945050604061252688828901611c20565b935050606061253788828901611c20565b925050608086013567ffffffffffffffff81111561255857612557611b9c565b5b61256488828901612008565b9150509295509295909350565b60008060006060848603121561258a57612589611b97565b5b600061259886828701611bea565b93505060206125a986828701611c20565b92505060406125ba86828701611c20565b9150509250925092565b7f455243313135353a2061646472657373207a65726f206973206e6f742061207660008201527f616c6964206f776e657200000000000000000000000000000000000000000000602082015250565b6000612620602a83611d92565b915061262b826125c4565b604082019050919050565b6000602082019050818103600083015261264f81612613565b9050919050565b7f4e487b7100000000000000000000000000000000000000000000000000000000600052602260045260246000fd5b6000600282049050600182168061269d57607f821691505b6020821081036126b0576126af612656565b5b50919050565b7f455243313135353a2063616c6c6572206973206e6f7420746f6b656e206f776e60008201527f6572206f7220617070726f766564000000000000000000000000000000000000602082015250565b6000612712602e83611d92565b915061271d826126b6565b604082019050919050565b6000602082019050818103600083015261274181612705565b9050919050565b7f455243313135353a206163636f756e747320616e6420696473206c656e67746860008201527f206d69736d617463680000000000000000000000000000000000000000000000602082015250565b60006127a4602983611d92565b91506127af82612748565b604082019050919050565b600060208201905081810360008301526127d381612797565b9050919050565b7f4e487b7100000000000000000000000000000000000000000000000000000000600052603260045260246000fd5b7f4e487b7100000000000000000000000000000000000000000000000000000000600052601160045260246000fd5b600061284382611bff565b91507fffffffffffffffffffffffffffffffffffffffffffffffffffffffffffffffff820361287557612874612809565b5b600182019050919050565b7f455243313135353a2069647320616e6420616d6f756e7473206c656e6774682060008201527f6d69736d61746368000000000000000000000000000000000000000000000000602082015250565b60006128dc602883611d92565b91506128e782612880565b604082019050919050565b6000602082019050818103600083015261290b816128cf565b9050919050565b7f455243313135353a207472616e7366657220746f20746865207a65726f20616460008201527f6472657373000000000000000000000000000000000000000000000000000000602082015250565b600061296e602583611d92565b915061297982612912565b604082019050919050565b6000602082019050818103600083015261299d81612961565b9050919050565b7f455243313135353a20696e73756666696369656e742062616c616e636520666f60008201527f72207472616e7366657200000000000000000000000000000000000000000000602082015250565b6000612a00602a83611d92565b9150612a0b826129a4565b604082019050919050565b60006020820190508181036000830152612a2f816129f3565b9050919050565b6000612a4182611bff565b9150612a4c83611bff565b9250828201905080821115612a6457612a63612809565b5b92915050565b60006040820190508181036000830152612a8481856122a0565b90508181036020830152612a9881846122a0565b90509392505050565b7f455243313135353a206275726e2066726f6d20746865207a65726f206164647260008201527f6573730000000000000000000000000000000000000000000000000000000000602082015250565b6000612afd602383611d92565b9150612b0882612aa1565b604082019050919050565b60006020820190508181036000830152612b2c81612af0565b9050919050565b7f455243313135353a206275726e20616d6f756e7420657863656564732062616c60008201527f616e636500000000000000000000000000000000000000000000000000000000602082015250565b6000612b8f602483611d92565b9150612b9a82612b33565b604082019050919050565b60006020820190508181036000830152612bbe81612b82565b9050919050565b7f455243313135353a206d696e7420746f20746865207a65726f2061646472657360008201527f7300000000000000000000000000000000000000000000000000000000000000602082015250565b6000612c21602183611d92565b9150612c2c82612bc5565b604082019050919050565b60006020820190508181036000830152612c5081612c14565b9050919050565b6000604082019050612c6c6000830185611c75565b612c796020830184611c75565b9392505050565b7f455243313135353a2073657474696e6720617070726f76616c2073746174757360008201527f20666f722073656c660000000000000000000000000000000000000000000000602082015250565b6000612cdc602983611d92565b9150612ce782612c80565b604082019050919050565b60006020820190508181036000830152612d0b81612ccf565b9050919050565b612d1b81611bc1565b82525050565b600081519050919050565b600082825260208201905092915050565b6000612d4882612d21565b612d528185612d2c565b9350612d62818560208601611da3565b612d6b81611dcd565b840191505092915050565b600060a082019050612d8b6000830188612d12565b612d986020830187612d12565b8181036040830152612daa81866122a0565b90508181036060830152612dbe81856122a0565b90508181036080830152612dd28184612d3d565b90509695505050505050565b600081519050612ded81611ccb565b92915050565b600060208284031215612e0957612e08611b97565b5b6000612e1784828501612dde565b91505092915050565b60008160e01c9050919050565b600060033d1115612e4c5760046000803e612e49600051612e20565b90505b90565b600060443d10612edc57612e61611b8d565b60043d036004823e80513d602482011167ffffffffffffffff82111715612e89575050612edc565b808201805167ffffffffffffffff811115612ea75750505050612edc565b80602083010160043d038501811115612ec4575050505050612edc565b612ed382602001850186611e6d565b82955050505050505b90565b7f455243313135353a207472616e7366657220746f206e6f6e2d4552433131353560008201527f526563656976657220696d706c656d656e746572000000000000000000000000602082015250565b6000612f3b603483611d92565b9150612f4682612edf565b604082019050919050565b60006020820190508181036000830152612f6a81612f2e565b9050919050565b7f455243313135353a204552433131353552656365697665722072656a6563746560008201527f6420746f6b656e73000000000000000000000000000000000000000000000000602082015250565b6000612fcd602883611d92565b9150612fd882612f71565b604082019050919050565b60006020820190508181036000830152612ffc81612fc0565b9050919050565b600060a0820190506130186000830188612d12565b6130256020830187612d12565b6130326040830186611c75565b61303f6060830185611c75565b81810360808301526130518184612d3d565b9050969550505050505056fea26469706673582212203d09f952b7a93fef781f9a2382fdbef4813266b3293b1e3b096aebad159791a964736f6c63430008110033",
  "linkReferences": {},
  "deployedLinkReferences": {}
}