{
  "_format": "hh-sol-artifact-1",
  "contractName": "ERC721EnumerableMock",
  "sourceName": "contracts/mocks/ERC721EnumerableMock.sol",
  "abi": [
    {
      "inputs": [
        {
          "internalType": "string",
          "name": "name",
          "type": "string"
        },
        {
          "internalType": "string",
          "name": "symbol",
          "type": "string"
        }
      ],
      "stateMutability": "nonpayable",
      "type": "constructor"
    },
    {
      "anonymous": false,
      "inputs": [
        {
          "indexed": true,
          "internalType": "address",
          "name": "owner",
          "type": "address"
        },
        {
          "indexed": true,
          "internalType": "address",
          "name": "approved",
          "type": "address"
        },
        {
          "indexed": true,
          "internalType": "uint256",
          "name": "tokenId",
          "type": "uint256"
        }
      ],
      "name": "Approval",
      "type": "event"
    },
    {
      "anonymous": false,
      "inputs": [
        {
          "indexed": true,
          "internalType": "address",
          "name": "owner",
          "type": "address"
        },
        {
          "indexed": true,
          "internalType": "address",
          "name": "operator",
          "type": "address"
        },
        {
          "indexed": false,
          "internalType": "bool",
          "name": "approved",
          "type": "bool"
        }
      ],
      "name": "ApprovalForAll",
      "type": "event"
    },
    {
      "anonymous": false,
      "inputs": [
        {
          "indexed": true,
          "internalType": "address",
          "name": "from",
          "type": "address"
        },
        {
          "indexed": true,
          "internalType": "address",
          "name": "to",
          "type": "address"
        },
        {
          "indexed": true,
          "internalType": "uint256",
          "name": "tokenId",
          "type": "uint256"
        }
      ],
      "name": "Transfer",
      "type": "event"
    },
    {
      "inputs": [
        {
          "internalType": "address",
          "name": "to",
          "type": "address"
        },
        {
          "internalType": "uint256",
          "name": "tokenId",
          "type": "uint256"
        }
      ],
      "name": "approve",
      "outputs": [],
      "stateMutability": "nonpayable",
      "type": "function"
    },
    {
      "inputs": [
        {
          "internalType": "address",
          "name": "owner",
          "type": "address"
        }
      ],
      "name": "balanceOf",
      "outputs": [
        {
          "internalType": "uint256",
          "name": "",
          "type": "uint256"
        }
      ],
      "stateMutability": "view",
      "type": "function"
    },
    {
      "inputs": [],
      "name": "baseURI",
      "outputs": [
        {
          "internalType": "string",
          "name": "",
          "type": "string"
        }
      ],
      "stateMutability": "view",
      "type": "function"
    },
    {
      "inputs": [
        {
          "internalType": "uint256",
          "name": "tokenId",
          "type": "uint256"
        }
      ],
      "name": "burn",
      "outputs": [],
      "stateMutability": "nonpayable",
      "type": "function"
    },
    {
      "inputs": [
        {
          "internalType": "uint256",
          "name": "tokenId",
          "type": "uint256"
        }
      ],
      "name": "exists",
      "outputs": [
        {
          "internalType": "bool",
          "name": "",
          "type": "bool"
        }
      ],
      "stateMutability": "view",
      "type": "function"
    },
    {
      "inputs": [
        {
          "internalType": "uint256",
          "name": "tokenId",
          "type": "uint256"
        }
      ],
      "name": "getApproved",
      "outputs": [
        {
          "internalType": "address",
          "name": "",
          "type": "address"
        }
      ],
      "stateMutability": "view",
      "type": "function"
    },
    {
      "inputs": [
        {
          "internalType": "address",
          "name": "owner",
          "type": "address"
        },
        {
          "internalType": "address",
          "name": "operator",
          "type": "address"
        }
      ],
      "name": "isApprovedForAll",
      "outputs": [
        {
          "internalType": "bool",
          "name": "",
          "type": "bool"
        }
      ],
      "stateMutability": "view",
      "type": "function"
    },
    {
      "inputs": [
        {
          "internalType": "address",
          "name": "to",
          "type": "address"
        },
        {
          "internalType": "uint256",
          "name": "tokenId",
          "type": "uint256"
        }
      ],
      "name": "mint",
      "outputs": [],
      "stateMutability": "nonpayable",
      "type": "function"
    },
    {
      "inputs": [],
      "name": "name",
      "outputs": [
        {
          "internalType": "string",
          "name": "",
          "type": "string"
        }
      ],
      "stateMutability": "view",
      "type": "function"
    },
    {
      "inputs": [
        {
          "internalType": "uint256",
          "name": "tokenId",
          "type": "uint256"
        }
      ],
      "name": "ownerOf",
      "outputs": [
        {
          "internalType": "address",
          "name": "",
          "type": "address"
        }
      ],
      "stateMutability": "view",
      "type": "function"
    },
    {
      "inputs": [
        {
          "internalType": "address",
          "name": "to",
          "type": "address"
        },
        {
          "internalType": "uint256",
          "name": "tokenId",
          "type": "uint256"
        },
        {
          "internalType": "bytes",
          "name": "_data",
          "type": "bytes"
        }
      ],
      "name": "safeMint",
      "outputs": [],
      "stateMutability": "nonpayable",
      "type": "function"
    },
    {
      "inputs": [
        {
          "internalType": "address",
          "name": "to",
          "type": "address"
        },
        {
          "internalType": "uint256",
          "name": "tokenId",
          "type": "uint256"
        }
      ],
      "name": "safeMint",
      "outputs": [],
      "stateMutability": "nonpayable",
      "type": "function"
    },
    {
      "inputs": [
        {
          "internalType": "address",
          "name": "from",
          "type": "address"
        },
        {
          "internalType": "address",
          "name": "to",
          "type": "address"
        },
        {
          "internalType": "uint256",
          "name": "tokenId",
          "type": "uint256"
        }
      ],
      "name": "safeTransferFrom",
      "outputs": [],
      "stateMutability": "nonpayable",
      "type": "function"
    },
    {
      "inputs": [
        {
          "internalType": "address",
          "name": "from",
          "type": "address"
        },
        {
          "internalType": "address",
          "name": "to",
          "type": "address"
        },
        {
          "internalType": "uint256",
          "name": "tokenId",
          "type": "uint256"
        },
        {
          "internalType": "bytes",
          "name": "data",
          "type": "bytes"
        }
      ],
      "name": "safeTransferFrom",
      "outputs": [],
      "stateMutability": "nonpayable",
      "type": "function"
    },
    {
      "inputs": [
        {
          "internalType": "address",
          "name": "operator",
          "type": "address"
        },
        {
          "internalType": "bool",
          "name": "approved",
          "type": "bool"
        }
      ],
      "name": "setApprovalForAll",
      "outputs": [],
      "stateMutability": "nonpayable",
      "type": "function"
    },
    {
      "inputs": [
        {
          "internalType": "string",
          "name": "newBaseTokenURI",
          "type": "string"
        }
      ],
      "name": "setBaseURI",
      "outputs": [],
      "stateMutability": "nonpayable",
      "type": "function"
    },
    {
      "inputs": [
        {
          "internalType": "bytes4",
          "name": "interfaceId",
          "type": "bytes4"
        }
      ],
      "name": "supportsInterface",
      "outputs": [
        {
          "internalType": "bool",
          "name": "",
          "type": "bool"
        }
      ],
      "stateMutability": "view",
      "type": "function"
    },
    {
      "inputs": [],
      "name": "symbol",
      "outputs": [
        {
          "internalType": "string",
          "name": "",
          "type": "string"
        }
      ],
      "stateMutability": "view",
      "type": "function"
    },
    {
      "inputs": [
        {
          "internalType": "uint256",
          "name": "index",
          "type": "uint256"
        }
      ],
      "name": "tokenByIndex",
      "outputs": [
        {
          "internalType": "uint256",
          "name": "",
          "type": "uint256"
        }
      ],
      "stateMutability": "view",
      "type": "function"
    },
    {
      "inputs": [
        {
          "internalType": "address",
          "name": "owner",
          "type": "address"
        },
        {
          "internalType": "uint256",
          "name": "index",
          "type": "uint256"
        }
      ],
      "name": "tokenOfOwnerByIndex",
      "outputs": [
        {
          "internalType": "uint256",
          "name": "",
          "type": "uint256"
        }
      ],
      "stateMutability": "view",
      "type": "function"
    },
    {
      "inputs": [
        {
          "internalType": "uint256",
          "name": "tokenId",
          "type": "uint256"
        }
      ],
      "name": "tokenURI",
      "outputs": [
        {
          "internalType": "string",
          "name": "",
          "type": "string"
        }
      ],
      "stateMutability": "view",
      "type": "function"
    },
    {
      "inputs": [],
      "name": "totalSupply",
      "outputs": [
        {
          "internalType": "uint256",
          "name": "",
          "type": "uint256"
        }
      ],
      "stateMutability": "view",
      "type": "function"
    },
    {
      "inputs": [
        {
          "internalType": "address",
          "name": "from",
          "type": "address"
        },
        {
          "internalType": "address",
          "name": "to",
          "type": "address"
        },
        {
          "internalType": "uint256",
          "name": "tokenId",
          "type": "uint256"
        }
      ],
      "name": "transferFrom",
      "outputs": [],
      "stateMutability": "nonpayable",
      "type": "function"
    }
  ],
  "bytecode": "0x60806040523480156200001157600080fd5b506040516200398c3803806200398c8339818101604052810190620000379190620001fa565b818181600090816200004a9190620004ca565b5080600190816200005c9190620004ca565b5050505050620005b1565b6000604051905090565b600080fd5b600080fd5b600080fd5b600080fd5b6000601f19601f8301169050919050565b7f4e487b7100000000000000000000000000000000000000000000000000000000600052604160045260246000fd5b620000d08262000085565b810181811067ffffffffffffffff82111715620000f257620000f162000096565b5b80604052505050565b60006200010762000067565b9050620001158282620000c5565b919050565b600067ffffffffffffffff82111562000138576200013762000096565b5b620001438262000085565b9050602081019050919050565b60005b838110156200017057808201518184015260208101905062000153565b60008484015250505050565b6000620001936200018d846200011a565b620000fb565b905082815260208101848484011115620001b257620001b162000080565b5b620001bf84828562000150565b509392505050565b600082601f830112620001df57620001de6200007b565b5b8151620001f18482602086016200017c565b91505092915050565b6000806040838503121562000214576200021362000071565b5b600083015167ffffffffffffffff81111562000235576200023462000076565b5b6200024385828601620001c7565b925050602083015167ffffffffffffffff81111562000267576200026662000076565b5b6200027585828601620001c7565b9150509250929050565b600081519050919050565b7f4e487b7100000000000000000000000000000000000000000000000000000000600052602260045260246000fd5b60006002820490506001821680620002d257607f821691505b602082108103620002e857620002e76200028a565b5b50919050565b60008190508160005260206000209050919050565b60006020601f8301049050919050565b600082821b905092915050565b600060088302620003527fffffffffffffffffffffffffffffffffffffffffffffffffffffffffffffffff8262000313565b6200035e868362000313565b95508019841693508086168417925050509392505050565b6000819050919050565b6000819050919050565b6000620003ab620003a56200039f8462000376565b62000380565b62000376565b9050919050565b6000819050919050565b620003c7836200038a565b620003df620003d682620003b2565b84845462000320565b825550505050565b600090565b620003f6620003e7565b62000403818484620003bc565b505050565b5b818110156200042b576200041f600082620003ec565b60018101905062000409565b5050565b601f8211156200047a576200044481620002ee565b6200044f8462000303565b810160208510156200045f578190505b620004776200046e8562000303565b83018262000408565b50505b505050565b600082821c905092915050565b60006200049f600019846008026200047f565b1980831691505092915050565b6000620004ba83836200048c565b9150826002028217905092915050565b620004d5826200027f565b67ffffffffffffffff811115620004f157620004f062000096565b5b620004fd8254620002b9565b6200050a8282856200042f565b600060209050601f8311600181146200054257600084156200052d578287015190505b620005398582620004ac565b865550620005a9565b601f1984166200055286620002ee565b60005b828110156200057c5784890151825560018201915060208501945060208101905062000555565b868310156200059c578489015162000598601f8916826200048c565b8355505b6001600288020188555050505b505050505050565b6133cb80620005c16000396000f3fe608060405234801561001057600080fd5b506004361061014d5760003560e01c80634f6ccce7116100c357806395d89b411161007c57806395d89b41146103c0578063a1448194146103de578063a22cb465146103fa578063b88d4fde14610416578063c87b56dd14610432578063e985e9c5146104625761014d565b80634f6ccce7146102da57806355f804b31461030a5780636352211e146103265780636c0360eb1461035657806370a08231146103745780638832e6e3146103a45761014d565b806323b872dd1161011557806323b872dd1461020a5780632f745c591461022657806340c10f191461025657806342842e0e1461027257806342966c681461028e5780634f558e79146102aa5761014d565b806301ffc9a71461015257806306fdde0314610182578063081812fc146101a0578063095ea7b3146101d057806318160ddd146101ec575b600080fd5b61016c6004803603810190610167919061213f565b610492565b6040516101799190612187565b60405180910390f35b61018a61050c565b6040516101979190612232565b60405180910390f35b6101ba60048036038101906101b5919061228a565b61059e565b6040516101c791906122f8565b60405180910390f35b6101ea60048036038101906101e5919061233f565b6105e4565b005b6101f46106fb565b604051610201919061238e565b60405180910390f35b610224600480360381019061021f91906123a9565b610708565b005b610240600480360381019061023b919061233f565b610768565b60405161024d919061238e565b60405180910390f35b610270600480360381019061026b919061233f565b61080d565b005b61028c600480360381019061028791906123a9565b61081b565b005b6102a860048036038101906102a3919061228a565b61083b565b005b6102c460048036038101906102bf919061228a565b610847565b6040516102d19190612187565b60405180910390f35b6102f460048036038101906102ef919061228a565b610859565b604051610301919061238e565b60405180910390f35b610324600480360381019061031f9190612461565b6108ca565b005b610340600480360381019061033b919061228a565b6108e0565b60405161034d91906122f8565b60405180910390f35b61035e610966565b60405161036b9190612232565b60405180910390f35b61038e600480360381019061038991906124ae565b610975565b60405161039b919061238e565b60405180910390f35b6103be60048036038101906103b9919061260b565b610a2c565b005b6103c8610a3c565b6040516103d59190612232565b60405180910390f35b6103f860048036038101906103f3919061233f565b610ace565b005b610414600480360381019061040f91906126a6565b610adc565b005b610430600480360381019061042b91906126e6565b610af2565b005b61044c6004803603810190610447919061228a565b610b54565b6040516104599190612232565b60405180910390f35b61047c60048036038101906104779190612769565b610bbc565b6040516104899190612187565b60405180910390f35b60007f780e9d63000000000000000000000000000000000000000000000000000000007bffffffffffffffffffffffffffffffffffffffffffffffffffffffff1916827bffffffffffffffffffffffffffffffffffffffffffffffffffffffff19161480610505575061050482610c50565b5b9050919050565b60606000805461051b906127d8565b80601f0160208091040260200160405190810160405280929190818152602001828054610547906127d8565b80156105945780601f1061056957610100808354040283529160200191610594565b820191906000526020600020905b81548152906001019060200180831161057757829003601f168201915b5050505050905090565b60006105a982610d32565b6004600083815260200190815260200160002060009054906101000a900473ffffffffffffffffffffffffffffffffffffffff169050919050565b60006105ef826108e0565b90508073ffffffffffffffffffffffffffffffffffffffff168373ffffffffffffffffffffffffffffffffffffffff160361065f576040517f08c379a00000000000000000000000000000000000000000000000000000000081526004016106569061287b565b60405180910390fd5b8073ffffffffffffffffffffffffffffffffffffffff1661067e610d7d565b73ffffffffffffffffffffffffffffffffffffffff1614806106ad57506106ac816106a7610d7d565b610bbc565b5b6106ec576040517f08c379a00000000000000000000000000000000000000000000000000000000081526004016106e39061290d565b60405180910390fd5b6106f68383610d85565b505050565b6000600880549050905090565b610719610713610d7d565b82610e3e565b610758576040517f08c379a000000000000000000000000000000000000000000000000000000000815260040161074f9061299f565b60405180910390fd5b610763838383610ed3565b505050565b600061077383610975565b82106107b4576040517f08c379a00000000000000000000000000000000000000000000000000000000081526004016107ab90612a31565b60405180910390fd5b600660008473ffffffffffffffffffffffffffffffffffffffff1673ffffffffffffffffffffffffffffffffffffffff168152602001908152602001600020600083815260200190815260200160002054905092915050565b61081782826111c8565b5050565b61083683838360405180602001604052806000815250610af2565b505050565b610844816113e1565b50565b60006108528261152b565b9050919050565b60006108636106fb565b82106108a4576040517f08c379a000000000000000000000000000000000000000000000000000000000815260040161089b90612ac3565b60405180910390fd5b600882815481106108b8576108b7612ae3565b5b90600052602060002001549050919050565b8181600a91826108db929190612cc9565b505050565b6000806108ec8361156c565b9050600073ffffffffffffffffffffffffffffffffffffffff168173ffffffffffffffffffffffffffffffffffffffff160361095d576040517f08c379a000000000000000000000000000000000000000000000000000000000815260040161095490612de5565b60405180910390fd5b80915050919050565b60606109706115a9565b905090565b60008073ffffffffffffffffffffffffffffffffffffffff168273ffffffffffffffffffffffffffffffffffffffff16036109e5576040517f08c379a00000000000000000000000000000000000000000000000000000000081526004016109dc90612e77565b60405180910390fd5b600360008373ffffffffffffffffffffffffffffffffffffffff1673ffffffffffffffffffffffffffffffffffffffff168152602001908152602001600020549050919050565b610a3783838361163b565b505050565b606060018054610a4b906127d8565b80601f0160208091040260200160405190810160405280929190818152602001828054610a77906127d8565b8015610ac45780601f10610a9957610100808354040283529160200191610ac4565b820191906000526020600020905b815481529060010190602001808311610aa757829003601f168201915b5050505050905090565b610ad88282611696565b5050565b610aee610ae7610d7d565b83836116b4565b5050565b610b03610afd610d7d565b83610e3e565b610b42576040517f08c379a0000000000000000000000000000000000000000000000000000000008152600401610b399061299f565b60405180910390fd5b610b4e84848484611820565b50505050565b6060610b5f82610d32565b6000610b696115a9565b90506000815111610b895760405180602001604052806000815250610bb4565b80610b938461187c565b604051602001610ba4929190612ed3565b6040516020818303038152906040525b915050919050565b6000600560008473ffffffffffffffffffffffffffffffffffffffff1673ffffffffffffffffffffffffffffffffffffffff16815260200190815260200160002060008373ffffffffffffffffffffffffffffffffffffffff1673ffffffffffffffffffffffffffffffffffffffff16815260200190815260200160002060009054906101000a900460ff16905092915050565b60007f80ac58cd000000000000000000000000000000000000000000000000000000007bffffffffffffffffffffffffffffffffffffffffffffffffffffffff1916827bffffffffffffffffffffffffffffffffffffffffffffffffffffffff19161480610d1b57507f5b5e139f000000000000000000000000000000000000000000000000000000007bffffffffffffffffffffffffffffffffffffffffffffffffffffffff1916827bffffffffffffffffffffffffffffffffffffffffffffffffffffffff1916145b80610d2b5750610d2a8261194a565b5b9050919050565b610d3b8161152b565b610d7a576040517f08c379a0000000000000000000000000000000000000000000000000000000008152600401610d7190612de5565b60405180910390fd5b50565b600033905090565b816004600083815260200190815260200160002060006101000a81548173ffffffffffffffffffffffffffffffffffffffff021916908373ffffffffffffffffffffffffffffffffffffffff160217905550808273ffffffffffffffffffffffffffffffffffffffff16610df8836108e0565b73ffffffffffffffffffffffffffffffffffffffff167f8c5be1e5ebec7d5bd14f71427d1e84f3dd0314c0f7b2291e5b200ac8c7c3b92560405160405180910390a45050565b600080610e4a836108e0565b90508073ffffffffffffffffffffffffffffffffffffffff168473ffffffffffffffffffffffffffffffffffffffff161480610e8c5750610e8b8185610bbc565b5b80610eca57508373ffffffffffffffffffffffffffffffffffffffff16610eb28461059e565b73ffffffffffffffffffffffffffffffffffffffff16145b91505092915050565b8273ffffffffffffffffffffffffffffffffffffffff16610ef3826108e0565b73ffffffffffffffffffffffffffffffffffffffff1614610f49576040517f08c379a0000000000000000000000000000000000000000000000000000000008152600401610f4090612f69565b60405180910390fd5b600073ffffffffffffffffffffffffffffffffffffffff168273ffffffffffffffffffffffffffffffffffffffff1603610fb8576040517f08c379a0000000000000000000000000000000000000000000000000000000008152600401610faf90612ffb565b60405180910390fd5b610fc38383836119b4565b8273ffffffffffffffffffffffffffffffffffffffff16610fe3826108e0565b73ffffffffffffffffffffffffffffffffffffffff1614611039576040517f08c379a000000000000000000000000000000000000000000000000000000000815260040161103090612f69565b60405180910390fd5b6004600082815260200190815260200160002060006101000a81549073ffffffffffffffffffffffffffffffffffffffff02191690556001600360008573ffffffffffffffffffffffffffffffffffffffff1673ffffffffffffffffffffffffffffffffffffffff168152602001908152602001600020600082825403925050819055506001600360008473ffffffffffffffffffffffffffffffffffffffff1673ffffffffffffffffffffffffffffffffffffffff16815260200190815260200160002060008282540192505081905550816002600083815260200190815260200160002060006101000a81548173ffffffffffffffffffffffffffffffffffffffff021916908373ffffffffffffffffffffffffffffffffffffffff160217905550808273ffffffffffffffffffffffffffffffffffffffff168473ffffffffffffffffffffffffffffffffffffffff167fddf252ad1be2c89b69c2b068fc378daa952ba7f163c4a11628f55a4df523b3ef60405160405180910390a46111c3838383611ac6565b505050565b600073ffffffffffffffffffffffffffffffffffffffff168273ffffffffffffffffffffffffffffffffffffffff1603611237576040517f08c379a000000000000000000000000000000000000000000000000000000000815260040161122e90613067565b60405180910390fd5b6112408161152b565b15611280576040517f08c379a0000000000000000000000000000000000000000000000000000000008152600401611277906130d3565b60405180910390fd5b61128c600083836119b4565b6112958161152b565b156112d5576040517f08c379a00000000000000000000000000000000000000000000000000000000081526004016112cc906130d3565b60405180910390fd5b6001600360008473ffffffffffffffffffffffffffffffffffffffff1673ffffffffffffffffffffffffffffffffffffffff16815260200190815260200160002060008282540192505081905550816002600083815260200190815260200160002060006101000a81548173ffffffffffffffffffffffffffffffffffffffff021916908373ffffffffffffffffffffffffffffffffffffffff160217905550808273ffffffffffffffffffffffffffffffffffffffff16600073ffffffffffffffffffffffffffffffffffffffff167fddf252ad1be2c89b69c2b068fc378daa952ba7f163c4a11628f55a4df523b3ef60405160405180910390a46113dd60008383611ac6565b5050565b60006113ec826108e0565b90506113fa816000846119b4565b611403826108e0565b90506004600083815260200190815260200160002060006101000a81549073ffffffffffffffffffffffffffffffffffffffff02191690556001600360008373ffffffffffffffffffffffffffffffffffffffff1673ffffffffffffffffffffffffffffffffffffffff168152602001908152602001600020600082825403925050819055506002600083815260200190815260200160002060006101000a81549073ffffffffffffffffffffffffffffffffffffffff021916905581600073ffffffffffffffffffffffffffffffffffffffff168273ffffffffffffffffffffffffffffffffffffffff167fddf252ad1be2c89b69c2b068fc378daa952ba7f163c4a11628f55a4df523b3ef60405160405180910390a461152781600084611ac6565b5050565b60008073ffffffffffffffffffffffffffffffffffffffff1661154d8361156c565b73ffffffffffffffffffffffffffffffffffffffff1614159050919050565b60006002600083815260200190815260200160002060009054906101000a900473ffffffffffffffffffffffffffffffffffffffff169050919050565b6060600a80546115b8906127d8565b80601f01602080910402602001604051908101604052809291908181526020018280546115e4906127d8565b80156116315780601f1061160657610100808354040283529160200191611631565b820191906000526020600020905b81548152906001019060200180831161161457829003601f168201915b5050505050905090565b61164583836111c8565b6116526000848484611acb565b611691576040517f08c379a000000000000000000000000000000000000000000000000000000000815260040161168890613165565b60405180910390fd5b505050565b6116b082826040518060200160405280600081525061163b565b5050565b8173ffffffffffffffffffffffffffffffffffffffff168373ffffffffffffffffffffffffffffffffffffffff1603611722576040517f08c379a0000000000000000000000000000000000000000000000000000000008152600401611719906131d1565b60405180910390fd5b80600560008573ffffffffffffffffffffffffffffffffffffffff1673ffffffffffffffffffffffffffffffffffffffff16815260200190815260200160002060008473ffffffffffffffffffffffffffffffffffffffff1673ffffffffffffffffffffffffffffffffffffffff16815260200190815260200160002060006101000a81548160ff0219169083151502179055508173ffffffffffffffffffffffffffffffffffffffff168373ffffffffffffffffffffffffffffffffffffffff167f17307eab39ab6107e8899845ad3d59bd9653f200f220920489ca2b5937696c31836040516118139190612187565b60405180910390a3505050565b61182b848484610ed3565b61183784848484611acb565b611876576040517f08c379a000000000000000000000000000000000000000000000000000000000815260040161186d90613165565b60405180910390fd5b50505050565b60606000600161188b84611c52565b01905060008167ffffffffffffffff8111156118aa576118a96124e0565b5b6040519080825280601f01601f1916602001820160405280156118dc5781602001600182028036833780820191505090505b509050600082602001820190505b60011561193f578080600190039150507f3031323334353637383961626364656600000000000000000000000000000000600a86061a8153600a8581611933576119326131f1565b5b049450600085036118ea575b819350505050919050565b60007f01ffc9a7000000000000000000000000000000000000000000000000000000007bffffffffffffffffffffffffffffffffffffffffffffffffffffffff1916827bffffffffffffffffffffffffffffffffffffffffffffffffffffffff1916149050919050565b6119bf838383611da5565b600073ffffffffffffffffffffffffffffffffffffffff168373ffffffffffffffffffffffffffffffffffffffff1603611a01576119fc81611daa565b611a40565b8173ffffffffffffffffffffffffffffffffffffffff168373ffffffffffffffffffffffffffffffffffffffff1614611a3f57611a3e8382611df3565b5b5b600073ffffffffffffffffffffffffffffffffffffffff168273ffffffffffffffffffffffffffffffffffffffff1603611a8257611a7d81611f60565b611ac1565b8273ffffffffffffffffffffffffffffffffffffffff168273ffffffffffffffffffffffffffffffffffffffff1614611ac057611abf8282612031565b5b5b505050565b505050565b6000611aec8473ffffffffffffffffffffffffffffffffffffffff166120b0565b15611c45578373ffffffffffffffffffffffffffffffffffffffff1663150b7a02611b15610d7d565b8786866040518563ffffffff1660e01b8152600401611b379493929190613275565b6020604051808303816000875af1925050508015611b7357506040513d601f19601f82011682018060405250810190611b7091906132d6565b60015b611bf5573d8060008114611ba3576040519150601f19603f3d011682016040523d82523d6000602084013e611ba8565b606091505b506000815103611bed576040517f08c379a0000000000000000000000000000000000000000000000000000000008152600401611be490613165565b60405180910390fd5b805181602001fd5b63150b7a0260e01b7bffffffffffffffffffffffffffffffffffffffffffffffffffffffff1916817bffffffffffffffffffffffffffffffffffffffffffffffffffffffff191614915050611c4a565b600190505b949350505050565b600080600090507a184f03e93ff9f4daa797ed6e38ed64bf6a1f0100000000000000008310611cb0577a184f03e93ff9f4daa797ed6e38ed64bf6a1f0100000000000000008381611ca657611ca56131f1565b5b0492506040810190505b6d04ee2d6d415b85acef81000000008310611ced576d04ee2d6d415b85acef81000000008381611ce357611ce26131f1565b5b0492506020810190505b662386f26fc100008310611d1c57662386f26fc100008381611d1257611d116131f1565b5b0492506010810190505b6305f5e1008310611d45576305f5e1008381611d3b57611d3a6131f1565b5b0492506008810190505b6127108310611d6a576127108381611d6057611d5f6131f1565b5b0492506004810190505b60648310611d8d5760648381611d8357611d826131f1565b5b0492506002810190505b600a8310611d9c576001810190505b80915050919050565b505050565b6008805490506009600083815260200190815260200160002081905550600881908060018154018082558091505060019003906000526020600020016000909190919091505550565b60006001611e0084610975565b611e0a9190613332565b9050600060076000848152602001908152602001600020549050818114611eef576000600660008673ffffffffffffffffffffffffffffffffffffffff1673ffffffffffffffffffffffffffffffffffffffff168152602001908152602001600020600084815260200190815260200160002054905080600660008773ffffffffffffffffffffffffffffffffffffffff1673ffffffffffffffffffffffffffffffffffffffff168152602001908152602001600020600084815260200190815260200160002081905550816007600083815260200190815260200160002081905550505b6007600084815260200190815260200160002060009055600660008573ffffffffffffffffffffffffffffffffffffffff1673ffffffffffffffffffffffffffffffffffffffff16815260200190815260200160002060008381526020019081526020016000206000905550505050565b60006001600880549050611f749190613332565b9050600060096000848152602001908152602001600020549050600060088381548110611fa457611fa3612ae3565b5b906000526020600020015490508060088381548110611fc657611fc5612ae3565b5b90600052602060002001819055508160096000838152602001908152602001600020819055506009600085815260200190815260200160002060009055600880548061201557612014613366565b5b6001900381819060005260206000200160009055905550505050565b600061203c83610975565b905081600660008573ffffffffffffffffffffffffffffffffffffffff1673ffffffffffffffffffffffffffffffffffffffff168152602001908152602001600020600083815260200190815260200160002081905550806007600084815260200190815260200160002081905550505050565b6000808273ffffffffffffffffffffffffffffffffffffffff163b119050919050565b6000604051905090565b600080fd5b600080fd5b60007fffffffff0000000000000000000000000000000000000000000000000000000082169050919050565b61211c816120e7565b811461212757600080fd5b50565b60008135905061213981612113565b92915050565b600060208284031215612155576121546120dd565b5b60006121638482850161212a565b91505092915050565b60008115159050919050565b6121818161216c565b82525050565b600060208201905061219c6000830184612178565b92915050565b600081519050919050565b600082825260208201905092915050565b60005b838110156121dc5780820151818401526020810190506121c1565b60008484015250505050565b6000601f19601f8301169050919050565b6000612204826121a2565b61220e81856121ad565b935061221e8185602086016121be565b612227816121e8565b840191505092915050565b6000602082019050818103600083015261224c81846121f9565b905092915050565b6000819050919050565b61226781612254565b811461227257600080fd5b50565b6000813590506122848161225e565b92915050565b6000602082840312156122a05761229f6120dd565b5b60006122ae84828501612275565b91505092915050565b600073ffffffffffffffffffffffffffffffffffffffff82169050919050565b60006122e2826122b7565b9050919050565b6122f2816122d7565b82525050565b600060208201905061230d60008301846122e9565b92915050565b61231c816122d7565b811461232757600080fd5b50565b60008135905061233981612313565b92915050565b60008060408385031215612356576123556120dd565b5b60006123648582860161232a565b925050602061237585828601612275565b9150509250929050565b61238881612254565b82525050565b60006020820190506123a3600083018461237f565b92915050565b6000806000606084860312156123c2576123c16120dd565b5b60006123d08682870161232a565b93505060206123e18682870161232a565b92505060406123f286828701612275565b9150509250925092565b600080fd5b600080fd5b600080fd5b60008083601f840112612421576124206123fc565b5b8235905067ffffffffffffffff81111561243e5761243d612401565b5b60208301915083600182028301111561245a57612459612406565b5b9250929050565b60008060208385031215612478576124776120dd565b5b600083013567ffffffffffffffff811115612496576124956120e2565b5b6124a28582860161240b565b92509250509250929050565b6000602082840312156124c4576124c36120dd565b5b60006124d28482850161232a565b91505092915050565b600080fd5b7f4e487b7100000000000000000000000000000000000000000000000000000000600052604160045260246000fd5b612518826121e8565b810181811067ffffffffffffffff82111715612537576125366124e0565b5b80604052505050565b600061254a6120d3565b9050612556828261250f565b919050565b600067ffffffffffffffff821115612576576125756124e0565b5b61257f826121e8565b9050602081019050919050565b82818337600083830152505050565b60006125ae6125a98461255b565b612540565b9050828152602081018484840111156125ca576125c96124db565b5b6125d584828561258c565b509392505050565b600082601f8301126125f2576125f16123fc565b5b813561260284826020860161259b565b91505092915050565b600080600060608486031215612624576126236120dd565b5b60006126328682870161232a565b935050602061264386828701612275565b925050604084013567ffffffffffffffff811115612664576126636120e2565b5b612670868287016125dd565b9150509250925092565b6126838161216c565b811461268e57600080fd5b50565b6000813590506126a08161267a565b92915050565b600080604083850312156126bd576126bc6120dd565b5b60006126cb8582860161232a565b92505060206126dc85828601612691565b9150509250929050565b60008060008060808587031215612700576126ff6120dd565b5b600061270e8782880161232a565b945050602061271f8782880161232a565b935050604061273087828801612275565b925050606085013567ffffffffffffffff811115612751576127506120e2565b5b61275d878288016125dd565b91505092959194509250565b600080604083850312156127805761277f6120dd565b5b600061278e8582860161232a565b925050602061279f8582860161232a565b9150509250929050565b7f4e487b7100000000000000000000000000000000000000000000000000000000600052602260045260246000fd5b600060028204905060018216806127f057607f821691505b602082108103612803576128026127a9565b5b50919050565b7f4552433732313a20617070726f76616c20746f2063757272656e74206f776e6560008201527f7200000000000000000000000000000000000000000000000000000000000000602082015250565b60006128656021836121ad565b915061287082612809565b604082019050919050565b6000602082019050818103600083015261289481612858565b9050919050565b7f4552433732313a20617070726f76652063616c6c6572206973206e6f7420746f60008201527f6b656e206f776e6572206f7220617070726f76656420666f7220616c6c000000602082015250565b60006128f7603d836121ad565b91506129028261289b565b604082019050919050565b60006020820190508181036000830152612926816128ea565b9050919050565b7f4552433732313a2063616c6c6572206973206e6f7420746f6b656e206f776e6560008201527f72206f7220617070726f76656400000000000000000000000000000000000000602082015250565b6000612989602d836121ad565b91506129948261292d565b604082019050919050565b600060208201905081810360008301526129b88161297c565b9050919050565b7f455243373231456e756d657261626c653a206f776e657220696e646578206f7560008201527f74206f6620626f756e6473000000000000000000000000000000000000000000602082015250565b6000612a1b602b836121ad565b9150612a26826129bf565b604082019050919050565b60006020820190508181036000830152612a4a81612a0e565b9050919050565b7f455243373231456e756d657261626c653a20676c6f62616c20696e646578206f60008201527f7574206f6620626f756e64730000000000000000000000000000000000000000602082015250565b6000612aad602c836121ad565b9150612ab882612a51565b604082019050919050565b60006020820190508181036000830152612adc81612aa0565b9050919050565b7f4e487b7100000000000000000000000000000000000000000000000000000000600052603260045260246000fd5b600082905092915050565b60008190508160005260206000209050919050565b60006020601f8301049050919050565b600082821b905092915050565b600060088302612b7f7fffffffffffffffffffffffffffffffffffffffffffffffffffffffffffffffff82612b42565b612b898683612b42565b95508019841693508086168417925050509392505050565b6000819050919050565b6000612bc6612bc1612bbc84612254565b612ba1565b612254565b9050919050565b6000819050919050565b612be083612bab565b612bf4612bec82612bcd565b848454612b4f565b825550505050565b600090565b612c09612bfc565b612c14818484612bd7565b505050565b5b81811015612c3857612c2d600082612c01565b600181019050612c1a565b5050565b601f821115612c7d57612c4e81612b1d565b612c5784612b32565b81016020851015612c66578190505b612c7a612c7285612b32565b830182612c19565b50505b505050565b600082821c905092915050565b6000612ca060001984600802612c82565b1980831691505092915050565b6000612cb98383612c8f565b9150826002028217905092915050565b612cd38383612b12565b67ffffffffffffffff811115612cec57612ceb6124e0565b5b612cf682546127d8565b612d01828285612c3c565b6000601f831160018114612d305760008415612d1e578287013590505b612d288582612cad565b865550612d90565b601f198416612d3e86612b1d565b60005b82811015612d6657848901358255600182019150602085019450602081019050612d41565b86831015612d835784890135612d7f601f891682612c8f565b8355505b6001600288020188555050505b50505050505050565b7f4552433732313a20696e76616c696420746f6b656e2049440000000000000000600082015250565b6000612dcf6018836121ad565b9150612dda82612d99565b602082019050919050565b60006020820190508181036000830152612dfe81612dc2565b9050919050565b7f4552433732313a2061646472657373207a65726f206973206e6f74206120766160008201527f6c6964206f776e65720000000000000000000000000000000000000000000000602082015250565b6000612e616029836121ad565b9150612e6c82612e05565b604082019050919050565b60006020820190508181036000830152612e9081612e54565b9050919050565b600081905092915050565b6000612ead826121a2565b612eb78185612e97565b9350612ec78185602086016121be565b80840191505092915050565b6000612edf8285612ea2565b9150612eeb8284612ea2565b91508190509392505050565b7f4552433732313a207472616e736665722066726f6d20696e636f72726563742060008201527f6f776e6572000000000000000000000000000000000000000000000000000000602082015250565b6000612f536025836121ad565b9150612f5e82612ef7565b604082019050919050565b60006020820190508181036000830152612f8281612f46565b9050919050565b7f4552433732313a207472616e7366657220746f20746865207a65726f2061646460008201527f7265737300000000000000000000000000000000000000000000000000000000602082015250565b6000612fe56024836121ad565b9150612ff082612f89565b604082019050919050565b6000602082019050818103600083015261301481612fd8565b9050919050565b7f4552433732313a206d696e7420746f20746865207a65726f2061646472657373600082015250565b60006130516020836121ad565b915061305c8261301b565b602082019050919050565b6000602082019050818103600083015261308081613044565b9050919050565b7f4552433732313a20746f6b656e20616c7265616479206d696e74656400000000600082015250565b60006130bd601c836121ad565b91506130c882613087565b602082019050919050565b600060208201905081810360008301526130ec816130b0565b9050919050565b7f4552433732313a207472616e7366657220746f206e6f6e20455243373231526560008201527f63656976657220696d706c656d656e7465720000000000000000000000000000602082015250565b600061314f6032836121ad565b915061315a826130f3565b604082019050919050565b6000602082019050818103600083015261317e81613142565b9050919050565b7f4552433732313a20617070726f766520746f2063616c6c657200000000000000600082015250565b60006131bb6019836121ad565b91506131c682613185565b602082019050919050565b600060208201905081810360008301526131ea816131ae565b9050919050565b7f4e487b7100000000000000000000000000000000000000000000000000000000600052601260045260246000fd5b600081519050919050565b600082825260208201905092915050565b600061324782613220565b613251818561322b565b93506132618185602086016121be565b61326a816121e8565b840191505092915050565b600060808201905061328a60008301876122e9565b61329760208301866122e9565b6132a4604083018561237f565b81810360608301526132b6818461323c565b905095945050505050565b6000815190506132d081612113565b92915050565b6000602082840312156132ec576132eb6120dd565b5b60006132fa848285016132c1565b91505092915050565b7f4e487b7100000000000000000000000000000000000000000000000000000000600052601160045260246000fd5b600061333d82612254565b915061334883612254565b92508282039050818111156133605761335f613303565b5b92915050565b7f4e487b7100000000000000000000000000000000000000000000000000000000600052603160045260246000fdfea2646970667358221220db8334f84c872aa248436963fc07c243a4c19fac3343cd8ac6ae5ce43f9304db64736f6c63430008110033",
  "linkReferences": {},
  "deployedLinkReferences": {}
}