{
  "_format": "hh-sol-artifact-1",
  "contractName": "MyGovernor1",
  "sourceName": "contracts/mocks/wizard/MyGovernor1.sol",
  "abi": [
    {
      "inputs": [
        {
          "internalType": "contract IVotes",
          "name": "_token",
          "type": "address"
        },
        {
          "internalType": "contract TimelockController",
          "name": "_timelock",
          "type": "address"
        }
      ],
      "stateMutability": "nonpayable",
      "type": "constructor"
    },
    {
      "inputs": [],
      "name": "Empty",
      "type": "error"
    },
    {
      "anonymous": false,
      "inputs": [
        {
          "indexed": false,
          "internalType": "uint256",
          "name": "proposalId",
          "type": "uint256"
        }
      ],
      "name": "ProposalCanceled",
      "type": "event"
    },
    {
      "anonymous": false,
      "inputs": [
        {
          "indexed": false,
          "internalType": "uint256",
          "name": "proposalId",
          "type": "uint256"
        },
        {
          "indexed": false,
          "internalType": "address",
          "name": "proposer",
          "type": "address"
        },
        {
          "indexed": false,
          "internalType": "address[]",
          "name": "targets",
          "type": "address[]"
        },
        {
          "indexed": false,
          "internalType": "uint256[]",
          "name": "values",
          "type": "uint256[]"
        },
        {
          "indexed": false,
          "internalType": "string[]",
          "name": "signatures",
          "type": "string[]"
        },
        {
          "indexed": false,
          "internalType": "bytes[]",
          "name": "calldatas",
          "type": "bytes[]"
        },
        {
          "indexed": false,
          "internalType": "uint256",
          "name": "startBlock",
          "type": "uint256"
        },
        {
          "indexed": false,
          "internalType": "uint256",
          "name": "endBlock",
          "type": "uint256"
        },
        {
          "indexed": false,
          "internalType": "string",
          "name": "description",
          "type": "string"
        }
      ],
      "name": "ProposalCreated",
      "type": "event"
    },
    {
      "anonymous": false,
      "inputs": [
        {
          "indexed": false,
          "internalType": "uint256",
          "name": "proposalId",
          "type": "uint256"
        }
      ],
      "name": "ProposalExecuted",
      "type": "event"
    },
    {
      "anonymous": false,
      "inputs": [
        {
          "indexed": false,
          "internalType": "uint256",
          "name": "proposalId",
          "type": "uint256"
        },
        {
          "indexed": false,
          "internalType": "uint256",
          "name": "eta",
          "type": "uint256"
        }
      ],
      "name": "ProposalQueued",
      "type": "event"
    },
    {
      "anonymous": false,
      "inputs": [
        {
          "indexed": false,
          "internalType": "uint256",
          "name": "oldQuorumNumerator",
          "type": "uint256"
        },
        {
          "indexed": false,
          "internalType": "uint256",
          "name": "newQuorumNumerator",
          "type": "uint256"
        }
      ],
      "name": "QuorumNumeratorUpdated",
      "type": "event"
    },
    {
      "anonymous": false,
      "inputs": [
        {
          "indexed": false,
          "internalType": "address",
          "name": "oldTimelock",
          "type": "address"
        },
        {
          "indexed": false,
          "internalType": "address",
          "name": "newTimelock",
          "type": "address"
        }
      ],
      "name": "TimelockChange",
      "type": "event"
    },
    {
      "anonymous": false,
      "inputs": [
        {
          "indexed": true,
          "internalType": "address",
          "name": "voter",
          "type": "address"
        },
        {
          "indexed": false,
          "internalType": "uint256",
          "name": "proposalId",
          "type": "uint256"
        },
        {
          "indexed": false,
          "internalType": "uint8",
          "name": "support",
          "type": "uint8"
        },
        {
          "indexed": false,
          "internalType": "uint256",
          "name": "weight",
          "type": "uint256"
        },
        {
          "indexed": false,
          "internalType": "string",
          "name": "reason",
          "type": "string"
        }
      ],
      "name": "VoteCast",
      "type": "event"
    },
    {
      "anonymous": false,
      "inputs": [
        {
          "indexed": true,
          "internalType": "address",
          "name": "voter",
          "type": "address"
        },
        {
          "indexed": false,
          "internalType": "uint256",
          "name": "proposalId",
          "type": "uint256"
        },
        {
          "indexed": false,
          "internalType": "uint8",
          "name": "support",
          "type": "uint8"
        },
        {
          "indexed": false,
          "internalType": "uint256",
          "name": "weight",
          "type": "uint256"
        },
        {
          "indexed": false,
          "internalType": "string",
          "name": "reason",
          "type": "string"
        },
        {
          "indexed": false,
          "internalType": "bytes",
          "name": "params",
          "type": "bytes"
        }
      ],
      "name": "VoteCastWithParams",
      "type": "event"
    },
    {
      "inputs": [],
      "name": "BALLOT_TYPEHASH",
      "outputs": [
        {
          "internalType": "bytes32",
          "name": "",
          "type": "bytes32"
        }
      ],
      "stateMutability": "view",
      "type": "function"
    },
    {
      "inputs": [],
      "name": "COUNTING_MODE",
      "outputs": [
        {
          "internalType": "string",
          "name": "",
          "type": "string"
        }
      ],
      "stateMutability": "pure",
      "type": "function"
    },
    {
      "inputs": [],
      "name": "EXTENDED_BALLOT_TYPEHASH",
      "outputs": [
        {
          "internalType": "bytes32",
          "name": "",
          "type": "bytes32"
        }
      ],
      "stateMutability": "view",
      "type": "function"
    },
    {
      "inputs": [
        {
          "internalType": "uint256",
          "name": "proposalId",
          "type": "uint256"
        },
        {
          "internalType": "uint8",
          "name": "support",
          "type": "uint8"
        }
      ],
      "name": "castVote",
      "outputs": [
        {
          "internalType": "uint256",
          "name": "",
          "type": "uint256"
        }
      ],
      "stateMutability": "nonpayable",
      "type": "function"
    },
    {
      "inputs": [
        {
          "internalType": "uint256",
          "name": "proposalId",
          "type": "uint256"
        },
        {
          "internalType": "uint8",
          "name": "support",
          "type": "uint8"
        },
        {
          "internalType": "uint8",
          "name": "v",
          "type": "uint8"
        },
        {
          "internalType": "bytes32",
          "name": "r",
          "type": "bytes32"
        },
        {
          "internalType": "bytes32",
          "name": "s",
          "type": "bytes32"
        }
      ],
      "name": "castVoteBySig",
      "outputs": [
        {
          "internalType": "uint256",
          "name": "",
          "type": "uint256"
        }
      ],
      "stateMutability": "nonpayable",
      "type": "function"
    },
    {
      "inputs": [
        {
          "internalType": "uint256",
          "name": "proposalId",
          "type": "uint256"
        },
        {
          "internalType": "uint8",
          "name": "support",
          "type": "uint8"
        },
        {
          "internalType": "string",
          "name": "reason",
          "type": "string"
        }
      ],
      "name": "castVoteWithReason",
      "outputs": [
        {
          "internalType": "uint256",
          "name": "",
          "type": "uint256"
        }
      ],
      "stateMutability": "nonpayable",
      "type": "function"
    },
    {
      "inputs": [
        {
          "internalType": "uint256",
          "name": "proposalId",
          "type": "uint256"
        },
        {
          "internalType": "uint8",
          "name": "support",
          "type": "uint8"
        },
        {
          "internalType": "string",
          "name": "reason",
          "type": "string"
        },
        {
          "internalType": "bytes",
          "name": "params",
          "type": "bytes"
        }
      ],
      "name": "castVoteWithReasonAndParams",
      "outputs": [
        {
          "internalType": "uint256",
          "name": "",
          "type": "uint256"
        }
      ],
      "stateMutability": "nonpayable",
      "type": "function"
    },
    {
      "inputs": [
        {
          "internalType": "uint256",
          "name": "proposalId",
          "type": "uint256"
        },
        {
          "internalType": "uint8",
          "name": "support",
          "type": "uint8"
        },
        {
          "internalType": "string",
          "name": "reason",
          "type": "string"
        },
        {
          "internalType": "bytes",
          "name": "params",
          "type": "bytes"
        },
        {
          "internalType": "uint8",
          "name": "v",
          "type": "uint8"
        },
        {
          "internalType": "bytes32",
          "name": "r",
          "type": "bytes32"
        },
        {
          "internalType": "bytes32",
          "name": "s",
          "type": "bytes32"
        }
      ],
      "name": "castVoteWithReasonAndParamsBySig",
      "outputs": [
        {
          "internalType": "uint256",
          "name": "",
          "type": "uint256"
        }
      ],
      "stateMutability": "nonpayable",
      "type": "function"
    },
    {
      "inputs": [
        {
          "internalType": "address[]",
          "name": "targets",
          "type": "address[]"
        },
        {
          "internalType": "uint256[]",
          "name": "values",
          "type": "uint256[]"
        },
        {
          "internalType": "bytes[]",
          "name": "calldatas",
          "type": "bytes[]"
        },
        {
          "internalType": "bytes32",
          "name": "descriptionHash",
          "type": "bytes32"
        }
      ],
      "name": "execute",
      "outputs": [
        {
          "internalType": "uint256",
          "name": "",
          "type": "uint256"
        }
      ],
      "stateMutability": "payable",
      "type": "function"
    },
    {
      "inputs": [
        {
          "internalType": "address",
          "name": "account",
          "type": "address"
        },
        {
          "internalType": "uint256",
          "name": "blockNumber",
          "type": "uint256"
        }
      ],
      "name": "getVotes",
      "outputs": [
        {
          "internalType": "uint256",
          "name": "",
          "type": "uint256"
        }
      ],
      "stateMutability": "view",
      "type": "function"
    },
    {
      "inputs": [
        {
          "internalType": "address",
          "name": "account",
          "type": "address"
        },
        {
          "internalType": "uint256",
          "name": "blockNumber",
          "type": "uint256"
        },
        {
          "internalType": "bytes",
          "name": "params",
          "type": "bytes"
        }
      ],
      "name": "getVotesWithParams",
      "outputs": [
        {
          "internalType": "uint256",
          "name": "",
          "type": "uint256"
        }
      ],
      "stateMutability": "view",
      "type": "function"
    },
    {
      "inputs": [
        {
          "internalType": "uint256",
          "name": "proposalId",
          "type": "uint256"
        },
        {
          "internalType": "address",
          "name": "account",
          "type": "address"
        }
      ],
      "name": "hasVoted",
      "outputs": [
        {
          "internalType": "bool",
          "name": "",
          "type": "bool"
        }
      ],
      "stateMutability": "view",
      "type": "function"
    },
    {
      "inputs": [
        {
          "internalType": "address[]",
          "name": "targets",
          "type": "address[]"
        },
        {
          "internalType": "uint256[]",
          "name": "values",
          "type": "uint256[]"
        },
        {
          "internalType": "bytes[]",
          "name": "calldatas",
          "type": "bytes[]"
        },
        {
          "internalType": "bytes32",
          "name": "descriptionHash",
          "type": "bytes32"
        }
      ],
      "name": "hashProposal",
      "outputs": [
        {
          "internalType": "uint256",
          "name": "",
          "type": "uint256"
        }
      ],
      "stateMutability": "pure",
      "type": "function"
    },
    {
      "inputs": [],
      "name": "name",
      "outputs": [
        {
          "internalType": "string",
          "name": "",
          "type": "string"
        }
      ],
      "stateMutability": "view",
      "type": "function"
    },
    {
      "inputs": [
        {
          "internalType": "address",
          "name": "",
          "type": "address"
        },
        {
          "internalType": "address",
          "name": "",
          "type": "address"
        },
        {
          "internalType": "uint256[]",
          "name": "",
          "type": "uint256[]"
        },
        {
          "internalType": "uint256[]",
          "name": "",
          "type": "uint256[]"
        },
        {
          "internalType": "bytes",
          "name": "",
          "type": "bytes"
        }
      ],
      "name": "onERC1155BatchReceived",
      "outputs": [
        {
          "internalType": "bytes4",
          "name": "",
          "type": "bytes4"
        }
      ],
      "stateMutability": "nonpayable",
      "type": "function"
    },
    {
      "inputs": [
        {
          "internalType": "address",
          "name": "",
          "type": "address"
        },
        {
          "internalType": "address",
          "name": "",
          "type": "address"
        },
        {
          "internalType": "uint256",
          "name": "",
          "type": "uint256"
        },
        {
          "internalType": "uint256",
          "name": "",
          "type": "uint256"
        },
        {
          "internalType": "bytes",
          "name": "",
          "type": "bytes"
        }
      ],
      "name": "onERC1155Received",
      "outputs": [
        {
          "internalType": "bytes4",
          "name": "",
          "type": "bytes4"
        }
      ],
      "stateMutability": "nonpayable",
      "type": "function"
    },
    {
      "inputs": [
        {
          "internalType": "address",
          "name": "",
          "type": "address"
        },
        {
          "internalType": "address",
          "name": "",
          "type": "address"
        },
        {
          "internalType": "uint256",
          "name": "",
          "type": "uint256"
        },
        {
          "internalType": "bytes",
          "name": "",
          "type": "bytes"
        }
      ],
      "name": "onERC721Received",
      "outputs": [
        {
          "internalType": "bytes4",
          "name": "",
          "type": "bytes4"
        }
      ],
      "stateMutability": "nonpayable",
      "type": "function"
    },
    {
      "inputs": [
        {
          "internalType": "uint256",
          "name": "proposalId",
          "type": "uint256"
        }
      ],
      "name": "proposalDeadline",
      "outputs": [
        {
          "internalType": "uint256",
          "name": "",
          "type": "uint256"
        }
      ],
      "stateMutability": "view",
      "type": "function"
    },
    {
      "inputs": [
        {
          "internalType": "uint256",
          "name": "proposalId",
          "type": "uint256"
        }
      ],
      "name": "proposalEta",
      "outputs": [
        {
          "internalType": "uint256",
          "name": "",
          "type": "uint256"
        }
      ],
      "stateMutability": "view",
      "type": "function"
    },
    {
      "inputs": [
        {
          "internalType": "uint256",
          "name": "proposalId",
          "type": "uint256"
        }
      ],
      "name": "proposalSnapshot",
      "outputs": [
        {
          "internalType": "uint256",
          "name": "",
          "type": "uint256"
        }
      ],
      "stateMutability": "view",
      "type": "function"
    },
    {
      "inputs": [],
      "name": "proposalThreshold",
      "outputs": [
        {
          "internalType": "uint256",
          "name": "",
          "type": "uint256"
        }
      ],
      "stateMutability": "view",
      "type": "function"
    },
    {
      "inputs": [
        {
          "internalType": "uint256",
          "name": "proposalId",
          "type": "uint256"
        }
      ],
      "name": "proposalVotes",
      "outputs": [
        {
          "internalType": "uint256",
          "name": "againstVotes",
          "type": "uint256"
        },
        {
          "internalType": "uint256",
          "name": "forVotes",
          "type": "uint256"
        },
        {
          "internalType": "uint256",
          "name": "abstainVotes",
          "type": "uint256"
        }
      ],
      "stateMutability": "view",
      "type": "function"
    },
    {
      "inputs": [
        {
          "internalType": "address[]",
          "name": "targets",
          "type": "address[]"
        },
        {
          "internalType": "uint256[]",
          "name": "values",
          "type": "uint256[]"
        },
        {
          "internalType": "bytes[]",
          "name": "calldatas",
          "type": "bytes[]"
        },
        {
          "internalType": "string",
          "name": "description",
          "type": "string"
        }
      ],
      "name": "propose",
      "outputs": [
        {
          "internalType": "uint256",
          "name": "",
          "type": "uint256"
        }
      ],
      "stateMutability": "nonpayable",
      "type": "function"
    },
    {
      "inputs": [
        {
          "internalType": "address[]",
          "name": "targets",
          "type": "address[]"
        },
        {
          "internalType": "uint256[]",
          "name": "values",
          "type": "uint256[]"
        },
        {
          "internalType": "bytes[]",
          "name": "calldatas",
          "type": "bytes[]"
        },
        {
          "internalType": "bytes32",
          "name": "descriptionHash",
          "type": "bytes32"
        }
      ],
      "name": "queue",
      "outputs": [
        {
          "internalType": "uint256",
          "name": "",
          "type": "uint256"
        }
      ],
      "stateMutability": "nonpayable",
      "type": "function"
    },
    {
      "inputs": [
        {
          "internalType": "uint256",
          "name": "blockNumber",
          "type": "uint256"
        }
      ],
      "name": "quorum",
      "outputs": [
        {
          "internalType": "uint256",
          "name": "",
          "type": "uint256"
        }
      ],
      "stateMutability": "view",
      "type": "function"
    },
    {
      "inputs": [],
      "name": "quorumDenominator",
      "outputs": [
        {
          "internalType": "uint256",
          "name": "",
          "type": "uint256"
        }
      ],
      "stateMutability": "view",
      "type": "function"
    },
    {
      "inputs": [
        {
          "internalType": "uint256",
          "name": "blockNumber",
          "type": "uint256"
        }
      ],
      "name": "quorumNumerator",
      "outputs": [
        {
          "internalType": "uint256",
          "name": "",
          "type": "uint256"
        }
      ],
      "stateMutability": "view",
      "type": "function"
    },
    {
      "inputs": [],
      "name": "quorumNumerator",
      "outputs": [
        {
          "internalType": "uint256",
          "name": "",
          "type": "uint256"
        }
      ],
      "stateMutability": "view",
      "type": "function"
    },
    {
      "inputs": [
        {
          "internalType": "address",
          "name": "target",
          "type": "address"
        },
        {
          "internalType": "uint256",
          "name": "value",
          "type": "uint256"
        },
        {
          "internalType": "bytes",
          "name": "data",
          "type": "bytes"
        }
      ],
      "name": "relay",
      "outputs": [],
      "stateMutability": "payable",
      "type": "function"
    },
    {
      "inputs": [
        {
          "internalType": "uint256",
          "name": "proposalId",
          "type": "uint256"
        }
      ],
      "name": "state",
      "outputs": [
        {
          "internalType": "enum IGovernor.ProposalState",
          "name": "",
          "type": "uint8"
        }
      ],
      "stateMutability": "view",
      "type": "function"
    },
    {
      "inputs": [
        {
          "internalType": "bytes4",
          "name": "interfaceId",
          "type": "bytes4"
        }
      ],
      "name": "supportsInterface",
      "outputs": [
        {
          "internalType": "bool",
          "name": "",
          "type": "bool"
        }
      ],
      "stateMutability": "view",
      "type": "function"
    },
    {
      "inputs": [],
      "name": "timelock",
      "outputs": [
        {
          "internalType": "address",
          "name": "",
          "type": "address"
        }
      ],
      "stateMutability": "view",
      "type": "function"
    },
    {
      "inputs": [],
      "name": "token",
      "outputs": [
        {
          "internalType": "contract IVotes",
          "name": "",
          "type": "address"
        }
      ],
      "stateMutability": "view",
      "type": "function"
    },
    {
      "inputs": [
        {
          "internalType": "uint256",
          "name": "newQuorumNumerator",
          "type": "uint256"
        }
      ],
      "name": "updateQuorumNumerator",
      "outputs": [],
      "stateMutability": "nonpayable",
      "type": "function"
    },
    {
      "inputs": [
        {
          "internalType": "contract TimelockController",
          "name": "newTimelock",
          "type": "address"
        }
      ],
      "name": "updateTimelock",
      "outputs": [],
      "stateMutability": "nonpayable",
      "type": "function"
    },
    {
      "inputs": [],
      "name": "version",
      "outputs": [
        {
          "internalType": "string",
          "name": "",
          "type": "string"
        }
      ],
      "stateMutability": "view",
      "type": "function"
    },
    {
      "inputs": [],
      "name": "votingDelay",
      "outputs": [
        {
          "internalType": "uint256",
          "name": "",
          "type": "uint256"
        }
      ],
      "stateMutability": "pure",
      "type": "function"
    },
    {
      "inputs": [],
      "name": "votingPeriod",
      "outputs": [
        {
          "internalType": "uint256",
          "name": "",
          "type": "uint256"
        }
      ],
      "stateMutability": "pure",
      "type": "function"
    },
    {
      "stateMutability": "payable",
      "type": "receive"
    }
  ],
  "bytecode": "0x6101606040523480156200001257600080fd5b506040516200777938038062007779833981810160405281019062000038919062000b59565b600482826040518060400160405280600a81526020017f4d79476f7665726e6f72000000000000000000000000000000000000000000008152508062000083620001aa60201b60201c565b60008280519060200120905060008280519060200120905060007f8b73c3c69bb8fe3d512ecc4cf759cc79239f7b179b0ffacaa9a75d522b39400f90508260e081815250508161010081815250504660a08181525050620000ec818484620001e760201b60201c565b608081815250503073ffffffffffffffffffffffffffffffffffffffff1660c08173ffffffffffffffffffffffffffffffffffffffff16815250508061012081815250505050505050806000908162000146919062000e1a565b505062000159816200022360201b60201c565b508073ffffffffffffffffffffffffffffffffffffffff166101408173ffffffffffffffffffffffffffffffffffffffff168152505050620001a181620002c460201b60201c565b505050620012d0565b60606040518060400160405280600181526020017f3100000000000000000000000000000000000000000000000000000000000000815250905090565b600083838346306040516020016200020495949392919062000f3e565b6040516020818303038152906040528051906020012090509392505050565b7f08f74ea46ef7894f65eabfb5e6e695de773a000b47c529ab559178069b226401600460009054906101000a900473ffffffffffffffffffffffffffffffffffffffff16826040516200027892919062000f9b565b60405180910390a180600460006101000a81548173ffffffffffffffffffffffffffffffffffffffff021916908373ffffffffffffffffffffffffffffffffffffffff16021790555050565b620002d4620004a360201b60201c565b81111562000319576040517f08c379a0000000000000000000000000000000000000000000000000000000008152600401620003109062001075565b60405180910390fd5b60006200032b620004ac60201b60201c565b9050600081141580156200034757506000600760000180549050145b15620004475760076000016040518060400160405280600063ffffffff16815260200162000380846200050260201b62001af11760201c565b7bffffffffffffffffffffffffffffffffffffffffffffffffffffffff168152509080600181540180825580915050600190039060005260206000200160009091909190915060008201518160000160006101000a81548163ffffffff021916908363ffffffff16021790555060208201518160000160046101000a8154817bffffffffffffffffffffffffffffffffffffffffffffffffffffffff02191690837bffffffffffffffffffffffffffffffffffffffffffffffffffffffff16021790555050505b620004628260076200057060201b62001b5c1790919060201c565b50507f0553476bf02ef2726e8ce5ced78d63e26e602e4a2257b1f559418e24b463399781836040516200049792919062001097565b60405180910390a15050565b60006064905090565b60008060076000018054905014620004f957620004d560076200060060201b62001bca1760201c565b7bffffffffffffffffffffffffffffffffffffffffffffffffffffffff16620004fd565b6006545b905090565b60007bffffffffffffffffffffffffffffffffffffffffffffffffffffffff801682111562000568576040517f08c379a00000000000000000000000000000000000000000000000000000000081526004016200055f906200113a565b60405180910390fd5b819050919050565b600080620005b38460000162000591436200067660201b62001c341760201c565b620005a7866200050260201b62001af11760201c565b620006cc60201b60201c565b817bffffffffffffffffffffffffffffffffffffffffffffffffffffffff169150807bffffffffffffffffffffffffffffffffffffffffffffffffffffffff169050915091509250929050565b60008082600001805490509050600081146200066b5762000639836000016001836200062d91906200118b565b62000a6d60201b60201c565b60000160049054906101000a90047bffffffffffffffffffffffffffffffffffffffffffffffffffffffff166200066e565b60005b915050919050565b600063ffffffff8016821115620006c4576040517f08c379a0000000000000000000000000000000000000000000000000000000008152600401620006bb906200123c565b60405180910390fd5b819050919050565b60008060008580549050905060008111156200097d5760006200070487600184620006f891906200118b565b62000a6d60201b60201c565b6040518060400160405290816000820160009054906101000a900463ffffffff1663ffffffff1663ffffffff1681526020016000820160049054906101000a90047bffffffffffffffffffffffffffffffffffffffffffffffffffffffff167bffffffffffffffffffffffffffffffffffffffffffffffffffffffff167bffffffffffffffffffffffffffffffffffffffffffffffffffffffff168152505090508563ffffffff16816000015163ffffffff161115620007fb576040517f08c379a0000000000000000000000000000000000000000000000000000000008152600401620007f290620012ae565b60405180910390fd5b8563ffffffff16816000015163ffffffff16036200088b578462000834886001856200082891906200118b565b62000a6d60201b60201c565b60000160046101000a8154817bffffffffffffffffffffffffffffffffffffffffffffffffffffffff02191690837bffffffffffffffffffffffffffffffffffffffffffffffffffffffff1602179055506200096b565b8660405180604001604052808863ffffffff168152602001877bffffffffffffffffffffffffffffffffffffffffffffffffffffffff168152509080600181540180825580915050600190039060005260206000200160009091909190915060008201518160000160006101000a81548163ffffffff021916908363ffffffff16021790555060208201518160000160046101000a8154817bffffffffffffffffffffffffffffffffffffffffffffffffffffffff02191690837bffffffffffffffffffffffffffffffffffffffffffffffffffffffff16021790555050505b80602001518593509350505062000a65565b8560405180604001604052808763ffffffff168152602001867bffffffffffffffffffffffffffffffffffffffffffffffffffffffff168152509080600181540180825580915050600190039060005260206000200160009091909190915060008201518160000160006101000a81548163ffffffff021916908363ffffffff16021790555060208201518160000160046101000a8154817bffffffffffffffffffffffffffffffffffffffffffffffffffffffff02191690837bffffffffffffffffffffffffffffffffffffffffffffffffffffffff160217905550505060008492509250505b935093915050565b60008260005281602060002001905092915050565b600080fd5b600073ffffffffffffffffffffffffffffffffffffffff82169050919050565b600062000ab48262000a87565b9050919050565b600062000ac88262000aa7565b9050919050565b62000ada8162000abb565b811462000ae657600080fd5b50565b60008151905062000afa8162000acf565b92915050565b600062000b0d8262000a87565b9050919050565b600062000b218262000b00565b9050919050565b62000b338162000b14565b811462000b3f57600080fd5b50565b60008151905062000b538162000b28565b92915050565b6000806040838503121562000b735762000b7262000a82565b5b600062000b838582860162000ae9565b925050602062000b968582860162000b42565b9150509250929050565b600081519050919050565b7f4e487b7100000000000000000000000000000000000000000000000000000000600052604160045260246000fd5b7f4e487b7100000000000000000000000000000000000000000000000000000000600052602260045260246000fd5b6000600282049050600182168062000c2257607f821691505b60208210810362000c385762000c3762000bda565b5b50919050565b60008190508160005260206000209050919050565b60006020601f8301049050919050565b600082821b905092915050565b60006008830262000ca27fffffffffffffffffffffffffffffffffffffffffffffffffffffffffffffffff8262000c63565b62000cae868362000c63565b95508019841693508086168417925050509392505050565b6000819050919050565b6000819050919050565b600062000cfb62000cf562000cef8462000cc6565b62000cd0565b62000cc6565b9050919050565b6000819050919050565b62000d178362000cda565b62000d2f62000d268262000d02565b84845462000c70565b825550505050565b600090565b62000d4662000d37565b62000d5381848462000d0c565b505050565b5b8181101562000d7b5762000d6f60008262000d3c565b60018101905062000d59565b5050565b601f82111562000dca5762000d948162000c3e565b62000d9f8462000c53565b8101602085101562000daf578190505b62000dc762000dbe8562000c53565b83018262000d58565b50505b505050565b600082821c905092915050565b600062000def6000198460080262000dcf565b1980831691505092915050565b600062000e0a838362000ddc565b9150826002028217905092915050565b62000e258262000ba0565b67ffffffffffffffff81111562000e415762000e4062000bab565b5b62000e4d825462000c09565b62000e5a82828562000d7f565b600060209050601f83116001811462000e92576000841562000e7d578287015190505b62000e89858262000dfc565b86555062000ef9565b601f19841662000ea28662000c3e565b60005b8281101562000ecc5784890151825560018201915060208501945060208101905062000ea5565b8683101562000eec578489015162000ee8601f89168262000ddc565b8355505b6001600288020188555050505b505050505050565b6000819050919050565b62000f168162000f01565b82525050565b62000f278162000cc6565b82525050565b62000f388162000aa7565b82525050565b600060a08201905062000f55600083018862000f0b565b62000f64602083018762000f0b565b62000f73604083018662000f0b565b62000f82606083018562000f1c565b62000f91608083018462000f2d565b9695505050505050565b600060408201905062000fb2600083018562000f2d565b62000fc1602083018462000f2d565b9392505050565b600082825260208201905092915050565b7f476f7665726e6f72566f74657351756f72756d4672616374696f6e3a2071756f60008201527f72756d4e756d657261746f72206f7665722071756f72756d44656e6f6d696e6160208201527f746f720000000000000000000000000000000000000000000000000000000000604082015250565b60006200105d60438362000fc8565b91506200106a8262000fd9565b606082019050919050565b6000602082019050818103600083015262001090816200104e565b9050919050565b6000604082019050620010ae600083018562000f1c565b620010bd602083018462000f1c565b9392505050565b7f53616665436173743a2076616c756520646f65736e27742066697420696e203260008201527f3234206269747300000000000000000000000000000000000000000000000000602082015250565b60006200112260278362000fc8565b91506200112f82620010c4565b604082019050919050565b60006020820190508181036000830152620011558162001113565b9050919050565b7f4e487b7100000000000000000000000000000000000000000000000000000000600052601160045260246000fd5b6000620011988262000cc6565b9150620011a58362000cc6565b9250828203905081811115620011c057620011bf6200115c565b5b92915050565b7f53616665436173743a2076616c756520646f65736e27742066697420696e203360008201527f3220626974730000000000000000000000000000000000000000000000000000602082015250565b60006200122460268362000fc8565b91506200123182620011c6565b604082019050919050565b60006020820190508181036000830152620012578162001215565b9050919050565b7f436865636b706f696e743a20696e76616c6964206b6579000000000000000000600082015250565b60006200129660178362000fc8565b9150620012a3826200125e565b602082019050919050565b60006020820190508181036000830152620012c98162001287565b9050919050565b60805160a05160c05160e0516101005161012051610140516164406200133960003960008181611acf0152818161291e0152612aae0152600061310f015260006131510152600061313001526000613065015260006130bb015260006130e401526164406000f3fe6080604052600436106102295760003560e01c80637b3c71d311610123578063c01f9e37116100ab578063deaaa7cc1161006f578063deaaa7cc14610949578063eb9019d414610974578063f23a6e61146109b1578063f8ce560a146109ee578063fc0c546a14610a2b5761026f565b8063c01f9e371461085d578063c28bc2fa1461089a578063c59057e4146108b6578063d33219b4146108f3578063dd4e2ba51461091e5761026f565b8063a7713a70116100f2578063a7713a7014610764578063a890c9101461078f578063ab58fb8e146107b8578063b58131b0146107f5578063bc197c81146108205761026f565b80637b3c71d3146106825780637d5e81e2146106bf57806397c3d334146106fc5780639a802a6d146107275761026f565b80632fe3e261116101b1578063544ffc9c11610175578063544ffc9c1461056157806354fd4d50146105a057806356781388146105cb5780635f398a141461060857806360c4247f146106455761026f565b80632fe3e261146104545780633932abb11461047f5780633bccf4fd146104aa5780633e4f49e6146104e757806343859632146105245761026f565b806306fdde03116101f857806306fdde0314610342578063150b7a021461036d578063160cbed7146103aa5780632656227d146103e75780632d63f693146104175761026f565b806301ffc9a71461027457806302a251a3146102b157806303420181146102dc57806306f3f9e6146103195761026f565b3661026f573073ffffffffffffffffffffffffffffffffffffffff1661024d610a56565b73ffffffffffffffffffffffffffffffffffffffff161461026d57600080fd5b005b600080fd5b34801561028057600080fd5b5061029b60048036038101906102969190613be9565b610a65565b6040516102a89190613c31565b60405180910390f35b3480156102bd57600080fd5b506102c6610a77565b6040516102d39190613c65565b60405180910390f35b3480156102e857600080fd5b5061030360048036038101906102fe9190613ec1565b610a81565b6040516103109190613c65565b60405180910390f35b34801561032557600080fd5b50610340600480360381019061033b9190613f9f565b610b66565b005b34801561034e57600080fd5b50610357610c5d565b604051610364919061404b565b60405180910390f35b34801561037957600080fd5b50610394600480360381019061038f91906140cb565b610cef565b6040516103a1919061415d565b60405180910390f35b3480156103b657600080fd5b506103d160048036038101906103cc91906143df565b610d03565b6040516103de9190613c65565b60405180910390f35b61040160048036038101906103fc91906143df565b610fbd565b60405161040e9190613c65565b60405180910390f35b34801561042357600080fd5b5061043e60048036038101906104399190613f9f565b61110a565b60405161044b9190613c65565b60405180910390f35b34801561046057600080fd5b50610469611178565b60405161047691906144a9565b60405180910390f35b34801561048b57600080fd5b5061049461119c565b6040516104a19190613c65565b60405180910390f35b3480156104b657600080fd5b506104d160048036038101906104cc91906144c4565b6111a5565b6040516104de9190613c65565b60405180910390f35b3480156104f357600080fd5b5061050e60048036038101906105099190613f9f565b61122f565b60405161051b91906145b6565b60405180910390f35b34801561053057600080fd5b5061054b600480360381019061054691906145d1565b611241565b6040516105589190613c31565b60405180910390f35b34801561056d57600080fd5b5061058860048036038101906105839190613f9f565b6112ac565b60405161059793929190614611565b60405180910390f35b3480156105ac57600080fd5b506105b56112e4565b6040516105c2919061404b565b60405180910390f35b3480156105d757600080fd5b506105f260048036038101906105ed9190614648565b611321565b6040516105ff9190613c65565b60405180910390f35b34801561061457600080fd5b5061062f600480360381019061062a9190614688565b611352565b60405161063c9190613c65565b60405180910390f35b34801561065157600080fd5b5061066c60048036038101906106679190613f9f565b6113bc565b6040516106799190613c65565b60405180910390f35b34801561068e57600080fd5b506106a960048036038101906106a4919061472c565b611508565b6040516106b69190613c65565b60405180910390f35b3480156106cb57600080fd5b506106e660048036038101906106e19190614841565b611570565b6040516106f39190613c65565b60405180910390f35b34801561070857600080fd5b50610711611588565b60405161071e9190613c65565b60405180910390f35b34801561073357600080fd5b5061074e60048036038101906107499190614918565b611591565b60405161075b9190613c65565b60405180910390f35b34801561077057600080fd5b506107796115a7565b6040516107869190613c65565b60405180910390f35b34801561079b57600080fd5b506107b660048036038101906107b191906149d7565b6115ee565b005b3480156107c457600080fd5b506107df60048036038101906107da9190613f9f565b6116e5565b6040516107ec9190613c65565b60405180910390f35b34801561080157600080fd5b5061080a6117b2565b6040516108179190613c65565b60405180910390f35b34801561082c57600080fd5b5061084760048036038101906108429190614a04565b6117b7565b604051610854919061415d565b60405180910390f35b34801561086957600080fd5b50610884600480360381019061087f9190613f9f565b6117cc565b6040516108919190613c65565b60405180910390f35b6108b460048036038101906108af9190614b29565b61183a565b005b3480156108c257600080fd5b506108dd60048036038101906108d891906143df565b6119c3565b6040516108ea9190613c65565b60405180910390f35b3480156108ff57600080fd5b506109086119ff565b6040516109159190614bac565b60405180910390f35b34801561092a57600080fd5b50610933611a29565b604051610940919061404b565b60405180910390f35b34801561095557600080fd5b5061095e611a66565b60405161096b91906144a9565b60405180910390f35b34801561098057600080fd5b5061099b60048036038101906109969190614bc7565b611a8a565b6040516109a89190613c65565b60405180910390f35b3480156109bd57600080fd5b506109d860048036038101906109d39190614c07565b611aa6565b6040516109e5919061415d565b60405180910390f35b3480156109fa57600080fd5b50610a156004803603810190610a109190613f9f565b611abb565b604051610a229190613c65565b60405180910390f35b348015610a3757600080fd5b50610a40611acd565b604051610a4d9190614cfd565b60405180910390f35b6000610a60611c87565b905090565b6000610a7082611cb1565b9050919050565b600061b2fa905090565b600080610b04610afc7fb3b3f3b703cd84ce352197dcff232b1b5d3cfb2025ce47cf04742d0651f1af888c8c8c8c604051610abd929190614d48565b60405180910390208b80519060200120604051602001610ae1959493929190614d70565b60405160208183030381529060405280519060200120611d2b565b868686611d45565b9050610b578a828b8b8b8080601f016020809104026020016040519081016040528093929190818152602001838380828437600081840152601f19601f820116905080830192505050505050508a611d70565b91505098975050505050505050565b610b6e610a56565b73ffffffffffffffffffffffffffffffffffffffff16610b8c611f2c565b73ffffffffffffffffffffffffffffffffffffffff1614610be2576040517f08c379a0000000000000000000000000000000000000000000000000000000008152600401610bd990614e0f565b60405180910390fd5b3073ffffffffffffffffffffffffffffffffffffffff16610c01610a56565b73ffffffffffffffffffffffffffffffffffffffff1614610c51576000610c26611f34565b604051610c34929190614d48565b604051809103902090505b80610c4a6002611f41565b03610c3f57505b610c5a8161201d565b50565b606060008054610c6c90614e5e565b80601f0160208091040260200160405190810160405280929190818152602001828054610c9890614e5e565b8015610ce55780601f10610cba57610100808354040283529160200191610ce5565b820191906000526020600020905b815481529060010190602001808311610cc857829003601f168201915b5050505050905090565b600063150b7a0260e01b9050949350505050565b600080610d12868686866119c3565b905060046007811115610d2857610d2761453f565b5b610d318261122f565b6007811115610d4357610d4261453f565b5b14610d83576040517f08c379a0000000000000000000000000000000000000000000000000000000008152600401610d7a90614f01565b60405180910390fd5b6000600460009054906101000a900473ffffffffffffffffffffffffffffffffffffffff1673ffffffffffffffffffffffffffffffffffffffff1663f27a0c926040518163ffffffff1660e01b8152600401602060405180830381865afa158015610df2573d6000803e3d6000fd5b505050506040513d601f19601f82011682018060405250810190610e169190614f36565b9050600460009054906101000a900473ffffffffffffffffffffffffffffffffffffffff1673ffffffffffffffffffffffffffffffffffffffff1663b1c5f4278888886000896040518663ffffffff1660e01b8152600401610e7c95949392919061523e565b602060405180830381865afa158015610e99573d6000803e3d6000fd5b505050506040513d601f19601f82011682018060405250810190610ebd91906152bb565b6005600084815260200190815260200160002081905550600460009054906101000a900473ffffffffffffffffffffffffffffffffffffffff1673ffffffffffffffffffffffffffffffffffffffff16638f2a0bb0888888600089876040518763ffffffff1660e01b8152600401610f3a969594939291906152e8565b600060405180830381600087803b158015610f5457600080fd5b505af1158015610f68573d6000803e3d6000fd5b505050507f9a2e42fd6722813d69113e7d0079d3d940171428df7373df9c7f7617cfda2892828242610f9a919061538d565b604051610fa89291906153c1565b60405180910390a18192505050949350505050565b600080610fcc868686866119c3565b90506000610fd98261122f565b905060046007811115610fef57610fee61453f565b5b8160078111156110025761100161453f565b5b148061103257506005600781111561101d5761101c61453f565b5b8160078111156110305761102f61453f565b5b145b611071576040517f08c379a000000000000000000000000000000000000000000000000000000000815260040161106890614f01565b60405180910390fd5b600180600084815260200190815260200160002060020160006101000a81548160ff0219169083151502179055507f712ae1383f79ac853f8d882153778e0260ef8f03b504e2866e0593e04d2b291f826040516110ce9190613c65565b60405180910390a16110e382888888886121d1565b6110f082888888886122b4565b6110fd82888888886122c8565b8192505050949350505050565b6000611167600160008481526020019081526020016000206000016040518060200160405290816000820160009054906101000a900467ffffffffffffffff1667ffffffffffffffff1667ffffffffffffffff1681525050612323565b67ffffffffffffffff169050919050565b7fb3b3f3b703cd84ce352197dcff232b1b5d3cfb2025ce47cf04742d0651f1af8881565b60006001905090565b6000806112066111fe7f150214d74d59b7d1e90c73fc22ef3d991dd0a76b046543d4d80ab92d2a50328f89896040516020016111e3939291906153ea565b60405160208183030381529060405280519060200120611d2b565b868686611d45565b905061122387828860405180602001604052806000815250612331565b91505095945050505050565b600061123a82612351565b9050919050565b60006008600084815260200190815260200160002060030160008373ffffffffffffffffffffffffffffffffffffffff1673ffffffffffffffffffffffffffffffffffffffff16815260200190815260200160002060009054906101000a900460ff16905092915050565b600080600080600860008681526020019081526020016000209050806000015481600101548260020154935093509350509193909250565b60606040518060400160405280600181526020017f3100000000000000000000000000000000000000000000000000000000000000815250905090565b60008061132c611f2c565b905061134984828560405180602001604052806000815250612331565b91505092915050565b60008061135d611f2c565b90506113b087828888888080601f016020809104026020016040519081016040528093929190818152602001838380828437600081840152601f19601f8201169050808301925050505050505087611d70565b91505095945050505050565b6000806007600001805490509050600081036113dd57600654915050611503565b600060076000016001836113f19190615421565b8154811061140257611401615455565b5b906000526020600020016040518060400160405290816000820160009054906101000a900463ffffffff1663ffffffff1663ffffffff1681526020016000820160049054906101000a90047bffffffffffffffffffffffffffffffffffffffffffffffffffffffff167bffffffffffffffffffffffffffffffffffffffffffffffffffffffff167bffffffffffffffffffffffffffffffffffffffffffffffffffffffff1681525050905083816000015163ffffffff16116114ea5780602001517bffffffffffffffffffffffffffffffffffffffffffffffffffffffff1692505050611503565b6114fe84600761252490919063ffffffff16565b925050505b919050565b600080611513611f2c565b905061156586828787878080601f016020809104026020016040519081016040528093929190818152602001838380828437600081840152601f19601f82011690508083019250505050505050612331565b915050949350505050565b600061157e85858585612613565b9050949350505050565b60006064905090565b600061159e84848461291a565b90509392505050565b600080600760000180549050146115e5576115c26007611bca565b7bffffffffffffffffffffffffffffffffffffffffffffffffffffffff166115e9565b6006545b905090565b6115f6610a56565b73ffffffffffffffffffffffffffffffffffffffff16611614611f2c565b73ffffffffffffffffffffffffffffffffffffffff161461166a576040517f08c379a000000000000000000000000000000000000000000000000000000000815260040161166190614e0f565b60405180910390fd5b3073ffffffffffffffffffffffffffffffffffffffff16611689610a56565b73ffffffffffffffffffffffffffffffffffffffff16146116d95760006116ae611f34565b6040516116bc929190614d48565b604051809103902090505b806116d26002611f41565b036116c757505b6116e2816129c1565b50565b600080600460009054906101000a900473ffffffffffffffffffffffffffffffffffffffff1673ffffffffffffffffffffffffffffffffffffffff1663d45c443560056000868152602001908152602001600020546040518263ffffffff1660e01b815260040161175691906144a9565b602060405180830381865afa158015611773573d6000803e3d6000fd5b505050506040513d601f19601f820116820180604052508101906117979190614f36565b9050600181146117a757806117aa565b60005b915050919050565b600090565b600063bc197c8160e01b905095945050505050565b6000611829600160008481526020019081526020016000206001016040518060200160405290816000820160009054906101000a900467ffffffffffffffff1667ffffffffffffffff1667ffffffffffffffff1681525050612323565b67ffffffffffffffff169050919050565b611842610a56565b73ffffffffffffffffffffffffffffffffffffffff16611860611f2c565b73ffffffffffffffffffffffffffffffffffffffff16146118b6576040517f08c379a00000000000000000000000000000000000000000000000000000000081526004016118ad90614e0f565b60405180910390fd5b3073ffffffffffffffffffffffffffffffffffffffff166118d5610a56565b73ffffffffffffffffffffffffffffffffffffffff16146119255760006118fa611f34565b604051611908929190614d48565b604051809103902090505b8061191e6002611f41565b0361191357505b6000808573ffffffffffffffffffffffffffffffffffffffff16858585604051611950929190614d48565b60006040518083038185875af1925050503d806000811461198d576040519150601f19603f3d011682016040523d82523d6000602084013e611992565b606091505b50915091506119ba82826040518060600160405280602881526020016163e360289139612a60565b50505050505050565b6000848484846040516020016119dc9493929190615484565b6040516020818303038152906040528051906020012060001c9050949350505050565b6000600460009054906101000a900473ffffffffffffffffffffffffffffffffffffffff16905090565b60606040518060400160405280602081526020017f737570706f72743d627261766f2671756f72756d3d666f722c6162737461696e815250905090565b7f150214d74d59b7d1e90c73fc22ef3d991dd0a76b046543d4d80ab92d2a50328f81565b6000611a9e8383611a99612a82565b61291a565b905092915050565b600063f23a6e6160e01b905095945050505050565b6000611ac682612a99565b9050919050565b7f000000000000000000000000000000000000000000000000000000000000000081565b60007bffffffffffffffffffffffffffffffffffffffffffffffffffffffff8016821115611b54576040517f08c379a0000000000000000000000000000000000000000000000000000000008152600401611b4b90615550565b60405180910390fd5b819050919050565b600080611b7d84600001611b6f43611c34565b611b7886611af1565b612b61565b817bffffffffffffffffffffffffffffffffffffffffffffffffffffffff169150807bffffffffffffffffffffffffffffffffffffffffffffffffffffffff169050915091509250929050565b6000808260000180549050905060008114611c2957611bf883600001600183611bf39190615421565b612ee7565b60000160049054906101000a90047bffffffffffffffffffffffffffffffffffffffffffffffffffffffff16611c2c565b60005b915050919050565b600063ffffffff8016821115611c7f576040517f08c379a0000000000000000000000000000000000000000000000000000000008152600401611c76906155e2565b60405180910390fd5b819050919050565b6000600460009054906101000a900473ffffffffffffffffffffffffffffffffffffffff16905090565b60007f6e665ced000000000000000000000000000000000000000000000000000000007bffffffffffffffffffffffffffffffffffffffffffffffffffffffff1916827bffffffffffffffffffffffffffffffffffffffffffffffffffffffff19161480611d245750611d2382612efc565b5b9050919050565b6000611d3e611d38613061565b8361317b565b9050919050565b6000806000611d56878787876131ae565b91509150611d6381613290565b8192505050949350505050565b60008060016000888152602001908152602001600020905060016007811115611d9c57611d9b61453f565b5b611da58861122f565b6007811115611db757611db661453f565b5b14611df7576040517f08c379a0000000000000000000000000000000000000000000000000000000008152600401611dee90615674565b60405180910390fd5b6000611e5687611e46846000016040518060200160405290816000820160009054906101000a900467ffffffffffffffff1667ffffffffffffffff1667ffffffffffffffff1681525050612323565b67ffffffffffffffff168661291a565b9050611e6588888884886133f6565b6000845103611ec7578673ffffffffffffffffffffffffffffffffffffffff167fb8e138887d0aa13bab447e82de9d5c1777041ecd21ca36ba824ff1e6c07ddda489888489604051611eba9493929190615694565b60405180910390a2611f1e565b8673ffffffffffffffffffffffffffffffffffffffff167fe2babfbac5889a709b63bb7f598b324e08bc5a4fb9ec647fb3cbc9ec07eb87128988848989604051611f1595949392919061572a565b60405180910390a25b809250505095945050505050565b600033905090565b3660008036915091509091565b6000611f4c826135fa565b15611f83576040517f3db2a12a00000000000000000000000000000000000000000000000000000000815260040160405180910390fd5b60008260000160009054906101000a9004600f0b905082600101600082600f0b600f0b815260200190815260200160002054915082600101600082600f0b600f0b815260200190815260200160002060009055600181018360000160006101000a8154816fffffffffffffffffffffffffffffffff0219169083600f0b6fffffffffffffffffffffffffffffffff16021790555050919050565b612025611588565b811115612067576040517f08c379a000000000000000000000000000000000000000000000000000000000815260040161205e90615823565b60405180910390fd5b60006120716115a7565b90506000811415801561208c57506000600760000180549050145b1561217e5760076000016040518060400160405280600063ffffffff1681526020016120b784611af1565b7bffffffffffffffffffffffffffffffffffffffffffffffffffffffff168152509080600181540180825580915050600190039060005260206000200160009091909190915060008201518160000160006101000a81548163ffffffff021916908363ffffffff16021790555060208201518160000160046101000a8154817bffffffffffffffffffffffffffffffffffffffffffffffffffffffff02191690837bffffffffffffffffffffffffffffffffffffffffffffffffffffffff16021790555050505b612192826007611b5c90919063ffffffff16565b50507f0553476bf02ef2726e8ce5ced78d63e26e602e4a2257b1f559418e24b463399781836040516121c59291906153c1565b60405180910390a15050565b3073ffffffffffffffffffffffffffffffffffffffff166121f0610a56565b73ffffffffffffffffffffffffffffffffffffffff16146122ad5760005b84518110156122ab573073ffffffffffffffffffffffffffffffffffffffff1685828151811061224157612240615455565b5b602002602001015173ffffffffffffffffffffffffffffffffffffffff160361229a5761229983828151811061227a57612279615455565b5b602002602001015180519060200120600261362f90919063ffffffff16565b5b806122a490615843565b905061220e565b505b5050505050565b6122c185858585856136ab565b5050505050565b3073ffffffffffffffffffffffffffffffffffffffff166122e7610a56565b73ffffffffffffffffffffffffffffffffffffffff161461231c5761230c60026135fa565b61231b5761231a6002613749565b5b5b5050505050565b600081600001519050919050565b600061234785858585612342612a82565b611d70565b9050949350505050565b60008061235d836137ca565b9050600460078111156123735761237261453f565b5b8160078111156123865761238561453f565b5b14612394578091505061251f565b6000600560008581526020019081526020016000205490506000801b81036123c057819250505061251f565b600460009054906101000a900473ffffffffffffffffffffffffffffffffffffffff1673ffffffffffffffffffffffffffffffffffffffff16632ab0f529826040518263ffffffff1660e01b815260040161241b91906144a9565b602060405180830381865afa158015612438573d6000803e3d6000fd5b505050506040513d601f19601f8201168201806040525081019061245c91906158b7565b1561246c5760079250505061251f565b600460009054906101000a900473ffffffffffffffffffffffffffffffffffffffff1673ffffffffffffffffffffffffffffffffffffffff1663584b153e826040518263ffffffff1660e01b81526004016124c791906144a9565b602060405180830381865afa1580156124e4573d6000803e3d6000fd5b505050506040513d601f19601f8201168201806040525081019061250891906158b7565b156125185760059250505061251f565b6002925050505b919050565b6000438210612568576040517f08c379a000000000000000000000000000000000000000000000000000000000815260040161255f90615930565b60405180910390fd5b600061257383611c34565b9050600084600001805490509050600061259386600001846000856138de565b9050600081146125e7576125b6866000016001836125b19190615421565b612ee7565b60000160049054906101000a90047bffffffffffffffffffffffffffffffffffffffffffffffffffffffff166125ea565b60005b7bffffffffffffffffffffffffffffffffffffffffffffffffffffffff16935050505092915050565b600061261d6117b2565b61263a612628611f2c565b6001436126359190615421565b611a8a565b101561267b576040517f08c379a0000000000000000000000000000000000000000000000000000000008152600401612672906159c2565b60405180910390fd5b600061269086868686805190602001206119c3565b905084518651146126d6576040517f08c379a00000000000000000000000000000000000000000000000000000000081526004016126cd90615a54565b60405180910390fd5b835186511461271a576040517f08c379a000000000000000000000000000000000000000000000000000000000815260040161271190615a54565b60405180910390fd5b600086511161275e576040517f08c379a000000000000000000000000000000000000000000000000000000000815260040161275590615ac0565b60405180910390fd5b60006001600083815260200190815260200160002090506127be816000016040518060200160405290816000820160009054906101000a900467ffffffffffffffff1667ffffffffffffffff1667ffffffffffffffff1681525050613951565b6127fd576040517f08c379a00000000000000000000000000000000000000000000000000000000081526004016127f490615b52565b60405180910390fd5b600061280f61280a61119c565b61396b565b6128184361396b565b6128229190615b86565b90506000612836612831610a77565b61396b565b826128419190615b86565b905061285982846000016139c290919063ffffffff16565b61286f81846001016139c290919063ffffffff16565b7f7d84a6263ae0d98d3329bd7b46bb4e8d6f98cd35a7adb45c274c8b7fd5ebd5e084612899611f2c565b8b8b8d5167ffffffffffffffff8111156128b6576128b5613d60565b5b6040519080825280602002602001820160405280156128e957816020015b60608152602001906001900390816128d45790505b508c88888e60405161290399989796959493929190615cff565b60405180910390a183945050505050949350505050565b60007f000000000000000000000000000000000000000000000000000000000000000073ffffffffffffffffffffffffffffffffffffffff16633a46b1a885856040518363ffffffff1660e01b8152600401612977929190615daf565b602060405180830381865afa158015612994573d6000803e3d6000fd5b505050506040513d601f19601f820116820180604052508101906129b89190614f36565b90509392505050565b7f08f74ea46ef7894f65eabfb5e6e695de773a000b47c529ab559178069b226401600460009054906101000a900473ffffffffffffffffffffffffffffffffffffffff1682604051612a14929190615dd8565b60405180910390a180600460006101000a81548173ffffffffffffffffffffffffffffffffffffffff021916908373ffffffffffffffffffffffffffffffffffffffff16021790555050565b60608315612a7057829050612a7b565b612a7a83836139f1565b5b9392505050565b606060405180602001604052806000815250905090565b6000612aa3611588565b612aac836113bc565b7f000000000000000000000000000000000000000000000000000000000000000073ffffffffffffffffffffffffffffffffffffffff16638e539e8c856040518263ffffffff1660e01b8152600401612b059190613c65565b602060405180830381865afa158015612b22573d6000803e3d6000fd5b505050506040513d601f19601f82011682018060405250810190612b469190614f36565b612b509190615e01565b612b5a9190615e72565b9050919050565b6000806000858054905090506000811115612df7576000612b8e87600184612b899190615421565b612ee7565b6040518060400160405290816000820160009054906101000a900463ffffffff1663ffffffff1663ffffffff1681526020016000820160049054906101000a90047bffffffffffffffffffffffffffffffffffffffffffffffffffffffff167bffffffffffffffffffffffffffffffffffffffffffffffffffffffff167bffffffffffffffffffffffffffffffffffffffffffffffffffffffff168152505090508563ffffffff16816000015163ffffffff161115612c82576040517f08c379a0000000000000000000000000000000000000000000000000000000008152600401612c7990615eef565b60405180910390fd5b8563ffffffff16816000015163ffffffff1603612d065784612cb088600185612cab9190615421565b612ee7565b60000160046101000a8154817bffffffffffffffffffffffffffffffffffffffffffffffffffffffff02191690837bffffffffffffffffffffffffffffffffffffffffffffffffffffffff160217905550612de6565b8660405180604001604052808863ffffffff168152602001877bffffffffffffffffffffffffffffffffffffffffffffffffffffffff168152509080600181540180825580915050600190039060005260206000200160009091909190915060008201518160000160006101000a81548163ffffffff021916908363ffffffff16021790555060208201518160000160046101000a8154817bffffffffffffffffffffffffffffffffffffffffffffffffffffffff02191690837bffffffffffffffffffffffffffffffffffffffffffffffffffffffff16021790555050505b806020015185935093505050612edf565b8560405180604001604052808763ffffffff168152602001867bffffffffffffffffffffffffffffffffffffffffffffffffffffffff168152509080600181540180825580915050600190039060005260206000200160009091909190915060008201518160000160006101000a81548163ffffffff021916908363ffffffff16021790555060208201518160000160046101000a8154817bffffffffffffffffffffffffffffffffffffffffffffffffffffffff02191690837bffffffffffffffffffffffffffffffffffffffffffffffffffffffff160217905550505060008492509250505b935093915050565b60008260005281602060002001905092915050565b6000639a802a6d60e01b630342018160e01b635f398a1460e01b7f79dd796f000000000000000000000000000000000000000000000000000000001818187bffffffffffffffffffffffffffffffffffffffffffffffffffffffff1916827bffffffffffffffffffffffffffffffffffffffffffffffffffffffff19161480612fe257507f79dd796f000000000000000000000000000000000000000000000000000000007bffffffffffffffffffffffffffffffffffffffffffffffffffffffff1916827bffffffffffffffffffffffffffffffffffffffffffffffffffffffff1916145b8061304a57507f4e2312e0000000000000000000000000000000000000000000000000000000007bffffffffffffffffffffffffffffffffffffffffffffffffffffffff1916827bffffffffffffffffffffffffffffffffffffffffffffffffffffffff1916145b8061305a575061305982613a41565b5b9050919050565b60007f000000000000000000000000000000000000000000000000000000000000000073ffffffffffffffffffffffffffffffffffffffff163073ffffffffffffffffffffffffffffffffffffffff161480156130dd57507f000000000000000000000000000000000000000000000000000000000000000046145b1561310a577f00000000000000000000000000000000000000000000000000000000000000009050613178565b6131757f00000000000000000000000000000000000000000000000000000000000000007f00000000000000000000000000000000000000000000000000000000000000007f0000000000000000000000000000000000000000000000000000000000000000613aab565b90505b90565b60008282604051602001613190929190615f87565b60405160208183030381529060405280519060200120905092915050565b6000807f7fffffffffffffffffffffffffffffff5d576e7357a4501ddfe92f46681b20a08360001c11156131e9576000600391509150613287565b60006001878787876040516000815260200160405260405161320e9493929190615fbe565b6020604051602081039080840390855afa158015613230573d6000803e3d6000fd5b505050602060405103519050600073ffffffffffffffffffffffffffffffffffffffff168173ffffffffffffffffffffffffffffffffffffffff160361327e57600060019250925050613287565b80600092509250505b94509492505050565b600060048111156132a4576132a361453f565b5b8160048111156132b7576132b661453f565b5b03156133f357600160048111156132d1576132d061453f565b5b8160048111156132e4576132e361453f565b5b03613324576040517f08c379a000000000000000000000000000000000000000000000000000000000815260040161331b9061604f565b60405180910390fd5b600260048111156133385761333761453f565b5b81600481111561334b5761334a61453f565b5b0361338b576040517f08c379a0000000000000000000000000000000000000000000000000000000008152600401613382906160bb565b60405180910390fd5b6003600481111561339f5761339e61453f565b5b8160048111156133b2576133b161453f565b5b036133f2576040517f08c379a00000000000000000000000000000000000000000000000000000000081526004016133e99061614d565b60405180910390fd5b5b50565b60006008600087815260200190815260200160002090508060030160008673ffffffffffffffffffffffffffffffffffffffff1673ffffffffffffffffffffffffffffffffffffffff16815260200190815260200160002060009054906101000a900460ff161561349c576040517f08c379a0000000000000000000000000000000000000000000000000000000008152600401613493906161df565b60405180910390fd5b60018160030160008773ffffffffffffffffffffffffffffffffffffffff1673ffffffffffffffffffffffffffffffffffffffff16815260200190815260200160002060006101000a81548160ff0219169083151502179055506000600281111561350a5761350961453f565b5b60ff168460ff1603613536578281600001600082825461352a919061538d565b925050819055506135f2565b6001600281111561354a5761354961453f565b5b60ff168460ff1603613576578281600101600082825461356a919061538d565b925050819055506135f1565b6002808111156135895761358861453f565b5b60ff168460ff16036135b557828160020160008282546135a9919061538d565b925050819055506135f0565b6040517f08c379a00000000000000000000000000000000000000000000000000000000081526004016135e790616271565b60405180910390fd5b5b5b505050505050565b60008160000160009054906101000a9004600f0b600f0b8260000160109054906101000a9004600f0b600f0b13159050919050565b60008260000160109054906101000a9004600f0b90508183600101600083600f0b600f0b815260200190815260200160002081905550600181018360000160106101000a8154816fffffffffffffffffffffffffffffffff0219169083600f0b6fffffffffffffffffffffffffffffffff160217905550505050565b600460009054906101000a900473ffffffffffffffffffffffffffffffffffffffff1673ffffffffffffffffffffffffffffffffffffffff1663e38335e5348686866000876040518763ffffffff1660e01b815260040161371095949392919061523e565b6000604051808303818588803b15801561372957600080fd5b505af115801561373d573d6000803e3d6000fd5b50505050505050505050565b60008160000160006101000a8154816fffffffffffffffffffffffffffffffff0219169083600f0b6fffffffffffffffffffffffffffffffff16021790555060008160000160106101000a8154816fffffffffffffffffffffffffffffffff0219169083600f0b6fffffffffffffffffffffffffffffffff16021790555050565b6000806001600084815260200190815260200160002090508060020160009054906101000a900460ff16156138035760079150506138d9565b8060020160019054906101000a900460ff16156138245760029150506138d9565b600061382f8461110a565b905060008103613874576040517f08c379a000000000000000000000000000000000000000000000000000000000815260040161386b906162dd565b60405180910390fd5b438110613886576000925050506138d9565b6000613891856117cc565b90504381106138a657600193505050506138d9565b6138af85613ae5565b80156138c057506138bf85613b2c565b5b156138d157600493505050506138d9565b600393505050505b919050565b60005b818310156139465760006138f58484613b57565b90508463ffffffff166139088783612ee7565b60000160009054906101000a900463ffffffff1663ffffffff16111561393057809250613940565b60018161393d919061538d565b93505b506138e1565b819050949350505050565b600080826000015167ffffffffffffffff16149050919050565b600067ffffffffffffffff80168211156139ba576040517f08c379a00000000000000000000000000000000000000000000000000000000081526004016139b19061636f565b60405180910390fd5b819050919050565b808260000160006101000a81548167ffffffffffffffff021916908367ffffffffffffffff1602179055505050565b600082511115613a045781518083602001fd5b806040517f08c379a0000000000000000000000000000000000000000000000000000000008152600401613a38919061404b565b60405180910390fd5b60007f01ffc9a7000000000000000000000000000000000000000000000000000000007bffffffffffffffffffffffffffffffffffffffffffffffffffffffff1916827bffffffffffffffffffffffffffffffffffffffffffffffffffffffff1916149050919050565b60008383834630604051602001613ac695949392919061638f565b6040516020818303038152906040528051906020012090509392505050565b60008060086000848152602001908152602001600020905080600201548160010154613b11919061538d565b613b22613b1d8561110a565b611abb565b1115915050919050565b6000806008600084815260200190815260200160002090508060000154816001015411915050919050565b60006002828418613b689190615e72565b828416613b75919061538d565b905092915050565b6000604051905090565b600080fd5b600080fd5b60007fffffffff0000000000000000000000000000000000000000000000000000000082169050919050565b613bc681613b91565b8114613bd157600080fd5b50565b600081359050613be381613bbd565b92915050565b600060208284031215613bff57613bfe613b87565b5b6000613c0d84828501613bd4565b91505092915050565b60008115159050919050565b613c2b81613c16565b82525050565b6000602082019050613c466000830184613c22565b92915050565b6000819050919050565b613c5f81613c4c565b82525050565b6000602082019050613c7a6000830184613c56565b92915050565b613c8981613c4c565b8114613c9457600080fd5b50565b600081359050613ca681613c80565b92915050565b600060ff82169050919050565b613cc281613cac565b8114613ccd57600080fd5b50565b600081359050613cdf81613cb9565b92915050565b600080fd5b600080fd5b600080fd5b60008083601f840112613d0a57613d09613ce5565b5b8235905067ffffffffffffffff811115613d2757613d26613cea565b5b602083019150836001820283011115613d4357613d42613cef565b5b9250929050565b600080fd5b6000601f19601f8301169050919050565b7f4e487b7100000000000000000000000000000000000000000000000000000000600052604160045260246000fd5b613d9882613d4f565b810181811067ffffffffffffffff82111715613db757613db6613d60565b5b80604052505050565b6000613dca613b7d565b9050613dd68282613d8f565b919050565b600067ffffffffffffffff821115613df657613df5613d60565b5b613dff82613d4f565b9050602081019050919050565b82818337600083830152505050565b6000613e2e613e2984613ddb565b613dc0565b905082815260208101848484011115613e4a57613e49613d4a565b5b613e55848285613e0c565b509392505050565b600082601f830112613e7257613e71613ce5565b5b8135613e82848260208601613e1b565b91505092915050565b6000819050919050565b613e9e81613e8b565b8114613ea957600080fd5b50565b600081359050613ebb81613e95565b92915050565b60008060008060008060008060e0898b031215613ee157613ee0613b87565b5b6000613eef8b828c01613c97565b9850506020613f008b828c01613cd0565b975050604089013567ffffffffffffffff811115613f2157613f20613b8c565b5b613f2d8b828c01613cf4565b9650965050606089013567ffffffffffffffff811115613f5057613f4f613b8c565b5b613f5c8b828c01613e5d565b9450506080613f6d8b828c01613cd0565b93505060a0613f7e8b828c01613eac565b92505060c0613f8f8b828c01613eac565b9150509295985092959890939650565b600060208284031215613fb557613fb4613b87565b5b6000613fc384828501613c97565b91505092915050565b600081519050919050565b600082825260208201905092915050565b60005b83811015614006578082015181840152602081019050613feb565b60008484015250505050565b600061401d82613fcc565b6140278185613fd7565b9350614037818560208601613fe8565b61404081613d4f565b840191505092915050565b600060208201905081810360008301526140658184614012565b905092915050565b600073ffffffffffffffffffffffffffffffffffffffff82169050919050565b60006140988261406d565b9050919050565b6140a88161408d565b81146140b357600080fd5b50565b6000813590506140c58161409f565b92915050565b600080600080608085870312156140e5576140e4613b87565b5b60006140f3878288016140b6565b9450506020614104878288016140b6565b935050604061411587828801613c97565b925050606085013567ffffffffffffffff81111561413657614135613b8c565b5b61414287828801613e5d565b91505092959194509250565b61415781613b91565b82525050565b6000602082019050614172600083018461414e565b92915050565b600067ffffffffffffffff82111561419357614192613d60565b5b602082029050602081019050919050565b60006141b76141b284614178565b613dc0565b905080838252602082019050602084028301858111156141da576141d9613cef565b5b835b8181101561420357806141ef88826140b6565b8452602084019350506020810190506141dc565b5050509392505050565b600082601f83011261422257614221613ce5565b5b81356142328482602086016141a4565b91505092915050565b600067ffffffffffffffff82111561425657614255613d60565b5b602082029050602081019050919050565b600061427a6142758461423b565b613dc0565b9050808382526020820190506020840283018581111561429d5761429c613cef565b5b835b818110156142c657806142b28882613c97565b84526020840193505060208101905061429f565b5050509392505050565b600082601f8301126142e5576142e4613ce5565b5b81356142f5848260208601614267565b91505092915050565b600067ffffffffffffffff82111561431957614318613d60565b5b602082029050602081019050919050565b600061433d614338846142fe565b613dc0565b905080838252602082019050602084028301858111156143605761435f613cef565b5b835b818110156143a757803567ffffffffffffffff81111561438557614384613ce5565b5b8086016143928982613e5d565b85526020850194505050602081019050614362565b5050509392505050565b600082601f8301126143c6576143c5613ce5565b5b81356143d684826020860161432a565b91505092915050565b600080600080608085870312156143f9576143f8613b87565b5b600085013567ffffffffffffffff81111561441757614416613b8c565b5b6144238782880161420d565b945050602085013567ffffffffffffffff81111561444457614443613b8c565b5b614450878288016142d0565b935050604085013567ffffffffffffffff81111561447157614470613b8c565b5b61447d878288016143b1565b925050606061448e87828801613eac565b91505092959194509250565b6144a381613e8b565b82525050565b60006020820190506144be600083018461449a565b92915050565b600080600080600060a086880312156144e0576144df613b87565b5b60006144ee88828901613c97565b95505060206144ff88828901613cd0565b945050604061451088828901613cd0565b935050606061452188828901613eac565b925050608061453288828901613eac565b9150509295509295909350565b7f4e487b7100000000000000000000000000000000000000000000000000000000600052602160045260246000fd5b6008811061457f5761457e61453f565b5b50565b60008190506145908261456e565b919050565b60006145a082614582565b9050919050565b6145b081614595565b82525050565b60006020820190506145cb60008301846145a7565b92915050565b600080604083850312156145e8576145e7613b87565b5b60006145f685828601613c97565b9250506020614607858286016140b6565b9150509250929050565b60006060820190506146266000830186613c56565b6146336020830185613c56565b6146406040830184613c56565b949350505050565b6000806040838503121561465f5761465e613b87565b5b600061466d85828601613c97565b925050602061467e85828601613cd0565b9150509250929050565b6000806000806000608086880312156146a4576146a3613b87565b5b60006146b288828901613c97565b95505060206146c388828901613cd0565b945050604086013567ffffffffffffffff8111156146e4576146e3613b8c565b5b6146f088828901613cf4565b9350935050606086013567ffffffffffffffff81111561471357614712613b8c565b5b61471f88828901613e5d565b9150509295509295909350565b6000806000806060858703121561474657614745613b87565b5b600061475487828801613c97565b945050602061476587828801613cd0565b935050604085013567ffffffffffffffff81111561478657614785613b8c565b5b61479287828801613cf4565b925092505092959194509250565b600067ffffffffffffffff8211156147bb576147ba613d60565b5b6147c482613d4f565b9050602081019050919050565b60006147e46147df846147a0565b613dc0565b905082815260208101848484011115614800576147ff613d4a565b5b61480b848285613e0c565b509392505050565b600082601f83011261482857614827613ce5565b5b81356148388482602086016147d1565b91505092915050565b6000806000806080858703121561485b5761485a613b87565b5b600085013567ffffffffffffffff81111561487957614878613b8c565b5b6148858782880161420d565b945050602085013567ffffffffffffffff8111156148a6576148a5613b8c565b5b6148b2878288016142d0565b935050604085013567ffffffffffffffff8111156148d3576148d2613b8c565b5b6148df878288016143b1565b925050606085013567ffffffffffffffff811115614900576148ff613b8c565b5b61490c87828801614813565b91505092959194509250565b60008060006060848603121561493157614930613b87565b5b600061493f868287016140b6565b935050602061495086828701613c97565b925050604084013567ffffffffffffffff81111561497157614970613b8c565b5b61497d86828701613e5d565b9150509250925092565b60006149928261406d565b9050919050565b60006149a482614987565b9050919050565b6149b481614999565b81146149bf57600080fd5b50565b6000813590506149d1816149ab565b92915050565b6000602082840312156149ed576149ec613b87565b5b60006149fb848285016149c2565b91505092915050565b600080600080600060a08688031215614a2057614a1f613b87565b5b6000614a2e888289016140b6565b9550506020614a3f888289016140b6565b945050604086013567ffffffffffffffff811115614a6057614a5f613b8c565b5b614a6c888289016142d0565b935050606086013567ffffffffffffffff811115614a8d57614a8c613b8c565b5b614a99888289016142d0565b925050608086013567ffffffffffffffff811115614aba57614ab9613b8c565b5b614ac688828901613e5d565b9150509295509295909350565b60008083601f840112614ae957614ae8613ce5565b5b8235905067ffffffffffffffff811115614b0657614b05613cea565b5b602083019150836001820283011115614b2257614b21613cef565b5b9250929050565b60008060008060608587031215614b4357614b42613b87565b5b6000614b51878288016140b6565b9450506020614b6287828801613c97565b935050604085013567ffffffffffffffff811115614b8357614b82613b8c565b5b614b8f87828801614ad3565b925092505092959194509250565b614ba68161408d565b82525050565b6000602082019050614bc16000830184614b9d565b92915050565b60008060408385031215614bde57614bdd613b87565b5b6000614bec858286016140b6565b9250506020614bfd85828601613c97565b9150509250929050565b600080600080600060a08688031215614c2357614c22613b87565b5b6000614c31888289016140b6565b9550506020614c42888289016140b6565b9450506040614c5388828901613c97565b9350506060614c6488828901613c97565b925050608086013567ffffffffffffffff811115614c8557614c84613b8c565b5b614c9188828901613e5d565b9150509295509295909350565b6000819050919050565b6000614cc3614cbe614cb98461406d565b614c9e565b61406d565b9050919050565b6000614cd582614ca8565b9050919050565b6000614ce782614cca565b9050919050565b614cf781614cdc565b82525050565b6000602082019050614d126000830184614cee565b92915050565b600081905092915050565b6000614d2f8385614d18565b9350614d3c838584613e0c565b82840190509392505050565b6000614d55828486614d23565b91508190509392505050565b614d6a81613cac565b82525050565b600060a082019050614d85600083018861449a565b614d926020830187613c56565b614d9f6040830186614d61565b614dac606083018561449a565b614db9608083018461449a565b9695505050505050565b7f476f7665726e6f723a206f6e6c79476f7665726e616e63650000000000000000600082015250565b6000614df9601883613fd7565b9150614e0482614dc3565b602082019050919050565b60006020820190508181036000830152614e2881614dec565b9050919050565b7f4e487b7100000000000000000000000000000000000000000000000000000000600052602260045260246000fd5b60006002820490506001821680614e7657607f821691505b602082108103614e8957614e88614e2f565b5b50919050565b7f476f7665726e6f723a2070726f706f73616c206e6f742073756363657373667560008201527f6c00000000000000000000000000000000000000000000000000000000000000602082015250565b6000614eeb602183613fd7565b9150614ef682614e8f565b604082019050919050565b60006020820190508181036000830152614f1a81614ede565b9050919050565b600081519050614f3081613c80565b92915050565b600060208284031215614f4c57614f4b613b87565b5b6000614f5a84828501614f21565b91505092915050565b600081519050919050565b600082825260208201905092915050565b6000819050602082019050919050565b614f988161408d565b82525050565b6000614faa8383614f8f565b60208301905092915050565b6000602082019050919050565b6000614fce82614f63565b614fd88185614f6e565b9350614fe383614f7f565b8060005b83811015615014578151614ffb8882614f9e565b975061500683614fb6565b925050600181019050614fe7565b5085935050505092915050565b600081519050919050565b600082825260208201905092915050565b6000819050602082019050919050565b61505681613c4c565b82525050565b6000615068838361504d565b60208301905092915050565b6000602082019050919050565b600061508c82615021565b615096818561502c565b93506150a18361503d565b8060005b838110156150d25781516150b9888261505c565b97506150c483615074565b9250506001810190506150a5565b5085935050505092915050565b600081519050919050565b600082825260208201905092915050565b6000819050602082019050919050565b600081519050919050565b600082825260208201905092915050565b60006151328261510b565b61513c8185615116565b935061514c818560208601613fe8565b61515581613d4f565b840191505092915050565b600061516c8383615127565b905092915050565b6000602082019050919050565b600061518c826150df565b61519681856150ea565b9350836020820285016151a8856150fb565b8060005b858110156151e457848403895281516151c58582615160565b94506151d083615174565b925060208a019950506001810190506151ac565b50829750879550505050505092915050565b6000819050919050565b60008160001b9050919050565b600061522861522361521e846151f6565b615200565b613e8b565b9050919050565b6152388161520d565b82525050565b600060a08201905081810360008301526152588188614fc3565b9050818103602083015261526c8187615081565b905081810360408301526152808186615181565b905061528f606083018561522f565b61529c608083018461449a565b9695505050505050565b6000815190506152b581613e95565b92915050565b6000602082840312156152d1576152d0613b87565b5b60006152df848285016152a6565b91505092915050565b600060c08201905081810360008301526153028189614fc3565b905081810360208301526153168188615081565b9050818103604083015261532a8187615181565b9050615339606083018661522f565b615346608083018561449a565b61535360a0830184613c56565b979650505050505050565b7f4e487b7100000000000000000000000000000000000000000000000000000000600052601160045260246000fd5b600061539882613c4c565b91506153a383613c4c565b92508282019050808211156153bb576153ba61535e565b5b92915050565b60006040820190506153d66000830185613c56565b6153e36020830184613c56565b9392505050565b60006060820190506153ff600083018661449a565b61540c6020830185613c56565b6154196040830184614d61565b949350505050565b600061542c82613c4c565b915061543783613c4c565b925082820390508181111561544f5761544e61535e565b5b92915050565b7f4e487b7100000000000000000000000000000000000000000000000000000000600052603260045260246000fd5b6000608082019050818103600083015261549e8187614fc3565b905081810360208301526154b28186615081565b905081810360408301526154c68185615181565b90506154d5606083018461449a565b95945050505050565b7f53616665436173743a2076616c756520646f65736e27742066697420696e203260008201527f3234206269747300000000000000000000000000000000000000000000000000602082015250565b600061553a602783613fd7565b9150615545826154de565b604082019050919050565b600060208201905081810360008301526155698161552d565b9050919050565b7f53616665436173743a2076616c756520646f65736e27742066697420696e203360008201527f3220626974730000000000000000000000000000000000000000000000000000602082015250565b60006155cc602683613fd7565b91506155d782615570565b604082019050919050565b600060208201905081810360008301526155fb816155bf565b9050919050565b7f476f7665726e6f723a20766f7465206e6f742063757272656e746c792061637460008201527f6976650000000000000000000000000000000000000000000000000000000000602082015250565b600061565e602383613fd7565b915061566982615602565b604082019050919050565b6000602082019050818103600083015261568d81615651565b9050919050565b60006080820190506156a96000830187613c56565b6156b66020830186614d61565b6156c36040830185613c56565b81810360608301526156d58184614012565b905095945050505050565b600082825260208201905092915050565b60006156fc8261510b565b61570681856156e0565b9350615716818560208601613fe8565b61571f81613d4f565b840191505092915050565b600060a08201905061573f6000830188613c56565b61574c6020830187614d61565b6157596040830186613c56565b818103606083015261576b8185614012565b9050818103608083015261577f81846156f1565b90509695505050505050565b7f476f7665726e6f72566f74657351756f72756d4672616374696f6e3a2071756f60008201527f72756d4e756d657261746f72206f7665722071756f72756d44656e6f6d696e6160208201527f746f720000000000000000000000000000000000000000000000000000000000604082015250565b600061580d604383613fd7565b91506158188261578b565b606082019050919050565b6000602082019050818103600083015261583c81615800565b9050919050565b600061584e82613c4c565b91507fffffffffffffffffffffffffffffffffffffffffffffffffffffffffffffffff82036158805761587f61535e565b5b600182019050919050565b61589481613c16565b811461589f57600080fd5b50565b6000815190506158b18161588b565b92915050565b6000602082840312156158cd576158cc613b87565b5b60006158db848285016158a2565b91505092915050565b7f436865636b706f696e74733a20626c6f636b206e6f7420796574206d696e6564600082015250565b600061591a602083613fd7565b9150615925826158e4565b602082019050919050565b600060208201905081810360008301526159498161590d565b9050919050565b7f476f7665726e6f723a2070726f706f73657220766f7465732062656c6f77207060008201527f726f706f73616c207468726573686f6c64000000000000000000000000000000602082015250565b60006159ac603183613fd7565b91506159b782615950565b604082019050919050565b600060208201905081810360008301526159db8161599f565b9050919050565b7f476f7665726e6f723a20696e76616c69642070726f706f73616c206c656e677460008201527f6800000000000000000000000000000000000000000000000000000000000000602082015250565b6000615a3e602183613fd7565b9150615a49826159e2565b604082019050919050565b60006020820190508181036000830152615a6d81615a31565b9050919050565b7f476f7665726e6f723a20656d7074792070726f706f73616c0000000000000000600082015250565b6000615aaa601883613fd7565b9150615ab582615a74565b602082019050919050565b60006020820190508181036000830152615ad981615a9d565b9050919050565b7f476f7665726e6f723a2070726f706f73616c20616c726561647920657869737460008201527f7300000000000000000000000000000000000000000000000000000000000000602082015250565b6000615b3c602183613fd7565b9150615b4782615ae0565b604082019050919050565b60006020820190508181036000830152615b6b81615b2f565b9050919050565b600067ffffffffffffffff82169050919050565b6000615b9182615b72565b9150615b9c83615b72565b9250828201905067ffffffffffffffff811115615bbc57615bbb61535e565b5b92915050565b600081519050919050565b600082825260208201905092915050565b6000819050602082019050919050565b600082825260208201905092915050565b6000615c0a82613fcc565b615c148185615bee565b9350615c24818560208601613fe8565b615c2d81613d4f565b840191505092915050565b6000615c448383615bff565b905092915050565b6000602082019050919050565b6000615c6482615bc2565b615c6e8185615bcd565b935083602082028501615c8085615bde565b8060005b85811015615cbc5784840389528151615c9d8582615c38565b9450615ca883615c4c565b925060208a01995050600181019050615c84565b50829750879550505050505092915050565b6000615ce9615ce4615cdf84615b72565b614c9e565b613c4c565b9050919050565b615cf981615cce565b82525050565b600061012082019050615d15600083018c613c56565b615d22602083018b614b9d565b8181036040830152615d34818a614fc3565b90508181036060830152615d488189615081565b90508181036080830152615d5c8188615c59565b905081810360a0830152615d708187615181565b9050615d7f60c0830186615cf0565b615d8c60e0830185615cf0565b818103610100830152615d9f8184614012565b90509a9950505050505050505050565b6000604082019050615dc46000830185614b9d565b615dd16020830184613c56565b9392505050565b6000604082019050615ded6000830185614b9d565b615dfa6020830184614b9d565b9392505050565b6000615e0c82613c4c565b9150615e1783613c4c565b9250828202615e2581613c4c565b91508282048414831517615e3c57615e3b61535e565b5b5092915050565b7f4e487b7100000000000000000000000000000000000000000000000000000000600052601260045260246000fd5b6000615e7d82613c4c565b9150615e8883613c4c565b925082615e9857615e97615e43565b5b828204905092915050565b7f436865636b706f696e743a20696e76616c6964206b6579000000000000000000600082015250565b6000615ed9601783613fd7565b9150615ee482615ea3565b602082019050919050565b60006020820190508181036000830152615f0881615ecc565b9050919050565b600081905092915050565b7f1901000000000000000000000000000000000000000000000000000000000000600082015250565b6000615f50600283615f0f565b9150615f5b82615f1a565b600282019050919050565b6000819050919050565b615f81615f7c82613e8b565b615f66565b82525050565b6000615f9282615f43565b9150615f9e8285615f70565b602082019150615fae8284615f70565b6020820191508190509392505050565b6000608082019050615fd3600083018761449a565b615fe06020830186614d61565b615fed604083018561449a565b615ffa606083018461449a565b95945050505050565b7f45434453413a20696e76616c6964207369676e61747572650000000000000000600082015250565b6000616039601883613fd7565b915061604482616003565b602082019050919050565b600060208201905081810360008301526160688161602c565b9050919050565b7f45434453413a20696e76616c6964207369676e6174757265206c656e67746800600082015250565b60006160a5601f83613fd7565b91506160b08261606f565b602082019050919050565b600060208201905081810360008301526160d481616098565b9050919050565b7f45434453413a20696e76616c6964207369676e6174757265202773272076616c60008201527f7565000000000000000000000000000000000000000000000000000000000000602082015250565b6000616137602283613fd7565b9150616142826160db565b604082019050919050565b600060208201905081810360008301526161668161612a565b9050919050565b7f476f7665726e6f72566f74696e6753696d706c653a20766f746520616c72656160008201527f6479206361737400000000000000000000000000000000000000000000000000602082015250565b60006161c9602783613fd7565b91506161d48261616d565b604082019050919050565b600060208201905081810360008301526161f8816161bc565b9050919050565b7f476f7665726e6f72566f74696e6753696d706c653a20696e76616c696420766160008201527f6c756520666f7220656e756d20566f7465547970650000000000000000000000602082015250565b600061625b603583613fd7565b9150616266826161ff565b604082019050919050565b6000602082019050818103600083015261628a8161624e565b9050919050565b7f476f7665726e6f723a20756e6b6e6f776e2070726f706f73616c206964000000600082015250565b60006162c7601d83613fd7565b91506162d282616291565b602082019050919050565b600060208201905081810360008301526162f6816162ba565b9050919050565b7f53616665436173743a2076616c756520646f65736e27742066697420696e203660008201527f3420626974730000000000000000000000000000000000000000000000000000602082015250565b6000616359602683613fd7565b9150616364826162fd565b604082019050919050565b600060208201905081810360008301526163888161634c565b9050919050565b600060a0820190506163a4600083018861449a565b6163b1602083018761449a565b6163be604083018661449a565b6163cb6060830185613c56565b6163d86080830184614b9d565b969550505050505056fe476f7665726e6f723a2072656c617920726576657274656420776974686f7574206d657373616765a2646970667358221220ca127a4080890b6aac947fe531f67379e7cede977f2b2ef8eee3c231a995d99564736f6c63430008110033",
  "linkReferences": {},
  "deployedLinkReferences": {}
}