{
  "_format": "hh-sol-artifact-1",
  "contractName": "ERC721VotesMock",
  "sourceName": "contracts/mocks/ERC721VotesMock.sol",
  "abi": [
    {
      "inputs": [
        {
          "internalType": "string",
          "name": "name",
          "type": "string"
        },
        {
          "internalType": "string",
          "name": "symbol",
          "type": "string"
        }
      ],
      "stateMutability": "nonpayable",
      "type": "constructor"
    },
    {
      "anonymous": false,
      "inputs": [
        {
          "indexed": true,
          "internalType": "address",
          "name": "owner",
          "type": "address"
        },
        {
          "indexed": true,
          "internalType": "address",
          "name": "approved",
          "type": "address"
        },
        {
          "indexed": true,
          "internalType": "uint256",
          "name": "tokenId",
          "type": "uint256"
        }
      ],
      "name": "Approval",
      "type": "event"
    },
    {
      "anonymous": false,
      "inputs": [
        {
          "indexed": true,
          "internalType": "address",
          "name": "owner",
          "type": "address"
        },
        {
          "indexed": true,
          "internalType": "address",
          "name": "operator",
          "type": "address"
        },
        {
          "indexed": false,
          "internalType": "bool",
          "name": "approved",
          "type": "bool"
        }
      ],
      "name": "ApprovalForAll",
      "type": "event"
    },
    {
      "anonymous": false,
      "inputs": [
        {
          "indexed": true,
          "internalType": "address",
          "name": "delegator",
          "type": "address"
        },
        {
          "indexed": true,
          "internalType": "address",
          "name": "fromDelegate",
          "type": "address"
        },
        {
          "indexed": true,
          "internalType": "address",
          "name": "toDelegate",
          "type": "address"
        }
      ],
      "name": "DelegateChanged",
      "type": "event"
    },
    {
      "anonymous": false,
      "inputs": [
        {
          "indexed": true,
          "internalType": "address",
          "name": "delegate",
          "type": "address"
        },
        {
          "indexed": false,
          "internalType": "uint256",
          "name": "previousBalance",
          "type": "uint256"
        },
        {
          "indexed": false,
          "internalType": "uint256",
          "name": "newBalance",
          "type": "uint256"
        }
      ],
      "name": "DelegateVotesChanged",
      "type": "event"
    },
    {
      "anonymous": false,
      "inputs": [
        {
          "indexed": true,
          "internalType": "address",
          "name": "from",
          "type": "address"
        },
        {
          "indexed": true,
          "internalType": "address",
          "name": "to",
          "type": "address"
        },
        {
          "indexed": true,
          "internalType": "uint256",
          "name": "tokenId",
          "type": "uint256"
        }
      ],
      "name": "Transfer",
      "type": "event"
    },
    {
      "inputs": [],
      "name": "DOMAIN_SEPARATOR",
      "outputs": [
        {
          "internalType": "bytes32",
          "name": "",
          "type": "bytes32"
        }
      ],
      "stateMutability": "view",
      "type": "function"
    },
    {
      "inputs": [
        {
          "internalType": "address",
          "name": "to",
          "type": "address"
        },
        {
          "internalType": "uint256",
          "name": "tokenId",
          "type": "uint256"
        }
      ],
      "name": "approve",
      "outputs": [],
      "stateMutability": "nonpayable",
      "type": "function"
    },
    {
      "inputs": [
        {
          "internalType": "address",
          "name": "owner",
          "type": "address"
        }
      ],
      "name": "balanceOf",
      "outputs": [
        {
          "internalType": "uint256",
          "name": "",
          "type": "uint256"
        }
      ],
      "stateMutability": "view",
      "type": "function"
    },
    {
      "inputs": [
        {
          "internalType": "uint256",
          "name": "tokenId",
          "type": "uint256"
        }
      ],
      "name": "burn",
      "outputs": [],
      "stateMutability": "nonpayable",
      "type": "function"
    },
    {
      "inputs": [
        {
          "internalType": "address",
          "name": "delegatee",
          "type": "address"
        }
      ],
      "name": "delegate",
      "outputs": [],
      "stateMutability": "nonpayable",
      "type": "function"
    },
    {
      "inputs": [
        {
          "internalType": "address",
          "name": "delegatee",
          "type": "address"
        },
        {
          "internalType": "uint256",
          "name": "nonce",
          "type": "uint256"
        },
        {
          "internalType": "uint256",
          "name": "expiry",
          "type": "uint256"
        },
        {
          "internalType": "uint8",
          "name": "v",
          "type": "uint8"
        },
        {
          "internalType": "bytes32",
          "name": "r",
          "type": "bytes32"
        },
        {
          "internalType": "bytes32",
          "name": "s",
          "type": "bytes32"
        }
      ],
      "name": "delegateBySig",
      "outputs": [],
      "stateMutability": "nonpayable",
      "type": "function"
    },
    {
      "inputs": [
        {
          "internalType": "address",
          "name": "account",
          "type": "address"
        }
      ],
      "name": "delegates",
      "outputs": [
        {
          "internalType": "address",
          "name": "",
          "type": "address"
        }
      ],
      "stateMutability": "view",
      "type": "function"
    },
    {
      "inputs": [
        {
          "internalType": "uint256",
          "name": "tokenId",
          "type": "uint256"
        }
      ],
      "name": "getApproved",
      "outputs": [
        {
          "internalType": "address",
          "name": "",
          "type": "address"
        }
      ],
      "stateMutability": "view",
      "type": "function"
    },
    {
      "inputs": [],
      "name": "getChainId",
      "outputs": [
        {
          "internalType": "uint256",
          "name": "",
          "type": "uint256"
        }
      ],
      "stateMutability": "view",
      "type": "function"
    },
    {
      "inputs": [
        {
          "internalType": "uint256",
          "name": "blockNumber",
          "type": "uint256"
        }
      ],
      "name": "getPastTotalSupply",
      "outputs": [
        {
          "internalType": "uint256",
          "name": "",
          "type": "uint256"
        }
      ],
      "stateMutability": "view",
      "type": "function"
    },
    {
      "inputs": [
        {
          "internalType": "address",
          "name": "account",
          "type": "address"
        },
        {
          "internalType": "uint256",
          "name": "blockNumber",
          "type": "uint256"
        }
      ],
      "name": "getPastVotes",
      "outputs": [
        {
          "internalType": "uint256",
          "name": "",
          "type": "uint256"
        }
      ],
      "stateMutability": "view",
      "type": "function"
    },
    {
      "inputs": [],
      "name": "getTotalSupply",
      "outputs": [
        {
          "internalType": "uint256",
          "name": "",
          "type": "uint256"
        }
      ],
      "stateMutability": "view",
      "type": "function"
    },
    {
      "inputs": [
        {
          "internalType": "address",
          "name": "account",
          "type": "address"
        }
      ],
      "name": "getVotes",
      "outputs": [
        {
          "internalType": "uint256",
          "name": "",
          "type": "uint256"
        }
      ],
      "stateMutability": "view",
      "type": "function"
    },
    {
      "inputs": [
        {
          "internalType": "address",
          "name": "owner",
          "type": "address"
        },
        {
          "internalType": "address",
          "name": "operator",
          "type": "address"
        }
      ],
      "name": "isApprovedForAll",
      "outputs": [
        {
          "internalType": "bool",
          "name": "",
          "type": "bool"
        }
      ],
      "stateMutability": "view",
      "type": "function"
    },
    {
      "inputs": [
        {
          "internalType": "address",
          "name": "account",
          "type": "address"
        },
        {
          "internalType": "uint256",
          "name": "tokenId",
          "type": "uint256"
        }
      ],
      "name": "mint",
      "outputs": [],
      "stateMutability": "nonpayable",
      "type": "function"
    },
    {
      "inputs": [],
      "name": "name",
      "outputs": [
        {
          "internalType": "string",
          "name": "",
          "type": "string"
        }
      ],
      "stateMutability": "view",
      "type": "function"
    },
    {
      "inputs": [
        {
          "internalType": "address",
          "name": "owner",
          "type": "address"
        }
      ],
      "name": "nonces",
      "outputs": [
        {
          "internalType": "uint256",
          "name": "",
          "type": "uint256"
        }
      ],
      "stateMutability": "view",
      "type": "function"
    },
    {
      "inputs": [
        {
          "internalType": "uint256",
          "name": "tokenId",
          "type": "uint256"
        }
      ],
      "name": "ownerOf",
      "outputs": [
        {
          "internalType": "address",
          "name": "",
          "type": "address"
        }
      ],
      "stateMutability": "view",
      "type": "function"
    },
    {
      "inputs": [
        {
          "internalType": "address",
          "name": "from",
          "type": "address"
        },
        {
          "internalType": "address",
          "name": "to",
          "type": "address"
        },
        {
          "internalType": "uint256",
          "name": "tokenId",
          "type": "uint256"
        }
      ],
      "name": "safeTransferFrom",
      "outputs": [],
      "stateMutability": "nonpayable",
      "type": "function"
    },
    {
      "inputs": [
        {
          "internalType": "address",
          "name": "from",
          "type": "address"
        },
        {
          "internalType": "address",
          "name": "to",
          "type": "address"
        },
        {
          "internalType": "uint256",
          "name": "tokenId",
          "type": "uint256"
        },
        {
          "internalType": "bytes",
          "name": "data",
          "type": "bytes"
        }
      ],
      "name": "safeTransferFrom",
      "outputs": [],
      "stateMutability": "nonpayable",
      "type": "function"
    },
    {
      "inputs": [
        {
          "internalType": "address",
          "name": "operator",
          "type": "address"
        },
        {
          "internalType": "bool",
          "name": "approved",
          "type": "bool"
        }
      ],
      "name": "setApprovalForAll",
      "outputs": [],
      "stateMutability": "nonpayable",
      "type": "function"
    },
    {
      "inputs": [
        {
          "internalType": "bytes4",
          "name": "interfaceId",
          "type": "bytes4"
        }
      ],
      "name": "supportsInterface",
      "outputs": [
        {
          "internalType": "bool",
          "name": "",
          "type": "bool"
        }
      ],
      "stateMutability": "view",
      "type": "function"
    },
    {
      "inputs": [],
      "name": "symbol",
      "outputs": [
        {
          "internalType": "string",
          "name": "",
          "type": "string"
        }
      ],
      "stateMutability": "view",
      "type": "function"
    },
    {
      "inputs": [
        {
          "internalType": "uint256",
          "name": "tokenId",
          "type": "uint256"
        }
      ],
      "name": "tokenURI",
      "outputs": [
        {
          "internalType": "string",
          "name": "",
          "type": "string"
        }
      ],
      "stateMutability": "view",
      "type": "function"
    },
    {
      "inputs": [
        {
          "internalType": "address",
          "name": "from",
          "type": "address"
        },
        {
          "internalType": "address",
          "name": "to",
          "type": "address"
        },
        {
          "internalType": "uint256",
          "name": "tokenId",
          "type": "uint256"
        }
      ],
      "name": "transferFrom",
      "outputs": [],
      "stateMutability": "nonpayable",
      "type": "function"
    }
  ],
  "bytecode": "0x6101406040523480156200001257600080fd5b5060405162004dd338038062004dd3833981810160405281019062000038919062000320565b816040518060400160405280600181526020017f310000000000000000000000000000000000000000000000000000000000000081525083838160009081620000829190620005f0565b508060019081620000949190620005f0565b50505060008280519060200120905060008280519060200120905060007f8b73c3c69bb8fe3d512ecc4cf759cc79239f7b179b0ffacaa9a75d522b39400f90508260e081815250508161010081815250504660a08181525050620001008184846200015160201b60201c565b608081815250503073ffffffffffffffffffffffffffffffffffffffff1660c08173ffffffffffffffffffffffffffffffffffffffff168152505080610120818152505050505050505050620007a5565b600083838346306040516020016200016e95949392919062000748565b6040516020818303038152906040528051906020012090509392505050565b6000604051905090565b600080fd5b600080fd5b600080fd5b600080fd5b6000601f19601f8301169050919050565b7f4e487b7100000000000000000000000000000000000000000000000000000000600052604160045260246000fd5b620001f682620001ab565b810181811067ffffffffffffffff82111715620002185762000217620001bc565b5b80604052505050565b60006200022d6200018d565b90506200023b8282620001eb565b919050565b600067ffffffffffffffff8211156200025e576200025d620001bc565b5b6200026982620001ab565b9050602081019050919050565b60005b838110156200029657808201518184015260208101905062000279565b60008484015250505050565b6000620002b9620002b38462000240565b62000221565b905082815260208101848484011115620002d857620002d7620001a6565b5b620002e584828562000276565b509392505050565b600082601f830112620003055762000304620001a1565b5b815162000317848260208601620002a2565b91505092915050565b600080604083850312156200033a576200033962000197565b5b600083015167ffffffffffffffff8111156200035b576200035a6200019c565b5b6200036985828601620002ed565b925050602083015167ffffffffffffffff8111156200038d576200038c6200019c565b5b6200039b85828601620002ed565b9150509250929050565b600081519050919050565b7f4e487b7100000000000000000000000000000000000000000000000000000000600052602260045260246000fd5b60006002820490506001821680620003f857607f821691505b6020821081036200040e576200040d620003b0565b5b50919050565b60008190508160005260206000209050919050565b60006020601f8301049050919050565b600082821b905092915050565b600060088302620004787fffffffffffffffffffffffffffffffffffffffffffffffffffffffffffffffff8262000439565b62000484868362000439565b95508019841693508086168417925050509392505050565b6000819050919050565b6000819050919050565b6000620004d1620004cb620004c5846200049c565b620004a6565b6200049c565b9050919050565b6000819050919050565b620004ed83620004b0565b62000505620004fc82620004d8565b84845462000446565b825550505050565b600090565b6200051c6200050d565b62000529818484620004e2565b505050565b5b8181101562000551576200054560008262000512565b6001810190506200052f565b5050565b601f821115620005a0576200056a8162000414565b620005758462000429565b8101602085101562000585578190505b6200059d620005948562000429565b8301826200052e565b50505b505050565b600082821c905092915050565b6000620005c560001984600802620005a5565b1980831691505092915050565b6000620005e08383620005b2565b9150826002028217905092915050565b620005fb82620003a5565b67ffffffffffffffff811115620006175762000616620001bc565b5b620006238254620003df565b6200063082828562000555565b600060209050601f83116001811462000668576000841562000653578287015190505b6200065f8582620005d2565b865550620006cf565b601f198416620006788662000414565b60005b82811015620006a2578489015182556001820191506020850194506020810190506200067b565b86831015620006c25784890151620006be601f891682620005b2565b8355505b6001600288020188555050505b505050505050565b6000819050919050565b620006ec81620006d7565b82525050565b620006fd816200049c565b82525050565b600073ffffffffffffffffffffffffffffffffffffffff82169050919050565b6000620007308262000703565b9050919050565b620007428162000723565b82525050565b600060a0820190506200075f6000830188620006e1565b6200076e6020830187620006e1565b6200077d6040830186620006e1565b6200078c6060830185620006f2565b6200079b608083018462000737565b9695505050505050565b60805160a05160c05160e05161010051610120516145de620007f5600039600061149b015260006114dd015260006114bc015260006113f1015260006114470152600061147001526145de6000f3fe608060405234801561001057600080fd5b50600436106101735760003560e01c80635c19a95c116100de5780639ab24eb011610097578063c3cda52011610071578063c3cda52014610480578063c4e41b221461049c578063c87b56dd146104ba578063e985e9c5146104ea57610173565b80639ab24eb014610418578063a22cb46514610448578063b88d4fde1461046457610173565b80635c19a95c1461031e5780636352211e1461033a57806370a082311461036a5780637ecebe001461039a5780638e539e8c146103ca57806395d89b41146103fa57610173565b80633644e515116101305780633644e5151461024c5780633a46b1a81461026a57806340c10f191461029a57806342842e0e146102b657806342966c68146102d2578063587cde1e146102ee57610173565b806301ffc9a71461017857806306fdde03146101a8578063081812fc146101c6578063095ea7b3146101f657806323b872dd146102125780633408e4701461022e575b600080fd5b610192600480360381019061018d919061305a565b61051a565b60405161019f91906130a2565b60405180910390f35b6101b06105fc565b6040516101bd919061314d565b60405180910390f35b6101e060048036038101906101db91906131a5565b61068e565b6040516101ed9190613213565b60405180910390f35b610210600480360381019061020b919061325a565b6106d4565b005b61022c6004803603810190610227919061329a565b6107eb565b005b61023661084b565b60405161024391906132fc565b60405180910390f35b610254610853565b6040516102619190613330565b60405180910390f35b610284600480360381019061027f919061325a565b610862565b60405161029191906132fc565b60405180910390f35b6102b460048036038101906102af919061325a565b6108bd565b005b6102d060048036038101906102cb919061329a565b6108cb565b005b6102ec60048036038101906102e791906131a5565b6108eb565b005b6103086004803603810190610303919061334b565b6108f7565b6040516103159190613213565b60405180910390f35b6103386004803603810190610333919061334b565b610960565b005b610354600480360381019061034f91906131a5565b61097a565b6040516103619190613213565b60405180910390f35b610384600480360381019061037f919061334b565b610a00565b60405161039191906132fc565b60405180910390f35b6103b460048036038101906103af919061334b565b610ab7565b6040516103c191906132fc565b60405180910390f35b6103e460048036038101906103df91906131a5565b610b07565b6040516103f191906132fc565b60405180910390f35b610402610b66565b60405161040f919061314d565b60405180910390f35b610432600480360381019061042d919061334b565b610bf8565b60405161043f91906132fc565b60405180910390f35b610462600480360381019061045d91906133a4565b610c66565b005b61047e60048036038101906104799190613519565b610c7c565b005b61049a60048036038101906104959190613601565b610cde565b005b6104a4610de2565b6040516104b191906132fc565b60405180910390f35b6104d460048036038101906104cf91906131a5565b610df1565b6040516104e1919061314d565b60405180910390f35b61050460048036038101906104ff919061368e565b610e59565b60405161051191906130a2565b60405180910390f35b60007f80ac58cd000000000000000000000000000000000000000000000000000000007bffffffffffffffffffffffffffffffffffffffffffffffffffffffff1916827bffffffffffffffffffffffffffffffffffffffffffffffffffffffff191614806105e557507f5b5e139f000000000000000000000000000000000000000000000000000000007bffffffffffffffffffffffffffffffffffffffffffffffffffffffff1916827bffffffffffffffffffffffffffffffffffffffffffffffffffffffff1916145b806105f557506105f482610eed565b5b9050919050565b60606000805461060b906136fd565b80601f0160208091040260200160405190810160405280929190818152602001828054610637906136fd565b80156106845780601f1061065957610100808354040283529160200191610684565b820191906000526020600020905b81548152906001019060200180831161066757829003601f168201915b5050505050905090565b600061069982610f57565b6004600083815260200190815260200160002060009054906101000a900473ffffffffffffffffffffffffffffffffffffffff169050919050565b60006106df8261097a565b90508073ffffffffffffffffffffffffffffffffffffffff168373ffffffffffffffffffffffffffffffffffffffff160361074f576040517f08c379a0000000000000000000000000000000000000000000000000000000008152600401610746906137a0565b60405180910390fd5b8073ffffffffffffffffffffffffffffffffffffffff1661076e610fa2565b73ffffffffffffffffffffffffffffffffffffffff16148061079d575061079c81610797610fa2565b610e59565b5b6107dc576040517f08c379a00000000000000000000000000000000000000000000000000000000081526004016107d390613832565b60405180910390fd5b6107e68383610faa565b505050565b6107fc6107f6610fa2565b82611063565b61083b576040517f08c379a0000000000000000000000000000000000000000000000000000000008152600401610832906138c4565b60405180910390fd5b6108468383836110f8565b505050565b600046905090565b600061085d6113ed565b905090565b60006108b582600760008673ffffffffffffffffffffffffffffffffffffffff1673ffffffffffffffffffffffffffffffffffffffff16815260200190815260200160002061150790919063ffffffff16565b905092915050565b6108c7828261166c565b5050565b6108e683838360405180602001604052806000815250610c7c565b505050565b6108f481611885565b50565b6000600660008373ffffffffffffffffffffffffffffffffffffffff1673ffffffffffffffffffffffffffffffffffffffff16815260200190815260200160002060009054906101000a900473ffffffffffffffffffffffffffffffffffffffff169050919050565b600061096a610fa2565b905061097681836119cf565b5050565b60008061098683611ae3565b9050600073ffffffffffffffffffffffffffffffffffffffff168173ffffffffffffffffffffffffffffffffffffffff16036109f7576040517f08c379a00000000000000000000000000000000000000000000000000000000081526004016109ee90613930565b60405180910390fd5b80915050919050565b60008073ffffffffffffffffffffffffffffffffffffffff168273ffffffffffffffffffffffffffffffffffffffff1603610a70576040517f08c379a0000000000000000000000000000000000000000000000000000000008152600401610a67906139c2565b60405180910390fd5b600360008373ffffffffffffffffffffffffffffffffffffffff1673ffffffffffffffffffffffffffffffffffffffff168152602001908152602001600020549050919050565b6000610b00600960008473ffffffffffffffffffffffffffffffffffffffff1673ffffffffffffffffffffffffffffffffffffffff168152602001908152602001600020611b20565b9050919050565b6000438210610b4b576040517f08c379a0000000000000000000000000000000000000000000000000000000008152600401610b4290613a2e565b60405180910390fd5b610b5f82600861150790919063ffffffff16565b9050919050565b606060018054610b75906136fd565b80601f0160208091040260200160405190810160405280929190818152602001828054610ba1906136fd565b8015610bee5780601f10610bc357610100808354040283529160200191610bee565b820191906000526020600020905b815481529060010190602001808311610bd157829003601f168201915b5050505050905090565b6000610c41600760008473ffffffffffffffffffffffffffffffffffffffff1673ffffffffffffffffffffffffffffffffffffffff168152602001908152602001600020611b2e565b7bffffffffffffffffffffffffffffffffffffffffffffffffffffffff169050919050565b610c78610c71610fa2565b8383611b98565b5050565b610c8d610c87610fa2565b83611063565b610ccc576040517f08c379a0000000000000000000000000000000000000000000000000000000008152600401610cc3906138c4565b60405180910390fd5b610cd884848484611d04565b50505050565b83421115610d21576040517f08c379a0000000000000000000000000000000000000000000000000000000008152600401610d1890613a9a565b60405180910390fd5b6000610d83610d7b7fe48329057bfd03d55e49b547132e39cffd9c1820ad7b9d4c5307691425d15adf898989604051602001610d609493929190613aba565b60405160208183030381529060405280519060200120611d60565b858585611d7a565b9050610d8e81611da5565b8614610dcf576040517f08c379a0000000000000000000000000000000000000000000000000000000008152600401610dc690613b4b565b60405180910390fd5b610dd981886119cf565b50505050505050565b6000610dec611e03565b905090565b6060610dfc82610f57565b6000610e06611e32565b90506000815111610e265760405180602001604052806000815250610e51565b80610e3084611e49565b604051602001610e41929190613ba7565b6040516020818303038152906040525b915050919050565b6000600560008473ffffffffffffffffffffffffffffffffffffffff1673ffffffffffffffffffffffffffffffffffffffff16815260200190815260200160002060008373ffffffffffffffffffffffffffffffffffffffff1673ffffffffffffffffffffffffffffffffffffffff16815260200190815260200160002060009054906101000a900460ff16905092915050565b60007f01ffc9a7000000000000000000000000000000000000000000000000000000007bffffffffffffffffffffffffffffffffffffffffffffffffffffffff1916827bffffffffffffffffffffffffffffffffffffffffffffffffffffffff1916149050919050565b610f6081611f17565b610f9f576040517f08c379a0000000000000000000000000000000000000000000000000000000008152600401610f9690613930565b60405180910390fd5b50565b600033905090565b816004600083815260200190815260200160002060006101000a81548173ffffffffffffffffffffffffffffffffffffffff021916908373ffffffffffffffffffffffffffffffffffffffff160217905550808273ffffffffffffffffffffffffffffffffffffffff1661101d8361097a565b73ffffffffffffffffffffffffffffffffffffffff167f8c5be1e5ebec7d5bd14f71427d1e84f3dd0314c0f7b2291e5b200ac8c7c3b92560405160405180910390a45050565b60008061106f8361097a565b90508073ffffffffffffffffffffffffffffffffffffffff168473ffffffffffffffffffffffffffffffffffffffff1614806110b157506110b08185610e59565b5b806110ef57508373ffffffffffffffffffffffffffffffffffffffff166110d78461068e565b73ffffffffffffffffffffffffffffffffffffffff16145b91505092915050565b8273ffffffffffffffffffffffffffffffffffffffff166111188261097a565b73ffffffffffffffffffffffffffffffffffffffff161461116e576040517f08c379a000000000000000000000000000000000000000000000000000000000815260040161116590613c3d565b60405180910390fd5b600073ffffffffffffffffffffffffffffffffffffffff168273ffffffffffffffffffffffffffffffffffffffff16036111dd576040517f08c379a00000000000000000000000000000000000000000000000000000000081526004016111d490613ccf565b60405180910390fd5b6111e8838383611f58565b8273ffffffffffffffffffffffffffffffffffffffff166112088261097a565b73ffffffffffffffffffffffffffffffffffffffff161461125e576040517f08c379a000000000000000000000000000000000000000000000000000000000815260040161125590613c3d565b60405180910390fd5b6004600082815260200190815260200160002060006101000a81549073ffffffffffffffffffffffffffffffffffffffff02191690556001600360008573ffffffffffffffffffffffffffffffffffffffff1673ffffffffffffffffffffffffffffffffffffffff168152602001908152602001600020600082825403925050819055506001600360008473ffffffffffffffffffffffffffffffffffffffff1673ffffffffffffffffffffffffffffffffffffffff16815260200190815260200160002060008282540192505081905550816002600083815260200190815260200160002060006101000a81548173ffffffffffffffffffffffffffffffffffffffff021916908373ffffffffffffffffffffffffffffffffffffffff160217905550808273ffffffffffffffffffffffffffffffffffffffff168473ffffffffffffffffffffffffffffffffffffffff167fddf252ad1be2c89b69c2b068fc378daa952ba7f163c4a11628f55a4df523b3ef60405160405180910390a46113e8838383611f5d565b505050565b60007f000000000000000000000000000000000000000000000000000000000000000073ffffffffffffffffffffffffffffffffffffffff163073ffffffffffffffffffffffffffffffffffffffff1614801561146957507f000000000000000000000000000000000000000000000000000000000000000046145b15611496577f00000000000000000000000000000000000000000000000000000000000000009050611504565b6115017f00000000000000000000000000000000000000000000000000000000000000007f00000000000000000000000000000000000000000000000000000000000000007f0000000000000000000000000000000000000000000000000000000000000000611f79565b90505b90565b600043821061154b576040517f08c379a000000000000000000000000000000000000000000000000000000000815260040161154290613d3b565b60405180910390fd5b600061155683611fb3565b905060008460000180549050905060008082905060058311156115d957600061157e84612006565b846115899190613d8a565b905061159888600001826120ff565b60000160009054906101000a900463ffffffff1663ffffffff168563ffffffff1610156115c7578091506115d7565b6001816115d49190613dbe565b92505b505b60006115ea88600001868585612114565b90506000811461163e5761160d886000016001836116089190613d8a565b6120ff565b60000160049054906101000a90047bffffffffffffffffffffffffffffffffffffffffffffffffffffffff16611641565b60005b7bffffffffffffffffffffffffffffffffffffffffffffffffffffffff169550505050505092915050565b600073ffffffffffffffffffffffffffffffffffffffff168273ffffffffffffffffffffffffffffffffffffffff16036116db576040517f08c379a00000000000000000000000000000000000000000000000000000000081526004016116d290613e3e565b60405180910390fd5b6116e481611f17565b15611724576040517f08c379a000000000000000000000000000000000000000000000000000000000815260040161171b90613eaa565b60405180910390fd5b61173060008383611f58565b61173981611f17565b15611779576040517f08c379a000000000000000000000000000000000000000000000000000000000815260040161177090613eaa565b60405180910390fd5b6001600360008473ffffffffffffffffffffffffffffffffffffffff1673ffffffffffffffffffffffffffffffffffffffff16815260200190815260200160002060008282540192505081905550816002600083815260200190815260200160002060006101000a81548173ffffffffffffffffffffffffffffffffffffffff021916908373ffffffffffffffffffffffffffffffffffffffff160217905550808273ffffffffffffffffffffffffffffffffffffffff16600073ffffffffffffffffffffffffffffffffffffffff167fddf252ad1be2c89b69c2b068fc378daa952ba7f163c4a11628f55a4df523b3ef60405160405180910390a461188160008383611f5d565b5050565b60006118908261097a565b905061189e81600084611f58565b6118a78261097a565b90506004600083815260200190815260200160002060006101000a81549073ffffffffffffffffffffffffffffffffffffffff02191690556001600360008373ffffffffffffffffffffffffffffffffffffffff1673ffffffffffffffffffffffffffffffffffffffff168152602001908152602001600020600082825403925050819055506002600083815260200190815260200160002060006101000a81549073ffffffffffffffffffffffffffffffffffffffff021916905581600073ffffffffffffffffffffffffffffffffffffffff168273ffffffffffffffffffffffffffffffffffffffff167fddf252ad1be2c89b69c2b068fc378daa952ba7f163c4a11628f55a4df523b3ef60405160405180910390a46119cb81600084611f5d565b5050565b60006119da836108f7565b905081600660008573ffffffffffffffffffffffffffffffffffffffff1673ffffffffffffffffffffffffffffffffffffffff16815260200190815260200160002060006101000a81548173ffffffffffffffffffffffffffffffffffffffff021916908373ffffffffffffffffffffffffffffffffffffffff1602179055508173ffffffffffffffffffffffffffffffffffffffff168173ffffffffffffffffffffffffffffffffffffffff168473ffffffffffffffffffffffffffffffffffffffff167f3134e8a2e6d97e929a7e54011ea5485d7d196dd5f0ba4d4ef95803e8e3fc257f60405160405180910390a4611ade8183611ad986612187565b612199565b505050565b60006002600083815260200190815260200160002060009054906101000a900473ffffffffffffffffffffffffffffffffffffffff169050919050565b600081600001549050919050565b6000808260000180549050905060008114611b8d57611b5c83600001600183611b579190613d8a565b6120ff565b60000160049054906101000a90047bffffffffffffffffffffffffffffffffffffffffffffffffffffffff16611b90565b60005b915050919050565b8173ffffffffffffffffffffffffffffffffffffffff168373ffffffffffffffffffffffffffffffffffffffff1603611c06576040517f08c379a0000000000000000000000000000000000000000000000000000000008152600401611bfd90613f16565b60405180910390fd5b80600560008573ffffffffffffffffffffffffffffffffffffffff1673ffffffffffffffffffffffffffffffffffffffff16815260200190815260200160002060008473ffffffffffffffffffffffffffffffffffffffff1673ffffffffffffffffffffffffffffffffffffffff16815260200190815260200160002060006101000a81548160ff0219169083151502179055508173ffffffffffffffffffffffffffffffffffffffff168373ffffffffffffffffffffffffffffffffffffffff167f17307eab39ab6107e8899845ad3d59bd9653f200f220920489ca2b5937696c3183604051611cf791906130a2565b60405180910390a3505050565b611d0f8484846110f8565b611d1b848484846123a6565b611d5a576040517f08c379a0000000000000000000000000000000000000000000000000000000008152600401611d5190613fa8565b60405180910390fd5b50505050565b6000611d73611d6d6113ed565b8361252d565b9050919050565b6000806000611d8b87878787612560565b91509150611d9881612642565b8192505050949350505050565b600080600960008473ffffffffffffffffffffffffffffffffffffffff1673ffffffffffffffffffffffffffffffffffffffff1681526020019081526020016000209050611df281611b20565b9150611dfd816127a8565b50919050565b6000611e0f6008611b2e565b7bffffffffffffffffffffffffffffffffffffffffffffffffffffffff16905090565b606060405180602001604052806000815250905090565b606060006001611e58846127be565b01905060008167ffffffffffffffff811115611e7757611e766133ee565b5b6040519080825280601f01601f191660200182016040528015611ea95781602001600182028036833780820191505090505b509050600082602001820190505b600115611f0c578080600190039150507f3031323334353637383961626364656600000000000000000000000000000000600a86061a8153600a8581611f0057611eff613fc8565b5b04945060008503611eb7575b819350505050919050565b60008073ffffffffffffffffffffffffffffffffffffffff16611f3983611ae3565b73ffffffffffffffffffffffffffffffffffffffff1614159050919050565b505050565b611f6983836001612911565b611f748383836129cf565b505050565b60008383834630604051602001611f94959493929190613ff7565b6040516020818303038152906040528051906020012090509392505050565b600063ffffffff8016821115611ffe576040517f08c379a0000000000000000000000000000000000000000000000000000000008152600401611ff5906140bc565b60405180910390fd5b819050919050565b600080820361201857600090506120fa565b60006001612025846129d4565b901c6001901b9050600181848161203f5761203e613fc8565b5b048201901c9050600181848161205857612057613fc8565b5b048201901c9050600181848161207157612070613fc8565b5b048201901c9050600181848161208a57612089613fc8565b5b048201901c905060018184816120a3576120a2613fc8565b5b048201901c905060018184816120bc576120bb613fc8565b5b048201901c905060018184816120d5576120d4613fc8565b5b048201901c90506120f6818285816120f0576120ef613fc8565b5b04612ab5565b9150505b919050565b60008260005281602060002001905092915050565b60005b8183101561217c57600061212b8484612ace565b90508463ffffffff1661213e87836120ff565b60000160009054906101000a900463ffffffff1663ffffffff16111561216657809250612176565b6001816121739190613dbe565b93505b50612117565b819050949350505050565b600061219282610a00565b9050919050565b8173ffffffffffffffffffffffffffffffffffffffff168373ffffffffffffffffffffffffffffffffffffffff16141580156121d55750600081115b156123a157600073ffffffffffffffffffffffffffffffffffffffff168373ffffffffffffffffffffffffffffffffffffffff16146122bd57600080612266612af484600760008973ffffffffffffffffffffffffffffffffffffffff1673ffffffffffffffffffffffffffffffffffffffff168152602001908152602001600020612b0a9092919063ffffffff16565b915091508473ffffffffffffffffffffffffffffffffffffffff167fdec2bacdd2f05b59de34da9b523dff8be42e5e38e818c82fdb0bae774387a72483836040516122b29291906140dc565b60405180910390a250505b600073ffffffffffffffffffffffffffffffffffffffff168273ffffffffffffffffffffffffffffffffffffffff16146123a057600080612349612b5684600760008873ffffffffffffffffffffffffffffffffffffffff1673ffffffffffffffffffffffffffffffffffffffff168152602001908152602001600020612b0a9092919063ffffffff16565b915091508373ffffffffffffffffffffffffffffffffffffffff167fdec2bacdd2f05b59de34da9b523dff8be42e5e38e818c82fdb0bae774387a72483836040516123959291906140dc565b60405180910390a250505b5b505050565b60006123c78473ffffffffffffffffffffffffffffffffffffffff16612b6c565b15612520578373ffffffffffffffffffffffffffffffffffffffff1663150b7a026123f0610fa2565b8786866040518563ffffffff1660e01b8152600401612412949392919061415a565b6020604051808303816000875af192505050801561244e57506040513d601f19601f8201168201806040525081019061244b91906141bb565b60015b6124d0573d806000811461247e576040519150601f19603f3d011682016040523d82523d6000602084013e612483565b606091505b5060008151036124c8576040517f08c379a00000000000000000000000000000000000000000000000000000000081526004016124bf90613fa8565b60405180910390fd5b805181602001fd5b63150b7a0260e01b7bffffffffffffffffffffffffffffffffffffffffffffffffffffffff1916817bffffffffffffffffffffffffffffffffffffffffffffffffffffffff191614915050612525565b600190505b949350505050565b60008282604051602001612542929190614255565b60405160208183030381529060405280519060200120905092915050565b6000807f7fffffffffffffffffffffffffffffff5d576e7357a4501ddfe92f46681b20a08360001c111561259b576000600391509150612639565b6000600187878787604051600081526020016040526040516125c0949392919061429b565b6020604051602081039080840390855afa1580156125e2573d6000803e3d6000fd5b505050602060405103519050600073ffffffffffffffffffffffffffffffffffffffff168173ffffffffffffffffffffffffffffffffffffffff160361263057600060019250925050612639565b80600092509250505b94509492505050565b60006004811115612656576126556142e0565b5b816004811115612669576126686142e0565b5b03156127a55760016004811115612683576126826142e0565b5b816004811115612696576126956142e0565b5b036126d6576040517f08c379a00000000000000000000000000000000000000000000000000000000081526004016126cd9061435b565b60405180910390fd5b600260048111156126ea576126e96142e0565b5b8160048111156126fd576126fc6142e0565b5b0361273d576040517f08c379a0000000000000000000000000000000000000000000000000000000008152600401612734906143c7565b60405180910390fd5b60036004811115612751576127506142e0565b5b816004811115612764576127636142e0565b5b036127a4576040517f08c379a000000000000000000000000000000000000000000000000000000000815260040161279b90614459565b60405180910390fd5b5b50565b6001816000016000828254019250508190555050565b600080600090507a184f03e93ff9f4daa797ed6e38ed64bf6a1f010000000000000000831061281c577a184f03e93ff9f4daa797ed6e38ed64bf6a1f010000000000000000838161281257612811613fc8565b5b0492506040810190505b6d04ee2d6d415b85acef81000000008310612859576d04ee2d6d415b85acef8100000000838161284f5761284e613fc8565b5b0492506020810190505b662386f26fc10000831061288857662386f26fc10000838161287e5761287d613fc8565b5b0492506010810190505b6305f5e10083106128b1576305f5e10083816128a7576128a6613fc8565b5b0492506008810190505b61271083106128d65761271083816128cc576128cb613fc8565b5b0492506004810190505b606483106128f957606483816128ef576128ee613fc8565b5b0492506002810190505b600a8310612908576001810190505b80915050919050565b600073ffffffffffffffffffffffffffffffffffffffff168373ffffffffffffffffffffffffffffffffffffffff16036129605761295d612b56826008612b0a9092919063ffffffff16565b50505b600073ffffffffffffffffffffffffffffffffffffffff168273ffffffffffffffffffffffffffffffffffffffff16036129af576129ac612af4826008612b0a9092919063ffffffff16565b50505b6129ca6129bb846108f7565b6129c4846108f7565b83612199565b505050565b505050565b600080600090506000608084901c11156129f657608083901c92506080810190505b6000604084901c1115612a1157604083901c92506040810190505b6000602084901c1115612a2c57602083901c92506020810190505b6000601084901c1115612a4757601083901c92506010810190505b6000600884901c1115612a6257600883901c92506008810190505b6000600484901c1115612a7d57600483901c92506004810190505b6000600284901c1115612a9857600283901c92506002810190505b6000600184901c1115612aac576001810190505b80915050919050565b6000818310612ac45781612ac6565b825b905092915050565b60006002828418612adf9190614479565b828416612aec9190613dbe565b905092915050565b60008183612b029190613d8a565b905092915050565b600080612b4a85612b45612b1d88611b2e565b7bffffffffffffffffffffffffffffffffffffffffffffffffffffffff16868863ffffffff16565b612b8f565b91509150935093915050565b60008183612b649190613dbe565b905092915050565b6000808273ffffffffffffffffffffffffffffffffffffffff163b119050919050565b600080612bb084600001612ba243611fb3565b612bab86612bfd565b612c68565b817bffffffffffffffffffffffffffffffffffffffffffffffffffffffff169150807bffffffffffffffffffffffffffffffffffffffffffffffffffffffff169050915091509250929050565b60007bffffffffffffffffffffffffffffffffffffffffffffffffffffffff8016821115612c60576040517f08c379a0000000000000000000000000000000000000000000000000000000008152600401612c579061451c565b60405180910390fd5b819050919050565b6000806000858054905090506000811115612efe576000612c9587600184612c909190613d8a565b6120ff565b6040518060400160405290816000820160009054906101000a900463ffffffff1663ffffffff1663ffffffff1681526020016000820160049054906101000a90047bffffffffffffffffffffffffffffffffffffffffffffffffffffffff167bffffffffffffffffffffffffffffffffffffffffffffffffffffffff167bffffffffffffffffffffffffffffffffffffffffffffffffffffffff168152505090508563ffffffff16816000015163ffffffff161115612d89576040517f08c379a0000000000000000000000000000000000000000000000000000000008152600401612d8090614588565b60405180910390fd5b8563ffffffff16816000015163ffffffff1603612e0d5784612db788600185612db29190613d8a565b6120ff565b60000160046101000a8154817bffffffffffffffffffffffffffffffffffffffffffffffffffffffff02191690837bffffffffffffffffffffffffffffffffffffffffffffffffffffffff160217905550612eed565b8660405180604001604052808863ffffffff168152602001877bffffffffffffffffffffffffffffffffffffffffffffffffffffffff168152509080600181540180825580915050600190039060005260206000200160009091909190915060008201518160000160006101000a81548163ffffffff021916908363ffffffff16021790555060208201518160000160046101000a8154817bffffffffffffffffffffffffffffffffffffffffffffffffffffffff02191690837bffffffffffffffffffffffffffffffffffffffffffffffffffffffff16021790555050505b806020015185935093505050612fe6565b8560405180604001604052808763ffffffff168152602001867bffffffffffffffffffffffffffffffffffffffffffffffffffffffff168152509080600181540180825580915050600190039060005260206000200160009091909190915060008201518160000160006101000a81548163ffffffff021916908363ffffffff16021790555060208201518160000160046101000a8154817bffffffffffffffffffffffffffffffffffffffffffffffffffffffff02191690837bffffffffffffffffffffffffffffffffffffffffffffffffffffffff160217905550505060008492509250505b935093915050565b6000604051905090565b600080fd5b600080fd5b60007fffffffff0000000000000000000000000000000000000000000000000000000082169050919050565b61303781613002565b811461304257600080fd5b50565b6000813590506130548161302e565b92915050565b6000602082840312156130705761306f612ff8565b5b600061307e84828501613045565b91505092915050565b60008115159050919050565b61309c81613087565b82525050565b60006020820190506130b76000830184613093565b92915050565b600081519050919050565b600082825260208201905092915050565b60005b838110156130f75780820151818401526020810190506130dc565b60008484015250505050565b6000601f19601f8301169050919050565b600061311f826130bd565b61312981856130c8565b93506131398185602086016130d9565b61314281613103565b840191505092915050565b600060208201905081810360008301526131678184613114565b905092915050565b6000819050919050565b6131828161316f565b811461318d57600080fd5b50565b60008135905061319f81613179565b92915050565b6000602082840312156131bb576131ba612ff8565b5b60006131c984828501613190565b91505092915050565b600073ffffffffffffffffffffffffffffffffffffffff82169050919050565b60006131fd826131d2565b9050919050565b61320d816131f2565b82525050565b60006020820190506132286000830184613204565b92915050565b613237816131f2565b811461324257600080fd5b50565b6000813590506132548161322e565b92915050565b6000806040838503121561327157613270612ff8565b5b600061327f85828601613245565b925050602061329085828601613190565b9150509250929050565b6000806000606084860312156132b3576132b2612ff8565b5b60006132c186828701613245565b93505060206132d286828701613245565b92505060406132e386828701613190565b9150509250925092565b6132f68161316f565b82525050565b600060208201905061331160008301846132ed565b92915050565b6000819050919050565b61332a81613317565b82525050565b60006020820190506133456000830184613321565b92915050565b60006020828403121561336157613360612ff8565b5b600061336f84828501613245565b91505092915050565b61338181613087565b811461338c57600080fd5b50565b60008135905061339e81613378565b92915050565b600080604083850312156133bb576133ba612ff8565b5b60006133c985828601613245565b92505060206133da8582860161338f565b9150509250929050565b600080fd5b600080fd5b7f4e487b7100000000000000000000000000000000000000000000000000000000600052604160045260246000fd5b61342682613103565b810181811067ffffffffffffffff82111715613445576134446133ee565b5b80604052505050565b6000613458612fee565b9050613464828261341d565b919050565b600067ffffffffffffffff821115613484576134836133ee565b5b61348d82613103565b9050602081019050919050565b82818337600083830152505050565b60006134bc6134b784613469565b61344e565b9050828152602081018484840111156134d8576134d76133e9565b5b6134e384828561349a565b509392505050565b600082601f830112613500576134ff6133e4565b5b81356135108482602086016134a9565b91505092915050565b6000806000806080858703121561353357613532612ff8565b5b600061354187828801613245565b945050602061355287828801613245565b935050604061356387828801613190565b925050606085013567ffffffffffffffff81111561358457613583612ffd565b5b613590878288016134eb565b91505092959194509250565b600060ff82169050919050565b6135b28161359c565b81146135bd57600080fd5b50565b6000813590506135cf816135a9565b92915050565b6135de81613317565b81146135e957600080fd5b50565b6000813590506135fb816135d5565b92915050565b60008060008060008060c0878903121561361e5761361d612ff8565b5b600061362c89828a01613245565b965050602061363d89828a01613190565b955050604061364e89828a01613190565b945050606061365f89828a016135c0565b935050608061367089828a016135ec565b92505060a061368189828a016135ec565b9150509295509295509295565b600080604083850312156136a5576136a4612ff8565b5b60006136b385828601613245565b92505060206136c485828601613245565b9150509250929050565b7f4e487b7100000000000000000000000000000000000000000000000000000000600052602260045260246000fd5b6000600282049050600182168061371557607f821691505b602082108103613728576137276136ce565b5b50919050565b7f4552433732313a20617070726f76616c20746f2063757272656e74206f776e6560008201527f7200000000000000000000000000000000000000000000000000000000000000602082015250565b600061378a6021836130c8565b91506137958261372e565b604082019050919050565b600060208201905081810360008301526137b98161377d565b9050919050565b7f4552433732313a20617070726f76652063616c6c6572206973206e6f7420746f60008201527f6b656e206f776e6572206f7220617070726f76656420666f7220616c6c000000602082015250565b600061381c603d836130c8565b9150613827826137c0565b604082019050919050565b6000602082019050818103600083015261384b8161380f565b9050919050565b7f4552433732313a2063616c6c6572206973206e6f7420746f6b656e206f776e6560008201527f72206f7220617070726f76656400000000000000000000000000000000000000602082015250565b60006138ae602d836130c8565b91506138b982613852565b604082019050919050565b600060208201905081810360008301526138dd816138a1565b9050919050565b7f4552433732313a20696e76616c696420746f6b656e2049440000000000000000600082015250565b600061391a6018836130c8565b9150613925826138e4565b602082019050919050565b600060208201905081810360008301526139498161390d565b9050919050565b7f4552433732313a2061646472657373207a65726f206973206e6f74206120766160008201527f6c6964206f776e65720000000000000000000000000000000000000000000000602082015250565b60006139ac6029836130c8565b91506139b782613950565b604082019050919050565b600060208201905081810360008301526139db8161399f565b9050919050565b7f566f7465733a20626c6f636b206e6f7420796574206d696e6564000000000000600082015250565b6000613a18601a836130c8565b9150613a23826139e2565b602082019050919050565b60006020820190508181036000830152613a4781613a0b565b9050919050565b7f566f7465733a207369676e617475726520657870697265640000000000000000600082015250565b6000613a846018836130c8565b9150613a8f82613a4e565b602082019050919050565b60006020820190508181036000830152613ab381613a77565b9050919050565b6000608082019050613acf6000830187613321565b613adc6020830186613204565b613ae960408301856132ed565b613af660608301846132ed565b95945050505050565b7f566f7465733a20696e76616c6964206e6f6e6365000000000000000000000000600082015250565b6000613b356014836130c8565b9150613b4082613aff565b602082019050919050565b60006020820190508181036000830152613b6481613b28565b9050919050565b600081905092915050565b6000613b81826130bd565b613b8b8185613b6b565b9350613b9b8185602086016130d9565b80840191505092915050565b6000613bb38285613b76565b9150613bbf8284613b76565b91508190509392505050565b7f4552433732313a207472616e736665722066726f6d20696e636f72726563742060008201527f6f776e6572000000000000000000000000000000000000000000000000000000602082015250565b6000613c276025836130c8565b9150613c3282613bcb565b604082019050919050565b60006020820190508181036000830152613c5681613c1a565b9050919050565b7f4552433732313a207472616e7366657220746f20746865207a65726f2061646460008201527f7265737300000000000000000000000000000000000000000000000000000000602082015250565b6000613cb96024836130c8565b9150613cc482613c5d565b604082019050919050565b60006020820190508181036000830152613ce881613cac565b9050919050565b7f436865636b706f696e74733a20626c6f636b206e6f7420796574206d696e6564600082015250565b6000613d256020836130c8565b9150613d3082613cef565b602082019050919050565b60006020820190508181036000830152613d5481613d18565b9050919050565b7f4e487b7100000000000000000000000000000000000000000000000000000000600052601160045260246000fd5b6000613d958261316f565b9150613da08361316f565b9250828203905081811115613db857613db7613d5b565b5b92915050565b6000613dc98261316f565b9150613dd48361316f565b9250828201905080821115613dec57613deb613d5b565b5b92915050565b7f4552433732313a206d696e7420746f20746865207a65726f2061646472657373600082015250565b6000613e286020836130c8565b9150613e3382613df2565b602082019050919050565b60006020820190508181036000830152613e5781613e1b565b9050919050565b7f4552433732313a20746f6b656e20616c7265616479206d696e74656400000000600082015250565b6000613e94601c836130c8565b9150613e9f82613e5e565b602082019050919050565b60006020820190508181036000830152613ec381613e87565b9050919050565b7f4552433732313a20617070726f766520746f2063616c6c657200000000000000600082015250565b6000613f006019836130c8565b9150613f0b82613eca565b602082019050919050565b60006020820190508181036000830152613f2f81613ef3565b9050919050565b7f4552433732313a207472616e7366657220746f206e6f6e20455243373231526560008201527f63656976657220696d706c656d656e7465720000000000000000000000000000602082015250565b6000613f926032836130c8565b9150613f9d82613f36565b604082019050919050565b60006020820190508181036000830152613fc181613f85565b9050919050565b7f4e487b7100000000000000000000000000000000000000000000000000000000600052601260045260246000fd5b600060a08201905061400c6000830188613321565b6140196020830187613321565b6140266040830186613321565b61403360608301856132ed565b6140406080830184613204565b9695505050505050565b7f53616665436173743a2076616c756520646f65736e27742066697420696e203360008201527f3220626974730000000000000000000000000000000000000000000000000000602082015250565b60006140a66026836130c8565b91506140b18261404a565b604082019050919050565b600060208201905081810360008301526140d581614099565b9050919050565b60006040820190506140f160008301856132ed565b6140fe60208301846132ed565b9392505050565b600081519050919050565b600082825260208201905092915050565b600061412c82614105565b6141368185614110565b93506141468185602086016130d9565b61414f81613103565b840191505092915050565b600060808201905061416f6000830187613204565b61417c6020830186613204565b61418960408301856132ed565b818103606083015261419b8184614121565b905095945050505050565b6000815190506141b58161302e565b92915050565b6000602082840312156141d1576141d0612ff8565b5b60006141df848285016141a6565b91505092915050565b7f1901000000000000000000000000000000000000000000000000000000000000600082015250565b600061421e600283613b6b565b9150614229826141e8565b600282019050919050565b6000819050919050565b61424f61424a82613317565b614234565b82525050565b600061426082614211565b915061426c828561423e565b60208201915061427c828461423e565b6020820191508190509392505050565b6142958161359c565b82525050565b60006080820190506142b06000830187613321565b6142bd602083018661428c565b6142ca6040830185613321565b6142d76060830184613321565b95945050505050565b7f4e487b7100000000000000000000000000000000000000000000000000000000600052602160045260246000fd5b7f45434453413a20696e76616c6964207369676e61747572650000000000000000600082015250565b60006143456018836130c8565b91506143508261430f565b602082019050919050565b6000602082019050818103600083015261437481614338565b9050919050565b7f45434453413a20696e76616c6964207369676e6174757265206c656e67746800600082015250565b60006143b1601f836130c8565b91506143bc8261437b565b602082019050919050565b600060208201905081810360008301526143e0816143a4565b9050919050565b7f45434453413a20696e76616c6964207369676e6174757265202773272076616c60008201527f7565000000000000000000000000000000000000000000000000000000000000602082015250565b60006144436022836130c8565b915061444e826143e7565b604082019050919050565b6000602082019050818103600083015261447281614436565b9050919050565b60006144848261316f565b915061448f8361316f565b92508261449f5761449e613fc8565b5b828204905092915050565b7f53616665436173743a2076616c756520646f65736e27742066697420696e203260008201527f3234206269747300000000000000000000000000000000000000000000000000602082015250565b60006145066027836130c8565b9150614511826144aa565b604082019050919050565b60006020820190508181036000830152614535816144f9565b9050919050565b7f436865636b706f696e743a20696e76616c6964206b6579000000000000000000600082015250565b60006145726017836130c8565b915061457d8261453c565b602082019050919050565b600060208201905081810360008301526145a181614565565b905091905056fea26469706673582212204900a15c1251a93209b3c36ab35215aa312e0a7764ea18fa8ce5ad7d13afc57764736f6c63430008110033",
  "linkReferences": {},
  "deployedLinkReferences": {}
}