{
  "_format": "hh-sol-artifact-1",
  "contractName": "StringsMock",
  "sourceName": "contracts/mocks/StringsMock.sol",
  "abi": [
    {
      "inputs": [
        {
          "internalType": "address",
          "name": "addr",
          "type": "address"
        }
      ],
      "name": "toHexString",
      "outputs": [
        {
          "internalType": "string",
          "name": "",
          "type": "string"
        }
      ],
      "stateMutability": "pure",
      "type": "function"
    },
    {
      "inputs": [
        {
          "internalType": "uint256",
          "name": "value",
          "type": "uint256"
        },
        {
          "internalType": "uint256",
          "name": "length",
          "type": "uint256"
        }
      ],
      "name": "toHexString",
      "outputs": [
        {
          "internalType": "string",
          "name": "",
          "type": "string"
        }
      ],
      "stateMutability": "pure",
      "type": "function"
    },
    {
      "inputs": [
        {
          "internalType": "uint256",
          "name": "value",
          "type": "uint256"
        }
      ],
      "name": "toHexString",
      "outputs": [
        {
          "internalType": "string",
          "name": "",
          "type": "string"
        }
      ],
      "stateMutability": "pure",
      "type": "function"
    },
    {
      "inputs": [
        {
          "internalType": "uint256",
          "name": "value",
          "type": "uint256"
        }
      ],
      "name": "toString",
      "outputs": [
        {
          "internalType": "string",
          "name": "",
          "type": "string"
        }
      ],
      "stateMutability": "pure",
      "type": "function"
    }
  ],
  "bytecode": "0x608060405234801561001057600080fd5b50610a75806100206000396000f3fe608060405234801561001057600080fd5b506004361061004c5760003560e01c80631bb0c6651461005157806363e1cbea146100815780636900a3ae146100b15780638fba8d5c146100e1575b600080fd5b61006b600480360381019061006691906106f6565b610111565b60405161007891906107b3565b60405180910390f35b61009b6004803603810190610096919061080b565b610123565b6040516100a891906107b3565b60405180910390f35b6100cb60048036038101906100c6919061084b565b610137565b6040516100d891906107b3565b60405180910390f35b6100fb60048036038101906100f6919061084b565b610149565b60405161010891906107b3565b60405180910390f35b606061011c8261015b565b9050919050565b606061012f8383610188565b905092915050565b6060610142826103c4565b9050919050565b606061015482610492565b9050919050565b60606101818273ffffffffffffffffffffffffffffffffffffffff16601460ff16610188565b9050919050565b60606000600283600261019b91906108a7565b6101a591906108e9565b67ffffffffffffffff8111156101be576101bd61091d565b5b6040519080825280601f01601f1916602001820160405280156101f05781602001600182028036833780820191505090505b5090507f3000000000000000000000000000000000000000000000000000000000000000816000815181106102285761022761094c565b5b60200101907effffffffffffffffffffffffffffffffffffffffffffffffffffffffffffff1916908160001a9053507f78000000000000000000000000000000000000000000000000000000000000008160018151811061028c5761028b61094c565b5b60200101907effffffffffffffffffffffffffffffffffffffffffffffffffffffffffffff1916908160001a905350600060018460026102cc91906108a7565b6102d691906108e9565b90505b6001811115610376577f3031323334353637383961626364656600000000000000000000000000000000600f8616601081106103185761031761094c565b5b1a60f81b82828151811061032f5761032e61094c565b5b60200101907effffffffffffffffffffffffffffffffffffffffffffffffffffffffffffff1916908160001a905350600485901c94508061036f9061097b565b90506102d9565b50600084146103ba576040517f08c379a00000000000000000000000000000000000000000000000000000000081526004016103b1906109f0565b60405180910390fd5b8091505092915050565b6060600060016103d3846104b0565b01905060008167ffffffffffffffff8111156103f2576103f161091d565b5b6040519080825280601f01601f1916602001820160405280156104245781602001600182028036833780820191505090505b509050600082602001820190505b600115610487578080600190039150507f3031323334353637383961626364656600000000000000000000000000000000600a86061a8153600a858161047b5761047a610a10565b5b04945060008503610432575b819350505050919050565b60606104a98260016104a385610603565b01610188565b9050919050565b600080600090507a184f03e93ff9f4daa797ed6e38ed64bf6a1f010000000000000000831061050e577a184f03e93ff9f4daa797ed6e38ed64bf6a1f010000000000000000838161050457610503610a10565b5b0492506040810190505b6d04ee2d6d415b85acef8100000000831061054b576d04ee2d6d415b85acef8100000000838161054157610540610a10565b5b0492506020810190505b662386f26fc10000831061057a57662386f26fc1000083816105705761056f610a10565b5b0492506010810190505b6305f5e10083106105a3576305f5e100838161059957610598610a10565b5b0492506008810190505b61271083106105c85761271083816105be576105bd610a10565b5b0492506004810190505b606483106105eb57606483816105e1576105e0610a10565b5b0492506002810190505b600a83106105fa576001810190505b80915050919050565b600080600090506000608084901c111561062557608083901c92506010810190505b6000604084901c111561064057604083901c92506008810190505b6000602084901c111561065b57602083901c92506004810190505b6000601084901c111561067657601083901c92506002810190505b6000600884901c111561068a576001810190505b80915050919050565b600080fd5b600073ffffffffffffffffffffffffffffffffffffffff82169050919050565b60006106c382610698565b9050919050565b6106d3816106b8565b81146106de57600080fd5b50565b6000813590506106f0816106ca565b92915050565b60006020828403121561070c5761070b610693565b5b600061071a848285016106e1565b91505092915050565b600081519050919050565b600082825260208201905092915050565b60005b8381101561075d578082015181840152602081019050610742565b60008484015250505050565b6000601f19601f8301169050919050565b600061078582610723565b61078f818561072e565b935061079f81856020860161073f565b6107a881610769565b840191505092915050565b600060208201905081810360008301526107cd818461077a565b905092915050565b6000819050919050565b6107e8816107d5565b81146107f357600080fd5b50565b600081359050610805816107df565b92915050565b6000806040838503121561082257610821610693565b5b6000610830858286016107f6565b9250506020610841858286016107f6565b9150509250929050565b60006020828403121561086157610860610693565b5b600061086f848285016107f6565b91505092915050565b7f4e487b7100000000000000000000000000000000000000000000000000000000600052601160045260246000fd5b60006108b2826107d5565b91506108bd836107d5565b92508282026108cb816107d5565b915082820484148315176108e2576108e1610878565b5b5092915050565b60006108f4826107d5565b91506108ff836107d5565b925082820190508082111561091757610916610878565b5b92915050565b7f4e487b7100000000000000000000000000000000000000000000000000000000600052604160045260246000fd5b7f4e487b7100000000000000000000000000000000000000000000000000000000600052603260045260246000fd5b6000610986826107d5565b91506000820361099957610998610878565b5b600182039050919050565b7f537472696e67733a20686578206c656e67746820696e73756666696369656e74600082015250565b60006109da60208361072e565b91506109e5826109a4565b602082019050919050565b60006020820190508181036000830152610a09816109cd565b9050919050565b7f4e487b7100000000000000000000000000000000000000000000000000000000600052601260045260246000fdfea2646970667358221220e46b1461ded6ecf4f11f4b5ab6912df682489775bd15d2768106ad8b2c7c743364736f6c63430008110033",
  "linkReferences": {},
  "deployedLinkReferences": {}
}