{
  "_format": "hh-sol-artifact-1",
  "contractName": "ERC721URIStorageMock",
  "sourceName": "contracts/mocks/ERC721URIStorageMock.sol",
  "abi": [
    {
      "inputs": [
        {
          "internalType": "string",
          "name": "name",
          "type": "string"
        },
        {
          "internalType": "string",
          "name": "symbol",
          "type": "string"
        }
      ],
      "stateMutability": "nonpayable",
      "type": "constructor"
    },
    {
      "anonymous": false,
      "inputs": [
        {
          "indexed": true,
          "internalType": "address",
          "name": "owner",
          "type": "address"
        },
        {
          "indexed": true,
          "internalType": "address",
          "name": "approved",
          "type": "address"
        },
        {
          "indexed": true,
          "internalType": "uint256",
          "name": "tokenId",
          "type": "uint256"
        }
      ],
      "name": "Approval",
      "type": "event"
    },
    {
      "anonymous": false,
      "inputs": [
        {
          "indexed": true,
          "internalType": "address",
          "name": "owner",
          "type": "address"
        },
        {
          "indexed": true,
          "internalType": "address",
          "name": "operator",
          "type": "address"
        },
        {
          "indexed": false,
          "internalType": "bool",
          "name": "approved",
          "type": "bool"
        }
      ],
      "name": "ApprovalForAll",
      "type": "event"
    },
    {
      "anonymous": false,
      "inputs": [
        {
          "indexed": true,
          "internalType": "address",
          "name": "from",
          "type": "address"
        },
        {
          "indexed": true,
          "internalType": "address",
          "name": "to",
          "type": "address"
        },
        {
          "indexed": true,
          "internalType": "uint256",
          "name": "tokenId",
          "type": "uint256"
        }
      ],
      "name": "Transfer",
      "type": "event"
    },
    {
      "inputs": [
        {
          "internalType": "address",
          "name": "to",
          "type": "address"
        },
        {
          "internalType": "uint256",
          "name": "tokenId",
          "type": "uint256"
        }
      ],
      "name": "approve",
      "outputs": [],
      "stateMutability": "nonpayable",
      "type": "function"
    },
    {
      "inputs": [
        {
          "internalType": "address",
          "name": "owner",
          "type": "address"
        }
      ],
      "name": "balanceOf",
      "outputs": [
        {
          "internalType": "uint256",
          "name": "",
          "type": "uint256"
        }
      ],
      "stateMutability": "view",
      "type": "function"
    },
    {
      "inputs": [],
      "name": "baseURI",
      "outputs": [
        {
          "internalType": "string",
          "name": "",
          "type": "string"
        }
      ],
      "stateMutability": "view",
      "type": "function"
    },
    {
      "inputs": [
        {
          "internalType": "uint256",
          "name": "tokenId",
          "type": "uint256"
        }
      ],
      "name": "burn",
      "outputs": [],
      "stateMutability": "nonpayable",
      "type": "function"
    },
    {
      "inputs": [
        {
          "internalType": "uint256",
          "name": "tokenId",
          "type": "uint256"
        }
      ],
      "name": "exists",
      "outputs": [
        {
          "internalType": "bool",
          "name": "",
          "type": "bool"
        }
      ],
      "stateMutability": "view",
      "type": "function"
    },
    {
      "inputs": [
        {
          "internalType": "uint256",
          "name": "tokenId",
          "type": "uint256"
        }
      ],
      "name": "getApproved",
      "outputs": [
        {
          "internalType": "address",
          "name": "",
          "type": "address"
        }
      ],
      "stateMutability": "view",
      "type": "function"
    },
    {
      "inputs": [
        {
          "internalType": "address",
          "name": "owner",
          "type": "address"
        },
        {
          "internalType": "address",
          "name": "operator",
          "type": "address"
        }
      ],
      "name": "isApprovedForAll",
      "outputs": [
        {
          "internalType": "bool",
          "name": "",
          "type": "bool"
        }
      ],
      "stateMutability": "view",
      "type": "function"
    },
    {
      "inputs": [
        {
          "internalType": "address",
          "name": "to",
          "type": "address"
        },
        {
          "internalType": "uint256",
          "name": "tokenId",
          "type": "uint256"
        }
      ],
      "name": "mint",
      "outputs": [],
      "stateMutability": "nonpayable",
      "type": "function"
    },
    {
      "inputs": [],
      "name": "name",
      "outputs": [
        {
          "internalType": "string",
          "name": "",
          "type": "string"
        }
      ],
      "stateMutability": "view",
      "type": "function"
    },
    {
      "inputs": [
        {
          "internalType": "uint256",
          "name": "tokenId",
          "type": "uint256"
        }
      ],
      "name": "ownerOf",
      "outputs": [
        {
          "internalType": "address",
          "name": "",
          "type": "address"
        }
      ],
      "stateMutability": "view",
      "type": "function"
    },
    {
      "inputs": [
        {
          "internalType": "address",
          "name": "to",
          "type": "address"
        },
        {
          "internalType": "uint256",
          "name": "tokenId",
          "type": "uint256"
        },
        {
          "internalType": "bytes",
          "name": "_data",
          "type": "bytes"
        }
      ],
      "name": "safeMint",
      "outputs": [],
      "stateMutability": "nonpayable",
      "type": "function"
    },
    {
      "inputs": [
        {
          "internalType": "address",
          "name": "to",
          "type": "address"
        },
        {
          "internalType": "uint256",
          "name": "tokenId",
          "type": "uint256"
        }
      ],
      "name": "safeMint",
      "outputs": [],
      "stateMutability": "nonpayable",
      "type": "function"
    },
    {
      "inputs": [
        {
          "internalType": "address",
          "name": "from",
          "type": "address"
        },
        {
          "internalType": "address",
          "name": "to",
          "type": "address"
        },
        {
          "internalType": "uint256",
          "name": "tokenId",
          "type": "uint256"
        }
      ],
      "name": "safeTransferFrom",
      "outputs": [],
      "stateMutability": "nonpayable",
      "type": "function"
    },
    {
      "inputs": [
        {
          "internalType": "address",
          "name": "from",
          "type": "address"
        },
        {
          "internalType": "address",
          "name": "to",
          "type": "address"
        },
        {
          "internalType": "uint256",
          "name": "tokenId",
          "type": "uint256"
        },
        {
          "internalType": "bytes",
          "name": "data",
          "type": "bytes"
        }
      ],
      "name": "safeTransferFrom",
      "outputs": [],
      "stateMutability": "nonpayable",
      "type": "function"
    },
    {
      "inputs": [
        {
          "internalType": "address",
          "name": "operator",
          "type": "address"
        },
        {
          "internalType": "bool",
          "name": "approved",
          "type": "bool"
        }
      ],
      "name": "setApprovalForAll",
      "outputs": [],
      "stateMutability": "nonpayable",
      "type": "function"
    },
    {
      "inputs": [
        {
          "internalType": "string",
          "name": "newBaseTokenURI",
          "type": "string"
        }
      ],
      "name": "setBaseURI",
      "outputs": [],
      "stateMutability": "nonpayable",
      "type": "function"
    },
    {
      "inputs": [
        {
          "internalType": "uint256",
          "name": "tokenId",
          "type": "uint256"
        },
        {
          "internalType": "string",
          "name": "_tokenURI",
          "type": "string"
        }
      ],
      "name": "setTokenURI",
      "outputs": [],
      "stateMutability": "nonpayable",
      "type": "function"
    },
    {
      "inputs": [
        {
          "internalType": "bytes4",
          "name": "interfaceId",
          "type": "bytes4"
        }
      ],
      "name": "supportsInterface",
      "outputs": [
        {
          "internalType": "bool",
          "name": "",
          "type": "bool"
        }
      ],
      "stateMutability": "view",
      "type": "function"
    },
    {
      "inputs": [],
      "name": "symbol",
      "outputs": [
        {
          "internalType": "string",
          "name": "",
          "type": "string"
        }
      ],
      "stateMutability": "view",
      "type": "function"
    },
    {
      "inputs": [
        {
          "internalType": "uint256",
          "name": "tokenId",
          "type": "uint256"
        }
      ],
      "name": "tokenURI",
      "outputs": [
        {
          "internalType": "string",
          "name": "",
          "type": "string"
        }
      ],
      "stateMutability": "view",
      "type": "function"
    },
    {
      "inputs": [
        {
          "internalType": "address",
          "name": "from",
          "type": "address"
        },
        {
          "internalType": "address",
          "name": "to",
          "type": "address"
        },
        {
          "internalType": "uint256",
          "name": "tokenId",
          "type": "uint256"
        }
      ],
      "name": "transferFrom",
      "outputs": [],
      "stateMutability": "nonpayable",
      "type": "function"
    }
  ],
  "bytecode": "0x60806040523480156200001157600080fd5b5060405162003618380380620036188339818101604052810190620000379190620001fa565b818181600090816200004a9190620004ca565b5080600190816200005c9190620004ca565b5050505050620005b1565b6000604051905090565b600080fd5b600080fd5b600080fd5b600080fd5b6000601f19601f8301169050919050565b7f4e487b7100000000000000000000000000000000000000000000000000000000600052604160045260246000fd5b620000d08262000085565b810181811067ffffffffffffffff82111715620000f257620000f162000096565b5b80604052505050565b60006200010762000067565b9050620001158282620000c5565b919050565b600067ffffffffffffffff82111562000138576200013762000096565b5b620001438262000085565b9050602081019050919050565b60005b838110156200017057808201518184015260208101905062000153565b60008484015250505050565b6000620001936200018d846200011a565b620000fb565b905082815260208101848484011115620001b257620001b162000080565b5b620001bf84828562000150565b509392505050565b600082601f830112620001df57620001de6200007b565b5b8151620001f18482602086016200017c565b91505092915050565b6000806040838503121562000214576200021362000071565b5b600083015167ffffffffffffffff81111562000235576200023462000076565b5b6200024385828601620001c7565b925050602083015167ffffffffffffffff81111562000267576200026662000076565b5b6200027585828601620001c7565b9150509250929050565b600081519050919050565b7f4e487b7100000000000000000000000000000000000000000000000000000000600052602260045260246000fd5b60006002820490506001821680620002d257607f821691505b602082108103620002e857620002e76200028a565b5b50919050565b60008190508160005260206000209050919050565b60006020601f8301049050919050565b600082821b905092915050565b600060088302620003527fffffffffffffffffffffffffffffffffffffffffffffffffffffffffffffffff8262000313565b6200035e868362000313565b95508019841693508086168417925050509392505050565b6000819050919050565b6000819050919050565b6000620003ab620003a56200039f8462000376565b62000380565b62000376565b9050919050565b6000819050919050565b620003c7836200038a565b620003df620003d682620003b2565b84845462000320565b825550505050565b600090565b620003f6620003e7565b62000403818484620003bc565b505050565b5b818110156200042b576200041f600082620003ec565b60018101905062000409565b5050565b601f8211156200047a576200044481620002ee565b6200044f8462000303565b810160208510156200045f578190505b620004776200046e8562000303565b83018262000408565b50505b505050565b600082821c905092915050565b60006200049f600019846008026200047f565b1980831691505092915050565b6000620004ba83836200048c565b9150826002028217905092915050565b620004d5826200027f565b67ffffffffffffffff811115620004f157620004f062000096565b5b620004fd8254620002b9565b6200050a8282856200042f565b600060209050601f8311600181146200054257600084156200052d578287015190505b620005398582620004ac565b865550620005a9565b601f1984166200055286620002ee565b60005b828110156200057c5784890151825560018201915060208501945060208101905062000555565b868310156200059c578489015162000598601f8916826200048c565b8355505b6001600288020188555050505b505050505050565b61305780620005c16000396000f3fe608060405234801561001057600080fd5b50600436106101375760003560e01c806355f804b3116100b857806395d89b411161007c57806395d89b4114610348578063a144819414610366578063a22cb46514610382578063b88d4fde1461039e578063c87b56dd146103ba578063e985e9c5146103ea57610137565b806355f804b3146102925780636352211e146102ae5780636c0360eb146102de57806370a08231146102fc5780638832e6e31461032c57610137565b806323b872dd116100ff57806323b872dd146101f257806340c10f191461020e57806342842e0e1461022a57806342966c68146102465780634f558e791461026257610137565b806301ffc9a71461013c57806306fdde031461016c578063081812fc1461018a578063095ea7b3146101ba578063162094c4146101d6575b600080fd5b61015660048036038101906101519190611d4f565b61041a565b6040516101639190611d97565b60405180910390f35b6101746104fc565b6040516101819190611e42565b60405180910390f35b6101a4600480360381019061019f9190611e9a565b61058e565b6040516101b19190611f08565b60405180910390f35b6101d460048036038101906101cf9190611f4f565b6105d4565b005b6101f060048036038101906101eb91906120c4565b6106eb565b005b61020c60048036038101906102079190612120565b6106f9565b005b61022860048036038101906102239190611f4f565b610759565b005b610244600480360381019061023f9190612120565b610767565b005b610260600480360381019061025b9190611e9a565b610787565b005b61027c60048036038101906102779190611e9a565b610793565b6040516102899190611d97565b60405180910390f35b6102ac60048036038101906102a791906121d3565b6107a5565b005b6102c860048036038101906102c39190611e9a565b6107bb565b6040516102d59190611f08565b60405180910390f35b6102e6610841565b6040516102f39190611e42565b60405180910390f35b61031660048036038101906103119190612220565b610850565b604051610323919061225c565b60405180910390f35b61034660048036038101906103419190612318565b610907565b005b610350610917565b60405161035d9190611e42565b60405180910390f35b610380600480360381019061037b9190611f4f565b6109a9565b005b61039c600480360381019061039791906123b3565b6109b7565b005b6103b860048036038101906103b391906123f3565b6109cd565b005b6103d460048036038101906103cf9190611e9a565b610a2f565b6040516103e19190611e42565b60405180910390f35b61040460048036038101906103ff9190612476565b610b41565b6040516104119190611d97565b60405180910390f35b60007f80ac58cd000000000000000000000000000000000000000000000000000000007bffffffffffffffffffffffffffffffffffffffffffffffffffffffff1916827bffffffffffffffffffffffffffffffffffffffffffffffffffffffff191614806104e557507f5b5e139f000000000000000000000000000000000000000000000000000000007bffffffffffffffffffffffffffffffffffffffffffffffffffffffff1916827bffffffffffffffffffffffffffffffffffffffffffffffffffffffff1916145b806104f557506104f482610bd5565b5b9050919050565b60606000805461050b906124e5565b80601f0160208091040260200160405190810160405280929190818152602001828054610537906124e5565b80156105845780601f1061055957610100808354040283529160200191610584565b820191906000526020600020905b81548152906001019060200180831161056757829003601f168201915b5050505050905090565b600061059982610c3f565b6004600083815260200190815260200160002060009054906101000a900473ffffffffffffffffffffffffffffffffffffffff169050919050565b60006105df826107bb565b90508073ffffffffffffffffffffffffffffffffffffffff168373ffffffffffffffffffffffffffffffffffffffff160361064f576040517f08c379a000000000000000000000000000000000000000000000000000000000815260040161064690612588565b60405180910390fd5b8073ffffffffffffffffffffffffffffffffffffffff1661066e610c8a565b73ffffffffffffffffffffffffffffffffffffffff16148061069d575061069c81610697610c8a565b610b41565b5b6106dc576040517f08c379a00000000000000000000000000000000000000000000000000000000081526004016106d39061261a565b60405180910390fd5b6106e68383610c92565b505050565b6106f58282610d4b565b5050565b61070a610704610c8a565b82610db8565b610749576040517f08c379a0000000000000000000000000000000000000000000000000000000008152600401610740906126ac565b60405180910390fd5b610754838383610e4d565b505050565b6107638282611142565b5050565b610782838383604051806020016040528060008152506109cd565b505050565b6107908161135b565b50565b600061079e826113ae565b9050919050565b8181600791826107b6929190612883565b505050565b6000806107c7836113ef565b9050600073ffffffffffffffffffffffffffffffffffffffff168173ffffffffffffffffffffffffffffffffffffffff1603610838576040517f08c379a000000000000000000000000000000000000000000000000000000000815260040161082f9061299f565b60405180910390fd5b80915050919050565b606061084b61142c565b905090565b60008073ffffffffffffffffffffffffffffffffffffffff168273ffffffffffffffffffffffffffffffffffffffff16036108c0576040517f08c379a00000000000000000000000000000000000000000000000000000000081526004016108b790612a31565b60405180910390fd5b600360008373ffffffffffffffffffffffffffffffffffffffff1673ffffffffffffffffffffffffffffffffffffffff168152602001908152602001600020549050919050565b6109128383836114be565b505050565b606060018054610926906124e5565b80601f0160208091040260200160405190810160405280929190818152602001828054610952906124e5565b801561099f5780601f106109745761010080835404028352916020019161099f565b820191906000526020600020905b81548152906001019060200180831161098257829003601f168201915b5050505050905090565b6109b38282611519565b5050565b6109c96109c2610c8a565b8383611537565b5050565b6109de6109d8610c8a565b83610db8565b610a1d576040517f08c379a0000000000000000000000000000000000000000000000000000000008152600401610a14906126ac565b60405180910390fd5b610a29848484846116a3565b50505050565b6060610a3a82610c3f565b6000600660008481526020019081526020016000208054610a5a906124e5565b80601f0160208091040260200160405190810160405280929190818152602001828054610a86906124e5565b8015610ad35780601f10610aa857610100808354040283529160200191610ad3565b820191906000526020600020905b815481529060010190602001808311610ab657829003601f168201915b505050505090506000610ae461142c565b90506000815103610af9578192505050610b3c565b600082511115610b2e578082604051602001610b16929190612a8d565b60405160208183030381529060405292505050610b3c565b610b37846116ff565b925050505b919050565b6000600560008473ffffffffffffffffffffffffffffffffffffffff1673ffffffffffffffffffffffffffffffffffffffff16815260200190815260200160002060008373ffffffffffffffffffffffffffffffffffffffff1673ffffffffffffffffffffffffffffffffffffffff16815260200190815260200160002060009054906101000a900460ff16905092915050565b60007f01ffc9a7000000000000000000000000000000000000000000000000000000007bffffffffffffffffffffffffffffffffffffffffffffffffffffffff1916827bffffffffffffffffffffffffffffffffffffffffffffffffffffffff1916149050919050565b610c48816113ae565b610c87576040517f08c379a0000000000000000000000000000000000000000000000000000000008152600401610c7e9061299f565b60405180910390fd5b50565b600033905090565b816004600083815260200190815260200160002060006101000a81548173ffffffffffffffffffffffffffffffffffffffff021916908373ffffffffffffffffffffffffffffffffffffffff160217905550808273ffffffffffffffffffffffffffffffffffffffff16610d05836107bb565b73ffffffffffffffffffffffffffffffffffffffff167f8c5be1e5ebec7d5bd14f71427d1e84f3dd0314c0f7b2291e5b200ac8c7c3b92560405160405180910390a45050565b610d54826113ae565b610d93576040517f08c379a0000000000000000000000000000000000000000000000000000000008152600401610d8a90612b23565b60405180910390fd5b80600660008481526020019081526020016000209081610db39190612b43565b505050565b600080610dc4836107bb565b90508073ffffffffffffffffffffffffffffffffffffffff168473ffffffffffffffffffffffffffffffffffffffff161480610e065750610e058185610b41565b5b80610e4457508373ffffffffffffffffffffffffffffffffffffffff16610e2c8461058e565b73ffffffffffffffffffffffffffffffffffffffff16145b91505092915050565b8273ffffffffffffffffffffffffffffffffffffffff16610e6d826107bb565b73ffffffffffffffffffffffffffffffffffffffff1614610ec3576040517f08c379a0000000000000000000000000000000000000000000000000000000008152600401610eba90612c87565b60405180910390fd5b600073ffffffffffffffffffffffffffffffffffffffff168273ffffffffffffffffffffffffffffffffffffffff1603610f32576040517f08c379a0000000000000000000000000000000000000000000000000000000008152600401610f2990612d19565b60405180910390fd5b610f3d838383611767565b8273ffffffffffffffffffffffffffffffffffffffff16610f5d826107bb565b73ffffffffffffffffffffffffffffffffffffffff1614610fb3576040517f08c379a0000000000000000000000000000000000000000000000000000000008152600401610faa90612c87565b60405180910390fd5b6004600082815260200190815260200160002060006101000a81549073ffffffffffffffffffffffffffffffffffffffff02191690556001600360008573ffffffffffffffffffffffffffffffffffffffff1673ffffffffffffffffffffffffffffffffffffffff168152602001908152602001600020600082825403925050819055506001600360008473ffffffffffffffffffffffffffffffffffffffff1673ffffffffffffffffffffffffffffffffffffffff16815260200190815260200160002060008282540192505081905550816002600083815260200190815260200160002060006101000a81548173ffffffffffffffffffffffffffffffffffffffff021916908373ffffffffffffffffffffffffffffffffffffffff160217905550808273ffffffffffffffffffffffffffffffffffffffff168473ffffffffffffffffffffffffffffffffffffffff167fddf252ad1be2c89b69c2b068fc378daa952ba7f163c4a11628f55a4df523b3ef60405160405180910390a461113d83838361176c565b505050565b600073ffffffffffffffffffffffffffffffffffffffff168273ffffffffffffffffffffffffffffffffffffffff16036111b1576040517f08c379a00000000000000000000000000000000000000000000000000000000081526004016111a890612d85565b60405180910390fd5b6111ba816113ae565b156111fa576040517f08c379a00000000000000000000000000000000000000000000000000000000081526004016111f190612df1565b60405180910390fd5b61120660008383611767565b61120f816113ae565b1561124f576040517f08c379a000000000000000000000000000000000000000000000000000000000815260040161124690612df1565b60405180910390fd5b6001600360008473ffffffffffffffffffffffffffffffffffffffff1673ffffffffffffffffffffffffffffffffffffffff16815260200190815260200160002060008282540192505081905550816002600083815260200190815260200160002060006101000a81548173ffffffffffffffffffffffffffffffffffffffff021916908373ffffffffffffffffffffffffffffffffffffffff160217905550808273ffffffffffffffffffffffffffffffffffffffff16600073ffffffffffffffffffffffffffffffffffffffff167fddf252ad1be2c89b69c2b068fc378daa952ba7f163c4a11628f55a4df523b3ef60405160405180910390a46113576000838361176c565b5050565b61136481611771565b6000600660008381526020019081526020016000208054611384906124e5565b9050146113ab576006600082815260200190815260200160002060006113aa9190611c86565b5b50565b60008073ffffffffffffffffffffffffffffffffffffffff166113d0836113ef565b73ffffffffffffffffffffffffffffffffffffffff1614159050919050565b60006002600083815260200190815260200160002060009054906101000a900473ffffffffffffffffffffffffffffffffffffffff169050919050565b60606007805461143b906124e5565b80601f0160208091040260200160405190810160405280929190818152602001828054611467906124e5565b80156114b45780601f10611489576101008083540402835291602001916114b4565b820191906000526020600020905b81548152906001019060200180831161149757829003601f168201915b5050505050905090565b6114c88383611142565b6114d560008484846118bb565b611514576040517f08c379a000000000000000000000000000000000000000000000000000000000815260040161150b90612e83565b60405180910390fd5b505050565b6115338282604051806020016040528060008152506114be565b5050565b8173ffffffffffffffffffffffffffffffffffffffff168373ffffffffffffffffffffffffffffffffffffffff16036115a5576040517f08c379a000000000000000000000000000000000000000000000000000000000815260040161159c90612eef565b60405180910390fd5b80600560008573ffffffffffffffffffffffffffffffffffffffff1673ffffffffffffffffffffffffffffffffffffffff16815260200190815260200160002060008473ffffffffffffffffffffffffffffffffffffffff1673ffffffffffffffffffffffffffffffffffffffff16815260200190815260200160002060006101000a81548160ff0219169083151502179055508173ffffffffffffffffffffffffffffffffffffffff168373ffffffffffffffffffffffffffffffffffffffff167f17307eab39ab6107e8899845ad3d59bd9653f200f220920489ca2b5937696c31836040516116969190611d97565b60405180910390a3505050565b6116ae848484610e4d565b6116ba848484846118bb565b6116f9576040517f08c379a00000000000000000000000000000000000000000000000000000000081526004016116f090612e83565b60405180910390fd5b50505050565b606061170a82610c3f565b600061171461142c565b90506000815111611734576040518060200160405280600081525061175f565b8061173e84611a42565b60405160200161174f929190612a8d565b6040516020818303038152906040525b915050919050565b505050565b505050565b600061177c826107bb565b905061178a81600084611767565b611793826107bb565b90506004600083815260200190815260200160002060006101000a81549073ffffffffffffffffffffffffffffffffffffffff02191690556001600360008373ffffffffffffffffffffffffffffffffffffffff1673ffffffffffffffffffffffffffffffffffffffff168152602001908152602001600020600082825403925050819055506002600083815260200190815260200160002060006101000a81549073ffffffffffffffffffffffffffffffffffffffff021916905581600073ffffffffffffffffffffffffffffffffffffffff168273ffffffffffffffffffffffffffffffffffffffff167fddf252ad1be2c89b69c2b068fc378daa952ba7f163c4a11628f55a4df523b3ef60405160405180910390a46118b78160008461176c565b5050565b60006118dc8473ffffffffffffffffffffffffffffffffffffffff16611b10565b15611a35578373ffffffffffffffffffffffffffffffffffffffff1663150b7a02611905610c8a565b8786866040518563ffffffff1660e01b81526004016119279493929190612f64565b6020604051808303816000875af192505050801561196357506040513d601f19601f820116820180604052508101906119609190612fc5565b60015b6119e5573d8060008114611993576040519150601f19603f3d011682016040523d82523d6000602084013e611998565b606091505b5060008151036119dd576040517f08c379a00000000000000000000000000000000000000000000000000000000081526004016119d490612e83565b60405180910390fd5b805181602001fd5b63150b7a0260e01b7bffffffffffffffffffffffffffffffffffffffffffffffffffffffff1916817bffffffffffffffffffffffffffffffffffffffffffffffffffffffff191614915050611a3a565b600190505b949350505050565b606060006001611a5184611b33565b01905060008167ffffffffffffffff811115611a7057611a6f611f99565b5b6040519080825280601f01601f191660200182016040528015611aa25781602001600182028036833780820191505090505b509050600082602001820190505b600115611b05578080600190039150507f3031323334353637383961626364656600000000000000000000000000000000600a86061a8153600a8581611af957611af8612ff2565b5b04945060008503611ab0575b819350505050919050565b6000808273ffffffffffffffffffffffffffffffffffffffff163b119050919050565b600080600090507a184f03e93ff9f4daa797ed6e38ed64bf6a1f0100000000000000008310611b91577a184f03e93ff9f4daa797ed6e38ed64bf6a1f0100000000000000008381611b8757611b86612ff2565b5b0492506040810190505b6d04ee2d6d415b85acef81000000008310611bce576d04ee2d6d415b85acef81000000008381611bc457611bc3612ff2565b5b0492506020810190505b662386f26fc100008310611bfd57662386f26fc100008381611bf357611bf2612ff2565b5b0492506010810190505b6305f5e1008310611c26576305f5e1008381611c1c57611c1b612ff2565b5b0492506008810190505b6127108310611c4b576127108381611c4157611c40612ff2565b5b0492506004810190505b60648310611c6e5760648381611c6457611c63612ff2565b5b0492506002810190505b600a8310611c7d576001810190505b80915050919050565b508054611c92906124e5565b6000825580601f10611ca45750611cc3565b601f016020900490600052602060002090810190611cc29190611cc6565b5b50565b5b80821115611cdf576000816000905550600101611cc7565b5090565b6000604051905090565b600080fd5b600080fd5b60007fffffffff0000000000000000000000000000000000000000000000000000000082169050919050565b611d2c81611cf7565b8114611d3757600080fd5b50565b600081359050611d4981611d23565b92915050565b600060208284031215611d6557611d64611ced565b5b6000611d7384828501611d3a565b91505092915050565b60008115159050919050565b611d9181611d7c565b82525050565b6000602082019050611dac6000830184611d88565b92915050565b600081519050919050565b600082825260208201905092915050565b60005b83811015611dec578082015181840152602081019050611dd1565b60008484015250505050565b6000601f19601f8301169050919050565b6000611e1482611db2565b611e1e8185611dbd565b9350611e2e818560208601611dce565b611e3781611df8565b840191505092915050565b60006020820190508181036000830152611e5c8184611e09565b905092915050565b6000819050919050565b611e7781611e64565b8114611e8257600080fd5b50565b600081359050611e9481611e6e565b92915050565b600060208284031215611eb057611eaf611ced565b5b6000611ebe84828501611e85565b91505092915050565b600073ffffffffffffffffffffffffffffffffffffffff82169050919050565b6000611ef282611ec7565b9050919050565b611f0281611ee7565b82525050565b6000602082019050611f1d6000830184611ef9565b92915050565b611f2c81611ee7565b8114611f3757600080fd5b50565b600081359050611f4981611f23565b92915050565b60008060408385031215611f6657611f65611ced565b5b6000611f7485828601611f3a565b9250506020611f8585828601611e85565b9150509250929050565b600080fd5b600080fd5b7f4e487b7100000000000000000000000000000000000000000000000000000000600052604160045260246000fd5b611fd182611df8565b810181811067ffffffffffffffff82111715611ff057611fef611f99565b5b80604052505050565b6000612003611ce3565b905061200f8282611fc8565b919050565b600067ffffffffffffffff82111561202f5761202e611f99565b5b61203882611df8565b9050602081019050919050565b82818337600083830152505050565b600061206761206284612014565b611ff9565b90508281526020810184848401111561208357612082611f94565b5b61208e848285612045565b509392505050565b600082601f8301126120ab576120aa611f8f565b5b81356120bb848260208601612054565b91505092915050565b600080604083850312156120db576120da611ced565b5b60006120e985828601611e85565b925050602083013567ffffffffffffffff81111561210a57612109611cf2565b5b61211685828601612096565b9150509250929050565b60008060006060848603121561213957612138611ced565b5b600061214786828701611f3a565b935050602061215886828701611f3a565b925050604061216986828701611e85565b9150509250925092565b600080fd5b600080fd5b60008083601f84011261219357612192611f8f565b5b8235905067ffffffffffffffff8111156121b0576121af612173565b5b6020830191508360018202830111156121cc576121cb612178565b5b9250929050565b600080602083850312156121ea576121e9611ced565b5b600083013567ffffffffffffffff81111561220857612207611cf2565b5b6122148582860161217d565b92509250509250929050565b60006020828403121561223657612235611ced565b5b600061224484828501611f3a565b91505092915050565b61225681611e64565b82525050565b6000602082019050612271600083018461224d565b92915050565b600067ffffffffffffffff82111561229257612291611f99565b5b61229b82611df8565b9050602081019050919050565b60006122bb6122b684612277565b611ff9565b9050828152602081018484840111156122d7576122d6611f94565b5b6122e2848285612045565b509392505050565b600082601f8301126122ff576122fe611f8f565b5b813561230f8482602086016122a8565b91505092915050565b60008060006060848603121561233157612330611ced565b5b600061233f86828701611f3a565b935050602061235086828701611e85565b925050604084013567ffffffffffffffff81111561237157612370611cf2565b5b61237d868287016122ea565b9150509250925092565b61239081611d7c565b811461239b57600080fd5b50565b6000813590506123ad81612387565b92915050565b600080604083850312156123ca576123c9611ced565b5b60006123d885828601611f3a565b92505060206123e98582860161239e565b9150509250929050565b6000806000806080858703121561240d5761240c611ced565b5b600061241b87828801611f3a565b945050602061242c87828801611f3a565b935050604061243d87828801611e85565b925050606085013567ffffffffffffffff81111561245e5761245d611cf2565b5b61246a878288016122ea565b91505092959194509250565b6000806040838503121561248d5761248c611ced565b5b600061249b85828601611f3a565b92505060206124ac85828601611f3a565b9150509250929050565b7f4e487b7100000000000000000000000000000000000000000000000000000000600052602260045260246000fd5b600060028204905060018216806124fd57607f821691505b6020821081036125105761250f6124b6565b5b50919050565b7f4552433732313a20617070726f76616c20746f2063757272656e74206f776e6560008201527f7200000000000000000000000000000000000000000000000000000000000000602082015250565b6000612572602183611dbd565b915061257d82612516565b604082019050919050565b600060208201905081810360008301526125a181612565565b9050919050565b7f4552433732313a20617070726f76652063616c6c6572206973206e6f7420746f60008201527f6b656e206f776e6572206f7220617070726f76656420666f7220616c6c000000602082015250565b6000612604603d83611dbd565b915061260f826125a8565b604082019050919050565b60006020820190508181036000830152612633816125f7565b9050919050565b7f4552433732313a2063616c6c6572206973206e6f7420746f6b656e206f776e6560008201527f72206f7220617070726f76656400000000000000000000000000000000000000602082015250565b6000612696602d83611dbd565b91506126a18261263a565b604082019050919050565b600060208201905081810360008301526126c581612689565b9050919050565b600082905092915050565b60008190508160005260206000209050919050565b60006020601f8301049050919050565b600082821b905092915050565b6000600883026127397fffffffffffffffffffffffffffffffffffffffffffffffffffffffffffffffff826126fc565b61274386836126fc565b95508019841693508086168417925050509392505050565b6000819050919050565b600061278061277b61277684611e64565b61275b565b611e64565b9050919050565b6000819050919050565b61279a83612765565b6127ae6127a682612787565b848454612709565b825550505050565b600090565b6127c36127b6565b6127ce818484612791565b505050565b5b818110156127f2576127e76000826127bb565b6001810190506127d4565b5050565b601f82111561283757612808816126d7565b612811846126ec565b81016020851015612820578190505b61283461282c856126ec565b8301826127d3565b50505b505050565b600082821c905092915050565b600061285a6000198460080261283c565b1980831691505092915050565b60006128738383612849565b9150826002028217905092915050565b61288d83836126cc565b67ffffffffffffffff8111156128a6576128a5611f99565b5b6128b082546124e5565b6128bb8282856127f6565b6000601f8311600181146128ea57600084156128d8578287013590505b6128e28582612867565b86555061294a565b601f1984166128f8866126d7565b60005b82811015612920578489013582556001820191506020850194506020810190506128fb565b8683101561293d5784890135612939601f891682612849565b8355505b6001600288020188555050505b50505050505050565b7f4552433732313a20696e76616c696420746f6b656e2049440000000000000000600082015250565b6000612989601883611dbd565b915061299482612953565b602082019050919050565b600060208201905081810360008301526129b88161297c565b9050919050565b7f4552433732313a2061646472657373207a65726f206973206e6f74206120766160008201527f6c6964206f776e65720000000000000000000000000000000000000000000000602082015250565b6000612a1b602983611dbd565b9150612a26826129bf565b604082019050919050565b60006020820190508181036000830152612a4a81612a0e565b9050919050565b600081905092915050565b6000612a6782611db2565b612a718185612a51565b9350612a81818560208601611dce565b80840191505092915050565b6000612a998285612a5c565b9150612aa58284612a5c565b91508190509392505050565b7f45524337323155524953746f726167653a2055524920736574206f66206e6f6e60008201527f6578697374656e7420746f6b656e000000000000000000000000000000000000602082015250565b6000612b0d602e83611dbd565b9150612b1882612ab1565b604082019050919050565b60006020820190508181036000830152612b3c81612b00565b9050919050565b612b4c82611db2565b67ffffffffffffffff811115612b6557612b64611f99565b5b612b6f82546124e5565b612b7a8282856127f6565b600060209050601f831160018114612bad5760008415612b9b578287015190505b612ba58582612867565b865550612c0d565b601f198416612bbb866126d7565b60005b82811015612be357848901518255600182019150602085019450602081019050612bbe565b86831015612c005784890151612bfc601f891682612849565b8355505b6001600288020188555050505b505050505050565b7f4552433732313a207472616e736665722066726f6d20696e636f72726563742060008201527f6f776e6572000000000000000000000000000000000000000000000000000000602082015250565b6000612c71602583611dbd565b9150612c7c82612c15565b604082019050919050565b60006020820190508181036000830152612ca081612c64565b9050919050565b7f4552433732313a207472616e7366657220746f20746865207a65726f2061646460008201527f7265737300000000000000000000000000000000000000000000000000000000602082015250565b6000612d03602483611dbd565b9150612d0e82612ca7565b604082019050919050565b60006020820190508181036000830152612d3281612cf6565b9050919050565b7f4552433732313a206d696e7420746f20746865207a65726f2061646472657373600082015250565b6000612d6f602083611dbd565b9150612d7a82612d39565b602082019050919050565b60006020820190508181036000830152612d9e81612d62565b9050919050565b7f4552433732313a20746f6b656e20616c7265616479206d696e74656400000000600082015250565b6000612ddb601c83611dbd565b9150612de682612da5565b602082019050919050565b60006020820190508181036000830152612e0a81612dce565b9050919050565b7f4552433732313a207472616e7366657220746f206e6f6e20455243373231526560008201527f63656976657220696d706c656d656e7465720000000000000000000000000000602082015250565b6000612e6d603283611dbd565b9150612e7882612e11565b604082019050919050565b60006020820190508181036000830152612e9c81612e60565b9050919050565b7f4552433732313a20617070726f766520746f2063616c6c657200000000000000600082015250565b6000612ed9601983611dbd565b9150612ee482612ea3565b602082019050919050565b60006020820190508181036000830152612f0881612ecc565b9050919050565b600081519050919050565b600082825260208201905092915050565b6000612f3682612f0f565b612f408185612f1a565b9350612f50818560208601611dce565b612f5981611df8565b840191505092915050565b6000608082019050612f796000830187611ef9565b612f866020830186611ef9565b612f93604083018561224d565b8181036060830152612fa58184612f2b565b905095945050505050565b600081519050612fbf81611d23565b92915050565b600060208284031215612fdb57612fda611ced565b5b6000612fe984828501612fb0565b91505092915050565b7f4e487b7100000000000000000000000000000000000000000000000000000000600052601260045260246000fdfea26469706673582212201ad52b2bc90dbef3dd7cfa6b2ac7410dbfd0154238da4f2c115c5e416a3b705b64736f6c63430008110033",
  "linkReferences": {},
  "deployedLinkReferences": {}
}