{
  "_format": "hh-sol-artifact-1",
  "contractName": "MulticallTokenMock",
  "sourceName": "contracts/mocks/MulticallTokenMock.sol",
  "abi": [
    {
      "inputs": [
        {
          "internalType": "uint256",
          "name": "initialBalance",
          "type": "uint256"
        }
      ],
      "stateMutability": "nonpayable",
      "type": "constructor"
    },
    {
      "anonymous": false,
      "inputs": [
        {
          "indexed": true,
          "internalType": "address",
          "name": "owner",
          "type": "address"
        },
        {
          "indexed": true,
          "internalType": "address",
          "name": "spender",
          "type": "address"
        },
        {
          "indexed": false,
          "internalType": "uint256",
          "name": "value",
          "type": "uint256"
        }
      ],
      "name": "Approval",
      "type": "event"
    },
    {
      "anonymous": false,
      "inputs": [
        {
          "indexed": true,
          "internalType": "address",
          "name": "from",
          "type": "address"
        },
        {
          "indexed": true,
          "internalType": "address",
          "name": "to",
          "type": "address"
        },
        {
          "indexed": false,
          "internalType": "uint256",
          "name": "value",
          "type": "uint256"
        }
      ],
      "name": "Transfer",
      "type": "event"
    },
    {
      "inputs": [
        {
          "internalType": "address",
          "name": "owner",
          "type": "address"
        },
        {
          "internalType": "address",
          "name": "spender",
          "type": "address"
        }
      ],
      "name": "allowance",
      "outputs": [
        {
          "internalType": "uint256",
          "name": "",
          "type": "uint256"
        }
      ],
      "stateMutability": "view",
      "type": "function"
    },
    {
      "inputs": [
        {
          "internalType": "address",
          "name": "spender",
          "type": "address"
        },
        {
          "internalType": "uint256",
          "name": "amount",
          "type": "uint256"
        }
      ],
      "name": "approve",
      "outputs": [
        {
          "internalType": "bool",
          "name": "",
          "type": "bool"
        }
      ],
      "stateMutability": "nonpayable",
      "type": "function"
    },
    {
      "inputs": [
        {
          "internalType": "address",
          "name": "owner",
          "type": "address"
        },
        {
          "internalType": "address",
          "name": "spender",
          "type": "address"
        },
        {
          "internalType": "uint256",
          "name": "value",
          "type": "uint256"
        }
      ],
      "name": "approveInternal",
      "outputs": [],
      "stateMutability": "nonpayable",
      "type": "function"
    },
    {
      "inputs": [
        {
          "internalType": "address",
          "name": "account",
          "type": "address"
        }
      ],
      "name": "balanceOf",
      "outputs": [
        {
          "internalType": "uint256",
          "name": "",
          "type": "uint256"
        }
      ],
      "stateMutability": "view",
      "type": "function"
    },
    {
      "inputs": [
        {
          "internalType": "address",
          "name": "account",
          "type": "address"
        },
        {
          "internalType": "uint256",
          "name": "amount",
          "type": "uint256"
        }
      ],
      "name": "burn",
      "outputs": [],
      "stateMutability": "nonpayable",
      "type": "function"
    },
    {
      "inputs": [],
      "name": "decimals",
      "outputs": [
        {
          "internalType": "uint8",
          "name": "",
          "type": "uint8"
        }
      ],
      "stateMutability": "view",
      "type": "function"
    },
    {
      "inputs": [
        {
          "internalType": "address",
          "name": "spender",
          "type": "address"
        },
        {
          "internalType": "uint256",
          "name": "subtractedValue",
          "type": "uint256"
        }
      ],
      "name": "decreaseAllowance",
      "outputs": [
        {
          "internalType": "bool",
          "name": "",
          "type": "bool"
        }
      ],
      "stateMutability": "nonpayable",
      "type": "function"
    },
    {
      "inputs": [
        {
          "internalType": "address",
          "name": "spender",
          "type": "address"
        },
        {
          "internalType": "uint256",
          "name": "addedValue",
          "type": "uint256"
        }
      ],
      "name": "increaseAllowance",
      "outputs": [
        {
          "internalType": "bool",
          "name": "",
          "type": "bool"
        }
      ],
      "stateMutability": "nonpayable",
      "type": "function"
    },
    {
      "inputs": [
        {
          "internalType": "address",
          "name": "account",
          "type": "address"
        },
        {
          "internalType": "uint256",
          "name": "amount",
          "type": "uint256"
        }
      ],
      "name": "mint",
      "outputs": [],
      "stateMutability": "nonpayable",
      "type": "function"
    },
    {
      "inputs": [
        {
          "internalType": "bytes[]",
          "name": "data",
          "type": "bytes[]"
        }
      ],
      "name": "multicall",
      "outputs": [
        {
          "internalType": "bytes[]",
          "name": "results",
          "type": "bytes[]"
        }
      ],
      "stateMutability": "nonpayable",
      "type": "function"
    },
    {
      "inputs": [],
      "name": "name",
      "outputs": [
        {
          "internalType": "string",
          "name": "",
          "type": "string"
        }
      ],
      "stateMutability": "view",
      "type": "function"
    },
    {
      "inputs": [],
      "name": "symbol",
      "outputs": [
        {
          "internalType": "string",
          "name": "",
          "type": "string"
        }
      ],
      "stateMutability": "view",
      "type": "function"
    },
    {
      "inputs": [],
      "name": "totalSupply",
      "outputs": [
        {
          "internalType": "uint256",
          "name": "",
          "type": "uint256"
        }
      ],
      "stateMutability": "view",
      "type": "function"
    },
    {
      "inputs": [
        {
          "internalType": "address",
          "name": "to",
          "type": "address"
        },
        {
          "internalType": "uint256",
          "name": "amount",
          "type": "uint256"
        }
      ],
      "name": "transfer",
      "outputs": [
        {
          "internalType": "bool",
          "name": "",
          "type": "bool"
        }
      ],
      "stateMutability": "nonpayable",
      "type": "function"
    },
    {
      "inputs": [
        {
          "internalType": "address",
          "name": "from",
          "type": "address"
        },
        {
          "internalType": "address",
          "name": "to",
          "type": "address"
        },
        {
          "internalType": "uint256",
          "name": "amount",
          "type": "uint256"
        }
      ],
      "name": "transferFrom",
      "outputs": [
        {
          "internalType": "bool",
          "name": "",
          "type": "bool"
        }
      ],
      "stateMutability": "nonpayable",
      "type": "function"
    },
    {
      "inputs": [
        {
          "internalType": "address",
          "name": "from",
          "type": "address"
        },
        {
          "internalType": "address",
          "name": "to",
          "type": "address"
        },
        {
          "internalType": "uint256",
          "name": "value",
          "type": "uint256"
        }
      ],
      "name": "transferInternal",
      "outputs": [],
      "stateMutability": "nonpayable",
      "type": "function"
    }
  ],
  "bytecode": "0x60806040523480156200001157600080fd5b50604051620025ff380380620025ff8339818101604052810190620000379190620002a1565b6040518060400160405280600e81526020017f4d756c746963616c6c546f6b656e0000000000000000000000000000000000008152506040518060400160405280600381526020017f4243540000000000000000000000000000000000000000000000000000000000815250338383838160039081620000b8919062000543565b508060049081620000ca919062000543565b505050620000df8282620000ea60201b60201c565b505050505062000745565b600073ffffffffffffffffffffffffffffffffffffffff168273ffffffffffffffffffffffffffffffffffffffff16036200015c576040517f08c379a000000000000000000000000000000000000000000000000000000000815260040162000153906200068b565b60405180910390fd5b62000170600083836200025760201b60201c565b8060026000828254620001849190620006dc565b92505081905550806000808473ffffffffffffffffffffffffffffffffffffffff1673ffffffffffffffffffffffffffffffffffffffff168152602001908152602001600020600082825401925050819055508173ffffffffffffffffffffffffffffffffffffffff16600073ffffffffffffffffffffffffffffffffffffffff167fddf252ad1be2c89b69c2b068fc378daa952ba7f163c4a11628f55a4df523b3ef8360405162000237919062000728565b60405180910390a362000253600083836200025c60201b60201c565b5050565b505050565b505050565b600080fd5b6000819050919050565b6200027b8162000266565b81146200028757600080fd5b50565b6000815190506200029b8162000270565b92915050565b600060208284031215620002ba57620002b962000261565b5b6000620002ca848285016200028a565b91505092915050565b600081519050919050565b7f4e487b7100000000000000000000000000000000000000000000000000000000600052604160045260246000fd5b7f4e487b7100000000000000000000000000000000000000000000000000000000600052602260045260246000fd5b600060028204905060018216806200035557607f821691505b6020821081036200036b576200036a6200030d565b5b50919050565b60008190508160005260206000209050919050565b60006020601f8301049050919050565b600082821b905092915050565b600060088302620003d57fffffffffffffffffffffffffffffffffffffffffffffffffffffffffffffffff8262000396565b620003e1868362000396565b95508019841693508086168417925050509392505050565b6000819050919050565b6000620004246200041e620004188462000266565b620003f9565b62000266565b9050919050565b6000819050919050565b620004408362000403565b620004586200044f826200042b565b848454620003a3565b825550505050565b600090565b6200046f62000460565b6200047c81848462000435565b505050565b5b81811015620004a4576200049860008262000465565b60018101905062000482565b5050565b601f821115620004f357620004bd8162000371565b620004c88462000386565b81016020851015620004d8578190505b620004f0620004e78562000386565b83018262000481565b50505b505050565b600082821c905092915050565b60006200051860001984600802620004f8565b1980831691505092915050565b600062000533838362000505565b9150826002028217905092915050565b6200054e82620002d3565b67ffffffffffffffff8111156200056a5762000569620002de565b5b6200057682546200033c565b62000583828285620004a8565b600060209050601f831160018114620005bb5760008415620005a6578287015190505b620005b2858262000525565b86555062000622565b601f198416620005cb8662000371565b60005b82811015620005f557848901518255600182019150602085019450602081019050620005ce565b8683101562000615578489015162000611601f89168262000505565b8355505b6001600288020188555050505b505050505050565b600082825260208201905092915050565b7f45524332303a206d696e7420746f20746865207a65726f206164647265737300600082015250565b600062000673601f836200062a565b915062000680826200063b565b602082019050919050565b60006020820190508181036000830152620006a68162000664565b9050919050565b7f4e487b7100000000000000000000000000000000000000000000000000000000600052601160045260246000fd5b6000620006e98262000266565b9150620006f68362000266565b9250828201905080821115620007115762000710620006ad565b5b92915050565b620007228162000266565b82525050565b60006020820190506200073f600083018462000717565b92915050565b611eaa80620007556000396000f3fe608060405234801561001057600080fd5b50600436106101005760003560e01c806356189cb411610097578063a457c2d711610066578063a457c2d7146102ad578063a9059cbb146102dd578063ac9650d81461030d578063dd62ed3e1461033d57610100565b806356189cb41461022757806370a082311461024357806395d89b41146102735780639dc29fac1461029157610100565b806323b872dd116100d357806323b872dd1461018d578063313ce567146101bd57806339509351146101db57806340c10f191461020b57610100565b806306fdde0314610105578063095ea7b31461012357806318160ddd14610153578063222f5be014610171575b600080fd5b61010d61036d565b60405161011a9190611209565b60405180910390f35b61013d600480360381019061013891906112c9565b6103ff565b60405161014a9190611324565b60405180910390f35b61015b610422565b604051610168919061134e565b60405180910390f35b61018b60048036038101906101869190611369565b61042c565b005b6101a760048036038101906101a29190611369565b61043c565b6040516101b49190611324565b60405180910390f35b6101c561046b565b6040516101d291906113d8565b60405180910390f35b6101f560048036038101906101f091906112c9565b610474565b6040516102029190611324565b60405180910390f35b610225600480360381019061022091906112c9565b6104ab565b005b610241600480360381019061023c9190611369565b6104b9565b005b61025d600480360381019061025891906113f3565b6104c9565b60405161026a919061134e565b60405180910390f35b61027b610511565b6040516102889190611209565b60405180910390f35b6102ab60048036038101906102a691906112c9565b6105a3565b005b6102c760048036038101906102c291906112c9565b6105b1565b6040516102d49190611324565b60405180910390f35b6102f760048036038101906102f291906112c9565b610628565b6040516103049190611324565b60405180910390f35b61032760048036038101906103229190611485565b61064b565b60405161033491906115e9565b60405180910390f35b6103576004803603810190610352919061160b565b610757565b604051610364919061134e565b60405180910390f35b60606003805461037c9061167a565b80601f01602080910402602001604051908101604052809291908181526020018280546103a89061167a565b80156103f55780601f106103ca576101008083540402835291602001916103f5565b820191906000526020600020905b8154815290600101906020018083116103d857829003601f168201915b5050505050905090565b60008061040a6107de565b90506104178185856107e6565b600191505092915050565b6000600254905090565b6104378383836109af565b505050565b6000806104476107de565b9050610454858285610c25565b61045f8585856109af565b60019150509392505050565b60006012905090565b60008061047f6107de565b90506104a08185856104918589610757565b61049b91906116da565b6107e6565b600191505092915050565b6104b58282610cb1565b5050565b6104c48383836107e6565b505050565b60008060008373ffffffffffffffffffffffffffffffffffffffff1673ffffffffffffffffffffffffffffffffffffffff168152602001908152602001600020549050919050565b6060600480546105209061167a565b80601f016020809104026020016040519081016040528092919081815260200182805461054c9061167a565b80156105995780601f1061056e57610100808354040283529160200191610599565b820191906000526020600020905b81548152906001019060200180831161057c57829003601f168201915b5050505050905090565b6105ad8282610e07565b5050565b6000806105bc6107de565b905060006105ca8286610757565b90508381101561060f576040517f08c379a000000000000000000000000000000000000000000000000000000000815260040161060690611780565b60405180910390fd5b61061c82868684036107e6565b60019250505092915050565b6000806106336107de565b90506106408185856109af565b600191505092915050565b60608282905067ffffffffffffffff81111561066a576106696117a0565b5b60405190808252806020026020018201604052801561069d57816020015b60608152602001906001900390816106885790505b50905060005b838390508110156107505761071f308585848181106106c5576106c46117cf565b5b90506020028101906106d7919061180d565b8080601f016020809104026020016040519081016040528093929190818152602001838380828437600081840152601f19601f82011690508083019250505050505050610fd4565b828281518110610732576107316117cf565b5b6020026020010181905250808061074890611870565b9150506106a3565b5092915050565b6000600160008473ffffffffffffffffffffffffffffffffffffffff1673ffffffffffffffffffffffffffffffffffffffff16815260200190815260200160002060008373ffffffffffffffffffffffffffffffffffffffff1673ffffffffffffffffffffffffffffffffffffffff16815260200190815260200160002054905092915050565b600033905090565b600073ffffffffffffffffffffffffffffffffffffffff168373ffffffffffffffffffffffffffffffffffffffff1603610855576040517f08c379a000000000000000000000000000000000000000000000000000000000815260040161084c9061192a565b60405180910390fd5b600073ffffffffffffffffffffffffffffffffffffffff168273ffffffffffffffffffffffffffffffffffffffff16036108c4576040517f08c379a00000000000000000000000000000000000000000000000000000000081526004016108bb906119bc565b60405180910390fd5b80600160008573ffffffffffffffffffffffffffffffffffffffff1673ffffffffffffffffffffffffffffffffffffffff16815260200190815260200160002060008473ffffffffffffffffffffffffffffffffffffffff1673ffffffffffffffffffffffffffffffffffffffff168152602001908152602001600020819055508173ffffffffffffffffffffffffffffffffffffffff168373ffffffffffffffffffffffffffffffffffffffff167f8c5be1e5ebec7d5bd14f71427d1e84f3dd0314c0f7b2291e5b200ac8c7c3b925836040516109a2919061134e565b60405180910390a3505050565b600073ffffffffffffffffffffffffffffffffffffffff168373ffffffffffffffffffffffffffffffffffffffff1603610a1e576040517f08c379a0000000000000000000000000000000000000000000000000000000008152600401610a1590611a4e565b60405180910390fd5b600073ffffffffffffffffffffffffffffffffffffffff168273ffffffffffffffffffffffffffffffffffffffff1603610a8d576040517f08c379a0000000000000000000000000000000000000000000000000000000008152600401610a8490611ae0565b60405180910390fd5b610a98838383611001565b60008060008573ffffffffffffffffffffffffffffffffffffffff1673ffffffffffffffffffffffffffffffffffffffff16815260200190815260200160002054905081811015610b1e576040517f08c379a0000000000000000000000000000000000000000000000000000000008152600401610b1590611b72565b60405180910390fd5b8181036000808673ffffffffffffffffffffffffffffffffffffffff1673ffffffffffffffffffffffffffffffffffffffff16815260200190815260200160002081905550816000808573ffffffffffffffffffffffffffffffffffffffff1673ffffffffffffffffffffffffffffffffffffffff168152602001908152602001600020600082825401925050819055508273ffffffffffffffffffffffffffffffffffffffff168473ffffffffffffffffffffffffffffffffffffffff167fddf252ad1be2c89b69c2b068fc378daa952ba7f163c4a11628f55a4df523b3ef84604051610c0c919061134e565b60405180910390a3610c1f848484611006565b50505050565b6000610c318484610757565b90507fffffffffffffffffffffffffffffffffffffffffffffffffffffffffffffffff8114610cab5781811015610c9d576040517f08c379a0000000000000000000000000000000000000000000000000000000008152600401610c9490611bde565b60405180910390fd5b610caa84848484036107e6565b5b50505050565b600073ffffffffffffffffffffffffffffffffffffffff168273ffffffffffffffffffffffffffffffffffffffff1603610d20576040517f08c379a0000000000000000000000000000000000000000000000000000000008152600401610d1790611c4a565b60405180910390fd5b610d2c60008383611001565b8060026000828254610d3e91906116da565b92505081905550806000808473ffffffffffffffffffffffffffffffffffffffff1673ffffffffffffffffffffffffffffffffffffffff168152602001908152602001600020600082825401925050819055508173ffffffffffffffffffffffffffffffffffffffff16600073ffffffffffffffffffffffffffffffffffffffff167fddf252ad1be2c89b69c2b068fc378daa952ba7f163c4a11628f55a4df523b3ef83604051610def919061134e565b60405180910390a3610e0360008383611006565b5050565b600073ffffffffffffffffffffffffffffffffffffffff168273ffffffffffffffffffffffffffffffffffffffff1603610e76576040517f08c379a0000000000000000000000000000000000000000000000000000000008152600401610e6d90611cdc565b60405180910390fd5b610e8282600083611001565b60008060008473ffffffffffffffffffffffffffffffffffffffff1673ffffffffffffffffffffffffffffffffffffffff16815260200190815260200160002054905081811015610f08576040517f08c379a0000000000000000000000000000000000000000000000000000000008152600401610eff90611d6e565b60405180910390fd5b8181036000808573ffffffffffffffffffffffffffffffffffffffff1673ffffffffffffffffffffffffffffffffffffffff1681526020019081526020016000208190555081600260008282540392505081905550600073ffffffffffffffffffffffffffffffffffffffff168373ffffffffffffffffffffffffffffffffffffffff167fddf252ad1be2c89b69c2b068fc378daa952ba7f163c4a11628f55a4df523b3ef84604051610fbb919061134e565b60405180910390a3610fcf83600084611006565b505050565b6060610ff98383604051806060016040528060278152602001611e4e6027913961100b565b905092915050565b505050565b505050565b60606000808573ffffffffffffffffffffffffffffffffffffffff16856040516110359190611dca565b600060405180830381855af49150503d8060008114611070576040519150601f19603f3d011682016040523d82523d6000602084013e611075565b606091505b509150915061108686838387611091565b925050509392505050565b606083156110f35760008351036110eb576110ab85611106565b6110ea576040517f08c379a00000000000000000000000000000000000000000000000000000000081526004016110e190611e2d565b60405180910390fd5b5b8290506110fe565b6110fd8383611129565b5b949350505050565b6000808273ffffffffffffffffffffffffffffffffffffffff163b119050919050565b60008251111561113c5781518083602001fd5b806040517f08c379a00000000000000000000000000000000000000000000000000000000081526004016111709190611209565b60405180910390fd5b600081519050919050565b600082825260208201905092915050565b60005b838110156111b3578082015181840152602081019050611198565b60008484015250505050565b6000601f19601f8301169050919050565b60006111db82611179565b6111e58185611184565b93506111f5818560208601611195565b6111fe816111bf565b840191505092915050565b6000602082019050818103600083015261122381846111d0565b905092915050565b600080fd5b600080fd5b600073ffffffffffffffffffffffffffffffffffffffff82169050919050565b600061126082611235565b9050919050565b61127081611255565b811461127b57600080fd5b50565b60008135905061128d81611267565b92915050565b6000819050919050565b6112a681611293565b81146112b157600080fd5b50565b6000813590506112c38161129d565b92915050565b600080604083850312156112e0576112df61122b565b5b60006112ee8582860161127e565b92505060206112ff858286016112b4565b9150509250929050565b60008115159050919050565b61131e81611309565b82525050565b60006020820190506113396000830184611315565b92915050565b61134881611293565b82525050565b6000602082019050611363600083018461133f565b92915050565b6000806000606084860312156113825761138161122b565b5b60006113908682870161127e565b93505060206113a18682870161127e565b92505060406113b2868287016112b4565b9150509250925092565b600060ff82169050919050565b6113d2816113bc565b82525050565b60006020820190506113ed60008301846113c9565b92915050565b6000602082840312156114095761140861122b565b5b60006114178482850161127e565b91505092915050565b600080fd5b600080fd5b600080fd5b60008083601f84011261144557611444611420565b5b8235905067ffffffffffffffff81111561146257611461611425565b5b60208301915083602082028301111561147e5761147d61142a565b5b9250929050565b6000806020838503121561149c5761149b61122b565b5b600083013567ffffffffffffffff8111156114ba576114b9611230565b5b6114c68582860161142f565b92509250509250929050565b600081519050919050565b600082825260208201905092915050565b6000819050602082019050919050565b600081519050919050565b600082825260208201905092915050565b6000611525826114fe565b61152f8185611509565b935061153f818560208601611195565b611548816111bf565b840191505092915050565b600061155f838361151a565b905092915050565b6000602082019050919050565b600061157f826114d2565b61158981856114dd565b93508360208202850161159b856114ee565b8060005b858110156115d757848403895281516115b88582611553565b94506115c383611567565b925060208a0199505060018101905061159f565b50829750879550505050505092915050565b600060208201905081810360008301526116038184611574565b905092915050565b600080604083850312156116225761162161122b565b5b60006116308582860161127e565b92505060206116418582860161127e565b9150509250929050565b7f4e487b7100000000000000000000000000000000000000000000000000000000600052602260045260246000fd5b6000600282049050600182168061169257607f821691505b6020821081036116a5576116a461164b565b5b50919050565b7f4e487b7100000000000000000000000000000000000000000000000000000000600052601160045260246000fd5b60006116e582611293565b91506116f083611293565b9250828201905080821115611708576117076116ab565b5b92915050565b7f45524332303a2064656372656173656420616c6c6f77616e63652062656c6f7760008201527f207a65726f000000000000000000000000000000000000000000000000000000602082015250565b600061176a602583611184565b91506117758261170e565b604082019050919050565b600060208201905081810360008301526117998161175d565b9050919050565b7f4e487b7100000000000000000000000000000000000000000000000000000000600052604160045260246000fd5b7f4e487b7100000000000000000000000000000000000000000000000000000000600052603260045260246000fd5b600080fd5b600080fd5b600080fd5b6000808335600160200384360303811261182a576118296117fe565b5b80840192508235915067ffffffffffffffff82111561184c5761184b611803565b5b60208301925060018202360383131561186857611867611808565b5b509250929050565b600061187b82611293565b91507fffffffffffffffffffffffffffffffffffffffffffffffffffffffffffffffff82036118ad576118ac6116ab565b5b600182019050919050565b7f45524332303a20617070726f76652066726f6d20746865207a65726f2061646460008201527f7265737300000000000000000000000000000000000000000000000000000000602082015250565b6000611914602483611184565b915061191f826118b8565b604082019050919050565b6000602082019050818103600083015261194381611907565b9050919050565b7f45524332303a20617070726f766520746f20746865207a65726f20616464726560008201527f7373000000000000000000000000000000000000000000000000000000000000602082015250565b60006119a6602283611184565b91506119b18261194a565b604082019050919050565b600060208201905081810360008301526119d581611999565b9050919050565b7f45524332303a207472616e736665722066726f6d20746865207a65726f20616460008201527f6472657373000000000000000000000000000000000000000000000000000000602082015250565b6000611a38602583611184565b9150611a43826119dc565b604082019050919050565b60006020820190508181036000830152611a6781611a2b565b9050919050565b7f45524332303a207472616e7366657220746f20746865207a65726f206164647260008201527f6573730000000000000000000000000000000000000000000000000000000000602082015250565b6000611aca602383611184565b9150611ad582611a6e565b604082019050919050565b60006020820190508181036000830152611af981611abd565b9050919050565b7f45524332303a207472616e7366657220616d6f756e742065786365656473206260008201527f616c616e63650000000000000000000000000000000000000000000000000000602082015250565b6000611b5c602683611184565b9150611b6782611b00565b604082019050919050565b60006020820190508181036000830152611b8b81611b4f565b9050919050565b7f45524332303a20696e73756666696369656e7420616c6c6f77616e6365000000600082015250565b6000611bc8601d83611184565b9150611bd382611b92565b602082019050919050565b60006020820190508181036000830152611bf781611bbb565b9050919050565b7f45524332303a206d696e7420746f20746865207a65726f206164647265737300600082015250565b6000611c34601f83611184565b9150611c3f82611bfe565b602082019050919050565b60006020820190508181036000830152611c6381611c27565b9050919050565b7f45524332303a206275726e2066726f6d20746865207a65726f2061646472657360008201527f7300000000000000000000000000000000000000000000000000000000000000602082015250565b6000611cc6602183611184565b9150611cd182611c6a565b604082019050919050565b60006020820190508181036000830152611cf581611cb9565b9050919050565b7f45524332303a206275726e20616d6f756e7420657863656564732062616c616e60008201527f6365000000000000000000000000000000000000000000000000000000000000602082015250565b6000611d58602283611184565b9150611d6382611cfc565b604082019050919050565b60006020820190508181036000830152611d8781611d4b565b9050919050565b600081905092915050565b6000611da4826114fe565b611dae8185611d8e565b9350611dbe818560208601611195565b80840191505092915050565b6000611dd68284611d99565b915081905092915050565b7f416464726573733a2063616c6c20746f206e6f6e2d636f6e7472616374000000600082015250565b6000611e17601d83611184565b9150611e2282611de1565b602082019050919050565b60006020820190508181036000830152611e4681611e0a565b905091905056fe416464726573733a206c6f772d6c6576656c2064656c65676174652063616c6c206661696c6564a2646970667358221220ac6cf16479f39fbbb8f243468e6d0e174bf4e407761012a3abed0f1ac9a1589964736f6c63430008110033",
  "linkReferences": {},
  "deployedLinkReferences": {}
}