{
  "_format": "hh-sol-artifact-1",
  "contractName": "MyGovernor2",
  "sourceName": "contracts/mocks/wizard/MyGovernor2.sol",
  "abi": [
    {
      "inputs": [
        {
          "internalType": "contract IVotes",
          "name": "_token",
          "type": "address"
        },
        {
          "internalType": "contract TimelockController",
          "name": "_timelock",
          "type": "address"
        }
      ],
      "stateMutability": "nonpayable",
      "type": "constructor"
    },
    {
      "inputs": [],
      "name": "Empty",
      "type": "error"
    },
    {
      "anonymous": false,
      "inputs": [
        {
          "indexed": false,
          "internalType": "uint256",
          "name": "proposalId",
          "type": "uint256"
        }
      ],
      "name": "ProposalCanceled",
      "type": "event"
    },
    {
      "anonymous": false,
      "inputs": [
        {
          "indexed": false,
          "internalType": "uint256",
          "name": "proposalId",
          "type": "uint256"
        },
        {
          "indexed": false,
          "internalType": "address",
          "name": "proposer",
          "type": "address"
        },
        {
          "indexed": false,
          "internalType": "address[]",
          "name": "targets",
          "type": "address[]"
        },
        {
          "indexed": false,
          "internalType": "uint256[]",
          "name": "values",
          "type": "uint256[]"
        },
        {
          "indexed": false,
          "internalType": "string[]",
          "name": "signatures",
          "type": "string[]"
        },
        {
          "indexed": false,
          "internalType": "bytes[]",
          "name": "calldatas",
          "type": "bytes[]"
        },
        {
          "indexed": false,
          "internalType": "uint256",
          "name": "startBlock",
          "type": "uint256"
        },
        {
          "indexed": false,
          "internalType": "uint256",
          "name": "endBlock",
          "type": "uint256"
        },
        {
          "indexed": false,
          "internalType": "string",
          "name": "description",
          "type": "string"
        }
      ],
      "name": "ProposalCreated",
      "type": "event"
    },
    {
      "anonymous": false,
      "inputs": [
        {
          "indexed": false,
          "internalType": "uint256",
          "name": "proposalId",
          "type": "uint256"
        }
      ],
      "name": "ProposalExecuted",
      "type": "event"
    },
    {
      "anonymous": false,
      "inputs": [
        {
          "indexed": false,
          "internalType": "uint256",
          "name": "proposalId",
          "type": "uint256"
        },
        {
          "indexed": false,
          "internalType": "uint256",
          "name": "eta",
          "type": "uint256"
        }
      ],
      "name": "ProposalQueued",
      "type": "event"
    },
    {
      "anonymous": false,
      "inputs": [
        {
          "indexed": false,
          "internalType": "uint256",
          "name": "oldQuorumNumerator",
          "type": "uint256"
        },
        {
          "indexed": false,
          "internalType": "uint256",
          "name": "newQuorumNumerator",
          "type": "uint256"
        }
      ],
      "name": "QuorumNumeratorUpdated",
      "type": "event"
    },
    {
      "anonymous": false,
      "inputs": [
        {
          "indexed": false,
          "internalType": "address",
          "name": "oldTimelock",
          "type": "address"
        },
        {
          "indexed": false,
          "internalType": "address",
          "name": "newTimelock",
          "type": "address"
        }
      ],
      "name": "TimelockChange",
      "type": "event"
    },
    {
      "anonymous": false,
      "inputs": [
        {
          "indexed": true,
          "internalType": "address",
          "name": "voter",
          "type": "address"
        },
        {
          "indexed": false,
          "internalType": "uint256",
          "name": "proposalId",
          "type": "uint256"
        },
        {
          "indexed": false,
          "internalType": "uint8",
          "name": "support",
          "type": "uint8"
        },
        {
          "indexed": false,
          "internalType": "uint256",
          "name": "weight",
          "type": "uint256"
        },
        {
          "indexed": false,
          "internalType": "string",
          "name": "reason",
          "type": "string"
        }
      ],
      "name": "VoteCast",
      "type": "event"
    },
    {
      "anonymous": false,
      "inputs": [
        {
          "indexed": true,
          "internalType": "address",
          "name": "voter",
          "type": "address"
        },
        {
          "indexed": false,
          "internalType": "uint256",
          "name": "proposalId",
          "type": "uint256"
        },
        {
          "indexed": false,
          "internalType": "uint8",
          "name": "support",
          "type": "uint8"
        },
        {
          "indexed": false,
          "internalType": "uint256",
          "name": "weight",
          "type": "uint256"
        },
        {
          "indexed": false,
          "internalType": "string",
          "name": "reason",
          "type": "string"
        },
        {
          "indexed": false,
          "internalType": "bytes",
          "name": "params",
          "type": "bytes"
        }
      ],
      "name": "VoteCastWithParams",
      "type": "event"
    },
    {
      "inputs": [],
      "name": "BALLOT_TYPEHASH",
      "outputs": [
        {
          "internalType": "bytes32",
          "name": "",
          "type": "bytes32"
        }
      ],
      "stateMutability": "view",
      "type": "function"
    },
    {
      "inputs": [],
      "name": "COUNTING_MODE",
      "outputs": [
        {
          "internalType": "string",
          "name": "",
          "type": "string"
        }
      ],
      "stateMutability": "pure",
      "type": "function"
    },
    {
      "inputs": [],
      "name": "EXTENDED_BALLOT_TYPEHASH",
      "outputs": [
        {
          "internalType": "bytes32",
          "name": "",
          "type": "bytes32"
        }
      ],
      "stateMutability": "view",
      "type": "function"
    },
    {
      "inputs": [
        {
          "internalType": "uint256",
          "name": "proposalId",
          "type": "uint256"
        },
        {
          "internalType": "uint8",
          "name": "support",
          "type": "uint8"
        }
      ],
      "name": "castVote",
      "outputs": [
        {
          "internalType": "uint256",
          "name": "",
          "type": "uint256"
        }
      ],
      "stateMutability": "nonpayable",
      "type": "function"
    },
    {
      "inputs": [
        {
          "internalType": "uint256",
          "name": "proposalId",
          "type": "uint256"
        },
        {
          "internalType": "uint8",
          "name": "support",
          "type": "uint8"
        },
        {
          "internalType": "uint8",
          "name": "v",
          "type": "uint8"
        },
        {
          "internalType": "bytes32",
          "name": "r",
          "type": "bytes32"
        },
        {
          "internalType": "bytes32",
          "name": "s",
          "type": "bytes32"
        }
      ],
      "name": "castVoteBySig",
      "outputs": [
        {
          "internalType": "uint256",
          "name": "",
          "type": "uint256"
        }
      ],
      "stateMutability": "nonpayable",
      "type": "function"
    },
    {
      "inputs": [
        {
          "internalType": "uint256",
          "name": "proposalId",
          "type": "uint256"
        },
        {
          "internalType": "uint8",
          "name": "support",
          "type": "uint8"
        },
        {
          "internalType": "string",
          "name": "reason",
          "type": "string"
        }
      ],
      "name": "castVoteWithReason",
      "outputs": [
        {
          "internalType": "uint256",
          "name": "",
          "type": "uint256"
        }
      ],
      "stateMutability": "nonpayable",
      "type": "function"
    },
    {
      "inputs": [
        {
          "internalType": "uint256",
          "name": "proposalId",
          "type": "uint256"
        },
        {
          "internalType": "uint8",
          "name": "support",
          "type": "uint8"
        },
        {
          "internalType": "string",
          "name": "reason",
          "type": "string"
        },
        {
          "internalType": "bytes",
          "name": "params",
          "type": "bytes"
        }
      ],
      "name": "castVoteWithReasonAndParams",
      "outputs": [
        {
          "internalType": "uint256",
          "name": "",
          "type": "uint256"
        }
      ],
      "stateMutability": "nonpayable",
      "type": "function"
    },
    {
      "inputs": [
        {
          "internalType": "uint256",
          "name": "proposalId",
          "type": "uint256"
        },
        {
          "internalType": "uint8",
          "name": "support",
          "type": "uint8"
        },
        {
          "internalType": "string",
          "name": "reason",
          "type": "string"
        },
        {
          "internalType": "bytes",
          "name": "params",
          "type": "bytes"
        },
        {
          "internalType": "uint8",
          "name": "v",
          "type": "uint8"
        },
        {
          "internalType": "bytes32",
          "name": "r",
          "type": "bytes32"
        },
        {
          "internalType": "bytes32",
          "name": "s",
          "type": "bytes32"
        }
      ],
      "name": "castVoteWithReasonAndParamsBySig",
      "outputs": [
        {
          "internalType": "uint256",
          "name": "",
          "type": "uint256"
        }
      ],
      "stateMutability": "nonpayable",
      "type": "function"
    },
    {
      "inputs": [
        {
          "internalType": "address[]",
          "name": "targets",
          "type": "address[]"
        },
        {
          "internalType": "uint256[]",
          "name": "values",
          "type": "uint256[]"
        },
        {
          "internalType": "bytes[]",
          "name": "calldatas",
          "type": "bytes[]"
        },
        {
          "internalType": "bytes32",
          "name": "descriptionHash",
          "type": "bytes32"
        }
      ],
      "name": "execute",
      "outputs": [
        {
          "internalType": "uint256",
          "name": "",
          "type": "uint256"
        }
      ],
      "stateMutability": "payable",
      "type": "function"
    },
    {
      "inputs": [
        {
          "internalType": "address",
          "name": "account",
          "type": "address"
        },
        {
          "internalType": "uint256",
          "name": "blockNumber",
          "type": "uint256"
        }
      ],
      "name": "getVotes",
      "outputs": [
        {
          "internalType": "uint256",
          "name": "",
          "type": "uint256"
        }
      ],
      "stateMutability": "view",
      "type": "function"
    },
    {
      "inputs": [
        {
          "internalType": "address",
          "name": "account",
          "type": "address"
        },
        {
          "internalType": "uint256",
          "name": "blockNumber",
          "type": "uint256"
        },
        {
          "internalType": "bytes",
          "name": "params",
          "type": "bytes"
        }
      ],
      "name": "getVotesWithParams",
      "outputs": [
        {
          "internalType": "uint256",
          "name": "",
          "type": "uint256"
        }
      ],
      "stateMutability": "view",
      "type": "function"
    },
    {
      "inputs": [
        {
          "internalType": "uint256",
          "name": "proposalId",
          "type": "uint256"
        },
        {
          "internalType": "address",
          "name": "account",
          "type": "address"
        }
      ],
      "name": "hasVoted",
      "outputs": [
        {
          "internalType": "bool",
          "name": "",
          "type": "bool"
        }
      ],
      "stateMutability": "view",
      "type": "function"
    },
    {
      "inputs": [
        {
          "internalType": "address[]",
          "name": "targets",
          "type": "address[]"
        },
        {
          "internalType": "uint256[]",
          "name": "values",
          "type": "uint256[]"
        },
        {
          "internalType": "bytes[]",
          "name": "calldatas",
          "type": "bytes[]"
        },
        {
          "internalType": "bytes32",
          "name": "descriptionHash",
          "type": "bytes32"
        }
      ],
      "name": "hashProposal",
      "outputs": [
        {
          "internalType": "uint256",
          "name": "",
          "type": "uint256"
        }
      ],
      "stateMutability": "pure",
      "type": "function"
    },
    {
      "inputs": [],
      "name": "name",
      "outputs": [
        {
          "internalType": "string",
          "name": "",
          "type": "string"
        }
      ],
      "stateMutability": "view",
      "type": "function"
    },
    {
      "inputs": [
        {
          "internalType": "address",
          "name": "",
          "type": "address"
        },
        {
          "internalType": "address",
          "name": "",
          "type": "address"
        },
        {
          "internalType": "uint256[]",
          "name": "",
          "type": "uint256[]"
        },
        {
          "internalType": "uint256[]",
          "name": "",
          "type": "uint256[]"
        },
        {
          "internalType": "bytes",
          "name": "",
          "type": "bytes"
        }
      ],
      "name": "onERC1155BatchReceived",
      "outputs": [
        {
          "internalType": "bytes4",
          "name": "",
          "type": "bytes4"
        }
      ],
      "stateMutability": "nonpayable",
      "type": "function"
    },
    {
      "inputs": [
        {
          "internalType": "address",
          "name": "",
          "type": "address"
        },
        {
          "internalType": "address",
          "name": "",
          "type": "address"
        },
        {
          "internalType": "uint256",
          "name": "",
          "type": "uint256"
        },
        {
          "internalType": "uint256",
          "name": "",
          "type": "uint256"
        },
        {
          "internalType": "bytes",
          "name": "",
          "type": "bytes"
        }
      ],
      "name": "onERC1155Received",
      "outputs": [
        {
          "internalType": "bytes4",
          "name": "",
          "type": "bytes4"
        }
      ],
      "stateMutability": "nonpayable",
      "type": "function"
    },
    {
      "inputs": [
        {
          "internalType": "address",
          "name": "",
          "type": "address"
        },
        {
          "internalType": "address",
          "name": "",
          "type": "address"
        },
        {
          "internalType": "uint256",
          "name": "",
          "type": "uint256"
        },
        {
          "internalType": "bytes",
          "name": "",
          "type": "bytes"
        }
      ],
      "name": "onERC721Received",
      "outputs": [
        {
          "internalType": "bytes4",
          "name": "",
          "type": "bytes4"
        }
      ],
      "stateMutability": "nonpayable",
      "type": "function"
    },
    {
      "inputs": [
        {
          "internalType": "uint256",
          "name": "proposalId",
          "type": "uint256"
        }
      ],
      "name": "proposalDeadline",
      "outputs": [
        {
          "internalType": "uint256",
          "name": "",
          "type": "uint256"
        }
      ],
      "stateMutability": "view",
      "type": "function"
    },
    {
      "inputs": [
        {
          "internalType": "uint256",
          "name": "proposalId",
          "type": "uint256"
        }
      ],
      "name": "proposalEta",
      "outputs": [
        {
          "internalType": "uint256",
          "name": "",
          "type": "uint256"
        }
      ],
      "stateMutability": "view",
      "type": "function"
    },
    {
      "inputs": [
        {
          "internalType": "uint256",
          "name": "proposalId",
          "type": "uint256"
        }
      ],
      "name": "proposalSnapshot",
      "outputs": [
        {
          "internalType": "uint256",
          "name": "",
          "type": "uint256"
        }
      ],
      "stateMutability": "view",
      "type": "function"
    },
    {
      "inputs": [],
      "name": "proposalThreshold",
      "outputs": [
        {
          "internalType": "uint256",
          "name": "",
          "type": "uint256"
        }
      ],
      "stateMutability": "pure",
      "type": "function"
    },
    {
      "inputs": [
        {
          "internalType": "uint256",
          "name": "proposalId",
          "type": "uint256"
        }
      ],
      "name": "proposalVotes",
      "outputs": [
        {
          "internalType": "uint256",
          "name": "againstVotes",
          "type": "uint256"
        },
        {
          "internalType": "uint256",
          "name": "forVotes",
          "type": "uint256"
        },
        {
          "internalType": "uint256",
          "name": "abstainVotes",
          "type": "uint256"
        }
      ],
      "stateMutability": "view",
      "type": "function"
    },
    {
      "inputs": [
        {
          "internalType": "address[]",
          "name": "targets",
          "type": "address[]"
        },
        {
          "internalType": "uint256[]",
          "name": "values",
          "type": "uint256[]"
        },
        {
          "internalType": "bytes[]",
          "name": "calldatas",
          "type": "bytes[]"
        },
        {
          "internalType": "string",
          "name": "description",
          "type": "string"
        }
      ],
      "name": "propose",
      "outputs": [
        {
          "internalType": "uint256",
          "name": "",
          "type": "uint256"
        }
      ],
      "stateMutability": "nonpayable",
      "type": "function"
    },
    {
      "inputs": [
        {
          "internalType": "address[]",
          "name": "targets",
          "type": "address[]"
        },
        {
          "internalType": "uint256[]",
          "name": "values",
          "type": "uint256[]"
        },
        {
          "internalType": "bytes[]",
          "name": "calldatas",
          "type": "bytes[]"
        },
        {
          "internalType": "bytes32",
          "name": "descriptionHash",
          "type": "bytes32"
        }
      ],
      "name": "queue",
      "outputs": [
        {
          "internalType": "uint256",
          "name": "",
          "type": "uint256"
        }
      ],
      "stateMutability": "nonpayable",
      "type": "function"
    },
    {
      "inputs": [
        {
          "internalType": "uint256",
          "name": "blockNumber",
          "type": "uint256"
        }
      ],
      "name": "quorum",
      "outputs": [
        {
          "internalType": "uint256",
          "name": "",
          "type": "uint256"
        }
      ],
      "stateMutability": "view",
      "type": "function"
    },
    {
      "inputs": [],
      "name": "quorumDenominator",
      "outputs": [
        {
          "internalType": "uint256",
          "name": "",
          "type": "uint256"
        }
      ],
      "stateMutability": "view",
      "type": "function"
    },
    {
      "inputs": [
        {
          "internalType": "uint256",
          "name": "blockNumber",
          "type": "uint256"
        }
      ],
      "name": "quorumNumerator",
      "outputs": [
        {
          "internalType": "uint256",
          "name": "",
          "type": "uint256"
        }
      ],
      "stateMutability": "view",
      "type": "function"
    },
    {
      "inputs": [],
      "name": "quorumNumerator",
      "outputs": [
        {
          "internalType": "uint256",
          "name": "",
          "type": "uint256"
        }
      ],
      "stateMutability": "view",
      "type": "function"
    },
    {
      "inputs": [
        {
          "internalType": "address",
          "name": "target",
          "type": "address"
        },
        {
          "internalType": "uint256",
          "name": "value",
          "type": "uint256"
        },
        {
          "internalType": "bytes",
          "name": "data",
          "type": "bytes"
        }
      ],
      "name": "relay",
      "outputs": [],
      "stateMutability": "payable",
      "type": "function"
    },
    {
      "inputs": [
        {
          "internalType": "uint256",
          "name": "proposalId",
          "type": "uint256"
        }
      ],
      "name": "state",
      "outputs": [
        {
          "internalType": "enum IGovernor.ProposalState",
          "name": "",
          "type": "uint8"
        }
      ],
      "stateMutability": "view",
      "type": "function"
    },
    {
      "inputs": [
        {
          "internalType": "bytes4",
          "name": "interfaceId",
          "type": "bytes4"
        }
      ],
      "name": "supportsInterface",
      "outputs": [
        {
          "internalType": "bool",
          "name": "",
          "type": "bool"
        }
      ],
      "stateMutability": "view",
      "type": "function"
    },
    {
      "inputs": [],
      "name": "timelock",
      "outputs": [
        {
          "internalType": "address",
          "name": "",
          "type": "address"
        }
      ],
      "stateMutability": "view",
      "type": "function"
    },
    {
      "inputs": [],
      "name": "token",
      "outputs": [
        {
          "internalType": "contract IVotes",
          "name": "",
          "type": "address"
        }
      ],
      "stateMutability": "view",
      "type": "function"
    },
    {
      "inputs": [
        {
          "internalType": "uint256",
          "name": "newQuorumNumerator",
          "type": "uint256"
        }
      ],
      "name": "updateQuorumNumerator",
      "outputs": [],
      "stateMutability": "nonpayable",
      "type": "function"
    },
    {
      "inputs": [
        {
          "internalType": "contract TimelockController",
          "name": "newTimelock",
          "type": "address"
        }
      ],
      "name": "updateTimelock",
      "outputs": [],
      "stateMutability": "nonpayable",
      "type": "function"
    },
    {
      "inputs": [],
      "name": "version",
      "outputs": [
        {
          "internalType": "string",
          "name": "",
          "type": "string"
        }
      ],
      "stateMutability": "view",
      "type": "function"
    },
    {
      "inputs": [],
      "name": "votingDelay",
      "outputs": [
        {
          "internalType": "uint256",
          "name": "",
          "type": "uint256"
        }
      ],
      "stateMutability": "pure",
      "type": "function"
    },
    {
      "inputs": [],
      "name": "votingPeriod",
      "outputs": [
        {
          "internalType": "uint256",
          "name": "",
          "type": "uint256"
        }
      ],
      "stateMutability": "pure",
      "type": "function"
    },
    {
      "stateMutability": "payable",
      "type": "receive"
    }
  ],
  "bytecode": "0x6101606040523480156200001257600080fd5b506040516200779d3803806200779d833981810160405281019062000038919062000b59565b600482826040518060400160405280600a81526020017f4d79476f7665726e6f72000000000000000000000000000000000000000000008152508062000083620001aa60201b60201c565b60008280519060200120905060008280519060200120905060007f8b73c3c69bb8fe3d512ecc4cf759cc79239f7b179b0ffacaa9a75d522b39400f90508260e081815250508161010081815250504660a08181525050620000ec818484620001e760201b60201c565b608081815250503073ffffffffffffffffffffffffffffffffffffffff1660c08173ffffffffffffffffffffffffffffffffffffffff16815250508061012081815250505050505050806000908162000146919062000e1a565b505062000159816200022360201b60201c565b508073ffffffffffffffffffffffffffffffffffffffff166101408173ffffffffffffffffffffffffffffffffffffffff168152505050620001a181620002c460201b60201c565b505050620012d0565b60606040518060400160405280600181526020017f3100000000000000000000000000000000000000000000000000000000000000815250905090565b600083838346306040516020016200020495949392919062000f3e565b6040516020818303038152906040528051906020012090509392505050565b7f08f74ea46ef7894f65eabfb5e6e695de773a000b47c529ab559178069b226401600460009054906101000a900473ffffffffffffffffffffffffffffffffffffffff16826040516200027892919062000f9b565b60405180910390a180600460006101000a81548173ffffffffffffffffffffffffffffffffffffffff021916908373ffffffffffffffffffffffffffffffffffffffff16021790555050565b620002d4620004a360201b60201c565b81111562000319576040517f08c379a0000000000000000000000000000000000000000000000000000000008152600401620003109062001075565b60405180910390fd5b60006200032b620004ac60201b60201c565b9050600081141580156200034757506000600760000180549050145b15620004475760076000016040518060400160405280600063ffffffff16815260200162000380846200050260201b62001afd1760201c565b7bffffffffffffffffffffffffffffffffffffffffffffffffffffffff168152509080600181540180825580915050600190039060005260206000200160009091909190915060008201518160000160006101000a81548163ffffffff021916908363ffffffff16021790555060208201518160000160046101000a8154817bffffffffffffffffffffffffffffffffffffffffffffffffffffffff02191690837bffffffffffffffffffffffffffffffffffffffffffffffffffffffff16021790555050505b620004628260076200057060201b62001b681790919060201c565b50507f0553476bf02ef2726e8ce5ced78d63e26e602e4a2257b1f559418e24b463399781836040516200049792919062001097565b60405180910390a15050565b60006064905090565b60008060076000018054905014620004f957620004d560076200060060201b62001bd61760201c565b7bffffffffffffffffffffffffffffffffffffffffffffffffffffffff16620004fd565b6006545b905090565b60007bffffffffffffffffffffffffffffffffffffffffffffffffffffffff801682111562000568576040517f08c379a00000000000000000000000000000000000000000000000000000000081526004016200055f906200113a565b60405180910390fd5b819050919050565b600080620005b38460000162000591436200067660201b62001c401760201c565b620005a7866200050260201b62001afd1760201c565b620006cc60201b60201c565b817bffffffffffffffffffffffffffffffffffffffffffffffffffffffff169150807bffffffffffffffffffffffffffffffffffffffffffffffffffffffff169050915091509250929050565b60008082600001805490509050600081146200066b5762000639836000016001836200062d91906200118b565b62000a6d60201b60201c565b60000160049054906101000a90047bffffffffffffffffffffffffffffffffffffffffffffffffffffffff166200066e565b60005b915050919050565b600063ffffffff8016821115620006c4576040517f08c379a0000000000000000000000000000000000000000000000000000000008152600401620006bb906200123c565b60405180910390fd5b819050919050565b60008060008580549050905060008111156200097d5760006200070487600184620006f891906200118b565b62000a6d60201b60201c565b6040518060400160405290816000820160009054906101000a900463ffffffff1663ffffffff1663ffffffff1681526020016000820160049054906101000a90047bffffffffffffffffffffffffffffffffffffffffffffffffffffffff167bffffffffffffffffffffffffffffffffffffffffffffffffffffffff167bffffffffffffffffffffffffffffffffffffffffffffffffffffffff168152505090508563ffffffff16816000015163ffffffff161115620007fb576040517f08c379a0000000000000000000000000000000000000000000000000000000008152600401620007f290620012ae565b60405180910390fd5b8563ffffffff16816000015163ffffffff16036200088b578462000834886001856200082891906200118b565b62000a6d60201b60201c565b60000160046101000a8154817bffffffffffffffffffffffffffffffffffffffffffffffffffffffff02191690837bffffffffffffffffffffffffffffffffffffffffffffffffffffffff1602179055506200096b565b8660405180604001604052808863ffffffff168152602001877bffffffffffffffffffffffffffffffffffffffffffffffffffffffff168152509080600181540180825580915050600190039060005260206000200160009091909190915060008201518160000160006101000a81548163ffffffff021916908363ffffffff16021790555060208201518160000160046101000a8154817bffffffffffffffffffffffffffffffffffffffffffffffffffffffff02191690837bffffffffffffffffffffffffffffffffffffffffffffffffffffffff16021790555050505b80602001518593509350505062000a65565b8560405180604001604052808763ffffffff168152602001867bffffffffffffffffffffffffffffffffffffffffffffffffffffffff168152509080600181540180825580915050600190039060005260206000200160009091909190915060008201518160000160006101000a81548163ffffffff021916908363ffffffff16021790555060208201518160000160046101000a8154817bffffffffffffffffffffffffffffffffffffffffffffffffffffffff02191690837bffffffffffffffffffffffffffffffffffffffffffffffffffffffff160217905550505060008492509250505b935093915050565b60008260005281602060002001905092915050565b600080fd5b600073ffffffffffffffffffffffffffffffffffffffff82169050919050565b600062000ab48262000a87565b9050919050565b600062000ac88262000aa7565b9050919050565b62000ada8162000abb565b811462000ae657600080fd5b50565b60008151905062000afa8162000acf565b92915050565b600062000b0d8262000a87565b9050919050565b600062000b218262000b00565b9050919050565b62000b338162000b14565b811462000b3f57600080fd5b50565b60008151905062000b538162000b28565b92915050565b6000806040838503121562000b735762000b7262000a82565b5b600062000b838582860162000ae9565b925050602062000b968582860162000b42565b9150509250929050565b600081519050919050565b7f4e487b7100000000000000000000000000000000000000000000000000000000600052604160045260246000fd5b7f4e487b7100000000000000000000000000000000000000000000000000000000600052602260045260246000fd5b6000600282049050600182168062000c2257607f821691505b60208210810362000c385762000c3762000bda565b5b50919050565b60008190508160005260206000209050919050565b60006020601f8301049050919050565b600082821b905092915050565b60006008830262000ca27fffffffffffffffffffffffffffffffffffffffffffffffffffffffffffffffff8262000c63565b62000cae868362000c63565b95508019841693508086168417925050509392505050565b6000819050919050565b6000819050919050565b600062000cfb62000cf562000cef8462000cc6565b62000cd0565b62000cc6565b9050919050565b6000819050919050565b62000d178362000cda565b62000d2f62000d268262000d02565b84845462000c70565b825550505050565b600090565b62000d4662000d37565b62000d5381848462000d0c565b505050565b5b8181101562000d7b5762000d6f60008262000d3c565b60018101905062000d59565b5050565b601f82111562000dca5762000d948162000c3e565b62000d9f8462000c53565b8101602085101562000daf578190505b62000dc762000dbe8562000c53565b83018262000d58565b50505b505050565b600082821c905092915050565b600062000def6000198460080262000dcf565b1980831691505092915050565b600062000e0a838362000ddc565b9150826002028217905092915050565b62000e258262000ba0565b67ffffffffffffffff81111562000e415762000e4062000bab565b5b62000e4d825462000c09565b62000e5a82828562000d7f565b600060209050601f83116001811462000e92576000841562000e7d578287015190505b62000e89858262000dfc565b86555062000ef9565b601f19841662000ea28662000c3e565b60005b8281101562000ecc5784890151825560018201915060208501945060208101905062000ea5565b8683101562000eec578489015162000ee8601f89168262000ddc565b8355505b6001600288020188555050505b505050505050565b6000819050919050565b62000f168162000f01565b82525050565b62000f278162000cc6565b82525050565b62000f388162000aa7565b82525050565b600060a08201905062000f55600083018862000f0b565b62000f64602083018762000f0b565b62000f73604083018662000f0b565b62000f82606083018562000f1c565b62000f91608083018462000f2d565b9695505050505050565b600060408201905062000fb2600083018562000f2d565b62000fc1602083018462000f2d565b9392505050565b600082825260208201905092915050565b7f476f7665726e6f72566f74657351756f72756d4672616374696f6e3a2071756f60008201527f72756d4e756d657261746f72206f7665722071756f72756d44656e6f6d696e6160208201527f746f720000000000000000000000000000000000000000000000000000000000604082015250565b60006200105d60438362000fc8565b91506200106a8262000fd9565b606082019050919050565b6000602082019050818103600083015262001090816200104e565b9050919050565b6000604082019050620010ae600083018562000f1c565b620010bd602083018462000f1c565b9392505050565b7f53616665436173743a2076616c756520646f65736e27742066697420696e203260008201527f3234206269747300000000000000000000000000000000000000000000000000602082015250565b60006200112260278362000fc8565b91506200112f82620010c4565b604082019050919050565b60006020820190508181036000830152620011558162001113565b9050919050565b7f4e487b7100000000000000000000000000000000000000000000000000000000600052601160045260246000fd5b6000620011988262000cc6565b9150620011a58362000cc6565b9250828203905081811115620011c057620011bf6200115c565b5b92915050565b7f53616665436173743a2076616c756520646f65736e27742066697420696e203360008201527f3220626974730000000000000000000000000000000000000000000000000000602082015250565b60006200122460268362000fc8565b91506200123182620011c6565b604082019050919050565b60006020820190508181036000830152620012578162001215565b9050919050565b7f436865636b706f696e743a20696e76616c6964206b6579000000000000000000600082015250565b60006200129660178362000fc8565b9150620012a3826200125e565b602082019050919050565b60006020820190508181036000830152620012c98162001287565b9050919050565b60805160a05160c05160e0516101005161012051610140516164646200133960003960008181611adb0152818161263b01526127cb01526000612e2c01526000612e6e01526000612e4d01526000612d8201526000612dd801526000612e0101526164646000f3fe6080604052600436106102295760003560e01c80637b3c71d311610123578063c01f9e37116100ab578063deaaa7cc1161006f578063deaaa7cc14610949578063eb9019d414610974578063f23a6e61146109b1578063f8ce560a146109ee578063fc0c546a14610a2b5761026f565b8063c01f9e371461085d578063c28bc2fa1461089a578063c59057e4146108b6578063d33219b4146108f3578063dd4e2ba51461091e5761026f565b8063a7713a70116100f2578063a7713a7014610764578063a890c9101461078f578063ab58fb8e146107b8578063b58131b0146107f5578063bc197c81146108205761026f565b80637b3c71d3146106825780637d5e81e2146106bf57806397c3d334146106fc5780639a802a6d146107275761026f565b80632fe3e261116101b1578063544ffc9c11610175578063544ffc9c1461056157806354fd4d50146105a057806356781388146105cb5780635f398a141461060857806360c4247f146106455761026f565b80632fe3e261146104545780633932abb11461047f5780633bccf4fd146104aa5780633e4f49e6146104e757806343859632146105245761026f565b806306fdde03116101f857806306fdde0314610342578063150b7a021461036d578063160cbed7146103aa5780632656227d146103e75780632d63f693146104175761026f565b806301ffc9a71461027457806302a251a3146102b157806303420181146102dc57806306f3f9e6146103195761026f565b3661026f573073ffffffffffffffffffffffffffffffffffffffff1661024d610a56565b73ffffffffffffffffffffffffffffffffffffffff161461026d57600080fd5b005b600080fd5b34801561028057600080fd5b5061029b60048036038101906102969190613c0d565b610a65565b6040516102a89190613c55565b60405180910390f35b3480156102bd57600080fd5b506102c6610a77565b6040516102d39190613c89565b60405180910390f35b3480156102e857600080fd5b5061030360048036038101906102fe9190613ee5565b610a81565b6040516103109190613c89565b60405180910390f35b34801561032557600080fd5b50610340600480360381019061033b9190613fc3565b610b66565b005b34801561034e57600080fd5b50610357610c5d565b604051610364919061406f565b60405180910390f35b34801561037957600080fd5b50610394600480360381019061038f91906140ef565b610cef565b6040516103a19190614181565b60405180910390f35b3480156103b657600080fd5b506103d160048036038101906103cc9190614403565b610d03565b6040516103de9190613c89565b60405180910390f35b61040160048036038101906103fc9190614403565b610fbd565b60405161040e9190613c89565b60405180910390f35b34801561042357600080fd5b5061043e60048036038101906104399190613fc3565b61110a565b60405161044b9190613c89565b60405180910390f35b34801561046057600080fd5b50610469611178565b60405161047691906144cd565b60405180910390f35b34801561048b57600080fd5b5061049461119c565b6040516104a19190613c89565b60405180910390f35b3480156104b657600080fd5b506104d160048036038101906104cc91906144e8565b6111a5565b6040516104de9190613c89565b60405180910390f35b3480156104f357600080fd5b5061050e60048036038101906105099190613fc3565b61122f565b60405161051b91906145da565b60405180910390f35b34801561053057600080fd5b5061054b600480360381019061054691906145f5565b611241565b6040516105589190613c55565b60405180910390f35b34801561056d57600080fd5b5061058860048036038101906105839190613fc3565b6112ac565b60405161059793929190614635565b60405180910390f35b3480156105ac57600080fd5b506105b56112e4565b6040516105c2919061406f565b60405180910390f35b3480156105d757600080fd5b506105f260048036038101906105ed919061466c565b611321565b6040516105ff9190613c89565b60405180910390f35b34801561061457600080fd5b5061062f600480360381019061062a91906146ac565b611352565b60405161063c9190613c89565b60405180910390f35b34801561065157600080fd5b5061066c60048036038101906106679190613fc3565b6113bc565b6040516106799190613c89565b60405180910390f35b34801561068e57600080fd5b506106a960048036038101906106a49190614750565b611508565b6040516106b69190613c89565b60405180910390f35b3480156106cb57600080fd5b506106e660048036038101906106e19190614865565b611570565b6040516106f39190613c89565b60405180910390f35b34801561070857600080fd5b50610711611588565b60405161071e9190613c89565b60405180910390f35b34801561073357600080fd5b5061074e6004803603810190610749919061493c565b611591565b60405161075b9190613c89565b60405180910390f35b34801561077057600080fd5b506107796115a7565b6040516107869190613c89565b60405180910390f35b34801561079b57600080fd5b506107b660048036038101906107b191906149fb565b6115ee565b005b3480156107c457600080fd5b506107df60048036038101906107da9190613fc3565b6116e5565b6040516107ec9190613c89565b60405180910390f35b34801561080157600080fd5b5061080a6117b2565b6040516108179190613c89565b60405180910390f35b34801561082c57600080fd5b5061084760048036038101906108429190614a28565b6117c3565b6040516108549190614181565b60405180910390f35b34801561086957600080fd5b50610884600480360381019061087f9190613fc3565b6117d8565b6040516108919190613c89565b60405180910390f35b6108b460048036038101906108af9190614b4d565b611846565b005b3480156108c257600080fd5b506108dd60048036038101906108d89190614403565b6119cf565b6040516108ea9190613c89565b60405180910390f35b3480156108ff57600080fd5b50610908611a0b565b6040516109159190614bd0565b60405180910390f35b34801561092a57600080fd5b50610933611a35565b604051610940919061406f565b60405180910390f35b34801561095557600080fd5b5061095e611a72565b60405161096b91906144cd565b60405180910390f35b34801561098057600080fd5b5061099b60048036038101906109969190614beb565b611a96565b6040516109a89190613c89565b60405180910390f35b3480156109bd57600080fd5b506109d860048036038101906109d39190614c2b565b611ab2565b6040516109e59190614181565b60405180910390f35b3480156109fa57600080fd5b50610a156004803603810190610a109190613fc3565b611ac7565b604051610a229190613c89565b60405180910390f35b348015610a3757600080fd5b50610a40611ad9565b604051610a4d9190614d21565b60405180910390f35b6000610a60611c93565b905090565b6000610a7082611cbd565b9050919050565b600061b2fa905090565b600080610b04610afc7fb3b3f3b703cd84ce352197dcff232b1b5d3cfb2025ce47cf04742d0651f1af888c8c8c8c604051610abd929190614d6c565b60405180910390208b80519060200120604051602001610ae1959493929190614d94565b60405160208183030381529060405280519060200120611d37565b868686611d51565b9050610b578a828b8b8b8080601f016020809104026020016040519081016040528093929190818152602001838380828437600081840152601f19601f820116905080830192505050505050508a611d7c565b91505098975050505050505050565b610b6e610a56565b73ffffffffffffffffffffffffffffffffffffffff16610b8c611f38565b73ffffffffffffffffffffffffffffffffffffffff1614610be2576040517f08c379a0000000000000000000000000000000000000000000000000000000008152600401610bd990614e33565b60405180910390fd5b3073ffffffffffffffffffffffffffffffffffffffff16610c01610a56565b73ffffffffffffffffffffffffffffffffffffffff1614610c51576000610c26611f40565b604051610c34929190614d6c565b604051809103902090505b80610c4a6002611f4d565b03610c3f57505b610c5a81612029565b50565b606060008054610c6c90614e82565b80601f0160208091040260200160405190810160405280929190818152602001828054610c9890614e82565b8015610ce55780601f10610cba57610100808354040283529160200191610ce5565b820191906000526020600020905b815481529060010190602001808311610cc857829003601f168201915b5050505050905090565b600063150b7a0260e01b9050949350505050565b600080610d12868686866119cf565b905060046007811115610d2857610d27614563565b5b610d318261122f565b6007811115610d4357610d42614563565b5b14610d83576040517f08c379a0000000000000000000000000000000000000000000000000000000008152600401610d7a90614f25565b60405180910390fd5b6000600460009054906101000a900473ffffffffffffffffffffffffffffffffffffffff1673ffffffffffffffffffffffffffffffffffffffff1663f27a0c926040518163ffffffff1660e01b8152600401602060405180830381865afa158015610df2573d6000803e3d6000fd5b505050506040513d601f19601f82011682018060405250810190610e169190614f5a565b9050600460009054906101000a900473ffffffffffffffffffffffffffffffffffffffff1673ffffffffffffffffffffffffffffffffffffffff1663b1c5f4278888886000896040518663ffffffff1660e01b8152600401610e7c959493929190615262565b602060405180830381865afa158015610e99573d6000803e3d6000fd5b505050506040513d601f19601f82011682018060405250810190610ebd91906152df565b6005600084815260200190815260200160002081905550600460009054906101000a900473ffffffffffffffffffffffffffffffffffffffff1673ffffffffffffffffffffffffffffffffffffffff16638f2a0bb0888888600089876040518763ffffffff1660e01b8152600401610f3a9695949392919061530c565b600060405180830381600087803b158015610f5457600080fd5b505af1158015610f68573d6000803e3d6000fd5b505050507f9a2e42fd6722813d69113e7d0079d3d940171428df7373df9c7f7617cfda2892828242610f9a91906153b1565b604051610fa89291906153e5565b60405180910390a18192505050949350505050565b600080610fcc868686866119cf565b90506000610fd98261122f565b905060046007811115610fef57610fee614563565b5b81600781111561100257611001614563565b5b148061103257506005600781111561101d5761101c614563565b5b8160078111156110305761102f614563565b5b145b611071576040517f08c379a000000000000000000000000000000000000000000000000000000000815260040161106890614f25565b60405180910390fd5b600180600084815260200190815260200160002060020160006101000a81548160ff0219169083151502179055507f712ae1383f79ac853f8d882153778e0260ef8f03b504e2866e0593e04d2b291f826040516110ce9190613c89565b60405180910390a16110e382888888886121dd565b6110f082888888886122c0565b6110fd82888888886122d4565b8192505050949350505050565b6000611167600160008481526020019081526020016000206000016040518060200160405290816000820160009054906101000a900467ffffffffffffffff1667ffffffffffffffff1667ffffffffffffffff168152505061232f565b67ffffffffffffffff169050919050565b7fb3b3f3b703cd84ce352197dcff232b1b5d3cfb2025ce47cf04742d0651f1af8881565b60006001905090565b6000806112066111fe7f150214d74d59b7d1e90c73fc22ef3d991dd0a76b046543d4d80ab92d2a50328f89896040516020016111e39392919061540e565b60405160208183030381529060405280519060200120611d37565b868686611d51565b90506112238782886040518060200160405280600081525061233d565b91505095945050505050565b600061123a8261235d565b9050919050565b60006008600084815260200190815260200160002060030160008373ffffffffffffffffffffffffffffffffffffffff1673ffffffffffffffffffffffffffffffffffffffff16815260200190815260200160002060009054906101000a900460ff16905092915050565b600080600080600860008681526020019081526020016000209050806000015481600101548260020154935093509350509193909250565b60606040518060400160405280600181526020017f3100000000000000000000000000000000000000000000000000000000000000815250905090565b60008061132c611f38565b90506113498482856040518060200160405280600081525061233d565b91505092915050565b60008061135d611f38565b90506113b087828888888080601f016020809104026020016040519081016040528093929190818152602001838380828437600081840152601f19601f8201169050808301925050505050505087611d7c565b91505095945050505050565b6000806007600001805490509050600081036113dd57600654915050611503565b600060076000016001836113f19190615445565b8154811061140257611401615479565b5b906000526020600020016040518060400160405290816000820160009054906101000a900463ffffffff1663ffffffff1663ffffffff1681526020016000820160049054906101000a90047bffffffffffffffffffffffffffffffffffffffffffffffffffffffff167bffffffffffffffffffffffffffffffffffffffffffffffffffffffff167bffffffffffffffffffffffffffffffffffffffffffffffffffffffff1681525050905083816000015163ffffffff16116114ea5780602001517bffffffffffffffffffffffffffffffffffffffffffffffffffffffff1692505050611503565b6114fe84600761253090919063ffffffff16565b925050505b919050565b600080611513611f38565b905061156586828787878080601f016020809104026020016040519081016040528093929190818152602001838380828437600081840152601f19601f8201169050808301925050505050505061233d565b915050949350505050565b600061157e8585858561261f565b9050949350505050565b60006064905090565b600061159e848484612637565b90509392505050565b600080600760000180549050146115e5576115c26007611bd6565b7bffffffffffffffffffffffffffffffffffffffffffffffffffffffff166115e9565b6006545b905090565b6115f6610a56565b73ffffffffffffffffffffffffffffffffffffffff16611614611f38565b73ffffffffffffffffffffffffffffffffffffffff161461166a576040517f08c379a000000000000000000000000000000000000000000000000000000000815260040161166190614e33565b60405180910390fd5b3073ffffffffffffffffffffffffffffffffffffffff16611689610a56565b73ffffffffffffffffffffffffffffffffffffffff16146116d95760006116ae611f40565b6040516116bc929190614d6c565b604051809103902090505b806116d26002611f4d565b036116c757505b6116e2816126de565b50565b600080600460009054906101000a900473ffffffffffffffffffffffffffffffffffffffff1673ffffffffffffffffffffffffffffffffffffffff1663d45c443560056000868152602001908152602001600020546040518263ffffffff1660e01b815260040161175691906144cd565b602060405180830381865afa158015611773573d6000803e3d6000fd5b505050506040513d601f19601f820116820180604052508101906117979190614f5a565b9050600181146117a757806117aa565b60005b915050919050565b6000683635c9adc5dea00000905090565b600063bc197c8160e01b905095945050505050565b6000611835600160008481526020019081526020016000206001016040518060200160405290816000820160009054906101000a900467ffffffffffffffff1667ffffffffffffffff1667ffffffffffffffff168152505061232f565b67ffffffffffffffff169050919050565b61184e610a56565b73ffffffffffffffffffffffffffffffffffffffff1661186c611f38565b73ffffffffffffffffffffffffffffffffffffffff16146118c2576040517f08c379a00000000000000000000000000000000000000000000000000000000081526004016118b990614e33565b60405180910390fd5b3073ffffffffffffffffffffffffffffffffffffffff166118e1610a56565b73ffffffffffffffffffffffffffffffffffffffff1614611931576000611906611f40565b604051611914929190614d6c565b604051809103902090505b8061192a6002611f4d565b0361191f57505b6000808573ffffffffffffffffffffffffffffffffffffffff1685858560405161195c929190614d6c565b60006040518083038185875af1925050503d8060008114611999576040519150601f19603f3d011682016040523d82523d6000602084013e61199e565b606091505b50915091506119c682826040518060600160405280602881526020016164076028913961277d565b50505050505050565b6000848484846040516020016119e894939291906154a8565b6040516020818303038152906040528051906020012060001c9050949350505050565b6000600460009054906101000a900473ffffffffffffffffffffffffffffffffffffffff16905090565b60606040518060400160405280602081526020017f737570706f72743d627261766f2671756f72756d3d666f722c6162737461696e815250905090565b7f150214d74d59b7d1e90c73fc22ef3d991dd0a76b046543d4d80ab92d2a50328f81565b6000611aaa8383611aa561279f565b612637565b905092915050565b600063f23a6e6160e01b905095945050505050565b6000611ad2826127b6565b9050919050565b7f000000000000000000000000000000000000000000000000000000000000000081565b60007bffffffffffffffffffffffffffffffffffffffffffffffffffffffff8016821115611b60576040517f08c379a0000000000000000000000000000000000000000000000000000000008152600401611b5790615574565b60405180910390fd5b819050919050565b600080611b8984600001611b7b43611c40565b611b8486611afd565b61287e565b817bffffffffffffffffffffffffffffffffffffffffffffffffffffffff169150807bffffffffffffffffffffffffffffffffffffffffffffffffffffffff169050915091509250929050565b6000808260000180549050905060008114611c3557611c0483600001600183611bff9190615445565b612c04565b60000160049054906101000a90047bffffffffffffffffffffffffffffffffffffffffffffffffffffffff16611c38565b60005b915050919050565b600063ffffffff8016821115611c8b576040517f08c379a0000000000000000000000000000000000000000000000000000000008152600401611c8290615606565b60405180910390fd5b819050919050565b6000600460009054906101000a900473ffffffffffffffffffffffffffffffffffffffff16905090565b60007f6e665ced000000000000000000000000000000000000000000000000000000007bffffffffffffffffffffffffffffffffffffffffffffffffffffffff1916827bffffffffffffffffffffffffffffffffffffffffffffffffffffffff19161480611d305750611d2f82612c19565b5b9050919050565b6000611d4a611d44612d7e565b83612e98565b9050919050565b6000806000611d6287878787612ecb565b91509150611d6f81612fad565b8192505050949350505050565b60008060016000888152602001908152602001600020905060016007811115611da857611da7614563565b5b611db18861122f565b6007811115611dc357611dc2614563565b5b14611e03576040517f08c379a0000000000000000000000000000000000000000000000000000000008152600401611dfa90615698565b60405180910390fd5b6000611e6287611e52846000016040518060200160405290816000820160009054906101000a900467ffffffffffffffff1667ffffffffffffffff1667ffffffffffffffff168152505061232f565b67ffffffffffffffff1686612637565b9050611e718888888488613113565b6000845103611ed3578673ffffffffffffffffffffffffffffffffffffffff167fb8e138887d0aa13bab447e82de9d5c1777041ecd21ca36ba824ff1e6c07ddda489888489604051611ec694939291906156b8565b60405180910390a2611f2a565b8673ffffffffffffffffffffffffffffffffffffffff167fe2babfbac5889a709b63bb7f598b324e08bc5a4fb9ec647fb3cbc9ec07eb87128988848989604051611f2195949392919061574e565b60405180910390a25b809250505095945050505050565b600033905090565b3660008036915091509091565b6000611f5882613317565b15611f8f576040517f3db2a12a00000000000000000000000000000000000000000000000000000000815260040160405180910390fd5b60008260000160009054906101000a9004600f0b905082600101600082600f0b600f0b815260200190815260200160002054915082600101600082600f0b600f0b815260200190815260200160002060009055600181018360000160006101000a8154816fffffffffffffffffffffffffffffffff0219169083600f0b6fffffffffffffffffffffffffffffffff16021790555050919050565b612031611588565b811115612073576040517f08c379a000000000000000000000000000000000000000000000000000000000815260040161206a90615847565b60405180910390fd5b600061207d6115a7565b90506000811415801561209857506000600760000180549050145b1561218a5760076000016040518060400160405280600063ffffffff1681526020016120c384611afd565b7bffffffffffffffffffffffffffffffffffffffffffffffffffffffff168152509080600181540180825580915050600190039060005260206000200160009091909190915060008201518160000160006101000a81548163ffffffff021916908363ffffffff16021790555060208201518160000160046101000a8154817bffffffffffffffffffffffffffffffffffffffffffffffffffffffff02191690837bffffffffffffffffffffffffffffffffffffffffffffffffffffffff16021790555050505b61219e826007611b6890919063ffffffff16565b50507f0553476bf02ef2726e8ce5ced78d63e26e602e4a2257b1f559418e24b463399781836040516121d19291906153e5565b60405180910390a15050565b3073ffffffffffffffffffffffffffffffffffffffff166121fc610a56565b73ffffffffffffffffffffffffffffffffffffffff16146122b95760005b84518110156122b7573073ffffffffffffffffffffffffffffffffffffffff1685828151811061224d5761224c615479565b5b602002602001015173ffffffffffffffffffffffffffffffffffffffff16036122a6576122a583828151811061228657612285615479565b5b602002602001015180519060200120600261334c90919063ffffffff16565b5b806122b090615867565b905061221a565b505b5050505050565b6122cd85858585856133c8565b5050505050565b3073ffffffffffffffffffffffffffffffffffffffff166122f3610a56565b73ffffffffffffffffffffffffffffffffffffffff1614612328576123186002613317565b612327576123266002613466565b5b5b5050505050565b600081600001519050919050565b60006123538585858561234e61279f565b611d7c565b9050949350505050565b600080612369836134e7565b90506004600781111561237f5761237e614563565b5b81600781111561239257612391614563565b5b146123a0578091505061252b565b6000600560008581526020019081526020016000205490506000801b81036123cc57819250505061252b565b600460009054906101000a900473ffffffffffffffffffffffffffffffffffffffff1673ffffffffffffffffffffffffffffffffffffffff16632ab0f529826040518263ffffffff1660e01b815260040161242791906144cd565b602060405180830381865afa158015612444573d6000803e3d6000fd5b505050506040513d601f19601f8201168201806040525081019061246891906158db565b156124785760079250505061252b565b600460009054906101000a900473ffffffffffffffffffffffffffffffffffffffff1673ffffffffffffffffffffffffffffffffffffffff1663584b153e826040518263ffffffff1660e01b81526004016124d391906144cd565b602060405180830381865afa1580156124f0573d6000803e3d6000fd5b505050506040513d601f19601f8201168201806040525081019061251491906158db565b156125245760059250505061252b565b6002925050505b919050565b6000438210612574576040517f08c379a000000000000000000000000000000000000000000000000000000000815260040161256b90615954565b60405180910390fd5b600061257f83611c40565b9050600084600001805490509050600061259f86600001846000856135fb565b9050600081146125f3576125c2866000016001836125bd9190615445565b612c04565b60000160049054906101000a90047bffffffffffffffffffffffffffffffffffffffffffffffffffffffff166125f6565b60005b7bffffffffffffffffffffffffffffffffffffffffffffffffffffffff16935050505092915050565b600061262d8585858561366e565b9050949350505050565b60007f000000000000000000000000000000000000000000000000000000000000000073ffffffffffffffffffffffffffffffffffffffff16633a46b1a885856040518363ffffffff1660e01b8152600401612694929190615974565b602060405180830381865afa1580156126b1573d6000803e3d6000fd5b505050506040513d601f19601f820116820180604052508101906126d59190614f5a565b90509392505050565b7f08f74ea46ef7894f65eabfb5e6e695de773a000b47c529ab559178069b226401600460009054906101000a900473ffffffffffffffffffffffffffffffffffffffff168260405161273192919061599d565b60405180910390a180600460006101000a81548173ffffffffffffffffffffffffffffffffffffffff021916908373ffffffffffffffffffffffffffffffffffffffff16021790555050565b6060831561278d57829050612798565b6127978383613975565b5b9392505050565b606060405180602001604052806000815250905090565b60006127c0611588565b6127c9836113bc565b7f000000000000000000000000000000000000000000000000000000000000000073ffffffffffffffffffffffffffffffffffffffff16638e539e8c856040518263ffffffff1660e01b81526004016128229190613c89565b602060405180830381865afa15801561283f573d6000803e3d6000fd5b505050506040513d601f19601f820116820180604052508101906128639190614f5a565b61286d91906159c6565b6128779190615a37565b9050919050565b6000806000858054905090506000811115612b145760006128ab876001846128a69190615445565b612c04565b6040518060400160405290816000820160009054906101000a900463ffffffff1663ffffffff1663ffffffff1681526020016000820160049054906101000a90047bffffffffffffffffffffffffffffffffffffffffffffffffffffffff167bffffffffffffffffffffffffffffffffffffffffffffffffffffffff167bffffffffffffffffffffffffffffffffffffffffffffffffffffffff168152505090508563ffffffff16816000015163ffffffff16111561299f576040517f08c379a000000000000000000000000000000000000000000000000000000000815260040161299690615ab4565b60405180910390fd5b8563ffffffff16816000015163ffffffff1603612a2357846129cd886001856129c89190615445565b612c04565b60000160046101000a8154817bffffffffffffffffffffffffffffffffffffffffffffffffffffffff02191690837bffffffffffffffffffffffffffffffffffffffffffffffffffffffff160217905550612b03565b8660405180604001604052808863ffffffff168152602001877bffffffffffffffffffffffffffffffffffffffffffffffffffffffff168152509080600181540180825580915050600190039060005260206000200160009091909190915060008201518160000160006101000a81548163ffffffff021916908363ffffffff16021790555060208201518160000160046101000a8154817bffffffffffffffffffffffffffffffffffffffffffffffffffffffff02191690837bffffffffffffffffffffffffffffffffffffffffffffffffffffffff16021790555050505b806020015185935093505050612bfc565b8560405180604001604052808763ffffffff168152602001867bffffffffffffffffffffffffffffffffffffffffffffffffffffffff168152509080600181540180825580915050600190039060005260206000200160009091909190915060008201518160000160006101000a81548163ffffffff021916908363ffffffff16021790555060208201518160000160046101000a8154817bffffffffffffffffffffffffffffffffffffffffffffffffffffffff02191690837bffffffffffffffffffffffffffffffffffffffffffffffffffffffff160217905550505060008492509250505b935093915050565b60008260005281602060002001905092915050565b6000639a802a6d60e01b630342018160e01b635f398a1460e01b7f79dd796f000000000000000000000000000000000000000000000000000000001818187bffffffffffffffffffffffffffffffffffffffffffffffffffffffff1916827bffffffffffffffffffffffffffffffffffffffffffffffffffffffff19161480612cff57507f79dd796f000000000000000000000000000000000000000000000000000000007bffffffffffffffffffffffffffffffffffffffffffffffffffffffff1916827bffffffffffffffffffffffffffffffffffffffffffffffffffffffff1916145b80612d6757507f4e2312e0000000000000000000000000000000000000000000000000000000007bffffffffffffffffffffffffffffffffffffffffffffffffffffffff1916827bffffffffffffffffffffffffffffffffffffffffffffffffffffffff1916145b80612d775750612d76826139c5565b5b9050919050565b60007f000000000000000000000000000000000000000000000000000000000000000073ffffffffffffffffffffffffffffffffffffffff163073ffffffffffffffffffffffffffffffffffffffff16148015612dfa57507f000000000000000000000000000000000000000000000000000000000000000046145b15612e27577f00000000000000000000000000000000000000000000000000000000000000009050612e95565b612e927f00000000000000000000000000000000000000000000000000000000000000007f00000000000000000000000000000000000000000000000000000000000000007f0000000000000000000000000000000000000000000000000000000000000000613a2f565b90505b90565b60008282604051602001612ead929190615b4c565b60405160208183030381529060405280519060200120905092915050565b6000807f7fffffffffffffffffffffffffffffff5d576e7357a4501ddfe92f46681b20a08360001c1115612f06576000600391509150612fa4565b600060018787878760405160008152602001604052604051612f2b9493929190615b83565b6020604051602081039080840390855afa158015612f4d573d6000803e3d6000fd5b505050602060405103519050600073ffffffffffffffffffffffffffffffffffffffff168173ffffffffffffffffffffffffffffffffffffffff1603612f9b57600060019250925050612fa4565b80600092509250505b94509492505050565b60006004811115612fc157612fc0614563565b5b816004811115612fd457612fd3614563565b5b03156131105760016004811115612fee57612fed614563565b5b81600481111561300157613000614563565b5b03613041576040517f08c379a000000000000000000000000000000000000000000000000000000000815260040161303890615c14565b60405180910390fd5b6002600481111561305557613054614563565b5b81600481111561306857613067614563565b5b036130a8576040517f08c379a000000000000000000000000000000000000000000000000000000000815260040161309f90615c80565b60405180910390fd5b600360048111156130bc576130bb614563565b5b8160048111156130cf576130ce614563565b5b0361310f576040517f08c379a000000000000000000000000000000000000000000000000000000000815260040161310690615d12565b60405180910390fd5b5b50565b60006008600087815260200190815260200160002090508060030160008673ffffffffffffffffffffffffffffffffffffffff1673ffffffffffffffffffffffffffffffffffffffff16815260200190815260200160002060009054906101000a900460ff16156131b9576040517f08c379a00000000000000000000000000000000000000000000000000000000081526004016131b090615da4565b60405180910390fd5b60018160030160008773ffffffffffffffffffffffffffffffffffffffff1673ffffffffffffffffffffffffffffffffffffffff16815260200190815260200160002060006101000a81548160ff0219169083151502179055506000600281111561322757613226614563565b5b60ff168460ff1603613253578281600001600082825461324791906153b1565b9250508190555061330f565b6001600281111561326757613266614563565b5b60ff168460ff1603613293578281600101600082825461328791906153b1565b9250508190555061330e565b6002808111156132a6576132a5614563565b5b60ff168460ff16036132d257828160020160008282546132c691906153b1565b9250508190555061330d565b6040517f08c379a000000000000000000000000000000000000000000000000000000000815260040161330490615e36565b60405180910390fd5b5b5b505050505050565b60008160000160009054906101000a9004600f0b600f0b8260000160109054906101000a9004600f0b600f0b13159050919050565b60008260000160109054906101000a9004600f0b90508183600101600083600f0b600f0b815260200190815260200160002081905550600181018360000160106101000a8154816fffffffffffffffffffffffffffffffff0219169083600f0b6fffffffffffffffffffffffffffffffff160217905550505050565b600460009054906101000a900473ffffffffffffffffffffffffffffffffffffffff1673ffffffffffffffffffffffffffffffffffffffff1663e38335e5348686866000876040518763ffffffff1660e01b815260040161342d959493929190615262565b6000604051808303818588803b15801561344657600080fd5b505af115801561345a573d6000803e3d6000fd5b50505050505050505050565b60008160000160006101000a8154816fffffffffffffffffffffffffffffffff0219169083600f0b6fffffffffffffffffffffffffffffffff16021790555060008160000160106101000a8154816fffffffffffffffffffffffffffffffff0219169083600f0b6fffffffffffffffffffffffffffffffff16021790555050565b6000806001600084815260200190815260200160002090508060020160009054906101000a900460ff16156135205760079150506135f6565b8060020160019054906101000a900460ff16156135415760029150506135f6565b600061354c8461110a565b905060008103613591576040517f08c379a000000000000000000000000000000000000000000000000000000000815260040161358890615ea2565b60405180910390fd5b4381106135a3576000925050506135f6565b60006135ae856117d8565b90504381106135c357600193505050506135f6565b6135cc85613a69565b80156135dd57506135dc85613ab0565b5b156135ee57600493505050506135f6565b600393505050505b919050565b60005b818310156136635760006136128484613adb565b90508463ffffffff166136258783612c04565b60000160009054906101000a900463ffffffff1663ffffffff16111561364d5780925061365d565b60018161365a91906153b1565b93505b506135fe565b819050949350505050565b60006136786117b2565b613695613683611f38565b6001436136909190615445565b611a96565b10156136d6576040517f08c379a00000000000000000000000000000000000000000000000000000000081526004016136cd90615f34565b60405180910390fd5b60006136eb86868686805190602001206119cf565b90508451865114613731576040517f08c379a000000000000000000000000000000000000000000000000000000000815260040161372890615fc6565b60405180910390fd5b8351865114613775576040517f08c379a000000000000000000000000000000000000000000000000000000000815260040161376c90615fc6565b60405180910390fd5b60008651116137b9576040517f08c379a00000000000000000000000000000000000000000000000000000000081526004016137b090616032565b60405180910390fd5b6000600160008381526020019081526020016000209050613819816000016040518060200160405290816000820160009054906101000a900467ffffffffffffffff1667ffffffffffffffff1667ffffffffffffffff1681525050613b01565b613858576040517f08c379a000000000000000000000000000000000000000000000000000000000815260040161384f906160c4565b60405180910390fd5b600061386a61386561119c565b613b1b565b61387343613b1b565b61387d91906160f8565b9050600061389161388c610a77565b613b1b565b8261389c91906160f8565b90506138b48284600001613b7290919063ffffffff16565b6138ca8184600101613b7290919063ffffffff16565b7f7d84a6263ae0d98d3329bd7b46bb4e8d6f98cd35a7adb45c274c8b7fd5ebd5e0846138f4611f38565b8b8b8d5167ffffffffffffffff81111561391157613910613d84565b5b60405190808252806020026020018201604052801561394457816020015b606081526020019060019003908161392f5790505b508c88888e60405161395e99989796959493929190616271565b60405180910390a183945050505050949350505050565b6000825111156139885781518083602001fd5b806040517f08c379a00000000000000000000000000000000000000000000000000000000081526004016139bc919061406f565b60405180910390fd5b60007f01ffc9a7000000000000000000000000000000000000000000000000000000007bffffffffffffffffffffffffffffffffffffffffffffffffffffffff1916827bffffffffffffffffffffffffffffffffffffffffffffffffffffffff1916149050919050565b60008383834630604051602001613a4a959493929190616321565b6040516020818303038152906040528051906020012090509392505050565b60008060086000848152602001908152602001600020905080600201548160010154613a9591906153b1565b613aa6613aa18561110a565b611ac7565b1115915050919050565b6000806008600084815260200190815260200160002090508060000154816001015411915050919050565b60006002828418613aec9190615a37565b828416613af991906153b1565b905092915050565b600080826000015167ffffffffffffffff16149050919050565b600067ffffffffffffffff8016821115613b6a576040517f08c379a0000000000000000000000000000000000000000000000000000000008152600401613b61906163e6565b60405180910390fd5b819050919050565b808260000160006101000a81548167ffffffffffffffff021916908367ffffffffffffffff1602179055505050565b6000604051905090565b600080fd5b600080fd5b60007fffffffff0000000000000000000000000000000000000000000000000000000082169050919050565b613bea81613bb5565b8114613bf557600080fd5b50565b600081359050613c0781613be1565b92915050565b600060208284031215613c2357613c22613bab565b5b6000613c3184828501613bf8565b91505092915050565b60008115159050919050565b613c4f81613c3a565b82525050565b6000602082019050613c6a6000830184613c46565b92915050565b6000819050919050565b613c8381613c70565b82525050565b6000602082019050613c9e6000830184613c7a565b92915050565b613cad81613c70565b8114613cb857600080fd5b50565b600081359050613cca81613ca4565b92915050565b600060ff82169050919050565b613ce681613cd0565b8114613cf157600080fd5b50565b600081359050613d0381613cdd565b92915050565b600080fd5b600080fd5b600080fd5b60008083601f840112613d2e57613d2d613d09565b5b8235905067ffffffffffffffff811115613d4b57613d4a613d0e565b5b602083019150836001820283011115613d6757613d66613d13565b5b9250929050565b600080fd5b6000601f19601f8301169050919050565b7f4e487b7100000000000000000000000000000000000000000000000000000000600052604160045260246000fd5b613dbc82613d73565b810181811067ffffffffffffffff82111715613ddb57613dda613d84565b5b80604052505050565b6000613dee613ba1565b9050613dfa8282613db3565b919050565b600067ffffffffffffffff821115613e1a57613e19613d84565b5b613e2382613d73565b9050602081019050919050565b82818337600083830152505050565b6000613e52613e4d84613dff565b613de4565b905082815260208101848484011115613e6e57613e6d613d6e565b5b613e79848285613e30565b509392505050565b600082601f830112613e9657613e95613d09565b5b8135613ea6848260208601613e3f565b91505092915050565b6000819050919050565b613ec281613eaf565b8114613ecd57600080fd5b50565b600081359050613edf81613eb9565b92915050565b60008060008060008060008060e0898b031215613f0557613f04613bab565b5b6000613f138b828c01613cbb565b9850506020613f248b828c01613cf4565b975050604089013567ffffffffffffffff811115613f4557613f44613bb0565b5b613f518b828c01613d18565b9650965050606089013567ffffffffffffffff811115613f7457613f73613bb0565b5b613f808b828c01613e81565b9450506080613f918b828c01613cf4565b93505060a0613fa28b828c01613ed0565b92505060c0613fb38b828c01613ed0565b9150509295985092959890939650565b600060208284031215613fd957613fd8613bab565b5b6000613fe784828501613cbb565b91505092915050565b600081519050919050565b600082825260208201905092915050565b60005b8381101561402a57808201518184015260208101905061400f565b60008484015250505050565b600061404182613ff0565b61404b8185613ffb565b935061405b81856020860161400c565b61406481613d73565b840191505092915050565b600060208201905081810360008301526140898184614036565b905092915050565b600073ffffffffffffffffffffffffffffffffffffffff82169050919050565b60006140bc82614091565b9050919050565b6140cc816140b1565b81146140d757600080fd5b50565b6000813590506140e9816140c3565b92915050565b6000806000806080858703121561410957614108613bab565b5b6000614117878288016140da565b9450506020614128878288016140da565b935050604061413987828801613cbb565b925050606085013567ffffffffffffffff81111561415a57614159613bb0565b5b61416687828801613e81565b91505092959194509250565b61417b81613bb5565b82525050565b60006020820190506141966000830184614172565b92915050565b600067ffffffffffffffff8211156141b7576141b6613d84565b5b602082029050602081019050919050565b60006141db6141d68461419c565b613de4565b905080838252602082019050602084028301858111156141fe576141fd613d13565b5b835b81811015614227578061421388826140da565b845260208401935050602081019050614200565b5050509392505050565b600082601f83011261424657614245613d09565b5b81356142568482602086016141c8565b91505092915050565b600067ffffffffffffffff82111561427a57614279613d84565b5b602082029050602081019050919050565b600061429e6142998461425f565b613de4565b905080838252602082019050602084028301858111156142c1576142c0613d13565b5b835b818110156142ea57806142d68882613cbb565b8452602084019350506020810190506142c3565b5050509392505050565b600082601f83011261430957614308613d09565b5b813561431984826020860161428b565b91505092915050565b600067ffffffffffffffff82111561433d5761433c613d84565b5b602082029050602081019050919050565b600061436161435c84614322565b613de4565b9050808382526020820190506020840283018581111561438457614383613d13565b5b835b818110156143cb57803567ffffffffffffffff8111156143a9576143a8613d09565b5b8086016143b68982613e81565b85526020850194505050602081019050614386565b5050509392505050565b600082601f8301126143ea576143e9613d09565b5b81356143fa84826020860161434e565b91505092915050565b6000806000806080858703121561441d5761441c613bab565b5b600085013567ffffffffffffffff81111561443b5761443a613bb0565b5b61444787828801614231565b945050602085013567ffffffffffffffff81111561446857614467613bb0565b5b614474878288016142f4565b935050604085013567ffffffffffffffff81111561449557614494613bb0565b5b6144a1878288016143d5565b92505060606144b287828801613ed0565b91505092959194509250565b6144c781613eaf565b82525050565b60006020820190506144e260008301846144be565b92915050565b600080600080600060a0868803121561450457614503613bab565b5b600061451288828901613cbb565b955050602061452388828901613cf4565b945050604061453488828901613cf4565b935050606061454588828901613ed0565b925050608061455688828901613ed0565b9150509295509295909350565b7f4e487b7100000000000000000000000000000000000000000000000000000000600052602160045260246000fd5b600881106145a3576145a2614563565b5b50565b60008190506145b482614592565b919050565b60006145c4826145a6565b9050919050565b6145d4816145b9565b82525050565b60006020820190506145ef60008301846145cb565b92915050565b6000806040838503121561460c5761460b613bab565b5b600061461a85828601613cbb565b925050602061462b858286016140da565b9150509250929050565b600060608201905061464a6000830186613c7a565b6146576020830185613c7a565b6146646040830184613c7a565b949350505050565b6000806040838503121561468357614682613bab565b5b600061469185828601613cbb565b92505060206146a285828601613cf4565b9150509250929050565b6000806000806000608086880312156146c8576146c7613bab565b5b60006146d688828901613cbb565b95505060206146e788828901613cf4565b945050604086013567ffffffffffffffff81111561470857614707613bb0565b5b61471488828901613d18565b9350935050606086013567ffffffffffffffff81111561473757614736613bb0565b5b61474388828901613e81565b9150509295509295909350565b6000806000806060858703121561476a57614769613bab565b5b600061477887828801613cbb565b945050602061478987828801613cf4565b935050604085013567ffffffffffffffff8111156147aa576147a9613bb0565b5b6147b687828801613d18565b925092505092959194509250565b600067ffffffffffffffff8211156147df576147de613d84565b5b6147e882613d73565b9050602081019050919050565b6000614808614803846147c4565b613de4565b90508281526020810184848401111561482457614823613d6e565b5b61482f848285613e30565b509392505050565b600082601f83011261484c5761484b613d09565b5b813561485c8482602086016147f5565b91505092915050565b6000806000806080858703121561487f5761487e613bab565b5b600085013567ffffffffffffffff81111561489d5761489c613bb0565b5b6148a987828801614231565b945050602085013567ffffffffffffffff8111156148ca576148c9613bb0565b5b6148d6878288016142f4565b935050604085013567ffffffffffffffff8111156148f7576148f6613bb0565b5b614903878288016143d5565b925050606085013567ffffffffffffffff81111561492457614923613bb0565b5b61493087828801614837565b91505092959194509250565b60008060006060848603121561495557614954613bab565b5b6000614963868287016140da565b935050602061497486828701613cbb565b925050604084013567ffffffffffffffff81111561499557614994613bb0565b5b6149a186828701613e81565b9150509250925092565b60006149b682614091565b9050919050565b60006149c8826149ab565b9050919050565b6149d8816149bd565b81146149e357600080fd5b50565b6000813590506149f5816149cf565b92915050565b600060208284031215614a1157614a10613bab565b5b6000614a1f848285016149e6565b91505092915050565b600080600080600060a08688031215614a4457614a43613bab565b5b6000614a52888289016140da565b9550506020614a63888289016140da565b945050604086013567ffffffffffffffff811115614a8457614a83613bb0565b5b614a90888289016142f4565b935050606086013567ffffffffffffffff811115614ab157614ab0613bb0565b5b614abd888289016142f4565b925050608086013567ffffffffffffffff811115614ade57614add613bb0565b5b614aea88828901613e81565b9150509295509295909350565b60008083601f840112614b0d57614b0c613d09565b5b8235905067ffffffffffffffff811115614b2a57614b29613d0e565b5b602083019150836001820283011115614b4657614b45613d13565b5b9250929050565b60008060008060608587031215614b6757614b66613bab565b5b6000614b75878288016140da565b9450506020614b8687828801613cbb565b935050604085013567ffffffffffffffff811115614ba757614ba6613bb0565b5b614bb387828801614af7565b925092505092959194509250565b614bca816140b1565b82525050565b6000602082019050614be56000830184614bc1565b92915050565b60008060408385031215614c0257614c01613bab565b5b6000614c10858286016140da565b9250506020614c2185828601613cbb565b9150509250929050565b600080600080600060a08688031215614c4757614c46613bab565b5b6000614c55888289016140da565b9550506020614c66888289016140da565b9450506040614c7788828901613cbb565b9350506060614c8888828901613cbb565b925050608086013567ffffffffffffffff811115614ca957614ca8613bb0565b5b614cb588828901613e81565b9150509295509295909350565b6000819050919050565b6000614ce7614ce2614cdd84614091565b614cc2565b614091565b9050919050565b6000614cf982614ccc565b9050919050565b6000614d0b82614cee565b9050919050565b614d1b81614d00565b82525050565b6000602082019050614d366000830184614d12565b92915050565b600081905092915050565b6000614d538385614d3c565b9350614d60838584613e30565b82840190509392505050565b6000614d79828486614d47565b91508190509392505050565b614d8e81613cd0565b82525050565b600060a082019050614da960008301886144be565b614db66020830187613c7a565b614dc36040830186614d85565b614dd060608301856144be565b614ddd60808301846144be565b9695505050505050565b7f476f7665726e6f723a206f6e6c79476f7665726e616e63650000000000000000600082015250565b6000614e1d601883613ffb565b9150614e2882614de7565b602082019050919050565b60006020820190508181036000830152614e4c81614e10565b9050919050565b7f4e487b7100000000000000000000000000000000000000000000000000000000600052602260045260246000fd5b60006002820490506001821680614e9a57607f821691505b602082108103614ead57614eac614e53565b5b50919050565b7f476f7665726e6f723a2070726f706f73616c206e6f742073756363657373667560008201527f6c00000000000000000000000000000000000000000000000000000000000000602082015250565b6000614f0f602183613ffb565b9150614f1a82614eb3565b604082019050919050565b60006020820190508181036000830152614f3e81614f02565b9050919050565b600081519050614f5481613ca4565b92915050565b600060208284031215614f7057614f6f613bab565b5b6000614f7e84828501614f45565b91505092915050565b600081519050919050565b600082825260208201905092915050565b6000819050602082019050919050565b614fbc816140b1565b82525050565b6000614fce8383614fb3565b60208301905092915050565b6000602082019050919050565b6000614ff282614f87565b614ffc8185614f92565b935061500783614fa3565b8060005b8381101561503857815161501f8882614fc2565b975061502a83614fda565b92505060018101905061500b565b5085935050505092915050565b600081519050919050565b600082825260208201905092915050565b6000819050602082019050919050565b61507a81613c70565b82525050565b600061508c8383615071565b60208301905092915050565b6000602082019050919050565b60006150b082615045565b6150ba8185615050565b93506150c583615061565b8060005b838110156150f65781516150dd8882615080565b97506150e883615098565b9250506001810190506150c9565b5085935050505092915050565b600081519050919050565b600082825260208201905092915050565b6000819050602082019050919050565b600081519050919050565b600082825260208201905092915050565b60006151568261512f565b615160818561513a565b935061517081856020860161400c565b61517981613d73565b840191505092915050565b6000615190838361514b565b905092915050565b6000602082019050919050565b60006151b082615103565b6151ba818561510e565b9350836020820285016151cc8561511f565b8060005b8581101561520857848403895281516151e98582615184565b94506151f483615198565b925060208a019950506001810190506151d0565b50829750879550505050505092915050565b6000819050919050565b60008160001b9050919050565b600061524c6152476152428461521a565b615224565b613eaf565b9050919050565b61525c81615231565b82525050565b600060a082019050818103600083015261527c8188614fe7565b9050818103602083015261529081876150a5565b905081810360408301526152a481866151a5565b90506152b36060830185615253565b6152c060808301846144be565b9695505050505050565b6000815190506152d981613eb9565b92915050565b6000602082840312156152f5576152f4613bab565b5b6000615303848285016152ca565b91505092915050565b600060c08201905081810360008301526153268189614fe7565b9050818103602083015261533a81886150a5565b9050818103604083015261534e81876151a5565b905061535d6060830186615253565b61536a60808301856144be565b61537760a0830184613c7a565b979650505050505050565b7f4e487b7100000000000000000000000000000000000000000000000000000000600052601160045260246000fd5b60006153bc82613c70565b91506153c783613c70565b92508282019050808211156153df576153de615382565b5b92915050565b60006040820190506153fa6000830185613c7a565b6154076020830184613c7a565b9392505050565b600060608201905061542360008301866144be565b6154306020830185613c7a565b61543d6040830184614d85565b949350505050565b600061545082613c70565b915061545b83613c70565b925082820390508181111561547357615472615382565b5b92915050565b7f4e487b7100000000000000000000000000000000000000000000000000000000600052603260045260246000fd5b600060808201905081810360008301526154c28187614fe7565b905081810360208301526154d681866150a5565b905081810360408301526154ea81856151a5565b90506154f960608301846144be565b95945050505050565b7f53616665436173743a2076616c756520646f65736e27742066697420696e203260008201527f3234206269747300000000000000000000000000000000000000000000000000602082015250565b600061555e602783613ffb565b915061556982615502565b604082019050919050565b6000602082019050818103600083015261558d81615551565b9050919050565b7f53616665436173743a2076616c756520646f65736e27742066697420696e203360008201527f3220626974730000000000000000000000000000000000000000000000000000602082015250565b60006155f0602683613ffb565b91506155fb82615594565b604082019050919050565b6000602082019050818103600083015261561f816155e3565b9050919050565b7f476f7665726e6f723a20766f7465206e6f742063757272656e746c792061637460008201527f6976650000000000000000000000000000000000000000000000000000000000602082015250565b6000615682602383613ffb565b915061568d82615626565b604082019050919050565b600060208201905081810360008301526156b181615675565b9050919050565b60006080820190506156cd6000830187613c7a565b6156da6020830186614d85565b6156e76040830185613c7a565b81810360608301526156f98184614036565b905095945050505050565b600082825260208201905092915050565b60006157208261512f565b61572a8185615704565b935061573a81856020860161400c565b61574381613d73565b840191505092915050565b600060a0820190506157636000830188613c7a565b6157706020830187614d85565b61577d6040830186613c7a565b818103606083015261578f8185614036565b905081810360808301526157a38184615715565b90509695505050505050565b7f476f7665726e6f72566f74657351756f72756d4672616374696f6e3a2071756f60008201527f72756d4e756d657261746f72206f7665722071756f72756d44656e6f6d696e6160208201527f746f720000000000000000000000000000000000000000000000000000000000604082015250565b6000615831604383613ffb565b915061583c826157af565b606082019050919050565b6000602082019050818103600083015261586081615824565b9050919050565b600061587282613c70565b91507fffffffffffffffffffffffffffffffffffffffffffffffffffffffffffffffff82036158a4576158a3615382565b5b600182019050919050565b6158b881613c3a565b81146158c357600080fd5b50565b6000815190506158d5816158af565b92915050565b6000602082840312156158f1576158f0613bab565b5b60006158ff848285016158c6565b91505092915050565b7f436865636b706f696e74733a20626c6f636b206e6f7420796574206d696e6564600082015250565b600061593e602083613ffb565b915061594982615908565b602082019050919050565b6000602082019050818103600083015261596d81615931565b9050919050565b60006040820190506159896000830185614bc1565b6159966020830184613c7a565b9392505050565b60006040820190506159b26000830185614bc1565b6159bf6020830184614bc1565b9392505050565b60006159d182613c70565b91506159dc83613c70565b92508282026159ea81613c70565b91508282048414831517615a0157615a00615382565b5b5092915050565b7f4e487b7100000000000000000000000000000000000000000000000000000000600052601260045260246000fd5b6000615a4282613c70565b9150615a4d83613c70565b925082615a5d57615a5c615a08565b5b828204905092915050565b7f436865636b706f696e743a20696e76616c6964206b6579000000000000000000600082015250565b6000615a9e601783613ffb565b9150615aa982615a68565b602082019050919050565b60006020820190508181036000830152615acd81615a91565b9050919050565b600081905092915050565b7f1901000000000000000000000000000000000000000000000000000000000000600082015250565b6000615b15600283615ad4565b9150615b2082615adf565b600282019050919050565b6000819050919050565b615b46615b4182613eaf565b615b2b565b82525050565b6000615b5782615b08565b9150615b638285615b35565b602082019150615b738284615b35565b6020820191508190509392505050565b6000608082019050615b9860008301876144be565b615ba56020830186614d85565b615bb260408301856144be565b615bbf60608301846144be565b95945050505050565b7f45434453413a20696e76616c6964207369676e61747572650000000000000000600082015250565b6000615bfe601883613ffb565b9150615c0982615bc8565b602082019050919050565b60006020820190508181036000830152615c2d81615bf1565b9050919050565b7f45434453413a20696e76616c6964207369676e6174757265206c656e67746800600082015250565b6000615c6a601f83613ffb565b9150615c7582615c34565b602082019050919050565b60006020820190508181036000830152615c9981615c5d565b9050919050565b7f45434453413a20696e76616c6964207369676e6174757265202773272076616c60008201527f7565000000000000000000000000000000000000000000000000000000000000602082015250565b6000615cfc602283613ffb565b9150615d0782615ca0565b604082019050919050565b60006020820190508181036000830152615d2b81615cef565b9050919050565b7f476f7665726e6f72566f74696e6753696d706c653a20766f746520616c72656160008201527f6479206361737400000000000000000000000000000000000000000000000000602082015250565b6000615d8e602783613ffb565b9150615d9982615d32565b604082019050919050565b60006020820190508181036000830152615dbd81615d81565b9050919050565b7f476f7665726e6f72566f74696e6753696d706c653a20696e76616c696420766160008201527f6c756520666f7220656e756d20566f7465547970650000000000000000000000602082015250565b6000615e20603583613ffb565b9150615e2b82615dc4565b604082019050919050565b60006020820190508181036000830152615e4f81615e13565b9050919050565b7f476f7665726e6f723a20756e6b6e6f776e2070726f706f73616c206964000000600082015250565b6000615e8c601d83613ffb565b9150615e9782615e56565b602082019050919050565b60006020820190508181036000830152615ebb81615e7f565b9050919050565b7f476f7665726e6f723a2070726f706f73657220766f7465732062656c6f77207060008201527f726f706f73616c207468726573686f6c64000000000000000000000000000000602082015250565b6000615f1e603183613ffb565b9150615f2982615ec2565b604082019050919050565b60006020820190508181036000830152615f4d81615f11565b9050919050565b7f476f7665726e6f723a20696e76616c69642070726f706f73616c206c656e677460008201527f6800000000000000000000000000000000000000000000000000000000000000602082015250565b6000615fb0602183613ffb565b9150615fbb82615f54565b604082019050919050565b60006020820190508181036000830152615fdf81615fa3565b9050919050565b7f476f7665726e6f723a20656d7074792070726f706f73616c0000000000000000600082015250565b600061601c601883613ffb565b915061602782615fe6565b602082019050919050565b6000602082019050818103600083015261604b8161600f565b9050919050565b7f476f7665726e6f723a2070726f706f73616c20616c726561647920657869737460008201527f7300000000000000000000000000000000000000000000000000000000000000602082015250565b60006160ae602183613ffb565b91506160b982616052565b604082019050919050565b600060208201905081810360008301526160dd816160a1565b9050919050565b600067ffffffffffffffff82169050919050565b6000616103826160e4565b915061610e836160e4565b9250828201905067ffffffffffffffff81111561612e5761612d615382565b5b92915050565b600081519050919050565b600082825260208201905092915050565b6000819050602082019050919050565b600082825260208201905092915050565b600061617c82613ff0565b6161868185616160565b935061619681856020860161400c565b61619f81613d73565b840191505092915050565b60006161b68383616171565b905092915050565b6000602082019050919050565b60006161d682616134565b6161e0818561613f565b9350836020820285016161f285616150565b8060005b8581101561622e578484038952815161620f85826161aa565b945061621a836161be565b925060208a019950506001810190506161f6565b50829750879550505050505092915050565b600061625b616256616251846160e4565b614cc2565b613c70565b9050919050565b61626b81616240565b82525050565b600061012082019050616287600083018c613c7a565b616294602083018b614bc1565b81810360408301526162a6818a614fe7565b905081810360608301526162ba81896150a5565b905081810360808301526162ce81886161cb565b905081810360a08301526162e281876151a5565b90506162f160c0830186616262565b6162fe60e0830185616262565b8181036101008301526163118184614036565b90509a9950505050505050505050565b600060a08201905061633660008301886144be565b61634360208301876144be565b61635060408301866144be565b61635d6060830185613c7a565b61636a6080830184614bc1565b9695505050505050565b7f53616665436173743a2076616c756520646f65736e27742066697420696e203660008201527f3420626974730000000000000000000000000000000000000000000000000000602082015250565b60006163d0602683613ffb565b91506163db82616374565b604082019050919050565b600060208201905081810360008301526163ff816163c3565b905091905056fe476f7665726e6f723a2072656c617920726576657274656420776974686f7574206d657373616765a2646970667358221220bd57b1fccf6393857a7a18026864f44c6fa8b85c9b9621a802a9d19ae0e4aeb764736f6c63430008110033",
  "linkReferences": {},
  "deployedLinkReferences": {}
}