{
  "_format": "hh-sol-artifact-1",
  "contractName": "ERC20FlashMintMock",
  "sourceName": "contracts/mocks/ERC20FlashMintMock.sol",
  "abi": [
    {
      "inputs": [
        {
          "internalType": "string",
          "name": "name",
          "type": "string"
        },
        {
          "internalType": "string",
          "name": "symbol",
          "type": "string"
        },
        {
          "internalType": "address",
          "name": "initialAccount",
          "type": "address"
        },
        {
          "internalType": "uint256",
          "name": "initialBalance",
          "type": "uint256"
        }
      ],
      "stateMutability": "nonpayable",
      "type": "constructor"
    },
    {
      "anonymous": false,
      "inputs": [
        {
          "indexed": true,
          "internalType": "address",
          "name": "owner",
          "type": "address"
        },
        {
          "indexed": true,
          "internalType": "address",
          "name": "spender",
          "type": "address"
        },
        {
          "indexed": false,
          "internalType": "uint256",
          "name": "value",
          "type": "uint256"
        }
      ],
      "name": "Approval",
      "type": "event"
    },
    {
      "anonymous": false,
      "inputs": [
        {
          "indexed": true,
          "internalType": "address",
          "name": "from",
          "type": "address"
        },
        {
          "indexed": true,
          "internalType": "address",
          "name": "to",
          "type": "address"
        },
        {
          "indexed": false,
          "internalType": "uint256",
          "name": "value",
          "type": "uint256"
        }
      ],
      "name": "Transfer",
      "type": "event"
    },
    {
      "inputs": [
        {
          "internalType": "address",
          "name": "owner",
          "type": "address"
        },
        {
          "internalType": "address",
          "name": "spender",
          "type": "address"
        }
      ],
      "name": "allowance",
      "outputs": [
        {
          "internalType": "uint256",
          "name": "",
          "type": "uint256"
        }
      ],
      "stateMutability": "view",
      "type": "function"
    },
    {
      "inputs": [
        {
          "internalType": "address",
          "name": "spender",
          "type": "address"
        },
        {
          "internalType": "uint256",
          "name": "amount",
          "type": "uint256"
        }
      ],
      "name": "approve",
      "outputs": [
        {
          "internalType": "bool",
          "name": "",
          "type": "bool"
        }
      ],
      "stateMutability": "nonpayable",
      "type": "function"
    },
    {
      "inputs": [
        {
          "internalType": "address",
          "name": "account",
          "type": "address"
        }
      ],
      "name": "balanceOf",
      "outputs": [
        {
          "internalType": "uint256",
          "name": "",
          "type": "uint256"
        }
      ],
      "stateMutability": "view",
      "type": "function"
    },
    {
      "inputs": [],
      "name": "decimals",
      "outputs": [
        {
          "internalType": "uint8",
          "name": "",
          "type": "uint8"
        }
      ],
      "stateMutability": "view",
      "type": "function"
    },
    {
      "inputs": [
        {
          "internalType": "address",
          "name": "spender",
          "type": "address"
        },
        {
          "internalType": "uint256",
          "name": "subtractedValue",
          "type": "uint256"
        }
      ],
      "name": "decreaseAllowance",
      "outputs": [
        {
          "internalType": "bool",
          "name": "",
          "type": "bool"
        }
      ],
      "stateMutability": "nonpayable",
      "type": "function"
    },
    {
      "inputs": [
        {
          "internalType": "address",
          "name": "token",
          "type": "address"
        },
        {
          "internalType": "uint256",
          "name": "amount",
          "type": "uint256"
        }
      ],
      "name": "flashFee",
      "outputs": [
        {
          "internalType": "uint256",
          "name": "",
          "type": "uint256"
        }
      ],
      "stateMutability": "view",
      "type": "function"
    },
    {
      "inputs": [],
      "name": "flashFeeReceiver",
      "outputs": [
        {
          "internalType": "address",
          "name": "",
          "type": "address"
        }
      ],
      "stateMutability": "view",
      "type": "function"
    },
    {
      "inputs": [
        {
          "internalType": "contract IERC3156FlashBorrower",
          "name": "receiver",
          "type": "address"
        },
        {
          "internalType": "address",
          "name": "token",
          "type": "address"
        },
        {
          "internalType": "uint256",
          "name": "amount",
          "type": "uint256"
        },
        {
          "internalType": "bytes",
          "name": "data",
          "type": "bytes"
        }
      ],
      "name": "flashLoan",
      "outputs": [
        {
          "internalType": "bool",
          "name": "",
          "type": "bool"
        }
      ],
      "stateMutability": "nonpayable",
      "type": "function"
    },
    {
      "inputs": [
        {
          "internalType": "address",
          "name": "spender",
          "type": "address"
        },
        {
          "internalType": "uint256",
          "name": "addedValue",
          "type": "uint256"
        }
      ],
      "name": "increaseAllowance",
      "outputs": [
        {
          "internalType": "bool",
          "name": "",
          "type": "bool"
        }
      ],
      "stateMutability": "nonpayable",
      "type": "function"
    },
    {
      "inputs": [
        {
          "internalType": "address",
          "name": "token",
          "type": "address"
        }
      ],
      "name": "maxFlashLoan",
      "outputs": [
        {
          "internalType": "uint256",
          "name": "",
          "type": "uint256"
        }
      ],
      "stateMutability": "view",
      "type": "function"
    },
    {
      "inputs": [
        {
          "internalType": "address",
          "name": "account",
          "type": "address"
        },
        {
          "internalType": "uint256",
          "name": "amount",
          "type": "uint256"
        }
      ],
      "name": "mint",
      "outputs": [],
      "stateMutability": "nonpayable",
      "type": "function"
    },
    {
      "inputs": [],
      "name": "name",
      "outputs": [
        {
          "internalType": "string",
          "name": "",
          "type": "string"
        }
      ],
      "stateMutability": "view",
      "type": "function"
    },
    {
      "inputs": [
        {
          "internalType": "uint256",
          "name": "amount",
          "type": "uint256"
        }
      ],
      "name": "setFlashFee",
      "outputs": [],
      "stateMutability": "nonpayable",
      "type": "function"
    },
    {
      "inputs": [
        {
          "internalType": "address",
          "name": "receiver",
          "type": "address"
        }
      ],
      "name": "setFlashFeeReceiver",
      "outputs": [],
      "stateMutability": "nonpayable",
      "type": "function"
    },
    {
      "inputs": [],
      "name": "symbol",
      "outputs": [
        {
          "internalType": "string",
          "name": "",
          "type": "string"
        }
      ],
      "stateMutability": "view",
      "type": "function"
    },
    {
      "inputs": [],
      "name": "totalSupply",
      "outputs": [
        {
          "internalType": "uint256",
          "name": "",
          "type": "uint256"
        }
      ],
      "stateMutability": "view",
      "type": "function"
    },
    {
      "inputs": [
        {
          "internalType": "address",
          "name": "to",
          "type": "address"
        },
        {
          "internalType": "uint256",
          "name": "amount",
          "type": "uint256"
        }
      ],
      "name": "transfer",
      "outputs": [
        {
          "internalType": "bool",
          "name": "",
          "type": "bool"
        }
      ],
      "stateMutability": "nonpayable",
      "type": "function"
    },
    {
      "inputs": [
        {
          "internalType": "address",
          "name": "from",
          "type": "address"
        },
        {
          "internalType": "address",
          "name": "to",
          "type": "address"
        },
        {
          "internalType": "uint256",
          "name": "amount",
          "type": "uint256"
        }
      ],
      "name": "transferFrom",
      "outputs": [
        {
          "internalType": "bool",
          "name": "",
          "type": "bool"
        }
      ],
      "stateMutability": "nonpayable",
      "type": "function"
    }
  ],
  "bytecode": "0x60806040523480156200001157600080fd5b506040516200295838038062002958833981810160405281019062000037919062000425565b838381600390816200004a919062000716565b5080600490816200005c919062000716565b5050506200007182826200007b60201b60201c565b5050505062000918565b600073ffffffffffffffffffffffffffffffffffffffff168273ffffffffffffffffffffffffffffffffffffffff1603620000ed576040517f08c379a0000000000000000000000000000000000000000000000000000000008152600401620000e4906200085e565b60405180910390fd5b6200010160008383620001e860201b60201c565b8060026000828254620001159190620008af565b92505081905550806000808473ffffffffffffffffffffffffffffffffffffffff1673ffffffffffffffffffffffffffffffffffffffff168152602001908152602001600020600082825401925050819055508173ffffffffffffffffffffffffffffffffffffffff16600073ffffffffffffffffffffffffffffffffffffffff167fddf252ad1be2c89b69c2b068fc378daa952ba7f163c4a11628f55a4df523b3ef83604051620001c89190620008fb565b60405180910390a3620001e460008383620001ed60201b60201c565b5050565b505050565b505050565b6000604051905090565b600080fd5b600080fd5b600080fd5b600080fd5b6000601f19601f8301169050919050565b7f4e487b7100000000000000000000000000000000000000000000000000000000600052604160045260246000fd5b6200025b8262000210565b810181811067ffffffffffffffff821117156200027d576200027c62000221565b5b80604052505050565b600062000292620001f2565b9050620002a0828262000250565b919050565b600067ffffffffffffffff821115620002c357620002c262000221565b5b620002ce8262000210565b9050602081019050919050565b60005b83811015620002fb578082015181840152602081019050620002de565b60008484015250505050565b60006200031e6200031884620002a5565b62000286565b9050828152602081018484840111156200033d576200033c6200020b565b5b6200034a848285620002db565b509392505050565b600082601f8301126200036a576200036962000206565b5b81516200037c84826020860162000307565b91505092915050565b600073ffffffffffffffffffffffffffffffffffffffff82169050919050565b6000620003b28262000385565b9050919050565b620003c481620003a5565b8114620003d057600080fd5b50565b600081519050620003e481620003b9565b92915050565b6000819050919050565b620003ff81620003ea565b81146200040b57600080fd5b50565b6000815190506200041f81620003f4565b92915050565b60008060008060808587031215620004425762000441620001fc565b5b600085015167ffffffffffffffff81111562000463576200046262000201565b5b620004718782880162000352565b945050602085015167ffffffffffffffff81111562000495576200049462000201565b5b620004a38782880162000352565b9350506040620004b687828801620003d3565b9250506060620004c9878288016200040e565b91505092959194509250565b600081519050919050565b7f4e487b7100000000000000000000000000000000000000000000000000000000600052602260045260246000fd5b600060028204905060018216806200052857607f821691505b6020821081036200053e576200053d620004e0565b5b50919050565b60008190508160005260206000209050919050565b60006020601f8301049050919050565b600082821b905092915050565b600060088302620005a87fffffffffffffffffffffffffffffffffffffffffffffffffffffffffffffffff8262000569565b620005b4868362000569565b95508019841693508086168417925050509392505050565b6000819050919050565b6000620005f7620005f1620005eb84620003ea565b620005cc565b620003ea565b9050919050565b6000819050919050565b6200061383620005d6565b6200062b6200062282620005fe565b84845462000576565b825550505050565b600090565b6200064262000633565b6200064f81848462000608565b505050565b5b8181101562000677576200066b60008262000638565b60018101905062000655565b5050565b601f821115620006c657620006908162000544565b6200069b8462000559565b81016020851015620006ab578190505b620006c3620006ba8562000559565b83018262000654565b50505b505050565b600082821c905092915050565b6000620006eb60001984600802620006cb565b1980831691505092915050565b6000620007068383620006d8565b9150826002028217905092915050565b6200072182620004d5565b67ffffffffffffffff8111156200073d576200073c62000221565b5b6200074982546200050f565b620007568282856200067b565b600060209050601f8311600181146200078e576000841562000779578287015190505b620007858582620006f8565b865550620007f5565b601f1984166200079e8662000544565b60005b82811015620007c857848901518255600182019150602085019450602081019050620007a1565b86831015620007e85784890151620007e4601f891682620006d8565b8355505b6001600288020188555050505b505050505050565b600082825260208201905092915050565b7f45524332303a206d696e7420746f20746865207a65726f206164647265737300600082015250565b600062000846601f83620007fd565b915062000853826200080e565b602082019050919050565b60006020820190508181036000830152620008798162000837565b9050919050565b7f4e487b7100000000000000000000000000000000000000000000000000000000600052601160045260246000fd5b6000620008bc82620003ea565b9150620008c983620003ea565b9250828201905080821115620008e457620008e362000880565b5b92915050565b620008f581620003ea565b82525050565b6000602082019050620009126000830184620008ea565b92915050565b61203080620009286000396000f3fe608060405234801561001057600080fd5b50600436106101165760003560e01c8063613255ab116100a2578063a457c2d711610071578063a457c2d714610307578063a8b24f9a14610337578063a9059cbb14610355578063d9d98ce414610385578063dd62ed3e146103b557610116565b8063613255ab1461026d57806370a082311461029d578063907a267b146102cd57806395d89b41146102e957610116565b8063313ce567116100e9578063313ce567146101b757806339509351146101d557806340c10f191461020557806352741a40146102215780635cffe9de1461023d57610116565b806306fdde031461011b578063095ea7b31461013957806318160ddd1461016957806323b872dd14610187575b600080fd5b6101236103e5565b6040516101309190611326565b60405180910390f35b610153600480360381019061014e91906113e6565b610477565b6040516101609190611441565b60405180910390f35b61017161049a565b60405161017e919061146b565b60405180910390f35b6101a1600480360381019061019c9190611486565b6104a4565b6040516101ae9190611441565b60405180910390f35b6101bf6104d3565b6040516101cc91906114f5565b60405180910390f35b6101ef60048036038101906101ea91906113e6565b6104dc565b6040516101fc9190611441565b60405180910390f35b61021f600480360381019061021a91906113e6565b610513565b005b61023b60048036038101906102369190611510565b610521565b005b610257600480360381019061025291906115e0565b610565565b6040516102649190611441565b60405180910390f35b61028760048036038101906102829190611510565b610752565b604051610294919061146b565b60405180910390f35b6102b760048036038101906102b29190611510565b6107c9565b6040516102c4919061146b565b60405180910390f35b6102e760048036038101906102e29190611668565b610811565b005b6102f161081b565b6040516102fe9190611326565b60405180910390f35b610321600480360381019061031c91906113e6565b6108ad565b60405161032e9190611441565b60405180910390f35b61033f610924565b60405161034c91906116a4565b60405180910390f35b61036f600480360381019061036a91906113e6565b610933565b60405161037c9190611441565b60405180910390f35b61039f600480360381019061039a91906113e6565b610956565b6040516103ac919061146b565b60405180910390f35b6103cf60048036038101906103ca91906116bf565b6109d8565b6040516103dc919061146b565b60405180910390f35b6060600380546103f49061172e565b80601f01602080910402602001604051908101604052809291908181526020018280546104209061172e565b801561046d5780601f106104425761010080835404028352916020019161046d565b820191906000526020600020905b81548152906001019060200180831161045057829003601f168201915b5050505050905090565b600080610482610a5f565b905061048f818585610a67565b600191505092915050565b6000600254905090565b6000806104af610a5f565b90506104bc858285610c30565b6104c7858585610cbc565b60019150509392505050565b60006012905090565b6000806104e7610a5f565b90506105088185856104f985896109d8565b610503919061178e565b610a67565b600191505092915050565b61051d8282610f32565b5050565b80600660006101000a81548173ffffffffffffffffffffffffffffffffffffffff021916908373ffffffffffffffffffffffffffffffffffffffff16021790555050565b600061057085610752565b8411156105b2576040517f08c379a00000000000000000000000000000000000000000000000000000000081526004016105a990611834565b60405180910390fd5b60006105be8686610956565b90506105ca8786610f32565b7f439148f0bbc682ca079e46d6e2c2f0c1e3b820f1a291b069d8882abf8cf18dd98773ffffffffffffffffffffffffffffffffffffffff166323e30c8b338989868a8a6040518763ffffffff1660e01b815260040161062e969594939291906118a1565b6020604051808303816000875af115801561064d573d6000803e3d6000fd5b505050506040513d601f19601f820116820180604052508101906106719190611933565b146106b1576040517f08c379a00000000000000000000000000000000000000000000000000000000081526004016106a8906119d2565b60405180910390fd5b60006106bb611088565b90506106d3883084896106ce919061178e565b610c30565b600082148061070e5750600073ffffffffffffffffffffffffffffffffffffffff168173ffffffffffffffffffffffffffffffffffffffff16145b1561072d57610728888388610723919061178e565b6110b2565b610743565b61073788876110b2565b610742888284610cbc565b5b60019250505095945050505050565b60003073ffffffffffffffffffffffffffffffffffffffff168273ffffffffffffffffffffffffffffffffffffffff161461078e5760006107c2565b61079661049a565b7fffffffffffffffffffffffffffffffffffffffffffffffffffffffffffffffff6107c191906119f2565b5b9050919050565b60008060008373ffffffffffffffffffffffffffffffffffffffff1673ffffffffffffffffffffffffffffffffffffffff168152602001908152602001600020549050919050565b8060058190555050565b60606004805461082a9061172e565b80601f01602080910402602001604051908101604052809291908181526020018280546108569061172e565b80156108a35780601f10610878576101008083540402835291602001916108a3565b820191906000526020600020905b81548152906001019060200180831161088657829003601f168201915b5050505050905090565b6000806108b8610a5f565b905060006108c682866109d8565b90508381101561090b576040517f08c379a000000000000000000000000000000000000000000000000000000000815260040161090290611a98565b60405180910390fd5b6109188286868403610a67565b60019250505092915050565b600061092e611088565b905090565b60008061093e610a5f565b905061094b818585610cbc565b600191505092915050565b60003073ffffffffffffffffffffffffffffffffffffffff168373ffffffffffffffffffffffffffffffffffffffff16146109c6576040517f08c379a00000000000000000000000000000000000000000000000000000000081526004016109bd90611b04565b60405180910390fd5b6109d0838361127f565b905092915050565b6000600160008473ffffffffffffffffffffffffffffffffffffffff1673ffffffffffffffffffffffffffffffffffffffff16815260200190815260200160002060008373ffffffffffffffffffffffffffffffffffffffff1673ffffffffffffffffffffffffffffffffffffffff16815260200190815260200160002054905092915050565b600033905090565b600073ffffffffffffffffffffffffffffffffffffffff168373ffffffffffffffffffffffffffffffffffffffff1603610ad6576040517f08c379a0000000000000000000000000000000000000000000000000000000008152600401610acd90611b96565b60405180910390fd5b600073ffffffffffffffffffffffffffffffffffffffff168273ffffffffffffffffffffffffffffffffffffffff1603610b45576040517f08c379a0000000000000000000000000000000000000000000000000000000008152600401610b3c90611c28565b60405180910390fd5b80600160008573ffffffffffffffffffffffffffffffffffffffff1673ffffffffffffffffffffffffffffffffffffffff16815260200190815260200160002060008473ffffffffffffffffffffffffffffffffffffffff1673ffffffffffffffffffffffffffffffffffffffff168152602001908152602001600020819055508173ffffffffffffffffffffffffffffffffffffffff168373ffffffffffffffffffffffffffffffffffffffff167f8c5be1e5ebec7d5bd14f71427d1e84f3dd0314c0f7b2291e5b200ac8c7c3b92583604051610c23919061146b565b60405180910390a3505050565b6000610c3c84846109d8565b90507fffffffffffffffffffffffffffffffffffffffffffffffffffffffffffffffff8114610cb65781811015610ca8576040517f08c379a0000000000000000000000000000000000000000000000000000000008152600401610c9f90611c94565b60405180910390fd5b610cb58484848403610a67565b5b50505050565b600073ffffffffffffffffffffffffffffffffffffffff168373ffffffffffffffffffffffffffffffffffffffff1603610d2b576040517f08c379a0000000000000000000000000000000000000000000000000000000008152600401610d2290611d26565b60405180910390fd5b600073ffffffffffffffffffffffffffffffffffffffff168273ffffffffffffffffffffffffffffffffffffffff1603610d9a576040517f08c379a0000000000000000000000000000000000000000000000000000000008152600401610d9190611db8565b60405180910390fd5b610da583838361128c565b60008060008573ffffffffffffffffffffffffffffffffffffffff1673ffffffffffffffffffffffffffffffffffffffff16815260200190815260200160002054905081811015610e2b576040517f08c379a0000000000000000000000000000000000000000000000000000000008152600401610e2290611e4a565b60405180910390fd5b8181036000808673ffffffffffffffffffffffffffffffffffffffff1673ffffffffffffffffffffffffffffffffffffffff16815260200190815260200160002081905550816000808573ffffffffffffffffffffffffffffffffffffffff1673ffffffffffffffffffffffffffffffffffffffff168152602001908152602001600020600082825401925050819055508273ffffffffffffffffffffffffffffffffffffffff168473ffffffffffffffffffffffffffffffffffffffff167fddf252ad1be2c89b69c2b068fc378daa952ba7f163c4a11628f55a4df523b3ef84604051610f19919061146b565b60405180910390a3610f2c848484611291565b50505050565b600073ffffffffffffffffffffffffffffffffffffffff168273ffffffffffffffffffffffffffffffffffffffff1603610fa1576040517f08c379a0000000000000000000000000000000000000000000000000000000008152600401610f9890611eb6565b60405180910390fd5b610fad6000838361128c565b8060026000828254610fbf919061178e565b92505081905550806000808473ffffffffffffffffffffffffffffffffffffffff1673ffffffffffffffffffffffffffffffffffffffff168152602001908152602001600020600082825401925050819055508173ffffffffffffffffffffffffffffffffffffffff16600073ffffffffffffffffffffffffffffffffffffffff167fddf252ad1be2c89b69c2b068fc378daa952ba7f163c4a11628f55a4df523b3ef83604051611070919061146b565b60405180910390a361108460008383611291565b5050565b6000600660009054906101000a900473ffffffffffffffffffffffffffffffffffffffff16905090565b600073ffffffffffffffffffffffffffffffffffffffff168273ffffffffffffffffffffffffffffffffffffffff1603611121576040517f08c379a000000000000000000000000000000000000000000000000000000000815260040161111890611f48565b60405180910390fd5b61112d8260008361128c565b60008060008473ffffffffffffffffffffffffffffffffffffffff1673ffffffffffffffffffffffffffffffffffffffff168152602001908152602001600020549050818110156111b3576040517f08c379a00000000000000000000000000000000000000000000000000000000081526004016111aa90611fda565b60405180910390fd5b8181036000808573ffffffffffffffffffffffffffffffffffffffff1673ffffffffffffffffffffffffffffffffffffffff1681526020019081526020016000208190555081600260008282540392505081905550600073ffffffffffffffffffffffffffffffffffffffff168373ffffffffffffffffffffffffffffffffffffffff167fddf252ad1be2c89b69c2b068fc378daa952ba7f163c4a11628f55a4df523b3ef84604051611266919061146b565b60405180910390a361127a83600084611291565b505050565b6000600554905092915050565b505050565b505050565b600081519050919050565b600082825260208201905092915050565b60005b838110156112d05780820151818401526020810190506112b5565b60008484015250505050565b6000601f19601f8301169050919050565b60006112f882611296565b61130281856112a1565b93506113128185602086016112b2565b61131b816112dc565b840191505092915050565b6000602082019050818103600083015261134081846112ed565b905092915050565b600080fd5b600080fd5b600073ffffffffffffffffffffffffffffffffffffffff82169050919050565b600061137d82611352565b9050919050565b61138d81611372565b811461139857600080fd5b50565b6000813590506113aa81611384565b92915050565b6000819050919050565b6113c3816113b0565b81146113ce57600080fd5b50565b6000813590506113e0816113ba565b92915050565b600080604083850312156113fd576113fc611348565b5b600061140b8582860161139b565b925050602061141c858286016113d1565b9150509250929050565b60008115159050919050565b61143b81611426565b82525050565b60006020820190506114566000830184611432565b92915050565b611465816113b0565b82525050565b6000602082019050611480600083018461145c565b92915050565b60008060006060848603121561149f5761149e611348565b5b60006114ad8682870161139b565b93505060206114be8682870161139b565b92505060406114cf868287016113d1565b9150509250925092565b600060ff82169050919050565b6114ef816114d9565b82525050565b600060208201905061150a60008301846114e6565b92915050565b60006020828403121561152657611525611348565b5b60006115348482850161139b565b91505092915050565b600061154882611372565b9050919050565b6115588161153d565b811461156357600080fd5b50565b6000813590506115758161154f565b92915050565b600080fd5b600080fd5b600080fd5b60008083601f8401126115a05761159f61157b565b5b8235905067ffffffffffffffff8111156115bd576115bc611580565b5b6020830191508360018202830111156115d9576115d8611585565b5b9250929050565b6000806000806000608086880312156115fc576115fb611348565b5b600061160a88828901611566565b955050602061161b8882890161139b565b945050604061162c888289016113d1565b935050606086013567ffffffffffffffff81111561164d5761164c61134d565b5b6116598882890161158a565b92509250509295509295909350565b60006020828403121561167e5761167d611348565b5b600061168c848285016113d1565b91505092915050565b61169e81611372565b82525050565b60006020820190506116b96000830184611695565b92915050565b600080604083850312156116d6576116d5611348565b5b60006116e48582860161139b565b92505060206116f58582860161139b565b9150509250929050565b7f4e487b7100000000000000000000000000000000000000000000000000000000600052602260045260246000fd5b6000600282049050600182168061174657607f821691505b602082108103611759576117586116ff565b5b50919050565b7f4e487b7100000000000000000000000000000000000000000000000000000000600052601160045260246000fd5b6000611799826113b0565b91506117a4836113b0565b92508282019050808211156117bc576117bb61175f565b5b92915050565b7f4552433230466c6173684d696e743a20616d6f756e742065786365656473206d60008201527f6178466c6173684c6f616e000000000000000000000000000000000000000000602082015250565b600061181e602b836112a1565b9150611829826117c2565b604082019050919050565b6000602082019050818103600083015261184d81611811565b9050919050565b600082825260208201905092915050565b82818337600083830152505050565b60006118808385611854565b935061188d838584611865565b611896836112dc565b840190509392505050565b600060a0820190506118b66000830189611695565b6118c36020830188611695565b6118d0604083018761145c565b6118dd606083018661145c565b81810360808301526118f0818486611874565b9050979650505050505050565b6000819050919050565b611910816118fd565b811461191b57600080fd5b50565b60008151905061192d81611907565b92915050565b60006020828403121561194957611948611348565b5b60006119578482850161191e565b91505092915050565b7f4552433230466c6173684d696e743a20696e76616c69642072657475726e207660008201527f616c756500000000000000000000000000000000000000000000000000000000602082015250565b60006119bc6024836112a1565b91506119c782611960565b604082019050919050565b600060208201905081810360008301526119eb816119af565b9050919050565b60006119fd826113b0565b9150611a08836113b0565b9250828203905081811115611a2057611a1f61175f565b5b92915050565b7f45524332303a2064656372656173656420616c6c6f77616e63652062656c6f7760008201527f207a65726f000000000000000000000000000000000000000000000000000000602082015250565b6000611a826025836112a1565b9150611a8d82611a26565b604082019050919050565b60006020820190508181036000830152611ab181611a75565b9050919050565b7f4552433230466c6173684d696e743a2077726f6e6720746f6b656e0000000000600082015250565b6000611aee601b836112a1565b9150611af982611ab8565b602082019050919050565b60006020820190508181036000830152611b1d81611ae1565b9050919050565b7f45524332303a20617070726f76652066726f6d20746865207a65726f2061646460008201527f7265737300000000000000000000000000000000000000000000000000000000602082015250565b6000611b806024836112a1565b9150611b8b82611b24565b604082019050919050565b60006020820190508181036000830152611baf81611b73565b9050919050565b7f45524332303a20617070726f766520746f20746865207a65726f20616464726560008201527f7373000000000000000000000000000000000000000000000000000000000000602082015250565b6000611c126022836112a1565b9150611c1d82611bb6565b604082019050919050565b60006020820190508181036000830152611c4181611c05565b9050919050565b7f45524332303a20696e73756666696369656e7420616c6c6f77616e6365000000600082015250565b6000611c7e601d836112a1565b9150611c8982611c48565b602082019050919050565b60006020820190508181036000830152611cad81611c71565b9050919050565b7f45524332303a207472616e736665722066726f6d20746865207a65726f20616460008201527f6472657373000000000000000000000000000000000000000000000000000000602082015250565b6000611d106025836112a1565b9150611d1b82611cb4565b604082019050919050565b60006020820190508181036000830152611d3f81611d03565b9050919050565b7f45524332303a207472616e7366657220746f20746865207a65726f206164647260008201527f6573730000000000000000000000000000000000000000000000000000000000602082015250565b6000611da26023836112a1565b9150611dad82611d46565b604082019050919050565b60006020820190508181036000830152611dd181611d95565b9050919050565b7f45524332303a207472616e7366657220616d6f756e742065786365656473206260008201527f616c616e63650000000000000000000000000000000000000000000000000000602082015250565b6000611e346026836112a1565b9150611e3f82611dd8565b604082019050919050565b60006020820190508181036000830152611e6381611e27565b9050919050565b7f45524332303a206d696e7420746f20746865207a65726f206164647265737300600082015250565b6000611ea0601f836112a1565b9150611eab82611e6a565b602082019050919050565b60006020820190508181036000830152611ecf81611e93565b9050919050565b7f45524332303a206275726e2066726f6d20746865207a65726f2061646472657360008201527f7300000000000000000000000000000000000000000000000000000000000000602082015250565b6000611f326021836112a1565b9150611f3d82611ed6565b604082019050919050565b60006020820190508181036000830152611f6181611f25565b9050919050565b7f45524332303a206275726e20616d6f756e7420657863656564732062616c616e60008201527f6365000000000000000000000000000000000000000000000000000000000000602082015250565b6000611fc46022836112a1565b9150611fcf82611f68565b604082019050919050565b60006020820190508181036000830152611ff381611fb7565b905091905056fea2646970667358221220baa5161a23ad066b5af0a8248c5da99e6f8a94dc17878ba0dd11ec9db225bb3b64736f6c63430008110033",
  "linkReferences": {},
  "deployedLinkReferences": {}
}