{
  "_format": "hh-sol-artifact-1",
  "contractName": "GovernorCompatibilityBravoMock",
  "sourceName": "contracts/mocks/GovernorCompatibilityBravoMock.sol",
  "abi": [
    {
      "inputs": [
        {
          "internalType": "string",
          "name": "name_",
          "type": "string"
        },
        {
          "internalType": "contract ERC20VotesComp",
          "name": "token_",
          "type": "address"
        },
        {
          "internalType": "uint256",
          "name": "votingDelay_",
          "type": "uint256"
        },
        {
          "internalType": "uint256",
          "name": "votingPeriod_",
          "type": "uint256"
        },
        {
          "internalType": "uint256",
          "name": "proposalThreshold_",
          "type": "uint256"
        },
        {
          "internalType": "contract ICompoundTimelock",
          "name": "timelock_",
          "type": "address"
        }
      ],
      "stateMutability": "nonpayable",
      "type": "constructor"
    },
    {
      "inputs": [],
      "name": "Empty",
      "type": "error"
    },
    {
      "anonymous": false,
      "inputs": [
        {
          "indexed": false,
          "internalType": "uint256",
          "name": "proposalId",
          "type": "uint256"
        }
      ],
      "name": "ProposalCanceled",
      "type": "event"
    },
    {
      "anonymous": false,
      "inputs": [
        {
          "indexed": false,
          "internalType": "uint256",
          "name": "proposalId",
          "type": "uint256"
        },
        {
          "indexed": false,
          "internalType": "address",
          "name": "proposer",
          "type": "address"
        },
        {
          "indexed": false,
          "internalType": "address[]",
          "name": "targets",
          "type": "address[]"
        },
        {
          "indexed": false,
          "internalType": "uint256[]",
          "name": "values",
          "type": "uint256[]"
        },
        {
          "indexed": false,
          "internalType": "string[]",
          "name": "signatures",
          "type": "string[]"
        },
        {
          "indexed": false,
          "internalType": "bytes[]",
          "name": "calldatas",
          "type": "bytes[]"
        },
        {
          "indexed": false,
          "internalType": "uint256",
          "name": "startBlock",
          "type": "uint256"
        },
        {
          "indexed": false,
          "internalType": "uint256",
          "name": "endBlock",
          "type": "uint256"
        },
        {
          "indexed": false,
          "internalType": "string",
          "name": "description",
          "type": "string"
        }
      ],
      "name": "ProposalCreated",
      "type": "event"
    },
    {
      "anonymous": false,
      "inputs": [
        {
          "indexed": false,
          "internalType": "uint256",
          "name": "proposalId",
          "type": "uint256"
        }
      ],
      "name": "ProposalExecuted",
      "type": "event"
    },
    {
      "anonymous": false,
      "inputs": [
        {
          "indexed": false,
          "internalType": "uint256",
          "name": "proposalId",
          "type": "uint256"
        },
        {
          "indexed": false,
          "internalType": "uint256",
          "name": "eta",
          "type": "uint256"
        }
      ],
      "name": "ProposalQueued",
      "type": "event"
    },
    {
      "anonymous": false,
      "inputs": [
        {
          "indexed": false,
          "internalType": "uint256",
          "name": "oldProposalThreshold",
          "type": "uint256"
        },
        {
          "indexed": false,
          "internalType": "uint256",
          "name": "newProposalThreshold",
          "type": "uint256"
        }
      ],
      "name": "ProposalThresholdSet",
      "type": "event"
    },
    {
      "anonymous": false,
      "inputs": [
        {
          "indexed": false,
          "internalType": "address",
          "name": "oldTimelock",
          "type": "address"
        },
        {
          "indexed": false,
          "internalType": "address",
          "name": "newTimelock",
          "type": "address"
        }
      ],
      "name": "TimelockChange",
      "type": "event"
    },
    {
      "anonymous": false,
      "inputs": [
        {
          "indexed": true,
          "internalType": "address",
          "name": "voter",
          "type": "address"
        },
        {
          "indexed": false,
          "internalType": "uint256",
          "name": "proposalId",
          "type": "uint256"
        },
        {
          "indexed": false,
          "internalType": "uint8",
          "name": "support",
          "type": "uint8"
        },
        {
          "indexed": false,
          "internalType": "uint256",
          "name": "weight",
          "type": "uint256"
        },
        {
          "indexed": false,
          "internalType": "string",
          "name": "reason",
          "type": "string"
        }
      ],
      "name": "VoteCast",
      "type": "event"
    },
    {
      "anonymous": false,
      "inputs": [
        {
          "indexed": true,
          "internalType": "address",
          "name": "voter",
          "type": "address"
        },
        {
          "indexed": false,
          "internalType": "uint256",
          "name": "proposalId",
          "type": "uint256"
        },
        {
          "indexed": false,
          "internalType": "uint8",
          "name": "support",
          "type": "uint8"
        },
        {
          "indexed": false,
          "internalType": "uint256",
          "name": "weight",
          "type": "uint256"
        },
        {
          "indexed": false,
          "internalType": "string",
          "name": "reason",
          "type": "string"
        },
        {
          "indexed": false,
          "internalType": "bytes",
          "name": "params",
          "type": "bytes"
        }
      ],
      "name": "VoteCastWithParams",
      "type": "event"
    },
    {
      "anonymous": false,
      "inputs": [
        {
          "indexed": false,
          "internalType": "uint256",
          "name": "oldVotingDelay",
          "type": "uint256"
        },
        {
          "indexed": false,
          "internalType": "uint256",
          "name": "newVotingDelay",
          "type": "uint256"
        }
      ],
      "name": "VotingDelaySet",
      "type": "event"
    },
    {
      "anonymous": false,
      "inputs": [
        {
          "indexed": false,
          "internalType": "uint256",
          "name": "oldVotingPeriod",
          "type": "uint256"
        },
        {
          "indexed": false,
          "internalType": "uint256",
          "name": "newVotingPeriod",
          "type": "uint256"
        }
      ],
      "name": "VotingPeriodSet",
      "type": "event"
    },
    {
      "inputs": [],
      "name": "BALLOT_TYPEHASH",
      "outputs": [
        {
          "internalType": "bytes32",
          "name": "",
          "type": "bytes32"
        }
      ],
      "stateMutability": "view",
      "type": "function"
    },
    {
      "inputs": [],
      "name": "COUNTING_MODE",
      "outputs": [
        {
          "internalType": "string",
          "name": "",
          "type": "string"
        }
      ],
      "stateMutability": "pure",
      "type": "function"
    },
    {
      "inputs": [],
      "name": "EXTENDED_BALLOT_TYPEHASH",
      "outputs": [
        {
          "internalType": "bytes32",
          "name": "",
          "type": "bytes32"
        }
      ],
      "stateMutability": "view",
      "type": "function"
    },
    {
      "inputs": [],
      "name": "__acceptAdmin",
      "outputs": [],
      "stateMutability": "nonpayable",
      "type": "function"
    },
    {
      "inputs": [
        {
          "internalType": "uint256",
          "name": "proposalId",
          "type": "uint256"
        }
      ],
      "name": "cancel",
      "outputs": [],
      "stateMutability": "nonpayable",
      "type": "function"
    },
    {
      "inputs": [
        {
          "internalType": "address[]",
          "name": "targets",
          "type": "address[]"
        },
        {
          "internalType": "uint256[]",
          "name": "values",
          "type": "uint256[]"
        },
        {
          "internalType": "bytes[]",
          "name": "calldatas",
          "type": "bytes[]"
        },
        {
          "internalType": "bytes32",
          "name": "salt",
          "type": "bytes32"
        }
      ],
      "name": "cancel",
      "outputs": [
        {
          "internalType": "uint256",
          "name": "proposalId",
          "type": "uint256"
        }
      ],
      "stateMutability": "nonpayable",
      "type": "function"
    },
    {
      "inputs": [
        {
          "internalType": "uint256",
          "name": "proposalId",
          "type": "uint256"
        },
        {
          "internalType": "uint8",
          "name": "support",
          "type": "uint8"
        }
      ],
      "name": "castVote",
      "outputs": [
        {
          "internalType": "uint256",
          "name": "",
          "type": "uint256"
        }
      ],
      "stateMutability": "nonpayable",
      "type": "function"
    },
    {
      "inputs": [
        {
          "internalType": "uint256",
          "name": "proposalId",
          "type": "uint256"
        },
        {
          "internalType": "uint8",
          "name": "support",
          "type": "uint8"
        },
        {
          "internalType": "uint8",
          "name": "v",
          "type": "uint8"
        },
        {
          "internalType": "bytes32",
          "name": "r",
          "type": "bytes32"
        },
        {
          "internalType": "bytes32",
          "name": "s",
          "type": "bytes32"
        }
      ],
      "name": "castVoteBySig",
      "outputs": [
        {
          "internalType": "uint256",
          "name": "",
          "type": "uint256"
        }
      ],
      "stateMutability": "nonpayable",
      "type": "function"
    },
    {
      "inputs": [
        {
          "internalType": "uint256",
          "name": "proposalId",
          "type": "uint256"
        },
        {
          "internalType": "uint8",
          "name": "support",
          "type": "uint8"
        },
        {
          "internalType": "string",
          "name": "reason",
          "type": "string"
        }
      ],
      "name": "castVoteWithReason",
      "outputs": [
        {
          "internalType": "uint256",
          "name": "",
          "type": "uint256"
        }
      ],
      "stateMutability": "nonpayable",
      "type": "function"
    },
    {
      "inputs": [
        {
          "internalType": "uint256",
          "name": "proposalId",
          "type": "uint256"
        },
        {
          "internalType": "uint8",
          "name": "support",
          "type": "uint8"
        },
        {
          "internalType": "string",
          "name": "reason",
          "type": "string"
        },
        {
          "internalType": "bytes",
          "name": "params",
          "type": "bytes"
        }
      ],
      "name": "castVoteWithReasonAndParams",
      "outputs": [
        {
          "internalType": "uint256",
          "name": "",
          "type": "uint256"
        }
      ],
      "stateMutability": "nonpayable",
      "type": "function"
    },
    {
      "inputs": [
        {
          "internalType": "uint256",
          "name": "proposalId",
          "type": "uint256"
        },
        {
          "internalType": "uint8",
          "name": "support",
          "type": "uint8"
        },
        {
          "internalType": "string",
          "name": "reason",
          "type": "string"
        },
        {
          "internalType": "bytes",
          "name": "params",
          "type": "bytes"
        },
        {
          "internalType": "uint8",
          "name": "v",
          "type": "uint8"
        },
        {
          "internalType": "bytes32",
          "name": "r",
          "type": "bytes32"
        },
        {
          "internalType": "bytes32",
          "name": "s",
          "type": "bytes32"
        }
      ],
      "name": "castVoteWithReasonAndParamsBySig",
      "outputs": [
        {
          "internalType": "uint256",
          "name": "",
          "type": "uint256"
        }
      ],
      "stateMutability": "nonpayable",
      "type": "function"
    },
    {
      "inputs": [
        {
          "internalType": "address[]",
          "name": "targets",
          "type": "address[]"
        },
        {
          "internalType": "uint256[]",
          "name": "values",
          "type": "uint256[]"
        },
        {
          "internalType": "bytes[]",
          "name": "calldatas",
          "type": "bytes[]"
        },
        {
          "internalType": "bytes32",
          "name": "salt",
          "type": "bytes32"
        }
      ],
      "name": "execute",
      "outputs": [
        {
          "internalType": "uint256",
          "name": "",
          "type": "uint256"
        }
      ],
      "stateMutability": "payable",
      "type": "function"
    },
    {
      "inputs": [
        {
          "internalType": "uint256",
          "name": "proposalId",
          "type": "uint256"
        }
      ],
      "name": "execute",
      "outputs": [],
      "stateMutability": "payable",
      "type": "function"
    },
    {
      "inputs": [
        {
          "internalType": "uint256",
          "name": "proposalId",
          "type": "uint256"
        }
      ],
      "name": "getActions",
      "outputs": [
        {
          "internalType": "address[]",
          "name": "targets",
          "type": "address[]"
        },
        {
          "internalType": "uint256[]",
          "name": "values",
          "type": "uint256[]"
        },
        {
          "internalType": "string[]",
          "name": "signatures",
          "type": "string[]"
        },
        {
          "internalType": "bytes[]",
          "name": "calldatas",
          "type": "bytes[]"
        }
      ],
      "stateMutability": "view",
      "type": "function"
    },
    {
      "inputs": [
        {
          "internalType": "uint256",
          "name": "proposalId",
          "type": "uint256"
        },
        {
          "internalType": "address",
          "name": "voter",
          "type": "address"
        }
      ],
      "name": "getReceipt",
      "outputs": [
        {
          "components": [
            {
              "internalType": "bool",
              "name": "hasVoted",
              "type": "bool"
            },
            {
              "internalType": "uint8",
              "name": "support",
              "type": "uint8"
            },
            {
              "internalType": "uint96",
              "name": "votes",
              "type": "uint96"
            }
          ],
          "internalType": "struct IGovernorCompatibilityBravo.Receipt",
          "name": "",
          "type": "tuple"
        }
      ],
      "stateMutability": "view",
      "type": "function"
    },
    {
      "inputs": [
        {
          "internalType": "address",
          "name": "account",
          "type": "address"
        },
        {
          "internalType": "uint256",
          "name": "blockNumber",
          "type": "uint256"
        }
      ],
      "name": "getVotes",
      "outputs": [
        {
          "internalType": "uint256",
          "name": "",
          "type": "uint256"
        }
      ],
      "stateMutability": "view",
      "type": "function"
    },
    {
      "inputs": [
        {
          "internalType": "address",
          "name": "account",
          "type": "address"
        },
        {
          "internalType": "uint256",
          "name": "blockNumber",
          "type": "uint256"
        },
        {
          "internalType": "bytes",
          "name": "params",
          "type": "bytes"
        }
      ],
      "name": "getVotesWithParams",
      "outputs": [
        {
          "internalType": "uint256",
          "name": "",
          "type": "uint256"
        }
      ],
      "stateMutability": "view",
      "type": "function"
    },
    {
      "inputs": [
        {
          "internalType": "uint256",
          "name": "proposalId",
          "type": "uint256"
        },
        {
          "internalType": "address",
          "name": "account",
          "type": "address"
        }
      ],
      "name": "hasVoted",
      "outputs": [
        {
          "internalType": "bool",
          "name": "",
          "type": "bool"
        }
      ],
      "stateMutability": "view",
      "type": "function"
    },
    {
      "inputs": [
        {
          "internalType": "address[]",
          "name": "targets",
          "type": "address[]"
        },
        {
          "internalType": "uint256[]",
          "name": "values",
          "type": "uint256[]"
        },
        {
          "internalType": "bytes[]",
          "name": "calldatas",
          "type": "bytes[]"
        },
        {
          "internalType": "bytes32",
          "name": "descriptionHash",
          "type": "bytes32"
        }
      ],
      "name": "hashProposal",
      "outputs": [
        {
          "internalType": "uint256",
          "name": "",
          "type": "uint256"
        }
      ],
      "stateMutability": "pure",
      "type": "function"
    },
    {
      "inputs": [],
      "name": "name",
      "outputs": [
        {
          "internalType": "string",
          "name": "",
          "type": "string"
        }
      ],
      "stateMutability": "view",
      "type": "function"
    },
    {
      "inputs": [
        {
          "internalType": "address",
          "name": "",
          "type": "address"
        },
        {
          "internalType": "address",
          "name": "",
          "type": "address"
        },
        {
          "internalType": "uint256[]",
          "name": "",
          "type": "uint256[]"
        },
        {
          "internalType": "uint256[]",
          "name": "",
          "type": "uint256[]"
        },
        {
          "internalType": "bytes",
          "name": "",
          "type": "bytes"
        }
      ],
      "name": "onERC1155BatchReceived",
      "outputs": [
        {
          "internalType": "bytes4",
          "name": "",
          "type": "bytes4"
        }
      ],
      "stateMutability": "nonpayable",
      "type": "function"
    },
    {
      "inputs": [
        {
          "internalType": "address",
          "name": "",
          "type": "address"
        },
        {
          "internalType": "address",
          "name": "",
          "type": "address"
        },
        {
          "internalType": "uint256",
          "name": "",
          "type": "uint256"
        },
        {
          "internalType": "uint256",
          "name": "",
          "type": "uint256"
        },
        {
          "internalType": "bytes",
          "name": "",
          "type": "bytes"
        }
      ],
      "name": "onERC1155Received",
      "outputs": [
        {
          "internalType": "bytes4",
          "name": "",
          "type": "bytes4"
        }
      ],
      "stateMutability": "nonpayable",
      "type": "function"
    },
    {
      "inputs": [
        {
          "internalType": "address",
          "name": "",
          "type": "address"
        },
        {
          "internalType": "address",
          "name": "",
          "type": "address"
        },
        {
          "internalType": "uint256",
          "name": "",
          "type": "uint256"
        },
        {
          "internalType": "bytes",
          "name": "",
          "type": "bytes"
        }
      ],
      "name": "onERC721Received",
      "outputs": [
        {
          "internalType": "bytes4",
          "name": "",
          "type": "bytes4"
        }
      ],
      "stateMutability": "nonpayable",
      "type": "function"
    },
    {
      "inputs": [
        {
          "internalType": "uint256",
          "name": "proposalId",
          "type": "uint256"
        }
      ],
      "name": "proposalDeadline",
      "outputs": [
        {
          "internalType": "uint256",
          "name": "",
          "type": "uint256"
        }
      ],
      "stateMutability": "view",
      "type": "function"
    },
    {
      "inputs": [
        {
          "internalType": "uint256",
          "name": "proposalId",
          "type": "uint256"
        }
      ],
      "name": "proposalEta",
      "outputs": [
        {
          "internalType": "uint256",
          "name": "",
          "type": "uint256"
        }
      ],
      "stateMutability": "view",
      "type": "function"
    },
    {
      "inputs": [
        {
          "internalType": "uint256",
          "name": "proposalId",
          "type": "uint256"
        }
      ],
      "name": "proposalSnapshot",
      "outputs": [
        {
          "internalType": "uint256",
          "name": "",
          "type": "uint256"
        }
      ],
      "stateMutability": "view",
      "type": "function"
    },
    {
      "inputs": [],
      "name": "proposalThreshold",
      "outputs": [
        {
          "internalType": "uint256",
          "name": "",
          "type": "uint256"
        }
      ],
      "stateMutability": "view",
      "type": "function"
    },
    {
      "inputs": [
        {
          "internalType": "uint256",
          "name": "proposalId",
          "type": "uint256"
        }
      ],
      "name": "proposals",
      "outputs": [
        {
          "internalType": "uint256",
          "name": "id",
          "type": "uint256"
        },
        {
          "internalType": "address",
          "name": "proposer",
          "type": "address"
        },
        {
          "internalType": "uint256",
          "name": "eta",
          "type": "uint256"
        },
        {
          "internalType": "uint256",
          "name": "startBlock",
          "type": "uint256"
        },
        {
          "internalType": "uint256",
          "name": "endBlock",
          "type": "uint256"
        },
        {
          "internalType": "uint256",
          "name": "forVotes",
          "type": "uint256"
        },
        {
          "internalType": "uint256",
          "name": "againstVotes",
          "type": "uint256"
        },
        {
          "internalType": "uint256",
          "name": "abstainVotes",
          "type": "uint256"
        },
        {
          "internalType": "bool",
          "name": "canceled",
          "type": "bool"
        },
        {
          "internalType": "bool",
          "name": "executed",
          "type": "bool"
        }
      ],
      "stateMutability": "view",
      "type": "function"
    },
    {
      "inputs": [
        {
          "internalType": "address[]",
          "name": "targets",
          "type": "address[]"
        },
        {
          "internalType": "uint256[]",
          "name": "values",
          "type": "uint256[]"
        },
        {
          "internalType": "bytes[]",
          "name": "calldatas",
          "type": "bytes[]"
        },
        {
          "internalType": "string",
          "name": "description",
          "type": "string"
        }
      ],
      "name": "propose",
      "outputs": [
        {
          "internalType": "uint256",
          "name": "",
          "type": "uint256"
        }
      ],
      "stateMutability": "nonpayable",
      "type": "function"
    },
    {
      "inputs": [
        {
          "internalType": "address[]",
          "name": "targets",
          "type": "address[]"
        },
        {
          "internalType": "uint256[]",
          "name": "values",
          "type": "uint256[]"
        },
        {
          "internalType": "string[]",
          "name": "signatures",
          "type": "string[]"
        },
        {
          "internalType": "bytes[]",
          "name": "calldatas",
          "type": "bytes[]"
        },
        {
          "internalType": "string",
          "name": "description",
          "type": "string"
        }
      ],
      "name": "propose",
      "outputs": [
        {
          "internalType": "uint256",
          "name": "",
          "type": "uint256"
        }
      ],
      "stateMutability": "nonpayable",
      "type": "function"
    },
    {
      "inputs": [
        {
          "internalType": "address[]",
          "name": "targets",
          "type": "address[]"
        },
        {
          "internalType": "uint256[]",
          "name": "values",
          "type": "uint256[]"
        },
        {
          "internalType": "bytes[]",
          "name": "calldatas",
          "type": "bytes[]"
        },
        {
          "internalType": "bytes32",
          "name": "salt",
          "type": "bytes32"
        }
      ],
      "name": "queue",
      "outputs": [
        {
          "internalType": "uint256",
          "name": "",
          "type": "uint256"
        }
      ],
      "stateMutability": "nonpayable",
      "type": "function"
    },
    {
      "inputs": [
        {
          "internalType": "uint256",
          "name": "proposalId",
          "type": "uint256"
        }
      ],
      "name": "queue",
      "outputs": [],
      "stateMutability": "nonpayable",
      "type": "function"
    },
    {
      "inputs": [
        {
          "internalType": "uint256",
          "name": "",
          "type": "uint256"
        }
      ],
      "name": "quorum",
      "outputs": [
        {
          "internalType": "uint256",
          "name": "",
          "type": "uint256"
        }
      ],
      "stateMutability": "pure",
      "type": "function"
    },
    {
      "inputs": [],
      "name": "quorumVotes",
      "outputs": [
        {
          "internalType": "uint256",
          "name": "",
          "type": "uint256"
        }
      ],
      "stateMutability": "view",
      "type": "function"
    },
    {
      "inputs": [
        {
          "internalType": "address",
          "name": "target",
          "type": "address"
        },
        {
          "internalType": "uint256",
          "name": "value",
          "type": "uint256"
        },
        {
          "internalType": "bytes",
          "name": "data",
          "type": "bytes"
        }
      ],
      "name": "relay",
      "outputs": [],
      "stateMutability": "payable",
      "type": "function"
    },
    {
      "inputs": [
        {
          "internalType": "uint256",
          "name": "newProposalThreshold",
          "type": "uint256"
        }
      ],
      "name": "setProposalThreshold",
      "outputs": [],
      "stateMutability": "nonpayable",
      "type": "function"
    },
    {
      "inputs": [
        {
          "internalType": "uint256",
          "name": "newVotingDelay",
          "type": "uint256"
        }
      ],
      "name": "setVotingDelay",
      "outputs": [],
      "stateMutability": "nonpayable",
      "type": "function"
    },
    {
      "inputs": [
        {
          "internalType": "uint256",
          "name": "newVotingPeriod",
          "type": "uint256"
        }
      ],
      "name": "setVotingPeriod",
      "outputs": [],
      "stateMutability": "nonpayable",
      "type": "function"
    },
    {
      "inputs": [
        {
          "internalType": "uint256",
          "name": "proposalId",
          "type": "uint256"
        }
      ],
      "name": "state",
      "outputs": [
        {
          "internalType": "enum IGovernor.ProposalState",
          "name": "",
          "type": "uint8"
        }
      ],
      "stateMutability": "view",
      "type": "function"
    },
    {
      "inputs": [
        {
          "internalType": "bytes4",
          "name": "interfaceId",
          "type": "bytes4"
        }
      ],
      "name": "supportsInterface",
      "outputs": [
        {
          "internalType": "bool",
          "name": "",
          "type": "bool"
        }
      ],
      "stateMutability": "view",
      "type": "function"
    },
    {
      "inputs": [],
      "name": "timelock",
      "outputs": [
        {
          "internalType": "address",
          "name": "",
          "type": "address"
        }
      ],
      "stateMutability": "view",
      "type": "function"
    },
    {
      "inputs": [],
      "name": "token",
      "outputs": [
        {
          "internalType": "contract ERC20VotesComp",
          "name": "",
          "type": "address"
        }
      ],
      "stateMutability": "view",
      "type": "function"
    },
    {
      "inputs": [
        {
          "internalType": "contract ICompoundTimelock",
          "name": "newTimelock",
          "type": "address"
        }
      ],
      "name": "updateTimelock",
      "outputs": [],
      "stateMutability": "nonpayable",
      "type": "function"
    },
    {
      "inputs": [],
      "name": "version",
      "outputs": [
        {
          "internalType": "string",
          "name": "",
          "type": "string"
        }
      ],
      "stateMutability": "view",
      "type": "function"
    },
    {
      "inputs": [],
      "name": "votingDelay",
      "outputs": [
        {
          "internalType": "uint256",
          "name": "",
          "type": "uint256"
        }
      ],
      "stateMutability": "view",
      "type": "function"
    },
    {
      "inputs": [],
      "name": "votingPeriod",
      "outputs": [
        {
          "internalType": "uint256",
          "name": "",
          "type": "uint256"
        }
      ],
      "stateMutability": "view",
      "type": "function"
    },
    {
      "stateMutability": "payable",
      "type": "receive"
    }
  ],
  "bytecode": "0x6101606040523480156200001257600080fd5b5060405162008d7738038062008d77833981810160405281019062000038919062000673565b84818585858a806200004f6200019e60201b60201c565b60008280519060200120905060008280519060200120905060007f8b73c3c69bb8fe3d512ecc4cf759cc79239f7b179b0ffacaa9a75d522b39400f90508260e081815250508161010081815250504660a08181525050620000b8818484620001db60201b60201c565b608081815250503073ffffffffffffffffffffffffffffffffffffffff1660c08173ffffffffffffffffffffffffffffffffffffffff1681525050806101208181525050505050505080600090816200011291906200096f565b505062000125836200021760201b60201c565b62000136826200025e60201b60201c565b6200014781620002eb60201b60201c565b5050506200015b816200033260201b60201c565b508073ffffffffffffffffffffffffffffffffffffffff166101408173ffffffffffffffffffffffffffffffffffffffff16815250505050505050505062000bf3565b60606040518060400160405280600181526020017f3100000000000000000000000000000000000000000000000000000000000000815250905090565b60008383834630604051602001620001f895949392919062000a93565b6040516020818303038152906040528051906020012090509392505050565b7fc565b045403dc03c2eea82b81a0465edad9e2e7fc4d97e11421c209da93d7a93600554826040516200024c92919062000af0565b60405180910390a18060058190555050565b60008111620002a4576040517f08c379a00000000000000000000000000000000000000000000000000000000081526004016200029b9062000ba4565b60405180910390fd5b7f7e3f7f0708a84de9203036abaa450dccc85ad5ff52f78c170f3edb55cf5e882860065482604051620002d992919062000af0565b60405180910390a18060068190555050565b7fccb45da8d5717e6c4544694297c4ba5cf151d455c9bb0ed4fc7a38411bc05461600754826040516200032092919062000af0565b60405180910390a18060078190555050565b7f08f74ea46ef7894f65eabfb5e6e695de773a000b47c529ab559178069b226401600860009054906101000a900473ffffffffffffffffffffffffffffffffffffffff16826040516200038792919062000bc6565b60405180910390a180600860006101000a81548173ffffffffffffffffffffffffffffffffffffffff021916908373ffffffffffffffffffffffffffffffffffffffff16021790555050565b6000604051905090565b600080fd5b600080fd5b600080fd5b600080fd5b6000601f19601f8301169050919050565b7f4e487b7100000000000000000000000000000000000000000000000000000000600052604160045260246000fd5b6200043c82620003f1565b810181811067ffffffffffffffff821117156200045e576200045d62000402565b5b80604052505050565b600062000473620003d3565b905062000481828262000431565b919050565b600067ffffffffffffffff821115620004a457620004a362000402565b5b620004af82620003f1565b9050602081019050919050565b60005b83811015620004dc578082015181840152602081019050620004bf565b60008484015250505050565b6000620004ff620004f98462000486565b62000467565b9050828152602081018484840111156200051e576200051d620003ec565b5b6200052b848285620004bc565b509392505050565b600082601f8301126200054b576200054a620003e7565b5b81516200055d848260208601620004e8565b91505092915050565b600073ffffffffffffffffffffffffffffffffffffffff82169050919050565b6000620005938262000566565b9050919050565b6000620005a78262000586565b9050919050565b620005b9816200059a565b8114620005c557600080fd5b50565b600081519050620005d981620005ae565b92915050565b6000819050919050565b620005f481620005df565b81146200060057600080fd5b50565b6000815190506200061481620005e9565b92915050565b6000620006278262000566565b9050919050565b60006200063b826200061a565b9050919050565b6200064d816200062e565b81146200065957600080fd5b50565b6000815190506200066d8162000642565b92915050565b60008060008060008060c08789031215620006935762000692620003dd565b5b600087015167ffffffffffffffff811115620006b457620006b3620003e2565b5b620006c289828a0162000533565b9650506020620006d589828a01620005c8565b9550506040620006e889828a0162000603565b9450506060620006fb89828a0162000603565b93505060806200070e89828a0162000603565b92505060a06200072189828a016200065c565b9150509295509295509295565b600081519050919050565b7f4e487b7100000000000000000000000000000000000000000000000000000000600052602260045260246000fd5b600060028204905060018216806200078157607f821691505b60208210810362000797576200079662000739565b5b50919050565b60008190508160005260206000209050919050565b60006020601f8301049050919050565b600082821b905092915050565b600060088302620008017fffffffffffffffffffffffffffffffffffffffffffffffffffffffffffffffff82620007c2565b6200080d8683620007c2565b95508019841693508086168417925050509392505050565b6000819050919050565b6000620008506200084a6200084484620005df565b62000825565b620005df565b9050919050565b6000819050919050565b6200086c836200082f565b620008846200087b8262000857565b848454620007cf565b825550505050565b600090565b6200089b6200088c565b620008a881848462000861565b505050565b5b81811015620008d057620008c460008262000891565b600181019050620008ae565b5050565b601f8211156200091f57620008e9816200079d565b620008f484620007b2565b8101602085101562000904578190505b6200091c6200091385620007b2565b830182620008ad565b50505b505050565b600082821c905092915050565b6000620009446000198460080262000924565b1980831691505092915050565b60006200095f838362000931565b9150826002028217905092915050565b6200097a826200072e565b67ffffffffffffffff81111562000996576200099562000402565b5b620009a2825462000768565b620009af828285620008d4565b600060209050601f831160018114620009e75760008415620009d2578287015190505b620009de858262000951565b86555062000a4e565b601f198416620009f7866200079d565b60005b8281101562000a2157848901518255600182019150602085019450602081019050620009fa565b8683101562000a41578489015162000a3d601f89168262000931565b8355505b6001600288020188555050505b505050505050565b6000819050919050565b62000a6b8162000a56565b82525050565b62000a7c81620005df565b82525050565b62000a8d8162000586565b82525050565b600060a08201905062000aaa600083018862000a60565b62000ab9602083018762000a60565b62000ac8604083018662000a60565b62000ad7606083018562000a71565b62000ae6608083018462000a82565b9695505050505050565b600060408201905062000b07600083018562000a71565b62000b16602083018462000a71565b9392505050565b600082825260208201905092915050565b7f476f7665726e6f7253657474696e67733a20766f74696e6720706572696f642060008201527f746f6f206c6f7700000000000000000000000000000000000000000000000000602082015250565b600062000b8c60278362000b1d565b915062000b998262000b2e565b604082019050919050565b6000602082019050818103600083015262000bbf8162000b7d565b9050919050565b600060408201905062000bdd600083018562000a82565b62000bec602083018462000a82565b9392505050565b60805160a05160c05160e05161010051610120516101405161812262000c55600039600081816123f10152613309015260006138f00152600061393201526000613911015260006138460152600061389c015260006138c501526181226000f3fe6080604052600436106102815760003560e01c80637d5e81e21161014f578063da95691a116100c1578063eb9019d41161007a578063eb9019d414610af4578063ece40cc114610b31578063f23a6e6114610b5a578063f8ce560a14610b97578063fc0c546a14610bd4578063fe0d94c114610bff576102c7565b8063da95691a146109d2578063dd4e2ba514610a0f578063ddf0b00914610a3a578063deaaa7cc14610a63578063e23a9a5214610a8e578063ea0217cf14610acb576102c7565b8063b9a6196111610113578063b9a61961146108bd578063bc197c81146108d4578063c01f9e3714610911578063c28bc2fa1461094e578063c59057e41461096a578063d33219b4146109a7576102c7565b80637d5e81e2146107b25780639a802a6d146107ef578063a890c9101461082c578063ab58fb8e14610855578063b58131b014610892576102c7565b8063328dd982116101f3578063452115d6116101ac578063452115d61461066a57806354fd4d50146106a757806356781388146106d25780635f398a141461070f57806370b0f6601461074c5780637b3c71d314610775576102c7565b8063328dd9821461051f5780633932abb11461055f5780633bccf4fd1461058a5780633e4f49e6146105c757806340e58ee514610604578063438596321461062d576102c7565b8063150b7a0211610245578063150b7a02146103e2578063160cbed71461041f57806324bc1a641461045c5780632656227d146104875780632d63f693146104b75780632fe3e261146104f4576102c7565b8063013cf08b146102cc57806301ffc9a71461031257806302a251a31461034f578063034201811461037a57806306fdde03146103b7576102c7565b366102c7573073ffffffffffffffffffffffffffffffffffffffff166102a5610c1b565b73ffffffffffffffffffffffffffffffffffffffff16146102c557600080fd5b005b600080fd5b3480156102d857600080fd5b506102f360048036038101906102ee9190614f81565b610c2a565b6040516103099a99989796959493929190615019565b60405180910390f35b34801561031e57600080fd5b506103396004803603810190610334919061510d565b610d1f565b604051610346919061513a565b60405180910390f35b34801561035b57600080fd5b50610364610d31565b6040516103719190615155565b60405180910390f35b34801561038657600080fd5b506103a1600480360381019061039c9190615385565b610d3b565b6040516103ae9190615155565b60405180910390f35b3480156103c357600080fd5b506103cc610e20565b6040516103d991906154e2565b60405180910390f35b3480156103ee57600080fd5b5061040960048036038101906104049190615530565b610eb2565b60405161041691906155c2565b60405180910390f35b34801561042b57600080fd5b5061044660048036038101906104419190615844565b610ec6565b6040516104539190615155565b60405180910390f35b34801561046857600080fd5b50610471610ede565b60405161047e9190615155565b60405180910390f35b6104a1600480360381019061049c9190615844565b610efa565b6040516104ae9190615155565b60405180910390f35b3480156104c357600080fd5b506104de60048036038101906104d99190614f81565b610f12565b6040516104eb9190615155565b60405180910390f35b34801561050057600080fd5b50610509610f80565b604051610516919061590e565b60405180910390f35b34801561052b57600080fd5b5061054660048036038101906105419190614f81565b610fa4565b6040516105569493929190615cc8565b60405180910390f35b34801561056b57600080fd5b50610574611261565b6040516105819190615155565b60405180910390f35b34801561059657600080fd5b506105b160048036038101906105ac9190615d29565b61126b565b6040516105be9190615155565b60405180910390f35b3480156105d357600080fd5b506105ee60048036038101906105e99190614f81565b6112f5565b6040516105fb9190615e1b565b60405180910390f35b34801561061057600080fd5b5061062b60048036038101906106269190614f81565b611307565b005b34801561063957600080fd5b50610654600480360381019061064f9190615e36565b61169f565b604051610661919061513a565b60405180910390f35b34801561067657600080fd5b50610691600480360381019061068c9190615844565b61170d565b60405161069e9190615155565b60405180910390f35b3480156106b357600080fd5b506106bc611725565b6040516106c991906154e2565b60405180910390f35b3480156106de57600080fd5b506106f960048036038101906106f49190615e76565b611762565b6040516107069190615155565b60405180910390f35b34801561071b57600080fd5b5061073660048036038101906107319190615eb6565b611793565b6040516107439190615155565b60405180910390f35b34801561075857600080fd5b50610773600480360381019061076e9190614f81565b6117fd565b005b34801561078157600080fd5b5061079c60048036038101906107979190615f5a565b6118f4565b6040516107a99190615155565b60405180910390f35b3480156107be57600080fd5b506107d960048036038101906107d4919061606f565b61195c565b6040516107e69190615155565b60405180910390f35b3480156107fb57600080fd5b5061081660048036038101906108119190616146565b611974565b6040516108239190615155565b60405180910390f35b34801561083857600080fd5b50610853600480360381019061084e9190616205565b61198a565b005b34801561086157600080fd5b5061087c60048036038101906108779190614f81565b611a81565b6040516108899190615155565b60405180910390f35b34801561089e57600080fd5b506108a7611a93565b6040516108b49190615155565b60405180910390f35b3480156108c957600080fd5b506108d2611aa2565b005b3480156108e057600080fd5b506108fb60048036038101906108f69190616232565b611b26565b60405161090891906155c2565b60405180910390f35b34801561091d57600080fd5b5061093860048036038101906109339190614f81565b611b3b565b6040516109459190615155565b60405180910390f35b61096860048036038101906109639190616357565b611ba9565b005b34801561097657600080fd5b50610991600480360381019061098c9190615844565b611d32565b60405161099e9190615155565b60405180910390f35b3480156109b357600080fd5b506109bc611d6e565b6040516109c991906163cb565b60405180910390f35b3480156109de57600080fd5b506109f960048036038101906109f491906164c7565b611d98565b604051610a069190615155565b60405180910390f35b348015610a1b57600080fd5b50610a24611dcf565b604051610a3191906154e2565b60405180910390f35b348015610a4657600080fd5b50610a616004803603810190610a5c9190614f81565b611e0c565b005b348015610a6f57600080fd5b50610a786120c1565b604051610a85919061590e565b60405180910390f35b348015610a9a57600080fd5b50610ab56004803603810190610ab09190615e36565b6120e5565b604051610ac29190616655565b60405180910390f35b348015610ad757600080fd5b50610af26004803603810190610aed9190614f81565b6121c9565b005b348015610b0057600080fd5b50610b1b6004803603810190610b169190616670565b6122c0565b604051610b289190615155565b60405180910390f35b348015610b3d57600080fd5b50610b586004803603810190610b539190614f81565b6122dc565b005b348015610b6657600080fd5b50610b816004803603810190610b7c91906166b0565b6123d3565b604051610b8e91906155c2565b60405180910390f35b348015610ba357600080fd5b50610bbe6004803603810190610bb99190614f81565b6123e8565b604051610bcb9190615155565b60405180910390f35b348015610be057600080fd5b50610be96123ef565b604051610bf691906167a6565b60405180910390f35b610c196004803603810190610c149190614f81565b612413565b005b6000610c256126c8565b905090565b6000806000806000806000806000808a9950610c458b611a81565b9750610c508b610f12565b9650610c5b8b611b3b565b95506000600460008d815260200190815260200160002090508060000160009054906101000a900473ffffffffffffffffffffffffffffffffffffffff1699508060050154955080600601549450806007015493506000610cbb8d6112f5565b905060026007811115610cd157610cd0615da4565b5b816007811115610ce457610ce3615da4565b5b149350600780811115610cfa57610cf9615da4565b5b816007811115610d0d57610d0c615da4565b5b14925050509193959799509193959799565b6000610d2a826126f2565b9050919050565b6000600654905090565b600080610dbe610db67fb3b3f3b703cd84ce352197dcff232b1b5d3cfb2025ce47cf04742d0651f1af888c8c8c8c604051610d779291906167f1565b60405180910390208b80519060200120604051602001610d9b959493929190616819565b6040516020818303038152906040528051906020012061276c565b868686612786565b9050610e118a828b8b8b8080601f016020809104026020016040519081016040528093929190818152602001838380828437600081840152601f19601f820116905080830192505050505050508a6127b1565b91505098975050505050505050565b606060008054610e2f9061689b565b80601f0160208091040260200160405190810160405280929190818152602001828054610e5b9061689b565b8015610ea85780601f10610e7d57610100808354040283529160200191610ea8565b820191906000526020600020905b815481529060010190602001808311610e8b57829003601f168201915b5050505050905090565b600063150b7a0260e01b9050949350505050565b6000610ed48585858561296d565b9050949350505050565b6000610ef5600143610ef091906168fb565b6123e8565b905090565b6000610f0885858585612d6a565b9050949350505050565b6000610f6f600160008481526020019081526020016000206000016040518060200160405290816000820160009054906101000a900467ffffffffffffffff1667ffffffffffffffff1667ffffffffffffffff1681525050612eb7565b67ffffffffffffffff169050919050565b7fb3b3f3b703cd84ce352197dcff232b1b5d3cfb2025ce47cf04742d0651f1af8881565b6060806060806000600460008781526020019081526020016000209050806001018160020182600301836004018380548060200260200160405190810160405280929190818152602001828054801561105257602002820191906000526020600020905b8160009054906101000a900473ffffffffffffffffffffffffffffffffffffffff1673ffffffffffffffffffffffffffffffffffffffff1681526020019060010190808311611008575b50505050509350828054806020026020016040519081016040528092919081815260200182805480156110a457602002820191906000526020600020905b815481526020019060010190808311611090575b5050505050925081805480602002602001604051908101604052809291908181526020016000905b828210156111785783829060005260206000200180546110eb9061689b565b80601f01602080910402602001604051908101604052809291908181526020018280546111179061689b565b80156111645780601f1061113957610100808354040283529160200191611164565b820191906000526020600020905b81548152906001019060200180831161114757829003601f168201915b5050505050815260200190600101906110cc565b50505050915080805480602002602001604051908101604052809291908181526020016000905b8282101561124b5783829060005260206000200180546111be9061689b565b80601f01602080910402602001604051908101604052809291908181526020018280546111ea9061689b565b80156112375780601f1061120c57610100808354040283529160200191611237565b820191906000526020600020905b81548152906001019060200180831161121a57829003601f168201915b50505050508152602001906001019061119f565b5050505090509450945094509450509193509193565b6000600554905090565b6000806112cc6112c47f150214d74d59b7d1e90c73fc22ef3d991dd0a76b046543d4d80ab92d2a50328f89896040516020016112a99392919061692f565b6040516020818303038152906040528051906020012061276c565b868686612786565b90506112e987828860405180602001604052806000815250612ec5565b91505095945050505050565b600061130082612ee5565b9050919050565b60006004600083815260200190815260200160002090508060000160009054906101000a900473ffffffffffffffffffffffffffffffffffffffff1673ffffffffffffffffffffffffffffffffffffffff16611361613000565b73ffffffffffffffffffffffffffffffffffffffff1614806113c25750611386611a93565b6113c08260000160009054906101000a900473ffffffffffffffffffffffffffffffffffffffff166001436113bb91906168fb565b6122c0565b105b611401576040517f08c379a00000000000000000000000000000000000000000000000000000000081526004016113f8906169d8565b60405180910390fd5b61169a8160010180548060200260200160405190810160405280929190818152602001828054801561148857602002820191906000526020600020905b8160009054906101000a900473ffffffffffffffffffffffffffffffffffffffff1673ffffffffffffffffffffffffffffffffffffffff168152602001906001019080831161143e575b5050505050826002018054806020026020016040519081016040528092919081815260200182805480156114db57602002820191906000526020600020905b8154815260200190600101908083116114c7575b505050505061169084600301805480602002602001604051908101604052809291908181526020016000905b828210156115b35783829060005260206000200180546115269061689b565b80601f01602080910402602001604051908101604052809291908181526020018280546115529061689b565b801561159f5780601f106115745761010080835404028352916020019161159f565b820191906000526020600020905b81548152906001019060200180831161158257829003601f168201915b505050505081526020019060010190611507565b5050505085600401805480602002602001604051908101604052809291908181526020016000905b828210156116875783829060005260206000200180546115fa9061689b565b80601f01602080910402602001604051908101604052809291908181526020018280546116269061689b565b80156116735780601f1061164857610100808354040283529160200191611673565b820191906000526020600020905b81548152906001019060200180831161165657829003601f168201915b5050505050815260200190600101906115db565b50505050613008565b8460090154613144565b505050565b60006004600084815260200190815260200160002060080160008373ffffffffffffffffffffffffffffffffffffffff1673ffffffffffffffffffffffffffffffffffffffff16815260200190815260200160002060000160009054906101000a900460ff16905092915050565b600061171b85858585613144565b9050949350505050565b60606040518060400160405280600181526020017f3100000000000000000000000000000000000000000000000000000000000000815250905090565b60008061176d613000565b905061178a84828560405180602001604052806000815250612ec5565b91505092915050565b60008061179e613000565b90506117f187828888888080601f016020809104026020016040519081016040528093929190818152602001838380828437600081840152601f19601f82011690508083019250505050505050876127b1565b91505095945050505050565b611805610c1b565b73ffffffffffffffffffffffffffffffffffffffff16611823613000565b73ffffffffffffffffffffffffffffffffffffffff1614611879576040517f08c379a000000000000000000000000000000000000000000000000000000000815260040161187090616a44565b60405180910390fd5b3073ffffffffffffffffffffffffffffffffffffffff16611898610c1b565b73ffffffffffffffffffffffffffffffffffffffff16146118e85760006118bd61315c565b6040516118cb9291906167f1565b604051809103902090505b806118e16002613169565b036118d657505b6118f181613245565b50565b6000806118ff613000565b905061195186828787878080601f016020809104026020016040519081016040528093929190818152602001838380828437600081840152601f19601f82011690508083019250505050505050612ec5565b915050949350505050565b600061196a8585858561328a565b9050949350505050565b6000611981848484613305565b90509392505050565b611992610c1b565b73ffffffffffffffffffffffffffffffffffffffff166119b0613000565b73ffffffffffffffffffffffffffffffffffffffff1614611a06576040517f08c379a00000000000000000000000000000000000000000000000000000000081526004016119fd90616a44565b60405180910390fd5b3073ffffffffffffffffffffffffffffffffffffffff16611a25610c1b565b73ffffffffffffffffffffffffffffffffffffffff1614611a75576000611a4a61315c565b604051611a589291906167f1565b604051809103902090505b80611a6e6002613169565b03611a6357505b611a7e816133ba565b50565b6000611a8c82613459565b9050919050565b6000611a9d6134c7565b905090565b600860009054906101000a900473ffffffffffffffffffffffffffffffffffffffff1673ffffffffffffffffffffffffffffffffffffffff16630e18b6816040518163ffffffff1660e01b8152600401600060405180830381600087803b158015611b0c57600080fd5b505af1158015611b20573d6000803e3d6000fd5b50505050565b600063bc197c8160e01b905095945050505050565b6000611b98600160008481526020019081526020016000206001016040518060200160405290816000820160009054906101000a900467ffffffffffffffff1667ffffffffffffffff1667ffffffffffffffff1681525050612eb7565b67ffffffffffffffff169050919050565b611bb1610c1b565b73ffffffffffffffffffffffffffffffffffffffff16611bcf613000565b73ffffffffffffffffffffffffffffffffffffffff1614611c25576040517f08c379a0000000000000000000000000000000000000000000000000000000008152600401611c1c90616a44565b60405180910390fd5b3073ffffffffffffffffffffffffffffffffffffffff16611c44610c1b565b73ffffffffffffffffffffffffffffffffffffffff1614611c94576000611c6961315c565b604051611c779291906167f1565b604051809103902090505b80611c8d6002613169565b03611c8257505b6000808573ffffffffffffffffffffffffffffffffffffffff16858585604051611cbf9291906167f1565b60006040518083038185875af1925050503d8060008114611cfc576040519150601f19603f3d011682016040523d82523d6000602084013e611d01565b606091505b5091509150611d2982826040518060600160405280602881526020016180c5602891396134d1565b50505050505050565b600084848484604051602001611d4b9493929190616a64565b6040516020818303038152906040528051906020012060001c9050949350505050565b6000600860009054906101000a900473ffffffffffffffffffffffffffffffffffffffff16905090565b6000611daf611da5613000565b87878787876134f3565b611dc48686611dbe8787613008565b8561195c565b905095945050505050565b60606040518060400160405280601a81526020017f737570706f72743d627261766f2671756f72756d3d627261766f000000000000815250905090565b60006004600083815260200190815260200160002090506120bc81600101805480602002602001604051908101604052809291908181526020018280548015611eaa57602002820191906000526020600020905b8160009054906101000a900473ffffffffffffffffffffffffffffffffffffffff1673ffffffffffffffffffffffffffffffffffffffff1681526020019060010190808311611e60575b505050505082600201805480602002602001604051908101604052809291908181526020018280548015611efd57602002820191906000526020600020905b815481526020019060010190808311611ee9575b50505050506120b284600301805480602002602001604051908101604052809291908181526020016000905b82821015611fd5578382906000526020600020018054611f489061689b565b80601f0160208091040260200160405190810160405280929190818152602001828054611f749061689b565b8015611fc15780601f10611f9657610100808354040283529160200191611fc1565b820191906000526020600020905b815481529060010190602001808311611fa457829003601f168201915b505050505081526020019060010190611f29565b5050505085600401805480602002602001604051908101604052809291908181526020016000905b828210156120a957838290600052602060002001805461201c9061689b565b80601f01602080910402602001604051908101604052809291908181526020018280546120489061689b565b80156120955780601f1061206a57610100808354040283529160200191612095565b820191906000526020600020905b81548152906001019060200180831161207857829003601f168201915b505050505081526020019060010190611ffd565b50505050613008565b8460090154610ec6565b505050565b7f150214d74d59b7d1e90c73fc22ef3d991dd0a76b046543d4d80ab92d2a50328f81565b6120ed614c95565b6004600084815260200190815260200160002060080160008373ffffffffffffffffffffffffffffffffffffffff1673ffffffffffffffffffffffffffffffffffffffff1681526020019081526020016000206040518060600160405290816000820160009054906101000a900460ff161515151581526020016000820160019054906101000a900460ff1660ff1660ff1681526020016000820160029054906101000a90046bffffffffffffffffffffffff166bffffffffffffffffffffffff166bffffffffffffffffffffffff1681525050905092915050565b6121d1610c1b565b73ffffffffffffffffffffffffffffffffffffffff166121ef613000565b73ffffffffffffffffffffffffffffffffffffffff1614612245576040517f08c379a000000000000000000000000000000000000000000000000000000000815260040161223c90616a44565b60405180910390fd5b3073ffffffffffffffffffffffffffffffffffffffff16612264610c1b565b73ffffffffffffffffffffffffffffffffffffffff16146122b457600061228961315c565b6040516122979291906167f1565b604051809103902090505b806122ad6002613169565b036122a257505b6122bd816135f9565b50565b60006122d483836122cf613681565b613305565b905092915050565b6122e4610c1b565b73ffffffffffffffffffffffffffffffffffffffff16612302613000565b73ffffffffffffffffffffffffffffffffffffffff1614612358576040517f08c379a000000000000000000000000000000000000000000000000000000000815260040161234f90616a44565b60405180910390fd5b3073ffffffffffffffffffffffffffffffffffffffff16612377610c1b565b73ffffffffffffffffffffffffffffffffffffffff16146123c757600061239c61315c565b6040516123aa9291906167f1565b604051809103902090505b806123c06002613169565b036123b557505b6123d081613698565b50565b600063f23a6e6160e01b905095945050505050565b6000919050565b7f000000000000000000000000000000000000000000000000000000000000000081565b60006004600083815260200190815260200160002090506126c3816001018054806020026020016040519081016040528092919081815260200182805480156124b157602002820191906000526020600020905b8160009054906101000a900473ffffffffffffffffffffffffffffffffffffffff1673ffffffffffffffffffffffffffffffffffffffff1681526020019060010190808311612467575b50505050508260020180548060200260200160405190810160405280929190818152602001828054801561250457602002820191906000526020600020905b8154815260200190600101908083116124f0575b50505050506126b984600301805480602002602001604051908101604052809291908181526020016000905b828210156125dc57838290600052602060002001805461254f9061689b565b80601f016020809104026020016040519081016040528092919081815260200182805461257b9061689b565b80156125c85780601f1061259d576101008083540402835291602001916125c8565b820191906000526020600020905b8154815290600101906020018083116125ab57829003601f168201915b505050505081526020019060010190612530565b5050505085600401805480602002602001604051908101604052809291908181526020016000905b828210156126b05783829060005260206000200180546126239061689b565b80601f016020809104026020016040519081016040528092919081815260200182805461264f9061689b565b801561269c5780601f106126715761010080835404028352916020019161269c565b820191906000526020600020905b81548152906001019060200180831161267f57829003601f168201915b505050505081526020019060010190612604565b50505050613008565b8460090154610efa565b505050565b6000600860009054906101000a900473ffffffffffffffffffffffffffffffffffffffff16905090565b60007f6e665ced000000000000000000000000000000000000000000000000000000007bffffffffffffffffffffffffffffffffffffffffffffffffffffffff1916827bffffffffffffffffffffffffffffffffffffffffffffffffffffffff191614806127655750612764826136dd565b5b9050919050565b600061277f612779613842565b8361395c565b9050919050565b60008060006127978787878761398f565b915091506127a481613a71565b8192505050949350505050565b600080600160008881526020019081526020016000209050600160078111156127dd576127dc615da4565b5b6127e6886112f5565b60078111156127f8576127f7615da4565b5b14612838576040517f08c379a000000000000000000000000000000000000000000000000000000000815260040161282f90616b30565b60405180910390fd5b600061289787612887846000016040518060200160405290816000820160009054906101000a900467ffffffffffffffff1667ffffffffffffffff1667ffffffffffffffff1681525050612eb7565b67ffffffffffffffff1686613305565b90506128a68888888488613bd7565b6000845103612908578673ffffffffffffffffffffffffffffffffffffffff167fb8e138887d0aa13bab447e82de9d5c1777041ecd21ca36ba824ff1e6c07ddda4898884896040516128fb9493929190616b50565b60405180910390a261295f565b8673ffffffffffffffffffffffffffffffffffffffff167fe2babfbac5889a709b63bb7f598b324e08bc5a4fb9ec647fb3cbc9ec07eb87128988848989604051612956959493929190616be6565b60405180910390a25b809250505095945050505050565b60008061297c86868686611d32565b90506004600781111561299257612991615da4565b5b61299b826112f5565b60078111156129ad576129ac615da4565b5b146129ed576040517f08c379a00000000000000000000000000000000000000000000000000000000081526004016129e490616cb9565b60405180910390fd5b6000600860009054906101000a900473ffffffffffffffffffffffffffffffffffffffff1673ffffffffffffffffffffffffffffffffffffffff16636a42b8f86040518163ffffffff1660e01b8152600401602060405180830381865afa158015612a5c573d6000803e3d6000fd5b505050506040513d601f19601f82011682018060405250810190612a809190616cee565b42612a8b9190616d1b565b9050612abd612a9982613dff565b60096000858152602001908152602001600020600001613e5690919063ffffffff16565b60005b8751811015612d2357600860009054906101000a900473ffffffffffffffffffffffffffffffffffffffff1673ffffffffffffffffffffffffffffffffffffffff1663f2b06537898381518110612b1a57612b19616d4f565b5b6020026020010151898481518110612b3557612b34616d4f565b5b6020026020010151898581518110612b5057612b4f616d4f565b5b602002602001015186604051602001612b6c9493929190616da4565b604051602081830303815290604052805190602001206040518263ffffffff1660e01b8152600401612b9e919061590e565b602060405180830381865afa158015612bbb573d6000803e3d6000fd5b505050506040513d601f19601f82011682018060405250810190612bdf9190616e2f565b15612c1f576040517f08c379a0000000000000000000000000000000000000000000000000000000008152600401612c1690616ef4565b60405180910390fd5b600860009054906101000a900473ffffffffffffffffffffffffffffffffffffffff1673ffffffffffffffffffffffffffffffffffffffff16633a66f901898381518110612c7057612c6f616d4f565b5b6020026020010151898481518110612c8b57612c8a616d4f565b5b6020026020010151898581518110612ca657612ca5616d4f565b5b6020026020010151866040518563ffffffff1660e01b8152600401612cce9493929190616da4565b6020604051808303816000875af1158015612ced573d6000803e3d6000fd5b505050506040513d601f19601f82011682018060405250810190612d119190616f29565b5080612d1c90616f56565b9050612ac0565b507f9a2e42fd6722813d69113e7d0079d3d940171428df7373df9c7f7617cfda28928282604051612d55929190616f9e565b60405180910390a18192505050949350505050565b600080612d7986868686611d32565b90506000612d86826112f5565b905060046007811115612d9c57612d9b615da4565b5b816007811115612daf57612dae615da4565b5b1480612ddf575060056007811115612dca57612dc9615da4565b5b816007811115612ddd57612ddc615da4565b5b145b612e1e576040517f08c379a0000000000000000000000000000000000000000000000000000000008152600401612e1590616cb9565b60405180910390fd5b600180600084815260200190815260200160002060020160006101000a81548160ff0219169083151502179055507f712ae1383f79ac853f8d882153778e0260ef8f03b504e2866e0593e04d2b291f82604051612e7b9190615155565b60405180910390a1612e908288888888613e85565b612e9d8288888888613f68565b612eaa8288888888613f7c565b8192505050949350505050565b600081600001519050919050565b6000612edb85858585612ed6613681565b6127b1565b9050949350505050565b600080612ef183613fd7565b905060046007811115612f0757612f06615da4565b5b816007811115612f1a57612f19615da4565b5b14612f285780915050612ffb565b6000612f3384611a81565b905060008103612f47578192505050612ffb565b600860009054906101000a900473ffffffffffffffffffffffffffffffffffffffff1673ffffffffffffffffffffffffffffffffffffffff1663c1a287e26040518163ffffffff1660e01b8152600401602060405180830381865afa158015612fb4573d6000803e3d6000fd5b505050506040513d601f19601f82011682018060405250810190612fd89190616cee565b81612fe39190616d1b565b4210612ff457600692505050612ffb565b6005925050505b919050565b600033905090565b60606000825167ffffffffffffffff81111561302757613026615224565b5b60405190808252806020026020018201604052801561305a57816020015b60608152602001906001900390816130455790505b50905060005b845181101561313957600085828151811061307e5761307d616d4f565b5b602002602001015151146130ee5784818151811061309f5761309e616d4f565b5b6020026020010151805190602001208482815181106130c1576130c0616d4f565b5b60200260200101516040516020016130da929190617019565b60405160208183030381529060405261310a565b83818151811061310157613100616d4f565b5b60200260200101515b82828151811061311d5761311c616d4f565b5b60200260200101819052508061313290616f56565b9050613060565b508091505092915050565b6000613152858585856140eb565b9050949350505050565b3660008036915091509091565b60006131748261423d565b156131ab576040517f3db2a12a00000000000000000000000000000000000000000000000000000000815260040160405180910390fd5b60008260000160009054906101000a9004600f0b905082600101600082600f0b600f0b815260200190815260200160002054915082600101600082600f0b600f0b815260200190815260200160002060009055600181018360000160006101000a8154816fffffffffffffffffffffffffffffffff0219169083600f0b6fffffffffffffffffffffffffffffffff16021790555050919050565b7fc565b045403dc03c2eea82b81a0465edad9e2e7fc4d97e11421c209da93d7a9360055482604051613278929190616f9e565b60405180910390a18060058190555050565b60006132ef613297613000565b8686865167ffffffffffffffff8111156132b4576132b3615224565b5b6040519080825280602002602001820160405280156132e757816020015b60608152602001906001900390816132d25790505b5087876134f3565b6132fb85858585614272565b9050949350505050565b60007f000000000000000000000000000000000000000000000000000000000000000073ffffffffffffffffffffffffffffffffffffffff1663782d6fe185856040518363ffffffff1660e01b8152600401613362929190617041565b602060405180830381865afa15801561337f573d6000803e3d6000fd5b505050506040513d601f19601f820116820180604052508101906133a39190617096565b6bffffffffffffffffffffffff1690509392505050565b7f08f74ea46ef7894f65eabfb5e6e695de773a000b47c529ab559178069b226401600860009054906101000a900473ffffffffffffffffffffffffffffffffffffffff168260405161340d9291906170c3565b60405180910390a180600860006101000a81548173ffffffffffffffffffffffffffffffffffffffff021916908373ffffffffffffffffffffffffffffffffffffffff16021790555050565b60006134b6600960008481526020019081526020016000206000016040518060200160405290816000820160009054906101000a900467ffffffffffffffff1667ffffffffffffffff1667ffffffffffffffff1681525050614579565b67ffffffffffffffff169050919050565b6000600754905090565b606083156134e1578290506134ec565b6134eb8383614587565b5b9392505050565b600081805190602001209050600061351687876135108888613008565b85611d32565b905060006004600083815260200190815260200160002090506000801b8160090154036135ee57888160000160006101000a81548173ffffffffffffffffffffffffffffffffffffffff021916908373ffffffffffffffffffffffffffffffffffffffff16021790555087816001019080519060200190613598929190614cc9565b50868160020190805190602001906135b1929190614d53565b50858160030190805190602001906135ca929190614da0565b50848160040190805190602001906135e3929190614df9565b508281600901819055505b505050505050505050565b6000811161363c576040517f08c379a00000000000000000000000000000000000000000000000000000000081526004016136339061715e565b60405180910390fd5b7f7e3f7f0708a84de9203036abaa450dccc85ad5ff52f78c170f3edb55cf5e88286006548260405161366f929190616f9e565b60405180910390a18060068190555050565b606060405180602001604052806000815250905090565b7fccb45da8d5717e6c4544694297c4ba5cf151d455c9bb0ed4fc7a38411bc05461600754826040516136cb929190616f9e565b60405180910390a18060078190555050565b6000639a802a6d60e01b630342018160e01b635f398a1460e01b7f79dd796f000000000000000000000000000000000000000000000000000000001818187bffffffffffffffffffffffffffffffffffffffffffffffffffffffff1916827bffffffffffffffffffffffffffffffffffffffffffffffffffffffff191614806137c357507f79dd796f000000000000000000000000000000000000000000000000000000007bffffffffffffffffffffffffffffffffffffffffffffffffffffffff1916827bffffffffffffffffffffffffffffffffffffffffffffffffffffffff1916145b8061382b57507f4e2312e0000000000000000000000000000000000000000000000000000000007bffffffffffffffffffffffffffffffffffffffffffffffffffffffff1916827bffffffffffffffffffffffffffffffffffffffffffffffffffffffff1916145b8061383b575061383a826145d7565b5b9050919050565b60007f000000000000000000000000000000000000000000000000000000000000000073ffffffffffffffffffffffffffffffffffffffff163073ffffffffffffffffffffffffffffffffffffffff161480156138be57507f000000000000000000000000000000000000000000000000000000000000000046145b156138eb577f00000000000000000000000000000000000000000000000000000000000000009050613959565b6139567f00000000000000000000000000000000000000000000000000000000000000007f00000000000000000000000000000000000000000000000000000000000000007f0000000000000000000000000000000000000000000000000000000000000000614641565b90505b90565b600082826040516020016139719291906171f6565b60405160208183030381529060405280519060200120905092915050565b6000807f7fffffffffffffffffffffffffffffff5d576e7357a4501ddfe92f46681b20a08360001c11156139ca576000600391509150613a68565b6000600187878787604051600081526020016040526040516139ef949392919061722d565b6020604051602081039080840390855afa158015613a11573d6000803e3d6000fd5b505050602060405103519050600073ffffffffffffffffffffffffffffffffffffffff168173ffffffffffffffffffffffffffffffffffffffff1603613a5f57600060019250925050613a68565b80600092509250505b94509492505050565b60006004811115613a8557613a84615da4565b5b816004811115613a9857613a97615da4565b5b0315613bd45760016004811115613ab257613ab1615da4565b5b816004811115613ac557613ac4615da4565b5b03613b05576040517f08c379a0000000000000000000000000000000000000000000000000000000008152600401613afc906172be565b60405180910390fd5b60026004811115613b1957613b18615da4565b5b816004811115613b2c57613b2b615da4565b5b03613b6c576040517f08c379a0000000000000000000000000000000000000000000000000000000008152600401613b639061732a565b60405180910390fd5b60036004811115613b8057613b7f615da4565b5b816004811115613b9357613b92615da4565b5b03613bd3576040517f08c379a0000000000000000000000000000000000000000000000000000000008152600401613bca906173bc565b60405180910390fd5b5b50565b600060046000878152602001908152602001600020905060008160080160008773ffffffffffffffffffffffffffffffffffffffff1673ffffffffffffffffffffffffffffffffffffffff16815260200190815260200160002090508060000160009054906101000a900460ff1615613c85576040517f08c379a0000000000000000000000000000000000000000000000000000000008152600401613c7c9061744e565b60405180910390fd5b60018160000160006101000a81548160ff021916908315150217905550848160000160016101000a81548160ff021916908360ff160217905550613cc88461467b565b8160000160026101000a8154816bffffffffffffffffffffffff02191690836bffffffffffffffffffffffff16021790555060006002811115613d0e57613d0d615da4565b5b60ff168560ff1603613d3a5783826006016000828254613d2e9190616d1b565b92505081905550613df6565b60016002811115613d4e57613d4d615da4565b5b60ff168560ff1603613d7a5783826005016000828254613d6e9190616d1b565b92505081905550613df5565b600280811115613d8d57613d8c615da4565b5b60ff168560ff1603613db95783826007016000828254613dad9190616d1b565b92505081905550613df4565b6040517f08c379a0000000000000000000000000000000000000000000000000000000008152600401613deb906174e0565b60405180910390fd5b5b5b50505050505050565b600067ffffffffffffffff8016821115613e4e576040517f08c379a0000000000000000000000000000000000000000000000000000000008152600401613e4590617572565b60405180910390fd5b819050919050565b808260000160006101000a81548167ffffffffffffffff021916908367ffffffffffffffff1602179055505050565b3073ffffffffffffffffffffffffffffffffffffffff16613ea4610c1b565b73ffffffffffffffffffffffffffffffffffffffff1614613f615760005b8451811015613f5f573073ffffffffffffffffffffffffffffffffffffffff16858281518110613ef557613ef4616d4f565b5b602002602001015173ffffffffffffffffffffffffffffffffffffffff1603613f4e57613f4d838281518110613f2e57613f2d616d4f565b5b60200260200101518051906020012060026146d690919063ffffffff16565b5b80613f5890616f56565b9050613ec2565b505b5050505050565b613f758585858585614752565b5050505050565b3073ffffffffffffffffffffffffffffffffffffffff16613f9b610c1b565b73ffffffffffffffffffffffffffffffffffffffff1614613fd057613fc0600261423d565b613fcf57613fce60026148ec565b5b5b5050505050565b6000806001600084815260200190815260200160002090508060020160009054906101000a900460ff16156140105760079150506140e6565b8060020160019054906101000a900460ff16156140315760029150506140e6565b600061403c84610f12565b905060008103614081576040517f08c379a0000000000000000000000000000000000000000000000000000000008152600401614078906175de565b60405180910390fd5b438110614093576000925050506140e6565b600061409e85611b3b565b90504381106140b357600193505050506140e6565b6140bc8561496d565b80156140cd57506140cc856149a5565b5b156140de57600493505050506140e6565b600393505050505b919050565b6000806140fa868686866149d0565b9050600061410782611a81565b905060008111156142305760005b875181101561421057600860009054906101000a900473ffffffffffffffffffffffffffffffffffffffff1673ffffffffffffffffffffffffffffffffffffffff1663591fcdfe89838151811061416f5761416e616d4f565b5b602002602001015189848151811061418a57614189616d4f565b5b60200260200101518985815181106141a5576141a4616d4f565b5b6020026020010151866040518563ffffffff1660e01b81526004016141cd9493929190616da4565b600060405180830381600087803b1580156141e757600080fd5b505af11580156141fb573d6000803e3d6000fd5b505050508061420990616f56565b9050614115565b5061422f60096000848152602001908152602001600020600001614b29565b5b8192505050949350505050565b60008160000160009054906101000a9004600f0b600f0b8260000160109054906101000a9004600f0b600f0b13159050919050565b600061427c611a93565b614299614287613000565b60014361429491906168fb565b6122c0565b10156142da576040517f08c379a00000000000000000000000000000000000000000000000000000000081526004016142d190617670565b60405180910390fd5b60006142ef8686868680519060200120611d32565b90508451865114614335576040517f08c379a000000000000000000000000000000000000000000000000000000000815260040161432c90617702565b60405180910390fd5b8351865114614379576040517f08c379a000000000000000000000000000000000000000000000000000000000815260040161437090617702565b60405180910390fd5b60008651116143bd576040517f08c379a00000000000000000000000000000000000000000000000000000000081526004016143b49061776e565b60405180910390fd5b600060016000838152602001908152602001600020905061441d816000016040518060200160405290816000820160009054906101000a900467ffffffffffffffff1667ffffffffffffffff1667ffffffffffffffff1681525050614b58565b61445c576040517f08c379a000000000000000000000000000000000000000000000000000000000815260040161445390617800565b60405180910390fd5b600061446e614469611261565b613dff565b61447743613dff565b6144819190617834565b90506000614495614490610d31565b613dff565b826144a09190617834565b90506144b88284600001614b7290919063ffffffff16565b6144ce8184600101614b7290919063ffffffff16565b7f7d84a6263ae0d98d3329bd7b46bb4e8d6f98cd35a7adb45c274c8b7fd5ebd5e0846144f8613000565b8b8b8d5167ffffffffffffffff81111561451557614514615224565b5b60405190808252806020026020018201604052801561454857816020015b60608152602001906001900390816145335790505b508c88888e604051614562999897969594939291906178a1565b60405180910390a183945050505050949350505050565b600081600001519050919050565b60008251111561459a5781518083602001fd5b806040517f08c379a00000000000000000000000000000000000000000000000000000000081526004016145ce91906154e2565b60405180910390fd5b60007f01ffc9a7000000000000000000000000000000000000000000000000000000007bffffffffffffffffffffffffffffffffffffffffffffffffffffffff1916827bffffffffffffffffffffffffffffffffffffffffffffffffffffffff1916149050919050565b6000838383463060405160200161465c959493929190617951565b6040516020818303038152906040528051906020012090509392505050565b60006bffffffffffffffffffffffff80168211156146ce576040517f08c379a00000000000000000000000000000000000000000000000000000000081526004016146c590617a16565b60405180910390fd5b819050919050565b60008260000160109054906101000a9004600f0b90508183600101600083600f0b600f0b815260200190815260200160002081905550600181018360000160106101000a8154816fffffffffffffffffffffffffffffffff0219169083600f0b6fffffffffffffffffffffffffffffffff160217905550505050565b600061475d86611a81565b9050600081116147a2576040517f08c379a000000000000000000000000000000000000000000000000000000000815260040161479990617aa8565b60405180910390fd5b6147ce600860009054906101000a900473ffffffffffffffffffffffffffffffffffffffff1634614ba1565b60005b85518110156148e357600860009054906101000a900473ffffffffffffffffffffffffffffffffffffffff1673ffffffffffffffffffffffffffffffffffffffff16630825f38f87838151811061482b5761482a616d4f565b5b602002602001015187848151811061484657614845616d4f565b5b602002602001015187858151811061486157614860616d4f565b5b6020026020010151866040518563ffffffff1660e01b81526004016148899493929190616da4565b6000604051808303816000875af11580156148a8573d6000803e3d6000fd5b505050506040513d6000823e3d601f19601f820116820180604052508101906148d19190617b38565b50806148dc90616f56565b90506147d1565b50505050505050565b60008160000160006101000a8154816fffffffffffffffffffffffffffffffff0219169083600f0b6fffffffffffffffffffffffffffffffff16021790555060008160000160106101000a8154816fffffffffffffffffffffffffffffffff0219169083600f0b6fffffffffffffffffffffffffffffffff16021790555050565b600080600460008481526020019081526020016000209050806005015461499b61499685610f12565b6123e8565b1115915050919050565b6000806004600084815260200190815260200160002090508060060154816005015411915050919050565b6000806149df86868686611d32565b905060006149ec826112f5565b905060026007811115614a0257614a01615da4565b5b816007811115614a1557614a14615da4565b5b14158015614a48575060066007811115614a3257614a31615da4565b5b816007811115614a4557614a44615da4565b5b14155b8015614a785750600780811115614a6257614a61615da4565b5b816007811115614a7557614a74615da4565b5b14155b614ab7576040517f08c379a0000000000000000000000000000000000000000000000000000000008152600401614aae90617bcd565b60405180910390fd5b600180600084815260200190815260200160002060020160016101000a81548160ff0219169083151502179055507f789cf55be980739dad1d0699b93b58e806b51c9d96619bfa8fe0a28abaa7b30c82604051614b149190615155565b60405180910390a18192505050949350505050565b60008160000160006101000a81548167ffffffffffffffff021916908367ffffffffffffffff16021790555050565b600080826000015167ffffffffffffffff16149050919050565b808260000160006101000a81548167ffffffffffffffff021916908367ffffffffffffffff1602179055505050565b80471015614be4576040517f08c379a0000000000000000000000000000000000000000000000000000000008152600401614bdb90617c39565b60405180910390fd5b60008273ffffffffffffffffffffffffffffffffffffffff1682604051614c0a90617c7c565b60006040518083038185875af1925050503d8060008114614c47576040519150601f19603f3d011682016040523d82523d6000602084013e614c4c565b606091505b5050905080614c90576040517f08c379a0000000000000000000000000000000000000000000000000000000008152600401614c8790617d03565b60405180910390fd5b505050565b6040518060600160405280600015158152602001600060ff16815260200160006bffffffffffffffffffffffff1681525090565b828054828255906000526020600020908101928215614d42579160200282015b82811115614d415782518260006101000a81548173ffffffffffffffffffffffffffffffffffffffff021916908373ffffffffffffffffffffffffffffffffffffffff16021790555091602001919060010190614ce9565b5b509050614d4f9190614e52565b5090565b828054828255906000526020600020908101928215614d8f579160200282015b82811115614d8e578251825591602001919060010190614d73565b5b509050614d9c9190614e52565b5090565b828054828255906000526020600020908101928215614de8579160200282015b82811115614de7578251829081614dd79190617ec5565b5091602001919060010190614dc0565b5b509050614df59190614e6f565b5090565b828054828255906000526020600020908101928215614e41579160200282015b82811115614e40578251829081614e309190617ff2565b5091602001919060010190614e19565b5b509050614e4e9190614e93565b5090565b5b80821115614e6b576000816000905550600101614e53565b5090565b5b80821115614e8f5760008181614e869190614eb7565b50600101614e70565b5090565b5b80821115614eb35760008181614eaa9190614ef7565b50600101614e94565b5090565b508054614ec39061689b565b6000825580601f10614ed55750614ef4565b601f016020900490600052602060002090810190614ef39190614e52565b5b50565b508054614f039061689b565b6000825580601f10614f155750614f34565b601f016020900490600052602060002090810190614f339190614e52565b5b50565b6000604051905090565b600080fd5b600080fd5b6000819050919050565b614f5e81614f4b565b8114614f6957600080fd5b50565b600081359050614f7b81614f55565b92915050565b600060208284031215614f9757614f96614f41565b5b6000614fa584828501614f6c565b91505092915050565b614fb781614f4b565b82525050565b600073ffffffffffffffffffffffffffffffffffffffff82169050919050565b6000614fe882614fbd565b9050919050565b614ff881614fdd565b82525050565b60008115159050919050565b61501381614ffe565b82525050565b60006101408201905061502f600083018d614fae565b61503c602083018c614fef565b615049604083018b614fae565b615056606083018a614fae565b6150636080830189614fae565b61507060a0830188614fae565b61507d60c0830187614fae565b61508a60e0830186614fae565b61509861010083018561500a565b6150a661012083018461500a565b9b9a5050505050505050505050565b60007fffffffff0000000000000000000000000000000000000000000000000000000082169050919050565b6150ea816150b5565b81146150f557600080fd5b50565b600081359050615107816150e1565b92915050565b60006020828403121561512357615122614f41565b5b6000615131848285016150f8565b91505092915050565b600060208201905061514f600083018461500a565b92915050565b600060208201905061516a6000830184614fae565b92915050565b600060ff82169050919050565b61518681615170565b811461519157600080fd5b50565b6000813590506151a38161517d565b92915050565b600080fd5b600080fd5b600080fd5b60008083601f8401126151ce576151cd6151a9565b5b8235905067ffffffffffffffff8111156151eb576151ea6151ae565b5b602083019150836001820283011115615207576152066151b3565b5b9250929050565b600080fd5b6000601f19601f8301169050919050565b7f4e487b7100000000000000000000000000000000000000000000000000000000600052604160045260246000fd5b61525c82615213565b810181811067ffffffffffffffff8211171561527b5761527a615224565b5b80604052505050565b600061528e614f37565b905061529a8282615253565b919050565b600067ffffffffffffffff8211156152ba576152b9615224565b5b6152c382615213565b9050602081019050919050565b82818337600083830152505050565b60006152f26152ed8461529f565b615284565b90508281526020810184848401111561530e5761530d61520e565b5b6153198482856152d0565b509392505050565b600082601f830112615336576153356151a9565b5b81356153468482602086016152df565b91505092915050565b6000819050919050565b6153628161534f565b811461536d57600080fd5b50565b60008135905061537f81615359565b92915050565b60008060008060008060008060e0898b0312156153a5576153a4614f41565b5b60006153b38b828c01614f6c565b98505060206153c48b828c01615194565b975050604089013567ffffffffffffffff8111156153e5576153e4614f46565b5b6153f18b828c016151b8565b9650965050606089013567ffffffffffffffff81111561541457615413614f46565b5b6154208b828c01615321565b94505060806154318b828c01615194565b93505060a06154428b828c01615370565b92505060c06154538b828c01615370565b9150509295985092959890939650565b600081519050919050565b600082825260208201905092915050565b60005b8381101561549d578082015181840152602081019050615482565b60008484015250505050565b60006154b482615463565b6154be818561546e565b93506154ce81856020860161547f565b6154d781615213565b840191505092915050565b600060208201905081810360008301526154fc81846154a9565b905092915050565b61550d81614fdd565b811461551857600080fd5b50565b60008135905061552a81615504565b92915050565b6000806000806080858703121561554a57615549614f41565b5b60006155588782880161551b565b94505060206155698782880161551b565b935050604061557a87828801614f6c565b925050606085013567ffffffffffffffff81111561559b5761559a614f46565b5b6155a787828801615321565b91505092959194509250565b6155bc816150b5565b82525050565b60006020820190506155d760008301846155b3565b92915050565b600067ffffffffffffffff8211156155f8576155f7615224565b5b602082029050602081019050919050565b600061561c615617846155dd565b615284565b9050808382526020820190506020840283018581111561563f5761563e6151b3565b5b835b818110156156685780615654888261551b565b845260208401935050602081019050615641565b5050509392505050565b600082601f830112615687576156866151a9565b5b8135615697848260208601615609565b91505092915050565b600067ffffffffffffffff8211156156bb576156ba615224565b5b602082029050602081019050919050565b60006156df6156da846156a0565b615284565b90508083825260208201905060208402830185811115615702576157016151b3565b5b835b8181101561572b57806157178882614f6c565b845260208401935050602081019050615704565b5050509392505050565b600082601f83011261574a576157496151a9565b5b813561575a8482602086016156cc565b91505092915050565b600067ffffffffffffffff82111561577e5761577d615224565b5b602082029050602081019050919050565b60006157a261579d84615763565b615284565b905080838252602082019050602084028301858111156157c5576157c46151b3565b5b835b8181101561580c57803567ffffffffffffffff8111156157ea576157e96151a9565b5b8086016157f78982615321565b855260208501945050506020810190506157c7565b5050509392505050565b600082601f83011261582b5761582a6151a9565b5b813561583b84826020860161578f565b91505092915050565b6000806000806080858703121561585e5761585d614f41565b5b600085013567ffffffffffffffff81111561587c5761587b614f46565b5b61588887828801615672565b945050602085013567ffffffffffffffff8111156158a9576158a8614f46565b5b6158b587828801615735565b935050604085013567ffffffffffffffff8111156158d6576158d5614f46565b5b6158e287828801615816565b92505060606158f387828801615370565b91505092959194509250565b6159088161534f565b82525050565b600060208201905061592360008301846158ff565b92915050565b600081519050919050565b600082825260208201905092915050565b6000819050602082019050919050565b61595e81614fdd565b82525050565b60006159708383615955565b60208301905092915050565b6000602082019050919050565b600061599482615929565b61599e8185615934565b93506159a983615945565b8060005b838110156159da5781516159c18882615964565b97506159cc8361597c565b9250506001810190506159ad565b5085935050505092915050565b600081519050919050565b600082825260208201905092915050565b6000819050602082019050919050565b615a1c81614f4b565b82525050565b6000615a2e8383615a13565b60208301905092915050565b6000602082019050919050565b6000615a52826159e7565b615a5c81856159f2565b9350615a6783615a03565b8060005b83811015615a98578151615a7f8882615a22565b9750615a8a83615a3a565b925050600181019050615a6b565b5085935050505092915050565b600081519050919050565b600082825260208201905092915050565b6000819050602082019050919050565b600082825260208201905092915050565b6000615aed82615463565b615af78185615ad1565b9350615b0781856020860161547f565b615b1081615213565b840191505092915050565b6000615b278383615ae2565b905092915050565b6000602082019050919050565b6000615b4782615aa5565b615b518185615ab0565b935083602082028501615b6385615ac1565b8060005b85811015615b9f5784840389528151615b808582615b1b565b9450615b8b83615b2f565b925060208a01995050600181019050615b67565b50829750879550505050505092915050565b600081519050919050565b600082825260208201905092915050565b6000819050602082019050919050565b600081519050919050565b600082825260208201905092915050565b6000615c0482615bdd565b615c0e8185615be8565b9350615c1e81856020860161547f565b615c2781615213565b840191505092915050565b6000615c3e8383615bf9565b905092915050565b6000602082019050919050565b6000615c5e82615bb1565b615c688185615bbc565b935083602082028501615c7a85615bcd565b8060005b85811015615cb65784840389528151615c978582615c32565b9450615ca283615c46565b925060208a01995050600181019050615c7e565b50829750879550505050505092915050565b60006080820190508181036000830152615ce28187615989565b90508181036020830152615cf68186615a47565b90508181036040830152615d0a8185615b3c565b90508181036060830152615d1e8184615c53565b905095945050505050565b600080600080600060a08688031215615d4557615d44614f41565b5b6000615d5388828901614f6c565b9550506020615d6488828901615194565b9450506040615d7588828901615194565b9350506060615d8688828901615370565b9250506080615d9788828901615370565b9150509295509295909350565b7f4e487b7100000000000000000000000000000000000000000000000000000000600052602160045260246000fd5b60088110615de457615de3615da4565b5b50565b6000819050615df582615dd3565b919050565b6000615e0582615de7565b9050919050565b615e1581615dfa565b82525050565b6000602082019050615e306000830184615e0c565b92915050565b60008060408385031215615e4d57615e4c614f41565b5b6000615e5b85828601614f6c565b9250506020615e6c8582860161551b565b9150509250929050565b60008060408385031215615e8d57615e8c614f41565b5b6000615e9b85828601614f6c565b9250506020615eac85828601615194565b9150509250929050565b600080600080600060808688031215615ed257615ed1614f41565b5b6000615ee088828901614f6c565b9550506020615ef188828901615194565b945050604086013567ffffffffffffffff811115615f1257615f11614f46565b5b615f1e888289016151b8565b9350935050606086013567ffffffffffffffff811115615f4157615f40614f46565b5b615f4d88828901615321565b9150509295509295909350565b60008060008060608587031215615f7457615f73614f41565b5b6000615f8287828801614f6c565b9450506020615f9387828801615194565b935050604085013567ffffffffffffffff811115615fb457615fb3614f46565b5b615fc0878288016151b8565b925092505092959194509250565b600067ffffffffffffffff821115615fe957615fe8615224565b5b615ff282615213565b9050602081019050919050565b600061601261600d84615fce565b615284565b90508281526020810184848401111561602e5761602d61520e565b5b6160398482856152d0565b509392505050565b600082601f830112616056576160556151a9565b5b8135616066848260208601615fff565b91505092915050565b6000806000806080858703121561608957616088614f41565b5b600085013567ffffffffffffffff8111156160a7576160a6614f46565b5b6160b387828801615672565b945050602085013567ffffffffffffffff8111156160d4576160d3614f46565b5b6160e087828801615735565b935050604085013567ffffffffffffffff81111561610157616100614f46565b5b61610d87828801615816565b925050606085013567ffffffffffffffff81111561612e5761612d614f46565b5b61613a87828801616041565b91505092959194509250565b60008060006060848603121561615f5761615e614f41565b5b600061616d8682870161551b565b935050602061617e86828701614f6c565b925050604084013567ffffffffffffffff81111561619f5761619e614f46565b5b6161ab86828701615321565b9150509250925092565b60006161c082614fbd565b9050919050565b60006161d2826161b5565b9050919050565b6161e2816161c7565b81146161ed57600080fd5b50565b6000813590506161ff816161d9565b92915050565b60006020828403121561621b5761621a614f41565b5b6000616229848285016161f0565b91505092915050565b600080600080600060a0868803121561624e5761624d614f41565b5b600061625c8882890161551b565b955050602061626d8882890161551b565b945050604086013567ffffffffffffffff81111561628e5761628d614f46565b5b61629a88828901615735565b935050606086013567ffffffffffffffff8111156162bb576162ba614f46565b5b6162c788828901615735565b925050608086013567ffffffffffffffff8111156162e8576162e7614f46565b5b6162f488828901615321565b9150509295509295909350565b60008083601f840112616317576163166151a9565b5b8235905067ffffffffffffffff811115616334576163336151ae565b5b6020830191508360018202830111156163505761634f6151b3565b5b9250929050565b6000806000806060858703121561637157616370614f41565b5b600061637f8782880161551b565b945050602061639087828801614f6c565b935050604085013567ffffffffffffffff8111156163b1576163b0614f46565b5b6163bd87828801616301565b925092505092959194509250565b60006020820190506163e06000830184614fef565b92915050565b600067ffffffffffffffff82111561640157616400615224565b5b602082029050602081019050919050565b6000616425616420846163e6565b615284565b90508083825260208201905060208402830185811115616448576164476151b3565b5b835b8181101561648f57803567ffffffffffffffff81111561646d5761646c6151a9565b5b80860161647a8982616041565b8552602085019450505060208101905061644a565b5050509392505050565b600082601f8301126164ae576164ad6151a9565b5b81356164be848260208601616412565b91505092915050565b600080600080600060a086880312156164e3576164e2614f41565b5b600086013567ffffffffffffffff81111561650157616500614f46565b5b61650d88828901615672565b955050602086013567ffffffffffffffff81111561652e5761652d614f46565b5b61653a88828901615735565b945050604086013567ffffffffffffffff81111561655b5761655a614f46565b5b61656788828901616499565b935050606086013567ffffffffffffffff81111561658857616587614f46565b5b61659488828901615816565b925050608086013567ffffffffffffffff8111156165b5576165b4614f46565b5b6165c188828901616041565b9150509295509295909350565b6165d781614ffe565b82525050565b6165e681615170565b82525050565b60006bffffffffffffffffffffffff82169050919050565b61660d816165ec565b82525050565b60608201600082015161662960008501826165ce565b50602082015161663c60208501826165dd565b50604082015161664f6040850182616604565b50505050565b600060608201905061666a6000830184616613565b92915050565b6000806040838503121561668757616686614f41565b5b60006166958582860161551b565b92505060206166a685828601614f6c565b9150509250929050565b600080600080600060a086880312156166cc576166cb614f41565b5b60006166da8882890161551b565b95505060206166eb8882890161551b565b94505060406166fc88828901614f6c565b935050606061670d88828901614f6c565b925050608086013567ffffffffffffffff81111561672e5761672d614f46565b5b61673a88828901615321565b9150509295509295909350565b6000819050919050565b600061676c61676761676284614fbd565b616747565b614fbd565b9050919050565b600061677e82616751565b9050919050565b600061679082616773565b9050919050565b6167a081616785565b82525050565b60006020820190506167bb6000830184616797565b92915050565b600081905092915050565b60006167d883856167c1565b93506167e58385846152d0565b82840190509392505050565b60006167fe8284866167cc565b91508190509392505050565b61681381615170565b82525050565b600060a08201905061682e60008301886158ff565b61683b6020830187614fae565b616848604083018661680a565b61685560608301856158ff565b61686260808301846158ff565b9695505050505050565b7f4e487b7100000000000000000000000000000000000000000000000000000000600052602260045260246000fd5b600060028204905060018216806168b357607f821691505b6020821081036168c6576168c561686c565b5b50919050565b7f4e487b7100000000000000000000000000000000000000000000000000000000600052601160045260246000fd5b600061690682614f4b565b915061691183614f4b565b9250828203905081811115616929576169286168cc565b5b92915050565b600060608201905061694460008301866158ff565b6169516020830185614fae565b61695e604083018461680a565b949350505050565b7f476f7665726e6f72427261766f3a2070726f706f7365722061626f766520746860008201527f726573686f6c6400000000000000000000000000000000000000000000000000602082015250565b60006169c260278361546e565b91506169cd82616966565b604082019050919050565b600060208201905081810360008301526169f1816169b5565b9050919050565b7f476f7665726e6f723a206f6e6c79476f7665726e616e63650000000000000000600082015250565b6000616a2e60188361546e565b9150616a39826169f8565b602082019050919050565b60006020820190508181036000830152616a5d81616a21565b9050919050565b60006080820190508181036000830152616a7e8187615989565b90508181036020830152616a928186615a47565b90508181036040830152616aa68185615c53565b9050616ab560608301846158ff565b95945050505050565b7f476f7665726e6f723a20766f7465206e6f742063757272656e746c792061637460008201527f6976650000000000000000000000000000000000000000000000000000000000602082015250565b6000616b1a60238361546e565b9150616b2582616abe565b604082019050919050565b60006020820190508181036000830152616b4981616b0d565b9050919050565b6000608082019050616b656000830187614fae565b616b72602083018661680a565b616b7f6040830185614fae565b8181036060830152616b9181846154a9565b905095945050505050565b600082825260208201905092915050565b6000616bb882615bdd565b616bc28185616b9c565b9350616bd281856020860161547f565b616bdb81615213565b840191505092915050565b600060a082019050616bfb6000830188614fae565b616c08602083018761680a565b616c156040830186614fae565b8181036060830152616c2781856154a9565b90508181036080830152616c3b8184616bad565b90509695505050505050565b7f476f7665726e6f723a2070726f706f73616c206e6f742073756363657373667560008201527f6c00000000000000000000000000000000000000000000000000000000000000602082015250565b6000616ca360218361546e565b9150616cae82616c47565b604082019050919050565b60006020820190508181036000830152616cd281616c96565b9050919050565b600081519050616ce881614f55565b92915050565b600060208284031215616d0457616d03614f41565b5b6000616d1284828501616cd9565b91505092915050565b6000616d2682614f4b565b9150616d3183614f4b565b9250828201905080821115616d4957616d486168cc565b5b92915050565b7f4e487b7100000000000000000000000000000000000000000000000000000000600052603260045260246000fd5b50565b6000616d8e60008361546e565b9150616d9982616d7e565b600082019050919050565b600060a082019050616db96000830187614fef565b616dc66020830186614fae565b8181036040830152616dd781616d81565b90508181036060830152616deb8185616bad565b9050616dfa6080830184614fae565b95945050505050565b616e0c81614ffe565b8114616e1757600080fd5b50565b600081519050616e2981616e03565b92915050565b600060208284031215616e4557616e44614f41565b5b6000616e5384828501616e1a565b91505092915050565b7f476f7665726e6f7254696d656c6f636b436f6d706f756e643a206964656e746960008201527f63616c2070726f706f73616c20616374696f6e20616c7265616479207175657560208201527f6564000000000000000000000000000000000000000000000000000000000000604082015250565b6000616ede60428361546e565b9150616ee982616e5c565b606082019050919050565b60006020820190508181036000830152616f0d81616ed1565b9050919050565b600081519050616f2381615359565b92915050565b600060208284031215616f3f57616f3e614f41565b5b6000616f4d84828501616f14565b91505092915050565b6000616f6182614f4b565b91507fffffffffffffffffffffffffffffffffffffffffffffffffffffffffffffffff8203616f9357616f926168cc565b5b600182019050919050565b6000604082019050616fb36000830185614fae565b616fc06020830184614fae565b9392505050565b6000819050919050565b616fe2616fdd826150b5565b616fc7565b82525050565b6000616ff382615bdd565b616ffd81856167c1565b935061700d81856020860161547f565b80840191505092915050565b60006170258285616fd1565b6004820191506170358284616fe8565b91508190509392505050565b60006040820190506170566000830185614fef565b6170636020830184614fae565b9392505050565b617073816165ec565b811461707e57600080fd5b50565b6000815190506170908161706a565b92915050565b6000602082840312156170ac576170ab614f41565b5b60006170ba84828501617081565b91505092915050565b60006040820190506170d86000830185614fef565b6170e56020830184614fef565b9392505050565b7f476f7665726e6f7253657474696e67733a20766f74696e6720706572696f642060008201527f746f6f206c6f7700000000000000000000000000000000000000000000000000602082015250565b600061714860278361546e565b9150617153826170ec565b604082019050919050565b600060208201905081810360008301526171778161713b565b9050919050565b600081905092915050565b7f1901000000000000000000000000000000000000000000000000000000000000600082015250565b60006171bf60028361717e565b91506171ca82617189565b600282019050919050565b6000819050919050565b6171f06171eb8261534f565b6171d5565b82525050565b6000617201826171b2565b915061720d82856171df565b60208201915061721d82846171df565b6020820191508190509392505050565b600060808201905061724260008301876158ff565b61724f602083018661680a565b61725c60408301856158ff565b61726960608301846158ff565b95945050505050565b7f45434453413a20696e76616c6964207369676e61747572650000000000000000600082015250565b60006172a860188361546e565b91506172b382617272565b602082019050919050565b600060208201905081810360008301526172d78161729b565b9050919050565b7f45434453413a20696e76616c6964207369676e6174757265206c656e67746800600082015250565b6000617314601f8361546e565b915061731f826172de565b602082019050919050565b6000602082019050818103600083015261734381617307565b9050919050565b7f45434453413a20696e76616c6964207369676e6174757265202773272076616c60008201527f7565000000000000000000000000000000000000000000000000000000000000602082015250565b60006173a660228361546e565b91506173b18261734a565b604082019050919050565b600060208201905081810360008301526173d581617399565b9050919050565b7f476f7665726e6f72436f6d7061746962696c697479427261766f3a20766f746560008201527f20616c7265616479206361737400000000000000000000000000000000000000602082015250565b6000617438602d8361546e565b9150617443826173dc565b604082019050919050565b600060208201905081810360008301526174678161742b565b9050919050565b7f476f7665726e6f72436f6d7061746962696c697479427261766f3a20696e766160008201527f6c696420766f7465207479706500000000000000000000000000000000000000602082015250565b60006174ca602d8361546e565b91506174d58261746e565b604082019050919050565b600060208201905081810360008301526174f9816174bd565b9050919050565b7f53616665436173743a2076616c756520646f65736e27742066697420696e203660008201527f3420626974730000000000000000000000000000000000000000000000000000602082015250565b600061755c60268361546e565b915061756782617500565b604082019050919050565b6000602082019050818103600083015261758b8161754f565b9050919050565b7f476f7665726e6f723a20756e6b6e6f776e2070726f706f73616c206964000000600082015250565b60006175c8601d8361546e565b91506175d382617592565b602082019050919050565b600060208201905081810360008301526175f7816175bb565b9050919050565b7f476f7665726e6f723a2070726f706f73657220766f7465732062656c6f77207060008201527f726f706f73616c207468726573686f6c64000000000000000000000000000000602082015250565b600061765a60318361546e565b9150617665826175fe565b604082019050919050565b600060208201905081810360008301526176898161764d565b9050919050565b7f476f7665726e6f723a20696e76616c69642070726f706f73616c206c656e677460008201527f6800000000000000000000000000000000000000000000000000000000000000602082015250565b60006176ec60218361546e565b91506176f782617690565b604082019050919050565b6000602082019050818103600083015261771b816176df565b9050919050565b7f476f7665726e6f723a20656d7074792070726f706f73616c0000000000000000600082015250565b600061775860188361546e565b915061776382617722565b602082019050919050565b600060208201905081810360008301526177878161774b565b9050919050565b7f476f7665726e6f723a2070726f706f73616c20616c726561647920657869737460008201527f7300000000000000000000000000000000000000000000000000000000000000602082015250565b60006177ea60218361546e565b91506177f58261778e565b604082019050919050565b60006020820190508181036000830152617819816177dd565b9050919050565b600067ffffffffffffffff82169050919050565b600061783f82617820565b915061784a83617820565b9250828201905067ffffffffffffffff81111561786a576178696168cc565b5b92915050565b600061788b61788661788184617820565b616747565b614f4b565b9050919050565b61789b81617870565b82525050565b6000610120820190506178b7600083018c614fae565b6178c4602083018b614fef565b81810360408301526178d6818a615989565b905081810360608301526178ea8189615a47565b905081810360808301526178fe8188615b3c565b905081810360a08301526179128187615c53565b905061792160c0830186617892565b61792e60e0830185617892565b81810361010083015261794181846154a9565b90509a9950505050505050505050565b600060a08201905061796660008301886158ff565b61797360208301876158ff565b61798060408301866158ff565b61798d6060830185614fae565b61799a6080830184614fef565b9695505050505050565b7f53616665436173743a2076616c756520646f65736e27742066697420696e203960008201527f3620626974730000000000000000000000000000000000000000000000000000602082015250565b6000617a0060268361546e565b9150617a0b826179a4565b604082019050919050565b60006020820190508181036000830152617a2f816179f3565b9050919050565b7f476f7665726e6f7254696d656c6f636b436f6d706f756e643a2070726f706f7360008201527f616c206e6f742079657420717565756564000000000000000000000000000000602082015250565b6000617a9260318361546e565b9150617a9d82617a36565b604082019050919050565b60006020820190508181036000830152617ac181617a85565b9050919050565b6000617adb617ad68461529f565b615284565b905082815260208101848484011115617af757617af661520e565b5b617b0284828561547f565b509392505050565b600082601f830112617b1f57617b1e6151a9565b5b8151617b2f848260208601617ac8565b91505092915050565b600060208284031215617b4e57617b4d614f41565b5b600082015167ffffffffffffffff811115617b6c57617b6b614f46565b5b617b7884828501617b0a565b91505092915050565b7f476f7665726e6f723a2070726f706f73616c206e6f7420616374697665000000600082015250565b6000617bb7601d8361546e565b9150617bc282617b81565b602082019050919050565b60006020820190508181036000830152617be681617baa565b9050919050565b7f416464726573733a20696e73756666696369656e742062616c616e6365000000600082015250565b6000617c23601d8361546e565b9150617c2e82617bed565b602082019050919050565b60006020820190508181036000830152617c5281617c16565b9050919050565b6000617c666000836167c1565b9150617c7182616d7e565b600082019050919050565b6000617c8782617c59565b9150819050919050565b7f416464726573733a20756e61626c6520746f2073656e642076616c75652c207260008201527f6563697069656e74206d61792068617665207265766572746564000000000000602082015250565b6000617ced603a8361546e565b9150617cf882617c91565b604082019050919050565b60006020820190508181036000830152617d1c81617ce0565b9050919050565b60008190508160005260206000209050919050565b60006020601f8301049050919050565b600082821b905092915050565b600060088302617d857fffffffffffffffffffffffffffffffffffffffffffffffffffffffffffffffff82617d48565b617d8f8683617d48565b95508019841693508086168417925050509392505050565b6000617dc2617dbd617db884614f4b565b616747565b614f4b565b9050919050565b6000819050919050565b617ddc83617da7565b617df0617de882617dc9565b848454617d55565b825550505050565b600090565b617e05617df8565b617e10818484617dd3565b505050565b5b81811015617e3457617e29600082617dfd565b600181019050617e16565b5050565b601f821115617e7957617e4a81617d23565b617e5384617d38565b81016020851015617e62578190505b617e76617e6e85617d38565b830182617e15565b50505b505050565b600082821c905092915050565b6000617e9c60001984600802617e7e565b1980831691505092915050565b6000617eb58383617e8b565b9150826002028217905092915050565b617ece82615463565b67ffffffffffffffff811115617ee757617ee6615224565b5b617ef1825461689b565b617efc828285617e38565b600060209050601f831160018114617f2f5760008415617f1d578287015190505b617f278582617ea9565b865550617f8f565b601f198416617f3d86617d23565b60005b82811015617f6557848901518255600182019150602085019450602081019050617f40565b86831015617f825784890151617f7e601f891682617e8b565b8355505b6001600288020188555050505b505050505050565b60008190508160005260206000209050919050565b601f821115617fed57617fbe81617f97565b617fc784617d38565b81016020851015617fd6578190505b617fea617fe285617d38565b830182617e15565b50505b505050565b617ffb82615bdd565b67ffffffffffffffff81111561801457618013615224565b5b61801e825461689b565b618029828285617fac565b600060209050601f83116001811461805c576000841561804a578287015190505b6180548582617ea9565b8655506180bc565b601f19841661806a86617f97565b60005b828110156180925784890151825560018201915060208501945060208101905061806d565b868310156180af57848901516180ab601f891682617e8b565b8355505b6001600288020188555050505b50505050505056fe476f7665726e6f723a2072656c617920726576657274656420776974686f7574206d657373616765a26469706673582212201666dd21783fd3f262188386ff46bfca6e0b4a6b8ff00cb70c7d11883536526664736f6c63430008110033",
  "linkReferences": {},
  "deployedLinkReferences": {}
}