{
  "_format": "hh-sol-artifact-1",
  "contractName": "ERC20VotesCompMock",
  "sourceName": "contracts/mocks/ERC20VotesCompMock.sol",
  "abi": [
    {
      "inputs": [
        {
          "internalType": "string",
          "name": "name",
          "type": "string"
        },
        {
          "internalType": "string",
          "name": "symbol",
          "type": "string"
        }
      ],
      "stateMutability": "nonpayable",
      "type": "constructor"
    },
    {
      "anonymous": false,
      "inputs": [
        {
          "indexed": true,
          "internalType": "address",
          "name": "owner",
          "type": "address"
        },
        {
          "indexed": true,
          "internalType": "address",
          "name": "spender",
          "type": "address"
        },
        {
          "indexed": false,
          "internalType": "uint256",
          "name": "value",
          "type": "uint256"
        }
      ],
      "name": "Approval",
      "type": "event"
    },
    {
      "anonymous": false,
      "inputs": [
        {
          "indexed": true,
          "internalType": "address",
          "name": "delegator",
          "type": "address"
        },
        {
          "indexed": true,
          "internalType": "address",
          "name": "fromDelegate",
          "type": "address"
        },
        {
          "indexed": true,
          "internalType": "address",
          "name": "toDelegate",
          "type": "address"
        }
      ],
      "name": "DelegateChanged",
      "type": "event"
    },
    {
      "anonymous": false,
      "inputs": [
        {
          "indexed": true,
          "internalType": "address",
          "name": "delegate",
          "type": "address"
        },
        {
          "indexed": false,
          "internalType": "uint256",
          "name": "previousBalance",
          "type": "uint256"
        },
        {
          "indexed": false,
          "internalType": "uint256",
          "name": "newBalance",
          "type": "uint256"
        }
      ],
      "name": "DelegateVotesChanged",
      "type": "event"
    },
    {
      "anonymous": false,
      "inputs": [
        {
          "indexed": true,
          "internalType": "address",
          "name": "from",
          "type": "address"
        },
        {
          "indexed": true,
          "internalType": "address",
          "name": "to",
          "type": "address"
        },
        {
          "indexed": false,
          "internalType": "uint256",
          "name": "value",
          "type": "uint256"
        }
      ],
      "name": "Transfer",
      "type": "event"
    },
    {
      "inputs": [],
      "name": "DOMAIN_SEPARATOR",
      "outputs": [
        {
          "internalType": "bytes32",
          "name": "",
          "type": "bytes32"
        }
      ],
      "stateMutability": "view",
      "type": "function"
    },
    {
      "inputs": [
        {
          "internalType": "address",
          "name": "owner",
          "type": "address"
        },
        {
          "internalType": "address",
          "name": "spender",
          "type": "address"
        }
      ],
      "name": "allowance",
      "outputs": [
        {
          "internalType": "uint256",
          "name": "",
          "type": "uint256"
        }
      ],
      "stateMutability": "view",
      "type": "function"
    },
    {
      "inputs": [
        {
          "internalType": "address",
          "name": "spender",
          "type": "address"
        },
        {
          "internalType": "uint256",
          "name": "amount",
          "type": "uint256"
        }
      ],
      "name": "approve",
      "outputs": [
        {
          "internalType": "bool",
          "name": "",
          "type": "bool"
        }
      ],
      "stateMutability": "nonpayable",
      "type": "function"
    },
    {
      "inputs": [
        {
          "internalType": "address",
          "name": "account",
          "type": "address"
        }
      ],
      "name": "balanceOf",
      "outputs": [
        {
          "internalType": "uint256",
          "name": "",
          "type": "uint256"
        }
      ],
      "stateMutability": "view",
      "type": "function"
    },
    {
      "inputs": [
        {
          "internalType": "address",
          "name": "account",
          "type": "address"
        },
        {
          "internalType": "uint256",
          "name": "amount",
          "type": "uint256"
        }
      ],
      "name": "burn",
      "outputs": [],
      "stateMutability": "nonpayable",
      "type": "function"
    },
    {
      "inputs": [
        {
          "internalType": "address",
          "name": "account",
          "type": "address"
        },
        {
          "internalType": "uint32",
          "name": "pos",
          "type": "uint32"
        }
      ],
      "name": "checkpoints",
      "outputs": [
        {
          "components": [
            {
              "internalType": "uint32",
              "name": "fromBlock",
              "type": "uint32"
            },
            {
              "internalType": "uint224",
              "name": "votes",
              "type": "uint224"
            }
          ],
          "internalType": "struct ERC20Votes.Checkpoint",
          "name": "",
          "type": "tuple"
        }
      ],
      "stateMutability": "view",
      "type": "function"
    },
    {
      "inputs": [],
      "name": "decimals",
      "outputs": [
        {
          "internalType": "uint8",
          "name": "",
          "type": "uint8"
        }
      ],
      "stateMutability": "view",
      "type": "function"
    },
    {
      "inputs": [
        {
          "internalType": "address",
          "name": "spender",
          "type": "address"
        },
        {
          "internalType": "uint256",
          "name": "subtractedValue",
          "type": "uint256"
        }
      ],
      "name": "decreaseAllowance",
      "outputs": [
        {
          "internalType": "bool",
          "name": "",
          "type": "bool"
        }
      ],
      "stateMutability": "nonpayable",
      "type": "function"
    },
    {
      "inputs": [
        {
          "internalType": "address",
          "name": "delegatee",
          "type": "address"
        }
      ],
      "name": "delegate",
      "outputs": [],
      "stateMutability": "nonpayable",
      "type": "function"
    },
    {
      "inputs": [
        {
          "internalType": "address",
          "name": "delegatee",
          "type": "address"
        },
        {
          "internalType": "uint256",
          "name": "nonce",
          "type": "uint256"
        },
        {
          "internalType": "uint256",
          "name": "expiry",
          "type": "uint256"
        },
        {
          "internalType": "uint8",
          "name": "v",
          "type": "uint8"
        },
        {
          "internalType": "bytes32",
          "name": "r",
          "type": "bytes32"
        },
        {
          "internalType": "bytes32",
          "name": "s",
          "type": "bytes32"
        }
      ],
      "name": "delegateBySig",
      "outputs": [],
      "stateMutability": "nonpayable",
      "type": "function"
    },
    {
      "inputs": [
        {
          "internalType": "address",
          "name": "account",
          "type": "address"
        }
      ],
      "name": "delegates",
      "outputs": [
        {
          "internalType": "address",
          "name": "",
          "type": "address"
        }
      ],
      "stateMutability": "view",
      "type": "function"
    },
    {
      "inputs": [],
      "name": "getChainId",
      "outputs": [
        {
          "internalType": "uint256",
          "name": "",
          "type": "uint256"
        }
      ],
      "stateMutability": "view",
      "type": "function"
    },
    {
      "inputs": [
        {
          "internalType": "address",
          "name": "account",
          "type": "address"
        }
      ],
      "name": "getCurrentVotes",
      "outputs": [
        {
          "internalType": "uint96",
          "name": "",
          "type": "uint96"
        }
      ],
      "stateMutability": "view",
      "type": "function"
    },
    {
      "inputs": [
        {
          "internalType": "uint256",
          "name": "blockNumber",
          "type": "uint256"
        }
      ],
      "name": "getPastTotalSupply",
      "outputs": [
        {
          "internalType": "uint256",
          "name": "",
          "type": "uint256"
        }
      ],
      "stateMutability": "view",
      "type": "function"
    },
    {
      "inputs": [
        {
          "internalType": "address",
          "name": "account",
          "type": "address"
        },
        {
          "internalType": "uint256",
          "name": "blockNumber",
          "type": "uint256"
        }
      ],
      "name": "getPastVotes",
      "outputs": [
        {
          "internalType": "uint256",
          "name": "",
          "type": "uint256"
        }
      ],
      "stateMutability": "view",
      "type": "function"
    },
    {
      "inputs": [
        {
          "internalType": "address",
          "name": "account",
          "type": "address"
        },
        {
          "internalType": "uint256",
          "name": "blockNumber",
          "type": "uint256"
        }
      ],
      "name": "getPriorVotes",
      "outputs": [
        {
          "internalType": "uint96",
          "name": "",
          "type": "uint96"
        }
      ],
      "stateMutability": "view",
      "type": "function"
    },
    {
      "inputs": [
        {
          "internalType": "address",
          "name": "account",
          "type": "address"
        }
      ],
      "name": "getVotes",
      "outputs": [
        {
          "internalType": "uint256",
          "name": "",
          "type": "uint256"
        }
      ],
      "stateMutability": "view",
      "type": "function"
    },
    {
      "inputs": [
        {
          "internalType": "address",
          "name": "spender",
          "type": "address"
        },
        {
          "internalType": "uint256",
          "name": "addedValue",
          "type": "uint256"
        }
      ],
      "name": "increaseAllowance",
      "outputs": [
        {
          "internalType": "bool",
          "name": "",
          "type": "bool"
        }
      ],
      "stateMutability": "nonpayable",
      "type": "function"
    },
    {
      "inputs": [
        {
          "internalType": "address",
          "name": "account",
          "type": "address"
        },
        {
          "internalType": "uint256",
          "name": "amount",
          "type": "uint256"
        }
      ],
      "name": "mint",
      "outputs": [],
      "stateMutability": "nonpayable",
      "type": "function"
    },
    {
      "inputs": [],
      "name": "name",
      "outputs": [
        {
          "internalType": "string",
          "name": "",
          "type": "string"
        }
      ],
      "stateMutability": "view",
      "type": "function"
    },
    {
      "inputs": [
        {
          "internalType": "address",
          "name": "owner",
          "type": "address"
        }
      ],
      "name": "nonces",
      "outputs": [
        {
          "internalType": "uint256",
          "name": "",
          "type": "uint256"
        }
      ],
      "stateMutability": "view",
      "type": "function"
    },
    {
      "inputs": [
        {
          "internalType": "address",
          "name": "account",
          "type": "address"
        }
      ],
      "name": "numCheckpoints",
      "outputs": [
        {
          "internalType": "uint32",
          "name": "",
          "type": "uint32"
        }
      ],
      "stateMutability": "view",
      "type": "function"
    },
    {
      "inputs": [
        {
          "internalType": "address",
          "name": "owner",
          "type": "address"
        },
        {
          "internalType": "address",
          "name": "spender",
          "type": "address"
        },
        {
          "internalType": "uint256",
          "name": "value",
          "type": "uint256"
        },
        {
          "internalType": "uint256",
          "name": "deadline",
          "type": "uint256"
        },
        {
          "internalType": "uint8",
          "name": "v",
          "type": "uint8"
        },
        {
          "internalType": "bytes32",
          "name": "r",
          "type": "bytes32"
        },
        {
          "internalType": "bytes32",
          "name": "s",
          "type": "bytes32"
        }
      ],
      "name": "permit",
      "outputs": [],
      "stateMutability": "nonpayable",
      "type": "function"
    },
    {
      "inputs": [],
      "name": "symbol",
      "outputs": [
        {
          "internalType": "string",
          "name": "",
          "type": "string"
        }
      ],
      "stateMutability": "view",
      "type": "function"
    },
    {
      "inputs": [],
      "name": "totalSupply",
      "outputs": [
        {
          "internalType": "uint256",
          "name": "",
          "type": "uint256"
        }
      ],
      "stateMutability": "view",
      "type": "function"
    },
    {
      "inputs": [
        {
          "internalType": "address",
          "name": "to",
          "type": "address"
        },
        {
          "internalType": "uint256",
          "name": "amount",
          "type": "uint256"
        }
      ],
      "name": "transfer",
      "outputs": [
        {
          "internalType": "bool",
          "name": "",
          "type": "bool"
        }
      ],
      "stateMutability": "nonpayable",
      "type": "function"
    },
    {
      "inputs": [
        {
          "internalType": "address",
          "name": "from",
          "type": "address"
        },
        {
          "internalType": "address",
          "name": "to",
          "type": "address"
        },
        {
          "internalType": "uint256",
          "name": "amount",
          "type": "uint256"
        }
      ],
      "name": "transferFrom",
      "outputs": [
        {
          "internalType": "bool",
          "name": "",
          "type": "bool"
        }
      ],
      "stateMutability": "nonpayable",
      "type": "function"
    }
  ],
  "bytecode": "0x6101406040523480156200001257600080fd5b50604051620045f2380380620045f2833981810160405281019062000038919062000322565b81806040518060400160405280600181526020017f310000000000000000000000000000000000000000000000000000000000000081525084848160039081620000839190620005f2565b508060049081620000959190620005f2565b50505060008280519060200120905060008280519060200120905060007f8b73c3c69bb8fe3d512ecc4cf759cc79239f7b179b0ffacaa9a75d522b39400f90508260e081815250508161010081815250504660a08181525050620001018184846200015360201b60201c565b608081815250503073ffffffffffffffffffffffffffffffffffffffff1660c08173ffffffffffffffffffffffffffffffffffffffff16815250508061012081815250505050505050505050620007a7565b60008383834630604051602001620001709594939291906200074a565b6040516020818303038152906040528051906020012090509392505050565b6000604051905090565b600080fd5b600080fd5b600080fd5b600080fd5b6000601f19601f8301169050919050565b7f4e487b7100000000000000000000000000000000000000000000000000000000600052604160045260246000fd5b620001f882620001ad565b810181811067ffffffffffffffff821117156200021a5762000219620001be565b5b80604052505050565b60006200022f6200018f565b90506200023d8282620001ed565b919050565b600067ffffffffffffffff82111562000260576200025f620001be565b5b6200026b82620001ad565b9050602081019050919050565b60005b83811015620002985780820151818401526020810190506200027b565b60008484015250505050565b6000620002bb620002b58462000242565b62000223565b905082815260208101848484011115620002da57620002d9620001a8565b5b620002e784828562000278565b509392505050565b600082601f830112620003075762000306620001a3565b5b815162000319848260208601620002a4565b91505092915050565b600080604083850312156200033c576200033b62000199565b5b600083015167ffffffffffffffff8111156200035d576200035c6200019e565b5b6200036b85828601620002ef565b925050602083015167ffffffffffffffff8111156200038f576200038e6200019e565b5b6200039d85828601620002ef565b9150509250929050565b600081519050919050565b7f4e487b7100000000000000000000000000000000000000000000000000000000600052602260045260246000fd5b60006002820490506001821680620003fa57607f821691505b60208210810362000410576200040f620003b2565b5b50919050565b60008190508160005260206000209050919050565b60006020601f8301049050919050565b600082821b905092915050565b6000600883026200047a7fffffffffffffffffffffffffffffffffffffffffffffffffffffffffffffffff826200043b565b6200048686836200043b565b95508019841693508086168417925050509392505050565b6000819050919050565b6000819050919050565b6000620004d3620004cd620004c7846200049e565b620004a8565b6200049e565b9050919050565b6000819050919050565b620004ef83620004b2565b62000507620004fe82620004da565b84845462000448565b825550505050565b600090565b6200051e6200050f565b6200052b818484620004e4565b505050565b5b8181101562000553576200054760008262000514565b60018101905062000531565b5050565b601f821115620005a2576200056c8162000416565b62000577846200042b565b8101602085101562000587578190505b6200059f62000596856200042b565b83018262000530565b50505b505050565b600082821c905092915050565b6000620005c760001984600802620005a7565b1980831691505092915050565b6000620005e28383620005b4565b9150826002028217905092915050565b620005fd82620003a7565b67ffffffffffffffff811115620006195762000618620001be565b5b620006258254620003e1565b6200063282828562000557565b600060209050601f8311600181146200066a576000841562000655578287015190505b620006618582620005d4565b865550620006d1565b601f1984166200067a8662000416565b60005b82811015620006a4578489015182556001820191506020850194506020810190506200067d565b86831015620006c45784890151620006c0601f891682620005b4565b8355505b6001600288020188555050505b505050505050565b6000819050919050565b620006ee81620006d9565b82525050565b620006ff816200049e565b82525050565b600073ffffffffffffffffffffffffffffffffffffffff82169050919050565b6000620007328262000705565b9050919050565b620007448162000725565b82525050565b600060a082019050620007616000830188620006e3565b620007706020830187620006e3565b6200077f6040830186620006e3565b6200078e6060830185620006f4565b6200079d608083018462000739565b9695505050505050565b60805160a05160c05160e0516101005161012051613dfb620007f76000396000611573015260006115b501526000611594015260006114c90152600061151f015260006115480152613dfb6000f3fe608060405234801561001057600080fd5b50600436106101a95760003560e01c806370a08231116100f9578063a457c2d711610097578063c3cda52011610071578063c3cda52014610556578063d505accf14610572578063dd62ed3e1461058e578063f1127ed8146105be576101a9565b8063a457c2d7146104c6578063a9059cbb146104f6578063b4b5ea5714610526576101a9565b80638e539e8c116100d35780638e539e8c1461042c57806395d89b411461045c5780639ab24eb01461047a5780639dc29fac146104aa576101a9565b806370a082311461039c578063782d6fe1146103cc5780637ecebe00146103fc576101a9565b80633644e5151161016657806340c10f191161014057806340c10f1914610304578063587cde1e146103205780635c19a95c146103505780636fcfff451461036c576101a9565b80633644e5151461028657806339509351146102a45780633a46b1a8146102d4576101a9565b806306fdde03146101ae578063095ea7b3146101cc57806318160ddd146101fc57806323b872dd1461021a578063313ce5671461024a5780633408e47014610268575b600080fd5b6101b66105ee565b6040516101c391906128e8565b60405180910390f35b6101e660048036038101906101e191906129a3565b610680565b6040516101f391906129fe565b60405180910390f35b6102046106a3565b6040516102119190612a28565b60405180910390f35b610234600480360381019061022f9190612a43565b6106ad565b60405161024191906129fe565b60405180910390f35b6102526106dc565b60405161025f9190612ab2565b60405180910390f35b6102706106e5565b60405161027d9190612a28565b60405180910390f35b61028e6106ed565b60405161029b9190612ae6565b60405180910390f35b6102be60048036038101906102b991906129a3565b6106fc565b6040516102cb91906129fe565b60405180910390f35b6102ee60048036038101906102e991906129a3565b610733565b6040516102fb9190612a28565b60405180910390f35b61031e600480360381019061031991906129a3565b6107c7565b005b61033a60048036038101906103359190612b01565b6107d5565b6040516103479190612b3d565b60405180910390f35b61036a60048036038101906103659190612b01565b61083e565b005b61038660048036038101906103819190612b01565b610852565b6040516103939190612b77565b60405180910390f35b6103b660048036038101906103b19190612b01565b6108a6565b6040516103c39190612a28565b60405180910390f35b6103e660048036038101906103e191906129a3565b6108ee565b6040516103f39190612bb9565b60405180910390f35b61041660048036038101906104119190612b01565b61090a565b6040516104239190612a28565b60405180910390f35b61044660048036038101906104419190612bd4565b61095a565b6040516104539190612a28565b60405180910390f35b6104646109b0565b60405161047191906128e8565b60405180910390f35b610494600480360381019061048f9190612b01565b610a42565b6040516104a19190612a28565b60405180910390f35b6104c460048036038101906104bf91906129a3565b610b53565b005b6104e060048036038101906104db91906129a3565b610b61565b6040516104ed91906129fe565b60405180910390f35b610510600480360381019061050b91906129a3565b610bd8565b60405161051d91906129fe565b60405180910390f35b610540600480360381019061053b9190612b01565b610bfb565b60405161054d9190612bb9565b60405180910390f35b610570600480360381019061056b9190612c59565b610c15565b005b61058c60048036038101906105879190612ce6565b610d19565b005b6105a860048036038101906105a39190612d88565b610e5b565b6040516105b59190612a28565b60405180910390f35b6105d860048036038101906105d39190612df4565b610ee2565b6040516105e59190612ea9565b60405180910390f35b6060600380546105fd90612ef3565b80601f016020809104026020016040519081016040528092919081815260200182805461062990612ef3565b80156106765780601f1061064b57610100808354040283529160200191610676565b820191906000526020600020905b81548152906001019060200180831161065957829003601f168201915b5050505050905090565b60008061068b610ff2565b9050610698818585610ffa565b600191505092915050565b6000600254905090565b6000806106b8610ff2565b90506106c58582856111c3565b6106d085858561124f565b60019150509392505050565b60006012905090565b600046905090565b60006106f76114c5565b905090565b600080610707610ff2565b90506107288185856107198589610e5b565b6107239190612f53565b610ffa565b600191505092915050565b6000438210610777576040517f08c379a000000000000000000000000000000000000000000000000000000000815260040161076e90612fd3565b60405180910390fd5b6107bf600860008573ffffffffffffffffffffffffffffffffffffffff1673ffffffffffffffffffffffffffffffffffffffff168152602001908152602001600020836115df565b905092915050565b6107d18282611730565b5050565b6000600760008373ffffffffffffffffffffffffffffffffffffffff1673ffffffffffffffffffffffffffffffffffffffff16815260200190815260200160002060009054906101000a900473ffffffffffffffffffffffffffffffffffffffff169050919050565b61084f610849610ff2565b826117bd565b50565b600061089f600860008473ffffffffffffffffffffffffffffffffffffffff1673ffffffffffffffffffffffffffffffffffffffff168152602001908152602001600020805490506118d7565b9050919050565b60008060008373ffffffffffffffffffffffffffffffffffffffff1673ffffffffffffffffffffffffffffffffffffffff168152602001908152602001600020549050919050565b60006109026108fd8484610733565b61192a565b905092915050565b6000610953600560008473ffffffffffffffffffffffffffffffffffffffff1673ffffffffffffffffffffffffffffffffffffffff168152602001908152602001600020611985565b9050919050565b600043821061099e576040517f08c379a000000000000000000000000000000000000000000000000000000000815260040161099590612fd3565b60405180910390fd5b6109a96009836115df565b9050919050565b6060600480546109bf90612ef3565b80601f01602080910402602001604051908101604052809291908181526020018280546109eb90612ef3565b8015610a385780601f10610a0d57610100808354040283529160200191610a38565b820191906000526020600020905b815481529060010190602001808311610a1b57829003601f168201915b5050505050905090565b600080600860008473ffffffffffffffffffffffffffffffffffffffff1673ffffffffffffffffffffffffffffffffffffffff16815260200190815260200160002080549050905060008114610b2a57600860008473ffffffffffffffffffffffffffffffffffffffff1673ffffffffffffffffffffffffffffffffffffffff168152602001908152602001600020600182610ade9190612ff3565b81548110610aef57610aee613027565b5b9060005260206000200160000160049054906101000a90047bffffffffffffffffffffffffffffffffffffffffffffffffffffffff16610b2d565b60005b7bffffffffffffffffffffffffffffffffffffffffffffffffffffffff16915050919050565b610b5d8282611993565b5050565b600080610b6c610ff2565b90506000610b7a8286610e5b565b905083811015610bbf576040517f08c379a0000000000000000000000000000000000000000000000000000000008152600401610bb6906130c8565b60405180910390fd5b610bcc8286868403610ffa565b60019250505092915050565b600080610be3610ff2565b9050610bf081858561124f565b600191505092915050565b6000610c0e610c0983610a42565b61192a565b9050919050565b83421115610c58576040517f08c379a0000000000000000000000000000000000000000000000000000000008152600401610c4f90613134565b60405180910390fd5b6000610cba610cb27fe48329057bfd03d55e49b547132e39cffd9c1820ad7b9d4c5307691425d15adf898989604051602001610c979493929190613154565b604051602081830303815290604052805190602001206119b1565b8585856119cb565b9050610cc5816119f6565b8614610d06576040517f08c379a0000000000000000000000000000000000000000000000000000000008152600401610cfd906131e5565b60405180910390fd5b610d1081886117bd565b50505050505050565b83421115610d5c576040517f08c379a0000000000000000000000000000000000000000000000000000000008152600401610d5390613251565b60405180910390fd5b60007f6e71edae12b1b97f4d1f60370fef10105fa2faae0126114a169c64845d6126c9888888610d8b8c6119f6565b89604051602001610da196959493929190613271565b6040516020818303038152906040528051906020012090506000610dc4826119b1565b90506000610dd4828787876119cb565b90508973ffffffffffffffffffffffffffffffffffffffff168173ffffffffffffffffffffffffffffffffffffffff1614610e44576040517f08c379a0000000000000000000000000000000000000000000000000000000008152600401610e3b9061331e565b60405180910390fd5b610e4f8a8a8a610ffa565b50505050505050505050565b6000600160008473ffffffffffffffffffffffffffffffffffffffff1673ffffffffffffffffffffffffffffffffffffffff16815260200190815260200160002060008373ffffffffffffffffffffffffffffffffffffffff1673ffffffffffffffffffffffffffffffffffffffff16815260200190815260200160002054905092915050565b610eea61281a565b600860008473ffffffffffffffffffffffffffffffffffffffff1673ffffffffffffffffffffffffffffffffffffffff1681526020019081526020016000208263ffffffff1681548110610f4157610f40613027565b5b906000526020600020016040518060400160405290816000820160009054906101000a900463ffffffff1663ffffffff1663ffffffff1681526020016000820160049054906101000a90047bffffffffffffffffffffffffffffffffffffffffffffffffffffffff167bffffffffffffffffffffffffffffffffffffffffffffffffffffffff167bffffffffffffffffffffffffffffffffffffffffffffffffffffffff1681525050905092915050565b600033905090565b600073ffffffffffffffffffffffffffffffffffffffff168373ffffffffffffffffffffffffffffffffffffffff1603611069576040517f08c379a0000000000000000000000000000000000000000000000000000000008152600401611060906133b0565b60405180910390fd5b600073ffffffffffffffffffffffffffffffffffffffff168273ffffffffffffffffffffffffffffffffffffffff16036110d8576040517f08c379a00000000000000000000000000000000000000000000000000000000081526004016110cf90613442565b60405180910390fd5b80600160008573ffffffffffffffffffffffffffffffffffffffff1673ffffffffffffffffffffffffffffffffffffffff16815260200190815260200160002060008473ffffffffffffffffffffffffffffffffffffffff1673ffffffffffffffffffffffffffffffffffffffff168152602001908152602001600020819055508173ffffffffffffffffffffffffffffffffffffffff168373ffffffffffffffffffffffffffffffffffffffff167f8c5be1e5ebec7d5bd14f71427d1e84f3dd0314c0f7b2291e5b200ac8c7c3b925836040516111b69190612a28565b60405180910390a3505050565b60006111cf8484610e5b565b90507fffffffffffffffffffffffffffffffffffffffffffffffffffffffffffffffff8114611249578181101561123b576040517f08c379a0000000000000000000000000000000000000000000000000000000008152600401611232906134ae565b60405180910390fd5b6112488484848403610ffa565b5b50505050565b600073ffffffffffffffffffffffffffffffffffffffff168373ffffffffffffffffffffffffffffffffffffffff16036112be576040517f08c379a00000000000000000000000000000000000000000000000000000000081526004016112b590613540565b60405180910390fd5b600073ffffffffffffffffffffffffffffffffffffffff168273ffffffffffffffffffffffffffffffffffffffff160361132d576040517f08c379a0000000000000000000000000000000000000000000000000000000008152600401611324906135d2565b60405180910390fd5b611338838383611a54565b60008060008573ffffffffffffffffffffffffffffffffffffffff1673ffffffffffffffffffffffffffffffffffffffff168152602001908152602001600020549050818110156113be576040517f08c379a00000000000000000000000000000000000000000000000000000000081526004016113b590613664565b60405180910390fd5b8181036000808673ffffffffffffffffffffffffffffffffffffffff1673ffffffffffffffffffffffffffffffffffffffff16815260200190815260200160002081905550816000808573ffffffffffffffffffffffffffffffffffffffff1673ffffffffffffffffffffffffffffffffffffffff168152602001908152602001600020600082825401925050819055508273ffffffffffffffffffffffffffffffffffffffff168473ffffffffffffffffffffffffffffffffffffffff167fddf252ad1be2c89b69c2b068fc378daa952ba7f163c4a11628f55a4df523b3ef846040516114ac9190612a28565b60405180910390a36114bf848484611a59565b50505050565b60007f000000000000000000000000000000000000000000000000000000000000000073ffffffffffffffffffffffffffffffffffffffff163073ffffffffffffffffffffffffffffffffffffffff1614801561154157507f000000000000000000000000000000000000000000000000000000000000000046145b1561156e577f000000000000000000000000000000000000000000000000000000000000000090506115dc565b6115d97f00000000000000000000000000000000000000000000000000000000000000007f00000000000000000000000000000000000000000000000000000000000000007f0000000000000000000000000000000000000000000000000000000000000000611a84565b90505b90565b60008083805490509050600080829050600583111561165557600061160384611abe565b8461160e9190612ff3565b90508561161b8883611bb7565b60000160009054906101000a900463ffffffff1663ffffffff16111561164357809150611653565b6001816116509190612f53565b92505b505b5b808210156116b557600061166a8383611bcc565b9050856116778883611bb7565b60000160009054906101000a900463ffffffff1663ffffffff16111561169f578091506116af565b6001816116ac9190612f53565b92505b50611656565b60008114611704576116d3866001836116ce9190612ff3565b611bb7565b60000160049054906101000a90047bffffffffffffffffffffffffffffffffffffffffffffffffffffffff16611707565b60005b7bffffffffffffffffffffffffffffffffffffffffffffffffffffffff16935050505092915050565b61173a8282611bf2565b611742611d48565b7bffffffffffffffffffffffffffffffffffffffffffffffffffffffff166117686106a3565b11156117a9576040517f08c379a00000000000000000000000000000000000000000000000000000000081526004016117a0906136f6565b60405180910390fd5b6117b76009611d5e83611d74565b50505050565b60006117c8836107d5565b905060006117d5846108a6565b905082600760008673ffffffffffffffffffffffffffffffffffffffff1673ffffffffffffffffffffffffffffffffffffffff16815260200190815260200160002060006101000a81548173ffffffffffffffffffffffffffffffffffffffff021916908373ffffffffffffffffffffffffffffffffffffffff1602179055508273ffffffffffffffffffffffffffffffffffffffff168273ffffffffffffffffffffffffffffffffffffffff168573ffffffffffffffffffffffffffffffffffffffff167f3134e8a2e6d97e929a7e54011ea5485d7d196dd5f0ba4d4ef95803e8e3fc257f60405160405180910390a46118d1828483612043565b50505050565b600063ffffffff8016821115611922576040517f08c379a000000000000000000000000000000000000000000000000000000000815260040161191990613788565b60405180910390fd5b819050919050565b60006bffffffffffffffffffffffff801682111561197d576040517f08c379a00000000000000000000000000000000000000000000000000000000081526004016119749061381a565b60405180910390fd5b819050919050565b600081600001549050919050565b61199d828261223c565b6119ab600961240983611d74565b50505050565b60006119c46119be6114c5565b8361241f565b9050919050565b60008060006119dc87878787612452565b915091506119e981612534565b8192505050949350505050565b600080600560008473ffffffffffffffffffffffffffffffffffffffff1673ffffffffffffffffffffffffffffffffffffffff1681526020019081526020016000209050611a4381611985565b9150611a4e8161269a565b50919050565b505050565b611a648383836126b0565b611a7f611a70846107d5565b611a79846107d5565b83612043565b505050565b60008383834630604051602001611a9f95949392919061383a565b6040516020818303038152906040528051906020012090509392505050565b6000808203611ad05760009050611bb2565b60006001611add846126b5565b901c6001901b90506001818481611af757611af661388d565b5b048201901c90506001818481611b1057611b0f61388d565b5b048201901c90506001818481611b2957611b2861388d565b5b048201901c90506001818481611b4257611b4161388d565b5b048201901c90506001818481611b5b57611b5a61388d565b5b048201901c90506001818481611b7457611b7361388d565b5b048201901c90506001818481611b8d57611b8c61388d565b5b048201901c9050611bae81828581611ba857611ba761388d565b5b04612796565b9150505b919050565b60008260005281602060002001905092915050565b60006002828418611bdd91906138bc565b828416611bea9190612f53565b905092915050565b600073ffffffffffffffffffffffffffffffffffffffff168273ffffffffffffffffffffffffffffffffffffffff1603611c61576040517f08c379a0000000000000000000000000000000000000000000000000000000008152600401611c5890613939565b60405180910390fd5b611c6d60008383611a54565b8060026000828254611c7f9190612f53565b92505081905550806000808473ffffffffffffffffffffffffffffffffffffffff1673ffffffffffffffffffffffffffffffffffffffff168152602001908152602001600020600082825401925050819055508173ffffffffffffffffffffffffffffffffffffffff16600073ffffffffffffffffffffffffffffffffffffffff167fddf252ad1be2c89b69c2b068fc378daa952ba7f163c4a11628f55a4df523b3ef83604051611d309190612a28565b60405180910390a3611d4460008383611a59565b5050565b60006bffffffffffffffffffffffff8016905090565b60008183611d6c9190612f53565b905092915050565b6000806000858054905090506000808214611e4357611d9f87600184611d9a9190612ff3565b611bb7565b6040518060400160405290816000820160009054906101000a900463ffffffff1663ffffffff1663ffffffff1681526020016000820160049054906101000a90047bffffffffffffffffffffffffffffffffffffffffffffffffffffffff167bffffffffffffffffffffffffffffffffffffffffffffffffffffffff167bffffffffffffffffffffffffffffffffffffffffffffffffffffffff1681525050611e7f565b6040518060400160405280600063ffffffff16815260200160007bffffffffffffffffffffffffffffffffffffffffffffffffffffffff168152505b905080602001517bffffffffffffffffffffffffffffffffffffffffffffffffffffffff169350611eb484868863ffffffff16565b9250600082118015611ecf575043816000015163ffffffff16145b15611f4957611edd836127af565b611ef388600185611eee9190612ff3565b611bb7565b60000160046101000a8154817bffffffffffffffffffffffffffffffffffffffffffffffffffffffff02191690837bffffffffffffffffffffffffffffffffffffffffffffffffffffffff160217905550612039565b866040518060400160405280611f5e436118d7565b63ffffffff168152602001611f72866127af565b7bffffffffffffffffffffffffffffffffffffffffffffffffffffffff168152509080600181540180825580915050600190039060005260206000200160009091909190915060008201518160000160006101000a81548163ffffffff021916908363ffffffff16021790555060208201518160000160046101000a8154817bffffffffffffffffffffffffffffffffffffffffffffffffffffffff02191690837bffffffffffffffffffffffffffffffffffffffffffffffffffffffff16021790555050505b5050935093915050565b8173ffffffffffffffffffffffffffffffffffffffff168373ffffffffffffffffffffffffffffffffffffffff161415801561207f5750600081115b1561223757600073ffffffffffffffffffffffffffffffffffffffff168373ffffffffffffffffffffffffffffffffffffffff161461215d57600080612106600860008773ffffffffffffffffffffffffffffffffffffffff1673ffffffffffffffffffffffffffffffffffffffff16815260200190815260200160002061240985611d74565b915091508473ffffffffffffffffffffffffffffffffffffffff167fdec2bacdd2f05b59de34da9b523dff8be42e5e38e818c82fdb0bae774387a7248383604051612152929190613959565b60405180910390a250505b600073ffffffffffffffffffffffffffffffffffffffff168273ffffffffffffffffffffffffffffffffffffffff1614612236576000806121df600860008673ffffffffffffffffffffffffffffffffffffffff1673ffffffffffffffffffffffffffffffffffffffff168152602001908152602001600020611d5e85611d74565b915091508373ffffffffffffffffffffffffffffffffffffffff167fdec2bacdd2f05b59de34da9b523dff8be42e5e38e818c82fdb0bae774387a724838360405161222b929190613959565b60405180910390a250505b5b505050565b600073ffffffffffffffffffffffffffffffffffffffff168273ffffffffffffffffffffffffffffffffffffffff16036122ab576040517f08c379a00000000000000000000000000000000000000000000000000000000081526004016122a2906139f4565b60405180910390fd5b6122b782600083611a54565b60008060008473ffffffffffffffffffffffffffffffffffffffff1673ffffffffffffffffffffffffffffffffffffffff1681526020019081526020016000205490508181101561233d576040517f08c379a000000000000000000000000000000000000000000000000000000000815260040161233490613a86565b60405180910390fd5b8181036000808573ffffffffffffffffffffffffffffffffffffffff1673ffffffffffffffffffffffffffffffffffffffff1681526020019081526020016000208190555081600260008282540392505081905550600073ffffffffffffffffffffffffffffffffffffffff168373ffffffffffffffffffffffffffffffffffffffff167fddf252ad1be2c89b69c2b068fc378daa952ba7f163c4a11628f55a4df523b3ef846040516123f09190612a28565b60405180910390a361240483600084611a59565b505050565b600081836124179190612ff3565b905092915050565b60008282604051602001612434929190613b1e565b60405160208183030381529060405280519060200120905092915050565b6000807f7fffffffffffffffffffffffffffffff5d576e7357a4501ddfe92f46681b20a08360001c111561248d57600060039150915061252b565b6000600187878787604051600081526020016040526040516124b29493929190613b55565b6020604051602081039080840390855afa1580156124d4573d6000803e3d6000fd5b505050602060405103519050600073ffffffffffffffffffffffffffffffffffffffff168173ffffffffffffffffffffffffffffffffffffffff16036125225760006001925092505061252b565b80600092509250505b94509492505050565b6000600481111561254857612547613b9a565b5b81600481111561255b5761255a613b9a565b5b0315612697576001600481111561257557612574613b9a565b5b81600481111561258857612587613b9a565b5b036125c8576040517f08c379a00000000000000000000000000000000000000000000000000000000081526004016125bf90613c15565b60405180910390fd5b600260048111156125dc576125db613b9a565b5b8160048111156125ef576125ee613b9a565b5b0361262f576040517f08c379a000000000000000000000000000000000000000000000000000000000815260040161262690613c81565b60405180910390fd5b6003600481111561264357612642613b9a565b5b81600481111561265657612655613b9a565b5b03612696576040517f08c379a000000000000000000000000000000000000000000000000000000000815260040161268d90613d13565b60405180910390fd5b5b50565b6001816000016000828254019250508190555050565b505050565b600080600090506000608084901c11156126d757608083901c92506080810190505b6000604084901c11156126f257604083901c92506040810190505b6000602084901c111561270d57602083901c92506020810190505b6000601084901c111561272857601083901c92506010810190505b6000600884901c111561274357600883901c92506008810190505b6000600484901c111561275e57600483901c92506004810190505b6000600284901c111561277957600283901c92506002810190505b6000600184901c111561278d576001810190505b80915050919050565b60008183106127a557816127a7565b825b905092915050565b60007bffffffffffffffffffffffffffffffffffffffffffffffffffffffff8016821115612812576040517f08c379a000000000000000000000000000000000000000000000000000000000815260040161280990613da5565b60405180910390fd5b819050919050565b6040518060400160405280600063ffffffff16815260200160007bffffffffffffffffffffffffffffffffffffffffffffffffffffffff1681525090565b600081519050919050565b600082825260208201905092915050565b60005b83811015612892578082015181840152602081019050612877565b60008484015250505050565b6000601f19601f8301169050919050565b60006128ba82612858565b6128c48185612863565b93506128d4818560208601612874565b6128dd8161289e565b840191505092915050565b6000602082019050818103600083015261290281846128af565b905092915050565b600080fd5b600073ffffffffffffffffffffffffffffffffffffffff82169050919050565b600061293a8261290f565b9050919050565b61294a8161292f565b811461295557600080fd5b50565b60008135905061296781612941565b92915050565b6000819050919050565b6129808161296d565b811461298b57600080fd5b50565b60008135905061299d81612977565b92915050565b600080604083850312156129ba576129b961290a565b5b60006129c885828601612958565b92505060206129d98582860161298e565b9150509250929050565b60008115159050919050565b6129f8816129e3565b82525050565b6000602082019050612a1360008301846129ef565b92915050565b612a228161296d565b82525050565b6000602082019050612a3d6000830184612a19565b92915050565b600080600060608486031215612a5c57612a5b61290a565b5b6000612a6a86828701612958565b9350506020612a7b86828701612958565b9250506040612a8c8682870161298e565b9150509250925092565b600060ff82169050919050565b612aac81612a96565b82525050565b6000602082019050612ac76000830184612aa3565b92915050565b6000819050919050565b612ae081612acd565b82525050565b6000602082019050612afb6000830184612ad7565b92915050565b600060208284031215612b1757612b1661290a565b5b6000612b2584828501612958565b91505092915050565b612b378161292f565b82525050565b6000602082019050612b526000830184612b2e565b92915050565b600063ffffffff82169050919050565b612b7181612b58565b82525050565b6000602082019050612b8c6000830184612b68565b92915050565b60006bffffffffffffffffffffffff82169050919050565b612bb381612b92565b82525050565b6000602082019050612bce6000830184612baa565b92915050565b600060208284031215612bea57612be961290a565b5b6000612bf88482850161298e565b91505092915050565b612c0a81612a96565b8114612c1557600080fd5b50565b600081359050612c2781612c01565b92915050565b612c3681612acd565b8114612c4157600080fd5b50565b600081359050612c5381612c2d565b92915050565b60008060008060008060c08789031215612c7657612c7561290a565b5b6000612c8489828a01612958565b9650506020612c9589828a0161298e565b9550506040612ca689828a0161298e565b9450506060612cb789828a01612c18565b9350506080612cc889828a01612c44565b92505060a0612cd989828a01612c44565b9150509295509295509295565b600080600080600080600060e0888a031215612d0557612d0461290a565b5b6000612d138a828b01612958565b9750506020612d248a828b01612958565b9650506040612d358a828b0161298e565b9550506060612d468a828b0161298e565b9450506080612d578a828b01612c18565b93505060a0612d688a828b01612c44565b92505060c0612d798a828b01612c44565b91505092959891949750929550565b60008060408385031215612d9f57612d9e61290a565b5b6000612dad85828601612958565b9250506020612dbe85828601612958565b9150509250929050565b612dd181612b58565b8114612ddc57600080fd5b50565b600081359050612dee81612dc8565b92915050565b60008060408385031215612e0b57612e0a61290a565b5b6000612e1985828601612958565b9250506020612e2a85828601612ddf565b9150509250929050565b612e3d81612b58565b82525050565b60007bffffffffffffffffffffffffffffffffffffffffffffffffffffffff82169050919050565b612e7481612e43565b82525050565b604082016000820151612e906000850182612e34565b506020820151612ea36020850182612e6b565b50505050565b6000604082019050612ebe6000830184612e7a565b92915050565b7f4e487b7100000000000000000000000000000000000000000000000000000000600052602260045260246000fd5b60006002820490506001821680612f0b57607f821691505b602082108103612f1e57612f1d612ec4565b5b50919050565b7f4e487b7100000000000000000000000000000000000000000000000000000000600052601160045260246000fd5b6000612f5e8261296d565b9150612f698361296d565b9250828201905080821115612f8157612f80612f24565b5b92915050565b7f4552433230566f7465733a20626c6f636b206e6f7420796574206d696e656400600082015250565b6000612fbd601f83612863565b9150612fc882612f87565b602082019050919050565b60006020820190508181036000830152612fec81612fb0565b9050919050565b6000612ffe8261296d565b91506130098361296d565b925082820390508181111561302157613020612f24565b5b92915050565b7f4e487b7100000000000000000000000000000000000000000000000000000000600052603260045260246000fd5b7f45524332303a2064656372656173656420616c6c6f77616e63652062656c6f7760008201527f207a65726f000000000000000000000000000000000000000000000000000000602082015250565b60006130b2602583612863565b91506130bd82613056565b604082019050919050565b600060208201905081810360008301526130e1816130a5565b9050919050565b7f4552433230566f7465733a207369676e61747572652065787069726564000000600082015250565b600061311e601d83612863565b9150613129826130e8565b602082019050919050565b6000602082019050818103600083015261314d81613111565b9050919050565b60006080820190506131696000830187612ad7565b6131766020830186612b2e565b6131836040830185612a19565b6131906060830184612a19565b95945050505050565b7f4552433230566f7465733a20696e76616c6964206e6f6e636500000000000000600082015250565b60006131cf601983612863565b91506131da82613199565b602082019050919050565b600060208201905081810360008301526131fe816131c2565b9050919050565b7f45524332305065726d69743a206578706972656420646561646c696e65000000600082015250565b600061323b601d83612863565b915061324682613205565b602082019050919050565b6000602082019050818103600083015261326a8161322e565b9050919050565b600060c0820190506132866000830189612ad7565b6132936020830188612b2e565b6132a06040830187612b2e565b6132ad6060830186612a19565b6132ba6080830185612a19565b6132c760a0830184612a19565b979650505050505050565b7f45524332305065726d69743a20696e76616c6964207369676e61747572650000600082015250565b6000613308601e83612863565b9150613313826132d2565b602082019050919050565b60006020820190508181036000830152613337816132fb565b9050919050565b7f45524332303a20617070726f76652066726f6d20746865207a65726f2061646460008201527f7265737300000000000000000000000000000000000000000000000000000000602082015250565b600061339a602483612863565b91506133a58261333e565b604082019050919050565b600060208201905081810360008301526133c98161338d565b9050919050565b7f45524332303a20617070726f766520746f20746865207a65726f20616464726560008201527f7373000000000000000000000000000000000000000000000000000000000000602082015250565b600061342c602283612863565b9150613437826133d0565b604082019050919050565b6000602082019050818103600083015261345b8161341f565b9050919050565b7f45524332303a20696e73756666696369656e7420616c6c6f77616e6365000000600082015250565b6000613498601d83612863565b91506134a382613462565b602082019050919050565b600060208201905081810360008301526134c78161348b565b9050919050565b7f45524332303a207472616e736665722066726f6d20746865207a65726f20616460008201527f6472657373000000000000000000000000000000000000000000000000000000602082015250565b600061352a602583612863565b9150613535826134ce565b604082019050919050565b600060208201905081810360008301526135598161351d565b9050919050565b7f45524332303a207472616e7366657220746f20746865207a65726f206164647260008201527f6573730000000000000000000000000000000000000000000000000000000000602082015250565b60006135bc602383612863565b91506135c782613560565b604082019050919050565b600060208201905081810360008301526135eb816135af565b9050919050565b7f45524332303a207472616e7366657220616d6f756e742065786365656473206260008201527f616c616e63650000000000000000000000000000000000000000000000000000602082015250565b600061364e602683612863565b9150613659826135f2565b604082019050919050565b6000602082019050818103600083015261367d81613641565b9050919050565b7f4552433230566f7465733a20746f74616c20737570706c79207269736b73206f60008201527f766572666c6f77696e6720766f74657300000000000000000000000000000000602082015250565b60006136e0603083612863565b91506136eb82613684565b604082019050919050565b6000602082019050818103600083015261370f816136d3565b9050919050565b7f53616665436173743a2076616c756520646f65736e27742066697420696e203360008201527f3220626974730000000000000000000000000000000000000000000000000000602082015250565b6000613772602683612863565b915061377d82613716565b604082019050919050565b600060208201905081810360008301526137a181613765565b9050919050565b7f53616665436173743a2076616c756520646f65736e27742066697420696e203960008201527f3620626974730000000000000000000000000000000000000000000000000000602082015250565b6000613804602683612863565b915061380f826137a8565b604082019050919050565b60006020820190508181036000830152613833816137f7565b9050919050565b600060a08201905061384f6000830188612ad7565b61385c6020830187612ad7565b6138696040830186612ad7565b6138766060830185612a19565b6138836080830184612b2e565b9695505050505050565b7f4e487b7100000000000000000000000000000000000000000000000000000000600052601260045260246000fd5b60006138c78261296d565b91506138d28361296d565b9250826138e2576138e161388d565b5b828204905092915050565b7f45524332303a206d696e7420746f20746865207a65726f206164647265737300600082015250565b6000613923601f83612863565b915061392e826138ed565b602082019050919050565b6000602082019050818103600083015261395281613916565b9050919050565b600060408201905061396e6000830185612a19565b61397b6020830184612a19565b9392505050565b7f45524332303a206275726e2066726f6d20746865207a65726f2061646472657360008201527f7300000000000000000000000000000000000000000000000000000000000000602082015250565b60006139de602183612863565b91506139e982613982565b604082019050919050565b60006020820190508181036000830152613a0d816139d1565b9050919050565b7f45524332303a206275726e20616d6f756e7420657863656564732062616c616e60008201527f6365000000000000000000000000000000000000000000000000000000000000602082015250565b6000613a70602283612863565b9150613a7b82613a14565b604082019050919050565b60006020820190508181036000830152613a9f81613a63565b9050919050565b600081905092915050565b7f1901000000000000000000000000000000000000000000000000000000000000600082015250565b6000613ae7600283613aa6565b9150613af282613ab1565b600282019050919050565b6000819050919050565b613b18613b1382612acd565b613afd565b82525050565b6000613b2982613ada565b9150613b358285613b07565b602082019150613b458284613b07565b6020820191508190509392505050565b6000608082019050613b6a6000830187612ad7565b613b776020830186612aa3565b613b846040830185612ad7565b613b916060830184612ad7565b95945050505050565b7f4e487b7100000000000000000000000000000000000000000000000000000000600052602160045260246000fd5b7f45434453413a20696e76616c6964207369676e61747572650000000000000000600082015250565b6000613bff601883612863565b9150613c0a82613bc9565b602082019050919050565b60006020820190508181036000830152613c2e81613bf2565b9050919050565b7f45434453413a20696e76616c6964207369676e6174757265206c656e67746800600082015250565b6000613c6b601f83612863565b9150613c7682613c35565b602082019050919050565b60006020820190508181036000830152613c9a81613c5e565b9050919050565b7f45434453413a20696e76616c6964207369676e6174757265202773272076616c60008201527f7565000000000000000000000000000000000000000000000000000000000000602082015250565b6000613cfd602283612863565b9150613d0882613ca1565b604082019050919050565b60006020820190508181036000830152613d2c81613cf0565b9050919050565b7f53616665436173743a2076616c756520646f65736e27742066697420696e203260008201527f3234206269747300000000000000000000000000000000000000000000000000602082015250565b6000613d8f602783612863565b9150613d9a82613d33565b604082019050919050565b60006020820190508181036000830152613dbe81613d82565b905091905056fea2646970667358221220cda2e434265a0f76d85e77bdd9d99085131e75f4222096a4e7b51be59c2cc73664736f6c63430008110033",
  "linkReferences": {},
  "deployedLinkReferences": {}
}