{
  "_format": "hh-sol-artifact-1",
  "contractName": "ERC4626DecimalMock",
  "sourceName": "contracts/mocks/ERC4626Mock.sol",
  "abi": [
    {
      "inputs": [
        {
          "internalType": "contract IERC20Metadata",
          "name": "asset",
          "type": "address"
        },
        {
          "internalType": "string",
          "name": "name",
          "type": "string"
        },
        {
          "internalType": "string",
          "name": "symbol",
          "type": "string"
        },
        {
          "internalType": "uint8",
          "name": "decimalsOverride",
          "type": "uint8"
        }
      ],
      "stateMutability": "nonpayable",
      "type": "constructor"
    },
    {
      "anonymous": false,
      "inputs": [
        {
          "indexed": true,
          "internalType": "address",
          "name": "owner",
          "type": "address"
        },
        {
          "indexed": true,
          "internalType": "address",
          "name": "spender",
          "type": "address"
        },
        {
          "indexed": false,
          "internalType": "uint256",
          "name": "value",
          "type": "uint256"
        }
      ],
      "name": "Approval",
      "type": "event"
    },
    {
      "anonymous": false,
      "inputs": [
        {
          "indexed": true,
          "internalType": "address",
          "name": "sender",
          "type": "address"
        },
        {
          "indexed": true,
          "internalType": "address",
          "name": "owner",
          "type": "address"
        },
        {
          "indexed": false,
          "internalType": "uint256",
          "name": "assets",
          "type": "uint256"
        },
        {
          "indexed": false,
          "internalType": "uint256",
          "name": "shares",
          "type": "uint256"
        }
      ],
      "name": "Deposit",
      "type": "event"
    },
    {
      "anonymous": false,
      "inputs": [
        {
          "indexed": true,
          "internalType": "address",
          "name": "from",
          "type": "address"
        },
        {
          "indexed": true,
          "internalType": "address",
          "name": "to",
          "type": "address"
        },
        {
          "indexed": false,
          "internalType": "uint256",
          "name": "value",
          "type": "uint256"
        }
      ],
      "name": "Transfer",
      "type": "event"
    },
    {
      "anonymous": false,
      "inputs": [
        {
          "indexed": true,
          "internalType": "address",
          "name": "sender",
          "type": "address"
        },
        {
          "indexed": true,
          "internalType": "address",
          "name": "receiver",
          "type": "address"
        },
        {
          "indexed": true,
          "internalType": "address",
          "name": "owner",
          "type": "address"
        },
        {
          "indexed": false,
          "internalType": "uint256",
          "name": "assets",
          "type": "uint256"
        },
        {
          "indexed": false,
          "internalType": "uint256",
          "name": "shares",
          "type": "uint256"
        }
      ],
      "name": "Withdraw",
      "type": "event"
    },
    {
      "inputs": [
        {
          "internalType": "address",
          "name": "owner",
          "type": "address"
        },
        {
          "internalType": "address",
          "name": "spender",
          "type": "address"
        }
      ],
      "name": "allowance",
      "outputs": [
        {
          "internalType": "uint256",
          "name": "",
          "type": "uint256"
        }
      ],
      "stateMutability": "view",
      "type": "function"
    },
    {
      "inputs": [
        {
          "internalType": "address",
          "name": "spender",
          "type": "address"
        },
        {
          "internalType": "uint256",
          "name": "amount",
          "type": "uint256"
        }
      ],
      "name": "approve",
      "outputs": [
        {
          "internalType": "bool",
          "name": "",
          "type": "bool"
        }
      ],
      "stateMutability": "nonpayable",
      "type": "function"
    },
    {
      "inputs": [],
      "name": "asset",
      "outputs": [
        {
          "internalType": "address",
          "name": "",
          "type": "address"
        }
      ],
      "stateMutability": "view",
      "type": "function"
    },
    {
      "inputs": [
        {
          "internalType": "address",
          "name": "account",
          "type": "address"
        }
      ],
      "name": "balanceOf",
      "outputs": [
        {
          "internalType": "uint256",
          "name": "",
          "type": "uint256"
        }
      ],
      "stateMutability": "view",
      "type": "function"
    },
    {
      "inputs": [
        {
          "internalType": "uint256",
          "name": "shares",
          "type": "uint256"
        }
      ],
      "name": "convertToAssets",
      "outputs": [
        {
          "internalType": "uint256",
          "name": "assets",
          "type": "uint256"
        }
      ],
      "stateMutability": "view",
      "type": "function"
    },
    {
      "inputs": [
        {
          "internalType": "uint256",
          "name": "assets",
          "type": "uint256"
        }
      ],
      "name": "convertToShares",
      "outputs": [
        {
          "internalType": "uint256",
          "name": "shares",
          "type": "uint256"
        }
      ],
      "stateMutability": "view",
      "type": "function"
    },
    {
      "inputs": [],
      "name": "decimals",
      "outputs": [
        {
          "internalType": "uint8",
          "name": "",
          "type": "uint8"
        }
      ],
      "stateMutability": "view",
      "type": "function"
    },
    {
      "inputs": [
        {
          "internalType": "address",
          "name": "spender",
          "type": "address"
        },
        {
          "internalType": "uint256",
          "name": "subtractedValue",
          "type": "uint256"
        }
      ],
      "name": "decreaseAllowance",
      "outputs": [
        {
          "internalType": "bool",
          "name": "",
          "type": "bool"
        }
      ],
      "stateMutability": "nonpayable",
      "type": "function"
    },
    {
      "inputs": [
        {
          "internalType": "uint256",
          "name": "assets",
          "type": "uint256"
        },
        {
          "internalType": "address",
          "name": "receiver",
          "type": "address"
        }
      ],
      "name": "deposit",
      "outputs": [
        {
          "internalType": "uint256",
          "name": "",
          "type": "uint256"
        }
      ],
      "stateMutability": "nonpayable",
      "type": "function"
    },
    {
      "inputs": [
        {
          "internalType": "address",
          "name": "spender",
          "type": "address"
        },
        {
          "internalType": "uint256",
          "name": "addedValue",
          "type": "uint256"
        }
      ],
      "name": "increaseAllowance",
      "outputs": [
        {
          "internalType": "bool",
          "name": "",
          "type": "bool"
        }
      ],
      "stateMutability": "nonpayable",
      "type": "function"
    },
    {
      "inputs": [
        {
          "internalType": "address",
          "name": "",
          "type": "address"
        }
      ],
      "name": "maxDeposit",
      "outputs": [
        {
          "internalType": "uint256",
          "name": "",
          "type": "uint256"
        }
      ],
      "stateMutability": "view",
      "type": "function"
    },
    {
      "inputs": [
        {
          "internalType": "address",
          "name": "",
          "type": "address"
        }
      ],
      "name": "maxMint",
      "outputs": [
        {
          "internalType": "uint256",
          "name": "",
          "type": "uint256"
        }
      ],
      "stateMutability": "view",
      "type": "function"
    },
    {
      "inputs": [
        {
          "internalType": "address",
          "name": "owner",
          "type": "address"
        }
      ],
      "name": "maxRedeem",
      "outputs": [
        {
          "internalType": "uint256",
          "name": "",
          "type": "uint256"
        }
      ],
      "stateMutability": "view",
      "type": "function"
    },
    {
      "inputs": [
        {
          "internalType": "address",
          "name": "owner",
          "type": "address"
        }
      ],
      "name": "maxWithdraw",
      "outputs": [
        {
          "internalType": "uint256",
          "name": "",
          "type": "uint256"
        }
      ],
      "stateMutability": "view",
      "type": "function"
    },
    {
      "inputs": [
        {
          "internalType": "uint256",
          "name": "shares",
          "type": "uint256"
        },
        {
          "internalType": "address",
          "name": "receiver",
          "type": "address"
        }
      ],
      "name": "mint",
      "outputs": [
        {
          "internalType": "uint256",
          "name": "",
          "type": "uint256"
        }
      ],
      "stateMutability": "nonpayable",
      "type": "function"
    },
    {
      "inputs": [
        {
          "internalType": "address",
          "name": "account",
          "type": "address"
        },
        {
          "internalType": "uint256",
          "name": "amount",
          "type": "uint256"
        }
      ],
      "name": "mockBurn",
      "outputs": [],
      "stateMutability": "nonpayable",
      "type": "function"
    },
    {
      "inputs": [
        {
          "internalType": "address",
          "name": "account",
          "type": "address"
        },
        {
          "internalType": "uint256",
          "name": "amount",
          "type": "uint256"
        }
      ],
      "name": "mockMint",
      "outputs": [],
      "stateMutability": "nonpayable",
      "type": "function"
    },
    {
      "inputs": [],
      "name": "name",
      "outputs": [
        {
          "internalType": "string",
          "name": "",
          "type": "string"
        }
      ],
      "stateMutability": "view",
      "type": "function"
    },
    {
      "inputs": [
        {
          "internalType": "uint256",
          "name": "assets",
          "type": "uint256"
        }
      ],
      "name": "previewDeposit",
      "outputs": [
        {
          "internalType": "uint256",
          "name": "",
          "type": "uint256"
        }
      ],
      "stateMutability": "view",
      "type": "function"
    },
    {
      "inputs": [
        {
          "internalType": "uint256",
          "name": "shares",
          "type": "uint256"
        }
      ],
      "name": "previewMint",
      "outputs": [
        {
          "internalType": "uint256",
          "name": "",
          "type": "uint256"
        }
      ],
      "stateMutability": "view",
      "type": "function"
    },
    {
      "inputs": [
        {
          "internalType": "uint256",
          "name": "shares",
          "type": "uint256"
        }
      ],
      "name": "previewRedeem",
      "outputs": [
        {
          "internalType": "uint256",
          "name": "",
          "type": "uint256"
        }
      ],
      "stateMutability": "view",
      "type": "function"
    },
    {
      "inputs": [
        {
          "internalType": "uint256",
          "name": "assets",
          "type": "uint256"
        }
      ],
      "name": "previewWithdraw",
      "outputs": [
        {
          "internalType": "uint256",
          "name": "",
          "type": "uint256"
        }
      ],
      "stateMutability": "view",
      "type": "function"
    },
    {
      "inputs": [
        {
          "internalType": "uint256",
          "name": "shares",
          "type": "uint256"
        },
        {
          "internalType": "address",
          "name": "receiver",
          "type": "address"
        },
        {
          "internalType": "address",
          "name": "owner",
          "type": "address"
        }
      ],
      "name": "redeem",
      "outputs": [
        {
          "internalType": "uint256",
          "name": "",
          "type": "uint256"
        }
      ],
      "stateMutability": "nonpayable",
      "type": "function"
    },
    {
      "inputs": [],
      "name": "symbol",
      "outputs": [
        {
          "internalType": "string",
          "name": "",
          "type": "string"
        }
      ],
      "stateMutability": "view",
      "type": "function"
    },
    {
      "inputs": [],
      "name": "totalAssets",
      "outputs": [
        {
          "internalType": "uint256",
          "name": "",
          "type": "uint256"
        }
      ],
      "stateMutability": "view",
      "type": "function"
    },
    {
      "inputs": [],
      "name": "totalSupply",
      "outputs": [
        {
          "internalType": "uint256",
          "name": "",
          "type": "uint256"
        }
      ],
      "stateMutability": "view",
      "type": "function"
    },
    {
      "inputs": [
        {
          "internalType": "address",
          "name": "to",
          "type": "address"
        },
        {
          "internalType": "uint256",
          "name": "amount",
          "type": "uint256"
        }
      ],
      "name": "transfer",
      "outputs": [
        {
          "internalType": "bool",
          "name": "",
          "type": "bool"
        }
      ],
      "stateMutability": "nonpayable",
      "type": "function"
    },
    {
      "inputs": [
        {
          "internalType": "address",
          "name": "from",
          "type": "address"
        },
        {
          "internalType": "address",
          "name": "to",
          "type": "address"
        },
        {
          "internalType": "uint256",
          "name": "amount",
          "type": "uint256"
        }
      ],
      "name": "transferFrom",
      "outputs": [
        {
          "internalType": "bool",
          "name": "",
          "type": "bool"
        }
      ],
      "stateMutability": "nonpayable",
      "type": "function"
    },
    {
      "inputs": [
        {
          "internalType": "uint256",
          "name": "assets",
          "type": "uint256"
        },
        {
          "internalType": "address",
          "name": "receiver",
          "type": "address"
        },
        {
          "internalType": "address",
          "name": "owner",
          "type": "address"
        }
      ],
      "name": "withdraw",
      "outputs": [
        {
          "internalType": "uint256",
          "name": "",
          "type": "uint256"
        }
      ],
      "stateMutability": "nonpayable",
      "type": "function"
    }
  ],
  "bytecode": "0x60e06040523480156200001157600080fd5b50604051620038273803806200382783398181016040528101906200003791906200048c565b83838382828281600390816200004e919062000787565b50806004908162000060919062000787565b5050506000806200007783620000fd60201b60201c565b91509150816200009c57620000966200023960201b62000dcb1760201c565b6200009e565b805b60ff1660a08160ff16815250508273ffffffffffffffffffffffffffffffffffffffff1660808173ffffffffffffffffffffffffffffffffffffffff16815250505050505050508060ff1660c08160ff16815250505050505062000937565b6000806000808473ffffffffffffffffffffffffffffffffffffffff1663313ce56760e01b604051602401604051602081830303815290604052907bffffffffffffffffffffffffffffffffffffffffffffffffffffffff19166020820180517bffffffffffffffffffffffffffffffffffffffffffffffffffffffff8381831617835250505050604051620001949190620008bb565b6000604051808303816000865af19150503d8060008114620001d3576040519150601f19603f3d011682016040523d82523d6000602084013e620001d8565b606091505b5091509150818015620001ed57506020815110155b156200022a576000818060200190518101906200020b919062000905565b905060ff8016811162000228576001819450945050505062000234565b505b6000809350935050505b915091565b60006012905090565b6000604051905090565b600080fd5b600080fd5b600073ffffffffffffffffffffffffffffffffffffffff82169050919050565b6000620002838262000256565b9050919050565b6000620002978262000276565b9050919050565b620002a9816200028a565b8114620002b557600080fd5b50565b600081519050620002c9816200029e565b92915050565b600080fd5b600080fd5b6000601f19601f8301169050919050565b7f4e487b7100000000000000000000000000000000000000000000000000000000600052604160045260246000fd5b6200032482620002d9565b810181811067ffffffffffffffff82111715620003465762000345620002ea565b5b80604052505050565b60006200035b62000242565b905062000369828262000319565b919050565b600067ffffffffffffffff8211156200038c576200038b620002ea565b5b6200039782620002d9565b9050602081019050919050565b60005b83811015620003c4578082015181840152602081019050620003a7565b60008484015250505050565b6000620003e7620003e1846200036e565b6200034f565b905082815260208101848484011115620004065762000405620002d4565b5b62000413848285620003a4565b509392505050565b600082601f830112620004335762000432620002cf565b5b815162000445848260208601620003d0565b91505092915050565b600060ff82169050919050565b62000466816200044e565b81146200047257600080fd5b50565b60008151905062000486816200045b565b92915050565b60008060008060808587031215620004a957620004a86200024c565b5b6000620004b987828801620002b8565b945050602085015167ffffffffffffffff811115620004dd57620004dc62000251565b5b620004eb878288016200041b565b935050604085015167ffffffffffffffff8111156200050f576200050e62000251565b5b6200051d878288016200041b565b9250506060620005308782880162000475565b91505092959194509250565b600081519050919050565b7f4e487b7100000000000000000000000000000000000000000000000000000000600052602260045260246000fd5b600060028204905060018216806200058f57607f821691505b602082108103620005a557620005a462000547565b5b50919050565b60008190508160005260206000209050919050565b60006020601f8301049050919050565b600082821b905092915050565b6000600883026200060f7fffffffffffffffffffffffffffffffffffffffffffffffffffffffffffffffff82620005d0565b6200061b8683620005d0565b95508019841693508086168417925050509392505050565b6000819050919050565b6000819050919050565b600062000668620006626200065c8462000633565b6200063d565b62000633565b9050919050565b6000819050919050565b620006848362000647565b6200069c62000693826200066f565b848454620005dd565b825550505050565b600090565b620006b3620006a4565b620006c081848462000679565b505050565b5b81811015620006e857620006dc600082620006a9565b600181019050620006c6565b5050565b601f82111562000737576200070181620005ab565b6200070c84620005c0565b810160208510156200071c578190505b620007346200072b85620005c0565b830182620006c5565b50505b505050565b600082821c905092915050565b60006200075c600019846008026200073c565b1980831691505092915050565b600062000777838362000749565b9150826002028217905092915050565b62000792826200053c565b67ffffffffffffffff811115620007ae57620007ad620002ea565b5b620007ba825462000576565b620007c7828285620006ec565b600060209050601f831160018114620007ff5760008415620007ea578287015190505b620007f6858262000769565b86555062000866565b601f1984166200080f86620005ab565b60005b82811015620008395784890151825560018201915060208501945060208101905062000812565b8683101562000859578489015162000855601f89168262000749565b8355505b6001600288020188555050505b505050505050565b600081519050919050565b600081905092915050565b600062000891826200086e565b6200089d818562000879565b9350620008af818560208601620003a4565b80840191505092915050565b6000620008c9828462000884565b915081905092915050565b620008df8162000633565b8114620008eb57600080fd5b50565b600081519050620008ff81620008d4565b92915050565b6000602082840312156200091e576200091d6200024c565b5b60006200092e84828501620008ee565b91505092915050565b60805160a05160c051612eab6200097c600039600061086b01526000611b280152600081816106b4015281816108a10152818161169501526117810152612eab6000f3fe608060405234801561001057600080fd5b50600436106101cf5760003560e01c80636e553f6511610104578063b460af94116100a2578063ce96cb7711610071578063ce96cb77146105f0578063d905777e14610620578063dd62ed3e14610650578063ef8b30f714610680576101cf565b8063b460af9414610530578063ba08765214610560578063c63d75b614610590578063c6e6f592146105c0576101cf565b806395d89b41116100de57806395d89b4114610482578063a457c2d7146104a0578063a9059cbb146104d0578063b3d7f6b914610500576101cf565b80636e553f65146103f257806370a082311461042257806394bf804d14610452576101cf565b8063313ce56711610171578063395093511161014b5780633950935114610346578063402d267d14610376578063492dc938146103a65780634cdad506146103c2576101cf565b8063313ce567146102ee578063378934b41461030c57806338d52e0f14610328576101cf565b8063095ea7b3116101ad578063095ea7b3146102405780630a28a4771461027057806318160ddd146102a057806323b872dd146102be576101cf565b806301e1d114146101d457806306fdde03146101f257806307a2d13a14610210575b600080fd5b6101dc6106b0565b6040516101e99190611df9565b60405180910390f35b6101fa610751565b6040516102079190611ea4565b60405180910390f35b61022a60048036038101906102259190611ef7565b6107e3565b6040516102379190611df9565b60405180910390f35b61025a60048036038101906102559190611f82565b6107f7565b6040516102679190611fdd565b60405180910390f35b61028a60048036038101906102859190611ef7565b61081a565b6040516102979190611df9565b60405180910390f35b6102a861082e565b6040516102b59190611df9565b60405180910390f35b6102d860048036038101906102d39190611ff8565b610838565b6040516102e59190611fdd565b60405180910390f35b6102f6610867565b6040516103039190612067565b60405180910390f35b61032660048036038101906103219190611f82565b61088f565b005b61033061089d565b60405161033d9190612091565b60405180910390f35b610360600480360381019061035b9190611f82565b6108c5565b60405161036d9190611fdd565b60405180910390f35b610390600480360381019061038b91906120ac565b6108fc565b60405161039d9190611df9565b60405180910390f35b6103c060048036038101906103bb9190611f82565b61093a565b005b6103dc60048036038101906103d79190611ef7565b610948565b6040516103e99190611df9565b60405180910390f35b61040c600480360381019061040791906120d9565b61095c565b6040516104199190611df9565b60405180910390f35b61043c600480360381019061043791906120ac565b6109d3565b6040516104499190611df9565b60405180910390f35b61046c600480360381019061046791906120d9565b610a1b565b6040516104799190611df9565b60405180910390f35b61048a610a92565b6040516104979190611ea4565b60405180910390f35b6104ba60048036038101906104b59190611f82565b610b24565b6040516104c79190611fdd565b60405180910390f35b6104ea60048036038101906104e59190611f82565b610b9b565b6040516104f79190611fdd565b60405180910390f35b61051a60048036038101906105159190611ef7565b610bbe565b6040516105279190611df9565b60405180910390f35b61054a60048036038101906105459190612119565b610bd2565b6040516105579190611df9565b60405180910390f35b61057a60048036038101906105759190612119565b610c4b565b6040516105879190611df9565b60405180910390f35b6105aa60048036038101906105a591906120ac565b610cc4565b6040516105b79190611df9565b60405180910390f35b6105da60048036038101906105d59190611ef7565b610cee565b6040516105e79190611df9565b60405180910390f35b61060a600480360381019061060591906120ac565b610d02565b6040516106179190611df9565b60405180910390f35b61063a600480360381019061063591906120ac565b610d1e565b6040516106479190611df9565b60405180910390f35b61066a6004803603810190610665919061216c565b610d30565b6040516106779190611df9565b60405180910390f35b61069a60048036038101906106959190611ef7565b610db7565b6040516106a79190611df9565b60405180910390f35b60007f000000000000000000000000000000000000000000000000000000000000000073ffffffffffffffffffffffffffffffffffffffff166370a08231306040518263ffffffff1660e01b815260040161070b9190612091565b602060405180830381865afa158015610728573d6000803e3d6000fd5b505050506040513d601f19601f8201168201806040525081019061074c91906121c1565b905090565b6060600380546107609061221d565b80601f016020809104026020016040519081016040528092919081815260200182805461078c9061221d565b80156107d95780601f106107ae576101008083540402835291602001916107d9565b820191906000526020600020905b8154815290600101906020018083116107bc57829003601f168201915b5050505050905090565b60006107f0826000610dd4565b9050919050565b600080610802610e20565b905061080f818585610e28565b600191505092915050565b6000610827826001610ff1565b9050919050565b6000600254905090565b600080610843610e20565b9050610850858285611048565b61085b8585856110d4565b60019150509392505050565b60007f0000000000000000000000000000000000000000000000000000000000000000905090565b610899828261134a565b5050565b60007f0000000000000000000000000000000000000000000000000000000000000000905090565b6000806108d0610e20565b90506108f18185856108e28589610d30565b6108ec919061227d565b610e28565b600191505092915050565b60006109066114a0565b610911576000610933565b7fffffffffffffffffffffffffffffffffffffffffffffffffffffffffffffffff5b9050919050565b61094482826114c3565b5050565b6000610955826000610dd4565b9050919050565b6000610967826108fc565b8311156109a9576040517f08c379a00000000000000000000000000000000000000000000000000000000081526004016109a0906122fd565b60405180910390fd5b60006109b484610db7565b90506109c96109c1610e20565b848684611690565b8091505092915050565b60008060008373ffffffffffffffffffffffffffffffffffffffff1673ffffffffffffffffffffffffffffffffffffffff168152602001908152602001600020549050919050565b6000610a2682610cc4565b831115610a68576040517f08c379a0000000000000000000000000000000000000000000000000000000008152600401610a5f90612369565b60405180910390fd5b6000610a7384610bbe565b9050610a88610a80610e20565b848387611690565b8091505092915050565b606060048054610aa19061221d565b80601f0160208091040260200160405190810160405280929190818152602001828054610acd9061221d565b8015610b1a5780601f10610aef57610100808354040283529160200191610b1a565b820191906000526020600020905b815481529060010190602001808311610afd57829003601f168201915b5050505050905090565b600080610b2f610e20565b90506000610b3d8286610d30565b905083811015610b82576040517f08c379a0000000000000000000000000000000000000000000000000000000008152600401610b79906123fb565b60405180910390fd5b610b8f8286868403610e28565b60019250505092915050565b600080610ba6610e20565b9050610bb38185856110d4565b600191505092915050565b6000610bcb826001610dd4565b9050919050565b6000610bdd82610d02565b841115610c1f576040517f08c379a0000000000000000000000000000000000000000000000000000000008152600401610c1690612467565b60405180910390fd5b6000610c2a8561081a565b9050610c40610c37610e20565b85858885611733565b809150509392505050565b6000610c5682610d1e565b841115610c98576040517f08c379a0000000000000000000000000000000000000000000000000000000008152600401610c8f906124d3565b60405180910390fd5b6000610ca385610948565b9050610cb9610cb0610e20565b85858489611733565b809150509392505050565b60007fffffffffffffffffffffffffffffffffffffffffffffffffffffffffffffffff9050919050565b6000610cfb826000610ff1565b9050919050565b6000610d17610d10836109d3565b6000610dd4565b9050919050565b6000610d29826109d3565b9050919050565b6000600160008473ffffffffffffffffffffffffffffffffffffffff1673ffffffffffffffffffffffffffffffffffffffff16815260200190815260200160002060008373ffffffffffffffffffffffffffffffffffffffff1673ffffffffffffffffffffffffffffffffffffffff16815260200190815260200160002054905092915050565b6000610dc4826000610ff1565b9050919050565b60006012905090565b600080610ddf61082e565b905060008114610e0c57610e07610df46106b0565b82858761182c909392919063ffffffff16565b610e17565b610e1684846118a2565b5b91505092915050565b600033905090565b600073ffffffffffffffffffffffffffffffffffffffff168373ffffffffffffffffffffffffffffffffffffffff1603610e97576040517f08c379a0000000000000000000000000000000000000000000000000000000008152600401610e8e90612565565b60405180910390fd5b600073ffffffffffffffffffffffffffffffffffffffff168273ffffffffffffffffffffffffffffffffffffffff1603610f06576040517f08c379a0000000000000000000000000000000000000000000000000000000008152600401610efd906125f7565b60405180910390fd5b80600160008573ffffffffffffffffffffffffffffffffffffffff1673ffffffffffffffffffffffffffffffffffffffff16815260200190815260200160002060008473ffffffffffffffffffffffffffffffffffffffff1673ffffffffffffffffffffffffffffffffffffffff168152602001908152602001600020819055508173ffffffffffffffffffffffffffffffffffffffff168373ffffffffffffffffffffffffffffffffffffffff167f8c5be1e5ebec7d5bd14f71427d1e84f3dd0314c0f7b2291e5b200ac8c7c3b92583604051610fe49190611df9565b60405180910390a3505050565b600080610ffc61082e565b9050600084148061100d5750600081145b6110345761102f8161101d6106b0565b858761182c909392919063ffffffff16565b61103f565b61103e84846118e9565b5b91505092915050565b60006110548484610d30565b90507fffffffffffffffffffffffffffffffffffffffffffffffffffffffffffffffff81146110ce57818110156110c0576040517f08c379a00000000000000000000000000000000000000000000000000000000081526004016110b790612663565b60405180910390fd5b6110cd8484848403610e28565b5b50505050565b600073ffffffffffffffffffffffffffffffffffffffff168373ffffffffffffffffffffffffffffffffffffffff1603611143576040517f08c379a000000000000000000000000000000000000000000000000000000000815260040161113a906126f5565b60405180910390fd5b600073ffffffffffffffffffffffffffffffffffffffff168273ffffffffffffffffffffffffffffffffffffffff16036111b2576040517f08c379a00000000000000000000000000000000000000000000000000000000081526004016111a990612787565b60405180910390fd5b6111bd838383611930565b60008060008573ffffffffffffffffffffffffffffffffffffffff1673ffffffffffffffffffffffffffffffffffffffff16815260200190815260200160002054905081811015611243576040517f08c379a000000000000000000000000000000000000000000000000000000000815260040161123a90612819565b60405180910390fd5b8181036000808673ffffffffffffffffffffffffffffffffffffffff1673ffffffffffffffffffffffffffffffffffffffff16815260200190815260200160002081905550816000808573ffffffffffffffffffffffffffffffffffffffff1673ffffffffffffffffffffffffffffffffffffffff168152602001908152602001600020600082825401925050819055508273ffffffffffffffffffffffffffffffffffffffff168473ffffffffffffffffffffffffffffffffffffffff167fddf252ad1be2c89b69c2b068fc378daa952ba7f163c4a11628f55a4df523b3ef846040516113319190611df9565b60405180910390a3611344848484611935565b50505050565b600073ffffffffffffffffffffffffffffffffffffffff168273ffffffffffffffffffffffffffffffffffffffff16036113b9576040517f08c379a00000000000000000000000000000000000000000000000000000000081526004016113b090612885565b60405180910390fd5b6113c560008383611930565b80600260008282546113d7919061227d565b92505081905550806000808473ffffffffffffffffffffffffffffffffffffffff1673ffffffffffffffffffffffffffffffffffffffff168152602001908152602001600020600082825401925050819055508173ffffffffffffffffffffffffffffffffffffffff16600073ffffffffffffffffffffffffffffffffffffffff167fddf252ad1be2c89b69c2b068fc378daa952ba7f163c4a11628f55a4df523b3ef836040516114889190611df9565b60405180910390a361149c60008383611935565b5050565b6000806114ab6106b0565b11806114be575060006114bc61082e565b145b905090565b600073ffffffffffffffffffffffffffffffffffffffff168273ffffffffffffffffffffffffffffffffffffffff1603611532576040517f08c379a000000000000000000000000000000000000000000000000000000000815260040161152990612917565b60405180910390fd5b61153e82600083611930565b60008060008473ffffffffffffffffffffffffffffffffffffffff1673ffffffffffffffffffffffffffffffffffffffff168152602001908152602001600020549050818110156115c4576040517f08c379a00000000000000000000000000000000000000000000000000000000081526004016115bb906129a9565b60405180910390fd5b8181036000808573ffffffffffffffffffffffffffffffffffffffff1673ffffffffffffffffffffffffffffffffffffffff1681526020019081526020016000208190555081600260008282540392505081905550600073ffffffffffffffffffffffffffffffffffffffff168373ffffffffffffffffffffffffffffffffffffffff167fddf252ad1be2c89b69c2b068fc378daa952ba7f163c4a11628f55a4df523b3ef846040516116779190611df9565b60405180910390a361168b83600084611935565b505050565b6116bc7f000000000000000000000000000000000000000000000000000000000000000085308561193a565b6116c6838261134a565b8273ffffffffffffffffffffffffffffffffffffffff168473ffffffffffffffffffffffffffffffffffffffff167fdcbc1c05240f31ff3ad067ef1ee35ce4997762752e3a095284754544f4c709d784846040516117259291906129c9565b60405180910390a350505050565b8273ffffffffffffffffffffffffffffffffffffffff168573ffffffffffffffffffffffffffffffffffffffff161461177257611771838683611048565b5b61177c83826114c3565b6117a77f000000000000000000000000000000000000000000000000000000000000000085846119c3565b8273ffffffffffffffffffffffffffffffffffffffff168473ffffffffffffffffffffffffffffffffffffffff168673ffffffffffffffffffffffffffffffffffffffff167ffbde797d201c681b91056529119e0b02407c7bb96a4a2c75c01fc9667232c8db858560405161181d9291906129c9565b60405180910390a45050505050565b60008061183a868686611a49565b9050600160028111156118505761184f6129f2565b5b836002811115611863576118626129f2565b5b14801561188157506000848061187c5761187b612a21565b5b868809115b1561189657600181611893919061227d565b90505b80915050949350505050565b60006118e16118af611b24565b600a6118bb9190612b83565b6118c3610867565b600a6118cf9190612b83565b848661182c909392919063ffffffff16565b905092915050565b60006119286118f6610867565b600a6119029190612b83565b61190a611b24565b600a6119169190612b83565b848661182c909392919063ffffffff16565b905092915050565b505050565b505050565b6119bd846323b872dd60e01b85858560405160240161195b93929190612bce565b604051602081830303815290604052907bffffffffffffffffffffffffffffffffffffffffffffffffffffffff19166020820180517bffffffffffffffffffffffffffffffffffffffffffffffffffffffff8381831617835250505050611b4c565b50505050565b611a448363a9059cbb60e01b84846040516024016119e2929190612c05565b604051602081830303815290604052907bffffffffffffffffffffffffffffffffffffffffffffffffffffffff19166020820180517bffffffffffffffffffffffffffffffffffffffffffffffffffffffff8381831617835250505050611b4c565b505050565b6000806000801985870985870292508281108382030391505060008103611a8457838281611a7a57611a79612a21565b5b0492505050611b1d565b808411611a9057600080fd5b60008486880990508281118203915080830392506000600186190186169050808604955080840493506001818260000304019050808302841793506000600287600302189050808702600203810290508087026002038102905080870260020381029050808702600203810290508087026002038102905080870260020381029050808502955050505050505b9392505050565b60007f0000000000000000000000000000000000000000000000000000000000000000905090565b6000611bae826040518060400160405280602081526020017f5361666545524332303a206c6f772d6c6576656c2063616c6c206661696c65648152508573ffffffffffffffffffffffffffffffffffffffff16611c139092919063ffffffff16565b9050600081511115611c0e5780806020019051810190611bce9190612c5a565b611c0d576040517f08c379a0000000000000000000000000000000000000000000000000000000008152600401611c0490612cf9565b60405180910390fd5b5b505050565b6060611c228484600085611c2b565b90509392505050565b606082471015611c70576040517f08c379a0000000000000000000000000000000000000000000000000000000008152600401611c6790612d8b565b60405180910390fd5b6000808673ffffffffffffffffffffffffffffffffffffffff168587604051611c999190612df2565b60006040518083038185875af1925050503d8060008114611cd6576040519150601f19603f3d011682016040523d82523d6000602084013e611cdb565b606091505b5091509150611cec87838387611cf8565b92505050949350505050565b60608315611d5a576000835103611d5257611d1285611d6d565b611d51576040517f08c379a0000000000000000000000000000000000000000000000000000000008152600401611d4890612e55565b60405180910390fd5b5b829050611d65565b611d648383611d90565b5b949350505050565b6000808273ffffffffffffffffffffffffffffffffffffffff163b119050919050565b600082511115611da35781518083602001fd5b806040517f08c379a0000000000000000000000000000000000000000000000000000000008152600401611dd79190611ea4565b60405180910390fd5b6000819050919050565b611df381611de0565b82525050565b6000602082019050611e0e6000830184611dea565b92915050565b600081519050919050565b600082825260208201905092915050565b60005b83811015611e4e578082015181840152602081019050611e33565b60008484015250505050565b6000601f19601f8301169050919050565b6000611e7682611e14565b611e808185611e1f565b9350611e90818560208601611e30565b611e9981611e5a565b840191505092915050565b60006020820190508181036000830152611ebe8184611e6b565b905092915050565b600080fd5b611ed481611de0565b8114611edf57600080fd5b50565b600081359050611ef181611ecb565b92915050565b600060208284031215611f0d57611f0c611ec6565b5b6000611f1b84828501611ee2565b91505092915050565b600073ffffffffffffffffffffffffffffffffffffffff82169050919050565b6000611f4f82611f24565b9050919050565b611f5f81611f44565b8114611f6a57600080fd5b50565b600081359050611f7c81611f56565b92915050565b60008060408385031215611f9957611f98611ec6565b5b6000611fa785828601611f6d565b9250506020611fb885828601611ee2565b9150509250929050565b60008115159050919050565b611fd781611fc2565b82525050565b6000602082019050611ff26000830184611fce565b92915050565b60008060006060848603121561201157612010611ec6565b5b600061201f86828701611f6d565b935050602061203086828701611f6d565b925050604061204186828701611ee2565b9150509250925092565b600060ff82169050919050565b6120618161204b565b82525050565b600060208201905061207c6000830184612058565b92915050565b61208b81611f44565b82525050565b60006020820190506120a66000830184612082565b92915050565b6000602082840312156120c2576120c1611ec6565b5b60006120d084828501611f6d565b91505092915050565b600080604083850312156120f0576120ef611ec6565b5b60006120fe85828601611ee2565b925050602061210f85828601611f6d565b9150509250929050565b60008060006060848603121561213257612131611ec6565b5b600061214086828701611ee2565b935050602061215186828701611f6d565b925050604061216286828701611f6d565b9150509250925092565b6000806040838503121561218357612182611ec6565b5b600061219185828601611f6d565b92505060206121a285828601611f6d565b9150509250929050565b6000815190506121bb81611ecb565b92915050565b6000602082840312156121d7576121d6611ec6565b5b60006121e5848285016121ac565b91505092915050565b7f4e487b7100000000000000000000000000000000000000000000000000000000600052602260045260246000fd5b6000600282049050600182168061223557607f821691505b602082108103612248576122476121ee565b5b50919050565b7f4e487b7100000000000000000000000000000000000000000000000000000000600052601160045260246000fd5b600061228882611de0565b915061229383611de0565b92508282019050808211156122ab576122aa61224e565b5b92915050565b7f455243343632363a206465706f736974206d6f7265207468616e206d61780000600082015250565b60006122e7601e83611e1f565b91506122f2826122b1565b602082019050919050565b60006020820190508181036000830152612316816122da565b9050919050565b7f455243343632363a206d696e74206d6f7265207468616e206d61780000000000600082015250565b6000612353601b83611e1f565b915061235e8261231d565b602082019050919050565b6000602082019050818103600083015261238281612346565b9050919050565b7f45524332303a2064656372656173656420616c6c6f77616e63652062656c6f7760008201527f207a65726f000000000000000000000000000000000000000000000000000000602082015250565b60006123e5602583611e1f565b91506123f082612389565b604082019050919050565b60006020820190508181036000830152612414816123d8565b9050919050565b7f455243343632363a207769746864726177206d6f7265207468616e206d617800600082015250565b6000612451601f83611e1f565b915061245c8261241b565b602082019050919050565b6000602082019050818103600083015261248081612444565b9050919050565b7f455243343632363a2072656465656d206d6f7265207468616e206d6178000000600082015250565b60006124bd601d83611e1f565b91506124c882612487565b602082019050919050565b600060208201905081810360008301526124ec816124b0565b9050919050565b7f45524332303a20617070726f76652066726f6d20746865207a65726f2061646460008201527f7265737300000000000000000000000000000000000000000000000000000000602082015250565b600061254f602483611e1f565b915061255a826124f3565b604082019050919050565b6000602082019050818103600083015261257e81612542565b9050919050565b7f45524332303a20617070726f766520746f20746865207a65726f20616464726560008201527f7373000000000000000000000000000000000000000000000000000000000000602082015250565b60006125e1602283611e1f565b91506125ec82612585565b604082019050919050565b60006020820190508181036000830152612610816125d4565b9050919050565b7f45524332303a20696e73756666696369656e7420616c6c6f77616e6365000000600082015250565b600061264d601d83611e1f565b915061265882612617565b602082019050919050565b6000602082019050818103600083015261267c81612640565b9050919050565b7f45524332303a207472616e736665722066726f6d20746865207a65726f20616460008201527f6472657373000000000000000000000000000000000000000000000000000000602082015250565b60006126df602583611e1f565b91506126ea82612683565b604082019050919050565b6000602082019050818103600083015261270e816126d2565b9050919050565b7f45524332303a207472616e7366657220746f20746865207a65726f206164647260008201527f6573730000000000000000000000000000000000000000000000000000000000602082015250565b6000612771602383611e1f565b915061277c82612715565b604082019050919050565b600060208201905081810360008301526127a081612764565b9050919050565b7f45524332303a207472616e7366657220616d6f756e742065786365656473206260008201527f616c616e63650000000000000000000000000000000000000000000000000000602082015250565b6000612803602683611e1f565b915061280e826127a7565b604082019050919050565b60006020820190508181036000830152612832816127f6565b9050919050565b7f45524332303a206d696e7420746f20746865207a65726f206164647265737300600082015250565b600061286f601f83611e1f565b915061287a82612839565b602082019050919050565b6000602082019050818103600083015261289e81612862565b9050919050565b7f45524332303a206275726e2066726f6d20746865207a65726f2061646472657360008201527f7300000000000000000000000000000000000000000000000000000000000000602082015250565b6000612901602183611e1f565b915061290c826128a5565b604082019050919050565b60006020820190508181036000830152612930816128f4565b9050919050565b7f45524332303a206275726e20616d6f756e7420657863656564732062616c616e60008201527f6365000000000000000000000000000000000000000000000000000000000000602082015250565b6000612993602283611e1f565b915061299e82612937565b604082019050919050565b600060208201905081810360008301526129c281612986565b9050919050565b60006040820190506129de6000830185611dea565b6129eb6020830184611dea565b9392505050565b7f4e487b7100000000000000000000000000000000000000000000000000000000600052602160045260246000fd5b7f4e487b7100000000000000000000000000000000000000000000000000000000600052601260045260246000fd5b60008160011c9050919050565b6000808291508390505b6001851115612aa757808604811115612a8357612a8261224e565b5b6001851615612a925780820291505b8081029050612aa085612a50565b9450612a67565b94509492505050565b600082612ac05760019050612b7c565b81612ace5760009050612b7c565b8160018114612ae45760028114612aee57612b1d565b6001915050612b7c565b60ff841115612b0057612aff61224e565b5b8360020a915084821115612b1757612b1661224e565b5b50612b7c565b5060208310610133831016604e8410600b8410161715612b525782820a905083811115612b4d57612b4c61224e565b5b612b7c565b612b5f8484846001612a5d565b92509050818404811115612b7657612b7561224e565b5b81810290505b9392505050565b6000612b8e82611de0565b9150612b998361204b565b9250612bc67fffffffffffffffffffffffffffffffffffffffffffffffffffffffffffffffff8484612ab0565b905092915050565b6000606082019050612be36000830186612082565b612bf06020830185612082565b612bfd6040830184611dea565b949350505050565b6000604082019050612c1a6000830185612082565b612c276020830184611dea565b9392505050565b612c3781611fc2565b8114612c4257600080fd5b50565b600081519050612c5481612c2e565b92915050565b600060208284031215612c7057612c6f611ec6565b5b6000612c7e84828501612c45565b91505092915050565b7f5361666545524332303a204552433230206f7065726174696f6e20646964206e60008201527f6f74207375636365656400000000000000000000000000000000000000000000602082015250565b6000612ce3602a83611e1f565b9150612cee82612c87565b604082019050919050565b60006020820190508181036000830152612d1281612cd6565b9050919050565b7f416464726573733a20696e73756666696369656e742062616c616e636520666f60008201527f722063616c6c0000000000000000000000000000000000000000000000000000602082015250565b6000612d75602683611e1f565b9150612d8082612d19565b604082019050919050565b60006020820190508181036000830152612da481612d68565b9050919050565b600081519050919050565b600081905092915050565b6000612dcc82612dab565b612dd68185612db6565b9350612de6818560208601611e30565b80840191505092915050565b6000612dfe8284612dc1565b915081905092915050565b7f416464726573733a2063616c6c20746f206e6f6e2d636f6e7472616374000000600082015250565b6000612e3f601d83611e1f565b9150612e4a82612e09565b602082019050919050565b60006020820190508181036000830152612e6e81612e32565b905091905056fea2646970667358221220f9e0c2076013568eb4ec8aa21da2c6195ef87410a0f424e541d7b2f663cd40be64736f6c63430008110033",
  "linkReferences": {},
  "deployedLinkReferences": {}
}