{
  "_format": "hh-sol-artifact-1",
  "contractName": "ERC4626Mock",
  "sourceName": "contracts/mocks/ERC4626Mock.sol",
  "abi": [
    {
      "inputs": [
        {
          "internalType": "contract IERC20Metadata",
          "name": "asset",
          "type": "address"
        },
        {
          "internalType": "string",
          "name": "name",
          "type": "string"
        },
        {
          "internalType": "string",
          "name": "symbol",
          "type": "string"
        }
      ],
      "stateMutability": "nonpayable",
      "type": "constructor"
    },
    {
      "anonymous": false,
      "inputs": [
        {
          "indexed": true,
          "internalType": "address",
          "name": "owner",
          "type": "address"
        },
        {
          "indexed": true,
          "internalType": "address",
          "name": "spender",
          "type": "address"
        },
        {
          "indexed": false,
          "internalType": "uint256",
          "name": "value",
          "type": "uint256"
        }
      ],
      "name": "Approval",
      "type": "event"
    },
    {
      "anonymous": false,
      "inputs": [
        {
          "indexed": true,
          "internalType": "address",
          "name": "sender",
          "type": "address"
        },
        {
          "indexed": true,
          "internalType": "address",
          "name": "owner",
          "type": "address"
        },
        {
          "indexed": false,
          "internalType": "uint256",
          "name": "assets",
          "type": "uint256"
        },
        {
          "indexed": false,
          "internalType": "uint256",
          "name": "shares",
          "type": "uint256"
        }
      ],
      "name": "Deposit",
      "type": "event"
    },
    {
      "anonymous": false,
      "inputs": [
        {
          "indexed": true,
          "internalType": "address",
          "name": "from",
          "type": "address"
        },
        {
          "indexed": true,
          "internalType": "address",
          "name": "to",
          "type": "address"
        },
        {
          "indexed": false,
          "internalType": "uint256",
          "name": "value",
          "type": "uint256"
        }
      ],
      "name": "Transfer",
      "type": "event"
    },
    {
      "anonymous": false,
      "inputs": [
        {
          "indexed": true,
          "internalType": "address",
          "name": "sender",
          "type": "address"
        },
        {
          "indexed": true,
          "internalType": "address",
          "name": "receiver",
          "type": "address"
        },
        {
          "indexed": true,
          "internalType": "address",
          "name": "owner",
          "type": "address"
        },
        {
          "indexed": false,
          "internalType": "uint256",
          "name": "assets",
          "type": "uint256"
        },
        {
          "indexed": false,
          "internalType": "uint256",
          "name": "shares",
          "type": "uint256"
        }
      ],
      "name": "Withdraw",
      "type": "event"
    },
    {
      "inputs": [
        {
          "internalType": "address",
          "name": "owner",
          "type": "address"
        },
        {
          "internalType": "address",
          "name": "spender",
          "type": "address"
        }
      ],
      "name": "allowance",
      "outputs": [
        {
          "internalType": "uint256",
          "name": "",
          "type": "uint256"
        }
      ],
      "stateMutability": "view",
      "type": "function"
    },
    {
      "inputs": [
        {
          "internalType": "address",
          "name": "spender",
          "type": "address"
        },
        {
          "internalType": "uint256",
          "name": "amount",
          "type": "uint256"
        }
      ],
      "name": "approve",
      "outputs": [
        {
          "internalType": "bool",
          "name": "",
          "type": "bool"
        }
      ],
      "stateMutability": "nonpayable",
      "type": "function"
    },
    {
      "inputs": [],
      "name": "asset",
      "outputs": [
        {
          "internalType": "address",
          "name": "",
          "type": "address"
        }
      ],
      "stateMutability": "view",
      "type": "function"
    },
    {
      "inputs": [
        {
          "internalType": "address",
          "name": "account",
          "type": "address"
        }
      ],
      "name": "balanceOf",
      "outputs": [
        {
          "internalType": "uint256",
          "name": "",
          "type": "uint256"
        }
      ],
      "stateMutability": "view",
      "type": "function"
    },
    {
      "inputs": [
        {
          "internalType": "uint256",
          "name": "shares",
          "type": "uint256"
        }
      ],
      "name": "convertToAssets",
      "outputs": [
        {
          "internalType": "uint256",
          "name": "assets",
          "type": "uint256"
        }
      ],
      "stateMutability": "view",
      "type": "function"
    },
    {
      "inputs": [
        {
          "internalType": "uint256",
          "name": "assets",
          "type": "uint256"
        }
      ],
      "name": "convertToShares",
      "outputs": [
        {
          "internalType": "uint256",
          "name": "shares",
          "type": "uint256"
        }
      ],
      "stateMutability": "view",
      "type": "function"
    },
    {
      "inputs": [],
      "name": "decimals",
      "outputs": [
        {
          "internalType": "uint8",
          "name": "",
          "type": "uint8"
        }
      ],
      "stateMutability": "view",
      "type": "function"
    },
    {
      "inputs": [
        {
          "internalType": "address",
          "name": "spender",
          "type": "address"
        },
        {
          "internalType": "uint256",
          "name": "subtractedValue",
          "type": "uint256"
        }
      ],
      "name": "decreaseAllowance",
      "outputs": [
        {
          "internalType": "bool",
          "name": "",
          "type": "bool"
        }
      ],
      "stateMutability": "nonpayable",
      "type": "function"
    },
    {
      "inputs": [
        {
          "internalType": "uint256",
          "name": "assets",
          "type": "uint256"
        },
        {
          "internalType": "address",
          "name": "receiver",
          "type": "address"
        }
      ],
      "name": "deposit",
      "outputs": [
        {
          "internalType": "uint256",
          "name": "",
          "type": "uint256"
        }
      ],
      "stateMutability": "nonpayable",
      "type": "function"
    },
    {
      "inputs": [
        {
          "internalType": "address",
          "name": "spender",
          "type": "address"
        },
        {
          "internalType": "uint256",
          "name": "addedValue",
          "type": "uint256"
        }
      ],
      "name": "increaseAllowance",
      "outputs": [
        {
          "internalType": "bool",
          "name": "",
          "type": "bool"
        }
      ],
      "stateMutability": "nonpayable",
      "type": "function"
    },
    {
      "inputs": [
        {
          "internalType": "address",
          "name": "",
          "type": "address"
        }
      ],
      "name": "maxDeposit",
      "outputs": [
        {
          "internalType": "uint256",
          "name": "",
          "type": "uint256"
        }
      ],
      "stateMutability": "view",
      "type": "function"
    },
    {
      "inputs": [
        {
          "internalType": "address",
          "name": "",
          "type": "address"
        }
      ],
      "name": "maxMint",
      "outputs": [
        {
          "internalType": "uint256",
          "name": "",
          "type": "uint256"
        }
      ],
      "stateMutability": "view",
      "type": "function"
    },
    {
      "inputs": [
        {
          "internalType": "address",
          "name": "owner",
          "type": "address"
        }
      ],
      "name": "maxRedeem",
      "outputs": [
        {
          "internalType": "uint256",
          "name": "",
          "type": "uint256"
        }
      ],
      "stateMutability": "view",
      "type": "function"
    },
    {
      "inputs": [
        {
          "internalType": "address",
          "name": "owner",
          "type": "address"
        }
      ],
      "name": "maxWithdraw",
      "outputs": [
        {
          "internalType": "uint256",
          "name": "",
          "type": "uint256"
        }
      ],
      "stateMutability": "view",
      "type": "function"
    },
    {
      "inputs": [
        {
          "internalType": "uint256",
          "name": "shares",
          "type": "uint256"
        },
        {
          "internalType": "address",
          "name": "receiver",
          "type": "address"
        }
      ],
      "name": "mint",
      "outputs": [
        {
          "internalType": "uint256",
          "name": "",
          "type": "uint256"
        }
      ],
      "stateMutability": "nonpayable",
      "type": "function"
    },
    {
      "inputs": [
        {
          "internalType": "address",
          "name": "account",
          "type": "address"
        },
        {
          "internalType": "uint256",
          "name": "amount",
          "type": "uint256"
        }
      ],
      "name": "mockBurn",
      "outputs": [],
      "stateMutability": "nonpayable",
      "type": "function"
    },
    {
      "inputs": [
        {
          "internalType": "address",
          "name": "account",
          "type": "address"
        },
        {
          "internalType": "uint256",
          "name": "amount",
          "type": "uint256"
        }
      ],
      "name": "mockMint",
      "outputs": [],
      "stateMutability": "nonpayable",
      "type": "function"
    },
    {
      "inputs": [],
      "name": "name",
      "outputs": [
        {
          "internalType": "string",
          "name": "",
          "type": "string"
        }
      ],
      "stateMutability": "view",
      "type": "function"
    },
    {
      "inputs": [
        {
          "internalType": "uint256",
          "name": "assets",
          "type": "uint256"
        }
      ],
      "name": "previewDeposit",
      "outputs": [
        {
          "internalType": "uint256",
          "name": "",
          "type": "uint256"
        }
      ],
      "stateMutability": "view",
      "type": "function"
    },
    {
      "inputs": [
        {
          "internalType": "uint256",
          "name": "shares",
          "type": "uint256"
        }
      ],
      "name": "previewMint",
      "outputs": [
        {
          "internalType": "uint256",
          "name": "",
          "type": "uint256"
        }
      ],
      "stateMutability": "view",
      "type": "function"
    },
    {
      "inputs": [
        {
          "internalType": "uint256",
          "name": "shares",
          "type": "uint256"
        }
      ],
      "name": "previewRedeem",
      "outputs": [
        {
          "internalType": "uint256",
          "name": "",
          "type": "uint256"
        }
      ],
      "stateMutability": "view",
      "type": "function"
    },
    {
      "inputs": [
        {
          "internalType": "uint256",
          "name": "assets",
          "type": "uint256"
        }
      ],
      "name": "previewWithdraw",
      "outputs": [
        {
          "internalType": "uint256",
          "name": "",
          "type": "uint256"
        }
      ],
      "stateMutability": "view",
      "type": "function"
    },
    {
      "inputs": [
        {
          "internalType": "uint256",
          "name": "shares",
          "type": "uint256"
        },
        {
          "internalType": "address",
          "name": "receiver",
          "type": "address"
        },
        {
          "internalType": "address",
          "name": "owner",
          "type": "address"
        }
      ],
      "name": "redeem",
      "outputs": [
        {
          "internalType": "uint256",
          "name": "",
          "type": "uint256"
        }
      ],
      "stateMutability": "nonpayable",
      "type": "function"
    },
    {
      "inputs": [],
      "name": "symbol",
      "outputs": [
        {
          "internalType": "string",
          "name": "",
          "type": "string"
        }
      ],
      "stateMutability": "view",
      "type": "function"
    },
    {
      "inputs": [],
      "name": "totalAssets",
      "outputs": [
        {
          "internalType": "uint256",
          "name": "",
          "type": "uint256"
        }
      ],
      "stateMutability": "view",
      "type": "function"
    },
    {
      "inputs": [],
      "name": "totalSupply",
      "outputs": [
        {
          "internalType": "uint256",
          "name": "",
          "type": "uint256"
        }
      ],
      "stateMutability": "view",
      "type": "function"
    },
    {
      "inputs": [
        {
          "internalType": "address",
          "name": "to",
          "type": "address"
        },
        {
          "internalType": "uint256",
          "name": "amount",
          "type": "uint256"
        }
      ],
      "name": "transfer",
      "outputs": [
        {
          "internalType": "bool",
          "name": "",
          "type": "bool"
        }
      ],
      "stateMutability": "nonpayable",
      "type": "function"
    },
    {
      "inputs": [
        {
          "internalType": "address",
          "name": "from",
          "type": "address"
        },
        {
          "internalType": "address",
          "name": "to",
          "type": "address"
        },
        {
          "internalType": "uint256",
          "name": "amount",
          "type": "uint256"
        }
      ],
      "name": "transferFrom",
      "outputs": [
        {
          "internalType": "bool",
          "name": "",
          "type": "bool"
        }
      ],
      "stateMutability": "nonpayable",
      "type": "function"
    },
    {
      "inputs": [
        {
          "internalType": "uint256",
          "name": "assets",
          "type": "uint256"
        },
        {
          "internalType": "address",
          "name": "receiver",
          "type": "address"
        },
        {
          "internalType": "address",
          "name": "owner",
          "type": "address"
        }
      ],
      "name": "withdraw",
      "outputs": [
        {
          "internalType": "uint256",
          "name": "",
          "type": "uint256"
        }
      ],
      "stateMutability": "nonpayable",
      "type": "function"
    }
  ],
  "bytecode": "0x60c06040523480156200001157600080fd5b506040516200359638038062003596833981810160405281019062000037919062000439565b82828281600390816200004b91906200071e565b5080600490816200005d91906200071e565b5050506000806200007483620000e860201b60201c565b91509150816200009957620000936200022460201b62000dcb1760201c565b6200009b565b805b60ff1660a08160ff16815250508273ffffffffffffffffffffffffffffffffffffffff1660808173ffffffffffffffffffffffffffffffffffffffff1681525050505050505050620008ce565b6000806000808473ffffffffffffffffffffffffffffffffffffffff1663313ce56760e01b604051602401604051602081830303815290604052907bffffffffffffffffffffffffffffffffffffffffffffffffffffffff19166020820180517bffffffffffffffffffffffffffffffffffffffffffffffffffffffff83818316178352505050506040516200017f919062000852565b6000604051808303816000865af19150503d8060008114620001be576040519150601f19603f3d011682016040523d82523d6000602084013e620001c3565b606091505b5091509150818015620001d857506020815110155b156200021557600081806020019051810190620001f691906200089c565b905060ff801681116200021357600181945094505050506200021f565b505b6000809350935050505b915091565b60006012905090565b6000604051905090565b600080fd5b600080fd5b600073ffffffffffffffffffffffffffffffffffffffff82169050919050565b60006200026e8262000241565b9050919050565b6000620002828262000261565b9050919050565b620002948162000275565b8114620002a057600080fd5b50565b600081519050620002b48162000289565b92915050565b600080fd5b600080fd5b6000601f19601f8301169050919050565b7f4e487b7100000000000000000000000000000000000000000000000000000000600052604160045260246000fd5b6200030f82620002c4565b810181811067ffffffffffffffff82111715620003315762000330620002d5565b5b80604052505050565b6000620003466200022d565b905062000354828262000304565b919050565b600067ffffffffffffffff821115620003775762000376620002d5565b5b6200038282620002c4565b9050602081019050919050565b60005b83811015620003af57808201518184015260208101905062000392565b60008484015250505050565b6000620003d2620003cc8462000359565b6200033a565b905082815260208101848484011115620003f157620003f0620002bf565b5b620003fe8482856200038f565b509392505050565b600082601f8301126200041e576200041d620002ba565b5b815162000430848260208601620003bb565b91505092915050565b60008060006060848603121562000455576200045462000237565b5b60006200046586828701620002a3565b935050602084015167ffffffffffffffff8111156200048957620004886200023c565b5b620004978682870162000406565b925050604084015167ffffffffffffffff811115620004bb57620004ba6200023c565b5b620004c98682870162000406565b9150509250925092565b600081519050919050565b7f4e487b7100000000000000000000000000000000000000000000000000000000600052602260045260246000fd5b600060028204905060018216806200052657607f821691505b6020821081036200053c576200053b620004de565b5b50919050565b60008190508160005260206000209050919050565b60006020601f8301049050919050565b600082821b905092915050565b600060088302620005a67fffffffffffffffffffffffffffffffffffffffffffffffffffffffffffffffff8262000567565b620005b2868362000567565b95508019841693508086168417925050509392505050565b6000819050919050565b6000819050919050565b6000620005ff620005f9620005f384620005ca565b620005d4565b620005ca565b9050919050565b6000819050919050565b6200061b83620005de565b620006336200062a8262000606565b84845462000574565b825550505050565b600090565b6200064a6200063b565b6200065781848462000610565b505050565b5b818110156200067f576200067360008262000640565b6001810190506200065d565b5050565b601f821115620006ce57620006988162000542565b620006a38462000557565b81016020851015620006b3578190505b620006cb620006c28562000557565b8301826200065c565b50505b505050565b600082821c905092915050565b6000620006f360001984600802620006d3565b1980831691505092915050565b60006200070e8383620006e0565b9150826002028217905092915050565b6200072982620004d3565b67ffffffffffffffff811115620007455762000744620002d5565b5b6200075182546200050d565b6200075e82828562000683565b600060209050601f83116001811462000796576000841562000781578287015190505b6200078d858262000700565b865550620007fd565b601f198416620007a68662000542565b60005b82811015620007d057848901518255600182019150602085019450602081019050620007a9565b86831015620007f05784890151620007ec601f891682620006e0565b8355505b6001600288020188555050505b505050505050565b600081519050919050565b600081905092915050565b6000620008288262000805565b62000834818562000810565b9350620008468185602086016200038f565b80840191505092915050565b60006200086082846200081b565b915081905092915050565b6200087681620005ca565b81146200088257600080fd5b50565b60008151905062000896816200086b565b92915050565b600060208284031215620008b557620008b462000237565b5b6000620008c58482850162000885565b91505092915050565b60805160a051612c8d62000909600039600061086b0152600081816106b4015281816108a10152818161169501526117810152612c8d6000f3fe608060405234801561001057600080fd5b50600436106101cf5760003560e01c80636e553f6511610104578063b460af94116100a2578063ce96cb7711610071578063ce96cb77146105f0578063d905777e14610620578063dd62ed3e14610650578063ef8b30f714610680576101cf565b8063b460af9414610530578063ba08765214610560578063c63d75b614610590578063c6e6f592146105c0576101cf565b806395d89b41116100de57806395d89b4114610482578063a457c2d7146104a0578063a9059cbb146104d0578063b3d7f6b914610500576101cf565b80636e553f65146103f257806370a082311461042257806394bf804d14610452576101cf565b8063313ce56711610171578063395093511161014b5780633950935114610346578063402d267d14610376578063492dc938146103a65780634cdad506146103c2576101cf565b8063313ce567146102ee578063378934b41461030c57806338d52e0f14610328576101cf565b8063095ea7b3116101ad578063095ea7b3146102405780630a28a4771461027057806318160ddd146102a057806323b872dd146102be576101cf565b806301e1d114146101d457806306fdde03146101f257806307a2d13a14610210575b600080fd5b6101dc6106b0565b6040516101e99190611d59565b60405180910390f35b6101fa610751565b6040516102079190611e04565b60405180910390f35b61022a60048036038101906102259190611e57565b6107e3565b6040516102379190611d59565b60405180910390f35b61025a60048036038101906102559190611ee2565b6107f7565b6040516102679190611f3d565b60405180910390f35b61028a60048036038101906102859190611e57565b61081a565b6040516102979190611d59565b60405180910390f35b6102a861082e565b6040516102b59190611d59565b60405180910390f35b6102d860048036038101906102d39190611f58565b610838565b6040516102e59190611f3d565b60405180910390f35b6102f6610867565b6040516103039190611fc7565b60405180910390f35b61032660048036038101906103219190611ee2565b61088f565b005b61033061089d565b60405161033d9190611ff1565b60405180910390f35b610360600480360381019061035b9190611ee2565b6108c5565b60405161036d9190611f3d565b60405180910390f35b610390600480360381019061038b919061200c565b6108fc565b60405161039d9190611d59565b60405180910390f35b6103c060048036038101906103bb9190611ee2565b61093a565b005b6103dc60048036038101906103d79190611e57565b610948565b6040516103e99190611d59565b60405180910390f35b61040c60048036038101906104079190612039565b61095c565b6040516104199190611d59565b60405180910390f35b61043c6004803603810190610437919061200c565b6109d3565b6040516104499190611d59565b60405180910390f35b61046c60048036038101906104679190612039565b610a1b565b6040516104799190611d59565b60405180910390f35b61048a610a92565b6040516104979190611e04565b60405180910390f35b6104ba60048036038101906104b59190611ee2565b610b24565b6040516104c79190611f3d565b60405180910390f35b6104ea60048036038101906104e59190611ee2565b610b9b565b6040516104f79190611f3d565b60405180910390f35b61051a60048036038101906105159190611e57565b610bbe565b6040516105279190611d59565b60405180910390f35b61054a60048036038101906105459190612079565b610bd2565b6040516105579190611d59565b60405180910390f35b61057a60048036038101906105759190612079565b610c4b565b6040516105879190611d59565b60405180910390f35b6105aa60048036038101906105a5919061200c565b610cc4565b6040516105b79190611d59565b60405180910390f35b6105da60048036038101906105d59190611e57565b610cee565b6040516105e79190611d59565b60405180910390f35b61060a6004803603810190610605919061200c565b610d02565b6040516106179190611d59565b60405180910390f35b61063a6004803603810190610635919061200c565b610d1e565b6040516106479190611d59565b60405180910390f35b61066a600480360381019061066591906120cc565b610d30565b6040516106779190611d59565b60405180910390f35b61069a60048036038101906106959190611e57565b610db7565b6040516106a79190611d59565b60405180910390f35b60007f000000000000000000000000000000000000000000000000000000000000000073ffffffffffffffffffffffffffffffffffffffff166370a08231306040518263ffffffff1660e01b815260040161070b9190611ff1565b602060405180830381865afa158015610728573d6000803e3d6000fd5b505050506040513d601f19601f8201168201806040525081019061074c9190612121565b905090565b6060600380546107609061217d565b80601f016020809104026020016040519081016040528092919081815260200182805461078c9061217d565b80156107d95780601f106107ae576101008083540402835291602001916107d9565b820191906000526020600020905b8154815290600101906020018083116107bc57829003601f168201915b5050505050905090565b60006107f0826000610dd4565b9050919050565b600080610802610e20565b905061080f818585610e28565b600191505092915050565b6000610827826001610ff1565b9050919050565b6000600254905090565b600080610843610e20565b9050610850858285611048565b61085b8585856110d4565b60019150509392505050565b60007f0000000000000000000000000000000000000000000000000000000000000000905090565b610899828261134a565b5050565b60007f0000000000000000000000000000000000000000000000000000000000000000905090565b6000806108d0610e20565b90506108f18185856108e28589610d30565b6108ec91906121dd565b610e28565b600191505092915050565b60006109066114a0565b610911576000610933565b7fffffffffffffffffffffffffffffffffffffffffffffffffffffffffffffffff5b9050919050565b61094482826114c3565b5050565b6000610955826000610dd4565b9050919050565b6000610967826108fc565b8311156109a9576040517f08c379a00000000000000000000000000000000000000000000000000000000081526004016109a09061225d565b60405180910390fd5b60006109b484610db7565b90506109c96109c1610e20565b848684611690565b8091505092915050565b60008060008373ffffffffffffffffffffffffffffffffffffffff1673ffffffffffffffffffffffffffffffffffffffff168152602001908152602001600020549050919050565b6000610a2682610cc4565b831115610a68576040517f08c379a0000000000000000000000000000000000000000000000000000000008152600401610a5f906122c9565b60405180910390fd5b6000610a7384610bbe565b9050610a88610a80610e20565b848387611690565b8091505092915050565b606060048054610aa19061217d565b80601f0160208091040260200160405190810160405280929190818152602001828054610acd9061217d565b8015610b1a5780601f10610aef57610100808354040283529160200191610b1a565b820191906000526020600020905b815481529060010190602001808311610afd57829003601f168201915b5050505050905090565b600080610b2f610e20565b90506000610b3d8286610d30565b905083811015610b82576040517f08c379a0000000000000000000000000000000000000000000000000000000008152600401610b799061235b565b60405180910390fd5b610b8f8286868403610e28565b60019250505092915050565b600080610ba6610e20565b9050610bb38185856110d4565b600191505092915050565b6000610bcb826001610dd4565b9050919050565b6000610bdd82610d02565b841115610c1f576040517f08c379a0000000000000000000000000000000000000000000000000000000008152600401610c16906123c7565b60405180910390fd5b6000610c2a8561081a565b9050610c40610c37610e20565b85858885611733565b809150509392505050565b6000610c5682610d1e565b841115610c98576040517f08c379a0000000000000000000000000000000000000000000000000000000008152600401610c8f90612433565b60405180910390fd5b6000610ca385610948565b9050610cb9610cb0610e20565b85858489611733565b809150509392505050565b60007fffffffffffffffffffffffffffffffffffffffffffffffffffffffffffffffff9050919050565b6000610cfb826000610ff1565b9050919050565b6000610d17610d10836109d3565b6000610dd4565b9050919050565b6000610d29826109d3565b9050919050565b6000600160008473ffffffffffffffffffffffffffffffffffffffff1673ffffffffffffffffffffffffffffffffffffffff16815260200190815260200160002060008373ffffffffffffffffffffffffffffffffffffffff1673ffffffffffffffffffffffffffffffffffffffff16815260200190815260200160002054905092915050565b6000610dc4826000610ff1565b9050919050565b60006012905090565b600080610ddf61082e565b905060008114610e0c57610e07610df46106b0565b82858761182c909392919063ffffffff16565b610e17565b610e1684846118a2565b5b91505092915050565b600033905090565b600073ffffffffffffffffffffffffffffffffffffffff168373ffffffffffffffffffffffffffffffffffffffff1603610e97576040517f08c379a0000000000000000000000000000000000000000000000000000000008152600401610e8e906124c5565b60405180910390fd5b600073ffffffffffffffffffffffffffffffffffffffff168273ffffffffffffffffffffffffffffffffffffffff1603610f06576040517f08c379a0000000000000000000000000000000000000000000000000000000008152600401610efd90612557565b60405180910390fd5b80600160008573ffffffffffffffffffffffffffffffffffffffff1673ffffffffffffffffffffffffffffffffffffffff16815260200190815260200160002060008473ffffffffffffffffffffffffffffffffffffffff1673ffffffffffffffffffffffffffffffffffffffff168152602001908152602001600020819055508173ffffffffffffffffffffffffffffffffffffffff168373ffffffffffffffffffffffffffffffffffffffff167f8c5be1e5ebec7d5bd14f71427d1e84f3dd0314c0f7b2291e5b200ac8c7c3b92583604051610fe49190611d59565b60405180910390a3505050565b600080610ffc61082e565b9050600084148061100d5750600081145b6110345761102f8161101d6106b0565b858761182c909392919063ffffffff16565b61103f565b61103e84846118ad565b5b91505092915050565b60006110548484610d30565b90507fffffffffffffffffffffffffffffffffffffffffffffffffffffffffffffffff81146110ce57818110156110c0576040517f08c379a00000000000000000000000000000000000000000000000000000000081526004016110b7906125c3565b60405180910390fd5b6110cd8484848403610e28565b5b50505050565b600073ffffffffffffffffffffffffffffffffffffffff168373ffffffffffffffffffffffffffffffffffffffff1603611143576040517f08c379a000000000000000000000000000000000000000000000000000000000815260040161113a90612655565b60405180910390fd5b600073ffffffffffffffffffffffffffffffffffffffff168273ffffffffffffffffffffffffffffffffffffffff16036111b2576040517f08c379a00000000000000000000000000000000000000000000000000000000081526004016111a9906126e7565b60405180910390fd5b6111bd8383836118b8565b60008060008573ffffffffffffffffffffffffffffffffffffffff1673ffffffffffffffffffffffffffffffffffffffff16815260200190815260200160002054905081811015611243576040517f08c379a000000000000000000000000000000000000000000000000000000000815260040161123a90612779565b60405180910390fd5b8181036000808673ffffffffffffffffffffffffffffffffffffffff1673ffffffffffffffffffffffffffffffffffffffff16815260200190815260200160002081905550816000808573ffffffffffffffffffffffffffffffffffffffff1673ffffffffffffffffffffffffffffffffffffffff168152602001908152602001600020600082825401925050819055508273ffffffffffffffffffffffffffffffffffffffff168473ffffffffffffffffffffffffffffffffffffffff167fddf252ad1be2c89b69c2b068fc378daa952ba7f163c4a11628f55a4df523b3ef846040516113319190611d59565b60405180910390a36113448484846118bd565b50505050565b600073ffffffffffffffffffffffffffffffffffffffff168273ffffffffffffffffffffffffffffffffffffffff16036113b9576040517f08c379a00000000000000000000000000000000000000000000000000000000081526004016113b0906127e5565b60405180910390fd5b6113c5600083836118b8565b80600260008282546113d791906121dd565b92505081905550806000808473ffffffffffffffffffffffffffffffffffffffff1673ffffffffffffffffffffffffffffffffffffffff168152602001908152602001600020600082825401925050819055508173ffffffffffffffffffffffffffffffffffffffff16600073ffffffffffffffffffffffffffffffffffffffff167fddf252ad1be2c89b69c2b068fc378daa952ba7f163c4a11628f55a4df523b3ef836040516114889190611d59565b60405180910390a361149c600083836118bd565b5050565b6000806114ab6106b0565b11806114be575060006114bc61082e565b145b905090565b600073ffffffffffffffffffffffffffffffffffffffff168273ffffffffffffffffffffffffffffffffffffffff1603611532576040517f08c379a000000000000000000000000000000000000000000000000000000000815260040161152990612877565b60405180910390fd5b61153e826000836118b8565b60008060008473ffffffffffffffffffffffffffffffffffffffff1673ffffffffffffffffffffffffffffffffffffffff168152602001908152602001600020549050818110156115c4576040517f08c379a00000000000000000000000000000000000000000000000000000000081526004016115bb90612909565b60405180910390fd5b8181036000808573ffffffffffffffffffffffffffffffffffffffff1673ffffffffffffffffffffffffffffffffffffffff1681526020019081526020016000208190555081600260008282540392505081905550600073ffffffffffffffffffffffffffffffffffffffff168373ffffffffffffffffffffffffffffffffffffffff167fddf252ad1be2c89b69c2b068fc378daa952ba7f163c4a11628f55a4df523b3ef846040516116779190611d59565b60405180910390a361168b836000846118bd565b505050565b6116bc7f00000000000000000000000000000000000000000000000000000000000000008530856118c2565b6116c6838261134a565b8273ffffffffffffffffffffffffffffffffffffffff168473ffffffffffffffffffffffffffffffffffffffff167fdcbc1c05240f31ff3ad067ef1ee35ce4997762752e3a095284754544f4c709d78484604051611725929190612929565b60405180910390a350505050565b8273ffffffffffffffffffffffffffffffffffffffff168573ffffffffffffffffffffffffffffffffffffffff161461177257611771838683611048565b5b61177c83826114c3565b6117a77f0000000000000000000000000000000000000000000000000000000000000000858461194b565b8273ffffffffffffffffffffffffffffffffffffffff168473ffffffffffffffffffffffffffffffffffffffff168673ffffffffffffffffffffffffffffffffffffffff167ffbde797d201c681b91056529119e0b02407c7bb96a4a2c75c01fc9667232c8db858560405161181d929190612929565b60405180910390a45050505050565b60008061183a8686866119d1565b9050600160028111156118505761184f612952565b5b83600281111561186357611862612952565b5b14801561188157506000848061187c5761187b612981565b5b868809115b156118965760018161189391906121dd565b90505b80915050949350505050565b600082905092915050565b600082905092915050565b505050565b505050565b611945846323b872dd60e01b8585856040516024016118e3939291906129b0565b604051602081830303815290604052907bffffffffffffffffffffffffffffffffffffffffffffffffffffffff19166020820180517bffffffffffffffffffffffffffffffffffffffffffffffffffffffff8381831617835250505050611aac565b50505050565b6119cc8363a9059cbb60e01b848460405160240161196a9291906129e7565b604051602081830303815290604052907bffffffffffffffffffffffffffffffffffffffffffffffffffffffff19166020820180517bffffffffffffffffffffffffffffffffffffffffffffffffffffffff8381831617835250505050611aac565b505050565b6000806000801985870985870292508281108382030391505060008103611a0c57838281611a0257611a01612981565b5b0492505050611aa5565b808411611a1857600080fd5b60008486880990508281118203915080830392506000600186190186169050808604955080840493506001818260000304019050808302841793506000600287600302189050808702600203810290508087026002038102905080870260020381029050808702600203810290508087026002038102905080870260020381029050808502955050505050505b9392505050565b6000611b0e826040518060400160405280602081526020017f5361666545524332303a206c6f772d6c6576656c2063616c6c206661696c65648152508573ffffffffffffffffffffffffffffffffffffffff16611b739092919063ffffffff16565b9050600081511115611b6e5780806020019051810190611b2e9190612a3c565b611b6d576040517f08c379a0000000000000000000000000000000000000000000000000000000008152600401611b6490612adb565b60405180910390fd5b5b505050565b6060611b828484600085611b8b565b90509392505050565b606082471015611bd0576040517f08c379a0000000000000000000000000000000000000000000000000000000008152600401611bc790612b6d565b60405180910390fd5b6000808673ffffffffffffffffffffffffffffffffffffffff168587604051611bf99190612bd4565b60006040518083038185875af1925050503d8060008114611c36576040519150601f19603f3d011682016040523d82523d6000602084013e611c3b565b606091505b5091509150611c4c87838387611c58565b92505050949350505050565b60608315611cba576000835103611cb257611c7285611ccd565b611cb1576040517f08c379a0000000000000000000000000000000000000000000000000000000008152600401611ca890612c37565b60405180910390fd5b5b829050611cc5565b611cc48383611cf0565b5b949350505050565b6000808273ffffffffffffffffffffffffffffffffffffffff163b119050919050565b600082511115611d035781518083602001fd5b806040517f08c379a0000000000000000000000000000000000000000000000000000000008152600401611d379190611e04565b60405180910390fd5b6000819050919050565b611d5381611d40565b82525050565b6000602082019050611d6e6000830184611d4a565b92915050565b600081519050919050565b600082825260208201905092915050565b60005b83811015611dae578082015181840152602081019050611d93565b60008484015250505050565b6000601f19601f8301169050919050565b6000611dd682611d74565b611de08185611d7f565b9350611df0818560208601611d90565b611df981611dba565b840191505092915050565b60006020820190508181036000830152611e1e8184611dcb565b905092915050565b600080fd5b611e3481611d40565b8114611e3f57600080fd5b50565b600081359050611e5181611e2b565b92915050565b600060208284031215611e6d57611e6c611e26565b5b6000611e7b84828501611e42565b91505092915050565b600073ffffffffffffffffffffffffffffffffffffffff82169050919050565b6000611eaf82611e84565b9050919050565b611ebf81611ea4565b8114611eca57600080fd5b50565b600081359050611edc81611eb6565b92915050565b60008060408385031215611ef957611ef8611e26565b5b6000611f0785828601611ecd565b9250506020611f1885828601611e42565b9150509250929050565b60008115159050919050565b611f3781611f22565b82525050565b6000602082019050611f526000830184611f2e565b92915050565b600080600060608486031215611f7157611f70611e26565b5b6000611f7f86828701611ecd565b9350506020611f9086828701611ecd565b9250506040611fa186828701611e42565b9150509250925092565b600060ff82169050919050565b611fc181611fab565b82525050565b6000602082019050611fdc6000830184611fb8565b92915050565b611feb81611ea4565b82525050565b60006020820190506120066000830184611fe2565b92915050565b60006020828403121561202257612021611e26565b5b600061203084828501611ecd565b91505092915050565b600080604083850312156120505761204f611e26565b5b600061205e85828601611e42565b925050602061206f85828601611ecd565b9150509250929050565b60008060006060848603121561209257612091611e26565b5b60006120a086828701611e42565b93505060206120b186828701611ecd565b92505060406120c286828701611ecd565b9150509250925092565b600080604083850312156120e3576120e2611e26565b5b60006120f185828601611ecd565b925050602061210285828601611ecd565b9150509250929050565b60008151905061211b81611e2b565b92915050565b60006020828403121561213757612136611e26565b5b60006121458482850161210c565b91505092915050565b7f4e487b7100000000000000000000000000000000000000000000000000000000600052602260045260246000fd5b6000600282049050600182168061219557607f821691505b6020821081036121a8576121a761214e565b5b50919050565b7f4e487b7100000000000000000000000000000000000000000000000000000000600052601160045260246000fd5b60006121e882611d40565b91506121f383611d40565b925082820190508082111561220b5761220a6121ae565b5b92915050565b7f455243343632363a206465706f736974206d6f7265207468616e206d61780000600082015250565b6000612247601e83611d7f565b915061225282612211565b602082019050919050565b600060208201905081810360008301526122768161223a565b9050919050565b7f455243343632363a206d696e74206d6f7265207468616e206d61780000000000600082015250565b60006122b3601b83611d7f565b91506122be8261227d565b602082019050919050565b600060208201905081810360008301526122e2816122a6565b9050919050565b7f45524332303a2064656372656173656420616c6c6f77616e63652062656c6f7760008201527f207a65726f000000000000000000000000000000000000000000000000000000602082015250565b6000612345602583611d7f565b9150612350826122e9565b604082019050919050565b6000602082019050818103600083015261237481612338565b9050919050565b7f455243343632363a207769746864726177206d6f7265207468616e206d617800600082015250565b60006123b1601f83611d7f565b91506123bc8261237b565b602082019050919050565b600060208201905081810360008301526123e0816123a4565b9050919050565b7f455243343632363a2072656465656d206d6f7265207468616e206d6178000000600082015250565b600061241d601d83611d7f565b9150612428826123e7565b602082019050919050565b6000602082019050818103600083015261244c81612410565b9050919050565b7f45524332303a20617070726f76652066726f6d20746865207a65726f2061646460008201527f7265737300000000000000000000000000000000000000000000000000000000602082015250565b60006124af602483611d7f565b91506124ba82612453565b604082019050919050565b600060208201905081810360008301526124de816124a2565b9050919050565b7f45524332303a20617070726f766520746f20746865207a65726f20616464726560008201527f7373000000000000000000000000000000000000000000000000000000000000602082015250565b6000612541602283611d7f565b915061254c826124e5565b604082019050919050565b6000602082019050818103600083015261257081612534565b9050919050565b7f45524332303a20696e73756666696369656e7420616c6c6f77616e6365000000600082015250565b60006125ad601d83611d7f565b91506125b882612577565b602082019050919050565b600060208201905081810360008301526125dc816125a0565b9050919050565b7f45524332303a207472616e736665722066726f6d20746865207a65726f20616460008201527f6472657373000000000000000000000000000000000000000000000000000000602082015250565b600061263f602583611d7f565b915061264a826125e3565b604082019050919050565b6000602082019050818103600083015261266e81612632565b9050919050565b7f45524332303a207472616e7366657220746f20746865207a65726f206164647260008201527f6573730000000000000000000000000000000000000000000000000000000000602082015250565b60006126d1602383611d7f565b91506126dc82612675565b604082019050919050565b60006020820190508181036000830152612700816126c4565b9050919050565b7f45524332303a207472616e7366657220616d6f756e742065786365656473206260008201527f616c616e63650000000000000000000000000000000000000000000000000000602082015250565b6000612763602683611d7f565b915061276e82612707565b604082019050919050565b6000602082019050818103600083015261279281612756565b9050919050565b7f45524332303a206d696e7420746f20746865207a65726f206164647265737300600082015250565b60006127cf601f83611d7f565b91506127da82612799565b602082019050919050565b600060208201905081810360008301526127fe816127c2565b9050919050565b7f45524332303a206275726e2066726f6d20746865207a65726f2061646472657360008201527f7300000000000000000000000000000000000000000000000000000000000000602082015250565b6000612861602183611d7f565b915061286c82612805565b604082019050919050565b6000602082019050818103600083015261289081612854565b9050919050565b7f45524332303a206275726e20616d6f756e7420657863656564732062616c616e60008201527f6365000000000000000000000000000000000000000000000000000000000000602082015250565b60006128f3602283611d7f565b91506128fe82612897565b604082019050919050565b60006020820190508181036000830152612922816128e6565b9050919050565b600060408201905061293e6000830185611d4a565b61294b6020830184611d4a565b9392505050565b7f4e487b7100000000000000000000000000000000000000000000000000000000600052602160045260246000fd5b7f4e487b7100000000000000000000000000000000000000000000000000000000600052601260045260246000fd5b60006060820190506129c56000830186611fe2565b6129d26020830185611fe2565b6129df6040830184611d4a565b949350505050565b60006040820190506129fc6000830185611fe2565b612a096020830184611d4a565b9392505050565b612a1981611f22565b8114612a2457600080fd5b50565b600081519050612a3681612a10565b92915050565b600060208284031215612a5257612a51611e26565b5b6000612a6084828501612a27565b91505092915050565b7f5361666545524332303a204552433230206f7065726174696f6e20646964206e60008201527f6f74207375636365656400000000000000000000000000000000000000000000602082015250565b6000612ac5602a83611d7f565b9150612ad082612a69565b604082019050919050565b60006020820190508181036000830152612af481612ab8565b9050919050565b7f416464726573733a20696e73756666696369656e742062616c616e636520666f60008201527f722063616c6c0000000000000000000000000000000000000000000000000000602082015250565b6000612b57602683611d7f565b9150612b6282612afb565b604082019050919050565b60006020820190508181036000830152612b8681612b4a565b9050919050565b600081519050919050565b600081905092915050565b6000612bae82612b8d565b612bb88185612b98565b9350612bc8818560208601611d90565b80840191505092915050565b6000612be08284612ba3565b915081905092915050565b7f416464726573733a2063616c6c20746f206e6f6e2d636f6e7472616374000000600082015250565b6000612c21601d83611d7f565b9150612c2c82612beb565b602082019050919050565b60006020820190508181036000830152612c5081612c14565b905091905056fea2646970667358221220a542f39948ffa7c3e3f9dfb9d5edee2b1e83db12dba0129a910b5a3a4c6e196564736f6c63430008110033",
  "linkReferences": {},
  "deployedLinkReferences": {}
}