{
  "_format": "hh-sol-artifact-1",
  "contractName": "ERC20WrapperMock",
  "sourceName": "contracts/mocks/ERC20WrapperMock.sol",
  "abi": [
    {
      "inputs": [
        {
          "internalType": "contract IERC20",
          "name": "_underlyingToken",
          "type": "address"
        },
        {
          "internalType": "string",
          "name": "name",
          "type": "string"
        },
        {
          "internalType": "string",
          "name": "symbol",
          "type": "string"
        }
      ],
      "stateMutability": "nonpayable",
      "type": "constructor"
    },
    {
      "anonymous": false,
      "inputs": [
        {
          "indexed": true,
          "internalType": "address",
          "name": "owner",
          "type": "address"
        },
        {
          "indexed": true,
          "internalType": "address",
          "name": "spender",
          "type": "address"
        },
        {
          "indexed": false,
          "internalType": "uint256",
          "name": "value",
          "type": "uint256"
        }
      ],
      "name": "Approval",
      "type": "event"
    },
    {
      "anonymous": false,
      "inputs": [
        {
          "indexed": true,
          "internalType": "address",
          "name": "from",
          "type": "address"
        },
        {
          "indexed": true,
          "internalType": "address",
          "name": "to",
          "type": "address"
        },
        {
          "indexed": false,
          "internalType": "uint256",
          "name": "value",
          "type": "uint256"
        }
      ],
      "name": "Transfer",
      "type": "event"
    },
    {
      "inputs": [
        {
          "internalType": "address",
          "name": "owner",
          "type": "address"
        },
        {
          "internalType": "address",
          "name": "spender",
          "type": "address"
        }
      ],
      "name": "allowance",
      "outputs": [
        {
          "internalType": "uint256",
          "name": "",
          "type": "uint256"
        }
      ],
      "stateMutability": "view",
      "type": "function"
    },
    {
      "inputs": [
        {
          "internalType": "address",
          "name": "spender",
          "type": "address"
        },
        {
          "internalType": "uint256",
          "name": "amount",
          "type": "uint256"
        }
      ],
      "name": "approve",
      "outputs": [
        {
          "internalType": "bool",
          "name": "",
          "type": "bool"
        }
      ],
      "stateMutability": "nonpayable",
      "type": "function"
    },
    {
      "inputs": [
        {
          "internalType": "address",
          "name": "account",
          "type": "address"
        }
      ],
      "name": "balanceOf",
      "outputs": [
        {
          "internalType": "uint256",
          "name": "",
          "type": "uint256"
        }
      ],
      "stateMutability": "view",
      "type": "function"
    },
    {
      "inputs": [],
      "name": "decimals",
      "outputs": [
        {
          "internalType": "uint8",
          "name": "",
          "type": "uint8"
        }
      ],
      "stateMutability": "view",
      "type": "function"
    },
    {
      "inputs": [
        {
          "internalType": "address",
          "name": "spender",
          "type": "address"
        },
        {
          "internalType": "uint256",
          "name": "subtractedValue",
          "type": "uint256"
        }
      ],
      "name": "decreaseAllowance",
      "outputs": [
        {
          "internalType": "bool",
          "name": "",
          "type": "bool"
        }
      ],
      "stateMutability": "nonpayable",
      "type": "function"
    },
    {
      "inputs": [
        {
          "internalType": "address",
          "name": "account",
          "type": "address"
        },
        {
          "internalType": "uint256",
          "name": "amount",
          "type": "uint256"
        }
      ],
      "name": "depositFor",
      "outputs": [
        {
          "internalType": "bool",
          "name": "",
          "type": "bool"
        }
      ],
      "stateMutability": "nonpayable",
      "type": "function"
    },
    {
      "inputs": [
        {
          "internalType": "address",
          "name": "spender",
          "type": "address"
        },
        {
          "internalType": "uint256",
          "name": "addedValue",
          "type": "uint256"
        }
      ],
      "name": "increaseAllowance",
      "outputs": [
        {
          "internalType": "bool",
          "name": "",
          "type": "bool"
        }
      ],
      "stateMutability": "nonpayable",
      "type": "function"
    },
    {
      "inputs": [],
      "name": "name",
      "outputs": [
        {
          "internalType": "string",
          "name": "",
          "type": "string"
        }
      ],
      "stateMutability": "view",
      "type": "function"
    },
    {
      "inputs": [
        {
          "internalType": "address",
          "name": "account",
          "type": "address"
        }
      ],
      "name": "recover",
      "outputs": [
        {
          "internalType": "uint256",
          "name": "",
          "type": "uint256"
        }
      ],
      "stateMutability": "nonpayable",
      "type": "function"
    },
    {
      "inputs": [],
      "name": "symbol",
      "outputs": [
        {
          "internalType": "string",
          "name": "",
          "type": "string"
        }
      ],
      "stateMutability": "view",
      "type": "function"
    },
    {
      "inputs": [],
      "name": "totalSupply",
      "outputs": [
        {
          "internalType": "uint256",
          "name": "",
          "type": "uint256"
        }
      ],
      "stateMutability": "view",
      "type": "function"
    },
    {
      "inputs": [
        {
          "internalType": "address",
          "name": "to",
          "type": "address"
        },
        {
          "internalType": "uint256",
          "name": "amount",
          "type": "uint256"
        }
      ],
      "name": "transfer",
      "outputs": [
        {
          "internalType": "bool",
          "name": "",
          "type": "bool"
        }
      ],
      "stateMutability": "nonpayable",
      "type": "function"
    },
    {
      "inputs": [
        {
          "internalType": "address",
          "name": "from",
          "type": "address"
        },
        {
          "internalType": "address",
          "name": "to",
          "type": "address"
        },
        {
          "internalType": "uint256",
          "name": "amount",
          "type": "uint256"
        }
      ],
      "name": "transferFrom",
      "outputs": [
        {
          "internalType": "bool",
          "name": "",
          "type": "bool"
        }
      ],
      "stateMutability": "nonpayable",
      "type": "function"
    },
    {
      "inputs": [],
      "name": "underlying",
      "outputs": [
        {
          "internalType": "contract IERC20",
          "name": "",
          "type": "address"
        }
      ],
      "stateMutability": "view",
      "type": "function"
    },
    {
      "inputs": [
        {
          "internalType": "address",
          "name": "account",
          "type": "address"
        },
        {
          "internalType": "uint256",
          "name": "amount",
          "type": "uint256"
        }
      ],
      "name": "withdrawTo",
      "outputs": [
        {
          "internalType": "bool",
          "name": "",
          "type": "bool"
        }
      ],
      "stateMutability": "nonpayable",
      "type": "function"
    }
  ],
  "bytecode": "0x60a06040523480156200001157600080fd5b5060405162002877380380620028778339818101604052810190620000379190620002aa565b82828281600390816200004b91906200058f565b5080600490816200005d91906200058f565b5050508073ffffffffffffffffffffffffffffffffffffffff1660808173ffffffffffffffffffffffffffffffffffffffff16815250505050505062000676565b6000604051905090565b600080fd5b600080fd5b600073ffffffffffffffffffffffffffffffffffffffff82169050919050565b6000620000df82620000b2565b9050919050565b6000620000f382620000d2565b9050919050565b6200010581620000e6565b81146200011157600080fd5b50565b6000815190506200012581620000fa565b92915050565b600080fd5b600080fd5b6000601f19601f8301169050919050565b7f4e487b7100000000000000000000000000000000000000000000000000000000600052604160045260246000fd5b620001808262000135565b810181811067ffffffffffffffff82111715620001a257620001a162000146565b5b80604052505050565b6000620001b76200009e565b9050620001c5828262000175565b919050565b600067ffffffffffffffff821115620001e857620001e762000146565b5b620001f38262000135565b9050602081019050919050565b60005b838110156200022057808201518184015260208101905062000203565b60008484015250505050565b6000620002436200023d84620001ca565b620001ab565b90508281526020810184848401111562000262576200026162000130565b5b6200026f84828562000200565b509392505050565b600082601f8301126200028f576200028e6200012b565b5b8151620002a18482602086016200022c565b91505092915050565b600080600060608486031215620002c657620002c5620000a8565b5b6000620002d68682870162000114565b935050602084015167ffffffffffffffff811115620002fa57620002f9620000ad565b5b620003088682870162000277565b925050604084015167ffffffffffffffff8111156200032c576200032b620000ad565b5b6200033a8682870162000277565b9150509250925092565b600081519050919050565b7f4e487b7100000000000000000000000000000000000000000000000000000000600052602260045260246000fd5b600060028204905060018216806200039757607f821691505b602082108103620003ad57620003ac6200034f565b5b50919050565b60008190508160005260206000209050919050565b60006020601f8301049050919050565b600082821b905092915050565b600060088302620004177fffffffffffffffffffffffffffffffffffffffffffffffffffffffffffffffff82620003d8565b620004238683620003d8565b95508019841693508086168417925050509392505050565b6000819050919050565b6000819050919050565b6000620004706200046a62000464846200043b565b62000445565b6200043b565b9050919050565b6000819050919050565b6200048c836200044f565b620004a46200049b8262000477565b848454620003e5565b825550505050565b600090565b620004bb620004ac565b620004c881848462000481565b505050565b5b81811015620004f057620004e4600082620004b1565b600181019050620004ce565b5050565b601f8211156200053f576200050981620003b3565b6200051484620003c8565b8101602085101562000524578190505b6200053c6200053385620003c8565b830182620004cd565b50505b505050565b600082821c905092915050565b6000620005646000198460080262000544565b1980831691505092915050565b60006200057f838362000551565b9150826002028217905092915050565b6200059a8262000344565b67ffffffffffffffff811115620005b657620005b562000146565b5b620005c282546200037e565b620005cf828285620004f4565b600060209050601f831160018114620006075760008415620005f2578287015190505b620005fe858262000571565b8655506200066e565b601f1984166200061786620003b3565b60005b8281101562000641578489015182556001820191506020850194506020810190506200061a565b868310156200066157848901516200065d601f89168262000551565b8355505b6001600288020188555050505b505050505050565b6080516121c9620006ae60003960008181610459015281816104bf01528181610505015281816105df01526109da01526121c96000f3fe608060405234801561001057600080fd5b50600436106100f55760003560e01c8063313ce5671161009757806395d89b411161006657806395d89b41146102c2578063a457c2d7146102e0578063a9059cbb14610310578063dd62ed3e14610340576100f5565b8063313ce5671461022657806339509351146102445780636f307dc31461027457806370a0823114610292576100f5565b806318160ddd116100d357806318160ddd14610178578063205c28781461019657806323b872dd146101c65780632f4f21e2146101f6576100f5565b806306fdde03146100fa578063095ea7b3146101185780630cd865ec14610148575b600080fd5b610102610370565b60405161010f91906114fc565b60405180910390f35b610132600480360381019061012d91906115b7565b610402565b60405161013f9190611612565b60405180910390f35b610162600480360381019061015d919061162d565b610425565b60405161016f9190611669565b60405180910390f35b610180610437565b60405161018d9190611669565b60405180910390f35b6101b060048036038101906101ab91906115b7565b610441565b6040516101bd9190611612565b60405180910390f35b6101e060048036038101906101db9190611684565b610489565b6040516101ed9190611612565b60405180910390f35b610210600480360381019061020b91906115b7565b6104b8565b60405161021d9190611612565b60405180910390f35b61022e610501565b60405161023b91906116f3565b60405180910390f35b61025e600480360381019061025991906115b7565b6105a6565b60405161026b9190611612565b60405180910390f35b61027c6105dd565b604051610289919061176d565b60405180910390f35b6102ac60048036038101906102a7919061162d565b610601565b6040516102b99190611669565b60405180910390f35b6102ca610649565b6040516102d791906114fc565b60405180910390f35b6102fa60048036038101906102f591906115b7565b6106db565b6040516103079190611612565b60405180910390f35b61032a600480360381019061032591906115b7565b610752565b6040516103379190611612565b60405180910390f35b61035a60048036038101906103559190611788565b610775565b6040516103679190611669565b60405180910390f35b60606003805461037f906117f7565b80601f01602080910402602001604051908101604052809291908181526020018280546103ab906117f7565b80156103f85780601f106103cd576101008083540402835291602001916103f8565b820191906000526020600020905b8154815290600101906020018083116103db57829003601f168201915b5050505050905090565b60008061040d6107fc565b905061041a818585610804565b600191505092915050565b6000610430826109cd565b9050919050565b6000600254905090565b600061045461044e6107fc565b83610a91565b61047f7f00000000000000000000000000000000000000000000000000000000000000008484610c5e565b6001905092915050565b6000806104946107fc565b90506104a1858285610ce4565b6104ac858585610d70565b60019150509392505050565b60006104ed7f00000000000000000000000000000000000000000000000000000000000000006104e66107fc565b3085610fe6565b6104f7838361106f565b6001905092915050565b60007f000000000000000000000000000000000000000000000000000000000000000073ffffffffffffffffffffffffffffffffffffffff1663313ce5676040518163ffffffff1660e01b8152600401602060405180830381865afa92505050801561058b57506040513d601f19601f820116820180604052508101906105889190611854565b60015b61059e576105976111c5565b90506105a3565b809150505b90565b6000806105b16107fc565b90506105d28185856105c38589610775565b6105cd91906118b0565b610804565b600191505092915050565b7f000000000000000000000000000000000000000000000000000000000000000081565b60008060008373ffffffffffffffffffffffffffffffffffffffff1673ffffffffffffffffffffffffffffffffffffffff168152602001908152602001600020549050919050565b606060048054610658906117f7565b80601f0160208091040260200160405190810160405280929190818152602001828054610684906117f7565b80156106d15780601f106106a6576101008083540402835291602001916106d1565b820191906000526020600020905b8154815290600101906020018083116106b457829003601f168201915b5050505050905090565b6000806106e66107fc565b905060006106f48286610775565b905083811015610739576040517f08c379a000000000000000000000000000000000000000000000000000000000815260040161073090611956565b60405180910390fd5b6107468286868403610804565b60019250505092915050565b60008061075d6107fc565b905061076a818585610d70565b600191505092915050565b6000600160008473ffffffffffffffffffffffffffffffffffffffff1673ffffffffffffffffffffffffffffffffffffffff16815260200190815260200160002060008373ffffffffffffffffffffffffffffffffffffffff1673ffffffffffffffffffffffffffffffffffffffff16815260200190815260200160002054905092915050565b600033905090565b600073ffffffffffffffffffffffffffffffffffffffff168373ffffffffffffffffffffffffffffffffffffffff1603610873576040517f08c379a000000000000000000000000000000000000000000000000000000000815260040161086a906119e8565b60405180910390fd5b600073ffffffffffffffffffffffffffffffffffffffff168273ffffffffffffffffffffffffffffffffffffffff16036108e2576040517f08c379a00000000000000000000000000000000000000000000000000000000081526004016108d990611a7a565b60405180910390fd5b80600160008573ffffffffffffffffffffffffffffffffffffffff1673ffffffffffffffffffffffffffffffffffffffff16815260200190815260200160002060008473ffffffffffffffffffffffffffffffffffffffff1673ffffffffffffffffffffffffffffffffffffffff168152602001908152602001600020819055508173ffffffffffffffffffffffffffffffffffffffff168373ffffffffffffffffffffffffffffffffffffffff167f8c5be1e5ebec7d5bd14f71427d1e84f3dd0314c0f7b2291e5b200ac8c7c3b925836040516109c09190611669565b60405180910390a3505050565b6000806109d8610437565b7f000000000000000000000000000000000000000000000000000000000000000073ffffffffffffffffffffffffffffffffffffffff166370a08231306040518263ffffffff1660e01b8152600401610a319190611aa9565b602060405180830381865afa158015610a4e573d6000803e3d6000fd5b505050506040513d601f19601f82011682018060405250810190610a729190611ad9565b610a7c9190611b06565b9050610a88838261106f565b80915050919050565b600073ffffffffffffffffffffffffffffffffffffffff168273ffffffffffffffffffffffffffffffffffffffff1603610b00576040517f08c379a0000000000000000000000000000000000000000000000000000000008152600401610af790611bac565b60405180910390fd5b610b0c826000836111ce565b60008060008473ffffffffffffffffffffffffffffffffffffffff1673ffffffffffffffffffffffffffffffffffffffff16815260200190815260200160002054905081811015610b92576040517f08c379a0000000000000000000000000000000000000000000000000000000008152600401610b8990611c3e565b60405180910390fd5b8181036000808573ffffffffffffffffffffffffffffffffffffffff1673ffffffffffffffffffffffffffffffffffffffff1681526020019081526020016000208190555081600260008282540392505081905550600073ffffffffffffffffffffffffffffffffffffffff168373ffffffffffffffffffffffffffffffffffffffff167fddf252ad1be2c89b69c2b068fc378daa952ba7f163c4a11628f55a4df523b3ef84604051610c459190611669565b60405180910390a3610c59836000846111d3565b505050565b610cdf8363a9059cbb60e01b8484604051602401610c7d929190611c5e565b604051602081830303815290604052907bffffffffffffffffffffffffffffffffffffffffffffffffffffffff19166020820180517bffffffffffffffffffffffffffffffffffffffffffffffffffffffff83818316178352505050506111d8565b505050565b6000610cf08484610775565b90507fffffffffffffffffffffffffffffffffffffffffffffffffffffffffffffffff8114610d6a5781811015610d5c576040517f08c379a0000000000000000000000000000000000000000000000000000000008152600401610d5390611cd3565b60405180910390fd5b610d698484848403610804565b5b50505050565b600073ffffffffffffffffffffffffffffffffffffffff168373ffffffffffffffffffffffffffffffffffffffff1603610ddf576040517f08c379a0000000000000000000000000000000000000000000000000000000008152600401610dd690611d65565b60405180910390fd5b600073ffffffffffffffffffffffffffffffffffffffff168273ffffffffffffffffffffffffffffffffffffffff1603610e4e576040517f08c379a0000000000000000000000000000000000000000000000000000000008152600401610e4590611df7565b60405180910390fd5b610e598383836111ce565b60008060008573ffffffffffffffffffffffffffffffffffffffff1673ffffffffffffffffffffffffffffffffffffffff16815260200190815260200160002054905081811015610edf576040517f08c379a0000000000000000000000000000000000000000000000000000000008152600401610ed690611e89565b60405180910390fd5b8181036000808673ffffffffffffffffffffffffffffffffffffffff1673ffffffffffffffffffffffffffffffffffffffff16815260200190815260200160002081905550816000808573ffffffffffffffffffffffffffffffffffffffff1673ffffffffffffffffffffffffffffffffffffffff168152602001908152602001600020600082825401925050819055508273ffffffffffffffffffffffffffffffffffffffff168473ffffffffffffffffffffffffffffffffffffffff167fddf252ad1be2c89b69c2b068fc378daa952ba7f163c4a11628f55a4df523b3ef84604051610fcd9190611669565b60405180910390a3610fe08484846111d3565b50505050565b611069846323b872dd60e01b85858560405160240161100793929190611ea9565b604051602081830303815290604052907bffffffffffffffffffffffffffffffffffffffffffffffffffffffff19166020820180517bffffffffffffffffffffffffffffffffffffffffffffffffffffffff83818316178352505050506111d8565b50505050565b600073ffffffffffffffffffffffffffffffffffffffff168273ffffffffffffffffffffffffffffffffffffffff16036110de576040517f08c379a00000000000000000000000000000000000000000000000000000000081526004016110d590611f2c565b60405180910390fd5b6110ea600083836111ce565b80600260008282546110fc91906118b0565b92505081905550806000808473ffffffffffffffffffffffffffffffffffffffff1673ffffffffffffffffffffffffffffffffffffffff168152602001908152602001600020600082825401925050819055508173ffffffffffffffffffffffffffffffffffffffff16600073ffffffffffffffffffffffffffffffffffffffff167fddf252ad1be2c89b69c2b068fc378daa952ba7f163c4a11628f55a4df523b3ef836040516111ad9190611669565b60405180910390a36111c1600083836111d3565b5050565b60006012905090565b505050565b505050565b600061123a826040518060400160405280602081526020017f5361666545524332303a206c6f772d6c6576656c2063616c6c206661696c65648152508573ffffffffffffffffffffffffffffffffffffffff1661129f9092919063ffffffff16565b905060008151111561129a578080602001905181019061125a9190611f78565b611299576040517f08c379a000000000000000000000000000000000000000000000000000000000815260040161129090612017565b60405180910390fd5b5b505050565b60606112ae84846000856112b7565b90509392505050565b6060824710156112fc576040517f08c379a00000000000000000000000000000000000000000000000000000000081526004016112f3906120a9565b60405180910390fd5b6000808673ffffffffffffffffffffffffffffffffffffffff1685876040516113259190612110565b60006040518083038185875af1925050503d8060008114611362576040519150601f19603f3d011682016040523d82523d6000602084013e611367565b606091505b509150915061137887838387611384565b92505050949350505050565b606083156113e65760008351036113de5761139e856113f9565b6113dd576040517f08c379a00000000000000000000000000000000000000000000000000000000081526004016113d490612173565b60405180910390fd5b5b8290506113f1565b6113f0838361141c565b5b949350505050565b6000808273ffffffffffffffffffffffffffffffffffffffff163b119050919050565b60008251111561142f5781518083602001fd5b806040517f08c379a000000000000000000000000000000000000000000000000000000000815260040161146391906114fc565b60405180910390fd5b600081519050919050565b600082825260208201905092915050565b60005b838110156114a657808201518184015260208101905061148b565b60008484015250505050565b6000601f19601f8301169050919050565b60006114ce8261146c565b6114d88185611477565b93506114e8818560208601611488565b6114f1816114b2565b840191505092915050565b6000602082019050818103600083015261151681846114c3565b905092915050565b600080fd5b600073ffffffffffffffffffffffffffffffffffffffff82169050919050565b600061154e82611523565b9050919050565b61155e81611543565b811461156957600080fd5b50565b60008135905061157b81611555565b92915050565b6000819050919050565b61159481611581565b811461159f57600080fd5b50565b6000813590506115b18161158b565b92915050565b600080604083850312156115ce576115cd61151e565b5b60006115dc8582860161156c565b92505060206115ed858286016115a2565b9150509250929050565b60008115159050919050565b61160c816115f7565b82525050565b60006020820190506116276000830184611603565b92915050565b6000602082840312156116435761164261151e565b5b60006116518482850161156c565b91505092915050565b61166381611581565b82525050565b600060208201905061167e600083018461165a565b92915050565b60008060006060848603121561169d5761169c61151e565b5b60006116ab8682870161156c565b93505060206116bc8682870161156c565b92505060406116cd868287016115a2565b9150509250925092565b600060ff82169050919050565b6116ed816116d7565b82525050565b600060208201905061170860008301846116e4565b92915050565b6000819050919050565b600061173361172e61172984611523565b61170e565b611523565b9050919050565b600061174582611718565b9050919050565b60006117578261173a565b9050919050565b6117678161174c565b82525050565b6000602082019050611782600083018461175e565b92915050565b6000806040838503121561179f5761179e61151e565b5b60006117ad8582860161156c565b92505060206117be8582860161156c565b9150509250929050565b7f4e487b7100000000000000000000000000000000000000000000000000000000600052602260045260246000fd5b6000600282049050600182168061180f57607f821691505b602082108103611822576118216117c8565b5b50919050565b611831816116d7565b811461183c57600080fd5b50565b60008151905061184e81611828565b92915050565b60006020828403121561186a5761186961151e565b5b60006118788482850161183f565b91505092915050565b7f4e487b7100000000000000000000000000000000000000000000000000000000600052601160045260246000fd5b60006118bb82611581565b91506118c683611581565b92508282019050808211156118de576118dd611881565b5b92915050565b7f45524332303a2064656372656173656420616c6c6f77616e63652062656c6f7760008201527f207a65726f000000000000000000000000000000000000000000000000000000602082015250565b6000611940602583611477565b915061194b826118e4565b604082019050919050565b6000602082019050818103600083015261196f81611933565b9050919050565b7f45524332303a20617070726f76652066726f6d20746865207a65726f2061646460008201527f7265737300000000000000000000000000000000000000000000000000000000602082015250565b60006119d2602483611477565b91506119dd82611976565b604082019050919050565b60006020820190508181036000830152611a01816119c5565b9050919050565b7f45524332303a20617070726f766520746f20746865207a65726f20616464726560008201527f7373000000000000000000000000000000000000000000000000000000000000602082015250565b6000611a64602283611477565b9150611a6f82611a08565b604082019050919050565b60006020820190508181036000830152611a9381611a57565b9050919050565b611aa381611543565b82525050565b6000602082019050611abe6000830184611a9a565b92915050565b600081519050611ad38161158b565b92915050565b600060208284031215611aef57611aee61151e565b5b6000611afd84828501611ac4565b91505092915050565b6000611b1182611581565b9150611b1c83611581565b9250828203905081811115611b3457611b33611881565b5b92915050565b7f45524332303a206275726e2066726f6d20746865207a65726f2061646472657360008201527f7300000000000000000000000000000000000000000000000000000000000000602082015250565b6000611b96602183611477565b9150611ba182611b3a565b604082019050919050565b60006020820190508181036000830152611bc581611b89565b9050919050565b7f45524332303a206275726e20616d6f756e7420657863656564732062616c616e60008201527f6365000000000000000000000000000000000000000000000000000000000000602082015250565b6000611c28602283611477565b9150611c3382611bcc565b604082019050919050565b60006020820190508181036000830152611c5781611c1b565b9050919050565b6000604082019050611c736000830185611a9a565b611c80602083018461165a565b9392505050565b7f45524332303a20696e73756666696369656e7420616c6c6f77616e6365000000600082015250565b6000611cbd601d83611477565b9150611cc882611c87565b602082019050919050565b60006020820190508181036000830152611cec81611cb0565b9050919050565b7f45524332303a207472616e736665722066726f6d20746865207a65726f20616460008201527f6472657373000000000000000000000000000000000000000000000000000000602082015250565b6000611d4f602583611477565b9150611d5a82611cf3565b604082019050919050565b60006020820190508181036000830152611d7e81611d42565b9050919050565b7f45524332303a207472616e7366657220746f20746865207a65726f206164647260008201527f6573730000000000000000000000000000000000000000000000000000000000602082015250565b6000611de1602383611477565b9150611dec82611d85565b604082019050919050565b60006020820190508181036000830152611e1081611dd4565b9050919050565b7f45524332303a207472616e7366657220616d6f756e742065786365656473206260008201527f616c616e63650000000000000000000000000000000000000000000000000000602082015250565b6000611e73602683611477565b9150611e7e82611e17565b604082019050919050565b60006020820190508181036000830152611ea281611e66565b9050919050565b6000606082019050611ebe6000830186611a9a565b611ecb6020830185611a9a565b611ed8604083018461165a565b949350505050565b7f45524332303a206d696e7420746f20746865207a65726f206164647265737300600082015250565b6000611f16601f83611477565b9150611f2182611ee0565b602082019050919050565b60006020820190508181036000830152611f4581611f09565b9050919050565b611f55816115f7565b8114611f6057600080fd5b50565b600081519050611f7281611f4c565b92915050565b600060208284031215611f8e57611f8d61151e565b5b6000611f9c84828501611f63565b91505092915050565b7f5361666545524332303a204552433230206f7065726174696f6e20646964206e60008201527f6f74207375636365656400000000000000000000000000000000000000000000602082015250565b6000612001602a83611477565b915061200c82611fa5565b604082019050919050565b6000602082019050818103600083015261203081611ff4565b9050919050565b7f416464726573733a20696e73756666696369656e742062616c616e636520666f60008201527f722063616c6c0000000000000000000000000000000000000000000000000000602082015250565b6000612093602683611477565b915061209e82612037565b604082019050919050565b600060208201905081810360008301526120c281612086565b9050919050565b600081519050919050565b600081905092915050565b60006120ea826120c9565b6120f481856120d4565b9350612104818560208601611488565b80840191505092915050565b600061211c82846120df565b915081905092915050565b7f416464726573733a2063616c6c20746f206e6f6e2d636f6e7472616374000000600082015250565b600061215d601d83611477565b915061216882612127565b602082019050919050565b6000602082019050818103600083015261218c81612150565b905091905056fea2646970667358221220fc0d032bde906eecfd8befbcd8fba565d7648e6ba628504b9239853b46dc088564736f6c63430008110033",
  "linkReferences": {},
  "deployedLinkReferences": {}
}