{
  "_format": "hh-sol-artifact-1",
  "contractName": "DummyImplementation",
  "sourceName": "contracts/mocks/DummyImplementation.sol",
  "abi": [
    {
      "inputs": [],
      "name": "get",
      "outputs": [
        {
          "internalType": "bool",
          "name": "",
          "type": "bool"
        }
      ],
      "stateMutability": "pure",
      "type": "function"
    },
    {
      "inputs": [
        {
          "internalType": "uint256",
          "name": "_value",
          "type": "uint256"
        },
        {
          "internalType": "string",
          "name": "_text",
          "type": "string"
        },
        {
          "internalType": "uint256[]",
          "name": "_values",
          "type": "uint256[]"
        }
      ],
      "name": "initialize",
      "outputs": [],
      "stateMutability": "nonpayable",
      "type": "function"
    },
    {
      "inputs": [],
      "name": "initializeNonPayable",
      "outputs": [],
      "stateMutability": "nonpayable",
      "type": "function"
    },
    {
      "inputs": [
        {
          "internalType": "uint256",
          "name": "_value",
          "type": "uint256"
        }
      ],
      "name": "initializeNonPayableWithValue",
      "outputs": [],
      "stateMutability": "nonpayable",
      "type": "function"
    },
    {
      "inputs": [],
      "name": "initializePayable",
      "outputs": [],
      "stateMutability": "payable",
      "type": "function"
    },
    {
      "inputs": [
        {
          "internalType": "uint256",
          "name": "_value",
          "type": "uint256"
        }
      ],
      "name": "initializePayableWithValue",
      "outputs": [],
      "stateMutability": "payable",
      "type": "function"
    },
    {
      "inputs": [],
      "name": "reverts",
      "outputs": [],
      "stateMutability": "pure",
      "type": "function"
    },
    {
      "inputs": [],
      "name": "text",
      "outputs": [
        {
          "internalType": "string",
          "name": "",
          "type": "string"
        }
      ],
      "stateMutability": "view",
      "type": "function"
    },
    {
      "inputs": [],
      "name": "value",
      "outputs": [
        {
          "internalType": "uint256",
          "name": "",
          "type": "uint256"
        }
      ],
      "stateMutability": "view",
      "type": "function"
    },
    {
      "inputs": [
        {
          "internalType": "uint256",
          "name": "",
          "type": "uint256"
        }
      ],
      "name": "values",
      "outputs": [
        {
          "internalType": "uint256",
          "name": "",
          "type": "uint256"
        }
      ],
      "stateMutability": "view",
      "type": "function"
    },
    {
      "inputs": [],
      "name": "version",
      "outputs": [
        {
          "internalType": "string",
          "name": "",
          "type": "string"
        }
      ],
      "stateMutability": "pure",
      "type": "function"
    }
  ],
  "bytecode": "0x608060405234801561001057600080fd5b50610bc7806100206000396000f3fe60806040526004361061009c5760003560e01c80635e383d21116100645780635e383d21146101505780636d4ce63c1461018d578063763e2831146101b85780639fba1f9a146101e1578063d31f8b6b146101eb578063e79f5bee146102145761009c565b80631f1bd692146100a1578063227367d5146100cc5780633bccbbc9146100e35780633fa4f245146100fa57806354fd4d5014610125575b600080fd5b3480156100ad57600080fd5b506100b6610230565b6040516100c391906104c6565b60405180910390f35b3480156100d857600080fd5b506100e16102be565b005b3480156100ef57600080fd5b506100f86102c8565b005b34801561010657600080fd5b5061010f61030b565b60405161011c9190610501565b60405180910390f35b34801561013157600080fd5b5061013a610311565b60405161014791906104c6565b60405180910390f35b34801561015c57600080fd5b506101776004803603810190610172919061055c565b61034e565b6040516101849190610501565b60405180910390f35b34801561019957600080fd5b506101a2610372565b6040516101af91906105a4565b60405180910390f35b3480156101c457600080fd5b506101df60048036038101906101da919061055c565b61037b565b005b6101e9610385565b005b3480156101f757600080fd5b50610212600480360381019061020d91906107bc565b61038f565b005b61022e6004803603810190610229919061055c565b6103c2565b005b6001805461023d90610876565b80601f016020809104026020016040519081016040528092919081815260200182805461026990610876565b80156102b65780601f1061028b576101008083540402835291602001916102b6565b820191906000526020600020905b81548152906001019060200180831161029957829003601f168201915b505050505081565b600a600081905550565b6000610309576040517f08c379a0000000000000000000000000000000000000000000000000000000008152600401610300906108f3565b60405180910390fd5b565b60005481565b60606040518060400160405280600281526020017f5631000000000000000000000000000000000000000000000000000000000000815250905090565b6002818154811061035e57600080fd5b906000526020600020016000915090505481565b60006001905090565b8060008190555050565b6064600081905550565b8260008190555081600190816103a59190610abf565b5080600290805190602001906103bc9291906103cc565b50505050565b8060008190555050565b828054828255906000526020600020908101928215610408579160200282015b828111156104075782518255916020019190600101906103ec565b5b5090506104159190610419565b5090565b5b8082111561043257600081600090555060010161041a565b5090565b600081519050919050565b600082825260208201905092915050565b60005b83811015610470578082015181840152602081019050610455565b60008484015250505050565b6000601f19601f8301169050919050565b600061049882610436565b6104a28185610441565b93506104b2818560208601610452565b6104bb8161047c565b840191505092915050565b600060208201905081810360008301526104e0818461048d565b905092915050565b6000819050919050565b6104fb816104e8565b82525050565b600060208201905061051660008301846104f2565b92915050565b6000604051905090565b600080fd5b600080fd5b610539816104e8565b811461054457600080fd5b50565b60008135905061055681610530565b92915050565b60006020828403121561057257610571610526565b5b600061058084828501610547565b91505092915050565b60008115159050919050565b61059e81610589565b82525050565b60006020820190506105b96000830184610595565b92915050565b600080fd5b600080fd5b7f4e487b7100000000000000000000000000000000000000000000000000000000600052604160045260246000fd5b6106018261047c565b810181811067ffffffffffffffff821117156106205761061f6105c9565b5b80604052505050565b600061063361051c565b905061063f82826105f8565b919050565b600067ffffffffffffffff82111561065f5761065e6105c9565b5b6106688261047c565b9050602081019050919050565b82818337600083830152505050565b600061069761069284610644565b610629565b9050828152602081018484840111156106b3576106b26105c4565b5b6106be848285610675565b509392505050565b600082601f8301126106db576106da6105bf565b5b81356106eb848260208601610684565b91505092915050565b600067ffffffffffffffff82111561070f5761070e6105c9565b5b602082029050602081019050919050565b600080fd5b6000610738610733846106f4565b610629565b9050808382526020820190506020840283018581111561075b5761075a610720565b5b835b8181101561078457806107708882610547565b84526020840193505060208101905061075d565b5050509392505050565b600082601f8301126107a3576107a26105bf565b5b81356107b3848260208601610725565b91505092915050565b6000806000606084860312156107d5576107d4610526565b5b60006107e386828701610547565b935050602084013567ffffffffffffffff8111156108045761080361052b565b5b610810868287016106c6565b925050604084013567ffffffffffffffff8111156108315761083061052b565b5b61083d8682870161078e565b9150509250925092565b7f4e487b7100000000000000000000000000000000000000000000000000000000600052602260045260246000fd5b6000600282049050600182168061088e57607f821691505b6020821081036108a1576108a0610847565b5b50919050565b7f44756d6d79496d706c656d656e746174696f6e20726576657274656400000000600082015250565b60006108dd601c83610441565b91506108e8826108a7565b602082019050919050565b6000602082019050818103600083015261090c816108d0565b9050919050565b60008190508160005260206000209050919050565b60006020601f8301049050919050565b600082821b905092915050565b6000600883026109757fffffffffffffffffffffffffffffffffffffffffffffffffffffffffffffffff82610938565b61097f8683610938565b95508019841693508086168417925050509392505050565b6000819050919050565b60006109bc6109b76109b2846104e8565b610997565b6104e8565b9050919050565b6000819050919050565b6109d6836109a1565b6109ea6109e2826109c3565b848454610945565b825550505050565b600090565b6109ff6109f2565b610a0a8184846109cd565b505050565b5b81811015610a2e57610a236000826109f7565b600181019050610a10565b5050565b601f821115610a7357610a4481610913565b610a4d84610928565b81016020851015610a5c578190505b610a70610a6885610928565b830182610a0f565b50505b505050565b600082821c905092915050565b6000610a9660001984600802610a78565b1980831691505092915050565b6000610aaf8383610a85565b9150826002028217905092915050565b610ac882610436565b67ffffffffffffffff811115610ae157610ae06105c9565b5b610aeb8254610876565b610af6828285610a32565b600060209050601f831160018114610b295760008415610b17578287015190505b610b218582610aa3565b865550610b89565b601f198416610b3786610913565b60005b82811015610b5f57848901518255600182019150602085019450602081019050610b3a565b86831015610b7c5784890151610b78601f891682610a85565b8355505b6001600288020188555050505b50505050505056fea2646970667358221220298aafd5d2fb023b4ef89634e6522938dedf678c810c02a3f475e104c412ce1164736f6c63430008110033",
  "linkReferences": {},
  "deployedLinkReferences": {}
}