{
  "_format": "hh-sol-artifact-1",
  "contractName": "ERC20VotesMock",
  "sourceName": "contracts/mocks/ERC20VotesMock.sol",
  "abi": [
    {
      "inputs": [
        {
          "internalType": "string",
          "name": "name",
          "type": "string"
        },
        {
          "internalType": "string",
          "name": "symbol",
          "type": "string"
        }
      ],
      "stateMutability": "nonpayable",
      "type": "constructor"
    },
    {
      "anonymous": false,
      "inputs": [
        {
          "indexed": true,
          "internalType": "address",
          "name": "owner",
          "type": "address"
        },
        {
          "indexed": true,
          "internalType": "address",
          "name": "spender",
          "type": "address"
        },
        {
          "indexed": false,
          "internalType": "uint256",
          "name": "value",
          "type": "uint256"
        }
      ],
      "name": "Approval",
      "type": "event"
    },
    {
      "anonymous": false,
      "inputs": [
        {
          "indexed": true,
          "internalType": "address",
          "name": "delegator",
          "type": "address"
        },
        {
          "indexed": true,
          "internalType": "address",
          "name": "fromDelegate",
          "type": "address"
        },
        {
          "indexed": true,
          "internalType": "address",
          "name": "toDelegate",
          "type": "address"
        }
      ],
      "name": "DelegateChanged",
      "type": "event"
    },
    {
      "anonymous": false,
      "inputs": [
        {
          "indexed": true,
          "internalType": "address",
          "name": "delegate",
          "type": "address"
        },
        {
          "indexed": false,
          "internalType": "uint256",
          "name": "previousBalance",
          "type": "uint256"
        },
        {
          "indexed": false,
          "internalType": "uint256",
          "name": "newBalance",
          "type": "uint256"
        }
      ],
      "name": "DelegateVotesChanged",
      "type": "event"
    },
    {
      "anonymous": false,
      "inputs": [
        {
          "indexed": true,
          "internalType": "address",
          "name": "from",
          "type": "address"
        },
        {
          "indexed": true,
          "internalType": "address",
          "name": "to",
          "type": "address"
        },
        {
          "indexed": false,
          "internalType": "uint256",
          "name": "value",
          "type": "uint256"
        }
      ],
      "name": "Transfer",
      "type": "event"
    },
    {
      "inputs": [],
      "name": "DOMAIN_SEPARATOR",
      "outputs": [
        {
          "internalType": "bytes32",
          "name": "",
          "type": "bytes32"
        }
      ],
      "stateMutability": "view",
      "type": "function"
    },
    {
      "inputs": [
        {
          "internalType": "address",
          "name": "owner",
          "type": "address"
        },
        {
          "internalType": "address",
          "name": "spender",
          "type": "address"
        }
      ],
      "name": "allowance",
      "outputs": [
        {
          "internalType": "uint256",
          "name": "",
          "type": "uint256"
        }
      ],
      "stateMutability": "view",
      "type": "function"
    },
    {
      "inputs": [
        {
          "internalType": "address",
          "name": "spender",
          "type": "address"
        },
        {
          "internalType": "uint256",
          "name": "amount",
          "type": "uint256"
        }
      ],
      "name": "approve",
      "outputs": [
        {
          "internalType": "bool",
          "name": "",
          "type": "bool"
        }
      ],
      "stateMutability": "nonpayable",
      "type": "function"
    },
    {
      "inputs": [
        {
          "internalType": "address",
          "name": "account",
          "type": "address"
        }
      ],
      "name": "balanceOf",
      "outputs": [
        {
          "internalType": "uint256",
          "name": "",
          "type": "uint256"
        }
      ],
      "stateMutability": "view",
      "type": "function"
    },
    {
      "inputs": [
        {
          "internalType": "address",
          "name": "account",
          "type": "address"
        },
        {
          "internalType": "uint256",
          "name": "amount",
          "type": "uint256"
        }
      ],
      "name": "burn",
      "outputs": [],
      "stateMutability": "nonpayable",
      "type": "function"
    },
    {
      "inputs": [
        {
          "internalType": "address",
          "name": "account",
          "type": "address"
        },
        {
          "internalType": "uint32",
          "name": "pos",
          "type": "uint32"
        }
      ],
      "name": "checkpoints",
      "outputs": [
        {
          "components": [
            {
              "internalType": "uint32",
              "name": "fromBlock",
              "type": "uint32"
            },
            {
              "internalType": "uint224",
              "name": "votes",
              "type": "uint224"
            }
          ],
          "internalType": "struct ERC20Votes.Checkpoint",
          "name": "",
          "type": "tuple"
        }
      ],
      "stateMutability": "view",
      "type": "function"
    },
    {
      "inputs": [],
      "name": "decimals",
      "outputs": [
        {
          "internalType": "uint8",
          "name": "",
          "type": "uint8"
        }
      ],
      "stateMutability": "view",
      "type": "function"
    },
    {
      "inputs": [
        {
          "internalType": "address",
          "name": "spender",
          "type": "address"
        },
        {
          "internalType": "uint256",
          "name": "subtractedValue",
          "type": "uint256"
        }
      ],
      "name": "decreaseAllowance",
      "outputs": [
        {
          "internalType": "bool",
          "name": "",
          "type": "bool"
        }
      ],
      "stateMutability": "nonpayable",
      "type": "function"
    },
    {
      "inputs": [
        {
          "internalType": "address",
          "name": "delegatee",
          "type": "address"
        }
      ],
      "name": "delegate",
      "outputs": [],
      "stateMutability": "nonpayable",
      "type": "function"
    },
    {
      "inputs": [
        {
          "internalType": "address",
          "name": "delegatee",
          "type": "address"
        },
        {
          "internalType": "uint256",
          "name": "nonce",
          "type": "uint256"
        },
        {
          "internalType": "uint256",
          "name": "expiry",
          "type": "uint256"
        },
        {
          "internalType": "uint8",
          "name": "v",
          "type": "uint8"
        },
        {
          "internalType": "bytes32",
          "name": "r",
          "type": "bytes32"
        },
        {
          "internalType": "bytes32",
          "name": "s",
          "type": "bytes32"
        }
      ],
      "name": "delegateBySig",
      "outputs": [],
      "stateMutability": "nonpayable",
      "type": "function"
    },
    {
      "inputs": [
        {
          "internalType": "address",
          "name": "account",
          "type": "address"
        }
      ],
      "name": "delegates",
      "outputs": [
        {
          "internalType": "address",
          "name": "",
          "type": "address"
        }
      ],
      "stateMutability": "view",
      "type": "function"
    },
    {
      "inputs": [],
      "name": "getChainId",
      "outputs": [
        {
          "internalType": "uint256",
          "name": "",
          "type": "uint256"
        }
      ],
      "stateMutability": "view",
      "type": "function"
    },
    {
      "inputs": [
        {
          "internalType": "uint256",
          "name": "blockNumber",
          "type": "uint256"
        }
      ],
      "name": "getPastTotalSupply",
      "outputs": [
        {
          "internalType": "uint256",
          "name": "",
          "type": "uint256"
        }
      ],
      "stateMutability": "view",
      "type": "function"
    },
    {
      "inputs": [
        {
          "internalType": "address",
          "name": "account",
          "type": "address"
        },
        {
          "internalType": "uint256",
          "name": "blockNumber",
          "type": "uint256"
        }
      ],
      "name": "getPastVotes",
      "outputs": [
        {
          "internalType": "uint256",
          "name": "",
          "type": "uint256"
        }
      ],
      "stateMutability": "view",
      "type": "function"
    },
    {
      "inputs": [
        {
          "internalType": "address",
          "name": "account",
          "type": "address"
        }
      ],
      "name": "getVotes",
      "outputs": [
        {
          "internalType": "uint256",
          "name": "",
          "type": "uint256"
        }
      ],
      "stateMutability": "view",
      "type": "function"
    },
    {
      "inputs": [
        {
          "internalType": "address",
          "name": "spender",
          "type": "address"
        },
        {
          "internalType": "uint256",
          "name": "addedValue",
          "type": "uint256"
        }
      ],
      "name": "increaseAllowance",
      "outputs": [
        {
          "internalType": "bool",
          "name": "",
          "type": "bool"
        }
      ],
      "stateMutability": "nonpayable",
      "type": "function"
    },
    {
      "inputs": [
        {
          "internalType": "address",
          "name": "account",
          "type": "address"
        },
        {
          "internalType": "uint256",
          "name": "amount",
          "type": "uint256"
        }
      ],
      "name": "mint",
      "outputs": [],
      "stateMutability": "nonpayable",
      "type": "function"
    },
    {
      "inputs": [],
      "name": "name",
      "outputs": [
        {
          "internalType": "string",
          "name": "",
          "type": "string"
        }
      ],
      "stateMutability": "view",
      "type": "function"
    },
    {
      "inputs": [
        {
          "internalType": "address",
          "name": "owner",
          "type": "address"
        }
      ],
      "name": "nonces",
      "outputs": [
        {
          "internalType": "uint256",
          "name": "",
          "type": "uint256"
        }
      ],
      "stateMutability": "view",
      "type": "function"
    },
    {
      "inputs": [
        {
          "internalType": "address",
          "name": "account",
          "type": "address"
        }
      ],
      "name": "numCheckpoints",
      "outputs": [
        {
          "internalType": "uint32",
          "name": "",
          "type": "uint32"
        }
      ],
      "stateMutability": "view",
      "type": "function"
    },
    {
      "inputs": [
        {
          "internalType": "address",
          "name": "owner",
          "type": "address"
        },
        {
          "internalType": "address",
          "name": "spender",
          "type": "address"
        },
        {
          "internalType": "uint256",
          "name": "value",
          "type": "uint256"
        },
        {
          "internalType": "uint256",
          "name": "deadline",
          "type": "uint256"
        },
        {
          "internalType": "uint8",
          "name": "v",
          "type": "uint8"
        },
        {
          "internalType": "bytes32",
          "name": "r",
          "type": "bytes32"
        },
        {
          "internalType": "bytes32",
          "name": "s",
          "type": "bytes32"
        }
      ],
      "name": "permit",
      "outputs": [],
      "stateMutability": "nonpayable",
      "type": "function"
    },
    {
      "inputs": [],
      "name": "symbol",
      "outputs": [
        {
          "internalType": "string",
          "name": "",
          "type": "string"
        }
      ],
      "stateMutability": "view",
      "type": "function"
    },
    {
      "inputs": [],
      "name": "totalSupply",
      "outputs": [
        {
          "internalType": "uint256",
          "name": "",
          "type": "uint256"
        }
      ],
      "stateMutability": "view",
      "type": "function"
    },
    {
      "inputs": [
        {
          "internalType": "address",
          "name": "to",
          "type": "address"
        },
        {
          "internalType": "uint256",
          "name": "amount",
          "type": "uint256"
        }
      ],
      "name": "transfer",
      "outputs": [
        {
          "internalType": "bool",
          "name": "",
          "type": "bool"
        }
      ],
      "stateMutability": "nonpayable",
      "type": "function"
    },
    {
      "inputs": [
        {
          "internalType": "address",
          "name": "from",
          "type": "address"
        },
        {
          "internalType": "address",
          "name": "to",
          "type": "address"
        },
        {
          "internalType": "uint256",
          "name": "amount",
          "type": "uint256"
        }
      ],
      "name": "transferFrom",
      "outputs": [
        {
          "internalType": "bool",
          "name": "",
          "type": "bool"
        }
      ],
      "stateMutability": "nonpayable",
      "type": "function"
    }
  ],
  "bytecode": "0x6101406040523480156200001257600080fd5b506040516200440538038062004405833981810160405281019062000038919062000322565b81806040518060400160405280600181526020017f310000000000000000000000000000000000000000000000000000000000000081525084848160039081620000839190620005f2565b508060049081620000959190620005f2565b50505060008280519060200120905060008280519060200120905060007f8b73c3c69bb8fe3d512ecc4cf759cc79239f7b179b0ffacaa9a75d522b39400f90508260e081815250508161010081815250504660a08181525050620001018184846200015360201b60201c565b608081815250503073ffffffffffffffffffffffffffffffffffffffff1660c08173ffffffffffffffffffffffffffffffffffffffff16815250508061012081815250505050505050505050620007a7565b60008383834630604051602001620001709594939291906200074a565b6040516020818303038152906040528051906020012090509392505050565b6000604051905090565b600080fd5b600080fd5b600080fd5b600080fd5b6000601f19601f8301169050919050565b7f4e487b7100000000000000000000000000000000000000000000000000000000600052604160045260246000fd5b620001f882620001ad565b810181811067ffffffffffffffff821117156200021a5762000219620001be565b5b80604052505050565b60006200022f6200018f565b90506200023d8282620001ed565b919050565b600067ffffffffffffffff82111562000260576200025f620001be565b5b6200026b82620001ad565b9050602081019050919050565b60005b83811015620002985780820151818401526020810190506200027b565b60008484015250505050565b6000620002bb620002b58462000242565b62000223565b905082815260208101848484011115620002da57620002d9620001a8565b5b620002e784828562000278565b509392505050565b600082601f830112620003075762000306620001a3565b5b815162000319848260208601620002a4565b91505092915050565b600080604083850312156200033c576200033b62000199565b5b600083015167ffffffffffffffff8111156200035d576200035c6200019e565b5b6200036b85828601620002ef565b925050602083015167ffffffffffffffff8111156200038f576200038e6200019e565b5b6200039d85828601620002ef565b9150509250929050565b600081519050919050565b7f4e487b7100000000000000000000000000000000000000000000000000000000600052602260045260246000fd5b60006002820490506001821680620003fa57607f821691505b60208210810362000410576200040f620003b2565b5b50919050565b60008190508160005260206000209050919050565b60006020601f8301049050919050565b600082821b905092915050565b6000600883026200047a7fffffffffffffffffffffffffffffffffffffffffffffffffffffffffffffffff826200043b565b6200048686836200043b565b95508019841693508086168417925050509392505050565b6000819050919050565b6000819050919050565b6000620004d3620004cd620004c7846200049e565b620004a8565b6200049e565b9050919050565b6000819050919050565b620004ef83620004b2565b62000507620004fe82620004da565b84845462000448565b825550505050565b600090565b6200051e6200050f565b6200052b818484620004e4565b505050565b5b8181101562000553576200054760008262000514565b60018101905062000531565b5050565b601f821115620005a2576200056c8162000416565b62000577846200042b565b8101602085101562000587578190505b6200059f62000596856200042b565b83018262000530565b50505b505050565b600082821c905092915050565b6000620005c760001984600802620005a7565b1980831691505092915050565b6000620005e28383620005b4565b9150826002028217905092915050565b620005fd82620003a7565b67ffffffffffffffff811115620006195762000618620001be565b5b620006258254620003e1565b6200063282828562000557565b600060209050601f8311600181146200066a576000841562000655578287015190505b620006618582620005d4565b865550620006d1565b601f1984166200067a8662000416565b60005b82811015620006a4578489015182556001820191506020850194506020810190506200067d565b86831015620006c45784890151620006c0601f891682620005b4565b8355505b6001600288020188555050505b505050505050565b6000819050919050565b620006ee81620006d9565b82525050565b620006ff816200049e565b82525050565b600073ffffffffffffffffffffffffffffffffffffffff82169050919050565b6000620007328262000705565b9050919050565b620007448162000725565b82525050565b600060a082019050620007616000830188620006e3565b620007706020830187620006e3565b6200077f6040830186620006e3565b6200078e6060830185620006f4565b6200079d608083018462000739565b9695505050505050565b60805160a05160c05160e0516101005161012051613c0e620007f760003960006114a7015260006114e9015260006114c8015260006113fd015260006114530152600061147c0152613c0e6000f3fe608060405234801561001057600080fd5b50600436106101735760003560e01c80636fcfff45116100de5780639dc29fac11610097578063c3cda52011610071578063c3cda520146104c0578063d505accf146104dc578063dd62ed3e146104f8578063f1127ed81461052857610173565b80639dc29fac14610444578063a457c2d714610460578063a9059cbb1461049057610173565b80636fcfff451461033657806370a08231146103665780637ecebe00146103965780638e539e8c146103c657806395d89b41146103f65780639ab24eb01461041457610173565b80633644e515116101305780633644e51514610250578063395093511461026e5780633a46b1a81461029e57806340c10f19146102ce578063587cde1e146102ea5780635c19a95c1461031a57610173565b806306fdde0314610178578063095ea7b31461019657806318160ddd146101c657806323b872dd146101e4578063313ce567146102145780633408e47014610232575b600080fd5b610180610558565b60405161018d91906127cf565b60405180910390f35b6101b060048036038101906101ab919061288a565b6105ea565b6040516101bd91906128e5565b60405180910390f35b6101ce61060d565b6040516101db919061290f565b60405180910390f35b6101fe60048036038101906101f9919061292a565b610617565b60405161020b91906128e5565b60405180910390f35b61021c610646565b6040516102299190612999565b60405180910390f35b61023a61064f565b604051610247919061290f565b60405180910390f35b610258610657565b60405161026591906129cd565b60405180910390f35b6102886004803603810190610283919061288a565b610666565b60405161029591906128e5565b60405180910390f35b6102b860048036038101906102b3919061288a565b61069d565b6040516102c5919061290f565b60405180910390f35b6102e860048036038101906102e3919061288a565b610731565b005b61030460048036038101906102ff91906129e8565b61073f565b6040516103119190612a24565b60405180910390f35b610334600480360381019061032f91906129e8565b6107a8565b005b610350600480360381019061034b91906129e8565b6107bc565b60405161035d9190612a5e565b60405180910390f35b610380600480360381019061037b91906129e8565b610810565b60405161038d919061290f565b60405180910390f35b6103b060048036038101906103ab91906129e8565b610858565b6040516103bd919061290f565b60405180910390f35b6103e060048036038101906103db9190612a79565b6108a8565b6040516103ed919061290f565b60405180910390f35b6103fe6108fe565b60405161040b91906127cf565b60405180910390f35b61042e600480360381019061042991906129e8565b610990565b60405161043b919061290f565b60405180910390f35b61045e6004803603810190610459919061288a565b610aa1565b005b61047a6004803603810190610475919061288a565b610aaf565b60405161048791906128e5565b60405180910390f35b6104aa60048036038101906104a5919061288a565b610b26565b6040516104b791906128e5565b60405180910390f35b6104da60048036038101906104d59190612afe565b610b49565b005b6104f660048036038101906104f19190612b8b565b610c4d565b005b610512600480360381019061050d9190612c2d565b610d8f565b60405161051f919061290f565b60405180910390f35b610542600480360381019061053d9190612c99565b610e16565b60405161054f9190612d4e565b60405180910390f35b60606003805461056790612d98565b80601f016020809104026020016040519081016040528092919081815260200182805461059390612d98565b80156105e05780601f106105b5576101008083540402835291602001916105e0565b820191906000526020600020905b8154815290600101906020018083116105c357829003601f168201915b5050505050905090565b6000806105f5610f26565b9050610602818585610f2e565b600191505092915050565b6000600254905090565b600080610622610f26565b905061062f8582856110f7565b61063a858585611183565b60019150509392505050565b60006012905090565b600046905090565b60006106616113f9565b905090565b600080610671610f26565b90506106928185856106838589610d8f565b61068d9190612df8565b610f2e565b600191505092915050565b60004382106106e1576040517f08c379a00000000000000000000000000000000000000000000000000000000081526004016106d890612e78565b60405180910390fd5b610729600860008573ffffffffffffffffffffffffffffffffffffffff1673ffffffffffffffffffffffffffffffffffffffff16815260200190815260200160002083611513565b905092915050565b61073b8282611664565b5050565b6000600760008373ffffffffffffffffffffffffffffffffffffffff1673ffffffffffffffffffffffffffffffffffffffff16815260200190815260200160002060009054906101000a900473ffffffffffffffffffffffffffffffffffffffff169050919050565b6107b96107b3610f26565b826116f1565b50565b6000610809600860008473ffffffffffffffffffffffffffffffffffffffff1673ffffffffffffffffffffffffffffffffffffffff1681526020019081526020016000208054905061180b565b9050919050565b60008060008373ffffffffffffffffffffffffffffffffffffffff1673ffffffffffffffffffffffffffffffffffffffff168152602001908152602001600020549050919050565b60006108a1600560008473ffffffffffffffffffffffffffffffffffffffff1673ffffffffffffffffffffffffffffffffffffffff16815260200190815260200160002061185e565b9050919050565b60004382106108ec576040517f08c379a00000000000000000000000000000000000000000000000000000000081526004016108e390612e78565b60405180910390fd5b6108f7600983611513565b9050919050565b60606004805461090d90612d98565b80601f016020809104026020016040519081016040528092919081815260200182805461093990612d98565b80156109865780601f1061095b57610100808354040283529160200191610986565b820191906000526020600020905b81548152906001019060200180831161096957829003601f168201915b5050505050905090565b600080600860008473ffffffffffffffffffffffffffffffffffffffff1673ffffffffffffffffffffffffffffffffffffffff16815260200190815260200160002080549050905060008114610a7857600860008473ffffffffffffffffffffffffffffffffffffffff1673ffffffffffffffffffffffffffffffffffffffff168152602001908152602001600020600182610a2c9190612e98565b81548110610a3d57610a3c612ecc565b5b9060005260206000200160000160049054906101000a90047bffffffffffffffffffffffffffffffffffffffffffffffffffffffff16610a7b565b60005b7bffffffffffffffffffffffffffffffffffffffffffffffffffffffff16915050919050565b610aab828261186c565b5050565b600080610aba610f26565b90506000610ac88286610d8f565b905083811015610b0d576040517f08c379a0000000000000000000000000000000000000000000000000000000008152600401610b0490612f6d565b60405180910390fd5b610b1a8286868403610f2e565b60019250505092915050565b600080610b31610f26565b9050610b3e818585611183565b600191505092915050565b83421115610b8c576040517f08c379a0000000000000000000000000000000000000000000000000000000008152600401610b8390612fd9565b60405180910390fd5b6000610bee610be67fe48329057bfd03d55e49b547132e39cffd9c1820ad7b9d4c5307691425d15adf898989604051602001610bcb9493929190612ff9565b6040516020818303038152906040528051906020012061188a565b8585856118a4565b9050610bf9816118cf565b8614610c3a576040517f08c379a0000000000000000000000000000000000000000000000000000000008152600401610c319061308a565b60405180910390fd5b610c4481886116f1565b50505050505050565b83421115610c90576040517f08c379a0000000000000000000000000000000000000000000000000000000008152600401610c87906130f6565b60405180910390fd5b60007f6e71edae12b1b97f4d1f60370fef10105fa2faae0126114a169c64845d6126c9888888610cbf8c6118cf565b89604051602001610cd596959493929190613116565b6040516020818303038152906040528051906020012090506000610cf88261188a565b90506000610d08828787876118a4565b90508973ffffffffffffffffffffffffffffffffffffffff168173ffffffffffffffffffffffffffffffffffffffff1614610d78576040517f08c379a0000000000000000000000000000000000000000000000000000000008152600401610d6f906131c3565b60405180910390fd5b610d838a8a8a610f2e565b50505050505050505050565b6000600160008473ffffffffffffffffffffffffffffffffffffffff1673ffffffffffffffffffffffffffffffffffffffff16815260200190815260200160002060008373ffffffffffffffffffffffffffffffffffffffff1673ffffffffffffffffffffffffffffffffffffffff16815260200190815260200160002054905092915050565b610e1e612701565b600860008473ffffffffffffffffffffffffffffffffffffffff1673ffffffffffffffffffffffffffffffffffffffff1681526020019081526020016000208263ffffffff1681548110610e7557610e74612ecc565b5b906000526020600020016040518060400160405290816000820160009054906101000a900463ffffffff1663ffffffff1663ffffffff1681526020016000820160049054906101000a90047bffffffffffffffffffffffffffffffffffffffffffffffffffffffff167bffffffffffffffffffffffffffffffffffffffffffffffffffffffff167bffffffffffffffffffffffffffffffffffffffffffffffffffffffff1681525050905092915050565b600033905090565b600073ffffffffffffffffffffffffffffffffffffffff168373ffffffffffffffffffffffffffffffffffffffff1603610f9d576040517f08c379a0000000000000000000000000000000000000000000000000000000008152600401610f9490613255565b60405180910390fd5b600073ffffffffffffffffffffffffffffffffffffffff168273ffffffffffffffffffffffffffffffffffffffff160361100c576040517f08c379a0000000000000000000000000000000000000000000000000000000008152600401611003906132e7565b60405180910390fd5b80600160008573ffffffffffffffffffffffffffffffffffffffff1673ffffffffffffffffffffffffffffffffffffffff16815260200190815260200160002060008473ffffffffffffffffffffffffffffffffffffffff1673ffffffffffffffffffffffffffffffffffffffff168152602001908152602001600020819055508173ffffffffffffffffffffffffffffffffffffffff168373ffffffffffffffffffffffffffffffffffffffff167f8c5be1e5ebec7d5bd14f71427d1e84f3dd0314c0f7b2291e5b200ac8c7c3b925836040516110ea919061290f565b60405180910390a3505050565b60006111038484610d8f565b90507fffffffffffffffffffffffffffffffffffffffffffffffffffffffffffffffff811461117d578181101561116f576040517f08c379a000000000000000000000000000000000000000000000000000000000815260040161116690613353565b60405180910390fd5b61117c8484848403610f2e565b5b50505050565b600073ffffffffffffffffffffffffffffffffffffffff168373ffffffffffffffffffffffffffffffffffffffff16036111f2576040517f08c379a00000000000000000000000000000000000000000000000000000000081526004016111e9906133e5565b60405180910390fd5b600073ffffffffffffffffffffffffffffffffffffffff168273ffffffffffffffffffffffffffffffffffffffff1603611261576040517f08c379a000000000000000000000000000000000000000000000000000000000815260040161125890613477565b60405180910390fd5b61126c83838361192d565b60008060008573ffffffffffffffffffffffffffffffffffffffff1673ffffffffffffffffffffffffffffffffffffffff168152602001908152602001600020549050818110156112f2576040517f08c379a00000000000000000000000000000000000000000000000000000000081526004016112e990613509565b60405180910390fd5b8181036000808673ffffffffffffffffffffffffffffffffffffffff1673ffffffffffffffffffffffffffffffffffffffff16815260200190815260200160002081905550816000808573ffffffffffffffffffffffffffffffffffffffff1673ffffffffffffffffffffffffffffffffffffffff168152602001908152602001600020600082825401925050819055508273ffffffffffffffffffffffffffffffffffffffff168473ffffffffffffffffffffffffffffffffffffffff167fddf252ad1be2c89b69c2b068fc378daa952ba7f163c4a11628f55a4df523b3ef846040516113e0919061290f565b60405180910390a36113f3848484611932565b50505050565b60007f000000000000000000000000000000000000000000000000000000000000000073ffffffffffffffffffffffffffffffffffffffff163073ffffffffffffffffffffffffffffffffffffffff1614801561147557507f000000000000000000000000000000000000000000000000000000000000000046145b156114a2577f00000000000000000000000000000000000000000000000000000000000000009050611510565b61150d7f00000000000000000000000000000000000000000000000000000000000000007f00000000000000000000000000000000000000000000000000000000000000007f000000000000000000000000000000000000000000000000000000000000000061195d565b90505b90565b60008083805490509050600080829050600583111561158957600061153784611997565b846115429190612e98565b90508561154f8883611a90565b60000160009054906101000a900463ffffffff1663ffffffff16111561157757809150611587565b6001816115849190612df8565b92505b505b5b808210156115e957600061159e8383611aa5565b9050856115ab8883611a90565b60000160009054906101000a900463ffffffff1663ffffffff1611156115d3578091506115e3565b6001816115e09190612df8565b92505b5061158a565b6000811461163857611607866001836116029190612e98565b611a90565b60000160049054906101000a90047bffffffffffffffffffffffffffffffffffffffffffffffffffffffff1661163b565b60005b7bffffffffffffffffffffffffffffffffffffffffffffffffffffffff16935050505092915050565b61166e8282611acb565b611676611c21565b7bffffffffffffffffffffffffffffffffffffffffffffffffffffffff1661169c61060d565b11156116dd576040517f08c379a00000000000000000000000000000000000000000000000000000000081526004016116d49061359b565b60405180910390fd5b6116eb6009611c4583611c5b565b50505050565b60006116fc8361073f565b9050600061170984610810565b905082600760008673ffffffffffffffffffffffffffffffffffffffff1673ffffffffffffffffffffffffffffffffffffffff16815260200190815260200160002060006101000a81548173ffffffffffffffffffffffffffffffffffffffff021916908373ffffffffffffffffffffffffffffffffffffffff1602179055508273ffffffffffffffffffffffffffffffffffffffff168273ffffffffffffffffffffffffffffffffffffffff168573ffffffffffffffffffffffffffffffffffffffff167f3134e8a2e6d97e929a7e54011ea5485d7d196dd5f0ba4d4ef95803e8e3fc257f60405160405180910390a4611805828483611f2a565b50505050565b600063ffffffff8016821115611856576040517f08c379a000000000000000000000000000000000000000000000000000000000815260040161184d9061362d565b60405180910390fd5b819050919050565b600081600001549050919050565b6118768282612123565b61188460096122f083611c5b565b50505050565b600061189d6118976113f9565b83612306565b9050919050565b60008060006118b587878787612339565b915091506118c28161241b565b8192505050949350505050565b600080600560008473ffffffffffffffffffffffffffffffffffffffff1673ffffffffffffffffffffffffffffffffffffffff168152602001908152602001600020905061191c8161185e565b915061192781612581565b50919050565b505050565b61193d838383612597565b6119586119498461073f565b6119528461073f565b83611f2a565b505050565b6000838383463060405160200161197895949392919061364d565b6040516020818303038152906040528051906020012090509392505050565b60008082036119a95760009050611a8b565b600060016119b68461259c565b901c6001901b905060018184816119d0576119cf6136a0565b5b048201901c905060018184816119e9576119e86136a0565b5b048201901c90506001818481611a0257611a016136a0565b5b048201901c90506001818481611a1b57611a1a6136a0565b5b048201901c90506001818481611a3457611a336136a0565b5b048201901c90506001818481611a4d57611a4c6136a0565b5b048201901c90506001818481611a6657611a656136a0565b5b048201901c9050611a8781828581611a8157611a806136a0565b5b0461267d565b9150505b919050565b60008260005281602060002001905092915050565b60006002828418611ab691906136cf565b828416611ac39190612df8565b905092915050565b600073ffffffffffffffffffffffffffffffffffffffff168273ffffffffffffffffffffffffffffffffffffffff1603611b3a576040517f08c379a0000000000000000000000000000000000000000000000000000000008152600401611b319061374c565b60405180910390fd5b611b466000838361192d565b8060026000828254611b589190612df8565b92505081905550806000808473ffffffffffffffffffffffffffffffffffffffff1673ffffffffffffffffffffffffffffffffffffffff168152602001908152602001600020600082825401925050819055508173ffffffffffffffffffffffffffffffffffffffff16600073ffffffffffffffffffffffffffffffffffffffff167fddf252ad1be2c89b69c2b068fc378daa952ba7f163c4a11628f55a4df523b3ef83604051611c09919061290f565b60405180910390a3611c1d60008383611932565b5050565b60007bffffffffffffffffffffffffffffffffffffffffffffffffffffffff905090565b60008183611c539190612df8565b905092915050565b6000806000858054905090506000808214611d2a57611c8687600184611c819190612e98565b611a90565b6040518060400160405290816000820160009054906101000a900463ffffffff1663ffffffff1663ffffffff1681526020016000820160049054906101000a90047bffffffffffffffffffffffffffffffffffffffffffffffffffffffff167bffffffffffffffffffffffffffffffffffffffffffffffffffffffff167bffffffffffffffffffffffffffffffffffffffffffffffffffffffff1681525050611d66565b6040518060400160405280600063ffffffff16815260200160007bffffffffffffffffffffffffffffffffffffffffffffffffffffffff168152505b905080602001517bffffffffffffffffffffffffffffffffffffffffffffffffffffffff169350611d9b84868863ffffffff16565b9250600082118015611db6575043816000015163ffffffff16145b15611e3057611dc483612696565b611dda88600185611dd59190612e98565b611a90565b60000160046101000a8154817bffffffffffffffffffffffffffffffffffffffffffffffffffffffff02191690837bffffffffffffffffffffffffffffffffffffffffffffffffffffffff160217905550611f20565b866040518060400160405280611e454361180b565b63ffffffff168152602001611e5986612696565b7bffffffffffffffffffffffffffffffffffffffffffffffffffffffff168152509080600181540180825580915050600190039060005260206000200160009091909190915060008201518160000160006101000a81548163ffffffff021916908363ffffffff16021790555060208201518160000160046101000a8154817bffffffffffffffffffffffffffffffffffffffffffffffffffffffff02191690837bffffffffffffffffffffffffffffffffffffffffffffffffffffffff16021790555050505b5050935093915050565b8173ffffffffffffffffffffffffffffffffffffffff168373ffffffffffffffffffffffffffffffffffffffff1614158015611f665750600081115b1561211e57600073ffffffffffffffffffffffffffffffffffffffff168373ffffffffffffffffffffffffffffffffffffffff161461204457600080611fed600860008773ffffffffffffffffffffffffffffffffffffffff1673ffffffffffffffffffffffffffffffffffffffff1681526020019081526020016000206122f085611c5b565b915091508473ffffffffffffffffffffffffffffffffffffffff167fdec2bacdd2f05b59de34da9b523dff8be42e5e38e818c82fdb0bae774387a724838360405161203992919061376c565b60405180910390a250505b600073ffffffffffffffffffffffffffffffffffffffff168273ffffffffffffffffffffffffffffffffffffffff161461211d576000806120c6600860008673ffffffffffffffffffffffffffffffffffffffff1673ffffffffffffffffffffffffffffffffffffffff168152602001908152602001600020611c4585611c5b565b915091508373ffffffffffffffffffffffffffffffffffffffff167fdec2bacdd2f05b59de34da9b523dff8be42e5e38e818c82fdb0bae774387a724838360405161211292919061376c565b60405180910390a250505b5b505050565b600073ffffffffffffffffffffffffffffffffffffffff168273ffffffffffffffffffffffffffffffffffffffff1603612192576040517f08c379a000000000000000000000000000000000000000000000000000000000815260040161218990613807565b60405180910390fd5b61219e8260008361192d565b60008060008473ffffffffffffffffffffffffffffffffffffffff1673ffffffffffffffffffffffffffffffffffffffff16815260200190815260200160002054905081811015612224576040517f08c379a000000000000000000000000000000000000000000000000000000000815260040161221b90613899565b60405180910390fd5b8181036000808573ffffffffffffffffffffffffffffffffffffffff1673ffffffffffffffffffffffffffffffffffffffff1681526020019081526020016000208190555081600260008282540392505081905550600073ffffffffffffffffffffffffffffffffffffffff168373ffffffffffffffffffffffffffffffffffffffff167fddf252ad1be2c89b69c2b068fc378daa952ba7f163c4a11628f55a4df523b3ef846040516122d7919061290f565b60405180910390a36122eb83600084611932565b505050565b600081836122fe9190612e98565b905092915050565b6000828260405160200161231b929190613931565b60405160208183030381529060405280519060200120905092915050565b6000807f7fffffffffffffffffffffffffffffff5d576e7357a4501ddfe92f46681b20a08360001c1115612374576000600391509150612412565b6000600187878787604051600081526020016040526040516123999493929190613968565b6020604051602081039080840390855afa1580156123bb573d6000803e3d6000fd5b505050602060405103519050600073ffffffffffffffffffffffffffffffffffffffff168173ffffffffffffffffffffffffffffffffffffffff160361240957600060019250925050612412565b80600092509250505b94509492505050565b6000600481111561242f5761242e6139ad565b5b816004811115612442576124416139ad565b5b031561257e576001600481111561245c5761245b6139ad565b5b81600481111561246f5761246e6139ad565b5b036124af576040517f08c379a00000000000000000000000000000000000000000000000000000000081526004016124a690613a28565b60405180910390fd5b600260048111156124c3576124c26139ad565b5b8160048111156124d6576124d56139ad565b5b03612516576040517f08c379a000000000000000000000000000000000000000000000000000000000815260040161250d90613a94565b60405180910390fd5b6003600481111561252a576125296139ad565b5b81600481111561253d5761253c6139ad565b5b0361257d576040517f08c379a000000000000000000000000000000000000000000000000000000000815260040161257490613b26565b60405180910390fd5b5b50565b6001816000016000828254019250508190555050565b505050565b600080600090506000608084901c11156125be57608083901c92506080810190505b6000604084901c11156125d957604083901c92506040810190505b6000602084901c11156125f457602083901c92506020810190505b6000601084901c111561260f57601083901c92506010810190505b6000600884901c111561262a57600883901c92506008810190505b6000600484901c111561264557600483901c92506004810190505b6000600284901c111561266057600283901c92506002810190505b6000600184901c1115612674576001810190505b80915050919050565b600081831061268c578161268e565b825b905092915050565b60007bffffffffffffffffffffffffffffffffffffffffffffffffffffffff80168211156126f9576040517f08c379a00000000000000000000000000000000000000000000000000000000081526004016126f090613bb8565b60405180910390fd5b819050919050565b6040518060400160405280600063ffffffff16815260200160007bffffffffffffffffffffffffffffffffffffffffffffffffffffffff1681525090565b600081519050919050565b600082825260208201905092915050565b60005b8381101561277957808201518184015260208101905061275e565b60008484015250505050565b6000601f19601f8301169050919050565b60006127a18261273f565b6127ab818561274a565b93506127bb81856020860161275b565b6127c481612785565b840191505092915050565b600060208201905081810360008301526127e98184612796565b905092915050565b600080fd5b600073ffffffffffffffffffffffffffffffffffffffff82169050919050565b6000612821826127f6565b9050919050565b61283181612816565b811461283c57600080fd5b50565b60008135905061284e81612828565b92915050565b6000819050919050565b61286781612854565b811461287257600080fd5b50565b6000813590506128848161285e565b92915050565b600080604083850312156128a1576128a06127f1565b5b60006128af8582860161283f565b92505060206128c085828601612875565b9150509250929050565b60008115159050919050565b6128df816128ca565b82525050565b60006020820190506128fa60008301846128d6565b92915050565b61290981612854565b82525050565b60006020820190506129246000830184612900565b92915050565b600080600060608486031215612943576129426127f1565b5b60006129518682870161283f565b93505060206129628682870161283f565b925050604061297386828701612875565b9150509250925092565b600060ff82169050919050565b6129938161297d565b82525050565b60006020820190506129ae600083018461298a565b92915050565b6000819050919050565b6129c7816129b4565b82525050565b60006020820190506129e260008301846129be565b92915050565b6000602082840312156129fe576129fd6127f1565b5b6000612a0c8482850161283f565b91505092915050565b612a1e81612816565b82525050565b6000602082019050612a396000830184612a15565b92915050565b600063ffffffff82169050919050565b612a5881612a3f565b82525050565b6000602082019050612a736000830184612a4f565b92915050565b600060208284031215612a8f57612a8e6127f1565b5b6000612a9d84828501612875565b91505092915050565b612aaf8161297d565b8114612aba57600080fd5b50565b600081359050612acc81612aa6565b92915050565b612adb816129b4565b8114612ae657600080fd5b50565b600081359050612af881612ad2565b92915050565b60008060008060008060c08789031215612b1b57612b1a6127f1565b5b6000612b2989828a0161283f565b9650506020612b3a89828a01612875565b9550506040612b4b89828a01612875565b9450506060612b5c89828a01612abd565b9350506080612b6d89828a01612ae9565b92505060a0612b7e89828a01612ae9565b9150509295509295509295565b600080600080600080600060e0888a031215612baa57612ba96127f1565b5b6000612bb88a828b0161283f565b9750506020612bc98a828b0161283f565b9650506040612bda8a828b01612875565b9550506060612beb8a828b01612875565b9450506080612bfc8a828b01612abd565b93505060a0612c0d8a828b01612ae9565b92505060c0612c1e8a828b01612ae9565b91505092959891949750929550565b60008060408385031215612c4457612c436127f1565b5b6000612c528582860161283f565b9250506020612c638582860161283f565b9150509250929050565b612c7681612a3f565b8114612c8157600080fd5b50565b600081359050612c9381612c6d565b92915050565b60008060408385031215612cb057612caf6127f1565b5b6000612cbe8582860161283f565b9250506020612ccf85828601612c84565b9150509250929050565b612ce281612a3f565b82525050565b60007bffffffffffffffffffffffffffffffffffffffffffffffffffffffff82169050919050565b612d1981612ce8565b82525050565b604082016000820151612d356000850182612cd9565b506020820151612d486020850182612d10565b50505050565b6000604082019050612d636000830184612d1f565b92915050565b7f4e487b7100000000000000000000000000000000000000000000000000000000600052602260045260246000fd5b60006002820490506001821680612db057607f821691505b602082108103612dc357612dc2612d69565b5b50919050565b7f4e487b7100000000000000000000000000000000000000000000000000000000600052601160045260246000fd5b6000612e0382612854565b9150612e0e83612854565b9250828201905080821115612e2657612e25612dc9565b5b92915050565b7f4552433230566f7465733a20626c6f636b206e6f7420796574206d696e656400600082015250565b6000612e62601f8361274a565b9150612e6d82612e2c565b602082019050919050565b60006020820190508181036000830152612e9181612e55565b9050919050565b6000612ea382612854565b9150612eae83612854565b9250828203905081811115612ec657612ec5612dc9565b5b92915050565b7f4e487b7100000000000000000000000000000000000000000000000000000000600052603260045260246000fd5b7f45524332303a2064656372656173656420616c6c6f77616e63652062656c6f7760008201527f207a65726f000000000000000000000000000000000000000000000000000000602082015250565b6000612f5760258361274a565b9150612f6282612efb565b604082019050919050565b60006020820190508181036000830152612f8681612f4a565b9050919050565b7f4552433230566f7465733a207369676e61747572652065787069726564000000600082015250565b6000612fc3601d8361274a565b9150612fce82612f8d565b602082019050919050565b60006020820190508181036000830152612ff281612fb6565b9050919050565b600060808201905061300e60008301876129be565b61301b6020830186612a15565b6130286040830185612900565b6130356060830184612900565b95945050505050565b7f4552433230566f7465733a20696e76616c6964206e6f6e636500000000000000600082015250565b600061307460198361274a565b915061307f8261303e565b602082019050919050565b600060208201905081810360008301526130a381613067565b9050919050565b7f45524332305065726d69743a206578706972656420646561646c696e65000000600082015250565b60006130e0601d8361274a565b91506130eb826130aa565b602082019050919050565b6000602082019050818103600083015261310f816130d3565b9050919050565b600060c08201905061312b60008301896129be565b6131386020830188612a15565b6131456040830187612a15565b6131526060830186612900565b61315f6080830185612900565b61316c60a0830184612900565b979650505050505050565b7f45524332305065726d69743a20696e76616c6964207369676e61747572650000600082015250565b60006131ad601e8361274a565b91506131b882613177565b602082019050919050565b600060208201905081810360008301526131dc816131a0565b9050919050565b7f45524332303a20617070726f76652066726f6d20746865207a65726f2061646460008201527f7265737300000000000000000000000000000000000000000000000000000000602082015250565b600061323f60248361274a565b915061324a826131e3565b604082019050919050565b6000602082019050818103600083015261326e81613232565b9050919050565b7f45524332303a20617070726f766520746f20746865207a65726f20616464726560008201527f7373000000000000000000000000000000000000000000000000000000000000602082015250565b60006132d160228361274a565b91506132dc82613275565b604082019050919050565b60006020820190508181036000830152613300816132c4565b9050919050565b7f45524332303a20696e73756666696369656e7420616c6c6f77616e6365000000600082015250565b600061333d601d8361274a565b915061334882613307565b602082019050919050565b6000602082019050818103600083015261336c81613330565b9050919050565b7f45524332303a207472616e736665722066726f6d20746865207a65726f20616460008201527f6472657373000000000000000000000000000000000000000000000000000000602082015250565b60006133cf60258361274a565b91506133da82613373565b604082019050919050565b600060208201905081810360008301526133fe816133c2565b9050919050565b7f45524332303a207472616e7366657220746f20746865207a65726f206164647260008201527f6573730000000000000000000000000000000000000000000000000000000000602082015250565b600061346160238361274a565b915061346c82613405565b604082019050919050565b6000602082019050818103600083015261349081613454565b9050919050565b7f45524332303a207472616e7366657220616d6f756e742065786365656473206260008201527f616c616e63650000000000000000000000000000000000000000000000000000602082015250565b60006134f360268361274a565b91506134fe82613497565b604082019050919050565b60006020820190508181036000830152613522816134e6565b9050919050565b7f4552433230566f7465733a20746f74616c20737570706c79207269736b73206f60008201527f766572666c6f77696e6720766f74657300000000000000000000000000000000602082015250565b600061358560308361274a565b915061359082613529565b604082019050919050565b600060208201905081810360008301526135b481613578565b9050919050565b7f53616665436173743a2076616c756520646f65736e27742066697420696e203360008201527f3220626974730000000000000000000000000000000000000000000000000000602082015250565b600061361760268361274a565b9150613622826135bb565b604082019050919050565b600060208201905081810360008301526136468161360a565b9050919050565b600060a08201905061366260008301886129be565b61366f60208301876129be565b61367c60408301866129be565b6136896060830185612900565b6136966080830184612a15565b9695505050505050565b7f4e487b7100000000000000000000000000000000000000000000000000000000600052601260045260246000fd5b60006136da82612854565b91506136e583612854565b9250826136f5576136f46136a0565b5b828204905092915050565b7f45524332303a206d696e7420746f20746865207a65726f206164647265737300600082015250565b6000613736601f8361274a565b915061374182613700565b602082019050919050565b6000602082019050818103600083015261376581613729565b9050919050565b60006040820190506137816000830185612900565b61378e6020830184612900565b9392505050565b7f45524332303a206275726e2066726f6d20746865207a65726f2061646472657360008201527f7300000000000000000000000000000000000000000000000000000000000000602082015250565b60006137f160218361274a565b91506137fc82613795565b604082019050919050565b60006020820190508181036000830152613820816137e4565b9050919050565b7f45524332303a206275726e20616d6f756e7420657863656564732062616c616e60008201527f6365000000000000000000000000000000000000000000000000000000000000602082015250565b600061388360228361274a565b915061388e82613827565b604082019050919050565b600060208201905081810360008301526138b281613876565b9050919050565b600081905092915050565b7f1901000000000000000000000000000000000000000000000000000000000000600082015250565b60006138fa6002836138b9565b9150613905826138c4565b600282019050919050565b6000819050919050565b61392b613926826129b4565b613910565b82525050565b600061393c826138ed565b9150613948828561391a565b602082019150613958828461391a565b6020820191508190509392505050565b600060808201905061397d60008301876129be565b61398a602083018661298a565b61399760408301856129be565b6139a460608301846129be565b95945050505050565b7f4e487b7100000000000000000000000000000000000000000000000000000000600052602160045260246000fd5b7f45434453413a20696e76616c6964207369676e61747572650000000000000000600082015250565b6000613a1260188361274a565b9150613a1d826139dc565b602082019050919050565b60006020820190508181036000830152613a4181613a05565b9050919050565b7f45434453413a20696e76616c6964207369676e6174757265206c656e67746800600082015250565b6000613a7e601f8361274a565b9150613a8982613a48565b602082019050919050565b60006020820190508181036000830152613aad81613a71565b9050919050565b7f45434453413a20696e76616c6964207369676e6174757265202773272076616c60008201527f7565000000000000000000000000000000000000000000000000000000000000602082015250565b6000613b1060228361274a565b9150613b1b82613ab4565b604082019050919050565b60006020820190508181036000830152613b3f81613b03565b9050919050565b7f53616665436173743a2076616c756520646f65736e27742066697420696e203260008201527f3234206269747300000000000000000000000000000000000000000000000000602082015250565b6000613ba260278361274a565b9150613bad82613b46565b604082019050919050565b60006020820190508181036000830152613bd181613b95565b905091905056fea26469706673582212204418e47cc1f58df1d585e84720a655715d7155b2523f989ce15668462f5a42a264736f6c63430008110033",
  "linkReferences": {},
  "deployedLinkReferences": {}
}