{
  "_format": "hh-sol-artifact-1",
  "contractName": "GovernorTimelockCompoundMock",
  "sourceName": "contracts/mocks/GovernorTimelockCompoundMock.sol",
  "abi": [
    {
      "inputs": [
        {
          "internalType": "string",
          "name": "name_",
          "type": "string"
        },
        {
          "internalType": "contract IVotes",
          "name": "token_",
          "type": "address"
        },
        {
          "internalType": "uint256",
          "name": "votingDelay_",
          "type": "uint256"
        },
        {
          "internalType": "uint256",
          "name": "votingPeriod_",
          "type": "uint256"
        },
        {
          "internalType": "contract ICompoundTimelock",
          "name": "timelock_",
          "type": "address"
        },
        {
          "internalType": "uint256",
          "name": "quorumNumerator_",
          "type": "uint256"
        }
      ],
      "stateMutability": "nonpayable",
      "type": "constructor"
    },
    {
      "inputs": [],
      "name": "Empty",
      "type": "error"
    },
    {
      "anonymous": false,
      "inputs": [
        {
          "indexed": false,
          "internalType": "uint256",
          "name": "proposalId",
          "type": "uint256"
        }
      ],
      "name": "ProposalCanceled",
      "type": "event"
    },
    {
      "anonymous": false,
      "inputs": [
        {
          "indexed": false,
          "internalType": "uint256",
          "name": "proposalId",
          "type": "uint256"
        },
        {
          "indexed": false,
          "internalType": "address",
          "name": "proposer",
          "type": "address"
        },
        {
          "indexed": false,
          "internalType": "address[]",
          "name": "targets",
          "type": "address[]"
        },
        {
          "indexed": false,
          "internalType": "uint256[]",
          "name": "values",
          "type": "uint256[]"
        },
        {
          "indexed": false,
          "internalType": "string[]",
          "name": "signatures",
          "type": "string[]"
        },
        {
          "indexed": false,
          "internalType": "bytes[]",
          "name": "calldatas",
          "type": "bytes[]"
        },
        {
          "indexed": false,
          "internalType": "uint256",
          "name": "startBlock",
          "type": "uint256"
        },
        {
          "indexed": false,
          "internalType": "uint256",
          "name": "endBlock",
          "type": "uint256"
        },
        {
          "indexed": false,
          "internalType": "string",
          "name": "description",
          "type": "string"
        }
      ],
      "name": "ProposalCreated",
      "type": "event"
    },
    {
      "anonymous": false,
      "inputs": [
        {
          "indexed": false,
          "internalType": "uint256",
          "name": "proposalId",
          "type": "uint256"
        }
      ],
      "name": "ProposalExecuted",
      "type": "event"
    },
    {
      "anonymous": false,
      "inputs": [
        {
          "indexed": false,
          "internalType": "uint256",
          "name": "proposalId",
          "type": "uint256"
        },
        {
          "indexed": false,
          "internalType": "uint256",
          "name": "eta",
          "type": "uint256"
        }
      ],
      "name": "ProposalQueued",
      "type": "event"
    },
    {
      "anonymous": false,
      "inputs": [
        {
          "indexed": false,
          "internalType": "uint256",
          "name": "oldProposalThreshold",
          "type": "uint256"
        },
        {
          "indexed": false,
          "internalType": "uint256",
          "name": "newProposalThreshold",
          "type": "uint256"
        }
      ],
      "name": "ProposalThresholdSet",
      "type": "event"
    },
    {
      "anonymous": false,
      "inputs": [
        {
          "indexed": false,
          "internalType": "uint256",
          "name": "oldQuorumNumerator",
          "type": "uint256"
        },
        {
          "indexed": false,
          "internalType": "uint256",
          "name": "newQuorumNumerator",
          "type": "uint256"
        }
      ],
      "name": "QuorumNumeratorUpdated",
      "type": "event"
    },
    {
      "anonymous": false,
      "inputs": [
        {
          "indexed": false,
          "internalType": "address",
          "name": "oldTimelock",
          "type": "address"
        },
        {
          "indexed": false,
          "internalType": "address",
          "name": "newTimelock",
          "type": "address"
        }
      ],
      "name": "TimelockChange",
      "type": "event"
    },
    {
      "anonymous": false,
      "inputs": [
        {
          "indexed": true,
          "internalType": "address",
          "name": "voter",
          "type": "address"
        },
        {
          "indexed": false,
          "internalType": "uint256",
          "name": "proposalId",
          "type": "uint256"
        },
        {
          "indexed": false,
          "internalType": "uint8",
          "name": "support",
          "type": "uint8"
        },
        {
          "indexed": false,
          "internalType": "uint256",
          "name": "weight",
          "type": "uint256"
        },
        {
          "indexed": false,
          "internalType": "string",
          "name": "reason",
          "type": "string"
        }
      ],
      "name": "VoteCast",
      "type": "event"
    },
    {
      "anonymous": false,
      "inputs": [
        {
          "indexed": true,
          "internalType": "address",
          "name": "voter",
          "type": "address"
        },
        {
          "indexed": false,
          "internalType": "uint256",
          "name": "proposalId",
          "type": "uint256"
        },
        {
          "indexed": false,
          "internalType": "uint8",
          "name": "support",
          "type": "uint8"
        },
        {
          "indexed": false,
          "internalType": "uint256",
          "name": "weight",
          "type": "uint256"
        },
        {
          "indexed": false,
          "internalType": "string",
          "name": "reason",
          "type": "string"
        },
        {
          "indexed": false,
          "internalType": "bytes",
          "name": "params",
          "type": "bytes"
        }
      ],
      "name": "VoteCastWithParams",
      "type": "event"
    },
    {
      "anonymous": false,
      "inputs": [
        {
          "indexed": false,
          "internalType": "uint256",
          "name": "oldVotingDelay",
          "type": "uint256"
        },
        {
          "indexed": false,
          "internalType": "uint256",
          "name": "newVotingDelay",
          "type": "uint256"
        }
      ],
      "name": "VotingDelaySet",
      "type": "event"
    },
    {
      "anonymous": false,
      "inputs": [
        {
          "indexed": false,
          "internalType": "uint256",
          "name": "oldVotingPeriod",
          "type": "uint256"
        },
        {
          "indexed": false,
          "internalType": "uint256",
          "name": "newVotingPeriod",
          "type": "uint256"
        }
      ],
      "name": "VotingPeriodSet",
      "type": "event"
    },
    {
      "inputs": [],
      "name": "BALLOT_TYPEHASH",
      "outputs": [
        {
          "internalType": "bytes32",
          "name": "",
          "type": "bytes32"
        }
      ],
      "stateMutability": "view",
      "type": "function"
    },
    {
      "inputs": [],
      "name": "COUNTING_MODE",
      "outputs": [
        {
          "internalType": "string",
          "name": "",
          "type": "string"
        }
      ],
      "stateMutability": "pure",
      "type": "function"
    },
    {
      "inputs": [],
      "name": "EXTENDED_BALLOT_TYPEHASH",
      "outputs": [
        {
          "internalType": "bytes32",
          "name": "",
          "type": "bytes32"
        }
      ],
      "stateMutability": "view",
      "type": "function"
    },
    {
      "inputs": [],
      "name": "__acceptAdmin",
      "outputs": [],
      "stateMutability": "nonpayable",
      "type": "function"
    },
    {
      "inputs": [
        {
          "internalType": "address[]",
          "name": "targets",
          "type": "address[]"
        },
        {
          "internalType": "uint256[]",
          "name": "values",
          "type": "uint256[]"
        },
        {
          "internalType": "bytes[]",
          "name": "calldatas",
          "type": "bytes[]"
        },
        {
          "internalType": "bytes32",
          "name": "salt",
          "type": "bytes32"
        }
      ],
      "name": "cancel",
      "outputs": [
        {
          "internalType": "uint256",
          "name": "proposalId",
          "type": "uint256"
        }
      ],
      "stateMutability": "nonpayable",
      "type": "function"
    },
    {
      "inputs": [
        {
          "internalType": "uint256",
          "name": "proposalId",
          "type": "uint256"
        },
        {
          "internalType": "uint8",
          "name": "support",
          "type": "uint8"
        }
      ],
      "name": "castVote",
      "outputs": [
        {
          "internalType": "uint256",
          "name": "",
          "type": "uint256"
        }
      ],
      "stateMutability": "nonpayable",
      "type": "function"
    },
    {
      "inputs": [
        {
          "internalType": "uint256",
          "name": "proposalId",
          "type": "uint256"
        },
        {
          "internalType": "uint8",
          "name": "support",
          "type": "uint8"
        },
        {
          "internalType": "uint8",
          "name": "v",
          "type": "uint8"
        },
        {
          "internalType": "bytes32",
          "name": "r",
          "type": "bytes32"
        },
        {
          "internalType": "bytes32",
          "name": "s",
          "type": "bytes32"
        }
      ],
      "name": "castVoteBySig",
      "outputs": [
        {
          "internalType": "uint256",
          "name": "",
          "type": "uint256"
        }
      ],
      "stateMutability": "nonpayable",
      "type": "function"
    },
    {
      "inputs": [
        {
          "internalType": "uint256",
          "name": "proposalId",
          "type": "uint256"
        },
        {
          "internalType": "uint8",
          "name": "support",
          "type": "uint8"
        },
        {
          "internalType": "string",
          "name": "reason",
          "type": "string"
        }
      ],
      "name": "castVoteWithReason",
      "outputs": [
        {
          "internalType": "uint256",
          "name": "",
          "type": "uint256"
        }
      ],
      "stateMutability": "nonpayable",
      "type": "function"
    },
    {
      "inputs": [
        {
          "internalType": "uint256",
          "name": "proposalId",
          "type": "uint256"
        },
        {
          "internalType": "uint8",
          "name": "support",
          "type": "uint8"
        },
        {
          "internalType": "string",
          "name": "reason",
          "type": "string"
        },
        {
          "internalType": "bytes",
          "name": "params",
          "type": "bytes"
        }
      ],
      "name": "castVoteWithReasonAndParams",
      "outputs": [
        {
          "internalType": "uint256",
          "name": "",
          "type": "uint256"
        }
      ],
      "stateMutability": "nonpayable",
      "type": "function"
    },
    {
      "inputs": [
        {
          "internalType": "uint256",
          "name": "proposalId",
          "type": "uint256"
        },
        {
          "internalType": "uint8",
          "name": "support",
          "type": "uint8"
        },
        {
          "internalType": "string",
          "name": "reason",
          "type": "string"
        },
        {
          "internalType": "bytes",
          "name": "params",
          "type": "bytes"
        },
        {
          "internalType": "uint8",
          "name": "v",
          "type": "uint8"
        },
        {
          "internalType": "bytes32",
          "name": "r",
          "type": "bytes32"
        },
        {
          "internalType": "bytes32",
          "name": "s",
          "type": "bytes32"
        }
      ],
      "name": "castVoteWithReasonAndParamsBySig",
      "outputs": [
        {
          "internalType": "uint256",
          "name": "",
          "type": "uint256"
        }
      ],
      "stateMutability": "nonpayable",
      "type": "function"
    },
    {
      "inputs": [
        {
          "internalType": "address[]",
          "name": "targets",
          "type": "address[]"
        },
        {
          "internalType": "uint256[]",
          "name": "values",
          "type": "uint256[]"
        },
        {
          "internalType": "bytes[]",
          "name": "calldatas",
          "type": "bytes[]"
        },
        {
          "internalType": "bytes32",
          "name": "descriptionHash",
          "type": "bytes32"
        }
      ],
      "name": "execute",
      "outputs": [
        {
          "internalType": "uint256",
          "name": "",
          "type": "uint256"
        }
      ],
      "stateMutability": "payable",
      "type": "function"
    },
    {
      "inputs": [
        {
          "internalType": "address",
          "name": "account",
          "type": "address"
        },
        {
          "internalType": "uint256",
          "name": "blockNumber",
          "type": "uint256"
        }
      ],
      "name": "getVotes",
      "outputs": [
        {
          "internalType": "uint256",
          "name": "",
          "type": "uint256"
        }
      ],
      "stateMutability": "view",
      "type": "function"
    },
    {
      "inputs": [
        {
          "internalType": "address",
          "name": "account",
          "type": "address"
        },
        {
          "internalType": "uint256",
          "name": "blockNumber",
          "type": "uint256"
        },
        {
          "internalType": "bytes",
          "name": "params",
          "type": "bytes"
        }
      ],
      "name": "getVotesWithParams",
      "outputs": [
        {
          "internalType": "uint256",
          "name": "",
          "type": "uint256"
        }
      ],
      "stateMutability": "view",
      "type": "function"
    },
    {
      "inputs": [
        {
          "internalType": "uint256",
          "name": "proposalId",
          "type": "uint256"
        },
        {
          "internalType": "address",
          "name": "account",
          "type": "address"
        }
      ],
      "name": "hasVoted",
      "outputs": [
        {
          "internalType": "bool",
          "name": "",
          "type": "bool"
        }
      ],
      "stateMutability": "view",
      "type": "function"
    },
    {
      "inputs": [
        {
          "internalType": "address[]",
          "name": "targets",
          "type": "address[]"
        },
        {
          "internalType": "uint256[]",
          "name": "values",
          "type": "uint256[]"
        },
        {
          "internalType": "bytes[]",
          "name": "calldatas",
          "type": "bytes[]"
        },
        {
          "internalType": "bytes32",
          "name": "descriptionHash",
          "type": "bytes32"
        }
      ],
      "name": "hashProposal",
      "outputs": [
        {
          "internalType": "uint256",
          "name": "",
          "type": "uint256"
        }
      ],
      "stateMutability": "pure",
      "type": "function"
    },
    {
      "inputs": [],
      "name": "name",
      "outputs": [
        {
          "internalType": "string",
          "name": "",
          "type": "string"
        }
      ],
      "stateMutability": "view",
      "type": "function"
    },
    {
      "inputs": [
        {
          "internalType": "address",
          "name": "",
          "type": "address"
        },
        {
          "internalType": "address",
          "name": "",
          "type": "address"
        },
        {
          "internalType": "uint256[]",
          "name": "",
          "type": "uint256[]"
        },
        {
          "internalType": "uint256[]",
          "name": "",
          "type": "uint256[]"
        },
        {
          "internalType": "bytes",
          "name": "",
          "type": "bytes"
        }
      ],
      "name": "onERC1155BatchReceived",
      "outputs": [
        {
          "internalType": "bytes4",
          "name": "",
          "type": "bytes4"
        }
      ],
      "stateMutability": "nonpayable",
      "type": "function"
    },
    {
      "inputs": [
        {
          "internalType": "address",
          "name": "",
          "type": "address"
        },
        {
          "internalType": "address",
          "name": "",
          "type": "address"
        },
        {
          "internalType": "uint256",
          "name": "",
          "type": "uint256"
        },
        {
          "internalType": "uint256",
          "name": "",
          "type": "uint256"
        },
        {
          "internalType": "bytes",
          "name": "",
          "type": "bytes"
        }
      ],
      "name": "onERC1155Received",
      "outputs": [
        {
          "internalType": "bytes4",
          "name": "",
          "type": "bytes4"
        }
      ],
      "stateMutability": "nonpayable",
      "type": "function"
    },
    {
      "inputs": [
        {
          "internalType": "address",
          "name": "",
          "type": "address"
        },
        {
          "internalType": "address",
          "name": "",
          "type": "address"
        },
        {
          "internalType": "uint256",
          "name": "",
          "type": "uint256"
        },
        {
          "internalType": "bytes",
          "name": "",
          "type": "bytes"
        }
      ],
      "name": "onERC721Received",
      "outputs": [
        {
          "internalType": "bytes4",
          "name": "",
          "type": "bytes4"
        }
      ],
      "stateMutability": "nonpayable",
      "type": "function"
    },
    {
      "inputs": [
        {
          "internalType": "uint256",
          "name": "proposalId",
          "type": "uint256"
        }
      ],
      "name": "proposalDeadline",
      "outputs": [
        {
          "internalType": "uint256",
          "name": "",
          "type": "uint256"
        }
      ],
      "stateMutability": "view",
      "type": "function"
    },
    {
      "inputs": [
        {
          "internalType": "uint256",
          "name": "proposalId",
          "type": "uint256"
        }
      ],
      "name": "proposalEta",
      "outputs": [
        {
          "internalType": "uint256",
          "name": "",
          "type": "uint256"
        }
      ],
      "stateMutability": "view",
      "type": "function"
    },
    {
      "inputs": [
        {
          "internalType": "uint256",
          "name": "proposalId",
          "type": "uint256"
        }
      ],
      "name": "proposalSnapshot",
      "outputs": [
        {
          "internalType": "uint256",
          "name": "",
          "type": "uint256"
        }
      ],
      "stateMutability": "view",
      "type": "function"
    },
    {
      "inputs": [],
      "name": "proposalThreshold",
      "outputs": [
        {
          "internalType": "uint256",
          "name": "",
          "type": "uint256"
        }
      ],
      "stateMutability": "view",
      "type": "function"
    },
    {
      "inputs": [
        {
          "internalType": "uint256",
          "name": "proposalId",
          "type": "uint256"
        }
      ],
      "name": "proposalVotes",
      "outputs": [
        {
          "internalType": "uint256",
          "name": "againstVotes",
          "type": "uint256"
        },
        {
          "internalType": "uint256",
          "name": "forVotes",
          "type": "uint256"
        },
        {
          "internalType": "uint256",
          "name": "abstainVotes",
          "type": "uint256"
        }
      ],
      "stateMutability": "view",
      "type": "function"
    },
    {
      "inputs": [
        {
          "internalType": "address[]",
          "name": "targets",
          "type": "address[]"
        },
        {
          "internalType": "uint256[]",
          "name": "values",
          "type": "uint256[]"
        },
        {
          "internalType": "bytes[]",
          "name": "calldatas",
          "type": "bytes[]"
        },
        {
          "internalType": "string",
          "name": "description",
          "type": "string"
        }
      ],
      "name": "propose",
      "outputs": [
        {
          "internalType": "uint256",
          "name": "",
          "type": "uint256"
        }
      ],
      "stateMutability": "nonpayable",
      "type": "function"
    },
    {
      "inputs": [
        {
          "internalType": "address[]",
          "name": "targets",
          "type": "address[]"
        },
        {
          "internalType": "uint256[]",
          "name": "values",
          "type": "uint256[]"
        },
        {
          "internalType": "bytes[]",
          "name": "calldatas",
          "type": "bytes[]"
        },
        {
          "internalType": "bytes32",
          "name": "descriptionHash",
          "type": "bytes32"
        }
      ],
      "name": "queue",
      "outputs": [
        {
          "internalType": "uint256",
          "name": "",
          "type": "uint256"
        }
      ],
      "stateMutability": "nonpayable",
      "type": "function"
    },
    {
      "inputs": [
        {
          "internalType": "uint256",
          "name": "blockNumber",
          "type": "uint256"
        }
      ],
      "name": "quorum",
      "outputs": [
        {
          "internalType": "uint256",
          "name": "",
          "type": "uint256"
        }
      ],
      "stateMutability": "view",
      "type": "function"
    },
    {
      "inputs": [],
      "name": "quorumDenominator",
      "outputs": [
        {
          "internalType": "uint256",
          "name": "",
          "type": "uint256"
        }
      ],
      "stateMutability": "view",
      "type": "function"
    },
    {
      "inputs": [
        {
          "internalType": "uint256",
          "name": "blockNumber",
          "type": "uint256"
        }
      ],
      "name": "quorumNumerator",
      "outputs": [
        {
          "internalType": "uint256",
          "name": "",
          "type": "uint256"
        }
      ],
      "stateMutability": "view",
      "type": "function"
    },
    {
      "inputs": [],
      "name": "quorumNumerator",
      "outputs": [
        {
          "internalType": "uint256",
          "name": "",
          "type": "uint256"
        }
      ],
      "stateMutability": "view",
      "type": "function"
    },
    {
      "inputs": [
        {
          "internalType": "address",
          "name": "target",
          "type": "address"
        },
        {
          "internalType": "uint256",
          "name": "value",
          "type": "uint256"
        },
        {
          "internalType": "bytes",
          "name": "data",
          "type": "bytes"
        }
      ],
      "name": "relay",
      "outputs": [],
      "stateMutability": "payable",
      "type": "function"
    },
    {
      "inputs": [
        {
          "internalType": "uint256",
          "name": "newProposalThreshold",
          "type": "uint256"
        }
      ],
      "name": "setProposalThreshold",
      "outputs": [],
      "stateMutability": "nonpayable",
      "type": "function"
    },
    {
      "inputs": [
        {
          "internalType": "uint256",
          "name": "newVotingDelay",
          "type": "uint256"
        }
      ],
      "name": "setVotingDelay",
      "outputs": [],
      "stateMutability": "nonpayable",
      "type": "function"
    },
    {
      "inputs": [
        {
          "internalType": "uint256",
          "name": "newVotingPeriod",
          "type": "uint256"
        }
      ],
      "name": "setVotingPeriod",
      "outputs": [],
      "stateMutability": "nonpayable",
      "type": "function"
    },
    {
      "inputs": [
        {
          "internalType": "uint256",
          "name": "proposalId",
          "type": "uint256"
        }
      ],
      "name": "state",
      "outputs": [
        {
          "internalType": "enum IGovernor.ProposalState",
          "name": "",
          "type": "uint8"
        }
      ],
      "stateMutability": "view",
      "type": "function"
    },
    {
      "inputs": [
        {
          "internalType": "bytes4",
          "name": "interfaceId",
          "type": "bytes4"
        }
      ],
      "name": "supportsInterface",
      "outputs": [
        {
          "internalType": "bool",
          "name": "",
          "type": "bool"
        }
      ],
      "stateMutability": "view",
      "type": "function"
    },
    {
      "inputs": [],
      "name": "timelock",
      "outputs": [
        {
          "internalType": "address",
          "name": "",
          "type": "address"
        }
      ],
      "stateMutability": "view",
      "type": "function"
    },
    {
      "inputs": [],
      "name": "token",
      "outputs": [
        {
          "internalType": "contract IVotes",
          "name": "",
          "type": "address"
        }
      ],
      "stateMutability": "view",
      "type": "function"
    },
    {
      "inputs": [
        {
          "internalType": "uint256",
          "name": "newQuorumNumerator",
          "type": "uint256"
        }
      ],
      "name": "updateQuorumNumerator",
      "outputs": [],
      "stateMutability": "nonpayable",
      "type": "function"
    },
    {
      "inputs": [
        {
          "internalType": "contract ICompoundTimelock",
          "name": "newTimelock",
          "type": "address"
        }
      ],
      "name": "updateTimelock",
      "outputs": [],
      "stateMutability": "nonpayable",
      "type": "function"
    },
    {
      "inputs": [],
      "name": "version",
      "outputs": [
        {
          "internalType": "string",
          "name": "",
          "type": "string"
        }
      ],
      "stateMutability": "view",
      "type": "function"
    },
    {
      "inputs": [],
      "name": "votingDelay",
      "outputs": [
        {
          "internalType": "uint256",
          "name": "",
          "type": "uint256"
        }
      ],
      "stateMutability": "view",
      "type": "function"
    },
    {
      "inputs": [],
      "name": "votingPeriod",
      "outputs": [
        {
          "internalType": "uint256",
          "name": "",
          "type": "uint256"
        }
      ],
      "stateMutability": "view",
      "type": "function"
    },
    {
      "stateMutability": "payable",
      "type": "receive"
    }
  ],
  "bytecode": "0x6101606040523480156200001257600080fd5b50604051620089af380380620089af833981810160405281019062000038919062000e45565b808583868660008b8062000051620001b260201b60201c565b60008280519060200120905060008280519060200120905060007f8b73c3c69bb8fe3d512ecc4cf759cc79239f7b179b0ffacaa9a75d522b39400f90508260e081815250508161010081815250504660a08181525050620000ba818484620001ef60201b60201c565b608081815250503073ffffffffffffffffffffffffffffffffffffffff1660c08173ffffffffffffffffffffffffffffffffffffffff16815250508061012081815250505050505050806000908162000114919062001141565b505062000127836200022b60201b60201c565b62000138826200027260201b60201c565b6200014981620002ff60201b60201c565b5050506200015d816200034660201b60201c565b508073ffffffffffffffffffffffffffffffffffffffff166101408173ffffffffffffffffffffffffffffffffffffffff168152505050620001a581620003e760201b60201c565b505050505050506200168f565b60606040518060400160405280600181526020017f3100000000000000000000000000000000000000000000000000000000000000815250905090565b600083838346306040516020016200020c95949392919062001265565b6040516020818303038152906040528051906020012090509392505050565b7fc565b045403dc03c2eea82b81a0465edad9e2e7fc4d97e11421c209da93d7a936004548260405162000260929190620012c2565b60405180910390a18060048190555050565b60008111620002b8576040517f08c379a0000000000000000000000000000000000000000000000000000000008152600401620002af9062001376565b60405180910390fd5b7f7e3f7f0708a84de9203036abaa450dccc85ad5ff52f78c170f3edb55cf5e882860055482604051620002ed929190620012c2565b60405180910390a18060058190555050565b7fccb45da8d5717e6c4544694297c4ba5cf151d455c9bb0ed4fc7a38411bc054616006548260405162000334929190620012c2565b60405180910390a18060068190555050565b7f08f74ea46ef7894f65eabfb5e6e695de773a000b47c529ab559178069b226401600760009054906101000a900473ffffffffffffffffffffffffffffffffffffffff16826040516200039b92919062001398565b60405180910390a180600760006101000a81548173ffffffffffffffffffffffffffffffffffffffff021916908373ffffffffffffffffffffffffffffffffffffffff16021790555050565b620003f7620005c660201b60201c565b8111156200043c576040517f08c379a0000000000000000000000000000000000000000000000000000000008152600401620004339062001461565b60405180910390fd5b60006200044e620005cf60201b60201c565b9050600081141580156200046a57506000600a60000180549050145b156200056a57600a6000016040518060400160405280600063ffffffff168152602001620004a3846200062560201b620023561760201c565b7bffffffffffffffffffffffffffffffffffffffffffffffffffffffff168152509080600181540180825580915050600190039060005260206000200160009091909190915060008201518160000160006101000a81548163ffffffff021916908363ffffffff16021790555060208201518160000160046101000a8154817bffffffffffffffffffffffffffffffffffffffffffffffffffffffff02191690837bffffffffffffffffffffffffffffffffffffffffffffffffffffffff16021790555050505b6200058582600a6200069360201b620023c11790919060201c565b50507f0553476bf02ef2726e8ce5ced78d63e26e602e4a2257b1f559418e24b46339978183604051620005ba929190620012c2565b60405180910390a15050565b60006064905090565b600080600a60000180549050146200061c57620005f8600a6200072360201b6200242f1760201c565b7bffffffffffffffffffffffffffffffffffffffffffffffffffffffff1662000620565b6009545b905090565b60007bffffffffffffffffffffffffffffffffffffffffffffffffffffffff80168211156200068b576040517f08c379a00000000000000000000000000000000000000000000000000000000081526004016200068290620014f9565b60405180910390fd5b819050919050565b600080620006d684600001620006b4436200079960201b620024991760201c565b620006ca866200062560201b620023561760201c565b620007ef60201b60201c565b817bffffffffffffffffffffffffffffffffffffffffffffffffffffffff169150807bffffffffffffffffffffffffffffffffffffffffffffffffffffffff169050915091509250929050565b60008082600001805490509050600081146200078e576200075c836000016001836200075091906200154a565b62000b9060201b60201c565b60000160049054906101000a90047bffffffffffffffffffffffffffffffffffffffffffffffffffffffff1662000791565b60005b915050919050565b600063ffffffff8016821115620007e7576040517f08c379a0000000000000000000000000000000000000000000000000000000008152600401620007de90620015fb565b60405180910390fd5b819050919050565b600080600085805490509050600081111562000aa057600062000827876001846200081b91906200154a565b62000b9060201b60201c565b6040518060400160405290816000820160009054906101000a900463ffffffff1663ffffffff1663ffffffff1681526020016000820160049054906101000a90047bffffffffffffffffffffffffffffffffffffffffffffffffffffffff167bffffffffffffffffffffffffffffffffffffffffffffffffffffffff167bffffffffffffffffffffffffffffffffffffffffffffffffffffffff168152505090508563ffffffff16816000015163ffffffff1611156200091e576040517f08c379a000000000000000000000000000000000000000000000000000000000815260040162000915906200166d565b60405180910390fd5b8563ffffffff16816000015163ffffffff1603620009ae578462000957886001856200094b91906200154a565b62000b9060201b60201c565b60000160046101000a8154817bffffffffffffffffffffffffffffffffffffffffffffffffffffffff02191690837bffffffffffffffffffffffffffffffffffffffffffffffffffffffff16021790555062000a8e565b8660405180604001604052808863ffffffff168152602001877bffffffffffffffffffffffffffffffffffffffffffffffffffffffff168152509080600181540180825580915050600190039060005260206000200160009091909190915060008201518160000160006101000a81548163ffffffff021916908363ffffffff16021790555060208201518160000160046101000a8154817bffffffffffffffffffffffffffffffffffffffffffffffffffffffff02191690837bffffffffffffffffffffffffffffffffffffffffffffffffffffffff16021790555050505b80602001518593509350505062000b88565b8560405180604001604052808763ffffffff168152602001867bffffffffffffffffffffffffffffffffffffffffffffffffffffffff168152509080600181540180825580915050600190039060005260206000200160009091909190915060008201518160000160006101000a81548163ffffffff021916908363ffffffff16021790555060208201518160000160046101000a8154817bffffffffffffffffffffffffffffffffffffffffffffffffffffffff02191690837bffffffffffffffffffffffffffffffffffffffffffffffffffffffff160217905550505060008492509250505b935093915050565b60008260005281602060002001905092915050565b6000604051905090565b600080fd5b600080fd5b600080fd5b600080fd5b6000601f19601f8301169050919050565b7f4e487b7100000000000000000000000000000000000000000000000000000000600052604160045260246000fd5b62000c0e8262000bc3565b810181811067ffffffffffffffff8211171562000c305762000c2f62000bd4565b5b80604052505050565b600062000c4562000ba5565b905062000c53828262000c03565b919050565b600067ffffffffffffffff82111562000c765762000c7562000bd4565b5b62000c818262000bc3565b9050602081019050919050565b60005b8381101562000cae57808201518184015260208101905062000c91565b60008484015250505050565b600062000cd162000ccb8462000c58565b62000c39565b90508281526020810184848401111562000cf05762000cef62000bbe565b5b62000cfd84828562000c8e565b509392505050565b600082601f83011262000d1d5762000d1c62000bb9565b5b815162000d2f84826020860162000cba565b91505092915050565b600073ffffffffffffffffffffffffffffffffffffffff82169050919050565b600062000d658262000d38565b9050919050565b600062000d798262000d58565b9050919050565b62000d8b8162000d6c565b811462000d9757600080fd5b50565b60008151905062000dab8162000d80565b92915050565b6000819050919050565b62000dc68162000db1565b811462000dd257600080fd5b50565b60008151905062000de68162000dbb565b92915050565b600062000df98262000d38565b9050919050565b600062000e0d8262000dec565b9050919050565b62000e1f8162000e00565b811462000e2b57600080fd5b50565b60008151905062000e3f8162000e14565b92915050565b60008060008060008060c0878903121562000e655762000e6462000baf565b5b600087015167ffffffffffffffff81111562000e865762000e8562000bb4565b5b62000e9489828a0162000d05565b965050602062000ea789828a0162000d9a565b955050604062000eba89828a0162000dd5565b945050606062000ecd89828a0162000dd5565b935050608062000ee089828a0162000e2e565b92505060a062000ef389828a0162000dd5565b9150509295509295509295565b600081519050919050565b7f4e487b7100000000000000000000000000000000000000000000000000000000600052602260045260246000fd5b6000600282049050600182168062000f5357607f821691505b60208210810362000f695762000f6862000f0b565b5b50919050565b60008190508160005260206000209050919050565b60006020601f8301049050919050565b600082821b905092915050565b60006008830262000fd37fffffffffffffffffffffffffffffffffffffffffffffffffffffffffffffffff8262000f94565b62000fdf868362000f94565b95508019841693508086168417925050509392505050565b6000819050919050565b6000620010226200101c620010168462000db1565b62000ff7565b62000db1565b9050919050565b6000819050919050565b6200103e8362001001565b620010566200104d8262001029565b84845462000fa1565b825550505050565b600090565b6200106d6200105e565b6200107a81848462001033565b505050565b5b81811015620010a2576200109660008262001063565b60018101905062001080565b5050565b601f821115620010f157620010bb8162000f6f565b620010c68462000f84565b81016020851015620010d6578190505b620010ee620010e58562000f84565b8301826200107f565b50505b505050565b600082821c905092915050565b60006200111660001984600802620010f6565b1980831691505092915050565b600062001131838362001103565b9150826002028217905092915050565b6200114c8262000f00565b67ffffffffffffffff81111562001168576200116762000bd4565b5b62001174825462000f3a565b62001181828285620010a6565b600060209050601f831160018114620011b95760008415620011a4578287015190505b620011b0858262001123565b86555062001220565b601f198416620011c98662000f6f565b60005b82811015620011f357848901518255600182019150602085019450602081019050620011cc565b868310156200121357848901516200120f601f89168262001103565b8355505b6001600288020188555050505b505050505050565b6000819050919050565b6200123d8162001228565b82525050565b6200124e8162000db1565b82525050565b6200125f8162000d58565b82525050565b600060a0820190506200127c600083018862001232565b6200128b602083018762001232565b6200129a604083018662001232565b620012a9606083018562001243565b620012b8608083018462001254565b9695505050505050565b6000604082019050620012d9600083018562001243565b620012e8602083018462001243565b9392505050565b600082825260208201905092915050565b7f476f7665726e6f7253657474696e67733a20766f74696e6720706572696f642060008201527f746f6f206c6f7700000000000000000000000000000000000000000000000000602082015250565b60006200135e602783620012ef565b91506200136b8262001300565b604082019050919050565b6000602082019050818103600083015262001391816200134f565b9050919050565b6000604082019050620013af600083018562001254565b620013be602083018462001254565b9392505050565b7f476f7665726e6f72566f74657351756f72756d4672616374696f6e3a2071756f60008201527f72756d4e756d657261746f72206f7665722071756f72756d44656e6f6d696e6160208201527f746f720000000000000000000000000000000000000000000000000000000000604082015250565b600062001449604383620012ef565b91506200145682620013c5565b606082019050919050565b600060208201905081810360008301526200147c816200143a565b9050919050565b7f53616665436173743a2076616c756520646f65736e27742066697420696e203260008201527f3234206269747300000000000000000000000000000000000000000000000000602082015250565b6000620014e1602783620012ef565b9150620014ee8262001483565b604082019050919050565b600060208201905081810360008301526200151481620014d2565b9050919050565b7f4e487b7100000000000000000000000000000000000000000000000000000000600052601160045260246000fd5b6000620015578262000db1565b9150620015648362000db1565b92508282039050818111156200157f576200157e6200151b565b5b92915050565b7f53616665436173743a2076616c756520646f65736e27742066697420696e203360008201527f3220626974730000000000000000000000000000000000000000000000000000602082015250565b6000620015e3602683620012ef565b9150620015f08262001585565b604082019050919050565b600060208201905081810360008301526200161681620015d4565b9050919050565b7f436865636b706f696e743a20696e76616c6964206b6579000000000000000000600082015250565b600062001655601783620012ef565b915062001662826200161d565b602082019050919050565b60006020820190508181036000830152620016888162001646565b9050919050565b60805160a05160c05160e0516101005161012051610140516172b7620016f86000396000818161233401528181612ef00152613165015260006137c601526000613808015260006137e70152600061371c015260006137720152600061379b01526172b76000f3fe6080604052600436106102605760003560e01c80637b3c71d311610144578063c28bc2fa116100b6578063ea0217cf1161007a578063ea0217cf14610a28578063eb9019d414610a51578063ece40cc114610a8e578063f23a6e6114610ab7578063f8ce560a14610af4578063fc0c546a14610b31576102a6565b8063c28bc2fa1461094e578063c59057e41461096a578063d33219b4146109a7578063dd4e2ba5146109d2578063deaaa7cc146109fd576102a6565b8063a890c91011610108578063a890c9101461082c578063ab58fb8e14610855578063b58131b014610892578063b9a61961146108bd578063bc197c81146108d4578063c01f9e3714610911576102a6565b80637b3c71d31461071f5780637d5e81e21461075c57806397c3d334146107995780639a802a6d146107c4578063a7713a7014610801576102a6565b80633932abb1116101dd578063544ffc9c116101a1578063544ffc9c146105d557806354fd4d5014610614578063567813881461063f5780635f398a141461067c57806360c4247f146106b957806370b0f660146106f6576102a6565b80633932abb1146104b65780633bccf4fd146104e15780633e4f49e61461051e578063438596321461055b578063452115d614610598576102a6565b8063150b7a0211610224578063150b7a02146103a4578063160cbed7146103e15780632656227d1461041e5780632d63f6931461044e5780632fe3e2611461048b576102a6565b806301ffc9a7146102ab57806302a251a3146102e8578063034201811461031357806306f3f9e61461035057806306fdde0314610379576102a6565b366102a6573073ffffffffffffffffffffffffffffffffffffffff16610284610b5c565b73ffffffffffffffffffffffffffffffffffffffff16146102a457600080fd5b005b600080fd5b3480156102b757600080fd5b506102d260048036038101906102cd91906146ca565b610b6b565b6040516102df9190614712565b60405180910390f35b3480156102f457600080fd5b506102fd610b7d565b60405161030a9190614746565b60405180910390f35b34801561031f57600080fd5b5061033a600480360381019061033591906149a2565b610b87565b6040516103479190614746565b60405180910390f35b34801561035c57600080fd5b5061037760048036038101906103729190614a80565b610c6c565b005b34801561038557600080fd5b5061038e610d63565b60405161039b9190614b2c565b60405180910390f35b3480156103b057600080fd5b506103cb60048036038101906103c69190614bac565b610df5565b6040516103d89190614c3e565b60405180910390f35b3480156103ed57600080fd5b5061040860048036038101906104039190614ec0565b610e09565b6040516104159190614746565b60405180910390f35b61043860048036038101906104339190614ec0565b611206565b6040516104459190614746565b60405180910390f35b34801561045a57600080fd5b5061047560048036038101906104709190614a80565b611353565b6040516104829190614746565b60405180910390f35b34801561049757600080fd5b506104a06113c1565b6040516104ad9190614f8a565b60405180910390f35b3480156104c257600080fd5b506104cb6113e5565b6040516104d89190614746565b60405180910390f35b3480156104ed57600080fd5b5061050860048036038101906105039190614fa5565b6113ef565b6040516105159190614746565b60405180910390f35b34801561052a57600080fd5b5061054560048036038101906105409190614a80565b611479565b6040516105529190615097565b60405180910390f35b34801561056757600080fd5b50610582600480360381019061057d91906150b2565b61148b565b60405161058f9190614712565b60405180910390f35b3480156105a457600080fd5b506105bf60048036038101906105ba9190614ec0565b6114f6565b6040516105cc9190614746565b60405180910390f35b3480156105e157600080fd5b506105fc60048036038101906105f79190614a80565b61150e565b60405161060b939291906150f2565b60405180910390f35b34801561062057600080fd5b50610629611546565b6040516106369190614b2c565b60405180910390f35b34801561064b57600080fd5b5061066660048036038101906106619190615129565b611583565b6040516106739190614746565b60405180910390f35b34801561068857600080fd5b506106a3600480360381019061069e9190615169565b6115b4565b6040516106b09190614746565b60405180910390f35b3480156106c557600080fd5b506106e060048036038101906106db9190614a80565b61161e565b6040516106ed9190614746565b60405180910390f35b34801561070257600080fd5b5061071d60048036038101906107189190614a80565b61176a565b005b34801561072b57600080fd5b506107466004803603810190610741919061520d565b611861565b6040516107539190614746565b60405180910390f35b34801561076857600080fd5b50610783600480360381019061077e9190615322565b6118c9565b6040516107909190614746565b60405180910390f35b3480156107a557600080fd5b506107ae611bd0565b6040516107bb9190614746565b60405180910390f35b3480156107d057600080fd5b506107eb60048036038101906107e691906153f9565b611bd9565b6040516107f89190614746565b60405180910390f35b34801561080d57600080fd5b50610816611bef565b6040516108239190614746565b60405180910390f35b34801561083857600080fd5b50610853600480360381019061084e91906154b8565b611c36565b005b34801561086157600080fd5b5061087c60048036038101906108779190614a80565b611d2d565b6040516108899190614746565b60405180910390f35b34801561089e57600080fd5b506108a7611d9b565b6040516108b49190614746565b60405180910390f35b3480156108c957600080fd5b506108d2611daa565b005b3480156108e057600080fd5b506108fb60048036038101906108f691906154e5565b611e2e565b6040516109089190614c3e565b60405180910390f35b34801561091d57600080fd5b5061093860048036038101906109339190614a80565b611e43565b6040516109459190614746565b60405180910390f35b6109686004803603810190610963919061560a565b611eb1565b005b34801561097657600080fd5b50610991600480360381019061098c9190614ec0565b61203a565b60405161099e9190614746565b60405180910390f35b3480156109b357600080fd5b506109bc612076565b6040516109c9919061568d565b60405180910390f35b3480156109de57600080fd5b506109e76120a0565b6040516109f49190614b2c565b60405180910390f35b348015610a0957600080fd5b50610a126120dd565b604051610a1f9190614f8a565b60405180910390f35b348015610a3457600080fd5b50610a4f6004803603810190610a4a9190614a80565b612101565b005b348015610a5d57600080fd5b50610a786004803603810190610a7391906156a8565b6121f8565b604051610a859190614746565b60405180910390f35b348015610a9a57600080fd5b50610ab56004803603810190610ab09190614a80565b612214565b005b348015610ac357600080fd5b50610ade6004803603810190610ad991906156e8565b61230b565b604051610aeb9190614c3e565b60405180910390f35b348015610b0057600080fd5b50610b1b6004803603810190610b169190614a80565b612320565b604051610b289190614746565b60405180910390f35b348015610b3d57600080fd5b50610b46612332565b604051610b5391906157de565b60405180910390f35b6000610b666124ec565b905090565b6000610b7682612516565b9050919050565b6000600554905090565b600080610c0a610c027fb3b3f3b703cd84ce352197dcff232b1b5d3cfb2025ce47cf04742d0651f1af888c8c8c8c604051610bc3929190615829565b60405180910390208b80519060200120604051602001610be7959493929190615851565b60405160208183030381529060405280519060200120612590565b8686866125aa565b9050610c5d8a828b8b8b8080601f016020809104026020016040519081016040528093929190818152602001838380828437600081840152601f19601f820116905080830192505050505050508a6125d5565b91505098975050505050505050565b610c74610b5c565b73ffffffffffffffffffffffffffffffffffffffff16610c92612791565b73ffffffffffffffffffffffffffffffffffffffff1614610ce8576040517f08c379a0000000000000000000000000000000000000000000000000000000008152600401610cdf906158f0565b60405180910390fd5b3073ffffffffffffffffffffffffffffffffffffffff16610d07610b5c565b73ffffffffffffffffffffffffffffffffffffffff1614610d57576000610d2c612799565b604051610d3a929190615829565b604051809103902090505b80610d5060026127a6565b03610d4557505b610d6081612882565b50565b606060008054610d729061593f565b80601f0160208091040260200160405190810160405280929190818152602001828054610d9e9061593f565b8015610deb5780601f10610dc057610100808354040283529160200191610deb565b820191906000526020600020905b815481529060010190602001808311610dce57829003601f168201915b5050505050905090565b600063150b7a0260e01b9050949350505050565b600080610e188686868661203a565b905060046007811115610e2e57610e2d615020565b5b610e3782611479565b6007811115610e4957610e48615020565b5b14610e89576040517f08c379a0000000000000000000000000000000000000000000000000000000008152600401610e80906159e2565b60405180910390fd5b6000600760009054906101000a900473ffffffffffffffffffffffffffffffffffffffff1673ffffffffffffffffffffffffffffffffffffffff16636a42b8f86040518163ffffffff1660e01b8152600401602060405180830381865afa158015610ef8573d6000803e3d6000fd5b505050506040513d601f19601f82011682018060405250810190610f1c9190615a17565b42610f279190615a73565b9050610f59610f3582612a36565b60086000858152602001908152602001600020600001612a8d90919063ffffffff16565b60005b87518110156111bf57600760009054906101000a900473ffffffffffffffffffffffffffffffffffffffff1673ffffffffffffffffffffffffffffffffffffffff1663f2b06537898381518110610fb657610fb5615aa7565b5b6020026020010151898481518110610fd157610fd0615aa7565b5b6020026020010151898581518110610fec57610feb615aa7565b5b6020026020010151866040516020016110089493929190615b51565b604051602081830303815290604052805190602001206040518263ffffffff1660e01b815260040161103a9190614f8a565b602060405180830381865afa158015611057573d6000803e3d6000fd5b505050506040513d601f19601f8201168201806040525081019061107b9190615bdc565b156110bb576040517f08c379a00000000000000000000000000000000000000000000000000000000081526004016110b290615ca1565b60405180910390fd5b600760009054906101000a900473ffffffffffffffffffffffffffffffffffffffff1673ffffffffffffffffffffffffffffffffffffffff16633a66f90189838151811061110c5761110b615aa7565b5b602002602001015189848151811061112757611126615aa7565b5b602002602001015189858151811061114257611141615aa7565b5b6020026020010151866040518563ffffffff1660e01b815260040161116a9493929190615b51565b6020604051808303816000875af1158015611189573d6000803e3d6000fd5b505050506040513d601f19601f820116820180604052508101906111ad9190615cd6565b50806111b890615d03565b9050610f5c565b507f9a2e42fd6722813d69113e7d0079d3d940171428df7373df9c7f7617cfda289282826040516111f1929190615d4b565b60405180910390a18192505050949350505050565b6000806112158686868661203a565b9050600061122282611479565b90506004600781111561123857611237615020565b5b81600781111561124b5761124a615020565b5b148061127b57506005600781111561126657611265615020565b5b81600781111561127957611278615020565b5b145b6112ba576040517f08c379a00000000000000000000000000000000000000000000000000000000081526004016112b1906159e2565b60405180910390fd5b600180600084815260200190815260200160002060020160006101000a81548160ff0219169083151502179055507f712ae1383f79ac853f8d882153778e0260ef8f03b504e2866e0593e04d2b291f826040516113179190614746565b60405180910390a161132c8288888888612abc565b6113398288888888612b9f565b6113468288888888612bb3565b8192505050949350505050565b60006113b0600160008481526020019081526020016000206000016040518060200160405290816000820160009054906101000a900467ffffffffffffffff1667ffffffffffffffff1667ffffffffffffffff1681525050612c0e565b67ffffffffffffffff169050919050565b7fb3b3f3b703cd84ce352197dcff232b1b5d3cfb2025ce47cf04742d0651f1af8881565b6000600454905090565b6000806114506114487f150214d74d59b7d1e90c73fc22ef3d991dd0a76b046543d4d80ab92d2a50328f898960405160200161142d93929190615d74565b60405160208183030381529060405280519060200120612590565b8686866125aa565b905061146d87828860405180602001604052806000815250612c1c565b91505095945050505050565b600061148482612c3c565b9050919050565b6000600b600084815260200190815260200160002060030160008373ffffffffffffffffffffffffffffffffffffffff1673ffffffffffffffffffffffffffffffffffffffff16815260200190815260200160002060009054906101000a900460ff16905092915050565b600061150485858585612d57565b9050949350505050565b600080600080600b60008681526020019081526020016000209050806000015481600101548260020154935093509350509193909250565b60606040518060400160405280600181526020017f3100000000000000000000000000000000000000000000000000000000000000815250905090565b60008061158e612791565b90506115ab84828560405180602001604052806000815250612c1c565b91505092915050565b6000806115bf612791565b905061161287828888888080601f016020809104026020016040519081016040528093929190818152602001838380828437600081840152601f19601f82011690508083019250505050505050876125d5565b91505095945050505050565b600080600a6000018054905090506000810361163f57600954915050611765565b6000600a6000016001836116539190615dab565b8154811061166457611663615aa7565b5b906000526020600020016040518060400160405290816000820160009054906101000a900463ffffffff1663ffffffff1663ffffffff1681526020016000820160049054906101000a90047bffffffffffffffffffffffffffffffffffffffffffffffffffffffff167bffffffffffffffffffffffffffffffffffffffffffffffffffffffff167bffffffffffffffffffffffffffffffffffffffffffffffffffffffff1681525050905083816000015163ffffffff161161174c5780602001517bffffffffffffffffffffffffffffffffffffffffffffffffffffffff1692505050611765565b61176084600a612d6f90919063ffffffff16565b925050505b919050565b611772610b5c565b73ffffffffffffffffffffffffffffffffffffffff16611790612791565b73ffffffffffffffffffffffffffffffffffffffff16146117e6576040517f08c379a00000000000000000000000000000000000000000000000000000000081526004016117dd906158f0565b60405180910390fd5b3073ffffffffffffffffffffffffffffffffffffffff16611805610b5c565b73ffffffffffffffffffffffffffffffffffffffff161461185557600061182a612799565b604051611838929190615829565b604051809103902090505b8061184e60026127a6565b0361184357505b61185e81612e5e565b50565b60008061186c612791565b90506118be86828787878080601f016020809104026020016040519081016040528093929190818152602001838380828437600081840152601f19601f82011690508083019250505050505050612c1c565b915050949350505050565b60006118d3611d9b565b6118f06118de612791565b6001436118eb9190615dab565b6121f8565b1015611931576040517f08c379a000000000000000000000000000000000000000000000000000000000815260040161192890615e51565b60405180910390fd5b6000611946868686868051906020012061203a565b9050845186511461198c576040517f08c379a000000000000000000000000000000000000000000000000000000000815260040161198390615ee3565b60405180910390fd5b83518651146119d0576040517f08c379a00000000000000000000000000000000000000000000000000000000081526004016119c790615ee3565b60405180910390fd5b6000865111611a14576040517f08c379a0000000000000000000000000000000000000000000000000000000008152600401611a0b90615f4f565b60405180910390fd5b6000600160008381526020019081526020016000209050611a74816000016040518060200160405290816000820160009054906101000a900467ffffffffffffffff1667ffffffffffffffff1667ffffffffffffffff1681525050612ea3565b611ab3576040517f08c379a0000000000000000000000000000000000000000000000000000000008152600401611aaa90615fe1565b60405180910390fd5b6000611ac5611ac06113e5565b612a36565b611ace43612a36565b611ad89190616015565b90506000611aec611ae7610b7d565b612a36565b82611af79190616015565b9050611b0f8284600001612ebd90919063ffffffff16565b611b258184600101612ebd90919063ffffffff16565b7f7d84a6263ae0d98d3329bd7b46bb4e8d6f98cd35a7adb45c274c8b7fd5ebd5e084611b4f612791565b8b8b8d5167ffffffffffffffff811115611b6c57611b6b614841565b5b604051908082528060200260200182016040528015611b9f57816020015b6060815260200190600190039081611b8a5790505b508c88888e604051611bb999989796959493929190616416565b60405180910390a183945050505050949350505050565b60006064905090565b6000611be6848484612eec565b90509392505050565b600080600a6000018054905014611c2d57611c0a600a61242f565b7bffffffffffffffffffffffffffffffffffffffffffffffffffffffff16611c31565b6009545b905090565b611c3e610b5c565b73ffffffffffffffffffffffffffffffffffffffff16611c5c612791565b73ffffffffffffffffffffffffffffffffffffffff1614611cb2576040517f08c379a0000000000000000000000000000000000000000000000000000000008152600401611ca9906158f0565b60405180910390fd5b3073ffffffffffffffffffffffffffffffffffffffff16611cd1610b5c565b73ffffffffffffffffffffffffffffffffffffffff1614611d21576000611cf6612799565b604051611d04929190615829565b604051809103902090505b80611d1a60026127a6565b03611d0f57505b611d2a81612f93565b50565b6000611d8a600860008481526020019081526020016000206000016040518060200160405290816000820160009054906101000a900467ffffffffffffffff1667ffffffffffffffff1667ffffffffffffffff1681525050613032565b67ffffffffffffffff169050919050565b6000611da5613040565b905090565b600760009054906101000a900473ffffffffffffffffffffffffffffffffffffffff1673ffffffffffffffffffffffffffffffffffffffff16630e18b6816040518163ffffffff1660e01b8152600401600060405180830381600087803b158015611e1457600080fd5b505af1158015611e28573d6000803e3d6000fd5b50505050565b600063bc197c8160e01b905095945050505050565b6000611ea0600160008481526020019081526020016000206001016040518060200160405290816000820160009054906101000a900467ffffffffffffffff1667ffffffffffffffff1667ffffffffffffffff1681525050612c0e565b67ffffffffffffffff169050919050565b611eb9610b5c565b73ffffffffffffffffffffffffffffffffffffffff16611ed7612791565b73ffffffffffffffffffffffffffffffffffffffff1614611f2d576040517f08c379a0000000000000000000000000000000000000000000000000000000008152600401611f24906158f0565b60405180910390fd5b3073ffffffffffffffffffffffffffffffffffffffff16611f4c610b5c565b73ffffffffffffffffffffffffffffffffffffffff1614611f9c576000611f71612799565b604051611f7f929190615829565b604051809103902090505b80611f9560026127a6565b03611f8a57505b6000808573ffffffffffffffffffffffffffffffffffffffff16858585604051611fc7929190615829565b60006040518083038185875af1925050503d8060008114612004576040519150601f19603f3d011682016040523d82523d6000602084013e612009565b606091505b5091509150612031828260405180606001604052806028815260200161725a6028913961304a565b50505050505050565b60008484848460405160200161205394939291906164c6565b6040516020818303038152906040528051906020012060001c9050949350505050565b6000600760009054906101000a900473ffffffffffffffffffffffffffffffffffffffff16905090565b60606040518060400160405280602081526020017f737570706f72743d627261766f2671756f72756d3d666f722c6162737461696e815250905090565b7f150214d74d59b7d1e90c73fc22ef3d991dd0a76b046543d4d80ab92d2a50328f81565b612109610b5c565b73ffffffffffffffffffffffffffffffffffffffff16612127612791565b73ffffffffffffffffffffffffffffffffffffffff161461217d576040517f08c379a0000000000000000000000000000000000000000000000000000000008152600401612174906158f0565b60405180910390fd5b3073ffffffffffffffffffffffffffffffffffffffff1661219c610b5c565b73ffffffffffffffffffffffffffffffffffffffff16146121ec5760006121c1612799565b6040516121cf929190615829565b604051809103902090505b806121e560026127a6565b036121da57505b6121f58161306c565b50565b600061220c83836122076130f4565b612eec565b905092915050565b61221c610b5c565b73ffffffffffffffffffffffffffffffffffffffff1661223a612791565b73ffffffffffffffffffffffffffffffffffffffff1614612290576040517f08c379a0000000000000000000000000000000000000000000000000000000008152600401612287906158f0565b60405180910390fd5b3073ffffffffffffffffffffffffffffffffffffffff166122af610b5c565b73ffffffffffffffffffffffffffffffffffffffff16146122ff5760006122d4612799565b6040516122e2929190615829565b604051809103902090505b806122f860026127a6565b036122ed57505b6123088161310b565b50565b600063f23a6e6160e01b905095945050505050565b600061232b82613150565b9050919050565b7f000000000000000000000000000000000000000000000000000000000000000081565b60007bffffffffffffffffffffffffffffffffffffffffffffffffffffffff80168211156123b9576040517f08c379a00000000000000000000000000000000000000000000000000000000081526004016123b090616592565b60405180910390fd5b819050919050565b6000806123e2846000016123d443612499565b6123dd86612356565b613218565b817bffffffffffffffffffffffffffffffffffffffffffffffffffffffff169150807bffffffffffffffffffffffffffffffffffffffffffffffffffffffff169050915091509250929050565b600080826000018054905090506000811461248e5761245d836000016001836124589190615dab565b61359e565b60000160049054906101000a90047bffffffffffffffffffffffffffffffffffffffffffffffffffffffff16612491565b60005b915050919050565b600063ffffffff80168211156124e4576040517f08c379a00000000000000000000000000000000000000000000000000000000081526004016124db90616624565b60405180910390fd5b819050919050565b6000600760009054906101000a900473ffffffffffffffffffffffffffffffffffffffff16905090565b60007f6e665ced000000000000000000000000000000000000000000000000000000007bffffffffffffffffffffffffffffffffffffffffffffffffffffffff1916827bffffffffffffffffffffffffffffffffffffffffffffffffffffffff191614806125895750612588826135b3565b5b9050919050565b60006125a361259d613718565b83613832565b9050919050565b60008060006125bb87878787613865565b915091506125c881613947565b8192505050949350505050565b6000806001600088815260200190815260200160002090506001600781111561260157612600615020565b5b61260a88611479565b600781111561261c5761261b615020565b5b1461265c576040517f08c379a0000000000000000000000000000000000000000000000000000000008152600401612653906166b6565b60405180910390fd5b60006126bb876126ab846000016040518060200160405290816000820160009054906101000a900467ffffffffffffffff1667ffffffffffffffff1667ffffffffffffffff1681525050612c0e565b67ffffffffffffffff1686612eec565b90506126ca8888888488613aad565b600084510361272c578673ffffffffffffffffffffffffffffffffffffffff167fb8e138887d0aa13bab447e82de9d5c1777041ecd21ca36ba824ff1e6c07ddda48988848960405161271f94939291906166d6565b60405180910390a2612783565b8673ffffffffffffffffffffffffffffffffffffffff167fe2babfbac5889a709b63bb7f598b324e08bc5a4fb9ec647fb3cbc9ec07eb8712898884898960405161277a959493929190616722565b60405180910390a25b809250505095945050505050565b600033905090565b3660008036915091509091565b60006127b182613cb1565b156127e8576040517f3db2a12a00000000000000000000000000000000000000000000000000000000815260040160405180910390fd5b60008260000160009054906101000a9004600f0b905082600101600082600f0b600f0b815260200190815260200160002054915082600101600082600f0b600f0b815260200190815260200160002060009055600181018360000160006101000a8154816fffffffffffffffffffffffffffffffff0219169083600f0b6fffffffffffffffffffffffffffffffff16021790555050919050565b61288a611bd0565b8111156128cc576040517f08c379a00000000000000000000000000000000000000000000000000000000081526004016128c39061681b565b60405180910390fd5b60006128d6611bef565b9050600081141580156128f157506000600a60000180549050145b156129e357600a6000016040518060400160405280600063ffffffff16815260200161291c84612356565b7bffffffffffffffffffffffffffffffffffffffffffffffffffffffff168152509080600181540180825580915050600190039060005260206000200160009091909190915060008201518160000160006101000a81548163ffffffff021916908363ffffffff16021790555060208201518160000160046101000a8154817bffffffffffffffffffffffffffffffffffffffffffffffffffffffff02191690837bffffffffffffffffffffffffffffffffffffffffffffffffffffffff16021790555050505b6129f782600a6123c190919063ffffffff16565b50507f0553476bf02ef2726e8ce5ced78d63e26e602e4a2257b1f559418e24b46339978183604051612a2a929190615d4b565b60405180910390a15050565b600067ffffffffffffffff8016821115612a85576040517f08c379a0000000000000000000000000000000000000000000000000000000008152600401612a7c906168ad565b60405180910390fd5b819050919050565b808260000160006101000a81548167ffffffffffffffff021916908367ffffffffffffffff1602179055505050565b3073ffffffffffffffffffffffffffffffffffffffff16612adb610b5c565b73ffffffffffffffffffffffffffffffffffffffff1614612b985760005b8451811015612b96573073ffffffffffffffffffffffffffffffffffffffff16858281518110612b2c57612b2b615aa7565b5b602002602001015173ffffffffffffffffffffffffffffffffffffffff1603612b8557612b84838281518110612b6557612b64615aa7565b5b6020026020010151805190602001206002613ce690919063ffffffff16565b5b80612b8f90615d03565b9050612af9565b505b5050505050565b612bac8585858585613d62565b5050505050565b3073ffffffffffffffffffffffffffffffffffffffff16612bd2610b5c565b73ffffffffffffffffffffffffffffffffffffffff1614612c0757612bf76002613cb1565b612c0657612c056002613efc565b5b5b5050505050565b600081600001519050919050565b6000612c3285858585612c2d6130f4565b6125d5565b9050949350505050565b600080612c4883613f7d565b905060046007811115612c5e57612c5d615020565b5b816007811115612c7157612c70615020565b5b14612c7f5780915050612d52565b6000612c8a84611d2d565b905060008103612c9e578192505050612d52565b600760009054906101000a900473ffffffffffffffffffffffffffffffffffffffff1673ffffffffffffffffffffffffffffffffffffffff1663c1a287e26040518163ffffffff1660e01b8152600401602060405180830381865afa158015612d0b573d6000803e3d6000fd5b505050506040513d601f19601f82011682018060405250810190612d2f9190615a17565b81612d3a9190615a73565b4210612d4b57600692505050612d52565b6005925050505b919050565b6000612d6585858585614091565b9050949350505050565b6000438210612db3576040517f08c379a0000000000000000000000000000000000000000000000000000000008152600401612daa90616919565b60405180910390fd5b6000612dbe83612499565b90506000846000018054905090506000612dde86600001846000856141e3565b905060008114612e3257612e0186600001600183612dfc9190615dab565b61359e565b60000160049054906101000a90047bffffffffffffffffffffffffffffffffffffffffffffffffffffffff16612e35565b60005b7bffffffffffffffffffffffffffffffffffffffffffffffffffffffff16935050505092915050565b7fc565b045403dc03c2eea82b81a0465edad9e2e7fc4d97e11421c209da93d7a9360045482604051612e91929190615d4b565b60405180910390a18060048190555050565b600080826000015167ffffffffffffffff16149050919050565b808260000160006101000a81548167ffffffffffffffff021916908367ffffffffffffffff1602179055505050565b60007f000000000000000000000000000000000000000000000000000000000000000073ffffffffffffffffffffffffffffffffffffffff16633a46b1a885856040518363ffffffff1660e01b8152600401612f49929190616939565b602060405180830381865afa158015612f66573d6000803e3d6000fd5b505050506040513d601f19601f82011682018060405250810190612f8a9190615a17565b90509392505050565b7f08f74ea46ef7894f65eabfb5e6e695de773a000b47c529ab559178069b226401600760009054906101000a900473ffffffffffffffffffffffffffffffffffffffff1682604051612fe6929190616962565b60405180910390a180600760006101000a81548173ffffffffffffffffffffffffffffffffffffffff021916908373ffffffffffffffffffffffffffffffffffffffff16021790555050565b600081600001519050919050565b6000600654905090565b6060831561305a57829050613065565b6130648383614256565b5b9392505050565b600081116130af576040517f08c379a00000000000000000000000000000000000000000000000000000000081526004016130a6906169fd565b60405180910390fd5b7f7e3f7f0708a84de9203036abaa450dccc85ad5ff52f78c170f3edb55cf5e8828600554826040516130e2929190615d4b565b60405180910390a18060058190555050565b606060405180602001604052806000815250905090565b7fccb45da8d5717e6c4544694297c4ba5cf151d455c9bb0ed4fc7a38411bc054616006548260405161313e929190615d4b565b60405180910390a18060068190555050565b600061315a611bd0565b6131638361161e565b7f000000000000000000000000000000000000000000000000000000000000000073ffffffffffffffffffffffffffffffffffffffff16638e539e8c856040518263ffffffff1660e01b81526004016131bc9190614746565b602060405180830381865afa1580156131d9573d6000803e3d6000fd5b505050506040513d601f19601f820116820180604052508101906131fd9190615a17565b6132079190616a1d565b6132119190616a8e565b9050919050565b60008060008580549050905060008111156134ae576000613245876001846132409190615dab565b61359e565b6040518060400160405290816000820160009054906101000a900463ffffffff1663ffffffff1663ffffffff1681526020016000820160049054906101000a90047bffffffffffffffffffffffffffffffffffffffffffffffffffffffff167bffffffffffffffffffffffffffffffffffffffffffffffffffffffff167bffffffffffffffffffffffffffffffffffffffffffffffffffffffff168152505090508563ffffffff16816000015163ffffffff161115613339576040517f08c379a000000000000000000000000000000000000000000000000000000000815260040161333090616b0b565b60405180910390fd5b8563ffffffff16816000015163ffffffff16036133bd5784613367886001856133629190615dab565b61359e565b60000160046101000a8154817bffffffffffffffffffffffffffffffffffffffffffffffffffffffff02191690837bffffffffffffffffffffffffffffffffffffffffffffffffffffffff16021790555061349d565b8660405180604001604052808863ffffffff168152602001877bffffffffffffffffffffffffffffffffffffffffffffffffffffffff168152509080600181540180825580915050600190039060005260206000200160009091909190915060008201518160000160006101000a81548163ffffffff021916908363ffffffff16021790555060208201518160000160046101000a8154817bffffffffffffffffffffffffffffffffffffffffffffffffffffffff02191690837bffffffffffffffffffffffffffffffffffffffffffffffffffffffff16021790555050505b806020015185935093505050613596565b8560405180604001604052808763ffffffff168152602001867bffffffffffffffffffffffffffffffffffffffffffffffffffffffff168152509080600181540180825580915050600190039060005260206000200160009091909190915060008201518160000160006101000a81548163ffffffff021916908363ffffffff16021790555060208201518160000160046101000a8154817bffffffffffffffffffffffffffffffffffffffffffffffffffffffff02191690837bffffffffffffffffffffffffffffffffffffffffffffffffffffffff160217905550505060008492509250505b935093915050565b60008260005281602060002001905092915050565b6000639a802a6d60e01b630342018160e01b635f398a1460e01b7f79dd796f000000000000000000000000000000000000000000000000000000001818187bffffffffffffffffffffffffffffffffffffffffffffffffffffffff1916827bffffffffffffffffffffffffffffffffffffffffffffffffffffffff1916148061369957507f79dd796f000000000000000000000000000000000000000000000000000000007bffffffffffffffffffffffffffffffffffffffffffffffffffffffff1916827bffffffffffffffffffffffffffffffffffffffffffffffffffffffff1916145b8061370157507f4e2312e0000000000000000000000000000000000000000000000000000000007bffffffffffffffffffffffffffffffffffffffffffffffffffffffff1916827bffffffffffffffffffffffffffffffffffffffffffffffffffffffff1916145b806137115750613710826142a6565b5b9050919050565b60007f000000000000000000000000000000000000000000000000000000000000000073ffffffffffffffffffffffffffffffffffffffff163073ffffffffffffffffffffffffffffffffffffffff1614801561379457507f000000000000000000000000000000000000000000000000000000000000000046145b156137c1577f0000000000000000000000000000000000000000000000000000000000000000905061382f565b61382c7f00000000000000000000000000000000000000000000000000000000000000007f00000000000000000000000000000000000000000000000000000000000000007f0000000000000000000000000000000000000000000000000000000000000000614310565b90505b90565b60008282604051602001613847929190616ba3565b60405160208183030381529060405280519060200120905092915050565b6000807f7fffffffffffffffffffffffffffffff5d576e7357a4501ddfe92f46681b20a08360001c11156138a057600060039150915061393e565b6000600187878787604051600081526020016040526040516138c59493929190616bda565b6020604051602081039080840390855afa1580156138e7573d6000803e3d6000fd5b505050602060405103519050600073ffffffffffffffffffffffffffffffffffffffff168173ffffffffffffffffffffffffffffffffffffffff16036139355760006001925092505061393e565b80600092509250505b94509492505050565b6000600481111561395b5761395a615020565b5b81600481111561396e5761396d615020565b5b0315613aaa576001600481111561398857613987615020565b5b81600481111561399b5761399a615020565b5b036139db576040517f08c379a00000000000000000000000000000000000000000000000000000000081526004016139d290616c6b565b60405180910390fd5b600260048111156139ef576139ee615020565b5b816004811115613a0257613a01615020565b5b03613a42576040517f08c379a0000000000000000000000000000000000000000000000000000000008152600401613a3990616cd7565b60405180910390fd5b60036004811115613a5657613a55615020565b5b816004811115613a6957613a68615020565b5b03613aa9576040517f08c379a0000000000000000000000000000000000000000000000000000000008152600401613aa090616d69565b60405180910390fd5b5b50565b6000600b600087815260200190815260200160002090508060030160008673ffffffffffffffffffffffffffffffffffffffff1673ffffffffffffffffffffffffffffffffffffffff16815260200190815260200160002060009054906101000a900460ff1615613b53576040517f08c379a0000000000000000000000000000000000000000000000000000000008152600401613b4a90616dfb565b60405180910390fd5b60018160030160008773ffffffffffffffffffffffffffffffffffffffff1673ffffffffffffffffffffffffffffffffffffffff16815260200190815260200160002060006101000a81548160ff02191690831515021790555060006002811115613bc157613bc0615020565b5b60ff168460ff1603613bed5782816000016000828254613be19190615a73565b92505081905550613ca9565b60016002811115613c0157613c00615020565b5b60ff168460ff1603613c2d5782816001016000828254613c219190615a73565b92505081905550613ca8565b600280811115613c4057613c3f615020565b5b60ff168460ff1603613c6c5782816002016000828254613c609190615a73565b92505081905550613ca7565b6040517f08c379a0000000000000000000000000000000000000000000000000000000008152600401613c9e90616e8d565b60405180910390fd5b5b5b505050505050565b60008160000160009054906101000a9004600f0b600f0b8260000160109054906101000a9004600f0b600f0b13159050919050565b60008260000160109054906101000a9004600f0b90508183600101600083600f0b600f0b815260200190815260200160002081905550600181018360000160106101000a8154816fffffffffffffffffffffffffffffffff0219169083600f0b6fffffffffffffffffffffffffffffffff160217905550505050565b6000613d6d86611d2d565b905060008111613db2576040517f08c379a0000000000000000000000000000000000000000000000000000000008152600401613da990616f1f565b60405180910390fd5b613dde600760009054906101000a900473ffffffffffffffffffffffffffffffffffffffff163461434a565b60005b8551811015613ef357600760009054906101000a900473ffffffffffffffffffffffffffffffffffffffff1673ffffffffffffffffffffffffffffffffffffffff16630825f38f878381518110613e3b57613e3a615aa7565b5b6020026020010151878481518110613e5657613e55615aa7565b5b6020026020010151878581518110613e7157613e70615aa7565b5b6020026020010151866040518563ffffffff1660e01b8152600401613e999493929190615b51565b6000604051808303816000875af1158015613eb8573d6000803e3d6000fd5b505050506040513d6000823e3d601f19601f82011682018060405250810190613ee19190616faf565b5080613eec90615d03565b9050613de1565b50505050505050565b60008160000160006101000a8154816fffffffffffffffffffffffffffffffff0219169083600f0b6fffffffffffffffffffffffffffffffff16021790555060008160000160106101000a8154816fffffffffffffffffffffffffffffffff0219169083600f0b6fffffffffffffffffffffffffffffffff16021790555050565b6000806001600084815260200190815260200160002090508060020160009054906101000a900460ff1615613fb657600791505061408c565b8060020160019054906101000a900460ff1615613fd757600291505061408c565b6000613fe284611353565b905060008103614027576040517f08c379a000000000000000000000000000000000000000000000000000000000815260040161401e90617044565b60405180910390fd5b4381106140395760009250505061408c565b600061404485611e43565b9050438110614059576001935050505061408c565b6140628561443e565b8015614073575061407285614485565b5b15614084576004935050505061408c565b600393505050505b919050565b6000806140a0868686866144b0565b905060006140ad82611d2d565b905060008111156141d65760005b87518110156141b657600760009054906101000a900473ffffffffffffffffffffffffffffffffffffffff1673ffffffffffffffffffffffffffffffffffffffff1663591fcdfe89838151811061411557614114615aa7565b5b60200260200101518984815181106141305761412f615aa7565b5b602002602001015189858151811061414b5761414a615aa7565b5b6020026020010151866040518563ffffffff1660e01b81526004016141739493929190615b51565b600060405180830381600087803b15801561418d57600080fd5b505af11580156141a1573d6000803e3d6000fd5b50505050806141af90615d03565b90506140bb565b506141d560086000848152602001908152602001600020600001614609565b5b8192505050949350505050565b60005b8183101561424b5760006141fa8484614638565b90508463ffffffff1661420d878361359e565b60000160009054906101000a900463ffffffff1663ffffffff16111561423557809250614245565b6001816142429190615a73565b93505b506141e6565b819050949350505050565b6000825111156142695781518083602001fd5b806040517f08c379a000000000000000000000000000000000000000000000000000000000815260040161429d9190614b2c565b60405180910390fd5b60007f01ffc9a7000000000000000000000000000000000000000000000000000000007bffffffffffffffffffffffffffffffffffffffffffffffffffffffff1916827bffffffffffffffffffffffffffffffffffffffffffffffffffffffff1916149050919050565b6000838383463060405160200161432b959493929190617064565b6040516020818303038152906040528051906020012090509392505050565b8047101561438d576040517f08c379a000000000000000000000000000000000000000000000000000000000815260040161438490617103565b60405180910390fd5b60008273ffffffffffffffffffffffffffffffffffffffff16826040516143b390617146565b60006040518083038185875af1925050503d80600081146143f0576040519150601f19603f3d011682016040523d82523d6000602084013e6143f5565b606091505b5050905080614439576040517f08c379a0000000000000000000000000000000000000000000000000000000008152600401614430906171cd565b60405180910390fd5b505050565b600080600b600084815260200190815260200160002090508060020154816001015461446a9190615a73565b61447b61447685611353565b612320565b1115915050919050565b600080600b600084815260200190815260200160002090508060000154816001015411915050919050565b6000806144bf8686868661203a565b905060006144cc82611479565b9050600260078111156144e2576144e1615020565b5b8160078111156144f5576144f4615020565b5b1415801561452857506006600781111561451257614511615020565b5b81600781111561452557614524615020565b5b14155b8015614558575060078081111561454257614541615020565b5b81600781111561455557614554615020565b5b14155b614597576040517f08c379a000000000000000000000000000000000000000000000000000000000815260040161458e90617239565b60405180910390fd5b600180600084815260200190815260200160002060020160016101000a81548160ff0219169083151502179055507f789cf55be980739dad1d0699b93b58e806b51c9d96619bfa8fe0a28abaa7b30c826040516145f49190614746565b60405180910390a18192505050949350505050565b60008160000160006101000a81548167ffffffffffffffff021916908367ffffffffffffffff16021790555050565b600060028284186146499190616a8e565b8284166146569190615a73565b905092915050565b6000604051905090565b600080fd5b600080fd5b60007fffffffff0000000000000000000000000000000000000000000000000000000082169050919050565b6146a781614672565b81146146b257600080fd5b50565b6000813590506146c48161469e565b92915050565b6000602082840312156146e0576146df614668565b5b60006146ee848285016146b5565b91505092915050565b60008115159050919050565b61470c816146f7565b82525050565b60006020820190506147276000830184614703565b92915050565b6000819050919050565b6147408161472d565b82525050565b600060208201905061475b6000830184614737565b92915050565b61476a8161472d565b811461477557600080fd5b50565b60008135905061478781614761565b92915050565b600060ff82169050919050565b6147a38161478d565b81146147ae57600080fd5b50565b6000813590506147c08161479a565b92915050565b600080fd5b600080fd5b600080fd5b60008083601f8401126147eb576147ea6147c6565b5b8235905067ffffffffffffffff811115614808576148076147cb565b5b602083019150836001820283011115614824576148236147d0565b5b9250929050565b600080fd5b6000601f19601f8301169050919050565b7f4e487b7100000000000000000000000000000000000000000000000000000000600052604160045260246000fd5b61487982614830565b810181811067ffffffffffffffff8211171561489857614897614841565b5b80604052505050565b60006148ab61465e565b90506148b78282614870565b919050565b600067ffffffffffffffff8211156148d7576148d6614841565b5b6148e082614830565b9050602081019050919050565b82818337600083830152505050565b600061490f61490a846148bc565b6148a1565b90508281526020810184848401111561492b5761492a61482b565b5b6149368482856148ed565b509392505050565b600082601f830112614953576149526147c6565b5b81356149638482602086016148fc565b91505092915050565b6000819050919050565b61497f8161496c565b811461498a57600080fd5b50565b60008135905061499c81614976565b92915050565b60008060008060008060008060e0898b0312156149c2576149c1614668565b5b60006149d08b828c01614778565b98505060206149e18b828c016147b1565b975050604089013567ffffffffffffffff811115614a0257614a0161466d565b5b614a0e8b828c016147d5565b9650965050606089013567ffffffffffffffff811115614a3157614a3061466d565b5b614a3d8b828c0161493e565b9450506080614a4e8b828c016147b1565b93505060a0614a5f8b828c0161498d565b92505060c0614a708b828c0161498d565b9150509295985092959890939650565b600060208284031215614a9657614a95614668565b5b6000614aa484828501614778565b91505092915050565b600081519050919050565b600082825260208201905092915050565b60005b83811015614ae7578082015181840152602081019050614acc565b60008484015250505050565b6000614afe82614aad565b614b088185614ab8565b9350614b18818560208601614ac9565b614b2181614830565b840191505092915050565b60006020820190508181036000830152614b468184614af3565b905092915050565b600073ffffffffffffffffffffffffffffffffffffffff82169050919050565b6000614b7982614b4e565b9050919050565b614b8981614b6e565b8114614b9457600080fd5b50565b600081359050614ba681614b80565b92915050565b60008060008060808587031215614bc657614bc5614668565b5b6000614bd487828801614b97565b9450506020614be587828801614b97565b9350506040614bf687828801614778565b925050606085013567ffffffffffffffff811115614c1757614c1661466d565b5b614c238782880161493e565b91505092959194509250565b614c3881614672565b82525050565b6000602082019050614c536000830184614c2f565b92915050565b600067ffffffffffffffff821115614c7457614c73614841565b5b602082029050602081019050919050565b6000614c98614c9384614c59565b6148a1565b90508083825260208201905060208402830185811115614cbb57614cba6147d0565b5b835b81811015614ce45780614cd08882614b97565b845260208401935050602081019050614cbd565b5050509392505050565b600082601f830112614d0357614d026147c6565b5b8135614d13848260208601614c85565b91505092915050565b600067ffffffffffffffff821115614d3757614d36614841565b5b602082029050602081019050919050565b6000614d5b614d5684614d1c565b6148a1565b90508083825260208201905060208402830185811115614d7e57614d7d6147d0565b5b835b81811015614da75780614d938882614778565b845260208401935050602081019050614d80565b5050509392505050565b600082601f830112614dc657614dc56147c6565b5b8135614dd6848260208601614d48565b91505092915050565b600067ffffffffffffffff821115614dfa57614df9614841565b5b602082029050602081019050919050565b6000614e1e614e1984614ddf565b6148a1565b90508083825260208201905060208402830185811115614e4157614e406147d0565b5b835b81811015614e8857803567ffffffffffffffff811115614e6657614e656147c6565b5b808601614e73898261493e565b85526020850194505050602081019050614e43565b5050509392505050565b600082601f830112614ea757614ea66147c6565b5b8135614eb7848260208601614e0b565b91505092915050565b60008060008060808587031215614eda57614ed9614668565b5b600085013567ffffffffffffffff811115614ef857614ef761466d565b5b614f0487828801614cee565b945050602085013567ffffffffffffffff811115614f2557614f2461466d565b5b614f3187828801614db1565b935050604085013567ffffffffffffffff811115614f5257614f5161466d565b5b614f5e87828801614e92565b9250506060614f6f8782880161498d565b91505092959194509250565b614f848161496c565b82525050565b6000602082019050614f9f6000830184614f7b565b92915050565b600080600080600060a08688031215614fc157614fc0614668565b5b6000614fcf88828901614778565b9550506020614fe0888289016147b1565b9450506040614ff1888289016147b1565b93505060606150028882890161498d565b92505060806150138882890161498d565b9150509295509295909350565b7f4e487b7100000000000000000000000000000000000000000000000000000000600052602160045260246000fd5b600881106150605761505f615020565b5b50565b60008190506150718261504f565b919050565b600061508182615063565b9050919050565b61509181615076565b82525050565b60006020820190506150ac6000830184615088565b92915050565b600080604083850312156150c9576150c8614668565b5b60006150d785828601614778565b92505060206150e885828601614b97565b9150509250929050565b60006060820190506151076000830186614737565b6151146020830185614737565b6151216040830184614737565b949350505050565b600080604083850312156151405761513f614668565b5b600061514e85828601614778565b925050602061515f858286016147b1565b9150509250929050565b60008060008060006080868803121561518557615184614668565b5b600061519388828901614778565b95505060206151a4888289016147b1565b945050604086013567ffffffffffffffff8111156151c5576151c461466d565b5b6151d1888289016147d5565b9350935050606086013567ffffffffffffffff8111156151f4576151f361466d565b5b6152008882890161493e565b9150509295509295909350565b6000806000806060858703121561522757615226614668565b5b600061523587828801614778565b9450506020615246878288016147b1565b935050604085013567ffffffffffffffff8111156152675761526661466d565b5b615273878288016147d5565b925092505092959194509250565b600067ffffffffffffffff82111561529c5761529b614841565b5b6152a582614830565b9050602081019050919050565b60006152c56152c084615281565b6148a1565b9050828152602081018484840111156152e1576152e061482b565b5b6152ec8482856148ed565b509392505050565b600082601f830112615309576153086147c6565b5b81356153198482602086016152b2565b91505092915050565b6000806000806080858703121561533c5761533b614668565b5b600085013567ffffffffffffffff81111561535a5761535961466d565b5b61536687828801614cee565b945050602085013567ffffffffffffffff8111156153875761538661466d565b5b61539387828801614db1565b935050604085013567ffffffffffffffff8111156153b4576153b361466d565b5b6153c087828801614e92565b925050606085013567ffffffffffffffff8111156153e1576153e061466d565b5b6153ed878288016152f4565b91505092959194509250565b60008060006060848603121561541257615411614668565b5b600061542086828701614b97565b935050602061543186828701614778565b925050604084013567ffffffffffffffff8111156154525761545161466d565b5b61545e8682870161493e565b9150509250925092565b600061547382614b4e565b9050919050565b600061548582615468565b9050919050565b6154958161547a565b81146154a057600080fd5b50565b6000813590506154b28161548c565b92915050565b6000602082840312156154ce576154cd614668565b5b60006154dc848285016154a3565b91505092915050565b600080600080600060a0868803121561550157615500614668565b5b600061550f88828901614b97565b955050602061552088828901614b97565b945050604086013567ffffffffffffffff8111156155415761554061466d565b5b61554d88828901614db1565b935050606086013567ffffffffffffffff81111561556e5761556d61466d565b5b61557a88828901614db1565b925050608086013567ffffffffffffffff81111561559b5761559a61466d565b5b6155a78882890161493e565b9150509295509295909350565b60008083601f8401126155ca576155c96147c6565b5b8235905067ffffffffffffffff8111156155e7576155e66147cb565b5b602083019150836001820283011115615603576156026147d0565b5b9250929050565b6000806000806060858703121561562457615623614668565b5b600061563287828801614b97565b945050602061564387828801614778565b935050604085013567ffffffffffffffff8111156156645761566361466d565b5b615670878288016155b4565b925092505092959194509250565b61568781614b6e565b82525050565b60006020820190506156a2600083018461567e565b92915050565b600080604083850312156156bf576156be614668565b5b60006156cd85828601614b97565b92505060206156de85828601614778565b9150509250929050565b600080600080600060a0868803121561570457615703614668565b5b600061571288828901614b97565b955050602061572388828901614b97565b945050604061573488828901614778565b935050606061574588828901614778565b925050608086013567ffffffffffffffff8111156157665761576561466d565b5b6157728882890161493e565b9150509295509295909350565b6000819050919050565b60006157a461579f61579a84614b4e565b61577f565b614b4e565b9050919050565b60006157b682615789565b9050919050565b60006157c8826157ab565b9050919050565b6157d8816157bd565b82525050565b60006020820190506157f360008301846157cf565b92915050565b600081905092915050565b600061581083856157f9565b935061581d8385846148ed565b82840190509392505050565b6000615836828486615804565b91508190509392505050565b61584b8161478d565b82525050565b600060a0820190506158666000830188614f7b565b6158736020830187614737565b6158806040830186615842565b61588d6060830185614f7b565b61589a6080830184614f7b565b9695505050505050565b7f476f7665726e6f723a206f6e6c79476f7665726e616e63650000000000000000600082015250565b60006158da601883614ab8565b91506158e5826158a4565b602082019050919050565b60006020820190508181036000830152615909816158cd565b9050919050565b7f4e487b7100000000000000000000000000000000000000000000000000000000600052602260045260246000fd5b6000600282049050600182168061595757607f821691505b60208210810361596a57615969615910565b5b50919050565b7f476f7665726e6f723a2070726f706f73616c206e6f742073756363657373667560008201527f6c00000000000000000000000000000000000000000000000000000000000000602082015250565b60006159cc602183614ab8565b91506159d782615970565b604082019050919050565b600060208201905081810360008301526159fb816159bf565b9050919050565b600081519050615a1181614761565b92915050565b600060208284031215615a2d57615a2c614668565b5b6000615a3b84828501615a02565b91505092915050565b7f4e487b7100000000000000000000000000000000000000000000000000000000600052601160045260246000fd5b6000615a7e8261472d565b9150615a898361472d565b9250828201905080821115615aa157615aa0615a44565b5b92915050565b7f4e487b7100000000000000000000000000000000000000000000000000000000600052603260045260246000fd5b50565b6000615ae6600083614ab8565b9150615af182615ad6565b600082019050919050565b600081519050919050565b600082825260208201905092915050565b6000615b2382615afc565b615b2d8185615b07565b9350615b3d818560208601614ac9565b615b4681614830565b840191505092915050565b600060a082019050615b66600083018761567e565b615b736020830186614737565b8181036040830152615b8481615ad9565b90508181036060830152615b988185615b18565b9050615ba76080830184614737565b95945050505050565b615bb9816146f7565b8114615bc457600080fd5b50565b600081519050615bd681615bb0565b92915050565b600060208284031215615bf257615bf1614668565b5b6000615c0084828501615bc7565b91505092915050565b7f476f7665726e6f7254696d656c6f636b436f6d706f756e643a206964656e746960008201527f63616c2070726f706f73616c20616374696f6e20616c7265616479207175657560208201527f6564000000000000000000000000000000000000000000000000000000000000604082015250565b6000615c8b604283614ab8565b9150615c9682615c09565b606082019050919050565b60006020820190508181036000830152615cba81615c7e565b9050919050565b600081519050615cd081614976565b92915050565b600060208284031215615cec57615ceb614668565b5b6000615cfa84828501615cc1565b91505092915050565b6000615d0e8261472d565b91507fffffffffffffffffffffffffffffffffffffffffffffffffffffffffffffffff8203615d4057615d3f615a44565b5b600182019050919050565b6000604082019050615d606000830185614737565b615d6d6020830184614737565b9392505050565b6000606082019050615d896000830186614f7b565b615d966020830185614737565b615da36040830184615842565b949350505050565b6000615db68261472d565b9150615dc18361472d565b9250828203905081811115615dd957615dd8615a44565b5b92915050565b7f476f7665726e6f723a2070726f706f73657220766f7465732062656c6f77207060008201527f726f706f73616c207468726573686f6c64000000000000000000000000000000602082015250565b6000615e3b603183614ab8565b9150615e4682615ddf565b604082019050919050565b60006020820190508181036000830152615e6a81615e2e565b9050919050565b7f476f7665726e6f723a20696e76616c69642070726f706f73616c206c656e677460008201527f6800000000000000000000000000000000000000000000000000000000000000602082015250565b6000615ecd602183614ab8565b9150615ed882615e71565b604082019050919050565b60006020820190508181036000830152615efc81615ec0565b9050919050565b7f476f7665726e6f723a20656d7074792070726f706f73616c0000000000000000600082015250565b6000615f39601883614ab8565b9150615f4482615f03565b602082019050919050565b60006020820190508181036000830152615f6881615f2c565b9050919050565b7f476f7665726e6f723a2070726f706f73616c20616c726561647920657869737460008201527f7300000000000000000000000000000000000000000000000000000000000000602082015250565b6000615fcb602183614ab8565b9150615fd682615f6f565b604082019050919050565b60006020820190508181036000830152615ffa81615fbe565b9050919050565b600067ffffffffffffffff82169050919050565b600061602082616001565b915061602b83616001565b9250828201905067ffffffffffffffff81111561604b5761604a615a44565b5b92915050565b600081519050919050565b600082825260208201905092915050565b6000819050602082019050919050565b61608681614b6e565b82525050565b6000616098838361607d565b60208301905092915050565b6000602082019050919050565b60006160bc82616051565b6160c6818561605c565b93506160d18361606d565b8060005b838110156161025781516160e9888261608c565b97506160f4836160a4565b9250506001810190506160d5565b5085935050505092915050565b600081519050919050565b600082825260208201905092915050565b6000819050602082019050919050565b6161448161472d565b82525050565b6000616156838361613b565b60208301905092915050565b6000602082019050919050565b600061617a8261610f565b616184818561611a565b935061618f8361612b565b8060005b838110156161c05781516161a7888261614a565b97506161b283616162565b925050600181019050616193565b5085935050505092915050565b600081519050919050565b600082825260208201905092915050565b6000819050602082019050919050565b600082825260208201905092915050565b600061621582614aad565b61621f81856161f9565b935061622f818560208601614ac9565b61623881614830565b840191505092915050565b600061624f838361620a565b905092915050565b6000602082019050919050565b600061626f826161cd565b61627981856161d8565b93508360208202850161628b856161e9565b8060005b858110156162c757848403895281516162a88582616243565b94506162b383616257565b925060208a0199505060018101905061628f565b50829750879550505050505092915050565b600081519050919050565b600082825260208201905092915050565b6000819050602082019050919050565b600082825260208201905092915050565b600061632182615afc565b61632b8185616305565b935061633b818560208601614ac9565b61634481614830565b840191505092915050565b600061635b8383616316565b905092915050565b6000602082019050919050565b600061637b826162d9565b61638581856162e4565b935083602082028501616397856162f5565b8060005b858110156163d357848403895281516163b4858261634f565b94506163bf83616363565b925060208a0199505060018101905061639b565b50829750879550505050505092915050565b60006164006163fb6163f684616001565b61577f565b61472d565b9050919050565b616410816163e5565b82525050565b60006101208201905061642c600083018c614737565b616439602083018b61567e565b818103604083015261644b818a6160b1565b9050818103606083015261645f818961616f565b905081810360808301526164738188616264565b905081810360a08301526164878187616370565b905061649660c0830186616407565b6164a360e0830185616407565b8181036101008301526164b68184614af3565b90509a9950505050505050505050565b600060808201905081810360008301526164e081876160b1565b905081810360208301526164f4818661616f565b905081810360408301526165088185616370565b90506165176060830184614f7b565b95945050505050565b7f53616665436173743a2076616c756520646f65736e27742066697420696e203260008201527f3234206269747300000000000000000000000000000000000000000000000000602082015250565b600061657c602783614ab8565b915061658782616520565b604082019050919050565b600060208201905081810360008301526165ab8161656f565b9050919050565b7f53616665436173743a2076616c756520646f65736e27742066697420696e203360008201527f3220626974730000000000000000000000000000000000000000000000000000602082015250565b600061660e602683614ab8565b9150616619826165b2565b604082019050919050565b6000602082019050818103600083015261663d81616601565b9050919050565b7f476f7665726e6f723a20766f7465206e6f742063757272656e746c792061637460008201527f6976650000000000000000000000000000000000000000000000000000000000602082015250565b60006166a0602383614ab8565b91506166ab82616644565b604082019050919050565b600060208201905081810360008301526166cf81616693565b9050919050565b60006080820190506166eb6000830187614737565b6166f86020830186615842565b6167056040830185614737565b81810360608301526167178184614af3565b905095945050505050565b600060a0820190506167376000830188614737565b6167446020830187615842565b6167516040830186614737565b81810360608301526167638185614af3565b905081810360808301526167778184615b18565b90509695505050505050565b7f476f7665726e6f72566f74657351756f72756d4672616374696f6e3a2071756f60008201527f72756d4e756d657261746f72206f7665722071756f72756d44656e6f6d696e6160208201527f746f720000000000000000000000000000000000000000000000000000000000604082015250565b6000616805604383614ab8565b915061681082616783565b606082019050919050565b60006020820190508181036000830152616834816167f8565b9050919050565b7f53616665436173743a2076616c756520646f65736e27742066697420696e203660008201527f3420626974730000000000000000000000000000000000000000000000000000602082015250565b6000616897602683614ab8565b91506168a28261683b565b604082019050919050565b600060208201905081810360008301526168c68161688a565b9050919050565b7f436865636b706f696e74733a20626c6f636b206e6f7420796574206d696e6564600082015250565b6000616903602083614ab8565b915061690e826168cd565b602082019050919050565b60006020820190508181036000830152616932816168f6565b9050919050565b600060408201905061694e600083018561567e565b61695b6020830184614737565b9392505050565b6000604082019050616977600083018561567e565b616984602083018461567e565b9392505050565b7f476f7665726e6f7253657474696e67733a20766f74696e6720706572696f642060008201527f746f6f206c6f7700000000000000000000000000000000000000000000000000602082015250565b60006169e7602783614ab8565b91506169f28261698b565b604082019050919050565b60006020820190508181036000830152616a16816169da565b9050919050565b6000616a288261472d565b9150616a338361472d565b9250828202616a418161472d565b91508282048414831517616a5857616a57615a44565b5b5092915050565b7f4e487b7100000000000000000000000000000000000000000000000000000000600052601260045260246000fd5b6000616a998261472d565b9150616aa48361472d565b925082616ab457616ab3616a5f565b5b828204905092915050565b7f436865636b706f696e743a20696e76616c6964206b6579000000000000000000600082015250565b6000616af5601783614ab8565b9150616b0082616abf565b602082019050919050565b60006020820190508181036000830152616b2481616ae8565b9050919050565b600081905092915050565b7f1901000000000000000000000000000000000000000000000000000000000000600082015250565b6000616b6c600283616b2b565b9150616b7782616b36565b600282019050919050565b6000819050919050565b616b9d616b988261496c565b616b82565b82525050565b6000616bae82616b5f565b9150616bba8285616b8c565b602082019150616bca8284616b8c565b6020820191508190509392505050565b6000608082019050616bef6000830187614f7b565b616bfc6020830186615842565b616c096040830185614f7b565b616c166060830184614f7b565b95945050505050565b7f45434453413a20696e76616c6964207369676e61747572650000000000000000600082015250565b6000616c55601883614ab8565b9150616c6082616c1f565b602082019050919050565b60006020820190508181036000830152616c8481616c48565b9050919050565b7f45434453413a20696e76616c6964207369676e6174757265206c656e67746800600082015250565b6000616cc1601f83614ab8565b9150616ccc82616c8b565b602082019050919050565b60006020820190508181036000830152616cf081616cb4565b9050919050565b7f45434453413a20696e76616c6964207369676e6174757265202773272076616c60008201527f7565000000000000000000000000000000000000000000000000000000000000602082015250565b6000616d53602283614ab8565b9150616d5e82616cf7565b604082019050919050565b60006020820190508181036000830152616d8281616d46565b9050919050565b7f476f7665726e6f72566f74696e6753696d706c653a20766f746520616c72656160008201527f6479206361737400000000000000000000000000000000000000000000000000602082015250565b6000616de5602783614ab8565b9150616df082616d89565b604082019050919050565b60006020820190508181036000830152616e1481616dd8565b9050919050565b7f476f7665726e6f72566f74696e6753696d706c653a20696e76616c696420766160008201527f6c756520666f7220656e756d20566f7465547970650000000000000000000000602082015250565b6000616e77603583614ab8565b9150616e8282616e1b565b604082019050919050565b60006020820190508181036000830152616ea681616e6a565b9050919050565b7f476f7665726e6f7254696d656c6f636b436f6d706f756e643a2070726f706f7360008201527f616c206e6f742079657420717565756564000000000000000000000000000000602082015250565b6000616f09603183614ab8565b9150616f1482616ead565b604082019050919050565b60006020820190508181036000830152616f3881616efc565b9050919050565b6000616f52616f4d846148bc565b6148a1565b905082815260208101848484011115616f6e57616f6d61482b565b5b616f79848285614ac9565b509392505050565b600082601f830112616f9657616f956147c6565b5b8151616fa6848260208601616f3f565b91505092915050565b600060208284031215616fc557616fc4614668565b5b600082015167ffffffffffffffff811115616fe357616fe261466d565b5b616fef84828501616f81565b91505092915050565b7f476f7665726e6f723a20756e6b6e6f776e2070726f706f73616c206964000000600082015250565b600061702e601d83614ab8565b915061703982616ff8565b602082019050919050565b6000602082019050818103600083015261705d81617021565b9050919050565b600060a0820190506170796000830188614f7b565b6170866020830187614f7b565b6170936040830186614f7b565b6170a06060830185614737565b6170ad608083018461567e565b9695505050505050565b7f416464726573733a20696e73756666696369656e742062616c616e6365000000600082015250565b60006170ed601d83614ab8565b91506170f8826170b7565b602082019050919050565b6000602082019050818103600083015261711c816170e0565b9050919050565b60006171306000836157f9565b915061713b82615ad6565b600082019050919050565b600061715182617123565b9150819050919050565b7f416464726573733a20756e61626c6520746f2073656e642076616c75652c207260008201527f6563697069656e74206d61792068617665207265766572746564000000000000602082015250565b60006171b7603a83614ab8565b91506171c28261715b565b604082019050919050565b600060208201905081810360008301526171e6816171aa565b9050919050565b7f476f7665726e6f723a2070726f706f73616c206e6f7420616374697665000000600082015250565b6000617223601d83614ab8565b915061722e826171ed565b602082019050919050565b6000602082019050818103600083015261725281617216565b905091905056fe476f7665726e6f723a2072656c617920726576657274656420776974686f7574206d657373616765a2646970667358221220d322dee72426ec6551c21e58d5327e3dd0badf7b8ad15ad5b5e2481e0b0c6d4064736f6c63430008110033",
  "linkReferences": {},
  "deployedLinkReferences": {}
}