{
  "_format": "hh-sol-artifact-1",
  "contractName": "GovernorPreventLateQuorumMock",
  "sourceName": "contracts/mocks/GovernorPreventLateQuorumMock.sol",
  "abi": [
    {
      "inputs": [
        {
          "internalType": "string",
          "name": "name_",
          "type": "string"
        },
        {
          "internalType": "contract IVotes",
          "name": "token_",
          "type": "address"
        },
        {
          "internalType": "uint256",
          "name": "votingDelay_",
          "type": "uint256"
        },
        {
          "internalType": "uint256",
          "name": "votingPeriod_",
          "type": "uint256"
        },
        {
          "internalType": "uint256",
          "name": "quorum_",
          "type": "uint256"
        },
        {
          "internalType": "uint64",
          "name": "voteExtension_",
          "type": "uint64"
        }
      ],
      "stateMutability": "nonpayable",
      "type": "constructor"
    },
    {
      "inputs": [],
      "name": "Empty",
      "type": "error"
    },
    {
      "anonymous": false,
      "inputs": [
        {
          "indexed": false,
          "internalType": "uint64",
          "name": "oldVoteExtension",
          "type": "uint64"
        },
        {
          "indexed": false,
          "internalType": "uint64",
          "name": "newVoteExtension",
          "type": "uint64"
        }
      ],
      "name": "LateQuorumVoteExtensionSet",
      "type": "event"
    },
    {
      "anonymous": false,
      "inputs": [
        {
          "indexed": false,
          "internalType": "uint256",
          "name": "proposalId",
          "type": "uint256"
        }
      ],
      "name": "ProposalCanceled",
      "type": "event"
    },
    {
      "anonymous": false,
      "inputs": [
        {
          "indexed": false,
          "internalType": "uint256",
          "name": "proposalId",
          "type": "uint256"
        },
        {
          "indexed": false,
          "internalType": "address",
          "name": "proposer",
          "type": "address"
        },
        {
          "indexed": false,
          "internalType": "address[]",
          "name": "targets",
          "type": "address[]"
        },
        {
          "indexed": false,
          "internalType": "uint256[]",
          "name": "values",
          "type": "uint256[]"
        },
        {
          "indexed": false,
          "internalType": "string[]",
          "name": "signatures",
          "type": "string[]"
        },
        {
          "indexed": false,
          "internalType": "bytes[]",
          "name": "calldatas",
          "type": "bytes[]"
        },
        {
          "indexed": false,
          "internalType": "uint256",
          "name": "startBlock",
          "type": "uint256"
        },
        {
          "indexed": false,
          "internalType": "uint256",
          "name": "endBlock",
          "type": "uint256"
        },
        {
          "indexed": false,
          "internalType": "string",
          "name": "description",
          "type": "string"
        }
      ],
      "name": "ProposalCreated",
      "type": "event"
    },
    {
      "anonymous": false,
      "inputs": [
        {
          "indexed": false,
          "internalType": "uint256",
          "name": "proposalId",
          "type": "uint256"
        }
      ],
      "name": "ProposalExecuted",
      "type": "event"
    },
    {
      "anonymous": false,
      "inputs": [
        {
          "indexed": true,
          "internalType": "uint256",
          "name": "proposalId",
          "type": "uint256"
        },
        {
          "indexed": false,
          "internalType": "uint64",
          "name": "extendedDeadline",
          "type": "uint64"
        }
      ],
      "name": "ProposalExtended",
      "type": "event"
    },
    {
      "anonymous": false,
      "inputs": [
        {
          "indexed": false,
          "internalType": "uint256",
          "name": "oldProposalThreshold",
          "type": "uint256"
        },
        {
          "indexed": false,
          "internalType": "uint256",
          "name": "newProposalThreshold",
          "type": "uint256"
        }
      ],
      "name": "ProposalThresholdSet",
      "type": "event"
    },
    {
      "anonymous": false,
      "inputs": [
        {
          "indexed": true,
          "internalType": "address",
          "name": "voter",
          "type": "address"
        },
        {
          "indexed": false,
          "internalType": "uint256",
          "name": "proposalId",
          "type": "uint256"
        },
        {
          "indexed": false,
          "internalType": "uint8",
          "name": "support",
          "type": "uint8"
        },
        {
          "indexed": false,
          "internalType": "uint256",
          "name": "weight",
          "type": "uint256"
        },
        {
          "indexed": false,
          "internalType": "string",
          "name": "reason",
          "type": "string"
        }
      ],
      "name": "VoteCast",
      "type": "event"
    },
    {
      "anonymous": false,
      "inputs": [
        {
          "indexed": true,
          "internalType": "address",
          "name": "voter",
          "type": "address"
        },
        {
          "indexed": false,
          "internalType": "uint256",
          "name": "proposalId",
          "type": "uint256"
        },
        {
          "indexed": false,
          "internalType": "uint8",
          "name": "support",
          "type": "uint8"
        },
        {
          "indexed": false,
          "internalType": "uint256",
          "name": "weight",
          "type": "uint256"
        },
        {
          "indexed": false,
          "internalType": "string",
          "name": "reason",
          "type": "string"
        },
        {
          "indexed": false,
          "internalType": "bytes",
          "name": "params",
          "type": "bytes"
        }
      ],
      "name": "VoteCastWithParams",
      "type": "event"
    },
    {
      "anonymous": false,
      "inputs": [
        {
          "indexed": false,
          "internalType": "uint256",
          "name": "oldVotingDelay",
          "type": "uint256"
        },
        {
          "indexed": false,
          "internalType": "uint256",
          "name": "newVotingDelay",
          "type": "uint256"
        }
      ],
      "name": "VotingDelaySet",
      "type": "event"
    },
    {
      "anonymous": false,
      "inputs": [
        {
          "indexed": false,
          "internalType": "uint256",
          "name": "oldVotingPeriod",
          "type": "uint256"
        },
        {
          "indexed": false,
          "internalType": "uint256",
          "name": "newVotingPeriod",
          "type": "uint256"
        }
      ],
      "name": "VotingPeriodSet",
      "type": "event"
    },
    {
      "inputs": [],
      "name": "BALLOT_TYPEHASH",
      "outputs": [
        {
          "internalType": "bytes32",
          "name": "",
          "type": "bytes32"
        }
      ],
      "stateMutability": "view",
      "type": "function"
    },
    {
      "inputs": [],
      "name": "COUNTING_MODE",
      "outputs": [
        {
          "internalType": "string",
          "name": "",
          "type": "string"
        }
      ],
      "stateMutability": "pure",
      "type": "function"
    },
    {
      "inputs": [],
      "name": "EXTENDED_BALLOT_TYPEHASH",
      "outputs": [
        {
          "internalType": "bytes32",
          "name": "",
          "type": "bytes32"
        }
      ],
      "stateMutability": "view",
      "type": "function"
    },
    {
      "inputs": [
        {
          "internalType": "uint256",
          "name": "proposalId",
          "type": "uint256"
        },
        {
          "internalType": "uint8",
          "name": "support",
          "type": "uint8"
        }
      ],
      "name": "castVote",
      "outputs": [
        {
          "internalType": "uint256",
          "name": "",
          "type": "uint256"
        }
      ],
      "stateMutability": "nonpayable",
      "type": "function"
    },
    {
      "inputs": [
        {
          "internalType": "uint256",
          "name": "proposalId",
          "type": "uint256"
        },
        {
          "internalType": "uint8",
          "name": "support",
          "type": "uint8"
        },
        {
          "internalType": "uint8",
          "name": "v",
          "type": "uint8"
        },
        {
          "internalType": "bytes32",
          "name": "r",
          "type": "bytes32"
        },
        {
          "internalType": "bytes32",
          "name": "s",
          "type": "bytes32"
        }
      ],
      "name": "castVoteBySig",
      "outputs": [
        {
          "internalType": "uint256",
          "name": "",
          "type": "uint256"
        }
      ],
      "stateMutability": "nonpayable",
      "type": "function"
    },
    {
      "inputs": [
        {
          "internalType": "uint256",
          "name": "proposalId",
          "type": "uint256"
        },
        {
          "internalType": "uint8",
          "name": "support",
          "type": "uint8"
        },
        {
          "internalType": "string",
          "name": "reason",
          "type": "string"
        }
      ],
      "name": "castVoteWithReason",
      "outputs": [
        {
          "internalType": "uint256",
          "name": "",
          "type": "uint256"
        }
      ],
      "stateMutability": "nonpayable",
      "type": "function"
    },
    {
      "inputs": [
        {
          "internalType": "uint256",
          "name": "proposalId",
          "type": "uint256"
        },
        {
          "internalType": "uint8",
          "name": "support",
          "type": "uint8"
        },
        {
          "internalType": "string",
          "name": "reason",
          "type": "string"
        },
        {
          "internalType": "bytes",
          "name": "params",
          "type": "bytes"
        }
      ],
      "name": "castVoteWithReasonAndParams",
      "outputs": [
        {
          "internalType": "uint256",
          "name": "",
          "type": "uint256"
        }
      ],
      "stateMutability": "nonpayable",
      "type": "function"
    },
    {
      "inputs": [
        {
          "internalType": "uint256",
          "name": "proposalId",
          "type": "uint256"
        },
        {
          "internalType": "uint8",
          "name": "support",
          "type": "uint8"
        },
        {
          "internalType": "string",
          "name": "reason",
          "type": "string"
        },
        {
          "internalType": "bytes",
          "name": "params",
          "type": "bytes"
        },
        {
          "internalType": "uint8",
          "name": "v",
          "type": "uint8"
        },
        {
          "internalType": "bytes32",
          "name": "r",
          "type": "bytes32"
        },
        {
          "internalType": "bytes32",
          "name": "s",
          "type": "bytes32"
        }
      ],
      "name": "castVoteWithReasonAndParamsBySig",
      "outputs": [
        {
          "internalType": "uint256",
          "name": "",
          "type": "uint256"
        }
      ],
      "stateMutability": "nonpayable",
      "type": "function"
    },
    {
      "inputs": [
        {
          "internalType": "address[]",
          "name": "targets",
          "type": "address[]"
        },
        {
          "internalType": "uint256[]",
          "name": "values",
          "type": "uint256[]"
        },
        {
          "internalType": "bytes[]",
          "name": "calldatas",
          "type": "bytes[]"
        },
        {
          "internalType": "bytes32",
          "name": "descriptionHash",
          "type": "bytes32"
        }
      ],
      "name": "execute",
      "outputs": [
        {
          "internalType": "uint256",
          "name": "",
          "type": "uint256"
        }
      ],
      "stateMutability": "payable",
      "type": "function"
    },
    {
      "inputs": [
        {
          "internalType": "address",
          "name": "account",
          "type": "address"
        },
        {
          "internalType": "uint256",
          "name": "blockNumber",
          "type": "uint256"
        }
      ],
      "name": "getVotes",
      "outputs": [
        {
          "internalType": "uint256",
          "name": "",
          "type": "uint256"
        }
      ],
      "stateMutability": "view",
      "type": "function"
    },
    {
      "inputs": [
        {
          "internalType": "address",
          "name": "account",
          "type": "address"
        },
        {
          "internalType": "uint256",
          "name": "blockNumber",
          "type": "uint256"
        },
        {
          "internalType": "bytes",
          "name": "params",
          "type": "bytes"
        }
      ],
      "name": "getVotesWithParams",
      "outputs": [
        {
          "internalType": "uint256",
          "name": "",
          "type": "uint256"
        }
      ],
      "stateMutability": "view",
      "type": "function"
    },
    {
      "inputs": [
        {
          "internalType": "uint256",
          "name": "proposalId",
          "type": "uint256"
        },
        {
          "internalType": "address",
          "name": "account",
          "type": "address"
        }
      ],
      "name": "hasVoted",
      "outputs": [
        {
          "internalType": "bool",
          "name": "",
          "type": "bool"
        }
      ],
      "stateMutability": "view",
      "type": "function"
    },
    {
      "inputs": [
        {
          "internalType": "address[]",
          "name": "targets",
          "type": "address[]"
        },
        {
          "internalType": "uint256[]",
          "name": "values",
          "type": "uint256[]"
        },
        {
          "internalType": "bytes[]",
          "name": "calldatas",
          "type": "bytes[]"
        },
        {
          "internalType": "bytes32",
          "name": "descriptionHash",
          "type": "bytes32"
        }
      ],
      "name": "hashProposal",
      "outputs": [
        {
          "internalType": "uint256",
          "name": "",
          "type": "uint256"
        }
      ],
      "stateMutability": "pure",
      "type": "function"
    },
    {
      "inputs": [],
      "name": "lateQuorumVoteExtension",
      "outputs": [
        {
          "internalType": "uint64",
          "name": "",
          "type": "uint64"
        }
      ],
      "stateMutability": "view",
      "type": "function"
    },
    {
      "inputs": [],
      "name": "name",
      "outputs": [
        {
          "internalType": "string",
          "name": "",
          "type": "string"
        }
      ],
      "stateMutability": "view",
      "type": "function"
    },
    {
      "inputs": [
        {
          "internalType": "address",
          "name": "",
          "type": "address"
        },
        {
          "internalType": "address",
          "name": "",
          "type": "address"
        },
        {
          "internalType": "uint256[]",
          "name": "",
          "type": "uint256[]"
        },
        {
          "internalType": "uint256[]",
          "name": "",
          "type": "uint256[]"
        },
        {
          "internalType": "bytes",
          "name": "",
          "type": "bytes"
        }
      ],
      "name": "onERC1155BatchReceived",
      "outputs": [
        {
          "internalType": "bytes4",
          "name": "",
          "type": "bytes4"
        }
      ],
      "stateMutability": "nonpayable",
      "type": "function"
    },
    {
      "inputs": [
        {
          "internalType": "address",
          "name": "",
          "type": "address"
        },
        {
          "internalType": "address",
          "name": "",
          "type": "address"
        },
        {
          "internalType": "uint256",
          "name": "",
          "type": "uint256"
        },
        {
          "internalType": "uint256",
          "name": "",
          "type": "uint256"
        },
        {
          "internalType": "bytes",
          "name": "",
          "type": "bytes"
        }
      ],
      "name": "onERC1155Received",
      "outputs": [
        {
          "internalType": "bytes4",
          "name": "",
          "type": "bytes4"
        }
      ],
      "stateMutability": "nonpayable",
      "type": "function"
    },
    {
      "inputs": [
        {
          "internalType": "address",
          "name": "",
          "type": "address"
        },
        {
          "internalType": "address",
          "name": "",
          "type": "address"
        },
        {
          "internalType": "uint256",
          "name": "",
          "type": "uint256"
        },
        {
          "internalType": "bytes",
          "name": "",
          "type": "bytes"
        }
      ],
      "name": "onERC721Received",
      "outputs": [
        {
          "internalType": "bytes4",
          "name": "",
          "type": "bytes4"
        }
      ],
      "stateMutability": "nonpayable",
      "type": "function"
    },
    {
      "inputs": [
        {
          "internalType": "uint256",
          "name": "proposalId",
          "type": "uint256"
        }
      ],
      "name": "proposalDeadline",
      "outputs": [
        {
          "internalType": "uint256",
          "name": "",
          "type": "uint256"
        }
      ],
      "stateMutability": "view",
      "type": "function"
    },
    {
      "inputs": [
        {
          "internalType": "uint256",
          "name": "proposalId",
          "type": "uint256"
        }
      ],
      "name": "proposalSnapshot",
      "outputs": [
        {
          "internalType": "uint256",
          "name": "",
          "type": "uint256"
        }
      ],
      "stateMutability": "view",
      "type": "function"
    },
    {
      "inputs": [],
      "name": "proposalThreshold",
      "outputs": [
        {
          "internalType": "uint256",
          "name": "",
          "type": "uint256"
        }
      ],
      "stateMutability": "view",
      "type": "function"
    },
    {
      "inputs": [
        {
          "internalType": "uint256",
          "name": "proposalId",
          "type": "uint256"
        }
      ],
      "name": "proposalVotes",
      "outputs": [
        {
          "internalType": "uint256",
          "name": "againstVotes",
          "type": "uint256"
        },
        {
          "internalType": "uint256",
          "name": "forVotes",
          "type": "uint256"
        },
        {
          "internalType": "uint256",
          "name": "abstainVotes",
          "type": "uint256"
        }
      ],
      "stateMutability": "view",
      "type": "function"
    },
    {
      "inputs": [
        {
          "internalType": "address[]",
          "name": "targets",
          "type": "address[]"
        },
        {
          "internalType": "uint256[]",
          "name": "values",
          "type": "uint256[]"
        },
        {
          "internalType": "bytes[]",
          "name": "calldatas",
          "type": "bytes[]"
        },
        {
          "internalType": "string",
          "name": "description",
          "type": "string"
        }
      ],
      "name": "propose",
      "outputs": [
        {
          "internalType": "uint256",
          "name": "",
          "type": "uint256"
        }
      ],
      "stateMutability": "nonpayable",
      "type": "function"
    },
    {
      "inputs": [
        {
          "internalType": "uint256",
          "name": "",
          "type": "uint256"
        }
      ],
      "name": "quorum",
      "outputs": [
        {
          "internalType": "uint256",
          "name": "",
          "type": "uint256"
        }
      ],
      "stateMutability": "view",
      "type": "function"
    },
    {
      "inputs": [
        {
          "internalType": "address",
          "name": "target",
          "type": "address"
        },
        {
          "internalType": "uint256",
          "name": "value",
          "type": "uint256"
        },
        {
          "internalType": "bytes",
          "name": "data",
          "type": "bytes"
        }
      ],
      "name": "relay",
      "outputs": [],
      "stateMutability": "payable",
      "type": "function"
    },
    {
      "inputs": [
        {
          "internalType": "uint64",
          "name": "newVoteExtension",
          "type": "uint64"
        }
      ],
      "name": "setLateQuorumVoteExtension",
      "outputs": [],
      "stateMutability": "nonpayable",
      "type": "function"
    },
    {
      "inputs": [
        {
          "internalType": "uint256",
          "name": "newProposalThreshold",
          "type": "uint256"
        }
      ],
      "name": "setProposalThreshold",
      "outputs": [],
      "stateMutability": "nonpayable",
      "type": "function"
    },
    {
      "inputs": [
        {
          "internalType": "uint256",
          "name": "newVotingDelay",
          "type": "uint256"
        }
      ],
      "name": "setVotingDelay",
      "outputs": [],
      "stateMutability": "nonpayable",
      "type": "function"
    },
    {
      "inputs": [
        {
          "internalType": "uint256",
          "name": "newVotingPeriod",
          "type": "uint256"
        }
      ],
      "name": "setVotingPeriod",
      "outputs": [],
      "stateMutability": "nonpayable",
      "type": "function"
    },
    {
      "inputs": [
        {
          "internalType": "uint256",
          "name": "proposalId",
          "type": "uint256"
        }
      ],
      "name": "state",
      "outputs": [
        {
          "internalType": "enum IGovernor.ProposalState",
          "name": "",
          "type": "uint8"
        }
      ],
      "stateMutability": "view",
      "type": "function"
    },
    {
      "inputs": [
        {
          "internalType": "bytes4",
          "name": "interfaceId",
          "type": "bytes4"
        }
      ],
      "name": "supportsInterface",
      "outputs": [
        {
          "internalType": "bool",
          "name": "",
          "type": "bool"
        }
      ],
      "stateMutability": "view",
      "type": "function"
    },
    {
      "inputs": [],
      "name": "token",
      "outputs": [
        {
          "internalType": "contract IVotes",
          "name": "",
          "type": "address"
        }
      ],
      "stateMutability": "view",
      "type": "function"
    },
    {
      "inputs": [],
      "name": "version",
      "outputs": [
        {
          "internalType": "string",
          "name": "",
          "type": "string"
        }
      ],
      "stateMutability": "view",
      "type": "function"
    },
    {
      "inputs": [],
      "name": "votingDelay",
      "outputs": [
        {
          "internalType": "uint256",
          "name": "",
          "type": "uint256"
        }
      ],
      "stateMutability": "view",
      "type": "function"
    },
    {
      "inputs": [],
      "name": "votingPeriod",
      "outputs": [
        {
          "internalType": "uint256",
          "name": "",
          "type": "uint256"
        }
      ],
      "stateMutability": "view",
      "type": "function"
    },
    {
      "stateMutability": "payable",
      "type": "receive"
    }
  ],
  "bytecode": "0x6101606040523480156200001257600080fd5b5060405162005f7438038062005f74833981810160405281019062000038919062000643565b8085858560008a8062000050620001a660201b60201c565b60008280519060200120905060008280519060200120905060007f8b73c3c69bb8fe3d512ecc4cf759cc79239f7b179b0ffacaa9a75d522b39400f90508260e081815250508161010081815250504660a08181525050620000b9818484620001e360201b60201c565b608081815250503073ffffffffffffffffffffffffffffffffffffffff1660c08173ffffffffffffffffffffffffffffffffffffffff1681525050806101208181525050505050505080600090816200011391906200093f565b505062000126836200021f60201b60201c565b62000137826200026660201b60201c565b6200014881620002f360201b60201c565b5050508073ffffffffffffffffffffffffffffffffffffffff166101408173ffffffffffffffffffffffffffffffffffffffff16815250505062000192816200033a60201b60201c565b5081600a8190555050505050505062000bd4565b60606040518060400160405280600181526020017f3100000000000000000000000000000000000000000000000000000000000000815250905090565b600083838346306040516020016200020095949392919062000a63565b6040516020818303038152906040528051906020012090509392505050565b7fc565b045403dc03c2eea82b81a0465edad9e2e7fc4d97e11421c209da93d7a93600454826040516200025492919062000ac0565b60405180910390a18060048190555050565b60008111620002ac576040517f08c379a0000000000000000000000000000000000000000000000000000000008152600401620002a39062000b74565b60405180910390fd5b7f7e3f7f0708a84de9203036abaa450dccc85ad5ff52f78c170f3edb55cf5e882860055482604051620002e192919062000ac0565b60405180910390a18060058190555050565b7fccb45da8d5717e6c4544694297c4ba5cf151d455c9bb0ed4fc7a38411bc05461600654826040516200032892919062000ac0565b60405180910390a18060068190555050565b7f7ca4ac117ed3cdce75c1161d8207c440389b1a15d69d096831664657c07dafc2600860009054906101000a900467ffffffffffffffff16826040516200038392919062000ba7565b60405180910390a180600860006101000a81548167ffffffffffffffff021916908367ffffffffffffffff16021790555050565b6000604051905090565b600080fd5b600080fd5b600080fd5b600080fd5b6000601f19601f8301169050919050565b7f4e487b7100000000000000000000000000000000000000000000000000000000600052604160045260246000fd5b6200042082620003d5565b810181811067ffffffffffffffff82111715620004425762000441620003e6565b5b80604052505050565b600062000457620003b7565b905062000465828262000415565b919050565b600067ffffffffffffffff821115620004885762000487620003e6565b5b6200049382620003d5565b9050602081019050919050565b60005b83811015620004c0578082015181840152602081019050620004a3565b60008484015250505050565b6000620004e3620004dd846200046a565b6200044b565b905082815260208101848484011115620005025762000501620003d0565b5b6200050f848285620004a0565b509392505050565b600082601f8301126200052f576200052e620003cb565b5b815162000541848260208601620004cc565b91505092915050565b600073ffffffffffffffffffffffffffffffffffffffff82169050919050565b600062000577826200054a565b9050919050565b60006200058b826200056a565b9050919050565b6200059d816200057e565b8114620005a957600080fd5b50565b600081519050620005bd8162000592565b92915050565b6000819050919050565b620005d881620005c3565b8114620005e457600080fd5b50565b600081519050620005f881620005cd565b92915050565b600067ffffffffffffffff82169050919050565b6200061d81620005fe565b81146200062957600080fd5b50565b6000815190506200063d8162000612565b92915050565b60008060008060008060c08789031215620006635762000662620003c1565b5b600087015167ffffffffffffffff811115620006845762000683620003c6565b5b6200069289828a0162000517565b9650506020620006a589828a01620005ac565b9550506040620006b889828a01620005e7565b9450506060620006cb89828a01620005e7565b9350506080620006de89828a01620005e7565b92505060a0620006f189828a016200062c565b9150509295509295509295565b600081519050919050565b7f4e487b7100000000000000000000000000000000000000000000000000000000600052602260045260246000fd5b600060028204905060018216806200075157607f821691505b60208210810362000767576200076662000709565b5b50919050565b60008190508160005260206000209050919050565b60006020601f8301049050919050565b600082821b905092915050565b600060088302620007d17fffffffffffffffffffffffffffffffffffffffffffffffffffffffffffffffff8262000792565b620007dd868362000792565b95508019841693508086168417925050509392505050565b6000819050919050565b6000620008206200081a6200081484620005c3565b620007f5565b620005c3565b9050919050565b6000819050919050565b6200083c83620007ff565b620008546200084b8262000827565b8484546200079f565b825550505050565b600090565b6200086b6200085c565b6200087881848462000831565b505050565b5b81811015620008a0576200089460008262000861565b6001810190506200087e565b5050565b601f821115620008ef57620008b9816200076d565b620008c48462000782565b81016020851015620008d4578190505b620008ec620008e38562000782565b8301826200087d565b50505b505050565b600082821c905092915050565b60006200091460001984600802620008f4565b1980831691505092915050565b60006200092f838362000901565b9150826002028217905092915050565b6200094a82620006fe565b67ffffffffffffffff811115620009665762000965620003e6565b5b62000972825462000738565b6200097f828285620008a4565b600060209050601f831160018114620009b75760008415620009a2578287015190505b620009ae858262000921565b86555062000a1e565b601f198416620009c7866200076d565b60005b82811015620009f157848901518255600182019150602085019450602081019050620009ca565b8683101562000a11578489015162000a0d601f89168262000901565b8355505b6001600288020188555050505b505050505050565b6000819050919050565b62000a3b8162000a26565b82525050565b62000a4c81620005c3565b82525050565b62000a5d816200056a565b82525050565b600060a08201905062000a7a600083018862000a30565b62000a89602083018762000a30565b62000a98604083018662000a30565b62000aa7606083018562000a41565b62000ab6608083018462000a52565b9695505050505050565b600060408201905062000ad7600083018562000a41565b62000ae6602083018462000a41565b9392505050565b600082825260208201905092915050565b7f476f7665726e6f7253657474696e67733a20766f74696e6720706572696f642060008201527f746f6f206c6f7700000000000000000000000000000000000000000000000000602082015250565b600062000b5c60278362000aed565b915062000b698262000afe565b604082019050919050565b6000602082019050818103600083015262000b8f8162000b4d565b9050919050565b62000ba181620005fe565b82525050565b600060408201905062000bbe600083018562000b96565b62000bcd602083018462000b96565b9392505050565b60805160a05160c05160e05161010051610120516101405161533e62000c3660003960008181611b98015261214a015260006124a2015260006124e4015260006124c3015260006123f80152600061244e01526000612477015261533e6000f3fe6080604052600436106102085760003560e01c806370b0f66011610118578063d07f91e9116100a0578063eb9019d41161006f578063eb9019d41461086f578063ece40cc1146108ac578063f23a6e61146108d5578063f8ce560a14610912578063fc0c546a1461094f5761024e565b8063d07f91e9146107c7578063dd4e2ba5146107f0578063deaaa7cc1461081b578063ea0217cf146108465761024e565b8063b58131b0116100e7578063b58131b0146106c9578063bc197c81146106f4578063c01f9e3714610731578063c28bc2fa1461076e578063c59057e41461078a5761024e565b806370b0f660146105e95780637b3c71d3146106125780637d5e81e21461064f5780639a802a6d1461068c5761024e565b806332b8113e1161019b578063438596321161016a57806343859632146104c8578063544ffc9c1461050557806354fd4d5014610544578063567813881461056f5780635f398a14146105ac5761024e565b806332b8113e146103f85780633932abb1146104235780633bccf4fd1461044e5780633e4f49e61461048b5761024e565b8063150b7a02116101d7578063150b7a02146103235780632656227d146103605780632d63f693146103905780632fe3e261146103cd5761024e565b806301ffc9a71461025357806302a251a31461029057806303420181146102bb57806306fdde03146102f85761024e565b3661024e573073ffffffffffffffffffffffffffffffffffffffff1661022c61097a565b73ffffffffffffffffffffffffffffffffffffffff161461024c57600080fd5b005b600080fd5b34801561025f57600080fd5b5061027a60048036038101906102759190612f12565b610982565b6040516102879190612f5a565b60405180910390f35b34801561029c57600080fd5b506102a5610ae7565b6040516102b29190612f8e565b60405180910390f35b3480156102c757600080fd5b506102e260048036038101906102dd91906131ea565b610af1565b6040516102ef9190612f8e565b60405180910390f35b34801561030457600080fd5b5061030d610bd6565b60405161031a9190613347565b60405180910390f35b34801561032f57600080fd5b5061034a600480360381019061034591906133c7565b610c68565b6040516103579190613459565b60405180910390f35b61037a600480360381019061037591906136db565b610c7c565b6040516103879190612f8e565b60405180910390f35b34801561039c57600080fd5b506103b760048036038101906103b29190613796565b610dc9565b6040516103c49190612f8e565b60405180910390f35b3480156103d957600080fd5b506103e2610e37565b6040516103ef91906137d2565b60405180910390f35b34801561040457600080fd5b5061040d610e5b565b60405161041a9190613810565b60405180910390f35b34801561042f57600080fd5b50610438610e79565b6040516104459190612f8e565b60405180910390f35b34801561045a57600080fd5b506104756004803603810190610470919061382b565b610e83565b6040516104829190612f8e565b60405180910390f35b34801561049757600080fd5b506104b260048036038101906104ad9190613796565b610f0d565b6040516104bf919061391d565b60405180910390f35b3480156104d457600080fd5b506104ef60048036038101906104ea9190613938565b611021565b6040516104fc9190612f5a565b60405180910390f35b34801561051157600080fd5b5061052c60048036038101906105279190613796565b61108c565b60405161053b93929190613978565b60405180910390f35b34801561055057600080fd5b506105596110c4565b6040516105669190613347565b60405180910390f35b34801561057b57600080fd5b50610596600480360381019061059191906139af565b611101565b6040516105a39190612f8e565b60405180910390f35b3480156105b857600080fd5b506105d360048036038101906105ce91906139ef565b611132565b6040516105e09190612f8e565b60405180910390f35b3480156105f557600080fd5b50610610600480360381019061060b9190613796565b61119c565b005b34801561061e57600080fd5b5061063960048036038101906106349190613a93565b611293565b6040516106469190612f8e565b60405180910390f35b34801561065b57600080fd5b5061067660048036038101906106719190613ba8565b6112fb565b6040516106839190612f8e565b60405180910390f35b34801561069857600080fd5b506106b360048036038101906106ae9190613c7f565b611602565b6040516106c09190612f8e565b60405180910390f35b3480156106d557600080fd5b506106de611618565b6040516106eb9190612f8e565b60405180910390f35b34801561070057600080fd5b5061071b60048036038101906107169190613cee565b611627565b6040516107289190613459565b60405180910390f35b34801561073d57600080fd5b5061075860048036038101906107539190613796565b61163c565b6040516107659190612f8e565b60405180910390f35b61078860048036038101906107839190613e13565b61164e565b005b34801561079657600080fd5b506107b160048036038101906107ac91906136db565b6117d7565b6040516107be9190612f8e565b60405180910390f35b3480156107d357600080fd5b506107ee60048036038101906107e99190613eb3565b611813565b005b3480156107fc57600080fd5b5061080561190a565b6040516108129190613347565b60405180910390f35b34801561082757600080fd5b50610830611947565b60405161083d91906137d2565b60405180910390f35b34801561085257600080fd5b5061086d60048036038101906108689190613796565b61196b565b005b34801561087b57600080fd5b5061089660048036038101906108919190613ee0565b611a62565b6040516108a39190612f8e565b60405180910390f35b3480156108b857600080fd5b506108d360048036038101906108ce9190613796565b611a7e565b005b3480156108e157600080fd5b506108fc60048036038101906108f79190613f20565b611b75565b6040516109099190613459565b60405180910390f35b34801561091e57600080fd5b5061093960048036038101906109349190613796565b611b8a565b6040516109469190612f8e565b60405180910390f35b34801561095b57600080fd5b50610964611b96565b6040516109719190614016565b60405180910390f35b600030905090565b6000639a802a6d60e01b630342018160e01b635f398a1460e01b7f79dd796f000000000000000000000000000000000000000000000000000000001818187bffffffffffffffffffffffffffffffffffffffffffffffffffffffff1916827bffffffffffffffffffffffffffffffffffffffffffffffffffffffff19161480610a6857507f79dd796f000000000000000000000000000000000000000000000000000000007bffffffffffffffffffffffffffffffffffffffffffffffffffffffff1916827bffffffffffffffffffffffffffffffffffffffffffffffffffffffff1916145b80610ad057507f4e2312e0000000000000000000000000000000000000000000000000000000007bffffffffffffffffffffffffffffffffffffffffffffffffffffffff1916827bffffffffffffffffffffffffffffffffffffffffffffffffffffffff1916145b80610ae05750610adf82611bba565b5b9050919050565b6000600554905090565b600080610b74610b6c7fb3b3f3b703cd84ce352197dcff232b1b5d3cfb2025ce47cf04742d0651f1af888c8c8c8c604051610b2d929190614061565b60405180910390208b80519060200120604051602001610b51959493929190614089565b60405160208183030381529060405280519060200120611c24565b868686611c3e565b9050610bc78a828b8b8b8080601f016020809104026020016040519081016040528093929190818152602001838380828437600081840152601f19601f820116905080830192505050505050508a611c69565b91505098975050505050505050565b606060008054610be59061410b565b80601f0160208091040260200160405190810160405280929190818152602001828054610c119061410b565b8015610c5e5780601f10610c3357610100808354040283529160200191610c5e565b820191906000526020600020905b815481529060010190602001808311610c4157829003601f168201915b5050505050905090565b600063150b7a0260e01b9050949350505050565b600080610c8b868686866117d7565b90506000610c9882610f0d565b905060046007811115610cae57610cad6138a6565b5b816007811115610cc157610cc06138a6565b5b1480610cf1575060056007811115610cdc57610cdb6138a6565b5b816007811115610cef57610cee6138a6565b5b145b610d30576040517f08c379a0000000000000000000000000000000000000000000000000000000008152600401610d27906141ae565b60405180910390fd5b600180600084815260200190815260200160002060020160006101000a81548160ff0219169083151502179055507f712ae1383f79ac853f8d882153778e0260ef8f03b504e2866e0593e04d2b291f82604051610d8d9190612f8e565b60405180910390a1610da28288888888611c83565b610daf8288888888611d66565b610dbc8288888888611e75565b8192505050949350505050565b6000610e26600160008481526020019081526020016000206000016040518060200160405290816000820160009054906101000a900467ffffffffffffffff1667ffffffffffffffff1667ffffffffffffffff1681525050611ed0565b67ffffffffffffffff169050919050565b7fb3b3f3b703cd84ce352197dcff232b1b5d3cfb2025ce47cf04742d0651f1af8881565b6000600860009054906101000a900467ffffffffffffffff16905090565b6000600454905090565b600080610ee4610edc7f150214d74d59b7d1e90c73fc22ef3d991dd0a76b046543d4d80ab92d2a50328f8989604051602001610ec1939291906141ce565b60405160208183030381529060405280519060200120611c24565b868686611c3e565b9050610f0187828860405180602001604052806000815250611ede565b91505095945050505050565b6000806001600084815260200190815260200160002090508060020160009054906101000a900460ff1615610f4657600791505061101c565b8060020160019054906101000a900460ff1615610f6757600291505061101c565b6000610f7284610dc9565b905060008103610fb7576040517f08c379a0000000000000000000000000000000000000000000000000000000008152600401610fae90614251565b60405180910390fd5b438110610fc95760009250505061101c565b6000610fd48561163c565b9050438110610fe9576001935050505061101c565b610ff285611efe565b8015611003575061100285611f45565b5b15611014576004935050505061101c565b600393505050505b919050565b60006007600084815260200190815260200160002060030160008373ffffffffffffffffffffffffffffffffffffffff1673ffffffffffffffffffffffffffffffffffffffff16815260200190815260200160002060009054906101000a900460ff16905092915050565b600080600080600760008681526020019081526020016000209050806000015481600101548260020154935093509350509193909250565b60606040518060400160405280600181526020017f3100000000000000000000000000000000000000000000000000000000000000815250905090565b60008061110c611f70565b905061112984828560405180602001604052806000815250611ede565b91505092915050565b60008061113d611f70565b905061119087828888888080601f016020809104026020016040519081016040528093929190818152602001838380828437600081840152601f19601f8201169050808301925050505050505087611c69565b91505095945050505050565b6111a461097a565b73ffffffffffffffffffffffffffffffffffffffff166111c2611f70565b73ffffffffffffffffffffffffffffffffffffffff1614611218576040517f08c379a000000000000000000000000000000000000000000000000000000000815260040161120f906142bd565b60405180910390fd5b3073ffffffffffffffffffffffffffffffffffffffff1661123761097a565b73ffffffffffffffffffffffffffffffffffffffff161461128757600061125c611f78565b60405161126a929190614061565b604051809103902090505b806112806002611f85565b0361127557505b61129081612061565b50565b60008061129e611f70565b90506112f086828787878080601f016020809104026020016040519081016040528093929190818152602001838380828437600081840152601f19601f82011690508083019250505050505050611ede565b915050949350505050565b6000611305611618565b611322611310611f70565b60014361131d919061430c565b611a62565b1015611363576040517f08c379a000000000000000000000000000000000000000000000000000000000815260040161135a906143b2565b60405180910390fd5b600061137886868686805190602001206117d7565b905084518651146113be576040517f08c379a00000000000000000000000000000000000000000000000000000000081526004016113b590614444565b60405180910390fd5b8351865114611402576040517f08c379a00000000000000000000000000000000000000000000000000000000081526004016113f990614444565b60405180910390fd5b6000865111611446576040517f08c379a000000000000000000000000000000000000000000000000000000000815260040161143d906144b0565b60405180910390fd5b60006001600083815260200190815260200160002090506114a6816000016040518060200160405290816000820160009054906101000a900467ffffffffffffffff1667ffffffffffffffff1667ffffffffffffffff16815250506120a6565b6114e5576040517f08c379a00000000000000000000000000000000000000000000000000000000081526004016114dc90614542565b60405180910390fd5b60006114f76114f2610e79565b6120c0565b611500436120c0565b61150a9190614562565b9050600061151e611519610ae7565b6120c0565b826115299190614562565b9050611541828460000161211790919063ffffffff16565b611557818460010161211790919063ffffffff16565b7f7d84a6263ae0d98d3329bd7b46bb4e8d6f98cd35a7adb45c274c8b7fd5ebd5e084611581611f70565b8b8b8d5167ffffffffffffffff81111561159e5761159d613089565b5b6040519080825280602002602001820160405280156115d157816020015b60608152602001906001900390816115bc5790505b508c88888e6040516115eb9998979695949392919061497d565b60405180910390a183945050505050949350505050565b600061160f848484612146565b90509392505050565b60006116226121ed565b905090565b600063bc197c8160e01b905095945050505050565b6000611647826121f7565b9050919050565b61165661097a565b73ffffffffffffffffffffffffffffffffffffffff16611674611f70565b73ffffffffffffffffffffffffffffffffffffffff16146116ca576040517f08c379a00000000000000000000000000000000000000000000000000000000081526004016116c1906142bd565b60405180910390fd5b3073ffffffffffffffffffffffffffffffffffffffff166116e961097a565b73ffffffffffffffffffffffffffffffffffffffff161461173957600061170e611f78565b60405161171c929190614061565b604051809103902090505b806117326002611f85565b0361172757505b6000808573ffffffffffffffffffffffffffffffffffffffff16858585604051611764929190614061565b60006040518083038185875af1925050503d80600081146117a1576040519150601f19603f3d011682016040523d82523d6000602084013e6117a6565b606091505b50915091506117ce82826040518060600160405280602881526020016152ba60289139612273565b50505050505050565b6000848484846040516020016117f09493929190614a2d565b6040516020818303038152906040528051906020012060001c9050949350505050565b61181b61097a565b73ffffffffffffffffffffffffffffffffffffffff16611839611f70565b73ffffffffffffffffffffffffffffffffffffffff161461188f576040517f08c379a0000000000000000000000000000000000000000000000000000000008152600401611886906142bd565b60405180910390fd5b3073ffffffffffffffffffffffffffffffffffffffff166118ae61097a565b73ffffffffffffffffffffffffffffffffffffffff16146118fe5760006118d3611f78565b6040516118e1929190614061565b604051809103902090505b806118f76002611f85565b036118ec57505b61190781612295565b50565b60606040518060400160405280602081526020017f737570706f72743d627261766f2671756f72756d3d666f722c6162737461696e815250905090565b7f150214d74d59b7d1e90c73fc22ef3d991dd0a76b046543d4d80ab92d2a50328f81565b61197361097a565b73ffffffffffffffffffffffffffffffffffffffff16611991611f70565b73ffffffffffffffffffffffffffffffffffffffff16146119e7576040517f08c379a00000000000000000000000000000000000000000000000000000000081526004016119de906142bd565b60405180910390fd5b3073ffffffffffffffffffffffffffffffffffffffff16611a0661097a565b73ffffffffffffffffffffffffffffffffffffffff1614611a56576000611a2b611f78565b604051611a39929190614061565b604051809103902090505b80611a4f6002611f85565b03611a4457505b611a5f81612310565b50565b6000611a768383611a71612398565b612146565b905092915050565b611a8661097a565b73ffffffffffffffffffffffffffffffffffffffff16611aa4611f70565b73ffffffffffffffffffffffffffffffffffffffff1614611afa576040517f08c379a0000000000000000000000000000000000000000000000000000000008152600401611af1906142bd565b60405180910390fd5b3073ffffffffffffffffffffffffffffffffffffffff16611b1961097a565b73ffffffffffffffffffffffffffffffffffffffff1614611b69576000611b3e611f78565b604051611b4c929190614061565b604051809103902090505b80611b626002611f85565b03611b5757505b611b72816123af565b50565b600063f23a6e6160e01b905095945050505050565b6000600a549050919050565b7f000000000000000000000000000000000000000000000000000000000000000081565b60007f01ffc9a7000000000000000000000000000000000000000000000000000000007bffffffffffffffffffffffffffffffffffffffffffffffffffffffff1916827bffffffffffffffffffffffffffffffffffffffffffffffffffffffff1916149050919050565b6000611c37611c316123f4565b8361250e565b9050919050565b6000806000611c4f87878787612541565b91509150611c5c81612623565b8192505050949350505050565b6000611c788686868686612789565b905095945050505050565b3073ffffffffffffffffffffffffffffffffffffffff16611ca261097a565b73ffffffffffffffffffffffffffffffffffffffff1614611d5f5760005b8451811015611d5d573073ffffffffffffffffffffffffffffffffffffffff16858281518110611cf357611cf2614a87565b5b602002602001015173ffffffffffffffffffffffffffffffffffffffff1603611d4c57611d4b838281518110611d2c57611d2b614a87565b5b60200260200101518051906020012060026128a390919063ffffffff16565b5b80611d5690614ab6565b9050611cc0565b505b5050505050565b60006040518060600160405280602781526020016152e260279139905060005b8551811015611e6c57600080878381518110611da557611da4614a87565b5b602002602001015173ffffffffffffffffffffffffffffffffffffffff16878481518110611dd657611dd5614a87565b5b6020026020010151878581518110611df157611df0614a87565b5b6020026020010151604051611e069190614b2f565b60006040518083038185875af1925050503d8060008114611e43576040519150601f19603f3d011682016040523d82523d6000602084013e611e48565b606091505b5091509150611e58828286612273565b50505080611e6590614ab6565b9050611d86565b50505050505050565b3073ffffffffffffffffffffffffffffffffffffffff16611e9461097a565b73ffffffffffffffffffffffffffffffffffffffff1614611ec957611eb9600261291f565b611ec857611ec76002612954565b5b5b5050505050565b600081600001519050919050565b6000611ef485858585611eef612398565b611c69565b9050949350505050565b60008060076000848152602001908152602001600020905080600201548160010154611f2a9190614b46565b611f3b611f3685610dc9565b611b8a565b1115915050919050565b6000806007600084815260200190815260200160002090508060000154816001015411915050919050565b600033905090565b3660008036915091509091565b6000611f908261291f565b15611fc7576040517f3db2a12a00000000000000000000000000000000000000000000000000000000815260040160405180910390fd5b60008260000160009054906101000a9004600f0b905082600101600082600f0b600f0b815260200190815260200160002054915082600101600082600f0b600f0b815260200190815260200160002060009055600181018360000160006101000a8154816fffffffffffffffffffffffffffffffff0219169083600f0b6fffffffffffffffffffffffffffffffff16021790555050919050565b7fc565b045403dc03c2eea82b81a0465edad9e2e7fc4d97e11421c209da93d7a9360045482604051612094929190614b7a565b60405180910390a18060048190555050565b600080826000015167ffffffffffffffff16149050919050565b600067ffffffffffffffff801682111561210f576040517f08c379a000000000000000000000000000000000000000000000000000000000815260040161210690614c15565b60405180910390fd5b819050919050565b808260000160006101000a81548167ffffffffffffffff021916908367ffffffffffffffff1602179055505050565b60007f000000000000000000000000000000000000000000000000000000000000000073ffffffffffffffffffffffffffffffffffffffff16633a46b1a885856040518363ffffffff1660e01b81526004016121a3929190614c35565b602060405180830381865afa1580156121c0573d6000803e3d6000fd5b505050506040513d601f19601f820116820180604052508101906121e49190614c73565b90509392505050565b6000600654905090565b600061226c612205836129d5565b61225d600960008681526020019081526020016000206040518060200160405290816000820160009054906101000a900467ffffffffffffffff1667ffffffffffffffff1667ffffffffffffffff1681525050611ed0565b67ffffffffffffffff16612a43565b9050919050565b606083156122835782905061228e565b61228d8383612a5c565b5b9392505050565b7f7ca4ac117ed3cdce75c1161d8207c440389b1a15d69d096831664657c07dafc2600860009054906101000a900467ffffffffffffffff16826040516122dc929190614ca0565b60405180910390a180600860006101000a81548167ffffffffffffffff021916908367ffffffffffffffff16021790555050565b60008111612353576040517f08c379a000000000000000000000000000000000000000000000000000000000815260040161234a90614d3b565b60405180910390fd5b7f7e3f7f0708a84de9203036abaa450dccc85ad5ff52f78c170f3edb55cf5e882860055482604051612386929190614b7a565b60405180910390a18060058190555050565b606060405180602001604052806000815250905090565b7fccb45da8d5717e6c4544694297c4ba5cf151d455c9bb0ed4fc7a38411bc05461600654826040516123e2929190614b7a565b60405180910390a18060068190555050565b60007f000000000000000000000000000000000000000000000000000000000000000073ffffffffffffffffffffffffffffffffffffffff163073ffffffffffffffffffffffffffffffffffffffff1614801561247057507f000000000000000000000000000000000000000000000000000000000000000046145b1561249d577f0000000000000000000000000000000000000000000000000000000000000000905061250b565b6125087f00000000000000000000000000000000000000000000000000000000000000007f00000000000000000000000000000000000000000000000000000000000000007f0000000000000000000000000000000000000000000000000000000000000000612aac565b90505b90565b60008282604051602001612523929190614dd3565b60405160208183030381529060405280519060200120905092915050565b6000807f7fffffffffffffffffffffffffffffff5d576e7357a4501ddfe92f46681b20a08360001c111561257c57600060039150915061261a565b6000600187878787604051600081526020016040526040516125a19493929190614e0a565b6020604051602081039080840390855afa1580156125c3573d6000803e3d6000fd5b505050602060405103519050600073ffffffffffffffffffffffffffffffffffffffff168173ffffffffffffffffffffffffffffffffffffffff16036126115760006001925092505061261a565b80600092509250505b94509492505050565b60006004811115612637576126366138a6565b5b81600481111561264a576126496138a6565b5b03156127865760016004811115612664576126636138a6565b5b816004811115612677576126766138a6565b5b036126b7576040517f08c379a00000000000000000000000000000000000000000000000000000000081526004016126ae90614e9b565b60405180910390fd5b600260048111156126cb576126ca6138a6565b5b8160048111156126de576126dd6138a6565b5b0361271e576040517f08c379a000000000000000000000000000000000000000000000000000000000815260040161271590614f07565b60405180910390fd5b60036004811115612732576127316138a6565b5b816004811115612745576127446138a6565b5b03612785576040517f08c379a000000000000000000000000000000000000000000000000000000000815260040161277c90614f99565b60405180910390fd5b5b50565b6000806127998787878787612ae6565b905060006009600089815260200190815260200160002090506127f8816040518060200160405290816000820160009054906101000a900467ffffffffffffffff1667ffffffffffffffff1667ffffffffffffffff16815250506120a6565b8015612809575061280888611efe565b5b15612895576000612818610e5b565b612821436120c0565b61282b9190614562565b90506128368961163c565b8167ffffffffffffffff16111561288057887f541f725fb9f7c98a30cc9c0ff32fbb14358cd7159c847a3aa20a2bdc442ba511826040516128779190613810565b60405180910390a25b612893818361211790919063ffffffff16565b505b819250505095945050505050565b60008260000160109054906101000a9004600f0b90508183600101600083600f0b600f0b815260200190815260200160002081905550600181018360000160106101000a8154816fffffffffffffffffffffffffffffffff0219169083600f0b6fffffffffffffffffffffffffffffffff160217905550505050565b60008160000160009054906101000a9004600f0b600f0b8260000160109054906101000a9004600f0b600f0b13159050919050565b60008160000160006101000a8154816fffffffffffffffffffffffffffffffff0219169083600f0b6fffffffffffffffffffffffffffffffff16021790555060008160000160106101000a8154816fffffffffffffffffffffffffffffffff0219169083600f0b6fffffffffffffffffffffffffffffffff16021790555050565b6000612a32600160008481526020019081526020016000206001016040518060200160405290816000820160009054906101000a900467ffffffffffffffff1667ffffffffffffffff1667ffffffffffffffff1681525050611ed0565b67ffffffffffffffff169050919050565b6000818311612a525781612a54565b825b905092915050565b600082511115612a6f5781518083602001fd5b806040517f08c379a0000000000000000000000000000000000000000000000000000000008152600401612aa39190613347565b60405180910390fd5b60008383834630604051602001612ac7959493929190614fb9565b6040516020818303038152906040528051906020012090509392505050565b60008060016000888152602001908152602001600020905060016007811115612b1257612b116138a6565b5b612b1b88610f0d565b6007811115612b2d57612b2c6138a6565b5b14612b6d576040517f08c379a0000000000000000000000000000000000000000000000000000000008152600401612b649061507e565b60405180910390fd5b6000612bcc87612bbc846000016040518060200160405290816000820160009054906101000a900467ffffffffffffffff1667ffffffffffffffff1667ffffffffffffffff1681525050611ed0565b67ffffffffffffffff1686612146565b9050612bdb8888888488612ca2565b6000845103612c3d578673ffffffffffffffffffffffffffffffffffffffff167fb8e138887d0aa13bab447e82de9d5c1777041ecd21ca36ba824ff1e6c07ddda489888489604051612c30949392919061509e565b60405180910390a2612c94565b8673ffffffffffffffffffffffffffffffffffffffff167fe2babfbac5889a709b63bb7f598b324e08bc5a4fb9ec647fb3cbc9ec07eb87128988848989604051612c8b959493929190615134565b60405180910390a25b809250505095945050505050565b60006007600087815260200190815260200160002090508060030160008673ffffffffffffffffffffffffffffffffffffffff1673ffffffffffffffffffffffffffffffffffffffff16815260200190815260200160002060009054906101000a900460ff1615612d48576040517f08c379a0000000000000000000000000000000000000000000000000000000008152600401612d3f90615207565b60405180910390fd5b60018160030160008773ffffffffffffffffffffffffffffffffffffffff1673ffffffffffffffffffffffffffffffffffffffff16815260200190815260200160002060006101000a81548160ff02191690831515021790555060006002811115612db657612db56138a6565b5b60ff168460ff1603612de25782816000016000828254612dd69190614b46565b92505081905550612e9e565b60016002811115612df657612df56138a6565b5b60ff168460ff1603612e225782816001016000828254612e169190614b46565b92505081905550612e9d565b600280811115612e3557612e346138a6565b5b60ff168460ff1603612e615782816002016000828254612e559190614b46565b92505081905550612e9c565b6040517f08c379a0000000000000000000000000000000000000000000000000000000008152600401612e9390615299565b60405180910390fd5b5b5b505050505050565b6000604051905090565b600080fd5b600080fd5b60007fffffffff0000000000000000000000000000000000000000000000000000000082169050919050565b612eef81612eba565b8114612efa57600080fd5b50565b600081359050612f0c81612ee6565b92915050565b600060208284031215612f2857612f27612eb0565b5b6000612f3684828501612efd565b91505092915050565b60008115159050919050565b612f5481612f3f565b82525050565b6000602082019050612f6f6000830184612f4b565b92915050565b6000819050919050565b612f8881612f75565b82525050565b6000602082019050612fa36000830184612f7f565b92915050565b612fb281612f75565b8114612fbd57600080fd5b50565b600081359050612fcf81612fa9565b92915050565b600060ff82169050919050565b612feb81612fd5565b8114612ff657600080fd5b50565b60008135905061300881612fe2565b92915050565b600080fd5b600080fd5b600080fd5b60008083601f8401126130335761303261300e565b5b8235905067ffffffffffffffff8111156130505761304f613013565b5b60208301915083600182028301111561306c5761306b613018565b5b9250929050565b600080fd5b6000601f19601f8301169050919050565b7f4e487b7100000000000000000000000000000000000000000000000000000000600052604160045260246000fd5b6130c182613078565b810181811067ffffffffffffffff821117156130e0576130df613089565b5b80604052505050565b60006130f3612ea6565b90506130ff82826130b8565b919050565b600067ffffffffffffffff82111561311f5761311e613089565b5b61312882613078565b9050602081019050919050565b82818337600083830152505050565b600061315761315284613104565b6130e9565b90508281526020810184848401111561317357613172613073565b5b61317e848285613135565b509392505050565b600082601f83011261319b5761319a61300e565b5b81356131ab848260208601613144565b91505092915050565b6000819050919050565b6131c7816131b4565b81146131d257600080fd5b50565b6000813590506131e4816131be565b92915050565b60008060008060008060008060e0898b03121561320a57613209612eb0565b5b60006132188b828c01612fc0565b98505060206132298b828c01612ff9565b975050604089013567ffffffffffffffff81111561324a57613249612eb5565b5b6132568b828c0161301d565b9650965050606089013567ffffffffffffffff81111561327957613278612eb5565b5b6132858b828c01613186565b94505060806132968b828c01612ff9565b93505060a06132a78b828c016131d5565b92505060c06132b88b828c016131d5565b9150509295985092959890939650565b600081519050919050565b600082825260208201905092915050565b60005b838110156133025780820151818401526020810190506132e7565b60008484015250505050565b6000613319826132c8565b61332381856132d3565b93506133338185602086016132e4565b61333c81613078565b840191505092915050565b60006020820190508181036000830152613361818461330e565b905092915050565b600073ffffffffffffffffffffffffffffffffffffffff82169050919050565b600061339482613369565b9050919050565b6133a481613389565b81146133af57600080fd5b50565b6000813590506133c18161339b565b92915050565b600080600080608085870312156133e1576133e0612eb0565b5b60006133ef878288016133b2565b9450506020613400878288016133b2565b935050604061341187828801612fc0565b925050606085013567ffffffffffffffff81111561343257613431612eb5565b5b61343e87828801613186565b91505092959194509250565b61345381612eba565b82525050565b600060208201905061346e600083018461344a565b92915050565b600067ffffffffffffffff82111561348f5761348e613089565b5b602082029050602081019050919050565b60006134b36134ae84613474565b6130e9565b905080838252602082019050602084028301858111156134d6576134d5613018565b5b835b818110156134ff57806134eb88826133b2565b8452602084019350506020810190506134d8565b5050509392505050565b600082601f83011261351e5761351d61300e565b5b813561352e8482602086016134a0565b91505092915050565b600067ffffffffffffffff82111561355257613551613089565b5b602082029050602081019050919050565b600061357661357184613537565b6130e9565b9050808382526020820190506020840283018581111561359957613598613018565b5b835b818110156135c257806135ae8882612fc0565b84526020840193505060208101905061359b565b5050509392505050565b600082601f8301126135e1576135e061300e565b5b81356135f1848260208601613563565b91505092915050565b600067ffffffffffffffff82111561361557613614613089565b5b602082029050602081019050919050565b6000613639613634846135fa565b6130e9565b9050808382526020820190506020840283018581111561365c5761365b613018565b5b835b818110156136a357803567ffffffffffffffff8111156136815761368061300e565b5b80860161368e8982613186565b8552602085019450505060208101905061365e565b5050509392505050565b600082601f8301126136c2576136c161300e565b5b81356136d2848260208601613626565b91505092915050565b600080600080608085870312156136f5576136f4612eb0565b5b600085013567ffffffffffffffff81111561371357613712612eb5565b5b61371f87828801613509565b945050602085013567ffffffffffffffff8111156137405761373f612eb5565b5b61374c878288016135cc565b935050604085013567ffffffffffffffff81111561376d5761376c612eb5565b5b613779878288016136ad565b925050606061378a878288016131d5565b91505092959194509250565b6000602082840312156137ac576137ab612eb0565b5b60006137ba84828501612fc0565b91505092915050565b6137cc816131b4565b82525050565b60006020820190506137e760008301846137c3565b92915050565b600067ffffffffffffffff82169050919050565b61380a816137ed565b82525050565b60006020820190506138256000830184613801565b92915050565b600080600080600060a0868803121561384757613846612eb0565b5b600061385588828901612fc0565b955050602061386688828901612ff9565b945050604061387788828901612ff9565b9350506060613888888289016131d5565b9250506080613899888289016131d5565b9150509295509295909350565b7f4e487b7100000000000000000000000000000000000000000000000000000000600052602160045260246000fd5b600881106138e6576138e56138a6565b5b50565b60008190506138f7826138d5565b919050565b6000613907826138e9565b9050919050565b613917816138fc565b82525050565b6000602082019050613932600083018461390e565b92915050565b6000806040838503121561394f5761394e612eb0565b5b600061395d85828601612fc0565b925050602061396e858286016133b2565b9150509250929050565b600060608201905061398d6000830186612f7f565b61399a6020830185612f7f565b6139a76040830184612f7f565b949350505050565b600080604083850312156139c6576139c5612eb0565b5b60006139d485828601612fc0565b92505060206139e585828601612ff9565b9150509250929050565b600080600080600060808688031215613a0b57613a0a612eb0565b5b6000613a1988828901612fc0565b9550506020613a2a88828901612ff9565b945050604086013567ffffffffffffffff811115613a4b57613a4a612eb5565b5b613a578882890161301d565b9350935050606086013567ffffffffffffffff811115613a7a57613a79612eb5565b5b613a8688828901613186565b9150509295509295909350565b60008060008060608587031215613aad57613aac612eb0565b5b6000613abb87828801612fc0565b9450506020613acc87828801612ff9565b935050604085013567ffffffffffffffff811115613aed57613aec612eb5565b5b613af98782880161301d565b925092505092959194509250565b600067ffffffffffffffff821115613b2257613b21613089565b5b613b2b82613078565b9050602081019050919050565b6000613b4b613b4684613b07565b6130e9565b905082815260208101848484011115613b6757613b66613073565b5b613b72848285613135565b509392505050565b600082601f830112613b8f57613b8e61300e565b5b8135613b9f848260208601613b38565b91505092915050565b60008060008060808587031215613bc257613bc1612eb0565b5b600085013567ffffffffffffffff811115613be057613bdf612eb5565b5b613bec87828801613509565b945050602085013567ffffffffffffffff811115613c0d57613c0c612eb5565b5b613c19878288016135cc565b935050604085013567ffffffffffffffff811115613c3a57613c39612eb5565b5b613c46878288016136ad565b925050606085013567ffffffffffffffff811115613c6757613c66612eb5565b5b613c7387828801613b7a565b91505092959194509250565b600080600060608486031215613c9857613c97612eb0565b5b6000613ca6868287016133b2565b9350506020613cb786828701612fc0565b925050604084013567ffffffffffffffff811115613cd857613cd7612eb5565b5b613ce486828701613186565b9150509250925092565b600080600080600060a08688031215613d0a57613d09612eb0565b5b6000613d18888289016133b2565b9550506020613d29888289016133b2565b945050604086013567ffffffffffffffff811115613d4a57613d49612eb5565b5b613d56888289016135cc565b935050606086013567ffffffffffffffff811115613d7757613d76612eb5565b5b613d83888289016135cc565b925050608086013567ffffffffffffffff811115613da457613da3612eb5565b5b613db088828901613186565b9150509295509295909350565b60008083601f840112613dd357613dd261300e565b5b8235905067ffffffffffffffff811115613df057613def613013565b5b602083019150836001820283011115613e0c57613e0b613018565b5b9250929050565b60008060008060608587031215613e2d57613e2c612eb0565b5b6000613e3b878288016133b2565b9450506020613e4c87828801612fc0565b935050604085013567ffffffffffffffff811115613e6d57613e6c612eb5565b5b613e7987828801613dbd565b925092505092959194509250565b613e90816137ed565b8114613e9b57600080fd5b50565b600081359050613ead81613e87565b92915050565b600060208284031215613ec957613ec8612eb0565b5b6000613ed784828501613e9e565b91505092915050565b60008060408385031215613ef757613ef6612eb0565b5b6000613f05858286016133b2565b9250506020613f1685828601612fc0565b9150509250929050565b600080600080600060a08688031215613f3c57613f3b612eb0565b5b6000613f4a888289016133b2565b9550506020613f5b888289016133b2565b9450506040613f6c88828901612fc0565b9350506060613f7d88828901612fc0565b925050608086013567ffffffffffffffff811115613f9e57613f9d612eb5565b5b613faa88828901613186565b9150509295509295909350565b6000819050919050565b6000613fdc613fd7613fd284613369565b613fb7565b613369565b9050919050565b6000613fee82613fc1565b9050919050565b600061400082613fe3565b9050919050565b61401081613ff5565b82525050565b600060208201905061402b6000830184614007565b92915050565b600081905092915050565b60006140488385614031565b9350614055838584613135565b82840190509392505050565b600061406e82848661403c565b91508190509392505050565b61408381612fd5565b82525050565b600060a08201905061409e60008301886137c3565b6140ab6020830187612f7f565b6140b8604083018661407a565b6140c560608301856137c3565b6140d260808301846137c3565b9695505050505050565b7f4e487b7100000000000000000000000000000000000000000000000000000000600052602260045260246000fd5b6000600282049050600182168061412357607f821691505b602082108103614136576141356140dc565b5b50919050565b7f476f7665726e6f723a2070726f706f73616c206e6f742073756363657373667560008201527f6c00000000000000000000000000000000000000000000000000000000000000602082015250565b60006141986021836132d3565b91506141a38261413c565b604082019050919050565b600060208201905081810360008301526141c78161418b565b9050919050565b60006060820190506141e360008301866137c3565b6141f06020830185612f7f565b6141fd604083018461407a565b949350505050565b7f476f7665726e6f723a20756e6b6e6f776e2070726f706f73616c206964000000600082015250565b600061423b601d836132d3565b915061424682614205565b602082019050919050565b6000602082019050818103600083015261426a8161422e565b9050919050565b7f476f7665726e6f723a206f6e6c79476f7665726e616e63650000000000000000600082015250565b60006142a76018836132d3565b91506142b282614271565b602082019050919050565b600060208201905081810360008301526142d68161429a565b9050919050565b7f4e487b7100000000000000000000000000000000000000000000000000000000600052601160045260246000fd5b600061431782612f75565b915061432283612f75565b925082820390508181111561433a576143396142dd565b5b92915050565b7f476f7665726e6f723a2070726f706f73657220766f7465732062656c6f77207060008201527f726f706f73616c207468726573686f6c64000000000000000000000000000000602082015250565b600061439c6031836132d3565b91506143a782614340565b604082019050919050565b600060208201905081810360008301526143cb8161438f565b9050919050565b7f476f7665726e6f723a20696e76616c69642070726f706f73616c206c656e677460008201527f6800000000000000000000000000000000000000000000000000000000000000602082015250565b600061442e6021836132d3565b9150614439826143d2565b604082019050919050565b6000602082019050818103600083015261445d81614421565b9050919050565b7f476f7665726e6f723a20656d7074792070726f706f73616c0000000000000000600082015250565b600061449a6018836132d3565b91506144a582614464565b602082019050919050565b600060208201905081810360008301526144c98161448d565b9050919050565b7f476f7665726e6f723a2070726f706f73616c20616c726561647920657869737460008201527f7300000000000000000000000000000000000000000000000000000000000000602082015250565b600061452c6021836132d3565b9150614537826144d0565b604082019050919050565b6000602082019050818103600083015261455b8161451f565b9050919050565b600061456d826137ed565b9150614578836137ed565b9250828201905067ffffffffffffffff811115614598576145976142dd565b5b92915050565b6145a781613389565b82525050565b600081519050919050565b600082825260208201905092915050565b6000819050602082019050919050565b6145e281613389565b82525050565b60006145f483836145d9565b60208301905092915050565b6000602082019050919050565b6000614618826145ad565b61462281856145b8565b935061462d836145c9565b8060005b8381101561465e57815161464588826145e8565b975061465083614600565b925050600181019050614631565b5085935050505092915050565b600081519050919050565b600082825260208201905092915050565b6000819050602082019050919050565b6146a081612f75565b82525050565b60006146b28383614697565b60208301905092915050565b6000602082019050919050565b60006146d68261466b565b6146e08185614676565b93506146eb83614687565b8060005b8381101561471c57815161470388826146a6565b975061470e836146be565b9250506001810190506146ef565b5085935050505092915050565b600081519050919050565b600082825260208201905092915050565b6000819050602082019050919050565b600082825260208201905092915050565b6000614771826132c8565b61477b8185614755565b935061478b8185602086016132e4565b61479481613078565b840191505092915050565b60006147ab8383614766565b905092915050565b6000602082019050919050565b60006147cb82614729565b6147d58185614734565b9350836020820285016147e785614745565b8060005b858110156148235784840389528151614804858261479f565b945061480f836147b3565b925060208a019950506001810190506147eb565b50829750879550505050505092915050565b600081519050919050565b600082825260208201905092915050565b6000819050602082019050919050565b600081519050919050565b600082825260208201905092915050565b600061488882614861565b614892818561486c565b93506148a28185602086016132e4565b6148ab81613078565b840191505092915050565b60006148c2838361487d565b905092915050565b6000602082019050919050565b60006148e282614835565b6148ec8185614840565b9350836020820285016148fe85614851565b8060005b8581101561493a578484038952815161491b85826148b6565b9450614926836148ca565b925060208a01995050600181019050614902565b50829750879550505050505092915050565b600061496761496261495d846137ed565b613fb7565b612f75565b9050919050565b6149778161494c565b82525050565b600061012082019050614993600083018c612f7f565b6149a0602083018b61459e565b81810360408301526149b2818a61460d565b905081810360608301526149c681896146cb565b905081810360808301526149da81886147c0565b905081810360a08301526149ee81876148d7565b90506149fd60c083018661496e565b614a0a60e083018561496e565b818103610100830152614a1d818461330e565b90509a9950505050505050505050565b60006080820190508181036000830152614a47818761460d565b90508181036020830152614a5b81866146cb565b90508181036040830152614a6f81856148d7565b9050614a7e60608301846137c3565b95945050505050565b7f4e487b7100000000000000000000000000000000000000000000000000000000600052603260045260246000fd5b6000614ac182612f75565b91507fffffffffffffffffffffffffffffffffffffffffffffffffffffffffffffffff8203614af357614af26142dd565b5b600182019050919050565b6000614b0982614861565b614b138185614031565b9350614b238185602086016132e4565b80840191505092915050565b6000614b3b8284614afe565b915081905092915050565b6000614b5182612f75565b9150614b5c83612f75565b9250828201905080821115614b7457614b736142dd565b5b92915050565b6000604082019050614b8f6000830185612f7f565b614b9c6020830184612f7f565b9392505050565b7f53616665436173743a2076616c756520646f65736e27742066697420696e203660008201527f3420626974730000000000000000000000000000000000000000000000000000602082015250565b6000614bff6026836132d3565b9150614c0a82614ba3565b604082019050919050565b60006020820190508181036000830152614c2e81614bf2565b9050919050565b6000604082019050614c4a600083018561459e565b614c576020830184612f7f565b9392505050565b600081519050614c6d81612fa9565b92915050565b600060208284031215614c8957614c88612eb0565b5b6000614c9784828501614c5e565b91505092915050565b6000604082019050614cb56000830185613801565b614cc26020830184613801565b9392505050565b7f476f7665726e6f7253657474696e67733a20766f74696e6720706572696f642060008201527f746f6f206c6f7700000000000000000000000000000000000000000000000000602082015250565b6000614d256027836132d3565b9150614d3082614cc9565b604082019050919050565b60006020820190508181036000830152614d5481614d18565b9050919050565b600081905092915050565b7f1901000000000000000000000000000000000000000000000000000000000000600082015250565b6000614d9c600283614d5b565b9150614da782614d66565b600282019050919050565b6000819050919050565b614dcd614dc8826131b4565b614db2565b82525050565b6000614dde82614d8f565b9150614dea8285614dbc565b602082019150614dfa8284614dbc565b6020820191508190509392505050565b6000608082019050614e1f60008301876137c3565b614e2c602083018661407a565b614e3960408301856137c3565b614e4660608301846137c3565b95945050505050565b7f45434453413a20696e76616c6964207369676e61747572650000000000000000600082015250565b6000614e856018836132d3565b9150614e9082614e4f565b602082019050919050565b60006020820190508181036000830152614eb481614e78565b9050919050565b7f45434453413a20696e76616c6964207369676e6174757265206c656e67746800600082015250565b6000614ef1601f836132d3565b9150614efc82614ebb565b602082019050919050565b60006020820190508181036000830152614f2081614ee4565b9050919050565b7f45434453413a20696e76616c6964207369676e6174757265202773272076616c60008201527f7565000000000000000000000000000000000000000000000000000000000000602082015250565b6000614f836022836132d3565b9150614f8e82614f27565b604082019050919050565b60006020820190508181036000830152614fb281614f76565b9050919050565b600060a082019050614fce60008301886137c3565b614fdb60208301876137c3565b614fe860408301866137c3565b614ff56060830185612f7f565b615002608083018461459e565b9695505050505050565b7f476f7665726e6f723a20766f7465206e6f742063757272656e746c792061637460008201527f6976650000000000000000000000000000000000000000000000000000000000602082015250565b60006150686023836132d3565b91506150738261500c565b604082019050919050565b600060208201905081810360008301526150978161505b565b9050919050565b60006080820190506150b36000830187612f7f565b6150c0602083018661407a565b6150cd6040830185612f7f565b81810360608301526150df818461330e565b905095945050505050565b600082825260208201905092915050565b600061510682614861565b61511081856150ea565b93506151208185602086016132e4565b61512981613078565b840191505092915050565b600060a0820190506151496000830188612f7f565b615156602083018761407a565b6151636040830186612f7f565b8181036060830152615175818561330e565b9050818103608083015261518981846150fb565b90509695505050505050565b7f476f7665726e6f72566f74696e6753696d706c653a20766f746520616c72656160008201527f6479206361737400000000000000000000000000000000000000000000000000602082015250565b60006151f16027836132d3565b91506151fc82615195565b604082019050919050565b60006020820190508181036000830152615220816151e4565b9050919050565b7f476f7665726e6f72566f74696e6753696d706c653a20696e76616c696420766160008201527f6c756520666f7220656e756d20566f7465547970650000000000000000000000602082015250565b60006152836035836132d3565b915061528e82615227565b604082019050919050565b600060208201905081810360008301526152b281615276565b905091905056fe476f7665726e6f723a2072656c617920726576657274656420776974686f7574206d657373616765476f7665726e6f723a2063616c6c20726576657274656420776974686f7574206d657373616765a264697066735822122012c29fcbffe8de6081ec600b91a885f90885fc0d41744f41aa9bcdd393ace9ec64736f6c63430008110033",
  "linkReferences": {},
  "deployedLinkReferences": {}
}