{
  "_format": "hh-sol-artifact-1",
  "contractName": "Base64Mock",
  "sourceName": "contracts/mocks/Base64Mock.sol",
  "abi": [
    {
      "inputs": [
        {
          "internalType": "bytes",
          "name": "value",
          "type": "bytes"
        }
      ],
      "name": "encode",
      "outputs": [
        {
          "internalType": "string",
          "name": "",
          "type": "string"
        }
      ],
      "stateMutability": "pure",
      "type": "function"
    }
  ],
  "bytecode": "0x608060405234801561001057600080fd5b5061059e806100206000396000f3fe608060405234801561001057600080fd5b506004361061002b5760003560e01c806312496a1b14610030575b600080fd5b61004a6004803603810190610045919061032f565b610060565b60405161005791906103f7565b60405180910390f35b606061006b82610072565b9050919050565b60606000825103610094576040518060200160405280600081525090506101d0565b600060405180606001604052806040815260200161052960409139905060006003600285516100c39190610452565b6100cd91906104b5565b60046100d991906104e6565b67ffffffffffffffff8111156100f2576100f1610204565b5b6040519080825280601f01601f1916602001820160405280156101245781602001600182028036833780820191505090505b509050600182016020820185865187015b80821015610190576003820191508151603f8160121c168501518453600184019350603f81600c1c168501518453600184019350603f8160061c168501518453600184019350603f8116850151845360018401935050610135565b50506003865106600181146101ac57600281146101bf576101c7565b603d6001830353603d60028303536101c7565b603d60018303535b50505080925050505b919050565b6000604051905090565b600080fd5b600080fd5b600080fd5b600080fd5b6000601f19601f8301169050919050565b7f4e487b7100000000000000000000000000000000000000000000000000000000600052604160045260246000fd5b61023c826101f3565b810181811067ffffffffffffffff8211171561025b5761025a610204565b5b80604052505050565b600061026e6101d5565b905061027a8282610233565b919050565b600067ffffffffffffffff82111561029a57610299610204565b5b6102a3826101f3565b9050602081019050919050565b82818337600083830152505050565b60006102d26102cd8461027f565b610264565b9050828152602081018484840111156102ee576102ed6101ee565b5b6102f98482856102b0565b509392505050565b600082601f830112610316576103156101e9565b5b81356103268482602086016102bf565b91505092915050565b600060208284031215610345576103446101df565b5b600082013567ffffffffffffffff811115610363576103626101e4565b5b61036f84828501610301565b91505092915050565b600081519050919050565b600082825260208201905092915050565b60005b838110156103b2578082015181840152602081019050610397565b60008484015250505050565b60006103c982610378565b6103d38185610383565b93506103e3818560208601610394565b6103ec816101f3565b840191505092915050565b6000602082019050818103600083015261041181846103be565b905092915050565b6000819050919050565b7f4e487b7100000000000000000000000000000000000000000000000000000000600052601160045260246000fd5b600061045d82610419565b915061046883610419565b92508282019050808211156104805761047f610423565b5b92915050565b7f4e487b7100000000000000000000000000000000000000000000000000000000600052601260045260246000fd5b60006104c082610419565b91506104cb83610419565b9250826104db576104da610486565b5b828204905092915050565b60006104f182610419565b91506104fc83610419565b925082820261050a81610419565b9150828204841483151761052157610520610423565b5b509291505056fe4142434445464748494a4b4c4d4e4f505152535455565758595a6162636465666768696a6b6c6d6e6f707172737475767778797a303132333435363738392b2fa2646970667358221220e0ce35566e8b6c508f6ae63b8705d2388643f381f7cfb5dcde1c289baac023a664736f6c63430008110033",
  "linkReferences": {},
  "deployedLinkReferences": {}
}