{
  "_format": "hh-sol-artifact-1",
  "contractName": "GovernorWithParamsMock",
  "sourceName": "contracts/mocks/GovernorWithParamsMock.sol",
  "abi": [
    {
      "inputs": [
        {
          "internalType": "string",
          "name": "name_",
          "type": "string"
        },
        {
          "internalType": "contract IVotes",
          "name": "token_",
          "type": "address"
        }
      ],
      "stateMutability": "nonpayable",
      "type": "constructor"
    },
    {
      "inputs": [],
      "name": "Empty",
      "type": "error"
    },
    {
      "anonymous": false,
      "inputs": [
        {
          "indexed": false,
          "internalType": "uint256",
          "name": "uintParam",
          "type": "uint256"
        },
        {
          "indexed": false,
          "internalType": "string",
          "name": "strParam",
          "type": "string"
        }
      ],
      "name": "CountParams",
      "type": "event"
    },
    {
      "anonymous": false,
      "inputs": [
        {
          "indexed": false,
          "internalType": "uint256",
          "name": "proposalId",
          "type": "uint256"
        }
      ],
      "name": "ProposalCanceled",
      "type": "event"
    },
    {
      "anonymous": false,
      "inputs": [
        {
          "indexed": false,
          "internalType": "uint256",
          "name": "proposalId",
          "type": "uint256"
        },
        {
          "indexed": false,
          "internalType": "address",
          "name": "proposer",
          "type": "address"
        },
        {
          "indexed": false,
          "internalType": "address[]",
          "name": "targets",
          "type": "address[]"
        },
        {
          "indexed": false,
          "internalType": "uint256[]",
          "name": "values",
          "type": "uint256[]"
        },
        {
          "indexed": false,
          "internalType": "string[]",
          "name": "signatures",
          "type": "string[]"
        },
        {
          "indexed": false,
          "internalType": "bytes[]",
          "name": "calldatas",
          "type": "bytes[]"
        },
        {
          "indexed": false,
          "internalType": "uint256",
          "name": "startBlock",
          "type": "uint256"
        },
        {
          "indexed": false,
          "internalType": "uint256",
          "name": "endBlock",
          "type": "uint256"
        },
        {
          "indexed": false,
          "internalType": "string",
          "name": "description",
          "type": "string"
        }
      ],
      "name": "ProposalCreated",
      "type": "event"
    },
    {
      "anonymous": false,
      "inputs": [
        {
          "indexed": false,
          "internalType": "uint256",
          "name": "proposalId",
          "type": "uint256"
        }
      ],
      "name": "ProposalExecuted",
      "type": "event"
    },
    {
      "anonymous": false,
      "inputs": [
        {
          "indexed": true,
          "internalType": "address",
          "name": "voter",
          "type": "address"
        },
        {
          "indexed": false,
          "internalType": "uint256",
          "name": "proposalId",
          "type": "uint256"
        },
        {
          "indexed": false,
          "internalType": "uint8",
          "name": "support",
          "type": "uint8"
        },
        {
          "indexed": false,
          "internalType": "uint256",
          "name": "weight",
          "type": "uint256"
        },
        {
          "indexed": false,
          "internalType": "string",
          "name": "reason",
          "type": "string"
        }
      ],
      "name": "VoteCast",
      "type": "event"
    },
    {
      "anonymous": false,
      "inputs": [
        {
          "indexed": true,
          "internalType": "address",
          "name": "voter",
          "type": "address"
        },
        {
          "indexed": false,
          "internalType": "uint256",
          "name": "proposalId",
          "type": "uint256"
        },
        {
          "indexed": false,
          "internalType": "uint8",
          "name": "support",
          "type": "uint8"
        },
        {
          "indexed": false,
          "internalType": "uint256",
          "name": "weight",
          "type": "uint256"
        },
        {
          "indexed": false,
          "internalType": "string",
          "name": "reason",
          "type": "string"
        },
        {
          "indexed": false,
          "internalType": "bytes",
          "name": "params",
          "type": "bytes"
        }
      ],
      "name": "VoteCastWithParams",
      "type": "event"
    },
    {
      "inputs": [],
      "name": "BALLOT_TYPEHASH",
      "outputs": [
        {
          "internalType": "bytes32",
          "name": "",
          "type": "bytes32"
        }
      ],
      "stateMutability": "view",
      "type": "function"
    },
    {
      "inputs": [],
      "name": "COUNTING_MODE",
      "outputs": [
        {
          "internalType": "string",
          "name": "",
          "type": "string"
        }
      ],
      "stateMutability": "pure",
      "type": "function"
    },
    {
      "inputs": [],
      "name": "EXTENDED_BALLOT_TYPEHASH",
      "outputs": [
        {
          "internalType": "bytes32",
          "name": "",
          "type": "bytes32"
        }
      ],
      "stateMutability": "view",
      "type": "function"
    },
    {
      "inputs": [
        {
          "internalType": "address[]",
          "name": "targets",
          "type": "address[]"
        },
        {
          "internalType": "uint256[]",
          "name": "values",
          "type": "uint256[]"
        },
        {
          "internalType": "bytes[]",
          "name": "calldatas",
          "type": "bytes[]"
        },
        {
          "internalType": "bytes32",
          "name": "salt",
          "type": "bytes32"
        }
      ],
      "name": "cancel",
      "outputs": [
        {
          "internalType": "uint256",
          "name": "proposalId",
          "type": "uint256"
        }
      ],
      "stateMutability": "nonpayable",
      "type": "function"
    },
    {
      "inputs": [
        {
          "internalType": "uint256",
          "name": "proposalId",
          "type": "uint256"
        },
        {
          "internalType": "uint8",
          "name": "support",
          "type": "uint8"
        }
      ],
      "name": "castVote",
      "outputs": [
        {
          "internalType": "uint256",
          "name": "",
          "type": "uint256"
        }
      ],
      "stateMutability": "nonpayable",
      "type": "function"
    },
    {
      "inputs": [
        {
          "internalType": "uint256",
          "name": "proposalId",
          "type": "uint256"
        },
        {
          "internalType": "uint8",
          "name": "support",
          "type": "uint8"
        },
        {
          "internalType": "uint8",
          "name": "v",
          "type": "uint8"
        },
        {
          "internalType": "bytes32",
          "name": "r",
          "type": "bytes32"
        },
        {
          "internalType": "bytes32",
          "name": "s",
          "type": "bytes32"
        }
      ],
      "name": "castVoteBySig",
      "outputs": [
        {
          "internalType": "uint256",
          "name": "",
          "type": "uint256"
        }
      ],
      "stateMutability": "nonpayable",
      "type": "function"
    },
    {
      "inputs": [
        {
          "internalType": "uint256",
          "name": "proposalId",
          "type": "uint256"
        },
        {
          "internalType": "uint8",
          "name": "support",
          "type": "uint8"
        },
        {
          "internalType": "string",
          "name": "reason",
          "type": "string"
        }
      ],
      "name": "castVoteWithReason",
      "outputs": [
        {
          "internalType": "uint256",
          "name": "",
          "type": "uint256"
        }
      ],
      "stateMutability": "nonpayable",
      "type": "function"
    },
    {
      "inputs": [
        {
          "internalType": "uint256",
          "name": "proposalId",
          "type": "uint256"
        },
        {
          "internalType": "uint8",
          "name": "support",
          "type": "uint8"
        },
        {
          "internalType": "string",
          "name": "reason",
          "type": "string"
        },
        {
          "internalType": "bytes",
          "name": "params",
          "type": "bytes"
        }
      ],
      "name": "castVoteWithReasonAndParams",
      "outputs": [
        {
          "internalType": "uint256",
          "name": "",
          "type": "uint256"
        }
      ],
      "stateMutability": "nonpayable",
      "type": "function"
    },
    {
      "inputs": [
        {
          "internalType": "uint256",
          "name": "proposalId",
          "type": "uint256"
        },
        {
          "internalType": "uint8",
          "name": "support",
          "type": "uint8"
        },
        {
          "internalType": "string",
          "name": "reason",
          "type": "string"
        },
        {
          "internalType": "bytes",
          "name": "params",
          "type": "bytes"
        },
        {
          "internalType": "uint8",
          "name": "v",
          "type": "uint8"
        },
        {
          "internalType": "bytes32",
          "name": "r",
          "type": "bytes32"
        },
        {
          "internalType": "bytes32",
          "name": "s",
          "type": "bytes32"
        }
      ],
      "name": "castVoteWithReasonAndParamsBySig",
      "outputs": [
        {
          "internalType": "uint256",
          "name": "",
          "type": "uint256"
        }
      ],
      "stateMutability": "nonpayable",
      "type": "function"
    },
    {
      "inputs": [
        {
          "internalType": "address[]",
          "name": "targets",
          "type": "address[]"
        },
        {
          "internalType": "uint256[]",
          "name": "values",
          "type": "uint256[]"
        },
        {
          "internalType": "bytes[]",
          "name": "calldatas",
          "type": "bytes[]"
        },
        {
          "internalType": "bytes32",
          "name": "descriptionHash",
          "type": "bytes32"
        }
      ],
      "name": "execute",
      "outputs": [
        {
          "internalType": "uint256",
          "name": "",
          "type": "uint256"
        }
      ],
      "stateMutability": "payable",
      "type": "function"
    },
    {
      "inputs": [
        {
          "internalType": "address",
          "name": "account",
          "type": "address"
        },
        {
          "internalType": "uint256",
          "name": "blockNumber",
          "type": "uint256"
        }
      ],
      "name": "getVotes",
      "outputs": [
        {
          "internalType": "uint256",
          "name": "",
          "type": "uint256"
        }
      ],
      "stateMutability": "view",
      "type": "function"
    },
    {
      "inputs": [
        {
          "internalType": "address",
          "name": "account",
          "type": "address"
        },
        {
          "internalType": "uint256",
          "name": "blockNumber",
          "type": "uint256"
        },
        {
          "internalType": "bytes",
          "name": "params",
          "type": "bytes"
        }
      ],
      "name": "getVotesWithParams",
      "outputs": [
        {
          "internalType": "uint256",
          "name": "",
          "type": "uint256"
        }
      ],
      "stateMutability": "view",
      "type": "function"
    },
    {
      "inputs": [
        {
          "internalType": "uint256",
          "name": "proposalId",
          "type": "uint256"
        },
        {
          "internalType": "address",
          "name": "account",
          "type": "address"
        }
      ],
      "name": "hasVoted",
      "outputs": [
        {
          "internalType": "bool",
          "name": "",
          "type": "bool"
        }
      ],
      "stateMutability": "view",
      "type": "function"
    },
    {
      "inputs": [
        {
          "internalType": "address[]",
          "name": "targets",
          "type": "address[]"
        },
        {
          "internalType": "uint256[]",
          "name": "values",
          "type": "uint256[]"
        },
        {
          "internalType": "bytes[]",
          "name": "calldatas",
          "type": "bytes[]"
        },
        {
          "internalType": "bytes32",
          "name": "descriptionHash",
          "type": "bytes32"
        }
      ],
      "name": "hashProposal",
      "outputs": [
        {
          "internalType": "uint256",
          "name": "",
          "type": "uint256"
        }
      ],
      "stateMutability": "pure",
      "type": "function"
    },
    {
      "inputs": [],
      "name": "name",
      "outputs": [
        {
          "internalType": "string",
          "name": "",
          "type": "string"
        }
      ],
      "stateMutability": "view",
      "type": "function"
    },
    {
      "inputs": [
        {
          "internalType": "address",
          "name": "",
          "type": "address"
        },
        {
          "internalType": "address",
          "name": "",
          "type": "address"
        },
        {
          "internalType": "uint256[]",
          "name": "",
          "type": "uint256[]"
        },
        {
          "internalType": "uint256[]",
          "name": "",
          "type": "uint256[]"
        },
        {
          "internalType": "bytes",
          "name": "",
          "type": "bytes"
        }
      ],
      "name": "onERC1155BatchReceived",
      "outputs": [
        {
          "internalType": "bytes4",
          "name": "",
          "type": "bytes4"
        }
      ],
      "stateMutability": "nonpayable",
      "type": "function"
    },
    {
      "inputs": [
        {
          "internalType": "address",
          "name": "",
          "type": "address"
        },
        {
          "internalType": "address",
          "name": "",
          "type": "address"
        },
        {
          "internalType": "uint256",
          "name": "",
          "type": "uint256"
        },
        {
          "internalType": "uint256",
          "name": "",
          "type": "uint256"
        },
        {
          "internalType": "bytes",
          "name": "",
          "type": "bytes"
        }
      ],
      "name": "onERC1155Received",
      "outputs": [
        {
          "internalType": "bytes4",
          "name": "",
          "type": "bytes4"
        }
      ],
      "stateMutability": "nonpayable",
      "type": "function"
    },
    {
      "inputs": [
        {
          "internalType": "address",
          "name": "",
          "type": "address"
        },
        {
          "internalType": "address",
          "name": "",
          "type": "address"
        },
        {
          "internalType": "uint256",
          "name": "",
          "type": "uint256"
        },
        {
          "internalType": "bytes",
          "name": "",
          "type": "bytes"
        }
      ],
      "name": "onERC721Received",
      "outputs": [
        {
          "internalType": "bytes4",
          "name": "",
          "type": "bytes4"
        }
      ],
      "stateMutability": "nonpayable",
      "type": "function"
    },
    {
      "inputs": [
        {
          "internalType": "uint256",
          "name": "proposalId",
          "type": "uint256"
        }
      ],
      "name": "proposalDeadline",
      "outputs": [
        {
          "internalType": "uint256",
          "name": "",
          "type": "uint256"
        }
      ],
      "stateMutability": "view",
      "type": "function"
    },
    {
      "inputs": [
        {
          "internalType": "uint256",
          "name": "proposalId",
          "type": "uint256"
        }
      ],
      "name": "proposalSnapshot",
      "outputs": [
        {
          "internalType": "uint256",
          "name": "",
          "type": "uint256"
        }
      ],
      "stateMutability": "view",
      "type": "function"
    },
    {
      "inputs": [],
      "name": "proposalThreshold",
      "outputs": [
        {
          "internalType": "uint256",
          "name": "",
          "type": "uint256"
        }
      ],
      "stateMutability": "view",
      "type": "function"
    },
    {
      "inputs": [
        {
          "internalType": "uint256",
          "name": "proposalId",
          "type": "uint256"
        }
      ],
      "name": "proposalVotes",
      "outputs": [
        {
          "internalType": "uint256",
          "name": "againstVotes",
          "type": "uint256"
        },
        {
          "internalType": "uint256",
          "name": "forVotes",
          "type": "uint256"
        },
        {
          "internalType": "uint256",
          "name": "abstainVotes",
          "type": "uint256"
        }
      ],
      "stateMutability": "view",
      "type": "function"
    },
    {
      "inputs": [
        {
          "internalType": "address[]",
          "name": "targets",
          "type": "address[]"
        },
        {
          "internalType": "uint256[]",
          "name": "values",
          "type": "uint256[]"
        },
        {
          "internalType": "bytes[]",
          "name": "calldatas",
          "type": "bytes[]"
        },
        {
          "internalType": "string",
          "name": "description",
          "type": "string"
        }
      ],
      "name": "propose",
      "outputs": [
        {
          "internalType": "uint256",
          "name": "",
          "type": "uint256"
        }
      ],
      "stateMutability": "nonpayable",
      "type": "function"
    },
    {
      "inputs": [
        {
          "internalType": "uint256",
          "name": "",
          "type": "uint256"
        }
      ],
      "name": "quorum",
      "outputs": [
        {
          "internalType": "uint256",
          "name": "",
          "type": "uint256"
        }
      ],
      "stateMutability": "pure",
      "type": "function"
    },
    {
      "inputs": [
        {
          "internalType": "address",
          "name": "target",
          "type": "address"
        },
        {
          "internalType": "uint256",
          "name": "value",
          "type": "uint256"
        },
        {
          "internalType": "bytes",
          "name": "data",
          "type": "bytes"
        }
      ],
      "name": "relay",
      "outputs": [],
      "stateMutability": "payable",
      "type": "function"
    },
    {
      "inputs": [
        {
          "internalType": "uint256",
          "name": "proposalId",
          "type": "uint256"
        }
      ],
      "name": "state",
      "outputs": [
        {
          "internalType": "enum IGovernor.ProposalState",
          "name": "",
          "type": "uint8"
        }
      ],
      "stateMutability": "view",
      "type": "function"
    },
    {
      "inputs": [
        {
          "internalType": "bytes4",
          "name": "interfaceId",
          "type": "bytes4"
        }
      ],
      "name": "supportsInterface",
      "outputs": [
        {
          "internalType": "bool",
          "name": "",
          "type": "bool"
        }
      ],
      "stateMutability": "view",
      "type": "function"
    },
    {
      "inputs": [],
      "name": "token",
      "outputs": [
        {
          "internalType": "contract IVotes",
          "name": "",
          "type": "address"
        }
      ],
      "stateMutability": "view",
      "type": "function"
    },
    {
      "inputs": [],
      "name": "version",
      "outputs": [
        {
          "internalType": "string",
          "name": "",
          "type": "string"
        }
      ],
      "stateMutability": "view",
      "type": "function"
    },
    {
      "inputs": [],
      "name": "votingDelay",
      "outputs": [
        {
          "internalType": "uint256",
          "name": "",
          "type": "uint256"
        }
      ],
      "stateMutability": "pure",
      "type": "function"
    },
    {
      "inputs": [],
      "name": "votingPeriod",
      "outputs": [
        {
          "internalType": "uint256",
          "name": "",
          "type": "uint256"
        }
      ],
      "stateMutability": "pure",
      "type": "function"
    },
    {
      "stateMutability": "payable",
      "type": "receive"
    }
  ],
  "bytecode": "0x6101606040523480156200001257600080fd5b506040516200559c3803806200559c8339818101604052810190620000389190620003d3565b8082806200004b6200014e60201b60201c565b60008280519060200120905060008280519060200120905060007f8b73c3c69bb8fe3d512ecc4cf759cc79239f7b179b0ffacaa9a75d522b39400f90508260e081815250508161010081815250504660a08181525050620000b48184846200018b60201b60201c565b608081815250503073ffffffffffffffffffffffffffffffffffffffff1660c08173ffffffffffffffffffffffffffffffffffffffff1681525050806101208181525050505050505080600090816200010e919062000684565b50508073ffffffffffffffffffffffffffffffffffffffff166101408173ffffffffffffffffffffffffffffffffffffffff168152505050505062000805565b60606040518060400160405280600181526020017f3100000000000000000000000000000000000000000000000000000000000000815250905090565b60008383834630604051602001620001a8959493929190620007a8565b6040516020818303038152906040528051906020012090509392505050565b6000604051905090565b600080fd5b600080fd5b600080fd5b600080fd5b6000601f19601f8301169050919050565b7f4e487b7100000000000000000000000000000000000000000000000000000000600052604160045260246000fd5b6200023082620001e5565b810181811067ffffffffffffffff82111715620002525762000251620001f6565b5b80604052505050565b600062000267620001c7565b905062000275828262000225565b919050565b600067ffffffffffffffff821115620002985762000297620001f6565b5b620002a382620001e5565b9050602081019050919050565b60005b83811015620002d0578082015181840152602081019050620002b3565b60008484015250505050565b6000620002f3620002ed846200027a565b6200025b565b905082815260208101848484011115620003125762000311620001e0565b5b6200031f848285620002b0565b509392505050565b600082601f8301126200033f576200033e620001db565b5b815162000351848260208601620002dc565b91505092915050565b600073ffffffffffffffffffffffffffffffffffffffff82169050919050565b600062000387826200035a565b9050919050565b60006200039b826200037a565b9050919050565b620003ad816200038e565b8114620003b957600080fd5b50565b600081519050620003cd81620003a2565b92915050565b60008060408385031215620003ed57620003ec620001d1565b5b600083015167ffffffffffffffff8111156200040e576200040d620001d6565b5b6200041c8582860162000327565b92505060206200042f85828601620003bc565b9150509250929050565b600081519050919050565b7f4e487b7100000000000000000000000000000000000000000000000000000000600052602260045260246000fd5b600060028204905060018216806200048c57607f821691505b602082108103620004a257620004a162000444565b5b50919050565b60008190508160005260206000209050919050565b60006020601f8301049050919050565b600082821b905092915050565b6000600883026200050c7fffffffffffffffffffffffffffffffffffffffffffffffffffffffffffffffff82620004cd565b620005188683620004cd565b95508019841693508086168417925050509392505050565b6000819050919050565b6000819050919050565b6000620005656200055f620005598462000530565b6200053a565b62000530565b9050919050565b6000819050919050565b620005818362000544565b6200059962000590826200056c565b848454620004da565b825550505050565b600090565b620005b0620005a1565b620005bd81848462000576565b505050565b5b81811015620005e557620005d9600082620005a6565b600181019050620005c3565b5050565b601f8211156200063457620005fe81620004a8565b6200060984620004bd565b8101602085101562000619578190505b620006316200062885620004bd565b830182620005c2565b50505b505050565b600082821c905092915050565b6000620006596000198460080262000639565b1980831691505092915050565b600062000674838362000646565b9150826002028217905092915050565b6200068f8262000439565b67ffffffffffffffff811115620006ab57620006aa620001f6565b5b620006b7825462000473565b620006c4828285620005e9565b600060209050601f831160018114620006fc5760008415620006e7578287015190505b620006f3858262000666565b86555062000763565b601f1984166200070c86620004a8565b60005b8281101562000736578489015182556001820191506020850194506020810190506200070f565b8683101562000756578489015162000752601f89168262000646565b8355505b6001600288020188555050505b505050505050565b6000819050919050565b62000780816200076b565b82525050565b620007918162000530565b82525050565b620007a2816200037a565b82525050565b600060a082019050620007bf600083018862000775565b620007ce602083018762000775565b620007dd604083018662000775565b620007ec606083018562000786565b620007fb608083018462000797565b9695505050505050565b60805160a05160c05160e051610100516101205161014051614d356200086760003960008181611743015261256b015260006120d90152600061211b015260006120fa0152600061202f01526000612085015260006120ae0152614d356000f3fe6080604052600436106101dc5760003560e01c80635678138811610102578063c28bc2fa11610095578063eb9019d411610064578063eb9019d4146107da578063f23a6e6114610817578063f8ce560a14610854578063fc0c546a1461089157610222565b8063c28bc2fa1461072b578063c59057e414610747578063dd4e2ba514610784578063deaaa7cc146107af57610222565b80639a802a6d116100d15780639a802a6d14610649578063b58131b014610686578063bc197c81146106b1578063c01f9e37146106ee57610222565b806356781388146105555780635f398a14146105925780637b3c71d3146105cf5780637d5e81e21461060c57610222565b80632fe3e2611161017a57806343859632116101495780634385963214610471578063452115d6146104ae578063544ffc9c146104eb57806354fd4d501461052a57610222565b80632fe3e261146103a15780633932abb1146103cc5780633bccf4fd146103f75780633e4f49e61461043457610222565b806306fdde03116101b657806306fdde03146102cc578063150b7a02146102f75780632656227d146103345780632d63f6931461036457610222565b806301ffc9a71461022757806302a251a314610264578063034201811461028f57610222565b36610222573073ffffffffffffffffffffffffffffffffffffffff166102006108bc565b73ffffffffffffffffffffffffffffffffffffffff161461022057600080fd5b005b600080fd5b34801561023357600080fd5b5061024e60048036038101906102499190612908565b6108c4565b60405161025b9190612950565b60405180910390f35b34801561027057600080fd5b50610279610a29565b6040516102869190612984565b60405180910390f35b34801561029b57600080fd5b506102b660048036038101906102b19190612be0565b610a32565b6040516102c39190612984565b60405180910390f35b3480156102d857600080fd5b506102e1610b17565b6040516102ee9190612d3d565b60405180910390f35b34801561030357600080fd5b5061031e60048036038101906103199190612dbd565b610ba9565b60405161032b9190612e4f565b60405180910390f35b61034e600480360381019061034991906130d1565b610bbd565b60405161035b9190612984565b60405180910390f35b34801561037057600080fd5b5061038b6004803603810190610386919061318c565b610d0a565b6040516103989190612984565b60405180910390f35b3480156103ad57600080fd5b506103b6610d78565b6040516103c391906131c8565b60405180910390f35b3480156103d857600080fd5b506103e1610d9c565b6040516103ee9190612984565b60405180910390f35b34801561040357600080fd5b5061041e600480360381019061041991906131e3565b610da5565b60405161042b9190612984565b60405180910390f35b34801561044057600080fd5b5061045b6004803603810190610456919061318c565b610e2f565b60405161046891906132d5565b60405180910390f35b34801561047d57600080fd5b50610498600480360381019061049391906132f0565b610f43565b6040516104a59190612950565b60405180910390f35b3480156104ba57600080fd5b506104d560048036038101906104d091906130d1565b610fae565b6040516104e29190612984565b60405180910390f35b3480156104f757600080fd5b50610512600480360381019061050d919061318c565b610fc6565b60405161052193929190613330565b60405180910390f35b34801561053657600080fd5b5061053f610ffe565b60405161054c9190612d3d565b60405180910390f35b34801561056157600080fd5b5061057c60048036038101906105779190613367565b61103b565b6040516105899190612984565b60405180910390f35b34801561059e57600080fd5b506105b960048036038101906105b491906133a7565b61106c565b6040516105c69190612984565b60405180910390f35b3480156105db57600080fd5b506105f660048036038101906105f1919061344b565b6110d6565b6040516106039190612984565b60405180910390f35b34801561061857600080fd5b50610633600480360381019061062e9190613560565b61113e565b6040516106409190612984565b60405180910390f35b34801561065557600080fd5b50610670600480360381019061066b9190613637565b611445565b60405161067d9190612984565b60405180910390f35b34801561069257600080fd5b5061069b61145b565b6040516106a89190612984565b60405180910390f35b3480156106bd57600080fd5b506106d860048036038101906106d391906136a6565b611460565b6040516106e59190612e4f565b60405180910390f35b3480156106fa57600080fd5b506107156004803603810190610710919061318c565b611475565b6040516107229190612984565b60405180910390f35b610745600480360381019061074091906137cb565b6114e3565b005b34801561075357600080fd5b5061076e600480360381019061076991906130d1565b61166c565b60405161077b9190612984565b60405180910390f35b34801561079057600080fd5b506107996116a8565b6040516107a69190612d3d565b60405180910390f35b3480156107bb57600080fd5b506107c46116e5565b6040516107d191906131c8565b60405180910390f35b3480156107e657600080fd5b5061080160048036038101906107fc919061383f565b611709565b60405161080e9190612984565b60405180910390f35b34801561082357600080fd5b5061083e6004803603810190610839919061387f565b611725565b60405161084b9190612e4f565b60405180910390f35b34801561086057600080fd5b5061087b6004803603810190610876919061318c565b61173a565b6040516108889190612984565b60405180910390f35b34801561089d57600080fd5b506108a6611741565b6040516108b39190613975565b60405180910390f35b600030905090565b6000639a802a6d60e01b630342018160e01b635f398a1460e01b7f79dd796f000000000000000000000000000000000000000000000000000000001818187bffffffffffffffffffffffffffffffffffffffffffffffffffffffff1916827bffffffffffffffffffffffffffffffffffffffffffffffffffffffff191614806109aa57507f79dd796f000000000000000000000000000000000000000000000000000000007bffffffffffffffffffffffffffffffffffffffffffffffffffffffff1916827bffffffffffffffffffffffffffffffffffffffffffffffffffffffff1916145b80610a1257507f4e2312e0000000000000000000000000000000000000000000000000000000007bffffffffffffffffffffffffffffffffffffffffffffffffffffffff1916827bffffffffffffffffffffffffffffffffffffffffffffffffffffffff1916145b80610a225750610a2182611765565b5b9050919050565b60006010905090565b600080610ab5610aad7fb3b3f3b703cd84ce352197dcff232b1b5d3cfb2025ce47cf04742d0651f1af888c8c8c8c604051610a6e9291906139c0565b60405180910390208b80519060200120604051602001610a929594939291906139e8565b604051602081830303815290604052805190602001206117cf565b8686866117e9565b9050610b088a828b8b8b8080601f016020809104026020016040519081016040528093929190818152602001838380828437600081840152601f19601f820116905080830192505050505050508a611814565b91505098975050505050505050565b606060008054610b2690613a6a565b80601f0160208091040260200160405190810160405280929190818152602001828054610b5290613a6a565b8015610b9f5780601f10610b7457610100808354040283529160200191610b9f565b820191906000526020600020905b815481529060010190602001808311610b8257829003601f168201915b5050505050905090565b600063150b7a0260e01b9050949350505050565b600080610bcc8686868661166c565b90506000610bd982610e2f565b905060046007811115610bef57610bee61325e565b5b816007811115610c0257610c0161325e565b5b1480610c32575060056007811115610c1d57610c1c61325e565b5b816007811115610c3057610c2f61325e565b5b145b610c71576040517f08c379a0000000000000000000000000000000000000000000000000000000008152600401610c6890613b0d565b60405180910390fd5b600180600084815260200190815260200160002060020160006101000a81548160ff0219169083151502179055507f712ae1383f79ac853f8d882153778e0260ef8f03b504e2866e0593e04d2b291f82604051610cce9190612984565b60405180910390a1610ce382888888886119d0565b610cf08288888888611ab3565b610cfd8288888888611bc2565b8192505050949350505050565b6000610d67600160008481526020019081526020016000206000016040518060200160405290816000820160009054906101000a900467ffffffffffffffff1667ffffffffffffffff1667ffffffffffffffff1681525050611c1d565b67ffffffffffffffff169050919050565b7fb3b3f3b703cd84ce352197dcff232b1b5d3cfb2025ce47cf04742d0651f1af8881565b60006004905090565b600080610e06610dfe7f150214d74d59b7d1e90c73fc22ef3d991dd0a76b046543d4d80ab92d2a50328f8989604051602001610de393929190613b2d565b604051602081830303815290604052805190602001206117cf565b8686866117e9565b9050610e2387828860405180602001604052806000815250611c2b565b91505095945050505050565b6000806001600084815260200190815260200160002090508060020160009054906101000a900460ff1615610e68576007915050610f3e565b8060020160019054906101000a900460ff1615610e89576002915050610f3e565b6000610e9484610d0a565b905060008103610ed9576040517f08c379a0000000000000000000000000000000000000000000000000000000008152600401610ed090613bb0565b60405180910390fd5b438110610eeb57600092505050610f3e565b6000610ef685611475565b9050438110610f0b5760019350505050610f3e565b610f1485611c4b565b8015610f255750610f2485611c92565b5b15610f365760049350505050610f3e565b600393505050505b919050565b60006004600084815260200190815260200160002060030160008373ffffffffffffffffffffffffffffffffffffffff1673ffffffffffffffffffffffffffffffffffffffff16815260200190815260200160002060009054906101000a900460ff16905092915050565b6000610fbc85858585611cbd565b9050949350505050565b600080600080600460008681526020019081526020016000209050806000015481600101548260020154935093509350509193909250565b60606040518060400160405280600181526020017f3100000000000000000000000000000000000000000000000000000000000000815250905090565b600080611046611e16565b905061106384828560405180602001604052806000815250611c2b565b91505092915050565b600080611077611e16565b90506110ca87828888888080601f016020809104026020016040519081016040528093929190818152602001838380828437600081840152601f19601f8201169050808301925050505050505087611814565b91505095945050505050565b6000806110e1611e16565b905061113386828787878080601f016020809104026020016040519081016040528093929190818152602001838380828437600081840152601f19601f82011690508083019250505050505050611c2b565b915050949350505050565b600061114861145b565b611165611153611e16565b6001436111609190613bff565b611709565b10156111a6576040517f08c379a000000000000000000000000000000000000000000000000000000000815260040161119d90613ca5565b60405180910390fd5b60006111bb868686868051906020012061166c565b90508451865114611201576040517f08c379a00000000000000000000000000000000000000000000000000000000081526004016111f890613d37565b60405180910390fd5b8351865114611245576040517f08c379a000000000000000000000000000000000000000000000000000000000815260040161123c90613d37565b60405180910390fd5b6000865111611289576040517f08c379a000000000000000000000000000000000000000000000000000000000815260040161128090613da3565b60405180910390fd5b60006001600083815260200190815260200160002090506112e9816000016040518060200160405290816000820160009054906101000a900467ffffffffffffffff1667ffffffffffffffff1667ffffffffffffffff1681525050611e1e565b611328576040517f08c379a000000000000000000000000000000000000000000000000000000000815260040161131f90613e35565b60405180910390fd5b600061133a611335610d9c565b611e38565b61134343611e38565b61134d9190613e69565b9050600061136161135c610a29565b611e38565b8261136c9190613e69565b90506113848284600001611e8f90919063ffffffff16565b61139a8184600101611e8f90919063ffffffff16565b7f7d84a6263ae0d98d3329bd7b46bb4e8d6f98cd35a7adb45c274c8b7fd5ebd5e0846113c4611e16565b8b8b8d5167ffffffffffffffff8111156113e1576113e0612a7f565b5b60405190808252806020026020018201604052801561141457816020015b60608152602001906001900390816113ff5790505b508c88888e60405161142e99989796959493929190614284565b60405180910390a183945050505050949350505050565b6000611452848484611ebe565b90509392505050565b600090565b600063bc197c8160e01b905095945050505050565b60006114d2600160008481526020019081526020016000206001016040518060200160405290816000820160009054906101000a900467ffffffffffffffff1667ffffffffffffffff1667ffffffffffffffff1681525050611c1d565b67ffffffffffffffff169050919050565b6114eb6108bc565b73ffffffffffffffffffffffffffffffffffffffff16611509611e16565b73ffffffffffffffffffffffffffffffffffffffff161461155f576040517f08c379a000000000000000000000000000000000000000000000000000000000815260040161155690614380565b60405180910390fd5b3073ffffffffffffffffffffffffffffffffffffffff1661157e6108bc565b73ffffffffffffffffffffffffffffffffffffffff16146115ce5760006115a3611f09565b6040516115b19291906139c0565b604051809103902090505b806115c76002611f16565b036115bc57505b6000808573ffffffffffffffffffffffffffffffffffffffff168585856040516115f99291906139c0565b60006040518083038185875af1925050503d8060008114611636576040519150601f19603f3d011682016040523d82523d6000602084013e61163b565b606091505b50915091506116638282604051806060016040528060288152602001614cb160289139611ff2565b50505050505050565b60008484848460405160200161168594939291906143a0565b6040516020818303038152906040528051906020012060001c9050949350505050565b60606040518060400160405280602081526020017f737570706f72743d627261766f2671756f72756d3d666f722c6162737461696e815250905090565b7f150214d74d59b7d1e90c73fc22ef3d991dd0a76b046543d4d80ab92d2a50328f81565b600061171d8383611718612014565b611ebe565b905092915050565b600063f23a6e6160e01b905095945050505050565b6000919050565b7f000000000000000000000000000000000000000000000000000000000000000081565b60007f01ffc9a7000000000000000000000000000000000000000000000000000000007bffffffffffffffffffffffffffffffffffffffffffffffffffffffff1916827bffffffffffffffffffffffffffffffffffffffffffffffffffffffff1916149050919050565b60006117e26117dc61202b565b83612145565b9050919050565b60008060006117fa87878787612178565b915091506118078161225a565b8192505050949350505050565b600080600160008881526020019081526020016000209050600160078111156118405761183f61325e565b5b61184988610e2f565b600781111561185b5761185a61325e565b5b1461189b576040517f08c379a00000000000000000000000000000000000000000000000000000000081526004016118929061446c565b60405180910390fd5b60006118fa876118ea846000016040518060200160405290816000820160009054906101000a900467ffffffffffffffff1667ffffffffffffffff1667ffffffffffffffff1681525050611c1d565b67ffffffffffffffff1686611ebe565b905061190988888884886123c0565b600084510361196b578673ffffffffffffffffffffffffffffffffffffffff167fb8e138887d0aa13bab447e82de9d5c1777041ecd21ca36ba824ff1e6c07ddda48988848960405161195e949392919061448c565b60405180910390a26119c2565b8673ffffffffffffffffffffffffffffffffffffffff167fe2babfbac5889a709b63bb7f598b324e08bc5a4fb9ec647fb3cbc9ec07eb871289888489896040516119b9959493929190614522565b60405180910390a25b809250505095945050505050565b3073ffffffffffffffffffffffffffffffffffffffff166119ef6108bc565b73ffffffffffffffffffffffffffffffffffffffff1614611aac5760005b8451811015611aaa573073ffffffffffffffffffffffffffffffffffffffff16858281518110611a4057611a3f614583565b5b602002602001015173ffffffffffffffffffffffffffffffffffffffff1603611a9957611a98838281518110611a7957611a78614583565b5b602002602001015180519060200120600261243590919063ffffffff16565b5b80611aa3906145b2565b9050611a0d565b505b5050505050565b6000604051806060016040528060278152602001614cd960279139905060005b8551811015611bb957600080878381518110611af257611af1614583565b5b602002602001015173ffffffffffffffffffffffffffffffffffffffff16878481518110611b2357611b22614583565b5b6020026020010151878581518110611b3e57611b3d614583565b5b6020026020010151604051611b53919061462b565b60006040518083038185875af1925050503d8060008114611b90576040519150601f19603f3d011682016040523d82523d6000602084013e611b95565b606091505b5091509150611ba5828286611ff2565b50505080611bb2906145b2565b9050611ad3565b50505050505050565b3073ffffffffffffffffffffffffffffffffffffffff16611be16108bc565b73ffffffffffffffffffffffffffffffffffffffff1614611c1657611c0660026124b1565b611c1557611c1460026124e6565b5b5b5050505050565b600081600001519050919050565b6000611c4185858585611c3c612014565b611814565b9050949350505050565b60008060046000848152602001908152602001600020905080600201548160010154611c779190614642565b611c88611c8385610d0a565b61173a565b1115915050919050565b6000806004600084815260200190815260200160002090508060000154816001015411915050919050565b600080611ccc8686868661166c565b90506000611cd982610e2f565b905060026007811115611cef57611cee61325e565b5b816007811115611d0257611d0161325e565b5b14158015611d35575060066007811115611d1f57611d1e61325e565b5b816007811115611d3257611d3161325e565b5b14155b8015611d655750600780811115611d4f57611d4e61325e565b5b816007811115611d6257611d6161325e565b5b14155b611da4576040517f08c379a0000000000000000000000000000000000000000000000000000000008152600401611d9b906146c2565b60405180910390fd5b600180600084815260200190815260200160002060020160016101000a81548160ff0219169083151502179055507f789cf55be980739dad1d0699b93b58e806b51c9d96619bfa8fe0a28abaa7b30c82604051611e019190612984565b60405180910390a18192505050949350505050565b600033905090565b600080826000015167ffffffffffffffff16149050919050565b600067ffffffffffffffff8016821115611e87576040517f08c379a0000000000000000000000000000000000000000000000000000000008152600401611e7e90614754565b60405180910390fd5b819050919050565b808260000160006101000a81548167ffffffffffffffff021916908367ffffffffffffffff1602179055505050565b60008060009050600083511115611ee95782806020019051810190611ee391906147f9565b50809150505b80611ef5868686612567565b611eff9190613bff565b9150509392505050565b3660008036915091509091565b6000611f21826124b1565b15611f58576040517f3db2a12a00000000000000000000000000000000000000000000000000000000815260040160405180910390fd5b60008260000160009054906101000a9004600f0b905082600101600082600f0b600f0b815260200190815260200160002054915082600101600082600f0b600f0b815260200190815260200160002060009055600181018360000160006101000a8154816fffffffffffffffffffffffffffffffff0219169083600f0b6fffffffffffffffffffffffffffffffff16021790555050919050565b606083156120025782905061200d565b61200c838361260e565b5b9392505050565b606060405180602001604052806000815250905090565b60007f000000000000000000000000000000000000000000000000000000000000000073ffffffffffffffffffffffffffffffffffffffff163073ffffffffffffffffffffffffffffffffffffffff161480156120a757507f000000000000000000000000000000000000000000000000000000000000000046145b156120d4577f00000000000000000000000000000000000000000000000000000000000000009050612142565b61213f7f00000000000000000000000000000000000000000000000000000000000000007f00000000000000000000000000000000000000000000000000000000000000007f000000000000000000000000000000000000000000000000000000000000000061265e565b90505b90565b6000828260405160200161215a9291906148cd565b60405160208183030381529060405280519060200120905092915050565b6000807f7fffffffffffffffffffffffffffffff5d576e7357a4501ddfe92f46681b20a08360001c11156121b3576000600391509150612251565b6000600187878787604051600081526020016040526040516121d89493929190614904565b6020604051602081039080840390855afa1580156121fa573d6000803e3d6000fd5b505050602060405103519050600073ffffffffffffffffffffffffffffffffffffffff168173ffffffffffffffffffffffffffffffffffffffff160361224857600060019250925050612251565b80600092509250505b94509492505050565b6000600481111561226e5761226d61325e565b5b8160048111156122815761228061325e565b5b03156123bd576001600481111561229b5761229a61325e565b5b8160048111156122ae576122ad61325e565b5b036122ee576040517f08c379a00000000000000000000000000000000000000000000000000000000081526004016122e590614995565b60405180910390fd5b600260048111156123025761230161325e565b5b8160048111156123155761231461325e565b5b03612355576040517f08c379a000000000000000000000000000000000000000000000000000000000815260040161234c90614a01565b60405180910390fd5b600360048111156123695761236861325e565b5b81600481111561237c5761237b61325e565b5b036123bc576040517f08c379a00000000000000000000000000000000000000000000000000000000081526004016123b390614a93565b60405180910390fd5b5b50565b60008151111561242157600080828060200190518101906123e191906147f9565b915091507f94b59a4daf412d4eaa215a1de4584cbae5ad56712ec7d4cec4f9ed4dce2cfa208282604051612416929190614ab3565b60405180910390a150505b61242e8585858585612698565b5050505050565b60008260000160109054906101000a9004600f0b90508183600101600083600f0b600f0b815260200190815260200160002081905550600181018360000160106101000a8154816fffffffffffffffffffffffffffffffff0219169083600f0b6fffffffffffffffffffffffffffffffff160217905550505050565b60008160000160009054906101000a9004600f0b600f0b8260000160109054906101000a9004600f0b600f0b13159050919050565b60008160000160006101000a8154816fffffffffffffffffffffffffffffffff0219169083600f0b6fffffffffffffffffffffffffffffffff16021790555060008160000160106101000a8154816fffffffffffffffffffffffffffffffff0219169083600f0b6fffffffffffffffffffffffffffffffff16021790555050565b60007f000000000000000000000000000000000000000000000000000000000000000073ffffffffffffffffffffffffffffffffffffffff16633a46b1a885856040518363ffffffff1660e01b81526004016125c4929190614ae3565b602060405180830381865afa1580156125e1573d6000803e3d6000fd5b505050506040513d601f19601f820116820180604052508101906126059190614b0c565b90509392505050565b6000825111156126215781518083602001fd5b806040517f08c379a00000000000000000000000000000000000000000000000000000000081526004016126559190612d3d565b60405180910390fd5b60008383834630604051602001612679959493929190614b39565b6040516020818303038152906040528051906020012090509392505050565b60006004600087815260200190815260200160002090508060030160008673ffffffffffffffffffffffffffffffffffffffff1673ffffffffffffffffffffffffffffffffffffffff16815260200190815260200160002060009054906101000a900460ff161561273e576040517f08c379a000000000000000000000000000000000000000000000000000000000815260040161273590614bfe565b60405180910390fd5b60018160030160008773ffffffffffffffffffffffffffffffffffffffff1673ffffffffffffffffffffffffffffffffffffffff16815260200190815260200160002060006101000a81548160ff021916908315150217905550600060028111156127ac576127ab61325e565b5b60ff168460ff16036127d857828160000160008282546127cc9190614642565b92505081905550612894565b600160028111156127ec576127eb61325e565b5b60ff168460ff1603612818578281600101600082825461280c9190614642565b92505081905550612893565b60028081111561282b5761282a61325e565b5b60ff168460ff1603612857578281600201600082825461284b9190614642565b92505081905550612892565b6040517f08c379a000000000000000000000000000000000000000000000000000000000815260040161288990614c90565b60405180910390fd5b5b5b505050505050565b6000604051905090565b600080fd5b600080fd5b60007fffffffff0000000000000000000000000000000000000000000000000000000082169050919050565b6128e5816128b0565b81146128f057600080fd5b50565b600081359050612902816128dc565b92915050565b60006020828403121561291e5761291d6128a6565b5b600061292c848285016128f3565b91505092915050565b60008115159050919050565b61294a81612935565b82525050565b60006020820190506129656000830184612941565b92915050565b6000819050919050565b61297e8161296b565b82525050565b60006020820190506129996000830184612975565b92915050565b6129a88161296b565b81146129b357600080fd5b50565b6000813590506129c58161299f565b92915050565b600060ff82169050919050565b6129e1816129cb565b81146129ec57600080fd5b50565b6000813590506129fe816129d8565b92915050565b600080fd5b600080fd5b600080fd5b60008083601f840112612a2957612a28612a04565b5b8235905067ffffffffffffffff811115612a4657612a45612a09565b5b602083019150836001820283011115612a6257612a61612a0e565b5b9250929050565b600080fd5b6000601f19601f8301169050919050565b7f4e487b7100000000000000000000000000000000000000000000000000000000600052604160045260246000fd5b612ab782612a6e565b810181811067ffffffffffffffff82111715612ad657612ad5612a7f565b5b80604052505050565b6000612ae961289c565b9050612af58282612aae565b919050565b600067ffffffffffffffff821115612b1557612b14612a7f565b5b612b1e82612a6e565b9050602081019050919050565b82818337600083830152505050565b6000612b4d612b4884612afa565b612adf565b905082815260208101848484011115612b6957612b68612a69565b5b612b74848285612b2b565b509392505050565b600082601f830112612b9157612b90612a04565b5b8135612ba1848260208601612b3a565b91505092915050565b6000819050919050565b612bbd81612baa565b8114612bc857600080fd5b50565b600081359050612bda81612bb4565b92915050565b60008060008060008060008060e0898b031215612c0057612bff6128a6565b5b6000612c0e8b828c016129b6565b9850506020612c1f8b828c016129ef565b975050604089013567ffffffffffffffff811115612c4057612c3f6128ab565b5b612c4c8b828c01612a13565b9650965050606089013567ffffffffffffffff811115612c6f57612c6e6128ab565b5b612c7b8b828c01612b7c565b9450506080612c8c8b828c016129ef565b93505060a0612c9d8b828c01612bcb565b92505060c0612cae8b828c01612bcb565b9150509295985092959890939650565b600081519050919050565b600082825260208201905092915050565b60005b83811015612cf8578082015181840152602081019050612cdd565b60008484015250505050565b6000612d0f82612cbe565b612d198185612cc9565b9350612d29818560208601612cda565b612d3281612a6e565b840191505092915050565b60006020820190508181036000830152612d578184612d04565b905092915050565b600073ffffffffffffffffffffffffffffffffffffffff82169050919050565b6000612d8a82612d5f565b9050919050565b612d9a81612d7f565b8114612da557600080fd5b50565b600081359050612db781612d91565b92915050565b60008060008060808587031215612dd757612dd66128a6565b5b6000612de587828801612da8565b9450506020612df687828801612da8565b9350506040612e07878288016129b6565b925050606085013567ffffffffffffffff811115612e2857612e276128ab565b5b612e3487828801612b7c565b91505092959194509250565b612e49816128b0565b82525050565b6000602082019050612e646000830184612e40565b92915050565b600067ffffffffffffffff821115612e8557612e84612a7f565b5b602082029050602081019050919050565b6000612ea9612ea484612e6a565b612adf565b90508083825260208201905060208402830185811115612ecc57612ecb612a0e565b5b835b81811015612ef55780612ee18882612da8565b845260208401935050602081019050612ece565b5050509392505050565b600082601f830112612f1457612f13612a04565b5b8135612f24848260208601612e96565b91505092915050565b600067ffffffffffffffff821115612f4857612f47612a7f565b5b602082029050602081019050919050565b6000612f6c612f6784612f2d565b612adf565b90508083825260208201905060208402830185811115612f8f57612f8e612a0e565b5b835b81811015612fb85780612fa488826129b6565b845260208401935050602081019050612f91565b5050509392505050565b600082601f830112612fd757612fd6612a04565b5b8135612fe7848260208601612f59565b91505092915050565b600067ffffffffffffffff82111561300b5761300a612a7f565b5b602082029050602081019050919050565b600061302f61302a84612ff0565b612adf565b9050808382526020820190506020840283018581111561305257613051612a0e565b5b835b8181101561309957803567ffffffffffffffff81111561307757613076612a04565b5b8086016130848982612b7c565b85526020850194505050602081019050613054565b5050509392505050565b600082601f8301126130b8576130b7612a04565b5b81356130c884826020860161301c565b91505092915050565b600080600080608085870312156130eb576130ea6128a6565b5b600085013567ffffffffffffffff811115613109576131086128ab565b5b61311587828801612eff565b945050602085013567ffffffffffffffff811115613136576131356128ab565b5b61314287828801612fc2565b935050604085013567ffffffffffffffff811115613163576131626128ab565b5b61316f878288016130a3565b925050606061318087828801612bcb565b91505092959194509250565b6000602082840312156131a2576131a16128a6565b5b60006131b0848285016129b6565b91505092915050565b6131c281612baa565b82525050565b60006020820190506131dd60008301846131b9565b92915050565b600080600080600060a086880312156131ff576131fe6128a6565b5b600061320d888289016129b6565b955050602061321e888289016129ef565b945050604061322f888289016129ef565b935050606061324088828901612bcb565b925050608061325188828901612bcb565b9150509295509295909350565b7f4e487b7100000000000000000000000000000000000000000000000000000000600052602160045260246000fd5b6008811061329e5761329d61325e565b5b50565b60008190506132af8261328d565b919050565b60006132bf826132a1565b9050919050565b6132cf816132b4565b82525050565b60006020820190506132ea60008301846132c6565b92915050565b60008060408385031215613307576133066128a6565b5b6000613315858286016129b6565b925050602061332685828601612da8565b9150509250929050565b60006060820190506133456000830186612975565b6133526020830185612975565b61335f6040830184612975565b949350505050565b6000806040838503121561337e5761337d6128a6565b5b600061338c858286016129b6565b925050602061339d858286016129ef565b9150509250929050565b6000806000806000608086880312156133c3576133c26128a6565b5b60006133d1888289016129b6565b95505060206133e2888289016129ef565b945050604086013567ffffffffffffffff811115613403576134026128ab565b5b61340f88828901612a13565b9350935050606086013567ffffffffffffffff811115613432576134316128ab565b5b61343e88828901612b7c565b9150509295509295909350565b60008060008060608587031215613465576134646128a6565b5b6000613473878288016129b6565b9450506020613484878288016129ef565b935050604085013567ffffffffffffffff8111156134a5576134a46128ab565b5b6134b187828801612a13565b925092505092959194509250565b600067ffffffffffffffff8211156134da576134d9612a7f565b5b6134e382612a6e565b9050602081019050919050565b60006135036134fe846134bf565b612adf565b90508281526020810184848401111561351f5761351e612a69565b5b61352a848285612b2b565b509392505050565b600082601f83011261354757613546612a04565b5b81356135578482602086016134f0565b91505092915050565b6000806000806080858703121561357a576135796128a6565b5b600085013567ffffffffffffffff811115613598576135976128ab565b5b6135a487828801612eff565b945050602085013567ffffffffffffffff8111156135c5576135c46128ab565b5b6135d187828801612fc2565b935050604085013567ffffffffffffffff8111156135f2576135f16128ab565b5b6135fe878288016130a3565b925050606085013567ffffffffffffffff81111561361f5761361e6128ab565b5b61362b87828801613532565b91505092959194509250565b6000806000606084860312156136505761364f6128a6565b5b600061365e86828701612da8565b935050602061366f868287016129b6565b925050604084013567ffffffffffffffff8111156136905761368f6128ab565b5b61369c86828701612b7c565b9150509250925092565b600080600080600060a086880312156136c2576136c16128a6565b5b60006136d088828901612da8565b95505060206136e188828901612da8565b945050604086013567ffffffffffffffff811115613702576137016128ab565b5b61370e88828901612fc2565b935050606086013567ffffffffffffffff81111561372f5761372e6128ab565b5b61373b88828901612fc2565b925050608086013567ffffffffffffffff81111561375c5761375b6128ab565b5b61376888828901612b7c565b9150509295509295909350565b60008083601f84011261378b5761378a612a04565b5b8235905067ffffffffffffffff8111156137a8576137a7612a09565b5b6020830191508360018202830111156137c4576137c3612a0e565b5b9250929050565b600080600080606085870312156137e5576137e46128a6565b5b60006137f387828801612da8565b9450506020613804878288016129b6565b935050604085013567ffffffffffffffff811115613825576138246128ab565b5b61383187828801613775565b925092505092959194509250565b60008060408385031215613856576138556128a6565b5b600061386485828601612da8565b9250506020613875858286016129b6565b9150509250929050565b600080600080600060a0868803121561389b5761389a6128a6565b5b60006138a988828901612da8565b95505060206138ba88828901612da8565b94505060406138cb888289016129b6565b93505060606138dc888289016129b6565b925050608086013567ffffffffffffffff8111156138fd576138fc6128ab565b5b61390988828901612b7c565b9150509295509295909350565b6000819050919050565b600061393b61393661393184612d5f565b613916565b612d5f565b9050919050565b600061394d82613920565b9050919050565b600061395f82613942565b9050919050565b61396f81613954565b82525050565b600060208201905061398a6000830184613966565b92915050565b600081905092915050565b60006139a78385613990565b93506139b4838584612b2b565b82840190509392505050565b60006139cd82848661399b565b91508190509392505050565b6139e2816129cb565b82525050565b600060a0820190506139fd60008301886131b9565b613a0a6020830187612975565b613a1760408301866139d9565b613a2460608301856131b9565b613a3160808301846131b9565b9695505050505050565b7f4e487b7100000000000000000000000000000000000000000000000000000000600052602260045260246000fd5b60006002820490506001821680613a8257607f821691505b602082108103613a9557613a94613a3b565b5b50919050565b7f476f7665726e6f723a2070726f706f73616c206e6f742073756363657373667560008201527f6c00000000000000000000000000000000000000000000000000000000000000602082015250565b6000613af7602183612cc9565b9150613b0282613a9b565b604082019050919050565b60006020820190508181036000830152613b2681613aea565b9050919050565b6000606082019050613b4260008301866131b9565b613b4f6020830185612975565b613b5c60408301846139d9565b949350505050565b7f476f7665726e6f723a20756e6b6e6f776e2070726f706f73616c206964000000600082015250565b6000613b9a601d83612cc9565b9150613ba582613b64565b602082019050919050565b60006020820190508181036000830152613bc981613b8d565b9050919050565b7f4e487b7100000000000000000000000000000000000000000000000000000000600052601160045260246000fd5b6000613c0a8261296b565b9150613c158361296b565b9250828203905081811115613c2d57613c2c613bd0565b5b92915050565b7f476f7665726e6f723a2070726f706f73657220766f7465732062656c6f77207060008201527f726f706f73616c207468726573686f6c64000000000000000000000000000000602082015250565b6000613c8f603183612cc9565b9150613c9a82613c33565b604082019050919050565b60006020820190508181036000830152613cbe81613c82565b9050919050565b7f476f7665726e6f723a20696e76616c69642070726f706f73616c206c656e677460008201527f6800000000000000000000000000000000000000000000000000000000000000602082015250565b6000613d21602183612cc9565b9150613d2c82613cc5565b604082019050919050565b60006020820190508181036000830152613d5081613d14565b9050919050565b7f476f7665726e6f723a20656d7074792070726f706f73616c0000000000000000600082015250565b6000613d8d601883612cc9565b9150613d9882613d57565b602082019050919050565b60006020820190508181036000830152613dbc81613d80565b9050919050565b7f476f7665726e6f723a2070726f706f73616c20616c726561647920657869737460008201527f7300000000000000000000000000000000000000000000000000000000000000602082015250565b6000613e1f602183612cc9565b9150613e2a82613dc3565b604082019050919050565b60006020820190508181036000830152613e4e81613e12565b9050919050565b600067ffffffffffffffff82169050919050565b6000613e7482613e55565b9150613e7f83613e55565b9250828201905067ffffffffffffffff811115613e9f57613e9e613bd0565b5b92915050565b613eae81612d7f565b82525050565b600081519050919050565b600082825260208201905092915050565b6000819050602082019050919050565b613ee981612d7f565b82525050565b6000613efb8383613ee0565b60208301905092915050565b6000602082019050919050565b6000613f1f82613eb4565b613f298185613ebf565b9350613f3483613ed0565b8060005b83811015613f65578151613f4c8882613eef565b9750613f5783613f07565b925050600181019050613f38565b5085935050505092915050565b600081519050919050565b600082825260208201905092915050565b6000819050602082019050919050565b613fa78161296b565b82525050565b6000613fb98383613f9e565b60208301905092915050565b6000602082019050919050565b6000613fdd82613f72565b613fe78185613f7d565b9350613ff283613f8e565b8060005b8381101561402357815161400a8882613fad565b975061401583613fc5565b925050600181019050613ff6565b5085935050505092915050565b600081519050919050565b600082825260208201905092915050565b6000819050602082019050919050565b600082825260208201905092915050565b600061407882612cbe565b614082818561405c565b9350614092818560208601612cda565b61409b81612a6e565b840191505092915050565b60006140b2838361406d565b905092915050565b6000602082019050919050565b60006140d282614030565b6140dc818561403b565b9350836020820285016140ee8561404c565b8060005b8581101561412a578484038952815161410b85826140a6565b9450614116836140ba565b925060208a019950506001810190506140f2565b50829750879550505050505092915050565b600081519050919050565b600082825260208201905092915050565b6000819050602082019050919050565b600081519050919050565b600082825260208201905092915050565b600061418f82614168565b6141998185614173565b93506141a9818560208601612cda565b6141b281612a6e565b840191505092915050565b60006141c98383614184565b905092915050565b6000602082019050919050565b60006141e98261413c565b6141f38185614147565b93508360208202850161420585614158565b8060005b85811015614241578484038952815161422285826141bd565b945061422d836141d1565b925060208a01995050600181019050614209565b50829750879550505050505092915050565b600061426e61426961426484613e55565b613916565b61296b565b9050919050565b61427e81614253565b82525050565b60006101208201905061429a600083018c612975565b6142a7602083018b613ea5565b81810360408301526142b9818a613f14565b905081810360608301526142cd8189613fd2565b905081810360808301526142e181886140c7565b905081810360a08301526142f581876141de565b905061430460c0830186614275565b61431160e0830185614275565b8181036101008301526143248184612d04565b90509a9950505050505050505050565b7f476f7665726e6f723a206f6e6c79476f7665726e616e63650000000000000000600082015250565b600061436a601883612cc9565b915061437582614334565b602082019050919050565b600060208201905081810360008301526143998161435d565b9050919050565b600060808201905081810360008301526143ba8187613f14565b905081810360208301526143ce8186613fd2565b905081810360408301526143e281856141de565b90506143f160608301846131b9565b95945050505050565b7f476f7665726e6f723a20766f7465206e6f742063757272656e746c792061637460008201527f6976650000000000000000000000000000000000000000000000000000000000602082015250565b6000614456602383612cc9565b9150614461826143fa565b604082019050919050565b6000602082019050818103600083015261448581614449565b9050919050565b60006080820190506144a16000830187612975565b6144ae60208301866139d9565b6144bb6040830185612975565b81810360608301526144cd8184612d04565b905095945050505050565b600082825260208201905092915050565b60006144f482614168565b6144fe81856144d8565b935061450e818560208601612cda565b61451781612a6e565b840191505092915050565b600060a0820190506145376000830188612975565b61454460208301876139d9565b6145516040830186612975565b81810360608301526145638185612d04565b9050818103608083015261457781846144e9565b90509695505050505050565b7f4e487b7100000000000000000000000000000000000000000000000000000000600052603260045260246000fd5b60006145bd8261296b565b91507fffffffffffffffffffffffffffffffffffffffffffffffffffffffffffffffff82036145ef576145ee613bd0565b5b600182019050919050565b600061460582614168565b61460f8185613990565b935061461f818560208601612cda565b80840191505092915050565b600061463782846145fa565b915081905092915050565b600061464d8261296b565b91506146588361296b565b92508282019050808211156146705761466f613bd0565b5b92915050565b7f476f7665726e6f723a2070726f706f73616c206e6f7420616374697665000000600082015250565b60006146ac601d83612cc9565b91506146b782614676565b602082019050919050565b600060208201905081810360008301526146db8161469f565b9050919050565b7f53616665436173743a2076616c756520646f65736e27742066697420696e203660008201527f3420626974730000000000000000000000000000000000000000000000000000602082015250565b600061473e602683612cc9565b9150614749826146e2565b604082019050919050565b6000602082019050818103600083015261476d81614731565b9050919050565b6000815190506147838161299f565b92915050565b600061479c614797846134bf565b612adf565b9050828152602081018484840111156147b8576147b7612a69565b5b6147c3848285612cda565b509392505050565b600082601f8301126147e0576147df612a04565b5b81516147f0848260208601614789565b91505092915050565b600080604083850312156148105761480f6128a6565b5b600061481e85828601614774565b925050602083015167ffffffffffffffff81111561483f5761483e6128ab565b5b61484b858286016147cb565b9150509250929050565b600081905092915050565b7f1901000000000000000000000000000000000000000000000000000000000000600082015250565b6000614896600283614855565b91506148a182614860565b600282019050919050565b6000819050919050565b6148c76148c282612baa565b6148ac565b82525050565b60006148d882614889565b91506148e482856148b6565b6020820191506148f482846148b6565b6020820191508190509392505050565b600060808201905061491960008301876131b9565b61492660208301866139d9565b61493360408301856131b9565b61494060608301846131b9565b95945050505050565b7f45434453413a20696e76616c6964207369676e61747572650000000000000000600082015250565b600061497f601883612cc9565b915061498a82614949565b602082019050919050565b600060208201905081810360008301526149ae81614972565b9050919050565b7f45434453413a20696e76616c6964207369676e6174757265206c656e67746800600082015250565b60006149eb601f83612cc9565b91506149f6826149b5565b602082019050919050565b60006020820190508181036000830152614a1a816149de565b9050919050565b7f45434453413a20696e76616c6964207369676e6174757265202773272076616c60008201527f7565000000000000000000000000000000000000000000000000000000000000602082015250565b6000614a7d602283612cc9565b9150614a8882614a21565b604082019050919050565b60006020820190508181036000830152614aac81614a70565b9050919050565b6000604082019050614ac86000830185612975565b8181036020830152614ada8184612d04565b90509392505050565b6000604082019050614af86000830185613ea5565b614b056020830184612975565b9392505050565b600060208284031215614b2257614b216128a6565b5b6000614b3084828501614774565b91505092915050565b600060a082019050614b4e60008301886131b9565b614b5b60208301876131b9565b614b6860408301866131b9565b614b756060830185612975565b614b826080830184613ea5565b9695505050505050565b7f476f7665726e6f72566f74696e6753696d706c653a20766f746520616c72656160008201527f6479206361737400000000000000000000000000000000000000000000000000602082015250565b6000614be8602783612cc9565b9150614bf382614b8c565b604082019050919050565b60006020820190508181036000830152614c1781614bdb565b9050919050565b7f476f7665726e6f72566f74696e6753696d706c653a20696e76616c696420766160008201527f6c756520666f7220656e756d20566f7465547970650000000000000000000000602082015250565b6000614c7a603583612cc9565b9150614c8582614c1e565b604082019050919050565b60006020820190508181036000830152614ca981614c6d565b905091905056fe476f7665726e6f723a2072656c617920726576657274656420776974686f7574206d657373616765476f7665726e6f723a2063616c6c20726576657274656420776974686f7574206d657373616765a264697066735822122047ac908d8515dba0a1eadce9f27862a721ad3771d502080328c3c1b871e6f8d464736f6c63430008110033",
  "linkReferences": {},
  "deployedLinkReferences": {}
}