{
  "_format": "hh-sol-artifact-1",
  "contractName": "ERC1155URIStorageMock",
  "sourceName": "contracts/mocks/ERC1155URIStorageMock.sol",
  "abi": [
    {
      "inputs": [
        {
          "internalType": "string",
          "name": "_uri",
          "type": "string"
        }
      ],
      "stateMutability": "nonpayable",
      "type": "constructor"
    },
    {
      "anonymous": false,
      "inputs": [
        {
          "indexed": true,
          "internalType": "address",
          "name": "account",
          "type": "address"
        },
        {
          "indexed": true,
          "internalType": "address",
          "name": "operator",
          "type": "address"
        },
        {
          "indexed": false,
          "internalType": "bool",
          "name": "approved",
          "type": "bool"
        }
      ],
      "name": "ApprovalForAll",
      "type": "event"
    },
    {
      "anonymous": false,
      "inputs": [
        {
          "indexed": true,
          "internalType": "address",
          "name": "operator",
          "type": "address"
        },
        {
          "indexed": true,
          "internalType": "address",
          "name": "from",
          "type": "address"
        },
        {
          "indexed": true,
          "internalType": "address",
          "name": "to",
          "type": "address"
        },
        {
          "indexed": false,
          "internalType": "uint256[]",
          "name": "ids",
          "type": "uint256[]"
        },
        {
          "indexed": false,
          "internalType": "uint256[]",
          "name": "values",
          "type": "uint256[]"
        }
      ],
      "name": "TransferBatch",
      "type": "event"
    },
    {
      "anonymous": false,
      "inputs": [
        {
          "indexed": true,
          "internalType": "address",
          "name": "operator",
          "type": "address"
        },
        {
          "indexed": true,
          "internalType": "address",
          "name": "from",
          "type": "address"
        },
        {
          "indexed": true,
          "internalType": "address",
          "name": "to",
          "type": "address"
        },
        {
          "indexed": false,
          "internalType": "uint256",
          "name": "id",
          "type": "uint256"
        },
        {
          "indexed": false,
          "internalType": "uint256",
          "name": "value",
          "type": "uint256"
        }
      ],
      "name": "TransferSingle",
      "type": "event"
    },
    {
      "anonymous": false,
      "inputs": [
        {
          "indexed": false,
          "internalType": "string",
          "name": "value",
          "type": "string"
        },
        {
          "indexed": true,
          "internalType": "uint256",
          "name": "id",
          "type": "uint256"
        }
      ],
      "name": "URI",
      "type": "event"
    },
    {
      "inputs": [
        {
          "internalType": "address",
          "name": "account",
          "type": "address"
        },
        {
          "internalType": "uint256",
          "name": "id",
          "type": "uint256"
        }
      ],
      "name": "balanceOf",
      "outputs": [
        {
          "internalType": "uint256",
          "name": "",
          "type": "uint256"
        }
      ],
      "stateMutability": "view",
      "type": "function"
    },
    {
      "inputs": [
        {
          "internalType": "address[]",
          "name": "accounts",
          "type": "address[]"
        },
        {
          "internalType": "uint256[]",
          "name": "ids",
          "type": "uint256[]"
        }
      ],
      "name": "balanceOfBatch",
      "outputs": [
        {
          "internalType": "uint256[]",
          "name": "",
          "type": "uint256[]"
        }
      ],
      "stateMutability": "view",
      "type": "function"
    },
    {
      "inputs": [
        {
          "internalType": "address",
          "name": "owner",
          "type": "address"
        },
        {
          "internalType": "uint256",
          "name": "id",
          "type": "uint256"
        },
        {
          "internalType": "uint256",
          "name": "value",
          "type": "uint256"
        }
      ],
      "name": "burn",
      "outputs": [],
      "stateMutability": "nonpayable",
      "type": "function"
    },
    {
      "inputs": [
        {
          "internalType": "address",
          "name": "owner",
          "type": "address"
        },
        {
          "internalType": "uint256[]",
          "name": "ids",
          "type": "uint256[]"
        },
        {
          "internalType": "uint256[]",
          "name": "values",
          "type": "uint256[]"
        }
      ],
      "name": "burnBatch",
      "outputs": [],
      "stateMutability": "nonpayable",
      "type": "function"
    },
    {
      "inputs": [
        {
          "internalType": "address",
          "name": "account",
          "type": "address"
        },
        {
          "internalType": "address",
          "name": "operator",
          "type": "address"
        }
      ],
      "name": "isApprovedForAll",
      "outputs": [
        {
          "internalType": "bool",
          "name": "",
          "type": "bool"
        }
      ],
      "stateMutability": "view",
      "type": "function"
    },
    {
      "inputs": [
        {
          "internalType": "address",
          "name": "to",
          "type": "address"
        },
        {
          "internalType": "uint256",
          "name": "id",
          "type": "uint256"
        },
        {
          "internalType": "uint256",
          "name": "value",
          "type": "uint256"
        },
        {
          "internalType": "bytes",
          "name": "data",
          "type": "bytes"
        }
      ],
      "name": "mint",
      "outputs": [],
      "stateMutability": "nonpayable",
      "type": "function"
    },
    {
      "inputs": [
        {
          "internalType": "address",
          "name": "to",
          "type": "address"
        },
        {
          "internalType": "uint256[]",
          "name": "ids",
          "type": "uint256[]"
        },
        {
          "internalType": "uint256[]",
          "name": "values",
          "type": "uint256[]"
        },
        {
          "internalType": "bytes",
          "name": "data",
          "type": "bytes"
        }
      ],
      "name": "mintBatch",
      "outputs": [],
      "stateMutability": "nonpayable",
      "type": "function"
    },
    {
      "inputs": [
        {
          "internalType": "address",
          "name": "from",
          "type": "address"
        },
        {
          "internalType": "address",
          "name": "to",
          "type": "address"
        },
        {
          "internalType": "uint256[]",
          "name": "ids",
          "type": "uint256[]"
        },
        {
          "internalType": "uint256[]",
          "name": "amounts",
          "type": "uint256[]"
        },
        {
          "internalType": "bytes",
          "name": "data",
          "type": "bytes"
        }
      ],
      "name": "safeBatchTransferFrom",
      "outputs": [],
      "stateMutability": "nonpayable",
      "type": "function"
    },
    {
      "inputs": [
        {
          "internalType": "address",
          "name": "from",
          "type": "address"
        },
        {
          "internalType": "address",
          "name": "to",
          "type": "address"
        },
        {
          "internalType": "uint256",
          "name": "id",
          "type": "uint256"
        },
        {
          "internalType": "uint256",
          "name": "amount",
          "type": "uint256"
        },
        {
          "internalType": "bytes",
          "name": "data",
          "type": "bytes"
        }
      ],
      "name": "safeTransferFrom",
      "outputs": [],
      "stateMutability": "nonpayable",
      "type": "function"
    },
    {
      "inputs": [
        {
          "internalType": "address",
          "name": "operator",
          "type": "address"
        },
        {
          "internalType": "bool",
          "name": "approved",
          "type": "bool"
        }
      ],
      "name": "setApprovalForAll",
      "outputs": [],
      "stateMutability": "nonpayable",
      "type": "function"
    },
    {
      "inputs": [
        {
          "internalType": "string",
          "name": "baseURI",
          "type": "string"
        }
      ],
      "name": "setBaseURI",
      "outputs": [],
      "stateMutability": "nonpayable",
      "type": "function"
    },
    {
      "inputs": [
        {
          "internalType": "string",
          "name": "newuri",
          "type": "string"
        }
      ],
      "name": "setURI",
      "outputs": [],
      "stateMutability": "nonpayable",
      "type": "function"
    },
    {
      "inputs": [
        {
          "internalType": "uint256",
          "name": "tokenId",
          "type": "uint256"
        },
        {
          "internalType": "string",
          "name": "_tokenURI",
          "type": "string"
        }
      ],
      "name": "setURI",
      "outputs": [],
      "stateMutability": "nonpayable",
      "type": "function"
    },
    {
      "inputs": [
        {
          "internalType": "bytes4",
          "name": "interfaceId",
          "type": "bytes4"
        }
      ],
      "name": "supportsInterface",
      "outputs": [
        {
          "internalType": "bool",
          "name": "",
          "type": "bool"
        }
      ],
      "stateMutability": "view",
      "type": "function"
    },
    {
      "inputs": [
        {
          "internalType": "uint256",
          "name": "tokenId",
          "type": "uint256"
        }
      ],
      "name": "uri",
      "outputs": [
        {
          "internalType": "string",
          "name": "",
          "type": "string"
        }
      ],
      "stateMutability": "view",
      "type": "function"
    }
  ],
  "bytecode": "0x6080604052604051806020016040528060008152506003908162000024919062000303565b503480156200003257600080fd5b5060405162003f2c38038062003f2c83398181016040528101906200005891906200054e565b80806200006b816200007460201b60201c565b5050506200059f565b806002908162000085919062000303565b5050565b600081519050919050565b7f4e487b7100000000000000000000000000000000000000000000000000000000600052604160045260246000fd5b7f4e487b7100000000000000000000000000000000000000000000000000000000600052602260045260246000fd5b600060028204905060018216806200010b57607f821691505b602082108103620001215762000120620000c3565b5b50919050565b60008190508160005260206000209050919050565b60006020601f8301049050919050565b600082821b905092915050565b6000600883026200018b7fffffffffffffffffffffffffffffffffffffffffffffffffffffffffffffffff826200014c565b6200019786836200014c565b95508019841693508086168417925050509392505050565b6000819050919050565b6000819050919050565b6000620001e4620001de620001d884620001af565b620001b9565b620001af565b9050919050565b6000819050919050565b6200020083620001c3565b620002186200020f82620001eb565b84845462000159565b825550505050565b600090565b6200022f62000220565b6200023c818484620001f5565b505050565b5b8181101562000264576200025860008262000225565b60018101905062000242565b5050565b601f821115620002b3576200027d8162000127565b62000288846200013c565b8101602085101562000298578190505b620002b0620002a7856200013c565b83018262000241565b50505b505050565b600082821c905092915050565b6000620002d860001984600802620002b8565b1980831691505092915050565b6000620002f38383620002c5565b9150826002028217905092915050565b6200030e8262000089565b67ffffffffffffffff8111156200032a576200032962000094565b5b620003368254620000f2565b6200034382828562000268565b600060209050601f8311600181146200037b576000841562000366578287015190505b620003728582620002e5565b865550620003e2565b601f1984166200038b8662000127565b60005b82811015620003b5578489015182556001820191506020850194506020810190506200038e565b86831015620003d55784890151620003d1601f891682620002c5565b8355505b6001600288020188555050505b505050505050565b6000604051905090565b600080fd5b600080fd5b600080fd5b600080fd5b6000601f19601f8301169050919050565b620004248262000408565b810181811067ffffffffffffffff8211171562000446576200044562000094565b5b80604052505050565b60006200045b620003ea565b905062000469828262000419565b919050565b600067ffffffffffffffff8211156200048c576200048b62000094565b5b620004978262000408565b9050602081019050919050565b60005b83811015620004c4578082015181840152602081019050620004a7565b60008484015250505050565b6000620004e7620004e1846200046e565b6200044f565b90508281526020810184848401111562000506576200050562000403565b5b62000513848285620004a4565b509392505050565b600082601f830112620005335762000532620003fe565b5b815162000545848260208601620004d0565b91505092915050565b600060208284031215620005675762000566620003f4565b5b600082015167ffffffffffffffff811115620005885762000587620003f9565b5b62000596848285016200051b565b91505092915050565b61397d80620005af6000396000f3fe608060405234801561001057600080fd5b50600436106100f45760003560e01c806355f804b311610097578063a22cb46511610066578063a22cb4651461027d578063e985e9c514610299578063f242432a146102c9578063f5298aca146102e5576100f4565b806355f804b31461020d5780636b20c45414610229578063731133e914610245578063862440e214610261576100f4565b80630e89341c116100d35780630e89341c146101755780631f7fdffa146101a55780632eb2c2d6146101c15780634e1273f4146101dd576100f4565b8062fdd58e146100f957806301ffc9a71461012957806302fe530514610159575b600080fd5b610113600480360381019061010e9190611fbd565b610301565b604051610120919061200c565b60405180910390f35b610143600480360381019061013e919061207f565b6103c9565b60405161015091906120c7565b60405180910390f35b610173600480360381019061016e9190612228565b6104ab565b005b61018f600480360381019061018a9190612271565b6104b7565b60405161019c919061231d565b60405180910390f35b6101bf60048036038101906101ba91906124a8565b6104c9565b005b6101db60048036038101906101d69190612563565b6104db565b005b6101f760048036038101906101f291906126f5565b61057c565b604051610204919061282b565b60405180910390f35b61022760048036038101906102229190612228565b610695565b005b610243600480360381019061023e919061284d565b6106a1565b005b61025f600480360381019061025a91906128d8565b6106b1565b005b61027b6004803603810190610276919061295b565b6106c3565b005b610297600480360381019061029291906129e3565b6106d1565b005b6102b360048036038101906102ae9190612a23565b6106e7565b6040516102c091906120c7565b60405180910390f35b6102e360048036038101906102de9190612a63565b61077b565b005b6102ff60048036038101906102fa9190612afa565b61081c565b005b60008073ffffffffffffffffffffffffffffffffffffffff168373ffffffffffffffffffffffffffffffffffffffff1603610371576040517f08c379a000000000000000000000000000000000000000000000000000000000815260040161036890612bbf565b60405180910390fd5b60008083815260200190815260200160002060008473ffffffffffffffffffffffffffffffffffffffff1673ffffffffffffffffffffffffffffffffffffffff16815260200190815260200160002054905092915050565b60007fd9b67a26000000000000000000000000000000000000000000000000000000007bffffffffffffffffffffffffffffffffffffffffffffffffffffffff1916827bffffffffffffffffffffffffffffffffffffffffffffffffffffffff1916148061049457507f0e89341c000000000000000000000000000000000000000000000000000000007bffffffffffffffffffffffffffffffffffffffffffffffffffffffff1916827bffffffffffffffffffffffffffffffffffffffffffffffffffffffff1916145b806104a457506104a38261082c565b5b9050919050565b6104b481610896565b50565b60606104c2826108a9565b9050919050565b6104d58484848461098e565b50505050565b6104e3610bba565b73ffffffffffffffffffffffffffffffffffffffff168573ffffffffffffffffffffffffffffffffffffffff161480610529575061052885610523610bba565b6106e7565b5b610568576040517f08c379a000000000000000000000000000000000000000000000000000000000815260040161055f90612c51565b60405180910390fd5b6105758585858585610bc2565b5050505050565b606081518351146105c2576040517f08c379a00000000000000000000000000000000000000000000000000000000081526004016105b990612ce3565b60405180910390fd5b6000835167ffffffffffffffff8111156105df576105de6120fd565b5b60405190808252806020026020018201604052801561060d5781602001602082028036833780820191505090505b50905060005b845181101561068a5761065a85828151811061063257610631612d03565b5b602002602001015185838151811061064d5761064c612d03565b5b6020026020010151610301565b82828151811061066d5761066c612d03565b5b6020026020010181815250508061068390612d61565b9050610613565b508091505092915050565b61069e81610ee3565b50565b6106ac838383610ef6565b505050565b6106bd848484846111c4565b50505050565b6106cd8282611374565b5050565b6106e36106dc610bba565b83836113d9565b5050565b6000600160008473ffffffffffffffffffffffffffffffffffffffff1673ffffffffffffffffffffffffffffffffffffffff16815260200190815260200160002060008373ffffffffffffffffffffffffffffffffffffffff1673ffffffffffffffffffffffffffffffffffffffff16815260200190815260200160002060009054906101000a900460ff16905092915050565b610783610bba565b73ffffffffffffffffffffffffffffffffffffffff168573ffffffffffffffffffffffffffffffffffffffff1614806107c957506107c8856107c3610bba565b6106e7565b5b610808576040517f08c379a00000000000000000000000000000000000000000000000000000000081526004016107ff90612c51565b60405180910390fd5b6108158585858585611545565b5050505050565b6108278383836117e0565b505050565b60007f01ffc9a7000000000000000000000000000000000000000000000000000000007bffffffffffffffffffffffffffffffffffffffffffffffffffffffff1916827bffffffffffffffffffffffffffffffffffffffffffffffffffffffff1916149050919050565b80600290816108a59190612fb5565b5050565b606060006004600084815260200190815260200160002080546108cb90612dd8565b80601f01602080910402602001604051908101604052809291908181526020018280546108f790612dd8565b80156109445780601f1061091957610100808354040283529160200191610944565b820191906000526020600020905b81548152906001019060200180831161092757829003601f168201915b5050505050905060008151116109625761095d83611a26565b610986565b600381604051602001610976929190613146565b6040516020818303038152906040525b915050919050565b600073ffffffffffffffffffffffffffffffffffffffff168473ffffffffffffffffffffffffffffffffffffffff16036109fd576040517f08c379a00000000000000000000000000000000000000000000000000000000081526004016109f4906131dc565b60405180910390fd5b8151835114610a41576040517f08c379a0000000000000000000000000000000000000000000000000000000008152600401610a389061326e565b60405180910390fd5b6000610a4b610bba565b9050610a5c81600087878787611aba565b60005b8451811015610b1557838181518110610a7b57610a7a612d03565b5b6020026020010151600080878481518110610a9957610a98612d03565b5b6020026020010151815260200190815260200160002060008873ffffffffffffffffffffffffffffffffffffffff1673ffffffffffffffffffffffffffffffffffffffff1681526020019081526020016000206000828254610afb919061328e565b925050819055508080610b0d90612d61565b915050610a5f565b508473ffffffffffffffffffffffffffffffffffffffff16600073ffffffffffffffffffffffffffffffffffffffff168273ffffffffffffffffffffffffffffffffffffffff167f4a39dc06d4c0dbc64b70af90fd698a233a518aa5d07e595d983b8c0526c8f7fb8787604051610b8d9291906132c2565b60405180910390a4610ba481600087878787611ac2565b610bb381600087878787611aca565b5050505050565b600033905090565b8151835114610c06576040517f08c379a0000000000000000000000000000000000000000000000000000000008152600401610bfd9061326e565b60405180910390fd5b600073ffffffffffffffffffffffffffffffffffffffff168473ffffffffffffffffffffffffffffffffffffffff1603610c75576040517f08c379a0000000000000000000000000000000000000000000000000000000008152600401610c6c9061336b565b60405180910390fd5b6000610c7f610bba565b9050610c8f818787878787611aba565b60005b8451811015610e40576000858281518110610cb057610caf612d03565b5b602002602001015190506000858381518110610ccf57610cce612d03565b5b60200260200101519050600080600084815260200190815260200160002060008b73ffffffffffffffffffffffffffffffffffffffff1673ffffffffffffffffffffffffffffffffffffffff16815260200190815260200160002054905081811015610d70576040517f08c379a0000000000000000000000000000000000000000000000000000000008152600401610d67906133fd565b60405180910390fd5b81810360008085815260200190815260200160002060008c73ffffffffffffffffffffffffffffffffffffffff1673ffffffffffffffffffffffffffffffffffffffff168152602001908152602001600020819055508160008085815260200190815260200160002060008b73ffffffffffffffffffffffffffffffffffffffff1673ffffffffffffffffffffffffffffffffffffffff1681526020019081526020016000206000828254610e25919061328e565b9250508190555050505080610e3990612d61565b9050610c92565b508473ffffffffffffffffffffffffffffffffffffffff168673ffffffffffffffffffffffffffffffffffffffff168273ffffffffffffffffffffffffffffffffffffffff167f4a39dc06d4c0dbc64b70af90fd698a233a518aa5d07e595d983b8c0526c8f7fb8787604051610eb79291906132c2565b60405180910390a4610ecd818787878787611ac2565b610edb818787878787611aca565b505050505050565b8060039081610ef29190612fb5565b5050565b600073ffffffffffffffffffffffffffffffffffffffff168373ffffffffffffffffffffffffffffffffffffffff1603610f65576040517f08c379a0000000000000000000000000000000000000000000000000000000008152600401610f5c9061348f565b60405180910390fd5b8051825114610fa9576040517f08c379a0000000000000000000000000000000000000000000000000000000008152600401610fa09061326e565b60405180910390fd5b6000610fb3610bba565b9050610fd381856000868660405180602001604052806000815250611aba565b60005b8351811015611120576000848281518110610ff457610ff3612d03565b5b60200260200101519050600084838151811061101357611012612d03565b5b60200260200101519050600080600084815260200190815260200160002060008973ffffffffffffffffffffffffffffffffffffffff1673ffffffffffffffffffffffffffffffffffffffff168152602001908152602001600020549050818110156110b4576040517f08c379a00000000000000000000000000000000000000000000000000000000081526004016110ab90613521565b60405180910390fd5b81810360008085815260200190815260200160002060008a73ffffffffffffffffffffffffffffffffffffffff1673ffffffffffffffffffffffffffffffffffffffff16815260200190815260200160002081905550505050808061111890612d61565b915050610fd6565b50600073ffffffffffffffffffffffffffffffffffffffff168473ffffffffffffffffffffffffffffffffffffffff168273ffffffffffffffffffffffffffffffffffffffff167f4a39dc06d4c0dbc64b70af90fd698a233a518aa5d07e595d983b8c0526c8f7fb86866040516111989291906132c2565b60405180910390a46111be81856000868660405180602001604052806000815250611ac2565b50505050565b600073ffffffffffffffffffffffffffffffffffffffff168473ffffffffffffffffffffffffffffffffffffffff1603611233576040517f08c379a000000000000000000000000000000000000000000000000000000000815260040161122a906131dc565b60405180910390fd5b600061123d610bba565b9050600061124a85611ca1565b9050600061125785611ca1565b905061126883600089858589611aba565b8460008088815260200190815260200160002060008973ffffffffffffffffffffffffffffffffffffffff1673ffffffffffffffffffffffffffffffffffffffff16815260200190815260200160002060008282546112c7919061328e565b925050819055508673ffffffffffffffffffffffffffffffffffffffff16600073ffffffffffffffffffffffffffffffffffffffff168473ffffffffffffffffffffffffffffffffffffffff167fc3d58168c5ae7397731d063d5bbf3d657854427343f4c083240f7aacaa2d0f628989604051611345929190613541565b60405180910390a461135c83600089858589611ac2565b61136b83600089898989611d1b565b50505050505050565b806004600084815260200190815260200160002090816113949190612fb5565b50817f6bb7ff708619ba0610cba295a58592e0451dee2622938c8755667688daf3529b6113c0846104b7565b6040516113cd919061231d565b60405180910390a25050565b8173ffffffffffffffffffffffffffffffffffffffff168373ffffffffffffffffffffffffffffffffffffffff1603611447576040517f08c379a000000000000000000000000000000000000000000000000000000000815260040161143e906135dc565b60405180910390fd5b80600160008573ffffffffffffffffffffffffffffffffffffffff1673ffffffffffffffffffffffffffffffffffffffff16815260200190815260200160002060008473ffffffffffffffffffffffffffffffffffffffff1673ffffffffffffffffffffffffffffffffffffffff16815260200190815260200160002060006101000a81548160ff0219169083151502179055508173ffffffffffffffffffffffffffffffffffffffff168373ffffffffffffffffffffffffffffffffffffffff167f17307eab39ab6107e8899845ad3d59bd9653f200f220920489ca2b5937696c318360405161153891906120c7565b60405180910390a3505050565b600073ffffffffffffffffffffffffffffffffffffffff168473ffffffffffffffffffffffffffffffffffffffff16036115b4576040517f08c379a00000000000000000000000000000000000000000000000000000000081526004016115ab9061336b565b60405180910390fd5b60006115be610bba565b905060006115cb85611ca1565b905060006115d885611ca1565b90506115e8838989858589611aba565b600080600088815260200190815260200160002060008a73ffffffffffffffffffffffffffffffffffffffff1673ffffffffffffffffffffffffffffffffffffffff1681526020019081526020016000205490508581101561167f576040517f08c379a0000000000000000000000000000000000000000000000000000000008152600401611676906133fd565b60405180910390fd5b85810360008089815260200190815260200160002060008b73ffffffffffffffffffffffffffffffffffffffff1673ffffffffffffffffffffffffffffffffffffffff168152602001908152602001600020819055508560008089815260200190815260200160002060008a73ffffffffffffffffffffffffffffffffffffffff1673ffffffffffffffffffffffffffffffffffffffff1681526020019081526020016000206000828254611734919061328e565b925050819055508773ffffffffffffffffffffffffffffffffffffffff168973ffffffffffffffffffffffffffffffffffffffff168573ffffffffffffffffffffffffffffffffffffffff167fc3d58168c5ae7397731d063d5bbf3d657854427343f4c083240f7aacaa2d0f628a8a6040516117b1929190613541565b60405180910390a46117c7848a8a86868a611ac2565b6117d5848a8a8a8a8a611d1b565b505050505050505050565b600073ffffffffffffffffffffffffffffffffffffffff168373ffffffffffffffffffffffffffffffffffffffff160361184f576040517f08c379a00000000000000000000000000000000000000000000000000000000081526004016118469061348f565b60405180910390fd5b6000611859610bba565b9050600061186684611ca1565b9050600061187384611ca1565b905061189383876000858560405180602001604052806000815250611aba565b600080600087815260200190815260200160002060008873ffffffffffffffffffffffffffffffffffffffff1673ffffffffffffffffffffffffffffffffffffffff1681526020019081526020016000205490508481101561192a576040517f08c379a000000000000000000000000000000000000000000000000000000000815260040161192190613521565b60405180910390fd5b84810360008088815260200190815260200160002060008973ffffffffffffffffffffffffffffffffffffffff1673ffffffffffffffffffffffffffffffffffffffff16815260200190815260200160002081905550600073ffffffffffffffffffffffffffffffffffffffff168773ffffffffffffffffffffffffffffffffffffffff168573ffffffffffffffffffffffffffffffffffffffff167fc3d58168c5ae7397731d063d5bbf3d657854427343f4c083240f7aacaa2d0f6289896040516119f7929190613541565b60405180910390a4611a1d84886000868660405180602001604052806000815250611ac2565b50505050505050565b606060028054611a3590612dd8565b80601f0160208091040260200160405190810160405280929190818152602001828054611a6190612dd8565b8015611aae5780601f10611a8357610100808354040283529160200191611aae565b820191906000526020600020905b815481529060010190602001808311611a9157829003601f168201915b50505050509050919050565b505050505050565b505050505050565b611ae98473ffffffffffffffffffffffffffffffffffffffff16611ef2565b15611c99578373ffffffffffffffffffffffffffffffffffffffff1663bc197c8187878686866040518663ffffffff1660e01b8152600401611b2f959493929190613660565b6020604051808303816000875af1925050508015611b6b57506040513d601f19601f82011682018060405250810190611b6891906136dd565b60015b611c1057611b77613717565b806308c379a003611bd35750611b8b613739565b80611b965750611bd5565b806040517f08c379a0000000000000000000000000000000000000000000000000000000008152600401611bca919061231d565b60405180910390fd5b505b6040517f08c379a0000000000000000000000000000000000000000000000000000000008152600401611c079061383b565b60405180910390fd5b63bc197c8160e01b7bffffffffffffffffffffffffffffffffffffffffffffffffffffffff1916817bffffffffffffffffffffffffffffffffffffffffffffffffffffffff191614611c97576040517f08c379a0000000000000000000000000000000000000000000000000000000008152600401611c8e906138cd565b60405180910390fd5b505b505050505050565b60606000600167ffffffffffffffff811115611cc057611cbf6120fd565b5b604051908082528060200260200182016040528015611cee5781602001602082028036833780820191505090505b5090508281600081518110611d0657611d05612d03565b5b60200260200101818152505080915050919050565b611d3a8473ffffffffffffffffffffffffffffffffffffffff16611ef2565b15611eea578373ffffffffffffffffffffffffffffffffffffffff1663f23a6e6187878686866040518663ffffffff1660e01b8152600401611d809594939291906138ed565b6020604051808303816000875af1925050508015611dbc57506040513d601f19601f82011682018060405250810190611db991906136dd565b60015b611e6157611dc8613717565b806308c379a003611e245750611ddc613739565b80611de75750611e26565b806040517f08c379a0000000000000000000000000000000000000000000000000000000008152600401611e1b919061231d565b60405180910390fd5b505b6040517f08c379a0000000000000000000000000000000000000000000000000000000008152600401611e589061383b565b60405180910390fd5b63f23a6e6160e01b7bffffffffffffffffffffffffffffffffffffffffffffffffffffffff1916817bffffffffffffffffffffffffffffffffffffffffffffffffffffffff191614611ee8576040517f08c379a0000000000000000000000000000000000000000000000000000000008152600401611edf906138cd565b60405180910390fd5b505b505050505050565b6000808273ffffffffffffffffffffffffffffffffffffffff163b119050919050565b6000604051905090565b600080fd5b600080fd5b600073ffffffffffffffffffffffffffffffffffffffff82169050919050565b6000611f5482611f29565b9050919050565b611f6481611f49565b8114611f6f57600080fd5b50565b600081359050611f8181611f5b565b92915050565b6000819050919050565b611f9a81611f87565b8114611fa557600080fd5b50565b600081359050611fb781611f91565b92915050565b60008060408385031215611fd457611fd3611f1f565b5b6000611fe285828601611f72565b9250506020611ff385828601611fa8565b9150509250929050565b61200681611f87565b82525050565b60006020820190506120216000830184611ffd565b92915050565b60007fffffffff0000000000000000000000000000000000000000000000000000000082169050919050565b61205c81612027565b811461206757600080fd5b50565b60008135905061207981612053565b92915050565b60006020828403121561209557612094611f1f565b5b60006120a38482850161206a565b91505092915050565b60008115159050919050565b6120c1816120ac565b82525050565b60006020820190506120dc60008301846120b8565b92915050565b600080fd5b600080fd5b6000601f19601f8301169050919050565b7f4e487b7100000000000000000000000000000000000000000000000000000000600052604160045260246000fd5b612135826120ec565b810181811067ffffffffffffffff82111715612154576121536120fd565b5b80604052505050565b6000612167611f15565b9050612173828261212c565b919050565b600067ffffffffffffffff821115612193576121926120fd565b5b61219c826120ec565b9050602081019050919050565b82818337600083830152505050565b60006121cb6121c684612178565b61215d565b9050828152602081018484840111156121e7576121e66120e7565b5b6121f28482856121a9565b509392505050565b600082601f83011261220f5761220e6120e2565b5b813561221f8482602086016121b8565b91505092915050565b60006020828403121561223e5761223d611f1f565b5b600082013567ffffffffffffffff81111561225c5761225b611f24565b5b612268848285016121fa565b91505092915050565b60006020828403121561228757612286611f1f565b5b600061229584828501611fa8565b91505092915050565b600081519050919050565b600082825260208201905092915050565b60005b838110156122d85780820151818401526020810190506122bd565b60008484015250505050565b60006122ef8261229e565b6122f981856122a9565b93506123098185602086016122ba565b612312816120ec565b840191505092915050565b6000602082019050818103600083015261233781846122e4565b905092915050565b600067ffffffffffffffff82111561235a576123596120fd565b5b602082029050602081019050919050565b600080fd5b600061238361237e8461233f565b61215d565b905080838252602082019050602084028301858111156123a6576123a561236b565b5b835b818110156123cf57806123bb8882611fa8565b8452602084019350506020810190506123a8565b5050509392505050565b600082601f8301126123ee576123ed6120e2565b5b81356123fe848260208601612370565b91505092915050565b600067ffffffffffffffff821115612422576124216120fd565b5b61242b826120ec565b9050602081019050919050565b600061244b61244684612407565b61215d565b905082815260208101848484011115612467576124666120e7565b5b6124728482856121a9565b509392505050565b600082601f83011261248f5761248e6120e2565b5b813561249f848260208601612438565b91505092915050565b600080600080608085870312156124c2576124c1611f1f565b5b60006124d087828801611f72565b945050602085013567ffffffffffffffff8111156124f1576124f0611f24565b5b6124fd878288016123d9565b935050604085013567ffffffffffffffff81111561251e5761251d611f24565b5b61252a878288016123d9565b925050606085013567ffffffffffffffff81111561254b5761254a611f24565b5b6125578782880161247a565b91505092959194509250565b600080600080600060a0868803121561257f5761257e611f1f565b5b600061258d88828901611f72565b955050602061259e88828901611f72565b945050604086013567ffffffffffffffff8111156125bf576125be611f24565b5b6125cb888289016123d9565b935050606086013567ffffffffffffffff8111156125ec576125eb611f24565b5b6125f8888289016123d9565b925050608086013567ffffffffffffffff81111561261957612618611f24565b5b6126258882890161247a565b9150509295509295909350565b600067ffffffffffffffff82111561264d5761264c6120fd565b5b602082029050602081019050919050565b600061267161266c84612632565b61215d565b905080838252602082019050602084028301858111156126945761269361236b565b5b835b818110156126bd57806126a98882611f72565b845260208401935050602081019050612696565b5050509392505050565b600082601f8301126126dc576126db6120e2565b5b81356126ec84826020860161265e565b91505092915050565b6000806040838503121561270c5761270b611f1f565b5b600083013567ffffffffffffffff81111561272a57612729611f24565b5b612736858286016126c7565b925050602083013567ffffffffffffffff81111561275757612756611f24565b5b612763858286016123d9565b9150509250929050565b600081519050919050565b600082825260208201905092915050565b6000819050602082019050919050565b6127a281611f87565b82525050565b60006127b48383612799565b60208301905092915050565b6000602082019050919050565b60006127d88261276d565b6127e28185612778565b93506127ed83612789565b8060005b8381101561281e57815161280588826127a8565b9750612810836127c0565b9250506001810190506127f1565b5085935050505092915050565b6000602082019050818103600083015261284581846127cd565b905092915050565b60008060006060848603121561286657612865611f1f565b5b600061287486828701611f72565b935050602084013567ffffffffffffffff81111561289557612894611f24565b5b6128a1868287016123d9565b925050604084013567ffffffffffffffff8111156128c2576128c1611f24565b5b6128ce868287016123d9565b9150509250925092565b600080600080608085870312156128f2576128f1611f1f565b5b600061290087828801611f72565b945050602061291187828801611fa8565b935050604061292287828801611fa8565b925050606085013567ffffffffffffffff81111561294357612942611f24565b5b61294f8782880161247a565b91505092959194509250565b6000806040838503121561297257612971611f1f565b5b600061298085828601611fa8565b925050602083013567ffffffffffffffff8111156129a1576129a0611f24565b5b6129ad858286016121fa565b9150509250929050565b6129c0816120ac565b81146129cb57600080fd5b50565b6000813590506129dd816129b7565b92915050565b600080604083850312156129fa576129f9611f1f565b5b6000612a0885828601611f72565b9250506020612a19858286016129ce565b9150509250929050565b60008060408385031215612a3a57612a39611f1f565b5b6000612a4885828601611f72565b9250506020612a5985828601611f72565b9150509250929050565b600080600080600060a08688031215612a7f57612a7e611f1f565b5b6000612a8d88828901611f72565b9550506020612a9e88828901611f72565b9450506040612aaf88828901611fa8565b9350506060612ac088828901611fa8565b925050608086013567ffffffffffffffff811115612ae157612ae0611f24565b5b612aed8882890161247a565b9150509295509295909350565b600080600060608486031215612b1357612b12611f1f565b5b6000612b2186828701611f72565b9350506020612b3286828701611fa8565b9250506040612b4386828701611fa8565b9150509250925092565b7f455243313135353a2061646472657373207a65726f206973206e6f742061207660008201527f616c6964206f776e657200000000000000000000000000000000000000000000602082015250565b6000612ba9602a836122a9565b9150612bb482612b4d565b604082019050919050565b60006020820190508181036000830152612bd881612b9c565b9050919050565b7f455243313135353a2063616c6c6572206973206e6f7420746f6b656e206f776e60008201527f6572206f7220617070726f766564000000000000000000000000000000000000602082015250565b6000612c3b602e836122a9565b9150612c4682612bdf565b604082019050919050565b60006020820190508181036000830152612c6a81612c2e565b9050919050565b7f455243313135353a206163636f756e747320616e6420696473206c656e67746860008201527f206d69736d617463680000000000000000000000000000000000000000000000602082015250565b6000612ccd6029836122a9565b9150612cd882612c71565b604082019050919050565b60006020820190508181036000830152612cfc81612cc0565b9050919050565b7f4e487b7100000000000000000000000000000000000000000000000000000000600052603260045260246000fd5b7f4e487b7100000000000000000000000000000000000000000000000000000000600052601160045260246000fd5b6000612d6c82611f87565b91507fffffffffffffffffffffffffffffffffffffffffffffffffffffffffffffffff8203612d9e57612d9d612d32565b5b600182019050919050565b7f4e487b7100000000000000000000000000000000000000000000000000000000600052602260045260246000fd5b60006002820490506001821680612df057607f821691505b602082108103612e0357612e02612da9565b5b50919050565b60008190508160005260206000209050919050565b60006020601f8301049050919050565b600082821b905092915050565b600060088302612e6b7fffffffffffffffffffffffffffffffffffffffffffffffffffffffffffffffff82612e2e565b612e758683612e2e565b95508019841693508086168417925050509392505050565b6000819050919050565b6000612eb2612ead612ea884611f87565b612e8d565b611f87565b9050919050565b6000819050919050565b612ecc83612e97565b612ee0612ed882612eb9565b848454612e3b565b825550505050565b600090565b612ef5612ee8565b612f00818484612ec3565b505050565b5b81811015612f2457612f19600082612eed565b600181019050612f06565b5050565b601f821115612f6957612f3a81612e09565b612f4384612e1e565b81016020851015612f52578190505b612f66612f5e85612e1e565b830182612f05565b50505b505050565b600082821c905092915050565b6000612f8c60001984600802612f6e565b1980831691505092915050565b6000612fa58383612f7b565b9150826002028217905092915050565b612fbe8261229e565b67ffffffffffffffff811115612fd757612fd66120fd565b5b612fe18254612dd8565b612fec828285612f28565b600060209050601f83116001811461301f576000841561300d578287015190505b6130178582612f99565b86555061307f565b601f19841661302d86612e09565b60005b8281101561305557848901518255600182019150602085019450602081019050613030565b86831015613072578489015161306e601f891682612f7b565b8355505b6001600288020188555050505b505050505050565b600081905092915050565b6000815461309f81612dd8565b6130a98186613087565b945060018216600081146130c457600181146130d95761310c565b60ff198316865281151582028601935061310c565b6130e285612e09565b60005b83811015613104578154818901526001820191506020810190506130e5565b838801955050505b50505092915050565b60006131208261229e565b61312a8185613087565b935061313a8185602086016122ba565b80840191505092915050565b60006131528285613092565b915061315e8284613115565b91508190509392505050565b7f455243313135353a206d696e7420746f20746865207a65726f2061646472657360008201527f7300000000000000000000000000000000000000000000000000000000000000602082015250565b60006131c66021836122a9565b91506131d18261316a565b604082019050919050565b600060208201905081810360008301526131f5816131b9565b9050919050565b7f455243313135353a2069647320616e6420616d6f756e7473206c656e6774682060008201527f6d69736d61746368000000000000000000000000000000000000000000000000602082015250565b60006132586028836122a9565b9150613263826131fc565b604082019050919050565b600060208201905081810360008301526132878161324b565b9050919050565b600061329982611f87565b91506132a483611f87565b92508282019050808211156132bc576132bb612d32565b5b92915050565b600060408201905081810360008301526132dc81856127cd565b905081810360208301526132f081846127cd565b90509392505050565b7f455243313135353a207472616e7366657220746f20746865207a65726f20616460008201527f6472657373000000000000000000000000000000000000000000000000000000602082015250565b60006133556025836122a9565b9150613360826132f9565b604082019050919050565b6000602082019050818103600083015261338481613348565b9050919050565b7f455243313135353a20696e73756666696369656e742062616c616e636520666f60008201527f72207472616e7366657200000000000000000000000000000000000000000000602082015250565b60006133e7602a836122a9565b91506133f28261338b565b604082019050919050565b60006020820190508181036000830152613416816133da565b9050919050565b7f455243313135353a206275726e2066726f6d20746865207a65726f206164647260008201527f6573730000000000000000000000000000000000000000000000000000000000602082015250565b60006134796023836122a9565b91506134848261341d565b604082019050919050565b600060208201905081810360008301526134a88161346c565b9050919050565b7f455243313135353a206275726e20616d6f756e7420657863656564732062616c60008201527f616e636500000000000000000000000000000000000000000000000000000000602082015250565b600061350b6024836122a9565b9150613516826134af565b604082019050919050565b6000602082019050818103600083015261353a816134fe565b9050919050565b60006040820190506135566000830185611ffd565b6135636020830184611ffd565b9392505050565b7f455243313135353a2073657474696e6720617070726f76616c2073746174757360008201527f20666f722073656c660000000000000000000000000000000000000000000000602082015250565b60006135c66029836122a9565b91506135d18261356a565b604082019050919050565b600060208201905081810360008301526135f5816135b9565b9050919050565b61360581611f49565b82525050565b600081519050919050565b600082825260208201905092915050565b60006136328261360b565b61363c8185613616565b935061364c8185602086016122ba565b613655816120ec565b840191505092915050565b600060a08201905061367560008301886135fc565b61368260208301876135fc565b818103604083015261369481866127cd565b905081810360608301526136a881856127cd565b905081810360808301526136bc8184613627565b90509695505050505050565b6000815190506136d781612053565b92915050565b6000602082840312156136f3576136f2611f1f565b5b6000613701848285016136c8565b91505092915050565b60008160e01c9050919050565b600060033d11156137365760046000803e61373360005161370a565b90505b90565b600060443d106137c65761374b611f15565b60043d036004823e80513d602482011167ffffffffffffffff821117156137735750506137c6565b808201805167ffffffffffffffff81111561379157505050506137c6565b80602083010160043d0385018111156137ae5750505050506137c6565b6137bd8260200185018661212c565b82955050505050505b90565b7f455243313135353a207472616e7366657220746f206e6f6e2d4552433131353560008201527f526563656976657220696d706c656d656e746572000000000000000000000000602082015250565b60006138256034836122a9565b9150613830826137c9565b604082019050919050565b6000602082019050818103600083015261385481613818565b9050919050565b7f455243313135353a204552433131353552656365697665722072656a6563746560008201527f6420746f6b656e73000000000000000000000000000000000000000000000000602082015250565b60006138b76028836122a9565b91506138c28261385b565b604082019050919050565b600060208201905081810360008301526138e6816138aa565b9050919050565b600060a08201905061390260008301886135fc565b61390f60208301876135fc565b61391c6040830186611ffd565b6139296060830185611ffd565b818103608083015261393b8184613627565b9050969550505050505056fea26469706673582212203553fa6949665243069ba2506054076a92b8d6c3305b516ede5c26112c727ae664736f6c63430008110033",
  "linkReferences": {},
  "deployedLinkReferences": {}
}