{
  "_format": "hh-sol-artifact-1",
  "contractName": "CallReceiverMock",
  "sourceName": "contracts/mocks/CallReceiverMock.sol",
  "abi": [
    {
      "anonymous": false,
      "inputs": [],
      "name": "MockFunctionCalled",
      "type": "event"
    },
    {
      "anonymous": false,
      "inputs": [
        {
          "indexed": false,
          "internalType": "uint256",
          "name": "a",
          "type": "uint256"
        },
        {
          "indexed": false,
          "internalType": "uint256",
          "name": "b",
          "type": "uint256"
        }
      ],
      "name": "MockFunctionCalledWithArgs",
      "type": "event"
    },
    {
      "inputs": [],
      "name": "mockFunction",
      "outputs": [
        {
          "internalType": "string",
          "name": "",
          "type": "string"
        }
      ],
      "stateMutability": "payable",
      "type": "function"
    },
    {
      "inputs": [],
      "name": "mockFunctionNonPayable",
      "outputs": [
        {
          "internalType": "string",
          "name": "",
          "type": "string"
        }
      ],
      "stateMutability": "nonpayable",
      "type": "function"
    },
    {
      "inputs": [],
      "name": "mockFunctionOutOfGas",
      "outputs": [],
      "stateMutability": "payable",
      "type": "function"
    },
    {
      "inputs": [],
      "name": "mockFunctionRevertsNoReason",
      "outputs": [],
      "stateMutability": "payable",
      "type": "function"
    },
    {
      "inputs": [],
      "name": "mockFunctionRevertsReason",
      "outputs": [],
      "stateMutability": "payable",
      "type": "function"
    },
    {
      "inputs": [],
      "name": "mockFunctionThrows",
      "outputs": [],
      "stateMutability": "payable",
      "type": "function"
    },
    {
      "inputs": [
        {
          "internalType": "uint256",
          "name": "a",
          "type": "uint256"
        },
        {
          "internalType": "uint256",
          "name": "b",
          "type": "uint256"
        }
      ],
      "name": "mockFunctionWithArgs",
      "outputs": [
        {
          "internalType": "string",
          "name": "",
          "type": "string"
        }
      ],
      "stateMutability": "payable",
      "type": "function"
    },
    {
      "inputs": [],
      "name": "mockFunctionWritesStorage",
      "outputs": [
        {
          "internalType": "string",
          "name": "",
          "type": "string"
        }
      ],
      "stateMutability": "nonpayable",
      "type": "function"
    },
    {
      "inputs": [],
      "name": "mockStaticFunction",
      "outputs": [
        {
          "internalType": "string",
          "name": "",
          "type": "string"
        }
      ],
      "stateMutability": "pure",
      "type": "function"
    },
    {
      "inputs": [],
      "name": "sharedAnswer",
      "outputs": [
        {
          "internalType": "string",
          "name": "",
          "type": "string"
        }
      ],
      "stateMutability": "view",
      "type": "function"
    }
  ],
  "bytecode": "0x608060405234801561001057600080fd5b50610a98806100206000396000f3fe6080604052600436106100915760003560e01c8063a793ab4711610059578063a793ab47146100fd578063aa04f77e14610107578063c8fc769614610132578063fc40cf731461015d578063fdb273251461018857610091565b80630c034968146100965780630f63e42c146100a05780632c81d638146100cb5780633bcfaa14146100d55780633e6fec04146100df575b600080fd5b61009e6101b8565b005b3480156100ac57600080fd5b506100b56101f3565b6040516100c2919061056e565b60405180910390f35b6100d361025c565b005b6100dd610261565b005b6100e7610272565b6040516100f4919061056e565b60405180910390f35b6101056102db565b005b34801561011357600080fd5b5061011c610318565b604051610129919061056e565b60405180910390f35b34801561013e57600080fd5b5061014761039a565b604051610154919061056e565b60405180910390f35b34801561016957600080fd5b506101726103d7565b60405161017f919061056e565b60405180910390f35b6101a2600480360381019061019d91906105cb565b610465565b6040516101af919061056e565b60405180910390f35b6040517f08c379a00000000000000000000000000000000000000000000000000000000081526004016101ea90610657565b60405180910390fd5b60607f52c66ed6ec9ca819cba26fe2b2650059270d8981b295af300187a964f54a8c2360405160405180910390a16040518060400160405280600681526020017f3078313233340000000000000000000000000000000000000000000000000000815250905090565b600080fd5b60006102705761026f610677565b5b565b60607f52c66ed6ec9ca819cba26fe2b2650059270d8981b295af300187a964f54a8c2360405160405180910390a16040518060400160405280600681526020017f3078313233340000000000000000000000000000000000000000000000000000815250905090565b60005b600181908060018154018082558091505060019003906000526020600020016000909190919091505580610311906106d5565b90506102de565b60606040518060400160405280600281526020017f34320000000000000000000000000000000000000000000000000000000000008152506000908161035e9190610958565b506040518060400160405280600681526020017f3078313233340000000000000000000000000000000000000000000000000000815250905090565b60606040518060400160405280600681526020017f3078313233340000000000000000000000000000000000000000000000000000815250905090565b600080546103e49061077b565b80601f01602080910402602001604051908101604052809291908181526020018280546104109061077b565b801561045d5780601f106104325761010080835404028352916020019161045d565b820191906000526020600020905b81548152906001019060200180831161044057829003601f168201915b505050505081565b60607f2b42b3c9af4187c86225f201736204c7597312c830cb5c2537dff6ef24b946ae8383604051610498929190610a39565b60405180910390a16040518060400160405280600681526020017f3078313233340000000000000000000000000000000000000000000000000000815250905092915050565b600081519050919050565b600082825260208201905092915050565b60005b838110156105185780820151818401526020810190506104fd565b60008484015250505050565b6000601f19601f8301169050919050565b6000610540826104de565b61054a81856104e9565b935061055a8185602086016104fa565b61056381610524565b840191505092915050565b600060208201905081810360008301526105888184610535565b905092915050565b600080fd5b6000819050919050565b6105a881610595565b81146105b357600080fd5b50565b6000813590506105c58161059f565b92915050565b600080604083850312156105e2576105e1610590565b5b60006105f0858286016105b6565b9250506020610601858286016105b6565b9150509250929050565b7f43616c6c52656365697665724d6f636b3a20726576657274696e670000000000600082015250565b6000610641601b836104e9565b915061064c8261060b565b602082019050919050565b6000602082019050818103600083015261067081610634565b9050919050565b7f4e487b7100000000000000000000000000000000000000000000000000000000600052600160045260246000fd5b7f4e487b7100000000000000000000000000000000000000000000000000000000600052601160045260246000fd5b60006106e082610595565b91507fffffffffffffffffffffffffffffffffffffffffffffffffffffffffffffffff8203610712576107116106a6565b5b600182019050919050565b7f4e487b7100000000000000000000000000000000000000000000000000000000600052604160045260246000fd5b7f4e487b7100000000000000000000000000000000000000000000000000000000600052602260045260246000fd5b6000600282049050600182168061079357607f821691505b6020821081036107a6576107a561074c565b5b50919050565b60008190508160005260206000209050919050565b60006020601f8301049050919050565b600082821b905092915050565b60006008830261080e7fffffffffffffffffffffffffffffffffffffffffffffffffffffffffffffffff826107d1565b61081886836107d1565b95508019841693508086168417925050509392505050565b6000819050919050565b600061085561085061084b84610595565b610830565b610595565b9050919050565b6000819050919050565b61086f8361083a565b61088361087b8261085c565b8484546107de565b825550505050565b600090565b61089861088b565b6108a3818484610866565b505050565b5b818110156108c7576108bc600082610890565b6001810190506108a9565b5050565b601f82111561090c576108dd816107ac565b6108e6846107c1565b810160208510156108f5578190505b610909610901856107c1565b8301826108a8565b50505b505050565b600082821c905092915050565b600061092f60001984600802610911565b1980831691505092915050565b6000610948838361091e565b9150826002028217905092915050565b610961826104de565b67ffffffffffffffff81111561097a5761097961071d565b5b610984825461077b565b61098f8282856108cb565b600060209050601f8311600181146109c257600084156109b0578287015190505b6109ba858261093c565b865550610a22565b601f1984166109d0866107ac565b60005b828110156109f8578489015182556001820191506020850194506020810190506109d3565b86831015610a155784890151610a11601f89168261091e565b8355505b6001600288020188555050505b505050505050565b610a3381610595565b82525050565b6000604082019050610a4e6000830185610a2a565b610a5b6020830184610a2a565b939250505056fea2646970667358221220f5fc9903dccd47a50fbfa1e5ab5bbb1b6340b525c18369ca537a5080de8fc2e464736f6c63430008110033",
  "linkReferences": {},
  "deployedLinkReferences": {}
}