{
  "_format": "hh-sol-artifact-1",
  "contractName": "ERC777Mock",
  "sourceName": "contracts/mocks/ERC777Mock.sol",
  "abi": [
    {
      "inputs": [
        {
          "internalType": "address",
          "name": "initialHolder",
          "type": "address"
        },
        {
          "internalType": "uint256",
          "name": "initialBalance",
          "type": "uint256"
        },
        {
          "internalType": "string",
          "name": "name",
          "type": "string"
        },
        {
          "internalType": "string",
          "name": "symbol",
          "type": "string"
        },
        {
          "internalType": "address[]",
          "name": "defaultOperators",
          "type": "address[]"
        }
      ],
      "stateMutability": "nonpayable",
      "type": "constructor"
    },
    {
      "anonymous": false,
      "inputs": [
        {
          "indexed": true,
          "internalType": "address",
          "name": "owner",
          "type": "address"
        },
        {
          "indexed": true,
          "internalType": "address",
          "name": "spender",
          "type": "address"
        },
        {
          "indexed": false,
          "internalType": "uint256",
          "name": "value",
          "type": "uint256"
        }
      ],
      "name": "Approval",
      "type": "event"
    },
    {
      "anonymous": false,
      "inputs": [
        {
          "indexed": true,
          "internalType": "address",
          "name": "operator",
          "type": "address"
        },
        {
          "indexed": true,
          "internalType": "address",
          "name": "tokenHolder",
          "type": "address"
        }
      ],
      "name": "AuthorizedOperator",
      "type": "event"
    },
    {
      "anonymous": false,
      "inputs": [],
      "name": "BeforeTokenTransfer",
      "type": "event"
    },
    {
      "anonymous": false,
      "inputs": [
        {
          "indexed": true,
          "internalType": "address",
          "name": "operator",
          "type": "address"
        },
        {
          "indexed": true,
          "internalType": "address",
          "name": "from",
          "type": "address"
        },
        {
          "indexed": false,
          "internalType": "uint256",
          "name": "amount",
          "type": "uint256"
        },
        {
          "indexed": false,
          "internalType": "bytes",
          "name": "data",
          "type": "bytes"
        },
        {
          "indexed": false,
          "internalType": "bytes",
          "name": "operatorData",
          "type": "bytes"
        }
      ],
      "name": "Burned",
      "type": "event"
    },
    {
      "anonymous": false,
      "inputs": [
        {
          "indexed": true,
          "internalType": "address",
          "name": "operator",
          "type": "address"
        },
        {
          "indexed": true,
          "internalType": "address",
          "name": "to",
          "type": "address"
        },
        {
          "indexed": false,
          "internalType": "uint256",
          "name": "amount",
          "type": "uint256"
        },
        {
          "indexed": false,
          "internalType": "bytes",
          "name": "data",
          "type": "bytes"
        },
        {
          "indexed": false,
          "internalType": "bytes",
          "name": "operatorData",
          "type": "bytes"
        }
      ],
      "name": "Minted",
      "type": "event"
    },
    {
      "anonymous": false,
      "inputs": [
        {
          "indexed": true,
          "internalType": "address",
          "name": "operator",
          "type": "address"
        },
        {
          "indexed": true,
          "internalType": "address",
          "name": "tokenHolder",
          "type": "address"
        }
      ],
      "name": "RevokedOperator",
      "type": "event"
    },
    {
      "anonymous": false,
      "inputs": [
        {
          "indexed": true,
          "internalType": "address",
          "name": "operator",
          "type": "address"
        },
        {
          "indexed": true,
          "internalType": "address",
          "name": "from",
          "type": "address"
        },
        {
          "indexed": true,
          "internalType": "address",
          "name": "to",
          "type": "address"
        },
        {
          "indexed": false,
          "internalType": "uint256",
          "name": "amount",
          "type": "uint256"
        },
        {
          "indexed": false,
          "internalType": "bytes",
          "name": "data",
          "type": "bytes"
        },
        {
          "indexed": false,
          "internalType": "bytes",
          "name": "operatorData",
          "type": "bytes"
        }
      ],
      "name": "Sent",
      "type": "event"
    },
    {
      "anonymous": false,
      "inputs": [
        {
          "indexed": true,
          "internalType": "address",
          "name": "from",
          "type": "address"
        },
        {
          "indexed": true,
          "internalType": "address",
          "name": "to",
          "type": "address"
        },
        {
          "indexed": false,
          "internalType": "uint256",
          "name": "value",
          "type": "uint256"
        }
      ],
      "name": "Transfer",
      "type": "event"
    },
    {
      "inputs": [
        {
          "internalType": "address",
          "name": "holder",
          "type": "address"
        },
        {
          "internalType": "address",
          "name": "spender",
          "type": "address"
        }
      ],
      "name": "allowance",
      "outputs": [
        {
          "internalType": "uint256",
          "name": "",
          "type": "uint256"
        }
      ],
      "stateMutability": "view",
      "type": "function"
    },
    {
      "inputs": [
        {
          "internalType": "address",
          "name": "spender",
          "type": "address"
        },
        {
          "internalType": "uint256",
          "name": "value",
          "type": "uint256"
        }
      ],
      "name": "approve",
      "outputs": [
        {
          "internalType": "bool",
          "name": "",
          "type": "bool"
        }
      ],
      "stateMutability": "nonpayable",
      "type": "function"
    },
    {
      "inputs": [
        {
          "internalType": "address",
          "name": "holder",
          "type": "address"
        },
        {
          "internalType": "address",
          "name": "spender",
          "type": "address"
        },
        {
          "internalType": "uint256",
          "name": "value",
          "type": "uint256"
        }
      ],
      "name": "approveInternal",
      "outputs": [],
      "stateMutability": "nonpayable",
      "type": "function"
    },
    {
      "inputs": [
        {
          "internalType": "address",
          "name": "operator",
          "type": "address"
        }
      ],
      "name": "authorizeOperator",
      "outputs": [],
      "stateMutability": "nonpayable",
      "type": "function"
    },
    {
      "inputs": [
        {
          "internalType": "address",
          "name": "tokenHolder",
          "type": "address"
        }
      ],
      "name": "balanceOf",
      "outputs": [
        {
          "internalType": "uint256",
          "name": "",
          "type": "uint256"
        }
      ],
      "stateMutability": "view",
      "type": "function"
    },
    {
      "inputs": [
        {
          "internalType": "uint256",
          "name": "amount",
          "type": "uint256"
        },
        {
          "internalType": "bytes",
          "name": "data",
          "type": "bytes"
        }
      ],
      "name": "burn",
      "outputs": [],
      "stateMutability": "nonpayable",
      "type": "function"
    },
    {
      "inputs": [],
      "name": "decimals",
      "outputs": [
        {
          "internalType": "uint8",
          "name": "",
          "type": "uint8"
        }
      ],
      "stateMutability": "pure",
      "type": "function"
    },
    {
      "inputs": [],
      "name": "defaultOperators",
      "outputs": [
        {
          "internalType": "address[]",
          "name": "",
          "type": "address[]"
        }
      ],
      "stateMutability": "view",
      "type": "function"
    },
    {
      "inputs": [],
      "name": "granularity",
      "outputs": [
        {
          "internalType": "uint256",
          "name": "",
          "type": "uint256"
        }
      ],
      "stateMutability": "view",
      "type": "function"
    },
    {
      "inputs": [
        {
          "internalType": "address",
          "name": "operator",
          "type": "address"
        },
        {
          "internalType": "address",
          "name": "tokenHolder",
          "type": "address"
        }
      ],
      "name": "isOperatorFor",
      "outputs": [
        {
          "internalType": "bool",
          "name": "",
          "type": "bool"
        }
      ],
      "stateMutability": "view",
      "type": "function"
    },
    {
      "inputs": [
        {
          "internalType": "address",
          "name": "to",
          "type": "address"
        },
        {
          "internalType": "uint256",
          "name": "amount",
          "type": "uint256"
        },
        {
          "internalType": "bytes",
          "name": "userData",
          "type": "bytes"
        },
        {
          "internalType": "bytes",
          "name": "operatorData",
          "type": "bytes"
        }
      ],
      "name": "mintInternal",
      "outputs": [],
      "stateMutability": "nonpayable",
      "type": "function"
    },
    {
      "inputs": [
        {
          "internalType": "address",
          "name": "to",
          "type": "address"
        },
        {
          "internalType": "uint256",
          "name": "amount",
          "type": "uint256"
        },
        {
          "internalType": "bytes",
          "name": "userData",
          "type": "bytes"
        },
        {
          "internalType": "bytes",
          "name": "operatorData",
          "type": "bytes"
        },
        {
          "internalType": "bool",
          "name": "requireReceptionAck",
          "type": "bool"
        }
      ],
      "name": "mintInternalExtended",
      "outputs": [],
      "stateMutability": "nonpayable",
      "type": "function"
    },
    {
      "inputs": [],
      "name": "name",
      "outputs": [
        {
          "internalType": "string",
          "name": "",
          "type": "string"
        }
      ],
      "stateMutability": "view",
      "type": "function"
    },
    {
      "inputs": [
        {
          "internalType": "address",
          "name": "account",
          "type": "address"
        },
        {
          "internalType": "uint256",
          "name": "amount",
          "type": "uint256"
        },
        {
          "internalType": "bytes",
          "name": "data",
          "type": "bytes"
        },
        {
          "internalType": "bytes",
          "name": "operatorData",
          "type": "bytes"
        }
      ],
      "name": "operatorBurn",
      "outputs": [],
      "stateMutability": "nonpayable",
      "type": "function"
    },
    {
      "inputs": [
        {
          "internalType": "address",
          "name": "sender",
          "type": "address"
        },
        {
          "internalType": "address",
          "name": "recipient",
          "type": "address"
        },
        {
          "internalType": "uint256",
          "name": "amount",
          "type": "uint256"
        },
        {
          "internalType": "bytes",
          "name": "data",
          "type": "bytes"
        },
        {
          "internalType": "bytes",
          "name": "operatorData",
          "type": "bytes"
        }
      ],
      "name": "operatorSend",
      "outputs": [],
      "stateMutability": "nonpayable",
      "type": "function"
    },
    {
      "inputs": [
        {
          "internalType": "address",
          "name": "operator",
          "type": "address"
        }
      ],
      "name": "revokeOperator",
      "outputs": [],
      "stateMutability": "nonpayable",
      "type": "function"
    },
    {
      "inputs": [
        {
          "internalType": "address",
          "name": "recipient",
          "type": "address"
        },
        {
          "internalType": "uint256",
          "name": "amount",
          "type": "uint256"
        },
        {
          "internalType": "bytes",
          "name": "data",
          "type": "bytes"
        }
      ],
      "name": "send",
      "outputs": [],
      "stateMutability": "nonpayable",
      "type": "function"
    },
    {
      "inputs": [],
      "name": "symbol",
      "outputs": [
        {
          "internalType": "string",
          "name": "",
          "type": "string"
        }
      ],
      "stateMutability": "view",
      "type": "function"
    },
    {
      "inputs": [],
      "name": "totalSupply",
      "outputs": [
        {
          "internalType": "uint256",
          "name": "",
          "type": "uint256"
        }
      ],
      "stateMutability": "view",
      "type": "function"
    },
    {
      "inputs": [
        {
          "internalType": "address",
          "name": "recipient",
          "type": "address"
        },
        {
          "internalType": "uint256",
          "name": "amount",
          "type": "uint256"
        }
      ],
      "name": "transfer",
      "outputs": [
        {
          "internalType": "bool",
          "name": "",
          "type": "bool"
        }
      ],
      "stateMutability": "nonpayable",
      "type": "function"
    },
    {
      "inputs": [
        {
          "internalType": "address",
          "name": "holder",
          "type": "address"
        },
        {
          "internalType": "address",
          "name": "recipient",
          "type": "address"
        },
        {
          "internalType": "uint256",
          "name": "amount",
          "type": "uint256"
        }
      ],
      "name": "transferFrom",
      "outputs": [
        {
          "internalType": "bool",
          "name": "",
          "type": "bool"
        }
      ],
      "stateMutability": "nonpayable",
      "type": "function"
    }
  ],
  "bytecode": "0x60806040523480156200001157600080fd5b50604051620041af380380620041af833981810160405281019062000037919062000ac1565b82828282600290816200004b919062000de7565b5081600390816200005d919062000de7565b5080600490805190602001906200007692919062000705565b5060005b81518110156200010f57600160056000848481518110620000a0576200009f62000ece565b5b602002602001015173ffffffffffffffffffffffffffffffffffffffff1673ffffffffffffffffffffffffffffffffffffffff16815260200190815260200160002060006101000a81548160ff0219169083151502179055508080620001069062000f2c565b9150506200007a565b50731820a4b7618bde71dce8cdc73aab6c95905fad2473ffffffffffffffffffffffffffffffffffffffff166329965a1d307fac7fbab5f54a3ca8194167523c6753bfeb96a445279294b6125b68cce2177054306040518463ffffffff1660e01b8152600401620001839392919062000fa5565b600060405180830381600087803b1580156200019e57600080fd5b505af1158015620001b3573d6000803e3d6000fd5b50505050731820a4b7618bde71dce8cdc73aab6c95905fad2473ffffffffffffffffffffffffffffffffffffffff166329965a1d307faea199e31a596269b42cdafd93407f14436db6e4cad65417994c2eb37381e05a306040518463ffffffff1660e01b81526004016200022a9392919062000fa5565b600060405180830381600087803b1580156200024557600080fd5b505af11580156200025a573d6000803e3d6000fd5b5050505050505062000293858560405180602001604052806000815250604051806020016040528060008152506200029e60201b60201c565b50505050506200130e565b620002b4848484846001620002ba60201b60201c565b50505050565b600073ffffffffffffffffffffffffffffffffffffffff168573ffffffffffffffffffffffffffffffffffffffff16036200032c576040517f08c379a0000000000000000000000000000000000000000000000000000000008152600401620003239062001043565b60405180910390fd5b60006200033e620004ba60201b60201c565b9050620003558160008888620004c260201b60201c565b846001600082825462000369919062001065565b92505081905550846000808873ffffffffffffffffffffffffffffffffffffffff1673ffffffffffffffffffffffffffffffffffffffff1681526020019081526020016000206000828254620003c0919062001065565b92505081905550620003df8160008888888888620004f460201b60201c565b8573ffffffffffffffffffffffffffffffffffffffff168173ffffffffffffffffffffffffffffffffffffffff167f2fe5be0146f74c5bce36c0b80911af6c7d86ff27e89d5cfa61fc681327954e5d87878760405162000442939291906200110e565b60405180910390a38573ffffffffffffffffffffffffffffffffffffffff16600073ffffffffffffffffffffffffffffffffffffffff167fddf252ad1be2c89b69c2b068fc378daa952ba7f163c4a11628f55a4df523b3ef87604051620004aa919062001159565b60405180910390a3505050505050565b600033905090565b7f52316ab8e8b0687ce803e403dfe429541bccd4f6c4683ec65d254d382f15a26560405160405180910390a150505050565b6000731820a4b7618bde71dce8cdc73aab6c95905fad2473ffffffffffffffffffffffffffffffffffffffff1663aabbb8ca877fb281fc8c12954d22544db45de3159a39272895b169a852b314f9cc762e44c53b6040518363ffffffff1660e01b81526004016200056792919062001176565b602060405180830381865afa15801562000585573d6000803e3d6000fd5b505050506040513d601f19601f82011682018060405250810190620005ab9190620011a3565b9050600073ffffffffffffffffffffffffffffffffffffffff168173ffffffffffffffffffffffffffffffffffffffff161462000660578073ffffffffffffffffffffffffffffffffffffffff166223de298989898989896040518763ffffffff1660e01b81526004016200062696959493929190620011d5565b600060405180830381600087803b1580156200064157600080fd5b505af115801562000656573d6000803e3d6000fd5b50505050620006d8565b8115620006d757620006938673ffffffffffffffffffffffffffffffffffffffff16620006e260201b62000f1c1760201c565b15620006d6576040517f08c379a0000000000000000000000000000000000000000000000000000000008152600401620006cd90620012ec565b60405180910390fd5b5b5b5050505050505050565b6000808273ffffffffffffffffffffffffffffffffffffffff163b119050919050565b82805482825590600052602060002090810192821562000781579160200282015b82811115620007805782518260006101000a81548173ffffffffffffffffffffffffffffffffffffffff021916908373ffffffffffffffffffffffffffffffffffffffff1602179055509160200191906001019062000726565b5b50905062000790919062000794565b5090565b5b80821115620007af57600081600090555060010162000795565b5090565b6000604051905090565b600080fd5b600080fd5b600073ffffffffffffffffffffffffffffffffffffffff82169050919050565b6000620007f482620007c7565b9050919050565b6200080681620007e7565b81146200081257600080fd5b50565b6000815190506200082681620007fb565b92915050565b6000819050919050565b62000841816200082c565b81146200084d57600080fd5b50565b600081519050620008618162000836565b92915050565b600080fd5b600080fd5b6000601f19601f8301169050919050565b7f4e487b7100000000000000000000000000000000000000000000000000000000600052604160045260246000fd5b620008bc8262000871565b810181811067ffffffffffffffff82111715620008de57620008dd62000882565b5b80604052505050565b6000620008f3620007b3565b9050620009018282620008b1565b919050565b600067ffffffffffffffff82111562000924576200092362000882565b5b6200092f8262000871565b9050602081019050919050565b60005b838110156200095c5780820151818401526020810190506200093f565b60008484015250505050565b60006200097f620009798462000906565b620008e7565b9050828152602081018484840111156200099e576200099d6200086c565b5b620009ab8482856200093c565b509392505050565b600082601f830112620009cb57620009ca62000867565b5b8151620009dd84826020860162000968565b91505092915050565b600067ffffffffffffffff82111562000a045762000a0362000882565b5b602082029050602081019050919050565b600080fd5b600062000a3162000a2b84620009e6565b620008e7565b9050808382526020820190506020840283018581111562000a575762000a5662000a15565b5b835b8181101562000a84578062000a6f888262000815565b84526020840193505060208101905062000a59565b5050509392505050565b600082601f83011262000aa65762000aa562000867565b5b815162000ab884826020860162000a1a565b91505092915050565b600080600080600060a0868803121562000ae05762000adf620007bd565b5b600062000af08882890162000815565b955050602062000b038882890162000850565b945050604086015167ffffffffffffffff81111562000b275762000b26620007c2565b5b62000b3588828901620009b3565b935050606086015167ffffffffffffffff81111562000b595762000b58620007c2565b5b62000b6788828901620009b3565b925050608086015167ffffffffffffffff81111562000b8b5762000b8a620007c2565b5b62000b998882890162000a8e565b9150509295509295909350565b600081519050919050565b7f4e487b7100000000000000000000000000000000000000000000000000000000600052602260045260246000fd5b6000600282049050600182168062000bf957607f821691505b60208210810362000c0f5762000c0e62000bb1565b5b50919050565b60008190508160005260206000209050919050565b60006020601f8301049050919050565b600082821b905092915050565b60006008830262000c797fffffffffffffffffffffffffffffffffffffffffffffffffffffffffffffffff8262000c3a565b62000c85868362000c3a565b95508019841693508086168417925050509392505050565b6000819050919050565b600062000cc862000cc262000cbc846200082c565b62000c9d565b6200082c565b9050919050565b6000819050919050565b62000ce48362000ca7565b62000cfc62000cf38262000ccf565b84845462000c47565b825550505050565b600090565b62000d1362000d04565b62000d2081848462000cd9565b505050565b5b8181101562000d485762000d3c60008262000d09565b60018101905062000d26565b5050565b601f82111562000d975762000d618162000c15565b62000d6c8462000c2a565b8101602085101562000d7c578190505b62000d9462000d8b8562000c2a565b83018262000d25565b50505b505050565b600082821c905092915050565b600062000dbc6000198460080262000d9c565b1980831691505092915050565b600062000dd7838362000da9565b9150826002028217905092915050565b62000df28262000ba6565b67ffffffffffffffff81111562000e0e5762000e0d62000882565b5b62000e1a825462000be0565b62000e2782828562000d4c565b600060209050601f83116001811462000e5f576000841562000e4a578287015190505b62000e56858262000dc9565b86555062000ec6565b601f19841662000e6f8662000c15565b60005b8281101562000e995784890151825560018201915060208501945060208101905062000e72565b8683101562000eb9578489015162000eb5601f89168262000da9565b8355505b6001600288020188555050505b505050505050565b7f4e487b7100000000000000000000000000000000000000000000000000000000600052603260045260246000fd5b7f4e487b7100000000000000000000000000000000000000000000000000000000600052601160045260246000fd5b600062000f39826200082c565b91507fffffffffffffffffffffffffffffffffffffffffffffffffffffffffffffffff820362000f6e5762000f6d62000efd565b5b600182019050919050565b62000f8481620007e7565b82525050565b6000819050919050565b62000f9f8162000f8a565b82525050565b600060608201905062000fbc600083018662000f79565b62000fcb602083018562000f94565b62000fda604083018462000f79565b949350505050565b600082825260208201905092915050565b7f4552433737373a206d696e7420746f20746865207a65726f2061646472657373600082015250565b60006200102b60208362000fe2565b9150620010388262000ff3565b602082019050919050565b600060208201905081810360008301526200105e816200101c565b9050919050565b600062001072826200082c565b91506200107f836200082c565b92508282019050808211156200109a576200109962000efd565b5b92915050565b620010ab816200082c565b82525050565b600081519050919050565b600082825260208201905092915050565b6000620010da82620010b1565b620010e68185620010bc565b9350620010f88185602086016200093c565b620011038162000871565b840191505092915050565b6000606082019050620011256000830186620010a0565b8181036020830152620011398185620010cd565b905081810360408301526200114f8184620010cd565b9050949350505050565b6000602082019050620011706000830184620010a0565b92915050565b60006040820190506200118d600083018562000f79565b6200119c602083018462000f94565b9392505050565b600060208284031215620011bc57620011bb620007bd565b5b6000620011cc8482850162000815565b91505092915050565b600060c082019050620011ec600083018962000f79565b620011fb602083018862000f79565b6200120a604083018762000f79565b620012196060830186620010a0565b81810360808301526200122d8185620010cd565b905081810360a0830152620012438184620010cd565b9050979650505050505050565b7f4552433737373a20746f6b656e20726563697069656e7420636f6e747261637460008201527f20686173206e6f20696d706c656d656e74657220666f7220455243373737546f60208201527f6b656e73526563697069656e7400000000000000000000000000000000000000604082015250565b6000620012d4604d8362000fe2565b9150620012e18262001250565b606082019050919050565b600060208201905081810360008301526200130781620012c5565b9050919050565b612e91806200131e6000396000f3fe608060405234801561001057600080fd5b50600436106101375760003560e01c8063959b8c3f116100b8578063cfbfab0b1161007c578063cfbfab0b1461033c578063d95b637114610358578063dd62ed3e14610388578063fad8b32a146103b8578063fc673c4f146103d4578063fe9d9303146103f057610137565b8063959b8c3f1461029a57806395d89b41146102b65780639bd9bbc6146102d4578063a9059cbb146102f0578063b1f0b5be1461032057610137565b8063313ce567116100ff578063313ce567146101f6578063556f0dc71461021457806356189cb41461023257806362ad1b831461024e57806370a082311461026a57610137565b806306e485381461013c57806306fdde031461015a578063095ea7b31461017857806318160ddd146101a857806323b872dd146101c6575b600080fd5b61014461040c565b6040516101519190611d72565b60405180910390f35b61016261049a565b60405161016f9190611e24565b60405180910390f35b610192600480360381019061018d9190611ebc565b61052c565b60405161019f9190611f17565b60405180910390f35b6101b061054f565b6040516101bd9190611f41565b60405180910390f35b6101e060048036038101906101db9190611f5c565b610559565b6040516101ed9190611f17565b60405180910390f35b6101fe6105aa565b60405161020b9190611fcb565b60405180910390f35b61021c6105b3565b6040516102299190611f41565b60405180910390f35b61024c60048036038101906102479190611f5c565b6105bc565b005b6102686004803603810190610263919061211b565b6105cc565b005b610284600480360381019061027f91906121ce565b610632565b6040516102919190611f41565b60405180910390f35b6102b460048036038101906102af91906121ce565b61067a565b005b6102be6108da565b6040516102cb9190611e24565b60405180910390f35b6102ee60048036038101906102e991906121fb565b61096c565b005b61030a60048036038101906103059190611ebc565b610996565b6040516103179190611f17565b60405180910390f35b61033a6004803603810190610335919061226a565b6109d6565b005b61035660048036038101906103519190612335565b6109e8565b005b610372600480360381019061036d91906123e8565b6109fc565b60405161037f9190611f17565b60405180910390f35b6103a2600480360381019061039d91906123e8565b610bad565b6040516103af9190611f41565b60405180910390f35b6103d260048036038101906103cd91906121ce565b610c34565b005b6103ee60048036038101906103e9919061226a565b610e94565b005b61040a60048036038101906104059190612428565b610ef6565b005b6060600480548060200260200160405190810160405280929190818152602001828054801561049057602002820191906000526020600020905b8160009054906101000a900473ffffffffffffffffffffffffffffffffffffffff1673ffffffffffffffffffffffffffffffffffffffff1681526020019060010190808311610446575b5050505050905090565b6060600280546104a9906124b3565b80601f01602080910402602001604051908101604052809291908181526020018280546104d5906124b3565b80156105225780601f106104f757610100808354040283529160200191610522565b820191906000526020600020905b81548152906001019060200180831161050557829003601f168201915b5050505050905090565b600080610537610f3f565b9050610544818585610f47565b600191505092915050565b6000600154905090565b600080610564610f3f565b9050610571858285611110565b61059e8585856040518060200160405280600081525060405180602001604052806000815250600061119c565b60019150509392505050565b60006012905090565b60006001905090565b6105c7838383610f47565b505050565b6105dd6105d7610f3f565b866109fc565b61061c576040517f08c379a000000000000000000000000000000000000000000000000000000000815260040161061390612556565b60405180910390fd5b61062b8585858585600161119c565b5050505050565b60008060008373ffffffffffffffffffffffffffffffffffffffff1673ffffffffffffffffffffffffffffffffffffffff168152602001908152602001600020549050919050565b8073ffffffffffffffffffffffffffffffffffffffff16610699610f3f565b73ffffffffffffffffffffffffffffffffffffffff16036106ef576040517f08c379a00000000000000000000000000000000000000000000000000000000081526004016106e6906125e8565b60405180910390fd5b600560008273ffffffffffffffffffffffffffffffffffffffff1673ffffffffffffffffffffffffffffffffffffffff16815260200190815260200160002060009054906101000a900460ff16156107d9576007600061074d610f3f565b73ffffffffffffffffffffffffffffffffffffffff1673ffffffffffffffffffffffffffffffffffffffff16815260200190815260200160002060008273ffffffffffffffffffffffffffffffffffffffff1673ffffffffffffffffffffffffffffffffffffffff16815260200190815260200160002060006101000a81549060ff0219169055610876565b6001600660006107e7610f3f565b73ffffffffffffffffffffffffffffffffffffffff1673ffffffffffffffffffffffffffffffffffffffff16815260200190815260200160002060008373ffffffffffffffffffffffffffffffffffffffff1673ffffffffffffffffffffffffffffffffffffffff16815260200190815260200160002060006101000a81548160ff0219169083151502179055505b61087e610f3f565b73ffffffffffffffffffffffffffffffffffffffff168173ffffffffffffffffffffffffffffffffffffffff167ff4caeb2d6ca8932a215a353d0703c326ec2d81fc68170f320eb2ab49e9df61f960405160405180910390a350565b6060600380546108e9906124b3565b80601f0160208091040260200160405190810160405280929190818152602001828054610915906124b3565b80156109625780601f1061093757610100808354040283529160200191610962565b820191906000526020600020905b81548152906001019060200180831161094557829003601f168201915b5050505050905090565b610991610977610f3f565b84848460405180602001604052806000815250600161119c565b505050565b60006109cc6109a3610f3f565b84846040518060200160405280600081525060405180602001604052806000815250600061119c565b6001905092915050565b6109e2848484846112ba565b50505050565b6109f585858585856112ce565b5050505050565b60008173ffffffffffffffffffffffffffffffffffffffff168373ffffffffffffffffffffffffffffffffffffffff161480610b145750600560008473ffffffffffffffffffffffffffffffffffffffff1673ffffffffffffffffffffffffffffffffffffffff16815260200190815260200160002060009054906101000a900460ff168015610b135750600760008373ffffffffffffffffffffffffffffffffffffffff1673ffffffffffffffffffffffffffffffffffffffff16815260200190815260200160002060008473ffffffffffffffffffffffffffffffffffffffff1673ffffffffffffffffffffffffffffffffffffffff16815260200190815260200160002060009054906101000a900460ff16155b5b80610ba55750600660008373ffffffffffffffffffffffffffffffffffffffff1673ffffffffffffffffffffffffffffffffffffffff16815260200190815260200160002060008473ffffffffffffffffffffffffffffffffffffffff1673ffffffffffffffffffffffffffffffffffffffff16815260200190815260200160002060009054906101000a900460ff165b905092915050565b6000600860008473ffffffffffffffffffffffffffffffffffffffff1673ffffffffffffffffffffffffffffffffffffffff16815260200190815260200160002060008373ffffffffffffffffffffffffffffffffffffffff1673ffffffffffffffffffffffffffffffffffffffff16815260200190815260200160002054905092915050565b610c3c610f3f565b73ffffffffffffffffffffffffffffffffffffffff168173ffffffffffffffffffffffffffffffffffffffff1603610ca9576040517f08c379a0000000000000000000000000000000000000000000000000000000008152600401610ca09061267a565b60405180910390fd5b600560008273ffffffffffffffffffffffffffffffffffffffff1673ffffffffffffffffffffffffffffffffffffffff16815260200190815260200160002060009054906101000a900460ff1615610d9c57600160076000610d09610f3f565b73ffffffffffffffffffffffffffffffffffffffff1673ffffffffffffffffffffffffffffffffffffffff16815260200190815260200160002060008373ffffffffffffffffffffffffffffffffffffffff1673ffffffffffffffffffffffffffffffffffffffff16815260200190815260200160002060006101000a81548160ff021916908315150217905550610e30565b60066000610da8610f3f565b73ffffffffffffffffffffffffffffffffffffffff1673ffffffffffffffffffffffffffffffffffffffff16815260200190815260200160002060008273ffffffffffffffffffffffffffffffffffffffff1673ffffffffffffffffffffffffffffffffffffffff16815260200190815260200160002060006101000a81549060ff02191690555b610e38610f3f565b73ffffffffffffffffffffffffffffffffffffffff168173ffffffffffffffffffffffffffffffffffffffff167f50546e66e5f44d728365dc3908c63bc5cfeeab470722c1677e3073a6ac294aa160405160405180910390a350565b610ea5610e9f610f3f565b856109fc565b610ee4576040517f08c379a0000000000000000000000000000000000000000000000000000000008152600401610edb90612556565b60405180910390fd5b610ef0848484846114ab565b50505050565b610f18610f01610f3f565b8383604051806020016040528060008152506114ab565b5050565b6000808273ffffffffffffffffffffffffffffffffffffffff163b119050919050565b600033905090565b600073ffffffffffffffffffffffffffffffffffffffff168373ffffffffffffffffffffffffffffffffffffffff1603610fb6576040517f08c379a0000000000000000000000000000000000000000000000000000000008152600401610fad9061270c565b60405180910390fd5b600073ffffffffffffffffffffffffffffffffffffffff168273ffffffffffffffffffffffffffffffffffffffff1603611025576040517f08c379a000000000000000000000000000000000000000000000000000000000815260040161101c9061279e565b60405180910390fd5b80600860008573ffffffffffffffffffffffffffffffffffffffff1673ffffffffffffffffffffffffffffffffffffffff16815260200190815260200160002060008473ffffffffffffffffffffffffffffffffffffffff1673ffffffffffffffffffffffffffffffffffffffff168152602001908152602001600020819055508173ffffffffffffffffffffffffffffffffffffffff168373ffffffffffffffffffffffffffffffffffffffff167f8c5be1e5ebec7d5bd14f71427d1e84f3dd0314c0f7b2291e5b200ac8c7c3b925836040516111039190611f41565b60405180910390a3505050565b600061111c8484610bad565b90507fffffffffffffffffffffffffffffffffffffffffffffffffffffffffffffffff81146111965781811015611188576040517f08c379a000000000000000000000000000000000000000000000000000000000815260040161117f9061280a565b60405180910390fd5b6111958484848403610f47565b5b50505050565b600073ffffffffffffffffffffffffffffffffffffffff168673ffffffffffffffffffffffffffffffffffffffff160361120b576040517f08c379a00000000000000000000000000000000000000000000000000000000081526004016112029061289c565b60405180910390fd5b600073ffffffffffffffffffffffffffffffffffffffff168573ffffffffffffffffffffffffffffffffffffffff160361127a576040517f08c379a00000000000000000000000000000000000000000000000000000000081526004016112719061292e565b60405180910390fd5b6000611284610f3f565b90506112948188888888886116fd565b6112a2818888888888611864565b6112b181888888888888611a7e565b50505050505050565b6112c88484848460016112ce565b50505050565b600073ffffffffffffffffffffffffffffffffffffffff168573ffffffffffffffffffffffffffffffffffffffff160361133d576040517f08c379a00000000000000000000000000000000000000000000000000000000081526004016113349061299a565b60405180910390fd5b6000611347610f3f565b90506113568160008888611c50565b846001600082825461136891906129e9565b92505081905550846000808873ffffffffffffffffffffffffffffffffffffffff1673ffffffffffffffffffffffffffffffffffffffff16815260200190815260200160002060008282546113bd91906129e9565b925050819055506113d48160008888888888611a7e565b8573ffffffffffffffffffffffffffffffffffffffff168173ffffffffffffffffffffffffffffffffffffffff167f2fe5be0146f74c5bce36c0b80911af6c7d86ff27e89d5cfa61fc681327954e5d87878760405161143593929190612a72565b60405180910390a38573ffffffffffffffffffffffffffffffffffffffff16600073ffffffffffffffffffffffffffffffffffffffff167fddf252ad1be2c89b69c2b068fc378daa952ba7f163c4a11628f55a4df523b3ef8760405161149b9190611f41565b60405180910390a3505050505050565b600073ffffffffffffffffffffffffffffffffffffffff168473ffffffffffffffffffffffffffffffffffffffff160361151a576040517f08c379a000000000000000000000000000000000000000000000000000000000815260040161151190612b29565b60405180910390fd5b6000611524610f3f565b9050611535818660008787876116fd565b6115428186600087611c50565b60008060008773ffffffffffffffffffffffffffffffffffffffff1673ffffffffffffffffffffffffffffffffffffffff168152602001908152602001600020549050848110156115c8576040517f08c379a00000000000000000000000000000000000000000000000000000000081526004016115bf90612bbb565b60405180910390fd5b8481036000808873ffffffffffffffffffffffffffffffffffffffff1673ffffffffffffffffffffffffffffffffffffffff16815260200190815260200160002081905550846001600082825461161f9190612bdb565b925050819055508573ffffffffffffffffffffffffffffffffffffffff168273ffffffffffffffffffffffffffffffffffffffff167fa78a9be3a7b862d26933ad85fb11d80ef66b8f972d7cbba06621d583943a409887878760405161168793929190612a72565b60405180910390a3600073ffffffffffffffffffffffffffffffffffffffff168673ffffffffffffffffffffffffffffffffffffffff167fddf252ad1be2c89b69c2b068fc378daa952ba7f163c4a11628f55a4df523b3ef876040516116ed9190611f41565b60405180910390a3505050505050565b6000731820a4b7618bde71dce8cdc73aab6c95905fad2473ffffffffffffffffffffffffffffffffffffffff1663aabbb8ca877f29ddb589b1fb5fc7cf394961c1adf5f8c6454761adf795e67fe149f658abe8956040518363ffffffff1660e01b815260040161176e929190612c37565b602060405180830381865afa15801561178b573d6000803e3d6000fd5b505050506040513d601f19601f820116820180604052508101906117af9190612c75565b9050600073ffffffffffffffffffffffffffffffffffffffff168173ffffffffffffffffffffffffffffffffffffffff161461185b578073ffffffffffffffffffffffffffffffffffffffff166375ab97828888888888886040518763ffffffff1660e01b815260040161182896959493929190612ca2565b600060405180830381600087803b15801561184257600080fd5b505af1158015611856573d6000803e3d6000fd5b505050505b50505050505050565b61187086868686611c50565b60008060008773ffffffffffffffffffffffffffffffffffffffff1673ffffffffffffffffffffffffffffffffffffffff168152602001908152602001600020549050838110156118f6576040517f08c379a00000000000000000000000000000000000000000000000000000000081526004016118ed90612d83565b60405180910390fd5b8381036000808873ffffffffffffffffffffffffffffffffffffffff1673ffffffffffffffffffffffffffffffffffffffff16815260200190815260200160002081905550836000808773ffffffffffffffffffffffffffffffffffffffff1673ffffffffffffffffffffffffffffffffffffffff168152602001908152602001600020600082825461198991906129e9565b925050819055508473ffffffffffffffffffffffffffffffffffffffff168673ffffffffffffffffffffffffffffffffffffffff168873ffffffffffffffffffffffffffffffffffffffff167f06b541ddaa720db2b10a4d0cdac39b8d360425fc073085fac19bc82614677987878787604051611a0893929190612a72565b60405180910390a48473ffffffffffffffffffffffffffffffffffffffff168673ffffffffffffffffffffffffffffffffffffffff167fddf252ad1be2c89b69c2b068fc378daa952ba7f163c4a11628f55a4df523b3ef86604051611a6d9190611f41565b60405180910390a350505050505050565b6000731820a4b7618bde71dce8cdc73aab6c95905fad2473ffffffffffffffffffffffffffffffffffffffff1663aabbb8ca877fb281fc8c12954d22544db45de3159a39272895b169a852b314f9cc762e44c53b6040518363ffffffff1660e01b8152600401611aef929190612c37565b602060405180830381865afa158015611b0c573d6000803e3d6000fd5b505050506040513d601f19601f82011682018060405250810190611b309190612c75565b9050600073ffffffffffffffffffffffffffffffffffffffff168173ffffffffffffffffffffffffffffffffffffffff1614611bdf578073ffffffffffffffffffffffffffffffffffffffff166223de298989898989896040518763ffffffff1660e01b8152600401611ba896959493929190612ca2565b600060405180830381600087803b158015611bc257600080fd5b505af1158015611bd6573d6000803e3d6000fd5b50505050611c46565b8115611c4557611c048673ffffffffffffffffffffffffffffffffffffffff16610f1c565b15611c44576040517f08c379a0000000000000000000000000000000000000000000000000000000008152600401611c3b90612e3b565b60405180910390fd5b5b5b5050505050505050565b7f52316ab8e8b0687ce803e403dfe429541bccd4f6c4683ec65d254d382f15a26560405160405180910390a150505050565b600081519050919050565b600082825260208201905092915050565b6000819050602082019050919050565b600073ffffffffffffffffffffffffffffffffffffffff82169050919050565b6000611cd982611cae565b9050919050565b611ce981611cce565b82525050565b6000611cfb8383611ce0565b60208301905092915050565b6000602082019050919050565b6000611d1f82611c82565b611d298185611c8d565b9350611d3483611c9e565b8060005b83811015611d65578151611d4c8882611cef565b9750611d5783611d07565b925050600181019050611d38565b5085935050505092915050565b60006020820190508181036000830152611d8c8184611d14565b905092915050565b600081519050919050565b600082825260208201905092915050565b60005b83811015611dce578082015181840152602081019050611db3565b60008484015250505050565b6000601f19601f8301169050919050565b6000611df682611d94565b611e008185611d9f565b9350611e10818560208601611db0565b611e1981611dda565b840191505092915050565b60006020820190508181036000830152611e3e8184611deb565b905092915050565b6000604051905090565b600080fd5b600080fd5b611e6381611cce565b8114611e6e57600080fd5b50565b600081359050611e8081611e5a565b92915050565b6000819050919050565b611e9981611e86565b8114611ea457600080fd5b50565b600081359050611eb681611e90565b92915050565b60008060408385031215611ed357611ed2611e50565b5b6000611ee185828601611e71565b9250506020611ef285828601611ea7565b9150509250929050565b60008115159050919050565b611f1181611efc565b82525050565b6000602082019050611f2c6000830184611f08565b92915050565b611f3b81611e86565b82525050565b6000602082019050611f566000830184611f32565b92915050565b600080600060608486031215611f7557611f74611e50565b5b6000611f8386828701611e71565b9350506020611f9486828701611e71565b9250506040611fa586828701611ea7565b9150509250925092565b600060ff82169050919050565b611fc581611faf565b82525050565b6000602082019050611fe06000830184611fbc565b92915050565b600080fd5b600080fd5b7f4e487b7100000000000000000000000000000000000000000000000000000000600052604160045260246000fd5b61202882611dda565b810181811067ffffffffffffffff8211171561204757612046611ff0565b5b80604052505050565b600061205a611e46565b9050612066828261201f565b919050565b600067ffffffffffffffff82111561208657612085611ff0565b5b61208f82611dda565b9050602081019050919050565b82818337600083830152505050565b60006120be6120b98461206b565b612050565b9050828152602081018484840111156120da576120d9611feb565b5b6120e584828561209c565b509392505050565b600082601f83011261210257612101611fe6565b5b81356121128482602086016120ab565b91505092915050565b600080600080600060a0868803121561213757612136611e50565b5b600061214588828901611e71565b955050602061215688828901611e71565b945050604061216788828901611ea7565b935050606086013567ffffffffffffffff81111561218857612187611e55565b5b612194888289016120ed565b925050608086013567ffffffffffffffff8111156121b5576121b4611e55565b5b6121c1888289016120ed565b9150509295509295909350565b6000602082840312156121e4576121e3611e50565b5b60006121f284828501611e71565b91505092915050565b60008060006060848603121561221457612213611e50565b5b600061222286828701611e71565b935050602061223386828701611ea7565b925050604084013567ffffffffffffffff81111561225457612253611e55565b5b612260868287016120ed565b9150509250925092565b6000806000806080858703121561228457612283611e50565b5b600061229287828801611e71565b94505060206122a387828801611ea7565b935050604085013567ffffffffffffffff8111156122c4576122c3611e55565b5b6122d0878288016120ed565b925050606085013567ffffffffffffffff8111156122f1576122f0611e55565b5b6122fd878288016120ed565b91505092959194509250565b61231281611efc565b811461231d57600080fd5b50565b60008135905061232f81612309565b92915050565b600080600080600060a0868803121561235157612350611e50565b5b600061235f88828901611e71565b955050602061237088828901611ea7565b945050604086013567ffffffffffffffff81111561239157612390611e55565b5b61239d888289016120ed565b935050606086013567ffffffffffffffff8111156123be576123bd611e55565b5b6123ca888289016120ed565b92505060806123db88828901612320565b9150509295509295909350565b600080604083850312156123ff576123fe611e50565b5b600061240d85828601611e71565b925050602061241e85828601611e71565b9150509250929050565b6000806040838503121561243f5761243e611e50565b5b600061244d85828601611ea7565b925050602083013567ffffffffffffffff81111561246e5761246d611e55565b5b61247a858286016120ed565b9150509250929050565b7f4e487b7100000000000000000000000000000000000000000000000000000000600052602260045260246000fd5b600060028204905060018216806124cb57607f821691505b6020821081036124de576124dd612484565b5b50919050565b7f4552433737373a2063616c6c6572206973206e6f7420616e206f70657261746f60008201527f7220666f7220686f6c6465720000000000000000000000000000000000000000602082015250565b6000612540602c83611d9f565b915061254b826124e4565b604082019050919050565b6000602082019050818103600083015261256f81612533565b9050919050565b7f4552433737373a20617574686f72697a696e672073656c66206173206f70657260008201527f61746f7200000000000000000000000000000000000000000000000000000000602082015250565b60006125d2602483611d9f565b91506125dd82612576565b604082019050919050565b60006020820190508181036000830152612601816125c5565b9050919050565b7f4552433737373a207265766f6b696e672073656c66206173206f70657261746f60008201527f7200000000000000000000000000000000000000000000000000000000000000602082015250565b6000612664602183611d9f565b915061266f82612608565b604082019050919050565b6000602082019050818103600083015261269381612657565b9050919050565b7f4552433737373a20617070726f76652066726f6d20746865207a65726f20616460008201527f6472657373000000000000000000000000000000000000000000000000000000602082015250565b60006126f6602583611d9f565b91506127018261269a565b604082019050919050565b60006020820190508181036000830152612725816126e9565b9050919050565b7f4552433737373a20617070726f766520746f20746865207a65726f206164647260008201527f6573730000000000000000000000000000000000000000000000000000000000602082015250565b6000612788602383611d9f565b91506127938261272c565b604082019050919050565b600060208201905081810360008301526127b78161277b565b9050919050565b7f4552433737373a20696e73756666696369656e7420616c6c6f77616e63650000600082015250565b60006127f4601e83611d9f565b91506127ff826127be565b602082019050919050565b60006020820190508181036000830152612823816127e7565b9050919050565b7f4552433737373a207472616e736665722066726f6d20746865207a65726f206160008201527f6464726573730000000000000000000000000000000000000000000000000000602082015250565b6000612886602683611d9f565b91506128918261282a565b604082019050919050565b600060208201905081810360008301526128b581612879565b9050919050565b7f4552433737373a207472616e7366657220746f20746865207a65726f2061646460008201527f7265737300000000000000000000000000000000000000000000000000000000602082015250565b6000612918602483611d9f565b9150612923826128bc565b604082019050919050565b600060208201905081810360008301526129478161290b565b9050919050565b7f4552433737373a206d696e7420746f20746865207a65726f2061646472657373600082015250565b6000612984602083611d9f565b915061298f8261294e565b602082019050919050565b600060208201905081810360008301526129b381612977565b9050919050565b7f4e487b7100000000000000000000000000000000000000000000000000000000600052601160045260246000fd5b60006129f482611e86565b91506129ff83611e86565b9250828201905080821115612a1757612a166129ba565b5b92915050565b600081519050919050565b600082825260208201905092915050565b6000612a4482612a1d565b612a4e8185612a28565b9350612a5e818560208601611db0565b612a6781611dda565b840191505092915050565b6000606082019050612a876000830186611f32565b8181036020830152612a998185612a39565b90508181036040830152612aad8184612a39565b9050949350505050565b7f4552433737373a206275726e2066726f6d20746865207a65726f20616464726560008201527f7373000000000000000000000000000000000000000000000000000000000000602082015250565b6000612b13602283611d9f565b9150612b1e82612ab7565b604082019050919050565b60006020820190508181036000830152612b4281612b06565b9050919050565b7f4552433737373a206275726e20616d6f756e7420657863656564732062616c6160008201527f6e63650000000000000000000000000000000000000000000000000000000000602082015250565b6000612ba5602383611d9f565b9150612bb082612b49565b604082019050919050565b60006020820190508181036000830152612bd481612b98565b9050919050565b6000612be682611e86565b9150612bf183611e86565b9250828203905081811115612c0957612c086129ba565b5b92915050565b612c1881611cce565b82525050565b6000819050919050565b612c3181612c1e565b82525050565b6000604082019050612c4c6000830185612c0f565b612c596020830184612c28565b9392505050565b600081519050612c6f81611e5a565b92915050565b600060208284031215612c8b57612c8a611e50565b5b6000612c9984828501612c60565b91505092915050565b600060c082019050612cb76000830189612c0f565b612cc46020830188612c0f565b612cd16040830187612c0f565b612cde6060830186611f32565b8181036080830152612cf08185612a39565b905081810360a0830152612d048184612a39565b9050979650505050505050565b7f4552433737373a207472616e7366657220616d6f756e7420657863656564732060008201527f62616c616e636500000000000000000000000000000000000000000000000000602082015250565b6000612d6d602783611d9f565b9150612d7882612d11565b604082019050919050565b60006020820190508181036000830152612d9c81612d60565b9050919050565b7f4552433737373a20746f6b656e20726563697069656e7420636f6e747261637460008201527f20686173206e6f20696d706c656d656e74657220666f7220455243373737546f60208201527f6b656e73526563697069656e7400000000000000000000000000000000000000604082015250565b6000612e25604d83611d9f565b9150612e3082612da3565b606082019050919050565b60006020820190508181036000830152612e5481612e18565b905091905056fea26469706673582212205a7a0db91fb4dade335fb118b39d297d9e8ceb60740fd6daa4bcc16d3ae10a3264736f6c63430008110033",
  "linkReferences": {},
  "deployedLinkReferences": {}
}