{
  "_format": "hh-sol-artifact-1",
  "contractName": "SampleFather",
  "sourceName": "contracts/mocks/MultipleInheritanceInitializableMocks.sol",
  "abi": [
    {
      "anonymous": false,
      "inputs": [
        {
          "indexed": false,
          "internalType": "uint8",
          "name": "version",
          "type": "uint8"
        }
      ],
      "name": "Initialized",
      "type": "event"
    },
    {
      "inputs": [],
      "name": "father",
      "outputs": [
        {
          "internalType": "uint256",
          "name": "",
          "type": "uint256"
        }
      ],
      "stateMutability": "view",
      "type": "function"
    },
    {
      "inputs": [],
      "name": "gramps",
      "outputs": [
        {
          "internalType": "string",
          "name": "",
          "type": "string"
        }
      ],
      "stateMutability": "view",
      "type": "function"
    },
    {
      "inputs": [],
      "name": "initialize",
      "outputs": [],
      "stateMutability": "nonpayable",
      "type": "function"
    },
    {
      "inputs": [
        {
          "internalType": "string",
          "name": "_gramps",
          "type": "string"
        },
        {
          "internalType": "uint256",
          "name": "_father",
          "type": "uint256"
        }
      ],
      "name": "initialize",
      "outputs": [],
      "stateMutability": "nonpayable",
      "type": "function"
    },
    {
      "inputs": [
        {
          "internalType": "string",
          "name": "value",
          "type": "string"
        }
      ],
      "name": "initialize",
      "outputs": [],
      "stateMutability": "nonpayable",
      "type": "function"
    },
    {
      "inputs": [],
      "name": "isHuman",
      "outputs": [
        {
          "internalType": "bool",
          "name": "",
          "type": "bool"
        }
      ],
      "stateMutability": "view",
      "type": "function"
    }
  ],
  "bytecode": "0x608060405234801561001057600080fd5b50610fa6806100206000396000f3fe608060405234801561001057600080fd5b50600436106100625760003560e01c80631c8aca3b146100675780634a6c9db6146100855780638129fc1c146100a35780638beaf7d7146100ad578063f62d1888146100c9578063fa39851f146100e5575b600080fd5b61006f610103565b60405161007c91906107ee565b60405180910390f35b61008d610109565b60405161009a9190610824565b60405180910390f35b6100ab61011c565b005b6100c760048036038101906100c291906109c5565b61025a565b005b6100e360048036038101906100de9190610a21565b61039c565b005b6100ed6104dc565b6040516100fa9190610ae9565b60405180910390f35b60025481565b600060029054906101000a900460ff1681565b60008060019054906101000a900460ff1615905080801561014d5750600160008054906101000a900460ff1660ff16105b8061017a575061015c3061056a565b1580156101795750600160008054906101000a900460ff1660ff16145b5b6101b9576040517f08c379a00000000000000000000000000000000000000000000000000000000081526004016101b090610b7d565b60405180910390fd5b60016000806101000a81548160ff021916908360ff16021790555080156101f6576001600060016101000a81548160ff0219169083151502179055505b6101fe61058d565b80156102575760008060016101000a81548160ff0219169083151502179055507f7f26b83ff96e1f2b6a682f133852f6798a09c465da95921460cefb3847402498600160405161024e9190610bef565b60405180910390a15b50565b60008060019054906101000a900460ff1615905080801561028b5750600160008054906101000a900460ff1660ff16105b806102b8575061029a3061056a565b1580156102b75750600160008054906101000a900460ff1660ff16145b5b6102f7576040517f08c379a00000000000000000000000000000000000000000000000000000000081526004016102ee90610b7d565b60405180910390fd5b60016000806101000a81548160ff021916908360ff1602179055508015610334576001600060016101000a81548160ff0219169083151502179055505b61033e83836105e6565b80156103975760008060016101000a81548160ff0219169083151502179055507f7f26b83ff96e1f2b6a682f133852f6798a09c465da95921460cefb3847402498600160405161038e9190610bef565b60405180910390a15b505050565b60008060019054906101000a900460ff161590508080156103cd5750600160008054906101000a900460ff1660ff16105b806103fa57506103dc3061056a565b1580156103f95750600160008054906101000a900460ff1660ff16145b5b610439576040517f08c379a000000000000000000000000000000000000000000000000000000000815260040161043090610b7d565b60405180910390fd5b60016000806101000a81548160ff021916908360ff1602179055508015610476576001600060016101000a81548160ff0219169083151502179055505b61047f8261064b565b80156104d85760008060016101000a81548160ff0219169083151502179055507f7f26b83ff96e1f2b6a682f133852f6798a09c465da95921460cefb384740249860016040516104cf9190610bef565b60405180910390a15b5050565b600180546104e990610c39565b80601f016020809104026020016040519081016040528092919081815260200182805461051590610c39565b80156105625780601f1061053757610100808354040283529160200191610562565b820191906000526020600020905b81548152906001019060200180831161054557829003601f168201915b505050505081565b6000808273ffffffffffffffffffffffffffffffffffffffff163b119050919050565b600060019054906101000a900460ff166105dc576040517f08c379a00000000000000000000000000000000000000000000000000000000081526004016105d390610cdc565b60405180910390fd5b6105e46106ae565b565b600060019054906101000a900460ff16610635576040517f08c379a000000000000000000000000000000000000000000000000000000000815260040161062c90610cdc565b60405180910390fd5b61063e8261064b565b6106478161071a565b5050565b600060019054906101000a900460ff1661069a576040517f08c379a000000000000000000000000000000000000000000000000000000000815260040161069190610cdc565b60405180910390fd5b6106a261058d565b6106ab81610773565b50565b600060019054906101000a900460ff166106fd576040517f08c379a00000000000000000000000000000000000000000000000000000000081526004016106f490610cdc565b60405180910390fd5b6001600060026101000a81548160ff021916908315150217905550565b600060019054906101000a900460ff16610769576040517f08c379a000000000000000000000000000000000000000000000000000000000815260040161076090610cdc565b60405180910390fd5b8060028190555050565b600060019054906101000a900460ff166107c2576040517f08c379a00000000000000000000000000000000000000000000000000000000081526004016107b990610cdc565b60405180910390fd5b80600190816107d19190610e9e565b5050565b6000819050919050565b6107e8816107d5565b82525050565b600060208201905061080360008301846107df565b92915050565b60008115159050919050565b61081e81610809565b82525050565b60006020820190506108396000830184610815565b92915050565b6000604051905090565b600080fd5b600080fd5b600080fd5b600080fd5b6000601f19601f8301169050919050565b7f4e487b7100000000000000000000000000000000000000000000000000000000600052604160045260246000fd5b6108a68261085d565b810181811067ffffffffffffffff821117156108c5576108c461086e565b5b80604052505050565b60006108d861083f565b90506108e4828261089d565b919050565b600067ffffffffffffffff8211156109045761090361086e565b5b61090d8261085d565b9050602081019050919050565b82818337600083830152505050565b600061093c610937846108e9565b6108ce565b90508281526020810184848401111561095857610957610858565b5b61096384828561091a565b509392505050565b600082601f8301126109805761097f610853565b5b8135610990848260208601610929565b91505092915050565b6109a2816107d5565b81146109ad57600080fd5b50565b6000813590506109bf81610999565b92915050565b600080604083850312156109dc576109db610849565b5b600083013567ffffffffffffffff8111156109fa576109f961084e565b5b610a068582860161096b565b9250506020610a17858286016109b0565b9150509250929050565b600060208284031215610a3757610a36610849565b5b600082013567ffffffffffffffff811115610a5557610a5461084e565b5b610a618482850161096b565b91505092915050565b600081519050919050565b600082825260208201905092915050565b60005b83811015610aa4578082015181840152602081019050610a89565b60008484015250505050565b6000610abb82610a6a565b610ac58185610a75565b9350610ad5818560208601610a86565b610ade8161085d565b840191505092915050565b60006020820190508181036000830152610b038184610ab0565b905092915050565b7f496e697469616c697a61626c653a20636f6e747261637420697320616c72656160008201527f647920696e697469616c697a6564000000000000000000000000000000000000602082015250565b6000610b67602e83610a75565b9150610b7282610b0b565b604082019050919050565b60006020820190508181036000830152610b9681610b5a565b9050919050565b6000819050919050565b600060ff82169050919050565b6000819050919050565b6000610bd9610bd4610bcf84610b9d565b610bb4565b610ba7565b9050919050565b610be981610bbe565b82525050565b6000602082019050610c046000830184610be0565b92915050565b7f4e487b7100000000000000000000000000000000000000000000000000000000600052602260045260246000fd5b60006002820490506001821680610c5157607f821691505b602082108103610c6457610c63610c0a565b5b50919050565b7f496e697469616c697a61626c653a20636f6e7472616374206973206e6f74206960008201527f6e697469616c697a696e67000000000000000000000000000000000000000000602082015250565b6000610cc6602b83610a75565b9150610cd182610c6a565b604082019050919050565b60006020820190508181036000830152610cf581610cb9565b9050919050565b60008190508160005260206000209050919050565b60006020601f8301049050919050565b600082821b905092915050565b600060088302610d5e7fffffffffffffffffffffffffffffffffffffffffffffffffffffffffffffffff82610d21565b610d688683610d21565b95508019841693508086168417925050509392505050565b6000610d9b610d96610d91846107d5565b610bb4565b6107d5565b9050919050565b6000819050919050565b610db583610d80565b610dc9610dc182610da2565b848454610d2e565b825550505050565b600090565b610dde610dd1565b610de9818484610dac565b505050565b5b81811015610e0d57610e02600082610dd6565b600181019050610def565b5050565b601f821115610e5257610e2381610cfc565b610e2c84610d11565b81016020851015610e3b578190505b610e4f610e4785610d11565b830182610dee565b50505b505050565b600082821c905092915050565b6000610e7560001984600802610e57565b1980831691505092915050565b6000610e8e8383610e64565b9150826002028217905092915050565b610ea782610a6a565b67ffffffffffffffff811115610ec057610ebf61086e565b5b610eca8254610c39565b610ed5828285610e11565b600060209050601f831160018114610f085760008415610ef6578287015190505b610f008582610e82565b865550610f68565b601f198416610f1686610cfc565b60005b82811015610f3e57848901518255600182019150602085019450602081019050610f19565b86831015610f5b5784890151610f57601f891682610e64565b8355505b6001600288020188555050505b50505050505056fea264697066735822122035633af5e1e5c4f78b7f7b4938268d33e957e94733203ca5defaafcddee71f9f64736f6c63430008110033",
  "linkReferences": {},
  "deployedLinkReferences": {}
}