{
  "_format": "hh-sol-artifact-1",
  "contractName": "ERC721PausableMock",
  "sourceName": "contracts/mocks/ERC721PausableMock.sol",
  "abi": [
    {
      "inputs": [
        {
          "internalType": "string",
          "name": "name",
          "type": "string"
        },
        {
          "internalType": "string",
          "name": "symbol",
          "type": "string"
        }
      ],
      "stateMutability": "nonpayable",
      "type": "constructor"
    },
    {
      "anonymous": false,
      "inputs": [
        {
          "indexed": true,
          "internalType": "address",
          "name": "owner",
          "type": "address"
        },
        {
          "indexed": true,
          "internalType": "address",
          "name": "approved",
          "type": "address"
        },
        {
          "indexed": true,
          "internalType": "uint256",
          "name": "tokenId",
          "type": "uint256"
        }
      ],
      "name": "Approval",
      "type": "event"
    },
    {
      "anonymous": false,
      "inputs": [
        {
          "indexed": true,
          "internalType": "address",
          "name": "owner",
          "type": "address"
        },
        {
          "indexed": true,
          "internalType": "address",
          "name": "operator",
          "type": "address"
        },
        {
          "indexed": false,
          "internalType": "bool",
          "name": "approved",
          "type": "bool"
        }
      ],
      "name": "ApprovalForAll",
      "type": "event"
    },
    {
      "anonymous": false,
      "inputs": [
        {
          "indexed": false,
          "internalType": "address",
          "name": "account",
          "type": "address"
        }
      ],
      "name": "Paused",
      "type": "event"
    },
    {
      "anonymous": false,
      "inputs": [
        {
          "indexed": true,
          "internalType": "address",
          "name": "from",
          "type": "address"
        },
        {
          "indexed": true,
          "internalType": "address",
          "name": "to",
          "type": "address"
        },
        {
          "indexed": true,
          "internalType": "uint256",
          "name": "tokenId",
          "type": "uint256"
        }
      ],
      "name": "Transfer",
      "type": "event"
    },
    {
      "anonymous": false,
      "inputs": [
        {
          "indexed": false,
          "internalType": "address",
          "name": "account",
          "type": "address"
        }
      ],
      "name": "Unpaused",
      "type": "event"
    },
    {
      "inputs": [
        {
          "internalType": "address",
          "name": "to",
          "type": "address"
        },
        {
          "internalType": "uint256",
          "name": "tokenId",
          "type": "uint256"
        }
      ],
      "name": "approve",
      "outputs": [],
      "stateMutability": "nonpayable",
      "type": "function"
    },
    {
      "inputs": [
        {
          "internalType": "address",
          "name": "owner",
          "type": "address"
        }
      ],
      "name": "balanceOf",
      "outputs": [
        {
          "internalType": "uint256",
          "name": "",
          "type": "uint256"
        }
      ],
      "stateMutability": "view",
      "type": "function"
    },
    {
      "inputs": [
        {
          "internalType": "uint256",
          "name": "tokenId",
          "type": "uint256"
        }
      ],
      "name": "burn",
      "outputs": [],
      "stateMutability": "nonpayable",
      "type": "function"
    },
    {
      "inputs": [
        {
          "internalType": "uint256",
          "name": "tokenId",
          "type": "uint256"
        }
      ],
      "name": "exists",
      "outputs": [
        {
          "internalType": "bool",
          "name": "",
          "type": "bool"
        }
      ],
      "stateMutability": "view",
      "type": "function"
    },
    {
      "inputs": [
        {
          "internalType": "uint256",
          "name": "tokenId",
          "type": "uint256"
        }
      ],
      "name": "getApproved",
      "outputs": [
        {
          "internalType": "address",
          "name": "",
          "type": "address"
        }
      ],
      "stateMutability": "view",
      "type": "function"
    },
    {
      "inputs": [
        {
          "internalType": "address",
          "name": "owner",
          "type": "address"
        },
        {
          "internalType": "address",
          "name": "operator",
          "type": "address"
        }
      ],
      "name": "isApprovedForAll",
      "outputs": [
        {
          "internalType": "bool",
          "name": "",
          "type": "bool"
        }
      ],
      "stateMutability": "view",
      "type": "function"
    },
    {
      "inputs": [
        {
          "internalType": "address",
          "name": "to",
          "type": "address"
        },
        {
          "internalType": "uint256",
          "name": "tokenId",
          "type": "uint256"
        }
      ],
      "name": "mint",
      "outputs": [],
      "stateMutability": "nonpayable",
      "type": "function"
    },
    {
      "inputs": [],
      "name": "name",
      "outputs": [
        {
          "internalType": "string",
          "name": "",
          "type": "string"
        }
      ],
      "stateMutability": "view",
      "type": "function"
    },
    {
      "inputs": [
        {
          "internalType": "uint256",
          "name": "tokenId",
          "type": "uint256"
        }
      ],
      "name": "ownerOf",
      "outputs": [
        {
          "internalType": "address",
          "name": "",
          "type": "address"
        }
      ],
      "stateMutability": "view",
      "type": "function"
    },
    {
      "inputs": [],
      "name": "pause",
      "outputs": [],
      "stateMutability": "nonpayable",
      "type": "function"
    },
    {
      "inputs": [],
      "name": "paused",
      "outputs": [
        {
          "internalType": "bool",
          "name": "",
          "type": "bool"
        }
      ],
      "stateMutability": "view",
      "type": "function"
    },
    {
      "inputs": [
        {
          "internalType": "address",
          "name": "to",
          "type": "address"
        },
        {
          "internalType": "uint256",
          "name": "tokenId",
          "type": "uint256"
        },
        {
          "internalType": "bytes",
          "name": "_data",
          "type": "bytes"
        }
      ],
      "name": "safeMint",
      "outputs": [],
      "stateMutability": "nonpayable",
      "type": "function"
    },
    {
      "inputs": [
        {
          "internalType": "address",
          "name": "to",
          "type": "address"
        },
        {
          "internalType": "uint256",
          "name": "tokenId",
          "type": "uint256"
        }
      ],
      "name": "safeMint",
      "outputs": [],
      "stateMutability": "nonpayable",
      "type": "function"
    },
    {
      "inputs": [
        {
          "internalType": "address",
          "name": "from",
          "type": "address"
        },
        {
          "internalType": "address",
          "name": "to",
          "type": "address"
        },
        {
          "internalType": "uint256",
          "name": "tokenId",
          "type": "uint256"
        }
      ],
      "name": "safeTransferFrom",
      "outputs": [],
      "stateMutability": "nonpayable",
      "type": "function"
    },
    {
      "inputs": [
        {
          "internalType": "address",
          "name": "from",
          "type": "address"
        },
        {
          "internalType": "address",
          "name": "to",
          "type": "address"
        },
        {
          "internalType": "uint256",
          "name": "tokenId",
          "type": "uint256"
        },
        {
          "internalType": "bytes",
          "name": "data",
          "type": "bytes"
        }
      ],
      "name": "safeTransferFrom",
      "outputs": [],
      "stateMutability": "nonpayable",
      "type": "function"
    },
    {
      "inputs": [
        {
          "internalType": "address",
          "name": "operator",
          "type": "address"
        },
        {
          "internalType": "bool",
          "name": "approved",
          "type": "bool"
        }
      ],
      "name": "setApprovalForAll",
      "outputs": [],
      "stateMutability": "nonpayable",
      "type": "function"
    },
    {
      "inputs": [
        {
          "internalType": "bytes4",
          "name": "interfaceId",
          "type": "bytes4"
        }
      ],
      "name": "supportsInterface",
      "outputs": [
        {
          "internalType": "bool",
          "name": "",
          "type": "bool"
        }
      ],
      "stateMutability": "view",
      "type": "function"
    },
    {
      "inputs": [],
      "name": "symbol",
      "outputs": [
        {
          "internalType": "string",
          "name": "",
          "type": "string"
        }
      ],
      "stateMutability": "view",
      "type": "function"
    },
    {
      "inputs": [
        {
          "internalType": "uint256",
          "name": "tokenId",
          "type": "uint256"
        }
      ],
      "name": "tokenURI",
      "outputs": [
        {
          "internalType": "string",
          "name": "",
          "type": "string"
        }
      ],
      "stateMutability": "view",
      "type": "function"
    },
    {
      "inputs": [
        {
          "internalType": "address",
          "name": "from",
          "type": "address"
        },
        {
          "internalType": "address",
          "name": "to",
          "type": "address"
        },
        {
          "internalType": "uint256",
          "name": "tokenId",
          "type": "uint256"
        }
      ],
      "name": "transferFrom",
      "outputs": [],
      "stateMutability": "nonpayable",
      "type": "function"
    },
    {
      "inputs": [],
      "name": "unpause",
      "outputs": [],
      "stateMutability": "nonpayable",
      "type": "function"
    }
  ],
  "bytecode": "0x60806040523480156200001157600080fd5b50604051620030e3380380620030e3833981810160405281019062000037919062000215565b818181600090816200004a9190620004e5565b5080600190816200005c9190620004e5565b5050506000600660006101000a81548160ff0219169083151502179055505050620005cc565b6000604051905090565b600080fd5b600080fd5b600080fd5b600080fd5b6000601f19601f8301169050919050565b7f4e487b7100000000000000000000000000000000000000000000000000000000600052604160045260246000fd5b620000eb82620000a0565b810181811067ffffffffffffffff821117156200010d576200010c620000b1565b5b80604052505050565b60006200012262000082565b9050620001308282620000e0565b919050565b600067ffffffffffffffff821115620001535762000152620000b1565b5b6200015e82620000a0565b9050602081019050919050565b60005b838110156200018b5780820151818401526020810190506200016e565b60008484015250505050565b6000620001ae620001a88462000135565b62000116565b905082815260208101848484011115620001cd57620001cc6200009b565b5b620001da8482856200016b565b509392505050565b600082601f830112620001fa57620001f962000096565b5b81516200020c84826020860162000197565b91505092915050565b600080604083850312156200022f576200022e6200008c565b5b600083015167ffffffffffffffff81111562000250576200024f62000091565b5b6200025e85828601620001e2565b925050602083015167ffffffffffffffff81111562000282576200028162000091565b5b6200029085828601620001e2565b9150509250929050565b600081519050919050565b7f4e487b7100000000000000000000000000000000000000000000000000000000600052602260045260246000fd5b60006002820490506001821680620002ed57607f821691505b602082108103620003035762000302620002a5565b5b50919050565b60008190508160005260206000209050919050565b60006020601f8301049050919050565b600082821b905092915050565b6000600883026200036d7fffffffffffffffffffffffffffffffffffffffffffffffffffffffffffffffff826200032e565b6200037986836200032e565b95508019841693508086168417925050509392505050565b6000819050919050565b6000819050919050565b6000620003c6620003c0620003ba8462000391565b6200039b565b62000391565b9050919050565b6000819050919050565b620003e283620003a5565b620003fa620003f182620003cd565b8484546200033b565b825550505050565b600090565b6200041162000402565b6200041e818484620003d7565b505050565b5b8181101562000446576200043a60008262000407565b60018101905062000424565b5050565b601f82111562000495576200045f8162000309565b6200046a846200031e565b810160208510156200047a578190505b6200049262000489856200031e565b83018262000423565b50505b505050565b600082821c905092915050565b6000620004ba600019846008026200049a565b1980831691505092915050565b6000620004d58383620004a7565b9150826002028217905092915050565b620004f0826200029a565b67ffffffffffffffff8111156200050c576200050b620000b1565b5b620005188254620002d4565b620005258282856200044a565b600060209050601f8311600181146200055d576000841562000548578287015190505b620005548582620004c7565b865550620005c4565b601f1984166200056d8662000309565b60005b82811015620005975784890151825560018201915060208501945060208101905062000570565b86831015620005b75784890151620005b3601f891682620004a7565b8355505b6001600288020188555050505b505050505050565b612b0780620005dc6000396000f3fe608060405234801561001057600080fd5b50600436106101375760003560e01c80635c975abb116100b857806395d89b411161007c57806395d89b4114610324578063a144819414610342578063a22cb4651461035e578063b88d4fde1461037a578063c87b56dd14610396578063e985e9c5146103c657610137565b80635c975abb146102805780636352211e1461029e57806370a08231146102ce5780638456cb59146102fe5780638832e6e31461030857610137565b80633f4ba83a116100ff5780633f4ba83a146101f257806340c10f19146101fc57806342842e0e1461021857806342966c68146102345780634f558e791461025057610137565b806301ffc9a71461013c57806306fdde031461016c578063081812fc1461018a578063095ea7b3146101ba57806323b872dd146101d6575b600080fd5b61015660048036038101906101519190611c2a565b6103f6565b6040516101639190611c72565b60405180910390f35b6101746104d8565b6040516101819190611d1d565b60405180910390f35b6101a4600480360381019061019f9190611d75565b61056a565b6040516101b19190611de3565b60405180910390f35b6101d460048036038101906101cf9190611e2a565b6105b0565b005b6101f060048036038101906101eb9190611e6a565b6106c7565b005b6101fa610727565b005b61021660048036038101906102119190611e2a565b610731565b005b610232600480360381019061022d9190611e6a565b61073f565b005b61024e60048036038101906102499190611d75565b61075f565b005b61026a60048036038101906102659190611d75565b61076b565b6040516102779190611c72565b60405180910390f35b61028861077d565b6040516102959190611c72565b60405180910390f35b6102b860048036038101906102b39190611d75565b610794565b6040516102c59190611de3565b60405180910390f35b6102e860048036038101906102e39190611ebd565b61081a565b6040516102f59190611ef9565b60405180910390f35b6103066108d1565b005b610322600480360381019061031d9190612049565b6108db565b005b61032c6108eb565b6040516103399190611d1d565b60405180910390f35b61035c60048036038101906103579190611e2a565b61097d565b005b610378600480360381019061037391906120e4565b61098b565b005b610394600480360381019061038f9190612124565b6109a1565b005b6103b060048036038101906103ab9190611d75565b610a03565b6040516103bd9190611d1d565b60405180910390f35b6103e060048036038101906103db91906121a7565b610a6b565b6040516103ed9190611c72565b60405180910390f35b60007f80ac58cd000000000000000000000000000000000000000000000000000000007bffffffffffffffffffffffffffffffffffffffffffffffffffffffff1916827bffffffffffffffffffffffffffffffffffffffffffffffffffffffff191614806104c157507f5b5e139f000000000000000000000000000000000000000000000000000000007bffffffffffffffffffffffffffffffffffffffffffffffffffffffff1916827bffffffffffffffffffffffffffffffffffffffffffffffffffffffff1916145b806104d157506104d082610aff565b5b9050919050565b6060600080546104e790612216565b80601f016020809104026020016040519081016040528092919081815260200182805461051390612216565b80156105605780601f1061053557610100808354040283529160200191610560565b820191906000526020600020905b81548152906001019060200180831161054357829003601f168201915b5050505050905090565b600061057582610b69565b6004600083815260200190815260200160002060009054906101000a900473ffffffffffffffffffffffffffffffffffffffff169050919050565b60006105bb82610794565b90508073ffffffffffffffffffffffffffffffffffffffff168373ffffffffffffffffffffffffffffffffffffffff160361062b576040517f08c379a0000000000000000000000000000000000000000000000000000000008152600401610622906122b9565b60405180910390fd5b8073ffffffffffffffffffffffffffffffffffffffff1661064a610bb4565b73ffffffffffffffffffffffffffffffffffffffff161480610679575061067881610673610bb4565b610a6b565b5b6106b8576040517f08c379a00000000000000000000000000000000000000000000000000000000081526004016106af9061234b565b60405180910390fd5b6106c28383610bbc565b505050565b6106d86106d2610bb4565b82610c75565b610717576040517f08c379a000000000000000000000000000000000000000000000000000000000815260040161070e906123dd565b60405180910390fd5b610722838383610d0a565b505050565b61072f610fff565b565b61073b8282611062565b5050565b61075a838383604051806020016040528060008152506109a1565b505050565b6107688161127b565b50565b6000610776826113c5565b9050919050565b6000600660009054906101000a900460ff16905090565b6000806107a083611406565b9050600073ffffffffffffffffffffffffffffffffffffffff168173ffffffffffffffffffffffffffffffffffffffff1603610811576040517f08c379a000000000000000000000000000000000000000000000000000000000815260040161080890612449565b60405180910390fd5b80915050919050565b60008073ffffffffffffffffffffffffffffffffffffffff168273ffffffffffffffffffffffffffffffffffffffff160361088a576040517f08c379a0000000000000000000000000000000000000000000000000000000008152600401610881906124db565b60405180910390fd5b600360008373ffffffffffffffffffffffffffffffffffffffff1673ffffffffffffffffffffffffffffffffffffffff168152602001908152602001600020549050919050565b6108d9611443565b565b6108e68383836114a6565b505050565b6060600180546108fa90612216565b80601f016020809104026020016040519081016040528092919081815260200182805461092690612216565b80156109735780601f1061094857610100808354040283529160200191610973565b820191906000526020600020905b81548152906001019060200180831161095657829003601f168201915b5050505050905090565b6109878282611501565b5050565b61099d610996610bb4565b838361151f565b5050565b6109b26109ac610bb4565b83610c75565b6109f1576040517f08c379a00000000000000000000000000000000000000000000000000000000081526004016109e8906123dd565b60405180910390fd5b6109fd8484848461168b565b50505050565b6060610a0e82610b69565b6000610a186116e7565b90506000815111610a385760405180602001604052806000815250610a63565b80610a42846116fe565b604051602001610a53929190612537565b6040516020818303038152906040525b915050919050565b6000600560008473ffffffffffffffffffffffffffffffffffffffff1673ffffffffffffffffffffffffffffffffffffffff16815260200190815260200160002060008373ffffffffffffffffffffffffffffffffffffffff1673ffffffffffffffffffffffffffffffffffffffff16815260200190815260200160002060009054906101000a900460ff16905092915050565b60007f01ffc9a7000000000000000000000000000000000000000000000000000000007bffffffffffffffffffffffffffffffffffffffffffffffffffffffff1916827bffffffffffffffffffffffffffffffffffffffffffffffffffffffff1916149050919050565b610b72816113c5565b610bb1576040517f08c379a0000000000000000000000000000000000000000000000000000000008152600401610ba890612449565b60405180910390fd5b50565b600033905090565b816004600083815260200190815260200160002060006101000a81548173ffffffffffffffffffffffffffffffffffffffff021916908373ffffffffffffffffffffffffffffffffffffffff160217905550808273ffffffffffffffffffffffffffffffffffffffff16610c2f83610794565b73ffffffffffffffffffffffffffffffffffffffff167f8c5be1e5ebec7d5bd14f71427d1e84f3dd0314c0f7b2291e5b200ac8c7c3b92560405160405180910390a45050565b600080610c8183610794565b90508073ffffffffffffffffffffffffffffffffffffffff168473ffffffffffffffffffffffffffffffffffffffff161480610cc35750610cc28185610a6b565b5b80610d0157508373ffffffffffffffffffffffffffffffffffffffff16610ce98461056a565b73ffffffffffffffffffffffffffffffffffffffff16145b91505092915050565b8273ffffffffffffffffffffffffffffffffffffffff16610d2a82610794565b73ffffffffffffffffffffffffffffffffffffffff1614610d80576040517f08c379a0000000000000000000000000000000000000000000000000000000008152600401610d77906125cd565b60405180910390fd5b600073ffffffffffffffffffffffffffffffffffffffff168273ffffffffffffffffffffffffffffffffffffffff1603610def576040517f08c379a0000000000000000000000000000000000000000000000000000000008152600401610de69061265f565b60405180910390fd5b610dfa8383836117cc565b8273ffffffffffffffffffffffffffffffffffffffff16610e1a82610794565b73ffffffffffffffffffffffffffffffffffffffff1614610e70576040517f08c379a0000000000000000000000000000000000000000000000000000000008152600401610e67906125cd565b60405180910390fd5b6004600082815260200190815260200160002060006101000a81549073ffffffffffffffffffffffffffffffffffffffff02191690556001600360008573ffffffffffffffffffffffffffffffffffffffff1673ffffffffffffffffffffffffffffffffffffffff168152602001908152602001600020600082825403925050819055506001600360008473ffffffffffffffffffffffffffffffffffffffff1673ffffffffffffffffffffffffffffffffffffffff16815260200190815260200160002060008282540192505081905550816002600083815260200190815260200160002060006101000a81548173ffffffffffffffffffffffffffffffffffffffff021916908373ffffffffffffffffffffffffffffffffffffffff160217905550808273ffffffffffffffffffffffffffffffffffffffff168473ffffffffffffffffffffffffffffffffffffffff167fddf252ad1be2c89b69c2b068fc378daa952ba7f163c4a11628f55a4df523b3ef60405160405180910390a4610ffa838383611824565b505050565b611007611829565b6000600660006101000a81548160ff0219169083151502179055507f5db9ee0a495bf2e6ff9c91a7834c1ba4fdd244a5e8aa4e537bd38aeae4b073aa61104b610bb4565b6040516110589190611de3565b60405180910390a1565b600073ffffffffffffffffffffffffffffffffffffffff168273ffffffffffffffffffffffffffffffffffffffff16036110d1576040517f08c379a00000000000000000000000000000000000000000000000000000000081526004016110c8906126cb565b60405180910390fd5b6110da816113c5565b1561111a576040517f08c379a000000000000000000000000000000000000000000000000000000000815260040161111190612737565b60405180910390fd5b611126600083836117cc565b61112f816113c5565b1561116f576040517f08c379a000000000000000000000000000000000000000000000000000000000815260040161116690612737565b60405180910390fd5b6001600360008473ffffffffffffffffffffffffffffffffffffffff1673ffffffffffffffffffffffffffffffffffffffff16815260200190815260200160002060008282540192505081905550816002600083815260200190815260200160002060006101000a81548173ffffffffffffffffffffffffffffffffffffffff021916908373ffffffffffffffffffffffffffffffffffffffff160217905550808273ffffffffffffffffffffffffffffffffffffffff16600073ffffffffffffffffffffffffffffffffffffffff167fddf252ad1be2c89b69c2b068fc378daa952ba7f163c4a11628f55a4df523b3ef60405160405180910390a461127760008383611824565b5050565b600061128682610794565b9050611294816000846117cc565b61129d82610794565b90506004600083815260200190815260200160002060006101000a81549073ffffffffffffffffffffffffffffffffffffffff02191690556001600360008373ffffffffffffffffffffffffffffffffffffffff1673ffffffffffffffffffffffffffffffffffffffff168152602001908152602001600020600082825403925050819055506002600083815260200190815260200160002060006101000a81549073ffffffffffffffffffffffffffffffffffffffff021916905581600073ffffffffffffffffffffffffffffffffffffffff168273ffffffffffffffffffffffffffffffffffffffff167fddf252ad1be2c89b69c2b068fc378daa952ba7f163c4a11628f55a4df523b3ef60405160405180910390a46113c181600084611824565b5050565b60008073ffffffffffffffffffffffffffffffffffffffff166113e783611406565b73ffffffffffffffffffffffffffffffffffffffff1614159050919050565b60006002600083815260200190815260200160002060009054906101000a900473ffffffffffffffffffffffffffffffffffffffff169050919050565b61144b611872565b6001600660006101000a81548160ff0219169083151502179055507f62e78cea01bee320cd4e420270b5ea74000d11b0c9f74754ebdbfc544b05a25861148f610bb4565b60405161149c9190611de3565b60405180910390a1565b6114b08383611062565b6114bd60008484846118bc565b6114fc576040517f08c379a00000000000000000000000000000000000000000000000000000000081526004016114f3906127c9565b60405180910390fd5b505050565b61151b8282604051806020016040528060008152506114a6565b5050565b8173ffffffffffffffffffffffffffffffffffffffff168373ffffffffffffffffffffffffffffffffffffffff160361158d576040517f08c379a000000000000000000000000000000000000000000000000000000000815260040161158490612835565b60405180910390fd5b80600560008573ffffffffffffffffffffffffffffffffffffffff1673ffffffffffffffffffffffffffffffffffffffff16815260200190815260200160002060008473ffffffffffffffffffffffffffffffffffffffff1673ffffffffffffffffffffffffffffffffffffffff16815260200190815260200160002060006101000a81548160ff0219169083151502179055508173ffffffffffffffffffffffffffffffffffffffff168373ffffffffffffffffffffffffffffffffffffffff167f17307eab39ab6107e8899845ad3d59bd9653f200f220920489ca2b5937696c318360405161167e9190611c72565b60405180910390a3505050565b611696848484610d0a565b6116a2848484846118bc565b6116e1576040517f08c379a00000000000000000000000000000000000000000000000000000000081526004016116d8906127c9565b60405180910390fd5b50505050565b606060405180602001604052806000815250905090565b60606000600161170d84611a43565b01905060008167ffffffffffffffff81111561172c5761172b611f1e565b5b6040519080825280601f01601f19166020018201604052801561175e5781602001600182028036833780820191505090505b509050600082602001820190505b6001156117c1578080600190039150507f3031323334353637383961626364656600000000000000000000000000000000600a86061a8153600a85816117b5576117b4612855565b5b0494506000850361176c575b819350505050919050565b6117d7838383611b96565b6117df61077d565b1561181f576040517f08c379a0000000000000000000000000000000000000000000000000000000008152600401611816906128f6565b60405180910390fd5b505050565b505050565b61183161077d565b611870576040517f08c379a000000000000000000000000000000000000000000000000000000000815260040161186790612962565b60405180910390fd5b565b61187a61077d565b156118ba576040517f08c379a00000000000000000000000000000000000000000000000000000000081526004016118b1906129ce565b60405180910390fd5b565b60006118dd8473ffffffffffffffffffffffffffffffffffffffff16611b9b565b15611a36578373ffffffffffffffffffffffffffffffffffffffff1663150b7a02611906610bb4565b8786866040518563ffffffff1660e01b81526004016119289493929190612a43565b6020604051808303816000875af192505050801561196457506040513d601f19601f820116820180604052508101906119619190612aa4565b60015b6119e6573d8060008114611994576040519150601f19603f3d011682016040523d82523d6000602084013e611999565b606091505b5060008151036119de576040517f08c379a00000000000000000000000000000000000000000000000000000000081526004016119d5906127c9565b60405180910390fd5b805181602001fd5b63150b7a0260e01b7bffffffffffffffffffffffffffffffffffffffffffffffffffffffff1916817bffffffffffffffffffffffffffffffffffffffffffffffffffffffff191614915050611a3b565b600190505b949350505050565b600080600090507a184f03e93ff9f4daa797ed6e38ed64bf6a1f0100000000000000008310611aa1577a184f03e93ff9f4daa797ed6e38ed64bf6a1f0100000000000000008381611a9757611a96612855565b5b0492506040810190505b6d04ee2d6d415b85acef81000000008310611ade576d04ee2d6d415b85acef81000000008381611ad457611ad3612855565b5b0492506020810190505b662386f26fc100008310611b0d57662386f26fc100008381611b0357611b02612855565b5b0492506010810190505b6305f5e1008310611b36576305f5e1008381611b2c57611b2b612855565b5b0492506008810190505b6127108310611b5b576127108381611b5157611b50612855565b5b0492506004810190505b60648310611b7e5760648381611b7457611b73612855565b5b0492506002810190505b600a8310611b8d576001810190505b80915050919050565b505050565b6000808273ffffffffffffffffffffffffffffffffffffffff163b119050919050565b6000604051905090565b600080fd5b600080fd5b60007fffffffff0000000000000000000000000000000000000000000000000000000082169050919050565b611c0781611bd2565b8114611c1257600080fd5b50565b600081359050611c2481611bfe565b92915050565b600060208284031215611c4057611c3f611bc8565b5b6000611c4e84828501611c15565b91505092915050565b60008115159050919050565b611c6c81611c57565b82525050565b6000602082019050611c876000830184611c63565b92915050565b600081519050919050565b600082825260208201905092915050565b60005b83811015611cc7578082015181840152602081019050611cac565b60008484015250505050565b6000601f19601f8301169050919050565b6000611cef82611c8d565b611cf98185611c98565b9350611d09818560208601611ca9565b611d1281611cd3565b840191505092915050565b60006020820190508181036000830152611d378184611ce4565b905092915050565b6000819050919050565b611d5281611d3f565b8114611d5d57600080fd5b50565b600081359050611d6f81611d49565b92915050565b600060208284031215611d8b57611d8a611bc8565b5b6000611d9984828501611d60565b91505092915050565b600073ffffffffffffffffffffffffffffffffffffffff82169050919050565b6000611dcd82611da2565b9050919050565b611ddd81611dc2565b82525050565b6000602082019050611df86000830184611dd4565b92915050565b611e0781611dc2565b8114611e1257600080fd5b50565b600081359050611e2481611dfe565b92915050565b60008060408385031215611e4157611e40611bc8565b5b6000611e4f85828601611e15565b9250506020611e6085828601611d60565b9150509250929050565b600080600060608486031215611e8357611e82611bc8565b5b6000611e9186828701611e15565b9350506020611ea286828701611e15565b9250506040611eb386828701611d60565b9150509250925092565b600060208284031215611ed357611ed2611bc8565b5b6000611ee184828501611e15565b91505092915050565b611ef381611d3f565b82525050565b6000602082019050611f0e6000830184611eea565b92915050565b600080fd5b600080fd5b7f4e487b7100000000000000000000000000000000000000000000000000000000600052604160045260246000fd5b611f5682611cd3565b810181811067ffffffffffffffff82111715611f7557611f74611f1e565b5b80604052505050565b6000611f88611bbe565b9050611f948282611f4d565b919050565b600067ffffffffffffffff821115611fb457611fb3611f1e565b5b611fbd82611cd3565b9050602081019050919050565b82818337600083830152505050565b6000611fec611fe784611f99565b611f7e565b90508281526020810184848401111561200857612007611f19565b5b612013848285611fca565b509392505050565b600082601f8301126120305761202f611f14565b5b8135612040848260208601611fd9565b91505092915050565b60008060006060848603121561206257612061611bc8565b5b600061207086828701611e15565b935050602061208186828701611d60565b925050604084013567ffffffffffffffff8111156120a2576120a1611bcd565b5b6120ae8682870161201b565b9150509250925092565b6120c181611c57565b81146120cc57600080fd5b50565b6000813590506120de816120b8565b92915050565b600080604083850312156120fb576120fa611bc8565b5b600061210985828601611e15565b925050602061211a858286016120cf565b9150509250929050565b6000806000806080858703121561213e5761213d611bc8565b5b600061214c87828801611e15565b945050602061215d87828801611e15565b935050604061216e87828801611d60565b925050606085013567ffffffffffffffff81111561218f5761218e611bcd565b5b61219b8782880161201b565b91505092959194509250565b600080604083850312156121be576121bd611bc8565b5b60006121cc85828601611e15565b92505060206121dd85828601611e15565b9150509250929050565b7f4e487b7100000000000000000000000000000000000000000000000000000000600052602260045260246000fd5b6000600282049050600182168061222e57607f821691505b602082108103612241576122406121e7565b5b50919050565b7f4552433732313a20617070726f76616c20746f2063757272656e74206f776e6560008201527f7200000000000000000000000000000000000000000000000000000000000000602082015250565b60006122a3602183611c98565b91506122ae82612247565b604082019050919050565b600060208201905081810360008301526122d281612296565b9050919050565b7f4552433732313a20617070726f76652063616c6c6572206973206e6f7420746f60008201527f6b656e206f776e6572206f7220617070726f76656420666f7220616c6c000000602082015250565b6000612335603d83611c98565b9150612340826122d9565b604082019050919050565b6000602082019050818103600083015261236481612328565b9050919050565b7f4552433732313a2063616c6c6572206973206e6f7420746f6b656e206f776e6560008201527f72206f7220617070726f76656400000000000000000000000000000000000000602082015250565b60006123c7602d83611c98565b91506123d28261236b565b604082019050919050565b600060208201905081810360008301526123f6816123ba565b9050919050565b7f4552433732313a20696e76616c696420746f6b656e2049440000000000000000600082015250565b6000612433601883611c98565b915061243e826123fd565b602082019050919050565b6000602082019050818103600083015261246281612426565b9050919050565b7f4552433732313a2061646472657373207a65726f206973206e6f74206120766160008201527f6c6964206f776e65720000000000000000000000000000000000000000000000602082015250565b60006124c5602983611c98565b91506124d082612469565b604082019050919050565b600060208201905081810360008301526124f4816124b8565b9050919050565b600081905092915050565b600061251182611c8d565b61251b81856124fb565b935061252b818560208601611ca9565b80840191505092915050565b60006125438285612506565b915061254f8284612506565b91508190509392505050565b7f4552433732313a207472616e736665722066726f6d20696e636f72726563742060008201527f6f776e6572000000000000000000000000000000000000000000000000000000602082015250565b60006125b7602583611c98565b91506125c28261255b565b604082019050919050565b600060208201905081810360008301526125e6816125aa565b9050919050565b7f4552433732313a207472616e7366657220746f20746865207a65726f2061646460008201527f7265737300000000000000000000000000000000000000000000000000000000602082015250565b6000612649602483611c98565b9150612654826125ed565b604082019050919050565b600060208201905081810360008301526126788161263c565b9050919050565b7f4552433732313a206d696e7420746f20746865207a65726f2061646472657373600082015250565b60006126b5602083611c98565b91506126c08261267f565b602082019050919050565b600060208201905081810360008301526126e4816126a8565b9050919050565b7f4552433732313a20746f6b656e20616c7265616479206d696e74656400000000600082015250565b6000612721601c83611c98565b915061272c826126eb565b602082019050919050565b6000602082019050818103600083015261275081612714565b9050919050565b7f4552433732313a207472616e7366657220746f206e6f6e20455243373231526560008201527f63656976657220696d706c656d656e7465720000000000000000000000000000602082015250565b60006127b3603283611c98565b91506127be82612757565b604082019050919050565b600060208201905081810360008301526127e2816127a6565b9050919050565b7f4552433732313a20617070726f766520746f2063616c6c657200000000000000600082015250565b600061281f601983611c98565b915061282a826127e9565b602082019050919050565b6000602082019050818103600083015261284e81612812565b9050919050565b7f4e487b7100000000000000000000000000000000000000000000000000000000600052601260045260246000fd5b7f4552433732315061757361626c653a20746f6b656e207472616e73666572207760008201527f68696c6520706175736564000000000000000000000000000000000000000000602082015250565b60006128e0602b83611c98565b91506128eb82612884565b604082019050919050565b6000602082019050818103600083015261290f816128d3565b9050919050565b7f5061757361626c653a206e6f7420706175736564000000000000000000000000600082015250565b600061294c601483611c98565b915061295782612916565b602082019050919050565b6000602082019050818103600083015261297b8161293f565b9050919050565b7f5061757361626c653a2070617573656400000000000000000000000000000000600082015250565b60006129b8601083611c98565b91506129c382612982565b602082019050919050565b600060208201905081810360008301526129e7816129ab565b9050919050565b600081519050919050565b600082825260208201905092915050565b6000612a15826129ee565b612a1f81856129f9565b9350612a2f818560208601611ca9565b612a3881611cd3565b840191505092915050565b6000608082019050612a586000830187611dd4565b612a656020830186611dd4565b612a726040830185611eea565b8181036060830152612a848184612a0a565b905095945050505050565b600081519050612a9e81611bfe565b92915050565b600060208284031215612aba57612ab9611bc8565b5b6000612ac884828501612a8f565b9150509291505056fea2646970667358221220d1299240f2329fc3c43fe82c542d897b8057b273c21b87fd0ead1032c52ce62c64736f6c63430008110033",
  "linkReferences": {},
  "deployedLinkReferences": {}
}