{
  "_format": "hh-sol-artifact-1",
  "contractName": "GovernorMock",
  "sourceName": "contracts/mocks/GovernorMock.sol",
  "abi": [
    {
      "inputs": [
        {
          "internalType": "string",
          "name": "name_",
          "type": "string"
        },
        {
          "internalType": "contract IVotes",
          "name": "token_",
          "type": "address"
        },
        {
          "internalType": "uint256",
          "name": "votingDelay_",
          "type": "uint256"
        },
        {
          "internalType": "uint256",
          "name": "votingPeriod_",
          "type": "uint256"
        },
        {
          "internalType": "uint256",
          "name": "quorumNumerator_",
          "type": "uint256"
        }
      ],
      "stateMutability": "nonpayable",
      "type": "constructor"
    },
    {
      "inputs": [],
      "name": "Empty",
      "type": "error"
    },
    {
      "anonymous": false,
      "inputs": [
        {
          "indexed": false,
          "internalType": "uint256",
          "name": "proposalId",
          "type": "uint256"
        }
      ],
      "name": "ProposalCanceled",
      "type": "event"
    },
    {
      "anonymous": false,
      "inputs": [
        {
          "indexed": false,
          "internalType": "uint256",
          "name": "proposalId",
          "type": "uint256"
        },
        {
          "indexed": false,
          "internalType": "address",
          "name": "proposer",
          "type": "address"
        },
        {
          "indexed": false,
          "internalType": "address[]",
          "name": "targets",
          "type": "address[]"
        },
        {
          "indexed": false,
          "internalType": "uint256[]",
          "name": "values",
          "type": "uint256[]"
        },
        {
          "indexed": false,
          "internalType": "string[]",
          "name": "signatures",
          "type": "string[]"
        },
        {
          "indexed": false,
          "internalType": "bytes[]",
          "name": "calldatas",
          "type": "bytes[]"
        },
        {
          "indexed": false,
          "internalType": "uint256",
          "name": "startBlock",
          "type": "uint256"
        },
        {
          "indexed": false,
          "internalType": "uint256",
          "name": "endBlock",
          "type": "uint256"
        },
        {
          "indexed": false,
          "internalType": "string",
          "name": "description",
          "type": "string"
        }
      ],
      "name": "ProposalCreated",
      "type": "event"
    },
    {
      "anonymous": false,
      "inputs": [
        {
          "indexed": false,
          "internalType": "uint256",
          "name": "proposalId",
          "type": "uint256"
        }
      ],
      "name": "ProposalExecuted",
      "type": "event"
    },
    {
      "anonymous": false,
      "inputs": [
        {
          "indexed": false,
          "internalType": "uint256",
          "name": "oldProposalThreshold",
          "type": "uint256"
        },
        {
          "indexed": false,
          "internalType": "uint256",
          "name": "newProposalThreshold",
          "type": "uint256"
        }
      ],
      "name": "ProposalThresholdSet",
      "type": "event"
    },
    {
      "anonymous": false,
      "inputs": [
        {
          "indexed": false,
          "internalType": "uint256",
          "name": "oldQuorumNumerator",
          "type": "uint256"
        },
        {
          "indexed": false,
          "internalType": "uint256",
          "name": "newQuorumNumerator",
          "type": "uint256"
        }
      ],
      "name": "QuorumNumeratorUpdated",
      "type": "event"
    },
    {
      "anonymous": false,
      "inputs": [
        {
          "indexed": true,
          "internalType": "address",
          "name": "voter",
          "type": "address"
        },
        {
          "indexed": false,
          "internalType": "uint256",
          "name": "proposalId",
          "type": "uint256"
        },
        {
          "indexed": false,
          "internalType": "uint8",
          "name": "support",
          "type": "uint8"
        },
        {
          "indexed": false,
          "internalType": "uint256",
          "name": "weight",
          "type": "uint256"
        },
        {
          "indexed": false,
          "internalType": "string",
          "name": "reason",
          "type": "string"
        }
      ],
      "name": "VoteCast",
      "type": "event"
    },
    {
      "anonymous": false,
      "inputs": [
        {
          "indexed": true,
          "internalType": "address",
          "name": "voter",
          "type": "address"
        },
        {
          "indexed": false,
          "internalType": "uint256",
          "name": "proposalId",
          "type": "uint256"
        },
        {
          "indexed": false,
          "internalType": "uint8",
          "name": "support",
          "type": "uint8"
        },
        {
          "indexed": false,
          "internalType": "uint256",
          "name": "weight",
          "type": "uint256"
        },
        {
          "indexed": false,
          "internalType": "string",
          "name": "reason",
          "type": "string"
        },
        {
          "indexed": false,
          "internalType": "bytes",
          "name": "params",
          "type": "bytes"
        }
      ],
      "name": "VoteCastWithParams",
      "type": "event"
    },
    {
      "anonymous": false,
      "inputs": [
        {
          "indexed": false,
          "internalType": "uint256",
          "name": "oldVotingDelay",
          "type": "uint256"
        },
        {
          "indexed": false,
          "internalType": "uint256",
          "name": "newVotingDelay",
          "type": "uint256"
        }
      ],
      "name": "VotingDelaySet",
      "type": "event"
    },
    {
      "anonymous": false,
      "inputs": [
        {
          "indexed": false,
          "internalType": "uint256",
          "name": "oldVotingPeriod",
          "type": "uint256"
        },
        {
          "indexed": false,
          "internalType": "uint256",
          "name": "newVotingPeriod",
          "type": "uint256"
        }
      ],
      "name": "VotingPeriodSet",
      "type": "event"
    },
    {
      "inputs": [],
      "name": "BALLOT_TYPEHASH",
      "outputs": [
        {
          "internalType": "bytes32",
          "name": "",
          "type": "bytes32"
        }
      ],
      "stateMutability": "view",
      "type": "function"
    },
    {
      "inputs": [],
      "name": "COUNTING_MODE",
      "outputs": [
        {
          "internalType": "string",
          "name": "",
          "type": "string"
        }
      ],
      "stateMutability": "pure",
      "type": "function"
    },
    {
      "inputs": [],
      "name": "EXTENDED_BALLOT_TYPEHASH",
      "outputs": [
        {
          "internalType": "bytes32",
          "name": "",
          "type": "bytes32"
        }
      ],
      "stateMutability": "view",
      "type": "function"
    },
    {
      "inputs": [
        {
          "internalType": "address[]",
          "name": "targets",
          "type": "address[]"
        },
        {
          "internalType": "uint256[]",
          "name": "values",
          "type": "uint256[]"
        },
        {
          "internalType": "bytes[]",
          "name": "calldatas",
          "type": "bytes[]"
        },
        {
          "internalType": "bytes32",
          "name": "salt",
          "type": "bytes32"
        }
      ],
      "name": "cancel",
      "outputs": [
        {
          "internalType": "uint256",
          "name": "proposalId",
          "type": "uint256"
        }
      ],
      "stateMutability": "nonpayable",
      "type": "function"
    },
    {
      "inputs": [
        {
          "internalType": "uint256",
          "name": "proposalId",
          "type": "uint256"
        },
        {
          "internalType": "uint8",
          "name": "support",
          "type": "uint8"
        }
      ],
      "name": "castVote",
      "outputs": [
        {
          "internalType": "uint256",
          "name": "",
          "type": "uint256"
        }
      ],
      "stateMutability": "nonpayable",
      "type": "function"
    },
    {
      "inputs": [
        {
          "internalType": "uint256",
          "name": "proposalId",
          "type": "uint256"
        },
        {
          "internalType": "uint8",
          "name": "support",
          "type": "uint8"
        },
        {
          "internalType": "uint8",
          "name": "v",
          "type": "uint8"
        },
        {
          "internalType": "bytes32",
          "name": "r",
          "type": "bytes32"
        },
        {
          "internalType": "bytes32",
          "name": "s",
          "type": "bytes32"
        }
      ],
      "name": "castVoteBySig",
      "outputs": [
        {
          "internalType": "uint256",
          "name": "",
          "type": "uint256"
        }
      ],
      "stateMutability": "nonpayable",
      "type": "function"
    },
    {
      "inputs": [
        {
          "internalType": "uint256",
          "name": "proposalId",
          "type": "uint256"
        },
        {
          "internalType": "uint8",
          "name": "support",
          "type": "uint8"
        },
        {
          "internalType": "string",
          "name": "reason",
          "type": "string"
        }
      ],
      "name": "castVoteWithReason",
      "outputs": [
        {
          "internalType": "uint256",
          "name": "",
          "type": "uint256"
        }
      ],
      "stateMutability": "nonpayable",
      "type": "function"
    },
    {
      "inputs": [
        {
          "internalType": "uint256",
          "name": "proposalId",
          "type": "uint256"
        },
        {
          "internalType": "uint8",
          "name": "support",
          "type": "uint8"
        },
        {
          "internalType": "string",
          "name": "reason",
          "type": "string"
        },
        {
          "internalType": "bytes",
          "name": "params",
          "type": "bytes"
        }
      ],
      "name": "castVoteWithReasonAndParams",
      "outputs": [
        {
          "internalType": "uint256",
          "name": "",
          "type": "uint256"
        }
      ],
      "stateMutability": "nonpayable",
      "type": "function"
    },
    {
      "inputs": [
        {
          "internalType": "uint256",
          "name": "proposalId",
          "type": "uint256"
        },
        {
          "internalType": "uint8",
          "name": "support",
          "type": "uint8"
        },
        {
          "internalType": "string",
          "name": "reason",
          "type": "string"
        },
        {
          "internalType": "bytes",
          "name": "params",
          "type": "bytes"
        },
        {
          "internalType": "uint8",
          "name": "v",
          "type": "uint8"
        },
        {
          "internalType": "bytes32",
          "name": "r",
          "type": "bytes32"
        },
        {
          "internalType": "bytes32",
          "name": "s",
          "type": "bytes32"
        }
      ],
      "name": "castVoteWithReasonAndParamsBySig",
      "outputs": [
        {
          "internalType": "uint256",
          "name": "",
          "type": "uint256"
        }
      ],
      "stateMutability": "nonpayable",
      "type": "function"
    },
    {
      "inputs": [
        {
          "internalType": "address[]",
          "name": "targets",
          "type": "address[]"
        },
        {
          "internalType": "uint256[]",
          "name": "values",
          "type": "uint256[]"
        },
        {
          "internalType": "bytes[]",
          "name": "calldatas",
          "type": "bytes[]"
        },
        {
          "internalType": "bytes32",
          "name": "descriptionHash",
          "type": "bytes32"
        }
      ],
      "name": "execute",
      "outputs": [
        {
          "internalType": "uint256",
          "name": "",
          "type": "uint256"
        }
      ],
      "stateMutability": "payable",
      "type": "function"
    },
    {
      "inputs": [
        {
          "internalType": "address",
          "name": "account",
          "type": "address"
        },
        {
          "internalType": "uint256",
          "name": "blockNumber",
          "type": "uint256"
        }
      ],
      "name": "getVotes",
      "outputs": [
        {
          "internalType": "uint256",
          "name": "",
          "type": "uint256"
        }
      ],
      "stateMutability": "view",
      "type": "function"
    },
    {
      "inputs": [
        {
          "internalType": "address",
          "name": "account",
          "type": "address"
        },
        {
          "internalType": "uint256",
          "name": "blockNumber",
          "type": "uint256"
        },
        {
          "internalType": "bytes",
          "name": "params",
          "type": "bytes"
        }
      ],
      "name": "getVotesWithParams",
      "outputs": [
        {
          "internalType": "uint256",
          "name": "",
          "type": "uint256"
        }
      ],
      "stateMutability": "view",
      "type": "function"
    },
    {
      "inputs": [
        {
          "internalType": "uint256",
          "name": "proposalId",
          "type": "uint256"
        },
        {
          "internalType": "address",
          "name": "account",
          "type": "address"
        }
      ],
      "name": "hasVoted",
      "outputs": [
        {
          "internalType": "bool",
          "name": "",
          "type": "bool"
        }
      ],
      "stateMutability": "view",
      "type": "function"
    },
    {
      "inputs": [
        {
          "internalType": "address[]",
          "name": "targets",
          "type": "address[]"
        },
        {
          "internalType": "uint256[]",
          "name": "values",
          "type": "uint256[]"
        },
        {
          "internalType": "bytes[]",
          "name": "calldatas",
          "type": "bytes[]"
        },
        {
          "internalType": "bytes32",
          "name": "descriptionHash",
          "type": "bytes32"
        }
      ],
      "name": "hashProposal",
      "outputs": [
        {
          "internalType": "uint256",
          "name": "",
          "type": "uint256"
        }
      ],
      "stateMutability": "pure",
      "type": "function"
    },
    {
      "inputs": [],
      "name": "name",
      "outputs": [
        {
          "internalType": "string",
          "name": "",
          "type": "string"
        }
      ],
      "stateMutability": "view",
      "type": "function"
    },
    {
      "inputs": [
        {
          "internalType": "address",
          "name": "",
          "type": "address"
        },
        {
          "internalType": "address",
          "name": "",
          "type": "address"
        },
        {
          "internalType": "uint256[]",
          "name": "",
          "type": "uint256[]"
        },
        {
          "internalType": "uint256[]",
          "name": "",
          "type": "uint256[]"
        },
        {
          "internalType": "bytes",
          "name": "",
          "type": "bytes"
        }
      ],
      "name": "onERC1155BatchReceived",
      "outputs": [
        {
          "internalType": "bytes4",
          "name": "",
          "type": "bytes4"
        }
      ],
      "stateMutability": "nonpayable",
      "type": "function"
    },
    {
      "inputs": [
        {
          "internalType": "address",
          "name": "",
          "type": "address"
        },
        {
          "internalType": "address",
          "name": "",
          "type": "address"
        },
        {
          "internalType": "uint256",
          "name": "",
          "type": "uint256"
        },
        {
          "internalType": "uint256",
          "name": "",
          "type": "uint256"
        },
        {
          "internalType": "bytes",
          "name": "",
          "type": "bytes"
        }
      ],
      "name": "onERC1155Received",
      "outputs": [
        {
          "internalType": "bytes4",
          "name": "",
          "type": "bytes4"
        }
      ],
      "stateMutability": "nonpayable",
      "type": "function"
    },
    {
      "inputs": [
        {
          "internalType": "address",
          "name": "",
          "type": "address"
        },
        {
          "internalType": "address",
          "name": "",
          "type": "address"
        },
        {
          "internalType": "uint256",
          "name": "",
          "type": "uint256"
        },
        {
          "internalType": "bytes",
          "name": "",
          "type": "bytes"
        }
      ],
      "name": "onERC721Received",
      "outputs": [
        {
          "internalType": "bytes4",
          "name": "",
          "type": "bytes4"
        }
      ],
      "stateMutability": "nonpayable",
      "type": "function"
    },
    {
      "inputs": [
        {
          "internalType": "uint256",
          "name": "proposalId",
          "type": "uint256"
        }
      ],
      "name": "proposalDeadline",
      "outputs": [
        {
          "internalType": "uint256",
          "name": "",
          "type": "uint256"
        }
      ],
      "stateMutability": "view",
      "type": "function"
    },
    {
      "inputs": [
        {
          "internalType": "uint256",
          "name": "proposalId",
          "type": "uint256"
        }
      ],
      "name": "proposalSnapshot",
      "outputs": [
        {
          "internalType": "uint256",
          "name": "",
          "type": "uint256"
        }
      ],
      "stateMutability": "view",
      "type": "function"
    },
    {
      "inputs": [],
      "name": "proposalThreshold",
      "outputs": [
        {
          "internalType": "uint256",
          "name": "",
          "type": "uint256"
        }
      ],
      "stateMutability": "view",
      "type": "function"
    },
    {
      "inputs": [
        {
          "internalType": "uint256",
          "name": "proposalId",
          "type": "uint256"
        }
      ],
      "name": "proposalVotes",
      "outputs": [
        {
          "internalType": "uint256",
          "name": "againstVotes",
          "type": "uint256"
        },
        {
          "internalType": "uint256",
          "name": "forVotes",
          "type": "uint256"
        },
        {
          "internalType": "uint256",
          "name": "abstainVotes",
          "type": "uint256"
        }
      ],
      "stateMutability": "view",
      "type": "function"
    },
    {
      "inputs": [
        {
          "internalType": "address[]",
          "name": "targets",
          "type": "address[]"
        },
        {
          "internalType": "uint256[]",
          "name": "values",
          "type": "uint256[]"
        },
        {
          "internalType": "bytes[]",
          "name": "calldatas",
          "type": "bytes[]"
        },
        {
          "internalType": "string",
          "name": "description",
          "type": "string"
        }
      ],
      "name": "propose",
      "outputs": [
        {
          "internalType": "uint256",
          "name": "",
          "type": "uint256"
        }
      ],
      "stateMutability": "nonpayable",
      "type": "function"
    },
    {
      "inputs": [
        {
          "internalType": "uint256",
          "name": "blockNumber",
          "type": "uint256"
        }
      ],
      "name": "quorum",
      "outputs": [
        {
          "internalType": "uint256",
          "name": "",
          "type": "uint256"
        }
      ],
      "stateMutability": "view",
      "type": "function"
    },
    {
      "inputs": [],
      "name": "quorumDenominator",
      "outputs": [
        {
          "internalType": "uint256",
          "name": "",
          "type": "uint256"
        }
      ],
      "stateMutability": "view",
      "type": "function"
    },
    {
      "inputs": [
        {
          "internalType": "uint256",
          "name": "blockNumber",
          "type": "uint256"
        }
      ],
      "name": "quorumNumerator",
      "outputs": [
        {
          "internalType": "uint256",
          "name": "",
          "type": "uint256"
        }
      ],
      "stateMutability": "view",
      "type": "function"
    },
    {
      "inputs": [],
      "name": "quorumNumerator",
      "outputs": [
        {
          "internalType": "uint256",
          "name": "",
          "type": "uint256"
        }
      ],
      "stateMutability": "view",
      "type": "function"
    },
    {
      "inputs": [
        {
          "internalType": "address",
          "name": "target",
          "type": "address"
        },
        {
          "internalType": "uint256",
          "name": "value",
          "type": "uint256"
        },
        {
          "internalType": "bytes",
          "name": "data",
          "type": "bytes"
        }
      ],
      "name": "relay",
      "outputs": [],
      "stateMutability": "payable",
      "type": "function"
    },
    {
      "inputs": [
        {
          "internalType": "uint256",
          "name": "newProposalThreshold",
          "type": "uint256"
        }
      ],
      "name": "setProposalThreshold",
      "outputs": [],
      "stateMutability": "nonpayable",
      "type": "function"
    },
    {
      "inputs": [
        {
          "internalType": "uint256",
          "name": "newVotingDelay",
          "type": "uint256"
        }
      ],
      "name": "setVotingDelay",
      "outputs": [],
      "stateMutability": "nonpayable",
      "type": "function"
    },
    {
      "inputs": [
        {
          "internalType": "uint256",
          "name": "newVotingPeriod",
          "type": "uint256"
        }
      ],
      "name": "setVotingPeriod",
      "outputs": [],
      "stateMutability": "nonpayable",
      "type": "function"
    },
    {
      "inputs": [
        {
          "internalType": "uint256",
          "name": "proposalId",
          "type": "uint256"
        }
      ],
      "name": "state",
      "outputs": [
        {
          "internalType": "enum IGovernor.ProposalState",
          "name": "",
          "type": "uint8"
        }
      ],
      "stateMutability": "view",
      "type": "function"
    },
    {
      "inputs": [
        {
          "internalType": "bytes4",
          "name": "interfaceId",
          "type": "bytes4"
        }
      ],
      "name": "supportsInterface",
      "outputs": [
        {
          "internalType": "bool",
          "name": "",
          "type": "bool"
        }
      ],
      "stateMutability": "view",
      "type": "function"
    },
    {
      "inputs": [],
      "name": "token",
      "outputs": [
        {
          "internalType": "contract IVotes",
          "name": "",
          "type": "address"
        }
      ],
      "stateMutability": "view",
      "type": "function"
    },
    {
      "inputs": [
        {
          "internalType": "uint256",
          "name": "newQuorumNumerator",
          "type": "uint256"
        }
      ],
      "name": "updateQuorumNumerator",
      "outputs": [],
      "stateMutability": "nonpayable",
      "type": "function"
    },
    {
      "inputs": [],
      "name": "version",
      "outputs": [
        {
          "internalType": "string",
          "name": "",
          "type": "string"
        }
      ],
      "stateMutability": "view",
      "type": "function"
    },
    {
      "inputs": [],
      "name": "votingDelay",
      "outputs": [
        {
          "internalType": "uint256",
          "name": "",
          "type": "uint256"
        }
      ],
      "stateMutability": "view",
      "type": "function"
    },
    {
      "inputs": [],
      "name": "votingPeriod",
      "outputs": [
        {
          "internalType": "uint256",
          "name": "",
          "type": "uint256"
        }
      ],
      "stateMutability": "view",
      "type": "function"
    },
    {
      "stateMutability": "payable",
      "type": "receive"
    }
  ],
  "bytecode": "0x6101606040523480156200001257600080fd5b50604051620076b5380380620076b5833981810160405281019062000038919062000d37565b8084848460008980620000506200019e60201b60201c565b60008280519060200120905060008280519060200120905060007f8b73c3c69bb8fe3d512ecc4cf759cc79239f7b179b0ffacaa9a75d522b39400f90508260e081815250508161010081815250504660a08181525050620000b9818484620001db60201b60201c565b608081815250503073ffffffffffffffffffffffffffffffffffffffff1660c08173ffffffffffffffffffffffffffffffffffffffff1681525050806101208181525050505050505080600090816200011391906200101f565b505062000126836200021760201b60201c565b62000137826200025e60201b60201c565b6200014881620002eb60201b60201c565b5050508073ffffffffffffffffffffffffffffffffffffffff166101408173ffffffffffffffffffffffffffffffffffffffff16815250505062000192816200033260201b60201c565b50505050505062001540565b60606040518060400160405280600181526020017f3100000000000000000000000000000000000000000000000000000000000000815250905090565b60008383834630604051602001620001f895949392919062001143565b6040516020818303038152906040528051906020012090509392505050565b7fc565b045403dc03c2eea82b81a0465edad9e2e7fc4d97e11421c209da93d7a93600454826040516200024c929190620011a0565b60405180910390a18060048190555050565b60008111620002a4576040517f08c379a00000000000000000000000000000000000000000000000000000000081526004016200029b9062001254565b60405180910390fd5b7f7e3f7f0708a84de9203036abaa450dccc85ad5ff52f78c170f3edb55cf5e882860055482604051620002d9929190620011a0565b60405180910390a18060058190555050565b7fccb45da8d5717e6c4544694297c4ba5cf151d455c9bb0ed4fc7a38411bc054616006548260405162000320929190620011a0565b60405180910390a18060068190555050565b620003426200051160201b60201c565b81111562000387576040517f08c379a00000000000000000000000000000000000000000000000000000000081526004016200037e9062001312565b60405180910390fd5b6000620003996200051a60201b60201c565b905060008114158015620003b557506000600860000180549050145b15620004b55760086000016040518060400160405280600063ffffffff168152602001620003ee846200057060201b62001c3f1760201c565b7bffffffffffffffffffffffffffffffffffffffffffffffffffffffff168152509080600181540180825580915050600190039060005260206000200160009091909190915060008201518160000160006101000a81548163ffffffff021916908363ffffffff16021790555060208201518160000160046101000a8154817bffffffffffffffffffffffffffffffffffffffffffffffffffffffff02191690837bffffffffffffffffffffffffffffffffffffffffffffffffffffffff16021790555050505b620004d0826008620005de60201b62001caa1790919060201c565b50507f0553476bf02ef2726e8ce5ced78d63e26e602e4a2257b1f559418e24b4633997818360405162000505929190620011a0565b60405180910390a15050565b60006064905090565b6000806008600001805490501462000567576200054360086200066e60201b62001d181760201c565b7bffffffffffffffffffffffffffffffffffffffffffffffffffffffff166200056b565b6007545b905090565b60007bffffffffffffffffffffffffffffffffffffffffffffffffffffffff8016821115620005d6576040517f08c379a0000000000000000000000000000000000000000000000000000000008152600401620005cd90620013aa565b60405180910390fd5b819050919050565b6000806200062184600001620005ff43620006e460201b62001d821760201c565b62000615866200057060201b62001c3f1760201c565b6200073a60201b60201c565b817bffffffffffffffffffffffffffffffffffffffffffffffffffffffff169150807bffffffffffffffffffffffffffffffffffffffffffffffffffffffff169050915091509250929050565b6000808260000180549050905060008114620006d957620006a7836000016001836200069b9190620013fb565b62000adb60201b60201c565b60000160049054906101000a90047bffffffffffffffffffffffffffffffffffffffffffffffffffffffff16620006dc565b60005b915050919050565b600063ffffffff801682111562000732576040517f08c379a00000000000000000000000000000000000000000000000000000000081526004016200072990620014ac565b60405180910390fd5b819050919050565b6000806000858054905090506000811115620009eb5760006200077287600184620007669190620013fb565b62000adb60201b60201c565b6040518060400160405290816000820160009054906101000a900463ffffffff1663ffffffff1663ffffffff1681526020016000820160049054906101000a90047bffffffffffffffffffffffffffffffffffffffffffffffffffffffff167bffffffffffffffffffffffffffffffffffffffffffffffffffffffff167bffffffffffffffffffffffffffffffffffffffffffffffffffffffff168152505090508563ffffffff16816000015163ffffffff16111562000869576040517f08c379a000000000000000000000000000000000000000000000000000000000815260040162000860906200151e565b60405180910390fd5b8563ffffffff16816000015163ffffffff1603620008f95784620008a288600185620008969190620013fb565b62000adb60201b60201c565b60000160046101000a8154817bffffffffffffffffffffffffffffffffffffffffffffffffffffffff02191690837bffffffffffffffffffffffffffffffffffffffffffffffffffffffff160217905550620009d9565b8660405180604001604052808863ffffffff168152602001877bffffffffffffffffffffffffffffffffffffffffffffffffffffffff168152509080600181540180825580915050600190039060005260206000200160009091909190915060008201518160000160006101000a81548163ffffffff021916908363ffffffff16021790555060208201518160000160046101000a8154817bffffffffffffffffffffffffffffffffffffffffffffffffffffffff02191690837bffffffffffffffffffffffffffffffffffffffffffffffffffffffff16021790555050505b80602001518593509350505062000ad3565b8560405180604001604052808763ffffffff168152602001867bffffffffffffffffffffffffffffffffffffffffffffffffffffffff168152509080600181540180825580915050600190039060005260206000200160009091909190915060008201518160000160006101000a81548163ffffffff021916908363ffffffff16021790555060208201518160000160046101000a8154817bffffffffffffffffffffffffffffffffffffffffffffffffffffffff02191690837bffffffffffffffffffffffffffffffffffffffffffffffffffffffff160217905550505060008492509250505b935093915050565b60008260005281602060002001905092915050565b6000604051905090565b600080fd5b600080fd5b600080fd5b600080fd5b6000601f19601f8301169050919050565b7f4e487b7100000000000000000000000000000000000000000000000000000000600052604160045260246000fd5b62000b598262000b0e565b810181811067ffffffffffffffff8211171562000b7b5762000b7a62000b1f565b5b80604052505050565b600062000b9062000af0565b905062000b9e828262000b4e565b919050565b600067ffffffffffffffff82111562000bc15762000bc062000b1f565b5b62000bcc8262000b0e565b9050602081019050919050565b60005b8381101562000bf957808201518184015260208101905062000bdc565b60008484015250505050565b600062000c1c62000c168462000ba3565b62000b84565b90508281526020810184848401111562000c3b5762000c3a62000b09565b5b62000c4884828562000bd9565b509392505050565b600082601f83011262000c685762000c6762000b04565b5b815162000c7a84826020860162000c05565b91505092915050565b600073ffffffffffffffffffffffffffffffffffffffff82169050919050565b600062000cb08262000c83565b9050919050565b600062000cc48262000ca3565b9050919050565b62000cd68162000cb7565b811462000ce257600080fd5b50565b60008151905062000cf68162000ccb565b92915050565b6000819050919050565b62000d118162000cfc565b811462000d1d57600080fd5b50565b60008151905062000d318162000d06565b92915050565b600080600080600060a0868803121562000d565762000d5562000afa565b5b600086015167ffffffffffffffff81111562000d775762000d7662000aff565b5b62000d858882890162000c50565b955050602062000d988882890162000ce5565b945050604062000dab8882890162000d20565b935050606062000dbe8882890162000d20565b925050608062000dd18882890162000d20565b9150509295509295909350565b600081519050919050565b7f4e487b7100000000000000000000000000000000000000000000000000000000600052602260045260246000fd5b6000600282049050600182168062000e3157607f821691505b60208210810362000e475762000e4662000de9565b5b50919050565b60008190508160005260206000209050919050565b60006020601f8301049050919050565b600082821b905092915050565b60006008830262000eb17fffffffffffffffffffffffffffffffffffffffffffffffffffffffffffffffff8262000e72565b62000ebd868362000e72565b95508019841693508086168417925050509392505050565b6000819050919050565b600062000f0062000efa62000ef48462000cfc565b62000ed5565b62000cfc565b9050919050565b6000819050919050565b62000f1c8362000edf565b62000f3462000f2b8262000f07565b84845462000e7f565b825550505050565b600090565b62000f4b62000f3c565b62000f5881848462000f11565b505050565b5b8181101562000f805762000f7460008262000f41565b60018101905062000f5e565b5050565b601f82111562000fcf5762000f998162000e4d565b62000fa48462000e62565b8101602085101562000fb4578190505b62000fcc62000fc38562000e62565b83018262000f5d565b50505b505050565b600082821c905092915050565b600062000ff46000198460080262000fd4565b1980831691505092915050565b60006200100f838362000fe1565b9150826002028217905092915050565b6200102a8262000dde565b67ffffffffffffffff81111562001046576200104562000b1f565b5b62001052825462000e18565b6200105f82828562000f84565b600060209050601f83116001811462001097576000841562001082578287015190505b6200108e858262001001565b865550620010fe565b601f198416620010a78662000e4d565b60005b82811015620010d157848901518255600182019150602085019450602081019050620010aa565b86831015620010f15784890151620010ed601f89168262000fe1565b8355505b6001600288020188555050505b505050505050565b6000819050919050565b6200111b8162001106565b82525050565b6200112c8162000cfc565b82525050565b6200113d8162000ca3565b82525050565b600060a0820190506200115a600083018862001110565b62001169602083018762001110565b62001178604083018662001110565b62001187606083018562001121565b62001196608083018462001132565b9695505050505050565b6000604082019050620011b7600083018562001121565b620011c6602083018462001121565b9392505050565b600082825260208201905092915050565b7f476f7665726e6f7253657474696e67733a20766f74696e6720706572696f642060008201527f746f6f206c6f7700000000000000000000000000000000000000000000000000602082015250565b60006200123c602783620011cd565b91506200124982620011de565b604082019050919050565b600060208201905081810360008301526200126f816200122d565b9050919050565b7f476f7665726e6f72566f74657351756f72756d4672616374696f6e3a2071756f60008201527f72756d4e756d657261746f72206f7665722071756f72756d44656e6f6d696e6160208201527f746f720000000000000000000000000000000000000000000000000000000000604082015250565b6000620012fa604383620011cd565b9150620013078262001276565b606082019050919050565b600060208201905081810360008301526200132d81620012eb565b9050919050565b7f53616665436173743a2076616c756520646f65736e27742066697420696e203260008201527f3234206269747300000000000000000000000000000000000000000000000000602082015250565b600062001392602783620011cd565b91506200139f8262001334565b604082019050919050565b60006020820190508181036000830152620013c58162001383565b9050919050565b7f4e487b7100000000000000000000000000000000000000000000000000000000600052601160045260246000fd5b6000620014088262000cfc565b9150620014158362000cfc565b925082820390508181111562001430576200142f620013cc565b5b92915050565b7f53616665436173743a2076616c756520646f65736e27742066697420696e203360008201527f3220626974730000000000000000000000000000000000000000000000000000602082015250565b600062001494602683620011cd565b9150620014a18262001436565b604082019050919050565b60006020820190508181036000830152620014c78162001485565b9050919050565b7f436865636b706f696e743a20696e76616c6964206b6579000000000000000000600082015250565b600062001506601783620011cd565b91506200151382620014ce565b602082019050919050565b600060208201905081810360008301526200153981620014f7565b9050919050565b60805160a05160c05160e05161010051610120516101405161610c620015a960003960008181611b6801528181611c1d015261287b01526000612e7701526000612eb901526000612e9801526000612dcd01526000612e2301526000612e4c015261610c6000f3fe6080604052600436106102295760003560e01c806370b0f66011610123578063c28bc2fa116100ab578063eb9019d41161006f578063eb9019d414610935578063ece40cc114610972578063f23a6e611461099b578063f8ce560a146109d8578063fc0c546a14610a155761026f565b8063c28bc2fa1461085d578063c59057e414610879578063dd4e2ba5146108b6578063deaaa7cc146108e1578063ea0217cf1461090c5761026f565b80639a802a6d116100f25780639a802a6d14610750578063a7713a701461078d578063b58131b0146107b8578063bc197c81146107e3578063c01f9e37146108205761026f565b806370b0f660146106825780637b3c71d3146106ab5780637d5e81e2146106e857806397c3d334146107255761026f565b80633932abb1116101b1578063544ffc9c11610175578063544ffc9c1461056157806354fd4d50146105a057806356781388146105cb5780635f398a141461060857806360c4247f146106455761026f565b80633932abb1146104425780633bccf4fd1461046d5780633e4f49e6146104aa57806343859632146104e7578063452115d6146105245761026f565b806306fdde03116101f857806306fdde0314610342578063150b7a021461036d5780632656227d146103aa5780632d63f693146103da5780632fe3e261146104175761026f565b806301ffc9a71461027457806302a251a3146102b157806303420181146102dc57806306f3f9e6146103195761026f565b3661026f573073ffffffffffffffffffffffffffffffffffffffff1661024d610a40565b73ffffffffffffffffffffffffffffffffffffffff161461026d57600080fd5b005b600080fd5b34801561028057600080fd5b5061029b600480360381019061029691906139ca565b610a48565b6040516102a89190613a12565b60405180910390f35b3480156102bd57600080fd5b506102c6610bad565b6040516102d39190613a46565b60405180910390f35b3480156102e857600080fd5b5061030360048036038101906102fe9190613ca2565b610bb7565b6040516103109190613a46565b60405180910390f35b34801561032557600080fd5b50610340600480360381019061033b9190613d80565b610c9c565b005b34801561034e57600080fd5b50610357610d93565b6040516103649190613e2c565b60405180910390f35b34801561037957600080fd5b50610394600480360381019061038f9190613eac565b610e25565b6040516103a19190613f3e565b60405180910390f35b6103c460048036038101906103bf91906141c0565b610e39565b6040516103d19190613a46565b60405180910390f35b3480156103e657600080fd5b5061040160048036038101906103fc9190613d80565b610f86565b60405161040e9190613a46565b60405180910390f35b34801561042357600080fd5b5061042c610ff4565b604051610439919061428a565b60405180910390f35b34801561044e57600080fd5b50610457611018565b6040516104649190613a46565b60405180910390f35b34801561047957600080fd5b50610494600480360381019061048f91906142a5565b611022565b6040516104a19190613a46565b60405180910390f35b3480156104b657600080fd5b506104d160048036038101906104cc9190613d80565b6110ac565b6040516104de9190614397565b60405180910390f35b3480156104f357600080fd5b5061050e600480360381019061050991906143b2565b6111c0565b60405161051b9190613a12565b60405180910390f35b34801561053057600080fd5b5061054b600480360381019061054691906141c0565b61122b565b6040516105589190613a46565b60405180910390f35b34801561056d57600080fd5b5061058860048036038101906105839190613d80565b611243565b604051610597939291906143f2565b60405180910390f35b3480156105ac57600080fd5b506105b561127b565b6040516105c29190613e2c565b60405180910390f35b3480156105d757600080fd5b506105f260048036038101906105ed9190614429565b6112b8565b6040516105ff9190613a46565b60405180910390f35b34801561061457600080fd5b5061062f600480360381019061062a9190614469565b6112e9565b60405161063c9190613a46565b60405180910390f35b34801561065157600080fd5b5061066c60048036038101906106679190613d80565b611353565b6040516106799190613a46565b60405180910390f35b34801561068e57600080fd5b506106a960048036038101906106a49190613d80565b61149f565b005b3480156106b757600080fd5b506106d260048036038101906106cd919061450d565b611596565b6040516106df9190613a46565b60405180910390f35b3480156106f457600080fd5b5061070f600480360381019061070a9190614622565b6115fe565b60405161071c9190613a46565b60405180910390f35b34801561073157600080fd5b5061073a611616565b6040516107479190613a46565b60405180910390f35b34801561075c57600080fd5b50610777600480360381019061077291906146f9565b61161f565b6040516107849190613a46565b60405180910390f35b34801561079957600080fd5b506107a2611635565b6040516107af9190613a46565b60405180910390f35b3480156107c457600080fd5b506107cd61167c565b6040516107da9190613a46565b60405180910390f35b3480156107ef57600080fd5b5061080a60048036038101906108059190614768565b61168b565b6040516108179190613f3e565b60405180910390f35b34801561082c57600080fd5b5061084760048036038101906108429190613d80565b6116a0565b6040516108549190613a46565b60405180910390f35b6108776004803603810190610872919061488d565b61170e565b005b34801561088557600080fd5b506108a0600480360381019061089b91906141c0565b611897565b6040516108ad9190613a46565b60405180910390f35b3480156108c257600080fd5b506108cb6118d3565b6040516108d89190613e2c565b60405180910390f35b3480156108ed57600080fd5b506108f6611910565b604051610903919061428a565b60405180910390f35b34801561091857600080fd5b50610933600480360381019061092e9190613d80565b611934565b005b34801561094157600080fd5b5061095c60048036038101906109579190614901565b611a2b565b6040516109699190613a46565b60405180910390f35b34801561097e57600080fd5b5061099960048036038101906109949190613d80565b611a47565b005b3480156109a757600080fd5b506109c260048036038101906109bd9190614941565b611b3e565b6040516109cf9190613f3e565b60405180910390f35b3480156109e457600080fd5b506109ff60048036038101906109fa9190613d80565b611b53565b604051610a0c9190613a46565b60405180910390f35b348015610a2157600080fd5b50610a2a611c1b565b604051610a379190614a37565b60405180910390f35b600030905090565b6000639a802a6d60e01b630342018160e01b635f398a1460e01b7f79dd796f000000000000000000000000000000000000000000000000000000001818187bffffffffffffffffffffffffffffffffffffffffffffffffffffffff1916827bffffffffffffffffffffffffffffffffffffffffffffffffffffffff19161480610b2e57507f79dd796f000000000000000000000000000000000000000000000000000000007bffffffffffffffffffffffffffffffffffffffffffffffffffffffff1916827bffffffffffffffffffffffffffffffffffffffffffffffffffffffff1916145b80610b9657507f4e2312e0000000000000000000000000000000000000000000000000000000007bffffffffffffffffffffffffffffffffffffffffffffffffffffffff1916827bffffffffffffffffffffffffffffffffffffffffffffffffffffffff1916145b80610ba65750610ba582611dd5565b5b9050919050565b6000600554905090565b600080610c3a610c327fb3b3f3b703cd84ce352197dcff232b1b5d3cfb2025ce47cf04742d0651f1af888c8c8c8c604051610bf3929190614a82565b60405180910390208b80519060200120604051602001610c17959493929190614aaa565b60405160208183030381529060405280519060200120611e3f565b868686611e59565b9050610c8d8a828b8b8b8080601f016020809104026020016040519081016040528093929190818152602001838380828437600081840152601f19601f820116905080830192505050505050508a611e84565b91505098975050505050505050565b610ca4610a40565b73ffffffffffffffffffffffffffffffffffffffff16610cc2612040565b73ffffffffffffffffffffffffffffffffffffffff1614610d18576040517f08c379a0000000000000000000000000000000000000000000000000000000008152600401610d0f90614b49565b60405180910390fd5b3073ffffffffffffffffffffffffffffffffffffffff16610d37610a40565b73ffffffffffffffffffffffffffffffffffffffff1614610d87576000610d5c612048565b604051610d6a929190614a82565b604051809103902090505b80610d806002612055565b03610d7557505b610d9081612131565b50565b606060008054610da290614b98565b80601f0160208091040260200160405190810160405280929190818152602001828054610dce90614b98565b8015610e1b5780601f10610df057610100808354040283529160200191610e1b565b820191906000526020600020905b815481529060010190602001808311610dfe57829003601f168201915b5050505050905090565b600063150b7a0260e01b9050949350505050565b600080610e4886868686611897565b90506000610e55826110ac565b905060046007811115610e6b57610e6a614320565b5b816007811115610e7e57610e7d614320565b5b1480610eae575060056007811115610e9957610e98614320565b5b816007811115610eac57610eab614320565b5b145b610eed576040517f08c379a0000000000000000000000000000000000000000000000000000000008152600401610ee490614c3b565b60405180910390fd5b600180600084815260200190815260200160002060020160006101000a81548160ff0219169083151502179055507f712ae1383f79ac853f8d882153778e0260ef8f03b504e2866e0593e04d2b291f82604051610f4a9190613a46565b60405180910390a1610f5f82888888886122e5565b610f6c82888888886123c8565b610f7982888888886124d7565b8192505050949350505050565b6000610fe3600160008481526020019081526020016000206000016040518060200160405290816000820160009054906101000a900467ffffffffffffffff1667ffffffffffffffff1667ffffffffffffffff1681525050612532565b67ffffffffffffffff169050919050565b7fb3b3f3b703cd84ce352197dcff232b1b5d3cfb2025ce47cf04742d0651f1af8881565b6000600454905090565b60008061108361107b7f150214d74d59b7d1e90c73fc22ef3d991dd0a76b046543d4d80ab92d2a50328f898960405160200161106093929190614c5b565b60405160208183030381529060405280519060200120611e3f565b868686611e59565b90506110a087828860405180602001604052806000815250612540565b91505095945050505050565b6000806001600084815260200190815260200160002090508060020160009054906101000a900460ff16156110e55760079150506111bb565b8060020160019054906101000a900460ff16156111065760029150506111bb565b600061111184610f86565b905060008103611156576040517f08c379a000000000000000000000000000000000000000000000000000000000815260040161114d90614cde565b60405180910390fd5b438110611168576000925050506111bb565b6000611173856116a0565b905043811061118857600193505050506111bb565b61119185612560565b80156111a257506111a1856125a7565b5b156111b357600493505050506111bb565b600393505050505b919050565b60006009600084815260200190815260200160002060030160008373ffffffffffffffffffffffffffffffffffffffff1673ffffffffffffffffffffffffffffffffffffffff16815260200190815260200160002060009054906101000a900460ff16905092915050565b6000611239858585856125d2565b9050949350505050565b600080600080600960008681526020019081526020016000209050806000015481600101548260020154935093509350509193909250565b60606040518060400160405280600181526020017f3100000000000000000000000000000000000000000000000000000000000000815250905090565b6000806112c3612040565b90506112e084828560405180602001604052806000815250612540565b91505092915050565b6000806112f4612040565b905061134787828888888080601f016020809104026020016040519081016040528093929190818152602001838380828437600081840152601f19601f8201169050808301925050505050505087611e84565b91505095945050505050565b6000806008600001805490509050600081036113745760075491505061149a565b600060086000016001836113889190614d2d565b8154811061139957611398614d61565b5b906000526020600020016040518060400160405290816000820160009054906101000a900463ffffffff1663ffffffff1663ffffffff1681526020016000820160049054906101000a90047bffffffffffffffffffffffffffffffffffffffffffffffffffffffff167bffffffffffffffffffffffffffffffffffffffffffffffffffffffff167bffffffffffffffffffffffffffffffffffffffffffffffffffffffff1681525050905083816000015163ffffffff16116114815780602001517bffffffffffffffffffffffffffffffffffffffffffffffffffffffff169250505061149a565b61149584600861272b90919063ffffffff16565b925050505b919050565b6114a7610a40565b73ffffffffffffffffffffffffffffffffffffffff166114c5612040565b73ffffffffffffffffffffffffffffffffffffffff161461151b576040517f08c379a000000000000000000000000000000000000000000000000000000000815260040161151290614b49565b60405180910390fd5b3073ffffffffffffffffffffffffffffffffffffffff1661153a610a40565b73ffffffffffffffffffffffffffffffffffffffff161461158a57600061155f612048565b60405161156d929190614a82565b604051809103902090505b806115836002612055565b0361157857505b6115938161281a565b50565b6000806115a1612040565b90506115f386828787878080601f016020809104026020016040519081016040528093929190818152602001838380828437600081840152601f19601f82011690508083019250505050505050612540565b915050949350505050565b600061160c8585858561285f565b9050949350505050565b60006064905090565b600061162c848484612877565b90509392505050565b60008060086000018054905014611673576116506008611d18565b7bffffffffffffffffffffffffffffffffffffffffffffffffffffffff16611677565b6007545b905090565b600061168661291e565b905090565b600063bc197c8160e01b905095945050505050565b60006116fd600160008481526020019081526020016000206001016040518060200160405290816000820160009054906101000a900467ffffffffffffffff1667ffffffffffffffff1667ffffffffffffffff1681525050612532565b67ffffffffffffffff169050919050565b611716610a40565b73ffffffffffffffffffffffffffffffffffffffff16611734612040565b73ffffffffffffffffffffffffffffffffffffffff161461178a576040517f08c379a000000000000000000000000000000000000000000000000000000000815260040161178190614b49565b60405180910390fd5b3073ffffffffffffffffffffffffffffffffffffffff166117a9610a40565b73ffffffffffffffffffffffffffffffffffffffff16146117f95760006117ce612048565b6040516117dc929190614a82565b604051809103902090505b806117f26002612055565b036117e757505b6000808573ffffffffffffffffffffffffffffffffffffffff16858585604051611824929190614a82565b60006040518083038185875af1925050503d8060008114611861576040519150601f19603f3d011682016040523d82523d6000602084013e611866565b606091505b509150915061188e828260405180606001604052806028815260200161608860289139612928565b50505050505050565b6000848484846040516020016118b09493929190615023565b6040516020818303038152906040528051906020012060001c9050949350505050565b60606040518060400160405280602081526020017f737570706f72743d627261766f2671756f72756d3d666f722c6162737461696e815250905090565b7f150214d74d59b7d1e90c73fc22ef3d991dd0a76b046543d4d80ab92d2a50328f81565b61193c610a40565b73ffffffffffffffffffffffffffffffffffffffff1661195a612040565b73ffffffffffffffffffffffffffffffffffffffff16146119b0576040517f08c379a00000000000000000000000000000000000000000000000000000000081526004016119a790614b49565b60405180910390fd5b3073ffffffffffffffffffffffffffffffffffffffff166119cf610a40565b73ffffffffffffffffffffffffffffffffffffffff1614611a1f5760006119f4612048565b604051611a02929190614a82565b604051809103902090505b80611a186002612055565b03611a0d57505b611a288161294a565b50565b6000611a3f8383611a3a6129d2565b612877565b905092915050565b611a4f610a40565b73ffffffffffffffffffffffffffffffffffffffff16611a6d612040565b73ffffffffffffffffffffffffffffffffffffffff1614611ac3576040517f08c379a0000000000000000000000000000000000000000000000000000000008152600401611aba90614b49565b60405180910390fd5b3073ffffffffffffffffffffffffffffffffffffffff16611ae2610a40565b73ffffffffffffffffffffffffffffffffffffffff1614611b32576000611b07612048565b604051611b15929190614a82565b604051809103902090505b80611b2b6002612055565b03611b2057505b611b3b816129e9565b50565b600063f23a6e6160e01b905095945050505050565b6000611b5d611616565b611b6683611353565b7f000000000000000000000000000000000000000000000000000000000000000073ffffffffffffffffffffffffffffffffffffffff16638e539e8c856040518263ffffffff1660e01b8152600401611bbf9190613a46565b602060405180830381865afa158015611bdc573d6000803e3d6000fd5b505050506040513d601f19601f82011682018060405250810190611c009190615092565b611c0a91906150bf565b611c149190615130565b9050919050565b7f000000000000000000000000000000000000000000000000000000000000000081565b60007bffffffffffffffffffffffffffffffffffffffffffffffffffffffff8016821115611ca2576040517f08c379a0000000000000000000000000000000000000000000000000000000008152600401611c99906151d3565b60405180910390fd5b819050919050565b600080611ccb84600001611cbd43611d82565b611cc686611c3f565b612a2e565b817bffffffffffffffffffffffffffffffffffffffffffffffffffffffff169150807bffffffffffffffffffffffffffffffffffffffffffffffffffffffff169050915091509250929050565b6000808260000180549050905060008114611d7757611d4683600001600183611d419190614d2d565b612db4565b60000160049054906101000a90047bffffffffffffffffffffffffffffffffffffffffffffffffffffffff16611d7a565b60005b915050919050565b600063ffffffff8016821115611dcd576040517f08c379a0000000000000000000000000000000000000000000000000000000008152600401611dc490615265565b60405180910390fd5b819050919050565b60007f01ffc9a7000000000000000000000000000000000000000000000000000000007bffffffffffffffffffffffffffffffffffffffffffffffffffffffff1916827bffffffffffffffffffffffffffffffffffffffffffffffffffffffff1916149050919050565b6000611e52611e4c612dc9565b83612ee3565b9050919050565b6000806000611e6a87878787612f16565b91509150611e7781612ff8565b8192505050949350505050565b60008060016000888152602001908152602001600020905060016007811115611eb057611eaf614320565b5b611eb9886110ac565b6007811115611ecb57611eca614320565b5b14611f0b576040517f08c379a0000000000000000000000000000000000000000000000000000000008152600401611f02906152f7565b60405180910390fd5b6000611f6a87611f5a846000016040518060200160405290816000820160009054906101000a900467ffffffffffffffff1667ffffffffffffffff1667ffffffffffffffff1681525050612532565b67ffffffffffffffff1686612877565b9050611f79888888848861315e565b6000845103611fdb578673ffffffffffffffffffffffffffffffffffffffff167fb8e138887d0aa13bab447e82de9d5c1777041ecd21ca36ba824ff1e6c07ddda489888489604051611fce9493929190615317565b60405180910390a2612032565b8673ffffffffffffffffffffffffffffffffffffffff167fe2babfbac5889a709b63bb7f598b324e08bc5a4fb9ec647fb3cbc9ec07eb871289888489896040516120299594939291906153ad565b60405180910390a25b809250505095945050505050565b600033905090565b3660008036915091509091565b600061206082613362565b15612097576040517f3db2a12a00000000000000000000000000000000000000000000000000000000815260040160405180910390fd5b60008260000160009054906101000a9004600f0b905082600101600082600f0b600f0b815260200190815260200160002054915082600101600082600f0b600f0b815260200190815260200160002060009055600181018360000160006101000a8154816fffffffffffffffffffffffffffffffff0219169083600f0b6fffffffffffffffffffffffffffffffff16021790555050919050565b612139611616565b81111561217b576040517f08c379a0000000000000000000000000000000000000000000000000000000008152600401612172906154a6565b60405180910390fd5b6000612185611635565b9050600081141580156121a057506000600860000180549050145b156122925760086000016040518060400160405280600063ffffffff1681526020016121cb84611c3f565b7bffffffffffffffffffffffffffffffffffffffffffffffffffffffff168152509080600181540180825580915050600190039060005260206000200160009091909190915060008201518160000160006101000a81548163ffffffff021916908363ffffffff16021790555060208201518160000160046101000a8154817bffffffffffffffffffffffffffffffffffffffffffffffffffffffff02191690837bffffffffffffffffffffffffffffffffffffffffffffffffffffffff16021790555050505b6122a6826008611caa90919063ffffffff16565b50507f0553476bf02ef2726e8ce5ced78d63e26e602e4a2257b1f559418e24b463399781836040516122d99291906154c6565b60405180910390a15050565b3073ffffffffffffffffffffffffffffffffffffffff16612304610a40565b73ffffffffffffffffffffffffffffffffffffffff16146123c15760005b84518110156123bf573073ffffffffffffffffffffffffffffffffffffffff1685828151811061235557612354614d61565b5b602002602001015173ffffffffffffffffffffffffffffffffffffffff16036123ae576123ad83828151811061238e5761238d614d61565b5b602002602001015180519060200120600261339790919063ffffffff16565b5b806123b8906154ef565b9050612322565b505b5050505050565b60006040518060600160405280602781526020016160b060279139905060005b85518110156124ce5760008087838151811061240757612406614d61565b5b602002602001015173ffffffffffffffffffffffffffffffffffffffff1687848151811061243857612437614d61565b5b602002602001015187858151811061245357612452614d61565b5b60200260200101516040516124689190615568565b60006040518083038185875af1925050503d80600081146124a5576040519150601f19603f3d011682016040523d82523d6000602084013e6124aa565b606091505b50915091506124ba828286612928565b505050806124c7906154ef565b90506123e8565b50505050505050565b3073ffffffffffffffffffffffffffffffffffffffff166124f6610a40565b73ffffffffffffffffffffffffffffffffffffffff161461252b5761251b6002613362565b61252a576125296002613413565b5b5b5050505050565b600081600001519050919050565b6000612556858585856125516129d2565b611e84565b9050949350505050565b6000806009600084815260200190815260200160002090508060020154816001015461258c919061557f565b61259d61259885610f86565b611b53565b1115915050919050565b6000806009600084815260200190815260200160002090508060000154816001015411915050919050565b6000806125e186868686611897565b905060006125ee826110ac565b90506002600781111561260457612603614320565b5b81600781111561261757612616614320565b5b1415801561264a57506006600781111561263457612633614320565b5b81600781111561264757612646614320565b5b14155b801561267a575060078081111561266457612663614320565b5b81600781111561267757612676614320565b5b14155b6126b9576040517f08c379a00000000000000000000000000000000000000000000000000000000081526004016126b0906155ff565b60405180910390fd5b600180600084815260200190815260200160002060020160016101000a81548160ff0219169083151502179055507f789cf55be980739dad1d0699b93b58e806b51c9d96619bfa8fe0a28abaa7b30c826040516127169190613a46565b60405180910390a18192505050949350505050565b600043821061276f576040517f08c379a00000000000000000000000000000000000000000000000000000000081526004016127669061566b565b60405180910390fd5b600061277a83611d82565b9050600084600001805490509050600061279a8660000184600085613494565b9050600081146127ee576127bd866000016001836127b89190614d2d565b612db4565b60000160049054906101000a90047bffffffffffffffffffffffffffffffffffffffffffffffffffffffff166127f1565b60005b7bffffffffffffffffffffffffffffffffffffffffffffffffffffffff16935050505092915050565b7fc565b045403dc03c2eea82b81a0465edad9e2e7fc4d97e11421c209da93d7a936004548260405161284d9291906154c6565b60405180910390a18060048190555050565b600061286d85858585613507565b9050949350505050565b60007f000000000000000000000000000000000000000000000000000000000000000073ffffffffffffffffffffffffffffffffffffffff16633a46b1a885856040518363ffffffff1660e01b81526004016128d492919061569a565b602060405180830381865afa1580156128f1573d6000803e3d6000fd5b505050506040513d601f19601f820116820180604052508101906129159190615092565b90509392505050565b6000600654905090565b6060831561293857829050612943565b612942838361380e565b5b9392505050565b6000811161298d576040517f08c379a000000000000000000000000000000000000000000000000000000000815260040161298490615735565b60405180910390fd5b7f7e3f7f0708a84de9203036abaa450dccc85ad5ff52f78c170f3edb55cf5e8828600554826040516129c09291906154c6565b60405180910390a18060058190555050565b606060405180602001604052806000815250905090565b7fccb45da8d5717e6c4544694297c4ba5cf151d455c9bb0ed4fc7a38411bc0546160065482604051612a1c9291906154c6565b60405180910390a18060068190555050565b6000806000858054905090506000811115612cc4576000612a5b87600184612a569190614d2d565b612db4565b6040518060400160405290816000820160009054906101000a900463ffffffff1663ffffffff1663ffffffff1681526020016000820160049054906101000a90047bffffffffffffffffffffffffffffffffffffffffffffffffffffffff167bffffffffffffffffffffffffffffffffffffffffffffffffffffffff167bffffffffffffffffffffffffffffffffffffffffffffffffffffffff168152505090508563ffffffff16816000015163ffffffff161115612b4f576040517f08c379a0000000000000000000000000000000000000000000000000000000008152600401612b46906157a1565b60405180910390fd5b8563ffffffff16816000015163ffffffff1603612bd35784612b7d88600185612b789190614d2d565b612db4565b60000160046101000a8154817bffffffffffffffffffffffffffffffffffffffffffffffffffffffff02191690837bffffffffffffffffffffffffffffffffffffffffffffffffffffffff160217905550612cb3565b8660405180604001604052808863ffffffff168152602001877bffffffffffffffffffffffffffffffffffffffffffffffffffffffff168152509080600181540180825580915050600190039060005260206000200160009091909190915060008201518160000160006101000a81548163ffffffff021916908363ffffffff16021790555060208201518160000160046101000a8154817bffffffffffffffffffffffffffffffffffffffffffffffffffffffff02191690837bffffffffffffffffffffffffffffffffffffffffffffffffffffffff16021790555050505b806020015185935093505050612dac565b8560405180604001604052808763ffffffff168152602001867bffffffffffffffffffffffffffffffffffffffffffffffffffffffff168152509080600181540180825580915050600190039060005260206000200160009091909190915060008201518160000160006101000a81548163ffffffff021916908363ffffffff16021790555060208201518160000160046101000a8154817bffffffffffffffffffffffffffffffffffffffffffffffffffffffff02191690837bffffffffffffffffffffffffffffffffffffffffffffffffffffffff160217905550505060008492509250505b935093915050565b60008260005281602060002001905092915050565b60007f000000000000000000000000000000000000000000000000000000000000000073ffffffffffffffffffffffffffffffffffffffff163073ffffffffffffffffffffffffffffffffffffffff16148015612e4557507f000000000000000000000000000000000000000000000000000000000000000046145b15612e72577f00000000000000000000000000000000000000000000000000000000000000009050612ee0565b612edd7f00000000000000000000000000000000000000000000000000000000000000007f00000000000000000000000000000000000000000000000000000000000000007f000000000000000000000000000000000000000000000000000000000000000061385e565b90505b90565b60008282604051602001612ef8929190615839565b60405160208183030381529060405280519060200120905092915050565b6000807f7fffffffffffffffffffffffffffffff5d576e7357a4501ddfe92f46681b20a08360001c1115612f51576000600391509150612fef565b600060018787878760405160008152602001604052604051612f769493929190615870565b6020604051602081039080840390855afa158015612f98573d6000803e3d6000fd5b505050602060405103519050600073ffffffffffffffffffffffffffffffffffffffff168173ffffffffffffffffffffffffffffffffffffffff1603612fe657600060019250925050612fef565b80600092509250505b94509492505050565b6000600481111561300c5761300b614320565b5b81600481111561301f5761301e614320565b5b031561315b576001600481111561303957613038614320565b5b81600481111561304c5761304b614320565b5b0361308c576040517f08c379a000000000000000000000000000000000000000000000000000000000815260040161308390615901565b60405180910390fd5b600260048111156130a05761309f614320565b5b8160048111156130b3576130b2614320565b5b036130f3576040517f08c379a00000000000000000000000000000000000000000000000000000000081526004016130ea9061596d565b60405180910390fd5b6003600481111561310757613106614320565b5b81600481111561311a57613119614320565b5b0361315a576040517f08c379a0000000000000000000000000000000000000000000000000000000008152600401613151906159ff565b60405180910390fd5b5b50565b60006009600087815260200190815260200160002090508060030160008673ffffffffffffffffffffffffffffffffffffffff1673ffffffffffffffffffffffffffffffffffffffff16815260200190815260200160002060009054906101000a900460ff1615613204576040517f08c379a00000000000000000000000000000000000000000000000000000000081526004016131fb90615a91565b60405180910390fd5b60018160030160008773ffffffffffffffffffffffffffffffffffffffff1673ffffffffffffffffffffffffffffffffffffffff16815260200190815260200160002060006101000a81548160ff0219169083151502179055506000600281111561327257613271614320565b5b60ff168460ff160361329e5782816000016000828254613292919061557f565b9250508190555061335a565b600160028111156132b2576132b1614320565b5b60ff168460ff16036132de57828160010160008282546132d2919061557f565b92505081905550613359565b6002808111156132f1576132f0614320565b5b60ff168460ff160361331d5782816002016000828254613311919061557f565b92505081905550613358565b6040517f08c379a000000000000000000000000000000000000000000000000000000000815260040161334f90615b23565b60405180910390fd5b5b5b505050505050565b60008160000160009054906101000a9004600f0b600f0b8260000160109054906101000a9004600f0b600f0b13159050919050565b60008260000160109054906101000a9004600f0b90508183600101600083600f0b600f0b815260200190815260200160002081905550600181018360000160106101000a8154816fffffffffffffffffffffffffffffffff0219169083600f0b6fffffffffffffffffffffffffffffffff160217905550505050565b60008160000160006101000a8154816fffffffffffffffffffffffffffffffff0219169083600f0b6fffffffffffffffffffffffffffffffff16021790555060008160000160106101000a8154816fffffffffffffffffffffffffffffffff0219169083600f0b6fffffffffffffffffffffffffffffffff16021790555050565b60005b818310156134fc5760006134ab8484613898565b90508463ffffffff166134be8783612db4565b60000160009054906101000a900463ffffffff1663ffffffff1611156134e6578092506134f6565b6001816134f3919061557f565b93505b50613497565b819050949350505050565b600061351161167c565b61352e61351c612040565b6001436135299190614d2d565b611a2b565b101561356f576040517f08c379a000000000000000000000000000000000000000000000000000000000815260040161356690615bb5565b60405180910390fd5b60006135848686868680519060200120611897565b905084518651146135ca576040517f08c379a00000000000000000000000000000000000000000000000000000000081526004016135c190615c47565b60405180910390fd5b835186511461360e576040517f08c379a000000000000000000000000000000000000000000000000000000000815260040161360590615c47565b60405180910390fd5b6000865111613652576040517f08c379a000000000000000000000000000000000000000000000000000000000815260040161364990615cb3565b60405180910390fd5b60006001600083815260200190815260200160002090506136b2816000016040518060200160405290816000820160009054906101000a900467ffffffffffffffff1667ffffffffffffffff1667ffffffffffffffff16815250506138be565b6136f1576040517f08c379a00000000000000000000000000000000000000000000000000000000081526004016136e890615d45565b60405180910390fd5b60006137036136fe611018565b6138d8565b61370c436138d8565b6137169190615d79565b9050600061372a613725610bad565b6138d8565b826137359190615d79565b905061374d828460000161392f90919063ffffffff16565b613763818460010161392f90919063ffffffff16565b7f7d84a6263ae0d98d3329bd7b46bb4e8d6f98cd35a7adb45c274c8b7fd5ebd5e08461378d612040565b8b8b8d5167ffffffffffffffff8111156137aa576137a9613b41565b5b6040519080825280602002602001820160405280156137dd57816020015b60608152602001906001900390816137c85790505b508c88888e6040516137f799989796959493929190615ef2565b60405180910390a183945050505050949350505050565b6000825111156138215781518083602001fd5b806040517f08c379a00000000000000000000000000000000000000000000000000000000081526004016138559190613e2c565b60405180910390fd5b60008383834630604051602001613879959493929190615fa2565b6040516020818303038152906040528051906020012090509392505050565b600060028284186138a99190615130565b8284166138b6919061557f565b905092915050565b600080826000015167ffffffffffffffff16149050919050565b600067ffffffffffffffff8016821115613927576040517f08c379a000000000000000000000000000000000000000000000000000000000815260040161391e90616067565b60405180910390fd5b819050919050565b808260000160006101000a81548167ffffffffffffffff021916908367ffffffffffffffff1602179055505050565b6000604051905090565b600080fd5b600080fd5b60007fffffffff0000000000000000000000000000000000000000000000000000000082169050919050565b6139a781613972565b81146139b257600080fd5b50565b6000813590506139c48161399e565b92915050565b6000602082840312156139e0576139df613968565b5b60006139ee848285016139b5565b91505092915050565b60008115159050919050565b613a0c816139f7565b82525050565b6000602082019050613a276000830184613a03565b92915050565b6000819050919050565b613a4081613a2d565b82525050565b6000602082019050613a5b6000830184613a37565b92915050565b613a6a81613a2d565b8114613a7557600080fd5b50565b600081359050613a8781613a61565b92915050565b600060ff82169050919050565b613aa381613a8d565b8114613aae57600080fd5b50565b600081359050613ac081613a9a565b92915050565b600080fd5b600080fd5b600080fd5b60008083601f840112613aeb57613aea613ac6565b5b8235905067ffffffffffffffff811115613b0857613b07613acb565b5b602083019150836001820283011115613b2457613b23613ad0565b5b9250929050565b600080fd5b6000601f19601f8301169050919050565b7f4e487b7100000000000000000000000000000000000000000000000000000000600052604160045260246000fd5b613b7982613b30565b810181811067ffffffffffffffff82111715613b9857613b97613b41565b5b80604052505050565b6000613bab61395e565b9050613bb78282613b70565b919050565b600067ffffffffffffffff821115613bd757613bd6613b41565b5b613be082613b30565b9050602081019050919050565b82818337600083830152505050565b6000613c0f613c0a84613bbc565b613ba1565b905082815260208101848484011115613c2b57613c2a613b2b565b5b613c36848285613bed565b509392505050565b600082601f830112613c5357613c52613ac6565b5b8135613c63848260208601613bfc565b91505092915050565b6000819050919050565b613c7f81613c6c565b8114613c8a57600080fd5b50565b600081359050613c9c81613c76565b92915050565b60008060008060008060008060e0898b031215613cc257613cc1613968565b5b6000613cd08b828c01613a78565b9850506020613ce18b828c01613ab1565b975050604089013567ffffffffffffffff811115613d0257613d0161396d565b5b613d0e8b828c01613ad5565b9650965050606089013567ffffffffffffffff811115613d3157613d3061396d565b5b613d3d8b828c01613c3e565b9450506080613d4e8b828c01613ab1565b93505060a0613d5f8b828c01613c8d565b92505060c0613d708b828c01613c8d565b9150509295985092959890939650565b600060208284031215613d9657613d95613968565b5b6000613da484828501613a78565b91505092915050565b600081519050919050565b600082825260208201905092915050565b60005b83811015613de7578082015181840152602081019050613dcc565b60008484015250505050565b6000613dfe82613dad565b613e088185613db8565b9350613e18818560208601613dc9565b613e2181613b30565b840191505092915050565b60006020820190508181036000830152613e468184613df3565b905092915050565b600073ffffffffffffffffffffffffffffffffffffffff82169050919050565b6000613e7982613e4e565b9050919050565b613e8981613e6e565b8114613e9457600080fd5b50565b600081359050613ea681613e80565b92915050565b60008060008060808587031215613ec657613ec5613968565b5b6000613ed487828801613e97565b9450506020613ee587828801613e97565b9350506040613ef687828801613a78565b925050606085013567ffffffffffffffff811115613f1757613f1661396d565b5b613f2387828801613c3e565b91505092959194509250565b613f3881613972565b82525050565b6000602082019050613f536000830184613f2f565b92915050565b600067ffffffffffffffff821115613f7457613f73613b41565b5b602082029050602081019050919050565b6000613f98613f9384613f59565b613ba1565b90508083825260208201905060208402830185811115613fbb57613fba613ad0565b5b835b81811015613fe45780613fd08882613e97565b845260208401935050602081019050613fbd565b5050509392505050565b600082601f83011261400357614002613ac6565b5b8135614013848260208601613f85565b91505092915050565b600067ffffffffffffffff82111561403757614036613b41565b5b602082029050602081019050919050565b600061405b6140568461401c565b613ba1565b9050808382526020820190506020840283018581111561407e5761407d613ad0565b5b835b818110156140a757806140938882613a78565b845260208401935050602081019050614080565b5050509392505050565b600082601f8301126140c6576140c5613ac6565b5b81356140d6848260208601614048565b91505092915050565b600067ffffffffffffffff8211156140fa576140f9613b41565b5b602082029050602081019050919050565b600061411e614119846140df565b613ba1565b9050808382526020820190506020840283018581111561414157614140613ad0565b5b835b8181101561418857803567ffffffffffffffff81111561416657614165613ac6565b5b8086016141738982613c3e565b85526020850194505050602081019050614143565b5050509392505050565b600082601f8301126141a7576141a6613ac6565b5b81356141b784826020860161410b565b91505092915050565b600080600080608085870312156141da576141d9613968565b5b600085013567ffffffffffffffff8111156141f8576141f761396d565b5b61420487828801613fee565b945050602085013567ffffffffffffffff8111156142255761422461396d565b5b614231878288016140b1565b935050604085013567ffffffffffffffff8111156142525761425161396d565b5b61425e87828801614192565b925050606061426f87828801613c8d565b91505092959194509250565b61428481613c6c565b82525050565b600060208201905061429f600083018461427b565b92915050565b600080600080600060a086880312156142c1576142c0613968565b5b60006142cf88828901613a78565b95505060206142e088828901613ab1565b94505060406142f188828901613ab1565b935050606061430288828901613c8d565b925050608061431388828901613c8d565b9150509295509295909350565b7f4e487b7100000000000000000000000000000000000000000000000000000000600052602160045260246000fd5b600881106143605761435f614320565b5b50565b60008190506143718261434f565b919050565b600061438182614363565b9050919050565b61439181614376565b82525050565b60006020820190506143ac6000830184614388565b92915050565b600080604083850312156143c9576143c8613968565b5b60006143d785828601613a78565b92505060206143e885828601613e97565b9150509250929050565b60006060820190506144076000830186613a37565b6144146020830185613a37565b6144216040830184613a37565b949350505050565b600080604083850312156144405761443f613968565b5b600061444e85828601613a78565b925050602061445f85828601613ab1565b9150509250929050565b60008060008060006080868803121561448557614484613968565b5b600061449388828901613a78565b95505060206144a488828901613ab1565b945050604086013567ffffffffffffffff8111156144c5576144c461396d565b5b6144d188828901613ad5565b9350935050606086013567ffffffffffffffff8111156144f4576144f361396d565b5b61450088828901613c3e565b9150509295509295909350565b6000806000806060858703121561452757614526613968565b5b600061453587828801613a78565b945050602061454687828801613ab1565b935050604085013567ffffffffffffffff8111156145675761456661396d565b5b61457387828801613ad5565b925092505092959194509250565b600067ffffffffffffffff82111561459c5761459b613b41565b5b6145a582613b30565b9050602081019050919050565b60006145c56145c084614581565b613ba1565b9050828152602081018484840111156145e1576145e0613b2b565b5b6145ec848285613bed565b509392505050565b600082601f83011261460957614608613ac6565b5b81356146198482602086016145b2565b91505092915050565b6000806000806080858703121561463c5761463b613968565b5b600085013567ffffffffffffffff81111561465a5761465961396d565b5b61466687828801613fee565b945050602085013567ffffffffffffffff8111156146875761468661396d565b5b614693878288016140b1565b935050604085013567ffffffffffffffff8111156146b4576146b361396d565b5b6146c087828801614192565b925050606085013567ffffffffffffffff8111156146e1576146e061396d565b5b6146ed878288016145f4565b91505092959194509250565b60008060006060848603121561471257614711613968565b5b600061472086828701613e97565b935050602061473186828701613a78565b925050604084013567ffffffffffffffff8111156147525761475161396d565b5b61475e86828701613c3e565b9150509250925092565b600080600080600060a0868803121561478457614783613968565b5b600061479288828901613e97565b95505060206147a388828901613e97565b945050604086013567ffffffffffffffff8111156147c4576147c361396d565b5b6147d0888289016140b1565b935050606086013567ffffffffffffffff8111156147f1576147f061396d565b5b6147fd888289016140b1565b925050608086013567ffffffffffffffff81111561481e5761481d61396d565b5b61482a88828901613c3e565b9150509295509295909350565b60008083601f84011261484d5761484c613ac6565b5b8235905067ffffffffffffffff81111561486a57614869613acb565b5b60208301915083600182028301111561488657614885613ad0565b5b9250929050565b600080600080606085870312156148a7576148a6613968565b5b60006148b587828801613e97565b94505060206148c687828801613a78565b935050604085013567ffffffffffffffff8111156148e7576148e661396d565b5b6148f387828801614837565b925092505092959194509250565b6000806040838503121561491857614917613968565b5b600061492685828601613e97565b925050602061493785828601613a78565b9150509250929050565b600080600080600060a0868803121561495d5761495c613968565b5b600061496b88828901613e97565b955050602061497c88828901613e97565b945050604061498d88828901613a78565b935050606061499e88828901613a78565b925050608086013567ffffffffffffffff8111156149bf576149be61396d565b5b6149cb88828901613c3e565b9150509295509295909350565b6000819050919050565b60006149fd6149f86149f384613e4e565b6149d8565b613e4e565b9050919050565b6000614a0f826149e2565b9050919050565b6000614a2182614a04565b9050919050565b614a3181614a16565b82525050565b6000602082019050614a4c6000830184614a28565b92915050565b600081905092915050565b6000614a698385614a52565b9350614a76838584613bed565b82840190509392505050565b6000614a8f828486614a5d565b91508190509392505050565b614aa481613a8d565b82525050565b600060a082019050614abf600083018861427b565b614acc6020830187613a37565b614ad96040830186614a9b565b614ae6606083018561427b565b614af3608083018461427b565b9695505050505050565b7f476f7665726e6f723a206f6e6c79476f7665726e616e63650000000000000000600082015250565b6000614b33601883613db8565b9150614b3e82614afd565b602082019050919050565b60006020820190508181036000830152614b6281614b26565b9050919050565b7f4e487b7100000000000000000000000000000000000000000000000000000000600052602260045260246000fd5b60006002820490506001821680614bb057607f821691505b602082108103614bc357614bc2614b69565b5b50919050565b7f476f7665726e6f723a2070726f706f73616c206e6f742073756363657373667560008201527f6c00000000000000000000000000000000000000000000000000000000000000602082015250565b6000614c25602183613db8565b9150614c3082614bc9565b604082019050919050565b60006020820190508181036000830152614c5481614c18565b9050919050565b6000606082019050614c70600083018661427b565b614c7d6020830185613a37565b614c8a6040830184614a9b565b949350505050565b7f476f7665726e6f723a20756e6b6e6f776e2070726f706f73616c206964000000600082015250565b6000614cc8601d83613db8565b9150614cd382614c92565b602082019050919050565b60006020820190508181036000830152614cf781614cbb565b9050919050565b7f4e487b7100000000000000000000000000000000000000000000000000000000600052601160045260246000fd5b6000614d3882613a2d565b9150614d4383613a2d565b9250828203905081811115614d5b57614d5a614cfe565b5b92915050565b7f4e487b7100000000000000000000000000000000000000000000000000000000600052603260045260246000fd5b600081519050919050565b600082825260208201905092915050565b6000819050602082019050919050565b614dc581613e6e565b82525050565b6000614dd78383614dbc565b60208301905092915050565b6000602082019050919050565b6000614dfb82614d90565b614e058185614d9b565b9350614e1083614dac565b8060005b83811015614e41578151614e288882614dcb565b9750614e3383614de3565b925050600181019050614e14565b5085935050505092915050565b600081519050919050565b600082825260208201905092915050565b6000819050602082019050919050565b614e8381613a2d565b82525050565b6000614e958383614e7a565b60208301905092915050565b6000602082019050919050565b6000614eb982614e4e565b614ec38185614e59565b9350614ece83614e6a565b8060005b83811015614eff578151614ee68882614e89565b9750614ef183614ea1565b925050600181019050614ed2565b5085935050505092915050565b600081519050919050565b600082825260208201905092915050565b6000819050602082019050919050565b600081519050919050565b600082825260208201905092915050565b6000614f5f82614f38565b614f698185614f43565b9350614f79818560208601613dc9565b614f8281613b30565b840191505092915050565b6000614f998383614f54565b905092915050565b6000602082019050919050565b6000614fb982614f0c565b614fc38185614f17565b935083602082028501614fd585614f28565b8060005b858110156150115784840389528151614ff28582614f8d565b9450614ffd83614fa1565b925060208a01995050600181019050614fd9565b50829750879550505050505092915050565b6000608082019050818103600083015261503d8187614df0565b905081810360208301526150518186614eae565b905081810360408301526150658185614fae565b9050615074606083018461427b565b95945050505050565b60008151905061508c81613a61565b92915050565b6000602082840312156150a8576150a7613968565b5b60006150b68482850161507d565b91505092915050565b60006150ca82613a2d565b91506150d583613a2d565b92508282026150e381613a2d565b915082820484148315176150fa576150f9614cfe565b5b5092915050565b7f4e487b7100000000000000000000000000000000000000000000000000000000600052601260045260246000fd5b600061513b82613a2d565b915061514683613a2d565b92508261515657615155615101565b5b828204905092915050565b7f53616665436173743a2076616c756520646f65736e27742066697420696e203260008201527f3234206269747300000000000000000000000000000000000000000000000000602082015250565b60006151bd602783613db8565b91506151c882615161565b604082019050919050565b600060208201905081810360008301526151ec816151b0565b9050919050565b7f53616665436173743a2076616c756520646f65736e27742066697420696e203360008201527f3220626974730000000000000000000000000000000000000000000000000000602082015250565b600061524f602683613db8565b915061525a826151f3565b604082019050919050565b6000602082019050818103600083015261527e81615242565b9050919050565b7f476f7665726e6f723a20766f7465206e6f742063757272656e746c792061637460008201527f6976650000000000000000000000000000000000000000000000000000000000602082015250565b60006152e1602383613db8565b91506152ec82615285565b604082019050919050565b60006020820190508181036000830152615310816152d4565b9050919050565b600060808201905061532c6000830187613a37565b6153396020830186614a9b565b6153466040830185613a37565b81810360608301526153588184613df3565b905095945050505050565b600082825260208201905092915050565b600061537f82614f38565b6153898185615363565b9350615399818560208601613dc9565b6153a281613b30565b840191505092915050565b600060a0820190506153c26000830188613a37565b6153cf6020830187614a9b565b6153dc6040830186613a37565b81810360608301526153ee8185613df3565b905081810360808301526154028184615374565b90509695505050505050565b7f476f7665726e6f72566f74657351756f72756d4672616374696f6e3a2071756f60008201527f72756d4e756d657261746f72206f7665722071756f72756d44656e6f6d696e6160208201527f746f720000000000000000000000000000000000000000000000000000000000604082015250565b6000615490604383613db8565b915061549b8261540e565b606082019050919050565b600060208201905081810360008301526154bf81615483565b9050919050565b60006040820190506154db6000830185613a37565b6154e86020830184613a37565b9392505050565b60006154fa82613a2d565b91507fffffffffffffffffffffffffffffffffffffffffffffffffffffffffffffffff820361552c5761552b614cfe565b5b600182019050919050565b600061554282614f38565b61554c8185614a52565b935061555c818560208601613dc9565b80840191505092915050565b60006155748284615537565b915081905092915050565b600061558a82613a2d565b915061559583613a2d565b92508282019050808211156155ad576155ac614cfe565b5b92915050565b7f476f7665726e6f723a2070726f706f73616c206e6f7420616374697665000000600082015250565b60006155e9601d83613db8565b91506155f4826155b3565b602082019050919050565b60006020820190508181036000830152615618816155dc565b9050919050565b7f436865636b706f696e74733a20626c6f636b206e6f7420796574206d696e6564600082015250565b6000615655602083613db8565b91506156608261561f565b602082019050919050565b6000602082019050818103600083015261568481615648565b9050919050565b61569481613e6e565b82525050565b60006040820190506156af600083018561568b565b6156bc6020830184613a37565b9392505050565b7f476f7665726e6f7253657474696e67733a20766f74696e6720706572696f642060008201527f746f6f206c6f7700000000000000000000000000000000000000000000000000602082015250565b600061571f602783613db8565b915061572a826156c3565b604082019050919050565b6000602082019050818103600083015261574e81615712565b9050919050565b7f436865636b706f696e743a20696e76616c6964206b6579000000000000000000600082015250565b600061578b601783613db8565b915061579682615755565b602082019050919050565b600060208201905081810360008301526157ba8161577e565b9050919050565b600081905092915050565b7f1901000000000000000000000000000000000000000000000000000000000000600082015250565b60006158026002836157c1565b915061580d826157cc565b600282019050919050565b6000819050919050565b61583361582e82613c6c565b615818565b82525050565b6000615844826157f5565b91506158508285615822565b6020820191506158608284615822565b6020820191508190509392505050565b6000608082019050615885600083018761427b565b6158926020830186614a9b565b61589f604083018561427b565b6158ac606083018461427b565b95945050505050565b7f45434453413a20696e76616c6964207369676e61747572650000000000000000600082015250565b60006158eb601883613db8565b91506158f6826158b5565b602082019050919050565b6000602082019050818103600083015261591a816158de565b9050919050565b7f45434453413a20696e76616c6964207369676e6174757265206c656e67746800600082015250565b6000615957601f83613db8565b915061596282615921565b602082019050919050565b600060208201905081810360008301526159868161594a565b9050919050565b7f45434453413a20696e76616c6964207369676e6174757265202773272076616c60008201527f7565000000000000000000000000000000000000000000000000000000000000602082015250565b60006159e9602283613db8565b91506159f48261598d565b604082019050919050565b60006020820190508181036000830152615a18816159dc565b9050919050565b7f476f7665726e6f72566f74696e6753696d706c653a20766f746520616c72656160008201527f6479206361737400000000000000000000000000000000000000000000000000602082015250565b6000615a7b602783613db8565b9150615a8682615a1f565b604082019050919050565b60006020820190508181036000830152615aaa81615a6e565b9050919050565b7f476f7665726e6f72566f74696e6753696d706c653a20696e76616c696420766160008201527f6c756520666f7220656e756d20566f7465547970650000000000000000000000602082015250565b6000615b0d603583613db8565b9150615b1882615ab1565b604082019050919050565b60006020820190508181036000830152615b3c81615b00565b9050919050565b7f476f7665726e6f723a2070726f706f73657220766f7465732062656c6f77207060008201527f726f706f73616c207468726573686f6c64000000000000000000000000000000602082015250565b6000615b9f603183613db8565b9150615baa82615b43565b604082019050919050565b60006020820190508181036000830152615bce81615b92565b9050919050565b7f476f7665726e6f723a20696e76616c69642070726f706f73616c206c656e677460008201527f6800000000000000000000000000000000000000000000000000000000000000602082015250565b6000615c31602183613db8565b9150615c3c82615bd5565b604082019050919050565b60006020820190508181036000830152615c6081615c24565b9050919050565b7f476f7665726e6f723a20656d7074792070726f706f73616c0000000000000000600082015250565b6000615c9d601883613db8565b9150615ca882615c67565b602082019050919050565b60006020820190508181036000830152615ccc81615c90565b9050919050565b7f476f7665726e6f723a2070726f706f73616c20616c726561647920657869737460008201527f7300000000000000000000000000000000000000000000000000000000000000602082015250565b6000615d2f602183613db8565b9150615d3a82615cd3565b604082019050919050565b60006020820190508181036000830152615d5e81615d22565b9050919050565b600067ffffffffffffffff82169050919050565b6000615d8482615d65565b9150615d8f83615d65565b9250828201905067ffffffffffffffff811115615daf57615dae614cfe565b5b92915050565b600081519050919050565b600082825260208201905092915050565b6000819050602082019050919050565b600082825260208201905092915050565b6000615dfd82613dad565b615e078185615de1565b9350615e17818560208601613dc9565b615e2081613b30565b840191505092915050565b6000615e378383615df2565b905092915050565b6000602082019050919050565b6000615e5782615db5565b615e618185615dc0565b935083602082028501615e7385615dd1565b8060005b85811015615eaf5784840389528151615e908582615e2b565b9450615e9b83615e3f565b925060208a01995050600181019050615e77565b50829750879550505050505092915050565b6000615edc615ed7615ed284615d65565b6149d8565b613a2d565b9050919050565b615eec81615ec1565b82525050565b600061012082019050615f08600083018c613a37565b615f15602083018b61568b565b8181036040830152615f27818a614df0565b90508181036060830152615f3b8189614eae565b90508181036080830152615f4f8188615e4c565b905081810360a0830152615f638187614fae565b9050615f7260c0830186615ee3565b615f7f60e0830185615ee3565b818103610100830152615f928184613df3565b90509a9950505050505050505050565b600060a082019050615fb7600083018861427b565b615fc4602083018761427b565b615fd1604083018661427b565b615fde6060830185613a37565b615feb608083018461568b565b9695505050505050565b7f53616665436173743a2076616c756520646f65736e27742066697420696e203660008201527f3420626974730000000000000000000000000000000000000000000000000000602082015250565b6000616051602683613db8565b915061605c82615ff5565b604082019050919050565b6000602082019050818103600083015261608081616044565b905091905056fe476f7665726e6f723a2072656c617920726576657274656420776974686f7574206d657373616765476f7665726e6f723a2063616c6c20726576657274656420776974686f7574206d657373616765a2646970667358221220046f7bf7ae52fe324a8ebe12aafcbc14aaa9c76f81dc82e16b860c583ef3446564736f6c63430008110033",
  "linkReferences": {},
  "deployedLinkReferences": {}
}