{
  "_format": "hh-sol-artifact-1",
  "contractName": "SafeMathMock",
  "sourceName": "contracts/mocks/SafeMathMock.sol",
  "abi": [
    {
      "inputs": [],
      "name": "addMemoryCheck",
      "outputs": [
        {
          "internalType": "uint256",
          "name": "mem",
          "type": "uint256"
        }
      ],
      "stateMutability": "pure",
      "type": "function"
    },
    {
      "inputs": [],
      "name": "divMemoryCheck",
      "outputs": [
        {
          "internalType": "uint256",
          "name": "mem",
          "type": "uint256"
        }
      ],
      "stateMutability": "pure",
      "type": "function"
    },
    {
      "inputs": [
        {
          "internalType": "uint256",
          "name": "a",
          "type": "uint256"
        },
        {
          "internalType": "uint256",
          "name": "b",
          "type": "uint256"
        },
        {
          "internalType": "string",
          "name": "errorMessage",
          "type": "string"
        }
      ],
      "name": "divWithMessage",
      "outputs": [
        {
          "internalType": "uint256",
          "name": "",
          "type": "uint256"
        }
      ],
      "stateMutability": "pure",
      "type": "function"
    },
    {
      "inputs": [
        {
          "internalType": "uint256",
          "name": "a",
          "type": "uint256"
        },
        {
          "internalType": "uint256",
          "name": "b",
          "type": "uint256"
        }
      ],
      "name": "doAdd",
      "outputs": [
        {
          "internalType": "uint256",
          "name": "",
          "type": "uint256"
        }
      ],
      "stateMutability": "pure",
      "type": "function"
    },
    {
      "inputs": [
        {
          "internalType": "uint256",
          "name": "a",
          "type": "uint256"
        },
        {
          "internalType": "uint256",
          "name": "b",
          "type": "uint256"
        }
      ],
      "name": "doDiv",
      "outputs": [
        {
          "internalType": "uint256",
          "name": "",
          "type": "uint256"
        }
      ],
      "stateMutability": "pure",
      "type": "function"
    },
    {
      "inputs": [
        {
          "internalType": "uint256",
          "name": "a",
          "type": "uint256"
        },
        {
          "internalType": "uint256",
          "name": "b",
          "type": "uint256"
        }
      ],
      "name": "doMod",
      "outputs": [
        {
          "internalType": "uint256",
          "name": "",
          "type": "uint256"
        }
      ],
      "stateMutability": "pure",
      "type": "function"
    },
    {
      "inputs": [
        {
          "internalType": "uint256",
          "name": "a",
          "type": "uint256"
        },
        {
          "internalType": "uint256",
          "name": "b",
          "type": "uint256"
        }
      ],
      "name": "doMul",
      "outputs": [
        {
          "internalType": "uint256",
          "name": "",
          "type": "uint256"
        }
      ],
      "stateMutability": "pure",
      "type": "function"
    },
    {
      "inputs": [
        {
          "internalType": "uint256",
          "name": "a",
          "type": "uint256"
        },
        {
          "internalType": "uint256",
          "name": "b",
          "type": "uint256"
        }
      ],
      "name": "doSub",
      "outputs": [
        {
          "internalType": "uint256",
          "name": "",
          "type": "uint256"
        }
      ],
      "stateMutability": "pure",
      "type": "function"
    },
    {
      "inputs": [],
      "name": "modMemoryCheck",
      "outputs": [
        {
          "internalType": "uint256",
          "name": "mem",
          "type": "uint256"
        }
      ],
      "stateMutability": "pure",
      "type": "function"
    },
    {
      "inputs": [
        {
          "internalType": "uint256",
          "name": "a",
          "type": "uint256"
        },
        {
          "internalType": "uint256",
          "name": "b",
          "type": "uint256"
        },
        {
          "internalType": "string",
          "name": "errorMessage",
          "type": "string"
        }
      ],
      "name": "modWithMessage",
      "outputs": [
        {
          "internalType": "uint256",
          "name": "",
          "type": "uint256"
        }
      ],
      "stateMutability": "pure",
      "type": "function"
    },
    {
      "inputs": [],
      "name": "mulMemoryCheck",
      "outputs": [
        {
          "internalType": "uint256",
          "name": "mem",
          "type": "uint256"
        }
      ],
      "stateMutability": "pure",
      "type": "function"
    },
    {
      "inputs": [],
      "name": "subMemoryCheck",
      "outputs": [
        {
          "internalType": "uint256",
          "name": "mem",
          "type": "uint256"
        }
      ],
      "stateMutability": "pure",
      "type": "function"
    },
    {
      "inputs": [
        {
          "internalType": "uint256",
          "name": "a",
          "type": "uint256"
        },
        {
          "internalType": "uint256",
          "name": "b",
          "type": "uint256"
        },
        {
          "internalType": "string",
          "name": "errorMessage",
          "type": "string"
        }
      ],
      "name": "subWithMessage",
      "outputs": [
        {
          "internalType": "uint256",
          "name": "",
          "type": "uint256"
        }
      ],
      "stateMutability": "pure",
      "type": "function"
    },
    {
      "inputs": [
        {
          "internalType": "uint256",
          "name": "a",
          "type": "uint256"
        },
        {
          "internalType": "uint256",
          "name": "b",
          "type": "uint256"
        }
      ],
      "name": "tryAdd",
      "outputs": [
        {
          "internalType": "bool",
          "name": "flag",
          "type": "bool"
        },
        {
          "internalType": "uint256",
          "name": "value",
          "type": "uint256"
        }
      ],
      "stateMutability": "pure",
      "type": "function"
    },
    {
      "inputs": [
        {
          "internalType": "uint256",
          "name": "a",
          "type": "uint256"
        },
        {
          "internalType": "uint256",
          "name": "b",
          "type": "uint256"
        }
      ],
      "name": "tryDiv",
      "outputs": [
        {
          "internalType": "bool",
          "name": "flag",
          "type": "bool"
        },
        {
          "internalType": "uint256",
          "name": "value",
          "type": "uint256"
        }
      ],
      "stateMutability": "pure",
      "type": "function"
    },
    {
      "inputs": [
        {
          "internalType": "uint256",
          "name": "a",
          "type": "uint256"
        },
        {
          "internalType": "uint256",
          "name": "b",
          "type": "uint256"
        }
      ],
      "name": "tryMod",
      "outputs": [
        {
          "internalType": "bool",
          "name": "flag",
          "type": "bool"
        },
        {
          "internalType": "uint256",
          "name": "value",
          "type": "uint256"
        }
      ],
      "stateMutability": "pure",
      "type": "function"
    },
    {
      "inputs": [
        {
          "internalType": "uint256",
          "name": "a",
          "type": "uint256"
        },
        {
          "internalType": "uint256",
          "name": "b",
          "type": "uint256"
        }
      ],
      "name": "tryMul",
      "outputs": [
        {
          "internalType": "bool",
          "name": "flag",
          "type": "bool"
        },
        {
          "internalType": "uint256",
          "name": "value",
          "type": "uint256"
        }
      ],
      "stateMutability": "pure",
      "type": "function"
    },
    {
      "inputs": [
        {
          "internalType": "uint256",
          "name": "a",
          "type": "uint256"
        },
        {
          "internalType": "uint256",
          "name": "b",
          "type": "uint256"
        }
      ],
      "name": "trySub",
      "outputs": [
        {
          "internalType": "bool",
          "name": "flag",
          "type": "bool"
        },
        {
          "internalType": "uint256",
          "name": "value",
          "type": "uint256"
        }
      ],
      "stateMutability": "pure",
      "type": "function"
    }
  ],
  "bytecode": "0x608060405234801561001057600080fd5b50610e57806100206000396000f3fe608060405234801561001057600080fd5b50600436106101165760003560e01c80639f5cec89116100a2578063dcc721d211610071578063dcc721d21461035a578063fb1191981461038a578063fb24c860146103ba578063fb999ded146103d8578063fc0ce503146103f657610116565b80639f5cec89146102ab578063a155bd62146102db578063a29962b11461030b578063c460ae041461033c57610116565b80636f91e802116100e95780636f91e802146101dd578063736ecb18146101fb5780637e86d25c1461022c578063869f602f1461024a578063884557bf1461027a57610116565b80633449b5fb1461011b57806338dc08671461014b5780636281efa41461017c5780636c7ac637146101ad575b600080fd5b61013560048036038101906101309190610ab1565b610426565b6040516101429190610b2f565b60405180910390f35b61016560048036038101906101609190610b4a565b61043c565b604051610173929190610ba5565b60405180910390f35b61019660048036038101906101919190610b4a565b610454565b6040516101a4929190610ba5565b60405180910390f35b6101c760048036038101906101c29190610b4a565b61046c565b6040516101d49190610b2f565b60405180910390f35b6101e5610480565b6040516101f29190610b2f565b60405180910390f35b61021560048036038101906102109190610b4a565b6104c0565b604051610223929190610ba5565b60405180910390f35b6102346104d8565b6040516102419190610b2f565b60405180910390f35b610264600480360381019061025f9190610b4a565b610518565b6040516102719190610b2f565b60405180910390f35b610294600480360381019061028f9190610b4a565b61052c565b6040516102a2929190610ba5565b60405180910390f35b6102c560048036038101906102c09190610ab1565b610544565b6040516102d29190610b2f565b60405180910390f35b6102f560048036038101906102f09190610ab1565b61055a565b6040516103029190610b2f565b60405180910390f35b61032560048036038101906103209190610b4a565b610570565b604051610333929190610ba5565b60405180910390f35b610344610588565b6040516103519190610b2f565b60405180910390f35b610374600480360381019061036f9190610b4a565b6105c8565b6040516103819190610b2f565b60405180910390f35b6103a4600480360381019061039f9190610b4a565b6105dc565b6040516103b19190610b2f565b60405180910390f35b6103c26105f0565b6040516103cf9190610b2f565b60405180910390f35b6103e0610630565b6040516103ed9190610b2f565b60405180910390f35b610410600480360381019061040b9190610b4a565b610670565b60405161041d9190610b2f565b60405180910390f35b6000610433848484610684565b90509392505050565b60008061044984846106e6565b915091509250929050565b600080610461848461071c565b915091509250929050565b6000610478838361076f565b905092915050565b60008060209050604051915060005b818110156104b4576104a2600180610785565b50806104ad90610bfd565b905061048f565b50816040510391505090565b6000806104cd848461079b565b915091509250929050565b60008060209050604051915060005b8181101561050c576104fa6001806107d1565b508061050590610bfd565b90506104e7565b50816040510391505090565b60006105248383610785565b905092915050565b60008061053984846107e7565b915091509250929050565b6000610551848484610816565b90509392505050565b600061056784848461086b565b90509392505050565b60008061057d84846108cd565b915091509250929050565b60008060209050604051915060005b818110156105bc576105aa6001806108f5565b50806105b590610bfd565b9050610597565b50816040510391505090565b60006105d4838361090b565b905092915050565b60006105e883836107d1565b905092915050565b60008060209050604051915060005b818110156106245761061260018061090b565b508061061d90610bfd565b90506105ff565b50816040510391505090565b60008060209050604051915060005b818110156106645761065260018061076f565b508061065d90610bfd565b905061063f565b50816040510391505090565b600061067c83836108f5565b905092915050565b600080831182906106cb576040517f08c379a00000000000000000000000000000000000000000000000000000000081526004016106c29190610cc4565b60405180910390fd5b508284816106dc576106db610ce6565b5b0490509392505050565b600080600083036106fd5760008091509150610715565b600183858161070f5761070e610ce6565b5b06915091505b9250929050565b60008060008403610734576001600091509150610768565b600083850290508385828161074c5761074b610ce6565b5b041461075f576000809250925050610768565b60018192509250505b9250929050565b6000818361077d9190610d15565b905092915050565b600081836107939190610d49565b905092915050565b600080600083036107b257600080915091506107ca565b60018385816107c4576107c3610ce6565b5b04915091505b9250929050565b600081836107df9190610d7a565b905092915050565b600080600083850190508481101561080657600080925092505061080f565b60018192509250505b9250929050565b600083831115829061085e576040517f08c379a00000000000000000000000000000000000000000000000000000000081526004016108559190610cc4565b60405180910390fd5b5082840390509392505050565b600080831182906108b2576040517f08c379a00000000000000000000000000000000000000000000000000000000081526004016108a99190610cc4565b60405180910390fd5b508284816108c3576108c2610ce6565b5b0690509392505050565b600080838311156108e457600080915091506108ee565b6001838503915091505b9250929050565b600081836109039190610dbc565b905092915050565b600081836109199190610ded565b905092915050565b6000604051905090565b600080fd5b600080fd5b6000819050919050565b61094881610935565b811461095357600080fd5b50565b6000813590506109658161093f565b92915050565b600080fd5b600080fd5b6000601f19601f8301169050919050565b7f4e487b7100000000000000000000000000000000000000000000000000000000600052604160045260246000fd5b6109be82610975565b810181811067ffffffffffffffff821117156109dd576109dc610986565b5b80604052505050565b60006109f0610921565b90506109fc82826109b5565b919050565b600067ffffffffffffffff821115610a1c57610a1b610986565b5b610a2582610975565b9050602081019050919050565b82818337600083830152505050565b6000610a54610a4f84610a01565b6109e6565b905082815260208101848484011115610a7057610a6f610970565b5b610a7b848285610a32565b509392505050565b600082601f830112610a9857610a9761096b565b5b8135610aa8848260208601610a41565b91505092915050565b600080600060608486031215610aca57610ac961092b565b5b6000610ad886828701610956565b9350506020610ae986828701610956565b925050604084013567ffffffffffffffff811115610b0a57610b09610930565b5b610b1686828701610a83565b9150509250925092565b610b2981610935565b82525050565b6000602082019050610b446000830184610b20565b92915050565b60008060408385031215610b6157610b6061092b565b5b6000610b6f85828601610956565b9250506020610b8085828601610956565b9150509250929050565b60008115159050919050565b610b9f81610b8a565b82525050565b6000604082019050610bba6000830185610b96565b610bc76020830184610b20565b9392505050565b7f4e487b7100000000000000000000000000000000000000000000000000000000600052601160045260246000fd5b6000610c0882610935565b91507fffffffffffffffffffffffffffffffffffffffffffffffffffffffffffffffff8203610c3a57610c39610bce565b5b600182019050919050565b600081519050919050565b600082825260208201905092915050565b60005b83811015610c7f578082015181840152602081019050610c64565b60008484015250505050565b6000610c9682610c45565b610ca08185610c50565b9350610cb0818560208601610c61565b610cb981610975565b840191505092915050565b60006020820190508181036000830152610cde8184610c8b565b905092915050565b7f4e487b7100000000000000000000000000000000000000000000000000000000600052601260045260246000fd5b6000610d2082610935565b9150610d2b83610935565b9250828203905081811115610d4357610d42610bce565b5b92915050565b6000610d5482610935565b9150610d5f83610935565b925082610d6f57610d6e610ce6565b5b828206905092915050565b6000610d8582610935565b9150610d9083610935565b9250828202610d9e81610935565b91508282048414831517610db557610db4610bce565b5b5092915050565b6000610dc782610935565b9150610dd283610935565b925082610de257610de1610ce6565b5b828204905092915050565b6000610df882610935565b9150610e0383610935565b9250828201905080821115610e1b57610e1a610bce565b5b9291505056fea26469706673582212206b06de4d8914b5b884041226b03ce897376f94ad9241f6a1b58f36451f20089064736f6c63430008110033",
  "linkReferences": {},
  "deployedLinkReferences": {}
}