{
  "_format": "hh-sol-artifact-1",
  "contractName": "ERC1155PausableMock",
  "sourceName": "contracts/mocks/ERC1155PausableMock.sol",
  "abi": [
    {
      "inputs": [
        {
          "internalType": "string",
          "name": "uri",
          "type": "string"
        }
      ],
      "stateMutability": "nonpayable",
      "type": "constructor"
    },
    {
      "anonymous": false,
      "inputs": [
        {
          "indexed": true,
          "internalType": "address",
          "name": "account",
          "type": "address"
        },
        {
          "indexed": true,
          "internalType": "address",
          "name": "operator",
          "type": "address"
        },
        {
          "indexed": false,
          "internalType": "bool",
          "name": "approved",
          "type": "bool"
        }
      ],
      "name": "ApprovalForAll",
      "type": "event"
    },
    {
      "anonymous": false,
      "inputs": [
        {
          "indexed": false,
          "internalType": "address",
          "name": "account",
          "type": "address"
        }
      ],
      "name": "Paused",
      "type": "event"
    },
    {
      "anonymous": false,
      "inputs": [
        {
          "indexed": true,
          "internalType": "address",
          "name": "operator",
          "type": "address"
        },
        {
          "indexed": true,
          "internalType": "address",
          "name": "from",
          "type": "address"
        },
        {
          "indexed": true,
          "internalType": "address",
          "name": "to",
          "type": "address"
        },
        {
          "indexed": false,
          "internalType": "uint256[]",
          "name": "ids",
          "type": "uint256[]"
        },
        {
          "indexed": false,
          "internalType": "uint256[]",
          "name": "values",
          "type": "uint256[]"
        }
      ],
      "name": "TransferBatch",
      "type": "event"
    },
    {
      "anonymous": false,
      "inputs": [
        {
          "indexed": true,
          "internalType": "address",
          "name": "operator",
          "type": "address"
        },
        {
          "indexed": true,
          "internalType": "address",
          "name": "from",
          "type": "address"
        },
        {
          "indexed": true,
          "internalType": "address",
          "name": "to",
          "type": "address"
        },
        {
          "indexed": false,
          "internalType": "uint256",
          "name": "id",
          "type": "uint256"
        },
        {
          "indexed": false,
          "internalType": "uint256",
          "name": "value",
          "type": "uint256"
        }
      ],
      "name": "TransferSingle",
      "type": "event"
    },
    {
      "anonymous": false,
      "inputs": [
        {
          "indexed": false,
          "internalType": "string",
          "name": "value",
          "type": "string"
        },
        {
          "indexed": true,
          "internalType": "uint256",
          "name": "id",
          "type": "uint256"
        }
      ],
      "name": "URI",
      "type": "event"
    },
    {
      "anonymous": false,
      "inputs": [
        {
          "indexed": false,
          "internalType": "address",
          "name": "account",
          "type": "address"
        }
      ],
      "name": "Unpaused",
      "type": "event"
    },
    {
      "inputs": [
        {
          "internalType": "address",
          "name": "account",
          "type": "address"
        },
        {
          "internalType": "uint256",
          "name": "id",
          "type": "uint256"
        }
      ],
      "name": "balanceOf",
      "outputs": [
        {
          "internalType": "uint256",
          "name": "",
          "type": "uint256"
        }
      ],
      "stateMutability": "view",
      "type": "function"
    },
    {
      "inputs": [
        {
          "internalType": "address[]",
          "name": "accounts",
          "type": "address[]"
        },
        {
          "internalType": "uint256[]",
          "name": "ids",
          "type": "uint256[]"
        }
      ],
      "name": "balanceOfBatch",
      "outputs": [
        {
          "internalType": "uint256[]",
          "name": "",
          "type": "uint256[]"
        }
      ],
      "stateMutability": "view",
      "type": "function"
    },
    {
      "inputs": [
        {
          "internalType": "address",
          "name": "owner",
          "type": "address"
        },
        {
          "internalType": "uint256",
          "name": "id",
          "type": "uint256"
        },
        {
          "internalType": "uint256",
          "name": "value",
          "type": "uint256"
        }
      ],
      "name": "burn",
      "outputs": [],
      "stateMutability": "nonpayable",
      "type": "function"
    },
    {
      "inputs": [
        {
          "internalType": "address",
          "name": "owner",
          "type": "address"
        },
        {
          "internalType": "uint256[]",
          "name": "ids",
          "type": "uint256[]"
        },
        {
          "internalType": "uint256[]",
          "name": "values",
          "type": "uint256[]"
        }
      ],
      "name": "burnBatch",
      "outputs": [],
      "stateMutability": "nonpayable",
      "type": "function"
    },
    {
      "inputs": [
        {
          "internalType": "address",
          "name": "account",
          "type": "address"
        },
        {
          "internalType": "address",
          "name": "operator",
          "type": "address"
        }
      ],
      "name": "isApprovedForAll",
      "outputs": [
        {
          "internalType": "bool",
          "name": "",
          "type": "bool"
        }
      ],
      "stateMutability": "view",
      "type": "function"
    },
    {
      "inputs": [
        {
          "internalType": "address",
          "name": "to",
          "type": "address"
        },
        {
          "internalType": "uint256",
          "name": "id",
          "type": "uint256"
        },
        {
          "internalType": "uint256",
          "name": "value",
          "type": "uint256"
        },
        {
          "internalType": "bytes",
          "name": "data",
          "type": "bytes"
        }
      ],
      "name": "mint",
      "outputs": [],
      "stateMutability": "nonpayable",
      "type": "function"
    },
    {
      "inputs": [
        {
          "internalType": "address",
          "name": "to",
          "type": "address"
        },
        {
          "internalType": "uint256[]",
          "name": "ids",
          "type": "uint256[]"
        },
        {
          "internalType": "uint256[]",
          "name": "values",
          "type": "uint256[]"
        },
        {
          "internalType": "bytes",
          "name": "data",
          "type": "bytes"
        }
      ],
      "name": "mintBatch",
      "outputs": [],
      "stateMutability": "nonpayable",
      "type": "function"
    },
    {
      "inputs": [],
      "name": "pause",
      "outputs": [],
      "stateMutability": "nonpayable",
      "type": "function"
    },
    {
      "inputs": [],
      "name": "paused",
      "outputs": [
        {
          "internalType": "bool",
          "name": "",
          "type": "bool"
        }
      ],
      "stateMutability": "view",
      "type": "function"
    },
    {
      "inputs": [
        {
          "internalType": "address",
          "name": "from",
          "type": "address"
        },
        {
          "internalType": "address",
          "name": "to",
          "type": "address"
        },
        {
          "internalType": "uint256[]",
          "name": "ids",
          "type": "uint256[]"
        },
        {
          "internalType": "uint256[]",
          "name": "amounts",
          "type": "uint256[]"
        },
        {
          "internalType": "bytes",
          "name": "data",
          "type": "bytes"
        }
      ],
      "name": "safeBatchTransferFrom",
      "outputs": [],
      "stateMutability": "nonpayable",
      "type": "function"
    },
    {
      "inputs": [
        {
          "internalType": "address",
          "name": "from",
          "type": "address"
        },
        {
          "internalType": "address",
          "name": "to",
          "type": "address"
        },
        {
          "internalType": "uint256",
          "name": "id",
          "type": "uint256"
        },
        {
          "internalType": "uint256",
          "name": "amount",
          "type": "uint256"
        },
        {
          "internalType": "bytes",
          "name": "data",
          "type": "bytes"
        }
      ],
      "name": "safeTransferFrom",
      "outputs": [],
      "stateMutability": "nonpayable",
      "type": "function"
    },
    {
      "inputs": [
        {
          "internalType": "address",
          "name": "operator",
          "type": "address"
        },
        {
          "internalType": "bool",
          "name": "approved",
          "type": "bool"
        }
      ],
      "name": "setApprovalForAll",
      "outputs": [],
      "stateMutability": "nonpayable",
      "type": "function"
    },
    {
      "inputs": [
        {
          "internalType": "string",
          "name": "newuri",
          "type": "string"
        }
      ],
      "name": "setURI",
      "outputs": [],
      "stateMutability": "nonpayable",
      "type": "function"
    },
    {
      "inputs": [
        {
          "internalType": "bytes4",
          "name": "interfaceId",
          "type": "bytes4"
        }
      ],
      "name": "supportsInterface",
      "outputs": [
        {
          "internalType": "bool",
          "name": "",
          "type": "bool"
        }
      ],
      "stateMutability": "view",
      "type": "function"
    },
    {
      "inputs": [],
      "name": "unpause",
      "outputs": [],
      "stateMutability": "nonpayable",
      "type": "function"
    },
    {
      "inputs": [
        {
          "internalType": "uint256",
          "name": "",
          "type": "uint256"
        }
      ],
      "name": "uri",
      "outputs": [
        {
          "internalType": "string",
          "name": "",
          "type": "string"
        }
      ],
      "stateMutability": "view",
      "type": "function"
    }
  ],
  "bytecode": "0x60806040523480156200001157600080fd5b5060405162003fe038038062003fe0833981810160405281019062000037919062000216565b80806200004a816200006e60201b60201c565b50506000600360006101000a81548160ff0219169083151502179055505062000599565b80600290816200007f9190620004b2565b5050565b6000604051905090565b600080fd5b600080fd5b600080fd5b600080fd5b6000601f19601f8301169050919050565b7f4e487b7100000000000000000000000000000000000000000000000000000000600052604160045260246000fd5b620000ec82620000a1565b810181811067ffffffffffffffff821117156200010e576200010d620000b2565b5b80604052505050565b60006200012362000083565b9050620001318282620000e1565b919050565b600067ffffffffffffffff821115620001545762000153620000b2565b5b6200015f82620000a1565b9050602081019050919050565b60005b838110156200018c5780820151818401526020810190506200016f565b60008484015250505050565b6000620001af620001a98462000136565b62000117565b905082815260208101848484011115620001ce57620001cd6200009c565b5b620001db8482856200016c565b509392505050565b600082601f830112620001fb57620001fa62000097565b5b81516200020d84826020860162000198565b91505092915050565b6000602082840312156200022f576200022e6200008d565b5b600082015167ffffffffffffffff81111562000250576200024f62000092565b5b6200025e84828501620001e3565b91505092915050565b600081519050919050565b7f4e487b7100000000000000000000000000000000000000000000000000000000600052602260045260246000fd5b60006002820490506001821680620002ba57607f821691505b602082108103620002d057620002cf62000272565b5b50919050565b60008190508160005260206000209050919050565b60006020601f8301049050919050565b600082821b905092915050565b6000600883026200033a7fffffffffffffffffffffffffffffffffffffffffffffffffffffffffffffffff82620002fb565b620003468683620002fb565b95508019841693508086168417925050509392505050565b6000819050919050565b6000819050919050565b6000620003936200038d62000387846200035e565b62000368565b6200035e565b9050919050565b6000819050919050565b620003af8362000372565b620003c7620003be826200039a565b84845462000308565b825550505050565b600090565b620003de620003cf565b620003eb818484620003a4565b505050565b5b81811015620004135762000407600082620003d4565b600181019050620003f1565b5050565b601f82111562000462576200042c81620002d6565b6200043784620002eb565b8101602085101562000447578190505b6200045f6200045685620002eb565b830182620003f0565b50505b505050565b600082821c905092915050565b6000620004876000198460080262000467565b1980831691505092915050565b6000620004a2838362000474565b9150826002028217905092915050565b620004bd8262000267565b67ffffffffffffffff811115620004d957620004d8620000b2565b5b620004e58254620002a1565b620004f282828562000417565b600060209050601f8311600181146200052a576000841562000515578287015190505b62000521858262000494565b86555062000591565b601f1984166200053a86620002d6565b60005b8281101562000564578489015182556001820191506020850194506020810190506200053d565b8683101562000584578489015162000580601f89168262000474565b8355505b6001600288020188555050505b505050505050565b613a3780620005a96000396000f3fe608060405234801561001057600080fd5b50600436106100ff5760003560e01c80635c975abb11610097578063a22cb46511610066578063a22cb46514610282578063e985e9c51461029e578063f242432a146102ce578063f5298aca146102ea576100ff565b80635c975abb146102225780636b20c45414610240578063731133e91461025c5780638456cb5914610278576100ff565b80631f7fdffa116100d35780631f7fdffa146101b05780632eb2c2d6146101cc5780633f4ba83a146101e85780634e1273f4146101f2576100ff565b8062fdd58e1461010457806301ffc9a71461013457806302fe5305146101645780630e89341c14610180575b600080fd5b61011e60048036038101906101199190612031565b610306565b60405161012b9190612080565b60405180910390f35b61014e600480360381019061014991906120f3565b6103ce565b60405161015b919061213b565b60405180910390f35b61017e6004803603810190610179919061229c565b6104b0565b005b61019a600480360381019061019591906122e5565b6104bc565b6040516101a79190612391565b60405180910390f35b6101ca60048036038101906101c5919061251c565b610550565b005b6101e660048036038101906101e191906125d7565b610562565b005b6101f0610603565b005b61020c60048036038101906102079190612769565b61060d565b604051610219919061289f565b60405180910390f35b61022a610726565b604051610237919061213b565b60405180910390f35b61025a600480360381019061025591906128c1565b61073d565b005b6102766004803603810190610271919061294c565b61074d565b005b61028061075f565b005b61029c600480360381019061029791906129fb565b610769565b005b6102b860048036038101906102b39190612a3b565b61077f565b6040516102c5919061213b565b60405180910390f35b6102e860048036038101906102e39190612a7b565b610813565b005b61030460048036038101906102ff9190612b12565b6108b4565b005b60008073ffffffffffffffffffffffffffffffffffffffff168373ffffffffffffffffffffffffffffffffffffffff1603610376576040517f08c379a000000000000000000000000000000000000000000000000000000000815260040161036d90612bd7565b60405180910390fd5b60008083815260200190815260200160002060008473ffffffffffffffffffffffffffffffffffffffff1673ffffffffffffffffffffffffffffffffffffffff16815260200190815260200160002054905092915050565b60007fd9b67a26000000000000000000000000000000000000000000000000000000007bffffffffffffffffffffffffffffffffffffffffffffffffffffffff1916827bffffffffffffffffffffffffffffffffffffffffffffffffffffffff1916148061049957507f0e89341c000000000000000000000000000000000000000000000000000000007bffffffffffffffffffffffffffffffffffffffffffffffffffffffff1916827bffffffffffffffffffffffffffffffffffffffffffffffffffffffff1916145b806104a957506104a8826108c4565b5b9050919050565b6104b98161092e565b50565b6060600280546104cb90612c26565b80601f01602080910402602001604051908101604052809291908181526020018280546104f790612c26565b80156105445780601f1061051957610100808354040283529160200191610544565b820191906000526020600020905b81548152906001019060200180831161052757829003601f168201915b50505050509050919050565b61055c84848484610941565b50505050565b61056a610b6d565b73ffffffffffffffffffffffffffffffffffffffff168573ffffffffffffffffffffffffffffffffffffffff1614806105b057506105af856105aa610b6d565b61077f565b5b6105ef576040517f08c379a00000000000000000000000000000000000000000000000000000000081526004016105e690612cc9565b60405180910390fd5b6105fc8585858585610b75565b5050505050565b61060b610e96565b565b60608151835114610653576040517f08c379a000000000000000000000000000000000000000000000000000000000815260040161064a90612d5b565b60405180910390fd5b6000835167ffffffffffffffff8111156106705761066f612171565b5b60405190808252806020026020018201604052801561069e5781602001602082028036833780820191505090505b50905060005b845181101561071b576106eb8582815181106106c3576106c2612d7b565b5b60200260200101518583815181106106de576106dd612d7b565b5b6020026020010151610306565b8282815181106106fe576106fd612d7b565b5b6020026020010181815250508061071490612dd9565b90506106a4565b508091505092915050565b6000600360009054906101000a900460ff16905090565b610748838383610ef9565b505050565b610759848484846111c7565b50505050565b610767611377565b565b61077b610774610b6d565b83836113da565b5050565b6000600160008473ffffffffffffffffffffffffffffffffffffffff1673ffffffffffffffffffffffffffffffffffffffff16815260200190815260200160002060008373ffffffffffffffffffffffffffffffffffffffff1673ffffffffffffffffffffffffffffffffffffffff16815260200190815260200160002060009054906101000a900460ff16905092915050565b61081b610b6d565b73ffffffffffffffffffffffffffffffffffffffff168573ffffffffffffffffffffffffffffffffffffffff16148061086157506108608561085b610b6d565b61077f565b5b6108a0576040517f08c379a000000000000000000000000000000000000000000000000000000000815260040161089790612cc9565b60405180910390fd5b6108ad8585858585611546565b5050505050565b6108bf8383836117e1565b505050565b60007f01ffc9a7000000000000000000000000000000000000000000000000000000007bffffffffffffffffffffffffffffffffffffffffffffffffffffffff1916827bffffffffffffffffffffffffffffffffffffffffffffffffffffffff1916149050919050565b806002908161093d9190612fcd565b5050565b600073ffffffffffffffffffffffffffffffffffffffff168473ffffffffffffffffffffffffffffffffffffffff16036109b0576040517f08c379a00000000000000000000000000000000000000000000000000000000081526004016109a790613111565b60405180910390fd5b81518351146109f4576040517f08c379a00000000000000000000000000000000000000000000000000000000081526004016109eb906131a3565b60405180910390fd5b60006109fe610b6d565b9050610a0f81600087878787611a27565b60005b8451811015610ac857838181518110610a2e57610a2d612d7b565b5b6020026020010151600080878481518110610a4c57610a4b612d7b565b5b6020026020010151815260200190815260200160002060008873ffffffffffffffffffffffffffffffffffffffff1673ffffffffffffffffffffffffffffffffffffffff1681526020019081526020016000206000828254610aae91906131c3565b925050819055508080610ac090612dd9565b915050610a12565b508473ffffffffffffffffffffffffffffffffffffffff16600073ffffffffffffffffffffffffffffffffffffffff168273ffffffffffffffffffffffffffffffffffffffff167f4a39dc06d4c0dbc64b70af90fd698a233a518aa5d07e595d983b8c0526c8f7fb8787604051610b409291906131f7565b60405180910390a4610b5781600087878787611a3d565b610b6681600087878787611a45565b5050505050565b600033905090565b8151835114610bb9576040517f08c379a0000000000000000000000000000000000000000000000000000000008152600401610bb0906131a3565b60405180910390fd5b600073ffffffffffffffffffffffffffffffffffffffff168473ffffffffffffffffffffffffffffffffffffffff1603610c28576040517f08c379a0000000000000000000000000000000000000000000000000000000008152600401610c1f906132a0565b60405180910390fd5b6000610c32610b6d565b9050610c42818787878787611a27565b60005b8451811015610df3576000858281518110610c6357610c62612d7b565b5b602002602001015190506000858381518110610c8257610c81612d7b565b5b60200260200101519050600080600084815260200190815260200160002060008b73ffffffffffffffffffffffffffffffffffffffff1673ffffffffffffffffffffffffffffffffffffffff16815260200190815260200160002054905081811015610d23576040517f08c379a0000000000000000000000000000000000000000000000000000000008152600401610d1a90613332565b60405180910390fd5b81810360008085815260200190815260200160002060008c73ffffffffffffffffffffffffffffffffffffffff1673ffffffffffffffffffffffffffffffffffffffff168152602001908152602001600020819055508160008085815260200190815260200160002060008b73ffffffffffffffffffffffffffffffffffffffff1673ffffffffffffffffffffffffffffffffffffffff1681526020019081526020016000206000828254610dd891906131c3565b9250508190555050505080610dec90612dd9565b9050610c45565b508473ffffffffffffffffffffffffffffffffffffffff168673ffffffffffffffffffffffffffffffffffffffff168273ffffffffffffffffffffffffffffffffffffffff167f4a39dc06d4c0dbc64b70af90fd698a233a518aa5d07e595d983b8c0526c8f7fb8787604051610e6a9291906131f7565b60405180910390a4610e80818787878787611a3d565b610e8e818787878787611a45565b505050505050565b610e9e611c1c565b6000600360006101000a81548160ff0219169083151502179055507f5db9ee0a495bf2e6ff9c91a7834c1ba4fdd244a5e8aa4e537bd38aeae4b073aa610ee2610b6d565b604051610eef9190613361565b60405180910390a1565b600073ffffffffffffffffffffffffffffffffffffffff168373ffffffffffffffffffffffffffffffffffffffff1603610f68576040517f08c379a0000000000000000000000000000000000000000000000000000000008152600401610f5f906133ee565b60405180910390fd5b8051825114610fac576040517f08c379a0000000000000000000000000000000000000000000000000000000008152600401610fa3906131a3565b60405180910390fd5b6000610fb6610b6d565b9050610fd681856000868660405180602001604052806000815250611a27565b60005b8351811015611123576000848281518110610ff757610ff6612d7b565b5b60200260200101519050600084838151811061101657611015612d7b565b5b60200260200101519050600080600084815260200190815260200160002060008973ffffffffffffffffffffffffffffffffffffffff1673ffffffffffffffffffffffffffffffffffffffff168152602001908152602001600020549050818110156110b7576040517f08c379a00000000000000000000000000000000000000000000000000000000081526004016110ae90613480565b60405180910390fd5b81810360008085815260200190815260200160002060008a73ffffffffffffffffffffffffffffffffffffffff1673ffffffffffffffffffffffffffffffffffffffff16815260200190815260200160002081905550505050808061111b90612dd9565b915050610fd9565b50600073ffffffffffffffffffffffffffffffffffffffff168473ffffffffffffffffffffffffffffffffffffffff168273ffffffffffffffffffffffffffffffffffffffff167f4a39dc06d4c0dbc64b70af90fd698a233a518aa5d07e595d983b8c0526c8f7fb868660405161119b9291906131f7565b60405180910390a46111c181856000868660405180602001604052806000815250611a3d565b50505050565b600073ffffffffffffffffffffffffffffffffffffffff168473ffffffffffffffffffffffffffffffffffffffff1603611236576040517f08c379a000000000000000000000000000000000000000000000000000000000815260040161122d90613111565b60405180910390fd5b6000611240610b6d565b9050600061124d85611c65565b9050600061125a85611c65565b905061126b83600089858589611a27565b8460008088815260200190815260200160002060008973ffffffffffffffffffffffffffffffffffffffff1673ffffffffffffffffffffffffffffffffffffffff16815260200190815260200160002060008282546112ca91906131c3565b925050819055508673ffffffffffffffffffffffffffffffffffffffff16600073ffffffffffffffffffffffffffffffffffffffff168473ffffffffffffffffffffffffffffffffffffffff167fc3d58168c5ae7397731d063d5bbf3d657854427343f4c083240f7aacaa2d0f6289896040516113489291906134a0565b60405180910390a461135f83600089858589611a3d565b61136e83600089898989611cdf565b50505050505050565b61137f611eb6565b6001600360006101000a81548160ff0219169083151502179055507f62e78cea01bee320cd4e420270b5ea74000d11b0c9f74754ebdbfc544b05a2586113c3610b6d565b6040516113d09190613361565b60405180910390a1565b8173ffffffffffffffffffffffffffffffffffffffff168373ffffffffffffffffffffffffffffffffffffffff1603611448576040517f08c379a000000000000000000000000000000000000000000000000000000000815260040161143f9061353b565b60405180910390fd5b80600160008573ffffffffffffffffffffffffffffffffffffffff1673ffffffffffffffffffffffffffffffffffffffff16815260200190815260200160002060008473ffffffffffffffffffffffffffffffffffffffff1673ffffffffffffffffffffffffffffffffffffffff16815260200190815260200160002060006101000a81548160ff0219169083151502179055508173ffffffffffffffffffffffffffffffffffffffff168373ffffffffffffffffffffffffffffffffffffffff167f17307eab39ab6107e8899845ad3d59bd9653f200f220920489ca2b5937696c3183604051611539919061213b565b60405180910390a3505050565b600073ffffffffffffffffffffffffffffffffffffffff168473ffffffffffffffffffffffffffffffffffffffff16036115b5576040517f08c379a00000000000000000000000000000000000000000000000000000000081526004016115ac906132a0565b60405180910390fd5b60006115bf610b6d565b905060006115cc85611c65565b905060006115d985611c65565b90506115e9838989858589611a27565b600080600088815260200190815260200160002060008a73ffffffffffffffffffffffffffffffffffffffff1673ffffffffffffffffffffffffffffffffffffffff16815260200190815260200160002054905085811015611680576040517f08c379a000000000000000000000000000000000000000000000000000000000815260040161167790613332565b60405180910390fd5b85810360008089815260200190815260200160002060008b73ffffffffffffffffffffffffffffffffffffffff1673ffffffffffffffffffffffffffffffffffffffff168152602001908152602001600020819055508560008089815260200190815260200160002060008a73ffffffffffffffffffffffffffffffffffffffff1673ffffffffffffffffffffffffffffffffffffffff168152602001908152602001600020600082825461173591906131c3565b925050819055508773ffffffffffffffffffffffffffffffffffffffff168973ffffffffffffffffffffffffffffffffffffffff168573ffffffffffffffffffffffffffffffffffffffff167fc3d58168c5ae7397731d063d5bbf3d657854427343f4c083240f7aacaa2d0f628a8a6040516117b29291906134a0565b60405180910390a46117c8848a8a86868a611a3d565b6117d6848a8a8a8a8a611cdf565b505050505050505050565b600073ffffffffffffffffffffffffffffffffffffffff168373ffffffffffffffffffffffffffffffffffffffff1603611850576040517f08c379a0000000000000000000000000000000000000000000000000000000008152600401611847906133ee565b60405180910390fd5b600061185a610b6d565b9050600061186784611c65565b9050600061187484611c65565b905061189483876000858560405180602001604052806000815250611a27565b600080600087815260200190815260200160002060008873ffffffffffffffffffffffffffffffffffffffff1673ffffffffffffffffffffffffffffffffffffffff1681526020019081526020016000205490508481101561192b576040517f08c379a000000000000000000000000000000000000000000000000000000000815260040161192290613480565b60405180910390fd5b84810360008088815260200190815260200160002060008973ffffffffffffffffffffffffffffffffffffffff1673ffffffffffffffffffffffffffffffffffffffff16815260200190815260200160002081905550600073ffffffffffffffffffffffffffffffffffffffff168773ffffffffffffffffffffffffffffffffffffffff168573ffffffffffffffffffffffffffffffffffffffff167fc3d58168c5ae7397731d063d5bbf3d657854427343f4c083240f7aacaa2d0f6289896040516119f89291906134a0565b60405180910390a4611a1e84886000868660405180602001604052806000815250611a3d565b50505050505050565b611a35868686868686611f00565b505050505050565b505050505050565b611a648473ffffffffffffffffffffffffffffffffffffffff16611f5e565b15611c14578373ffffffffffffffffffffffffffffffffffffffff1663bc197c8187878686866040518663ffffffff1660e01b8152600401611aaa9594939291906135b0565b6020604051808303816000875af1925050508015611ae657506040513d601f19601f82011682018060405250810190611ae3919061362d565b60015b611b8b57611af2613667565b806308c379a003611b4e5750611b06613689565b80611b115750611b50565b806040517f08c379a0000000000000000000000000000000000000000000000000000000008152600401611b459190612391565b60405180910390fd5b505b6040517f08c379a0000000000000000000000000000000000000000000000000000000008152600401611b829061378b565b60405180910390fd5b63bc197c8160e01b7bffffffffffffffffffffffffffffffffffffffffffffffffffffffff1916817bffffffffffffffffffffffffffffffffffffffffffffffffffffffff191614611c12576040517f08c379a0000000000000000000000000000000000000000000000000000000008152600401611c099061381d565b60405180910390fd5b505b505050505050565b611c24610726565b611c63576040517f08c379a0000000000000000000000000000000000000000000000000000000008152600401611c5a90613889565b60405180910390fd5b565b60606000600167ffffffffffffffff811115611c8457611c83612171565b5b604051908082528060200260200182016040528015611cb25781602001602082028036833780820191505090505b5090508281600081518110611cca57611cc9612d7b565b5b60200260200101818152505080915050919050565b611cfe8473ffffffffffffffffffffffffffffffffffffffff16611f5e565b15611eae578373ffffffffffffffffffffffffffffffffffffffff1663f23a6e6187878686866040518663ffffffff1660e01b8152600401611d449594939291906138a9565b6020604051808303816000875af1925050508015611d8057506040513d601f19601f82011682018060405250810190611d7d919061362d565b60015b611e2557611d8c613667565b806308c379a003611de85750611da0613689565b80611dab5750611dea565b806040517f08c379a0000000000000000000000000000000000000000000000000000000008152600401611ddf9190612391565b60405180910390fd5b505b6040517f08c379a0000000000000000000000000000000000000000000000000000000008152600401611e1c9061378b565b60405180910390fd5b63f23a6e6160e01b7bffffffffffffffffffffffffffffffffffffffffffffffffffffffff1916817bffffffffffffffffffffffffffffffffffffffffffffffffffffffff191614611eac576040517f08c379a0000000000000000000000000000000000000000000000000000000008152600401611ea39061381d565b60405180910390fd5b505b505050505050565b611ebe610726565b15611efe576040517f08c379a0000000000000000000000000000000000000000000000000000000008152600401611ef59061394f565b60405180910390fd5b565b611f0e868686868686611f81565b611f16610726565b15611f56576040517f08c379a0000000000000000000000000000000000000000000000000000000008152600401611f4d906139e1565b60405180910390fd5b505050505050565b6000808273ffffffffffffffffffffffffffffffffffffffff163b119050919050565b505050505050565b6000604051905090565b600080fd5b600080fd5b600073ffffffffffffffffffffffffffffffffffffffff82169050919050565b6000611fc882611f9d565b9050919050565b611fd881611fbd565b8114611fe357600080fd5b50565b600081359050611ff581611fcf565b92915050565b6000819050919050565b61200e81611ffb565b811461201957600080fd5b50565b60008135905061202b81612005565b92915050565b6000806040838503121561204857612047611f93565b5b600061205685828601611fe6565b92505060206120678582860161201c565b9150509250929050565b61207a81611ffb565b82525050565b60006020820190506120956000830184612071565b92915050565b60007fffffffff0000000000000000000000000000000000000000000000000000000082169050919050565b6120d08161209b565b81146120db57600080fd5b50565b6000813590506120ed816120c7565b92915050565b60006020828403121561210957612108611f93565b5b6000612117848285016120de565b91505092915050565b60008115159050919050565b61213581612120565b82525050565b6000602082019050612150600083018461212c565b92915050565b600080fd5b600080fd5b6000601f19601f8301169050919050565b7f4e487b7100000000000000000000000000000000000000000000000000000000600052604160045260246000fd5b6121a982612160565b810181811067ffffffffffffffff821117156121c8576121c7612171565b5b80604052505050565b60006121db611f89565b90506121e782826121a0565b919050565b600067ffffffffffffffff82111561220757612206612171565b5b61221082612160565b9050602081019050919050565b82818337600083830152505050565b600061223f61223a846121ec565b6121d1565b90508281526020810184848401111561225b5761225a61215b565b5b61226684828561221d565b509392505050565b600082601f83011261228357612282612156565b5b813561229384826020860161222c565b91505092915050565b6000602082840312156122b2576122b1611f93565b5b600082013567ffffffffffffffff8111156122d0576122cf611f98565b5b6122dc8482850161226e565b91505092915050565b6000602082840312156122fb576122fa611f93565b5b60006123098482850161201c565b91505092915050565b600081519050919050565b600082825260208201905092915050565b60005b8381101561234c578082015181840152602081019050612331565b60008484015250505050565b600061236382612312565b61236d818561231d565b935061237d81856020860161232e565b61238681612160565b840191505092915050565b600060208201905081810360008301526123ab8184612358565b905092915050565b600067ffffffffffffffff8211156123ce576123cd612171565b5b602082029050602081019050919050565b600080fd5b60006123f76123f2846123b3565b6121d1565b9050808382526020820190506020840283018581111561241a576124196123df565b5b835b81811015612443578061242f888261201c565b84526020840193505060208101905061241c565b5050509392505050565b600082601f83011261246257612461612156565b5b81356124728482602086016123e4565b91505092915050565b600067ffffffffffffffff82111561249657612495612171565b5b61249f82612160565b9050602081019050919050565b60006124bf6124ba8461247b565b6121d1565b9050828152602081018484840111156124db576124da61215b565b5b6124e684828561221d565b509392505050565b600082601f83011261250357612502612156565b5b81356125138482602086016124ac565b91505092915050565b6000806000806080858703121561253657612535611f93565b5b600061254487828801611fe6565b945050602085013567ffffffffffffffff81111561256557612564611f98565b5b6125718782880161244d565b935050604085013567ffffffffffffffff81111561259257612591611f98565b5b61259e8782880161244d565b925050606085013567ffffffffffffffff8111156125bf576125be611f98565b5b6125cb878288016124ee565b91505092959194509250565b600080600080600060a086880312156125f3576125f2611f93565b5b600061260188828901611fe6565b955050602061261288828901611fe6565b945050604086013567ffffffffffffffff81111561263357612632611f98565b5b61263f8882890161244d565b935050606086013567ffffffffffffffff8111156126605761265f611f98565b5b61266c8882890161244d565b925050608086013567ffffffffffffffff81111561268d5761268c611f98565b5b612699888289016124ee565b9150509295509295909350565b600067ffffffffffffffff8211156126c1576126c0612171565b5b602082029050602081019050919050565b60006126e56126e0846126a6565b6121d1565b90508083825260208201905060208402830185811115612708576127076123df565b5b835b81811015612731578061271d8882611fe6565b84526020840193505060208101905061270a565b5050509392505050565b600082601f8301126127505761274f612156565b5b81356127608482602086016126d2565b91505092915050565b600080604083850312156127805761277f611f93565b5b600083013567ffffffffffffffff81111561279e5761279d611f98565b5b6127aa8582860161273b565b925050602083013567ffffffffffffffff8111156127cb576127ca611f98565b5b6127d78582860161244d565b9150509250929050565b600081519050919050565b600082825260208201905092915050565b6000819050602082019050919050565b61281681611ffb565b82525050565b6000612828838361280d565b60208301905092915050565b6000602082019050919050565b600061284c826127e1565b61285681856127ec565b9350612861836127fd565b8060005b83811015612892578151612879888261281c565b975061288483612834565b925050600181019050612865565b5085935050505092915050565b600060208201905081810360008301526128b98184612841565b905092915050565b6000806000606084860312156128da576128d9611f93565b5b60006128e886828701611fe6565b935050602084013567ffffffffffffffff81111561290957612908611f98565b5b6129158682870161244d565b925050604084013567ffffffffffffffff81111561293657612935611f98565b5b6129428682870161244d565b9150509250925092565b6000806000806080858703121561296657612965611f93565b5b600061297487828801611fe6565b94505060206129858782880161201c565b93505060406129968782880161201c565b925050606085013567ffffffffffffffff8111156129b7576129b6611f98565b5b6129c3878288016124ee565b91505092959194509250565b6129d881612120565b81146129e357600080fd5b50565b6000813590506129f5816129cf565b92915050565b60008060408385031215612a1257612a11611f93565b5b6000612a2085828601611fe6565b9250506020612a31858286016129e6565b9150509250929050565b60008060408385031215612a5257612a51611f93565b5b6000612a6085828601611fe6565b9250506020612a7185828601611fe6565b9150509250929050565b600080600080600060a08688031215612a9757612a96611f93565b5b6000612aa588828901611fe6565b9550506020612ab688828901611fe6565b9450506040612ac78882890161201c565b9350506060612ad88882890161201c565b925050608086013567ffffffffffffffff811115612af957612af8611f98565b5b612b05888289016124ee565b9150509295509295909350565b600080600060608486031215612b2b57612b2a611f93565b5b6000612b3986828701611fe6565b9350506020612b4a8682870161201c565b9250506040612b5b8682870161201c565b9150509250925092565b7f455243313135353a2061646472657373207a65726f206973206e6f742061207660008201527f616c6964206f776e657200000000000000000000000000000000000000000000602082015250565b6000612bc1602a8361231d565b9150612bcc82612b65565b604082019050919050565b60006020820190508181036000830152612bf081612bb4565b9050919050565b7f4e487b7100000000000000000000000000000000000000000000000000000000600052602260045260246000fd5b60006002820490506001821680612c3e57607f821691505b602082108103612c5157612c50612bf7565b5b50919050565b7f455243313135353a2063616c6c6572206973206e6f7420746f6b656e206f776e60008201527f6572206f7220617070726f766564000000000000000000000000000000000000602082015250565b6000612cb3602e8361231d565b9150612cbe82612c57565b604082019050919050565b60006020820190508181036000830152612ce281612ca6565b9050919050565b7f455243313135353a206163636f756e747320616e6420696473206c656e67746860008201527f206d69736d617463680000000000000000000000000000000000000000000000602082015250565b6000612d4560298361231d565b9150612d5082612ce9565b604082019050919050565b60006020820190508181036000830152612d7481612d38565b9050919050565b7f4e487b7100000000000000000000000000000000000000000000000000000000600052603260045260246000fd5b7f4e487b7100000000000000000000000000000000000000000000000000000000600052601160045260246000fd5b6000612de482611ffb565b91507fffffffffffffffffffffffffffffffffffffffffffffffffffffffffffffffff8203612e1657612e15612daa565b5b600182019050919050565b60008190508160005260206000209050919050565b60006020601f8301049050919050565b600082821b905092915050565b600060088302612e837fffffffffffffffffffffffffffffffffffffffffffffffffffffffffffffffff82612e46565b612e8d8683612e46565b95508019841693508086168417925050509392505050565b6000819050919050565b6000612eca612ec5612ec084611ffb565b612ea5565b611ffb565b9050919050565b6000819050919050565b612ee483612eaf565b612ef8612ef082612ed1565b848454612e53565b825550505050565b600090565b612f0d612f00565b612f18818484612edb565b505050565b5b81811015612f3c57612f31600082612f05565b600181019050612f1e565b5050565b601f821115612f8157612f5281612e21565b612f5b84612e36565b81016020851015612f6a578190505b612f7e612f7685612e36565b830182612f1d565b50505b505050565b600082821c905092915050565b6000612fa460001984600802612f86565b1980831691505092915050565b6000612fbd8383612f93565b9150826002028217905092915050565b612fd682612312565b67ffffffffffffffff811115612fef57612fee612171565b5b612ff98254612c26565b613004828285612f40565b600060209050601f8311600181146130375760008415613025578287015190505b61302f8582612fb1565b865550613097565b601f19841661304586612e21565b60005b8281101561306d57848901518255600182019150602085019450602081019050613048565b8683101561308a5784890151613086601f891682612f93565b8355505b6001600288020188555050505b505050505050565b7f455243313135353a206d696e7420746f20746865207a65726f2061646472657360008201527f7300000000000000000000000000000000000000000000000000000000000000602082015250565b60006130fb60218361231d565b91506131068261309f565b604082019050919050565b6000602082019050818103600083015261312a816130ee565b9050919050565b7f455243313135353a2069647320616e6420616d6f756e7473206c656e6774682060008201527f6d69736d61746368000000000000000000000000000000000000000000000000602082015250565b600061318d60288361231d565b915061319882613131565b604082019050919050565b600060208201905081810360008301526131bc81613180565b9050919050565b60006131ce82611ffb565b91506131d983611ffb565b92508282019050808211156131f1576131f0612daa565b5b92915050565b600060408201905081810360008301526132118185612841565b905081810360208301526132258184612841565b90509392505050565b7f455243313135353a207472616e7366657220746f20746865207a65726f20616460008201527f6472657373000000000000000000000000000000000000000000000000000000602082015250565b600061328a60258361231d565b91506132958261322e565b604082019050919050565b600060208201905081810360008301526132b98161327d565b9050919050565b7f455243313135353a20696e73756666696369656e742062616c616e636520666f60008201527f72207472616e7366657200000000000000000000000000000000000000000000602082015250565b600061331c602a8361231d565b9150613327826132c0565b604082019050919050565b6000602082019050818103600083015261334b8161330f565b9050919050565b61335b81611fbd565b82525050565b60006020820190506133766000830184613352565b92915050565b7f455243313135353a206275726e2066726f6d20746865207a65726f206164647260008201527f6573730000000000000000000000000000000000000000000000000000000000602082015250565b60006133d860238361231d565b91506133e38261337c565b604082019050919050565b60006020820190508181036000830152613407816133cb565b9050919050565b7f455243313135353a206275726e20616d6f756e7420657863656564732062616c60008201527f616e636500000000000000000000000000000000000000000000000000000000602082015250565b600061346a60248361231d565b91506134758261340e565b604082019050919050565b600060208201905081810360008301526134998161345d565b9050919050565b60006040820190506134b56000830185612071565b6134c26020830184612071565b9392505050565b7f455243313135353a2073657474696e6720617070726f76616c2073746174757360008201527f20666f722073656c660000000000000000000000000000000000000000000000602082015250565b600061352560298361231d565b9150613530826134c9565b604082019050919050565b6000602082019050818103600083015261355481613518565b9050919050565b600081519050919050565b600082825260208201905092915050565b60006135828261355b565b61358c8185613566565b935061359c81856020860161232e565b6135a581612160565b840191505092915050565b600060a0820190506135c56000830188613352565b6135d26020830187613352565b81810360408301526135e48186612841565b905081810360608301526135f88185612841565b9050818103608083015261360c8184613577565b90509695505050505050565b600081519050613627816120c7565b92915050565b60006020828403121561364357613642611f93565b5b600061365184828501613618565b91505092915050565b60008160e01c9050919050565b600060033d11156136865760046000803e61368360005161365a565b90505b90565b600060443d106137165761369b611f89565b60043d036004823e80513d602482011167ffffffffffffffff821117156136c3575050613716565b808201805167ffffffffffffffff8111156136e15750505050613716565b80602083010160043d0385018111156136fe575050505050613716565b61370d826020018501866121a0565b82955050505050505b90565b7f455243313135353a207472616e7366657220746f206e6f6e2d4552433131353560008201527f526563656976657220696d706c656d656e746572000000000000000000000000602082015250565b600061377560348361231d565b915061378082613719565b604082019050919050565b600060208201905081810360008301526137a481613768565b9050919050565b7f455243313135353a204552433131353552656365697665722072656a6563746560008201527f6420746f6b656e73000000000000000000000000000000000000000000000000602082015250565b600061380760288361231d565b9150613812826137ab565b604082019050919050565b60006020820190508181036000830152613836816137fa565b9050919050565b7f5061757361626c653a206e6f7420706175736564000000000000000000000000600082015250565b600061387360148361231d565b915061387e8261383d565b602082019050919050565b600060208201905081810360008301526138a281613866565b9050919050565b600060a0820190506138be6000830188613352565b6138cb6020830187613352565b6138d86040830186612071565b6138e56060830185612071565b81810360808301526138f78184613577565b90509695505050505050565b7f5061757361626c653a2070617573656400000000000000000000000000000000600082015250565b600061393960108361231d565b915061394482613903565b602082019050919050565b600060208201905081810360008301526139688161392c565b9050919050565b7f455243313135355061757361626c653a20746f6b656e207472616e736665722060008201527f7768696c65207061757365640000000000000000000000000000000000000000602082015250565b60006139cb602c8361231d565b91506139d68261396f565b604082019050919050565b600060208201905081810360008301526139fa816139be565b905091905056fea2646970667358221220f0d6c27b9f46714b0a8d73c2a20376f908b05ad8a0f0d08e1d8925ca0c4523c164736f6c63430008110033",
  "linkReferences": {},
  "deployedLinkReferences": {}
}